:100000000C9454030C949B030C949B030C9455295F
:100010000C949B030C949B030C949B030C949B03E8
:100020000C949B030C949B030C94A0100C94DD0F78
:100030000C94E5110C949B030C949B030C949B0370
:100040000C949B030C949B030C949B030C949B03B8
:100050000C949B030C9498110C949B030C949B039D
:100060000C949B030C949B030C949B030C949B0398
:100070000C949B030C949B030C949B030C949B0388
:100080000C949B030C949B030C949B030C949B0378
:100090000C949B030C949B030C949B030C949B0368
:1000A0000C949B030C949B030C949B0345044A05FE
:1000B000EB046204870497044A054A05B104C904A5
:1000C000DD04FD0426051205B208B208EA08EA08B4
:1000D000BE0ABE0ABE0ABE0A3309110A220A220A51
:1000E0004A044A05EB046204870497044A054A055A
:1000F000B104C904DD04FD04260512055B044A05AC
:10010000EB046204870497044A054A05B104C90454
:10011000DD04FD0426051205100E370EB50F370E4F
:10012000B50F7F0EA20EB50F7F0F920F59185918F9
:100130006C186C1862186C186C186C1859185918CF
:1001400067186C186C18671805010906A1010507E6
:1001500019E029E71500250195087501810295012F
:10016000750881010507190029FF150026FF009574
:100170000675088100050819012905950575019185
:1001800002950175039101C009022200010100A03E
:10019000FA09040000010301010009211101000115
:1001A0002240000705810308000A12010002000036
:1001B00000081D8D9D9D0100010200010C034B00F4
:1001C0007900720069006100000010037300700084
:1001D0006C00690074004B00420000000403090435
:1001E00000047F3F1F643214643214783C1E1E14D6
:1001F0000A050001010101010101010102020202DF
:1002000002020202020303030303030303040404C0
:100210000404040405050505050606060606070789
:1002200007070708080808090909090A0A0A0B0B41
:100230000B0C0C0C0D0D0D0E0E0E0F0F0F101011E0
:100240001111121213131414151516161717181866
:1002500019191A1A1B1B1C1D1D1E1E1F20202122CE
:1002600022232424252626272829292A2B2C2D2D14
:100270002E2F30313232333435363738393A3B3C31
:100280003D3E3F404142434445464748494A4C4D24
:100290004E4F50515354555658595A5B5D5E5F61ED
:1002A0006264656668696B6C6D6F70727375777880
:1002B0007A7B7D7E8082838587888A8C8E8F9193DE
:1002C0009596989A9C9EA0A2A3A5A7A9ABADAFB105
:1002D000B3B5B7BABCBEC0C2C4C6C9CBCDCFD1D4EA
:1002E000D6D8DBDDDFE2E4E7E9EBEEF0F3F5F8FA90
:1002F000FDFF000000000500130009001A001400B3
:100300000251000000000A001700045715000057B2
:10031000635D29612C410700190006001B001C00C9
:10032000650029612C41E2002B002C000000000038
:100330000000000000000D000F0003571D006C5D61
:100340006D5D000000001000110001570C000B0053
:100350006E5D28612A720E000257695D6A5D6B5DF1
:10036000000028612A72E4006F5D2C00000000008C
:10037000000000000000665D24002500260001004A
:10038000010000000000675D1E001F002000270024
:10039000640001000100685D2100220023000100CB
:1003A0000100010001000100010001000000000047
:1003B0000000000000001F024A0052004D00000033
:1003C000655D000000003202500051004F00000047
:1003D000705D01004C002D02380030001E0200004C
:1003E000000001004C0001000100010000000000BD
:1003F00000000000000043004000410042000100F6
:1004000001000000000044003A003B003C000100F5
:1004100001000100010045003D003E003F000100D9
:1004200001000100010001000100010000000000C6
:1004300000000000000001000100010001000100B7
:1004400001000000000001000100010001000100A6
:100450000100010001000100010001000100010094
:100460000100010001000100010001000000000086
:100470000000000000000100010001000100010077
:100480000100000000000100010001000100010066
:100490000100010001000100010001000100010054
:1004A0000100010001000100010001000000000046
:1004B0000000000000000100010001000100010037
:1004C000010000000000C35CC85CC65CCA5CC45C80
:1004D0000100010001000100C95CC75CCB5CC55C88
:1004E0000100010001000100010001000000000006
:1004F0000000FFAA7F55402223252628292A2C2DDB
:100500002F3032333536383A3B3D3E404243454743
:10051000494A4C4E5051535557595A5C5E6062647B
:100520006668696B6D6F71737577797B7D7F818389
:100530008587898A8C8E90929496989A9C9E9FA18A
:10054000A3A5A7A8AAACAEAFB1B3B4B6B8B9BBBCAB
:10055000BEBFC1C2C3C5C6C7C9CACBCCCDCED0D120
:10056000D2D2D3D4D5D6D7D7D8D9D9DADADBDBDB18
:10057000DCDCDCDCDCDDDDDDDDDCDCDCDCDCDBDBB9
:10058000DBDADAD9D9D8D7D7D6D5D4D3D2D2D1D00D
:10059000CECDCCCBCAC9C7C6C5C3C2C1BFBEBCBB0A
:1005A000B9B8B6B4B3B1AFAEACAAA8A7A5A3A19F82
:1005B0009E9C9A98969492908E8C8A898785838146
:1005C0007F7D7B79777573716F6D6B696866646227
:1005D000605E5C5A5957555351504E4C4A494745F5
:1005E0004342403E3D3B3A3836353332302F2D2C96
:1005F0002A292826252322000000000000000000F0
:1006000000000000000000000000000000000000EA
:1006100000000000000000000000007E0F00D4FF7A
:10062000FFFFC70000007800000000000000002A63
:100630002B28000000000000000000000000000067
:10064000000029000000002C1E3420212224342622
:1006500027252E362D3738271E1F2021222324251B
:10066000263333362E37381F0405060708090A0BD0
:100670000C0D0E0F101112131415161718191A1B42
:100680001C1D2F3130232D350405060708090A0BE0
:100690000C0D0E0F101112131415161718191A1B22
:1006A0001C1D2F3130354C0011241FBECFEFDAE076
:1006B000DEBFCDBF04B603FE27C0809147039091F3
:1006C0004803A0914903B0914A038730904BA7405B
:1006D000B04BD1F410924703109248031092490393
:1006E00010924A0314BE84B7877F84BF0FB6F89474
:1006F000A8958091600088618093600010926000EE
:100700000FBEE0E0F8E3099512E0A0E0B1E0E8EB0D
:10071000F7E502C005900D92A230B107D9F723E0AA
:10072000A2E0B2E001C01D92A734B207E1F70E9437
:1007300058140C94DA2B0C9400008F929F92AF9275
:10074000BF92CF92DF92EF92FF920F931F93CF93BE
:10075000DF93CDB7DEB72A970FB6F894DEBF0FBE92
:10076000CDBFFC01D080118183819481892B39F028
:100770001F3F39F491E00FEFD01203C003C091E0A6
:1007800001C090E090FF02C00C94C50B7F0185E092
:10079000DE01169601900D928A95E1F7D701129627
:1007A0002C918E819F81222349F00E94CC17082F23
:1007B000682F8E819F810E943D1A03C00E94111AEA
:1007C000082FE12FF0E0B8E00B9FE00DF11D1124A0
:1007D000A3E0EE0FFF1FAA95E1F7ED0DF11DEE0F5F
:1007E000FF1FEE50FD4F05911491F7018281882380
:1007F00009F407C780910C018F3F09F444C17CE5DF
:10080000C72E71E0D72EA12CB12C992493948091FE
:100810000C01082E000C990B8A159B055CF1D60182
:1008200016968C9116978823F1F019968D919C91CC
:100830001A978017910739F48091430390914403EC
:100840008017910781F0F6019786148703878189C5
:10085000811103C0C6010E949D22C60106960E9416
:10086000BE2210924503FFEFAF1ABF0A26E1C20E67
:10087000D11CCDCFF801E356FD45EE30F10508F06F
:1008800009C1EA5AFF4F0C94742BD70112968C9130
:10089000882389F08091460385FD05C086EE0E947D
:1008A000951B84E11BC085EE0E941C1B86EE0E94F6
:1008B000951B84E61EC084E10E941C1B84E60E94F6
:1008C0001C1BC3C3F70182818823E1F0809146039A
:1008D00085FD08C086EE0E94951B84E20E94951B50
:1008E00086EEEDCF85EE0E941C1B86EE0E94951BC6
:1008F00087E20E94951B86EE0E941C1B85EE0E94DB
:10090000951BA3C384E20E941C1B87E2D8CFD701AA
:1009100012968C91882379F08091460385FD05C05D
:1009200085EE0E94951B85E29EC086E2E8CFF70126
:100930008281811105C085E20E941C1B86E2BFCF27
:100940008091460385FD05C086EE0E94951B85E2D9
:10095000C5CF85EE0E941C1B86EE0E94951B86E289
:10096000C8CFD70112968C91882389F080914603D5
:1009700085FD05C085EE0E94951B84E274C085EE5E
:100980000E941C1B86EE0E94951B80E3B2CF84E27E
:1009900045C0F7018281882359F08091460385FD87
:1009A00005C085EE0E94951B82E25DC083E2A7CF61
:1009B00082E20E941C1B83E282CFD70112968C91A7
:1009C0008823B1F08091460385FD0DC085E30E9428
:1009D000171C85E394CFF7018281882361F0809111
:1009E000460385FD32C38EE20E94171C8EE287CF3C
:1009F00085E30E941C1B8EE262CFD70112968C9178
:100A0000882359F08091460385FD05C085EE0E943C
:100A1000951B87E228C080E372CF87E20E941C1BEF
:100A200080E34DCFF7018281882359F080914603FE
:100A300085FD05C085EE0E94951B81E214C080E211
:100A40005ECF81E20E941C1B80E239CFD701129653
:100A50008C91882399F08091460385FD08C085EE2E
:100A60000E94951B88E30E94951B85EE28CF85EE9A
:100A70000E941C1B82E30E94951B40CF88E30E94CA
:100A80001C1B82E31CCFF801E356FD45EE30F10557
:100A900008F4B3C5C80197558F3F910511F008F0D0
:100AA00053C020910C01022E000C330B281739077C
:100AB00014F480930C01F701228136E1389F500134
:100AC000399FB00C1124C501845A9E4F6C01DC0182
:100AD00050962C935097928116968C911697992345
:100AE00041F11A961C930E9319978F5F16968C936B
:100AF0000E94D911F601968785878091C30287836A
:100B00009091450380914603892B80870190F08165
:100B1000E02DC5018E599E4F309731F0D601549685
:100B20006D917C915597099510934403009343036D
:100B30000BC0882349F0F6018189882329F0C5017B
:100B40008E599E4F0E94BE22D70112968C91882307
:100B500069F0C801825E9C45059740F46EE1600F24
:100B6000609330028CE090E00E94E82A17FF7EC07C
:100B7000F7018281882309F479C00E945912869571
:100B800081708093050290913002913029F488237E
:100B900019F089E30E94171C809146038093040298
:100BA0001092460380913002813071F048F082301B
:100BB000A1F08430C1F486EE0E94171C88E111C0B8
:100BC00082EE0E94951B0FC088E193E00E94992855
:100BD00088E193E00E947F2806C082EE0E94951B68
:100BE00087E50E94171C8FE39CE90197F1F700C08D
:100BF00000005801E894B7F86CE0C62ED12CC5016E
:100C00000C2C02C0969587950A94E2F78F7096EFA8
:100C1000980F963010F0805D01C0895A0E94192803
:100C200094E0C91AD108ACEFCA16AFEFDA0639F76B
:100C300080913002813039F078F0823069F0843070
:100C400089F488E20DC08CE20E94171C8091050295
:100C5000882341F089E304C082EE0E941C1B02C07D
:100C60000E94171C8091040280934603043FBCE558
:100C70001B0741F190F4093DFCE51F07E9F00A3D2F
:100C80002CE5120789F1083D3CE51307B1F506E2B2
:100C900021EE41EE68ED7CE52CC0063F8CE518079F
:100CA000E9F0B0F0073FACE51A0739F507E225EEA9
:100CB00046EE67EF7CE51DC007E225EE45EE69EDE7
:100CC0007CE517C006E221EE40EE64EF7CE511C042
:100CD00007E225EE44EE65EF7CE50BC006E221EE6F
:100CE00042EE66EF7CE505C008E221E045EE6AEDE4
:100CF0007CE5C7010E940923A8C1F70182818823EE
:100D000009F43EC1109242030230FCE51F0708F4CB
:100D100021C106312CE5120730F0C8018B5F9C45DC
:100D2000099708F017C10E949E1F90932F0280938D
:100D30002E0200313CE5130709F4C3C008F041C09E
:100D400008309CE5190709F49AC0F0F40430BCE5BA
:100D50001B0709F487C068F40230FCE51F0709F49B
:100D600077C003301C4509F0E5C080912E028260F7
:100D700076C006303CE5130709F46EC008F07BC06E
:100D800080912E0288606BC00C309CE5190709F435
:100D900085C068F40A30BCE51B0709F474C008F08C
:100DA00079C00E94E71A80912E02806858C00E30E8
:100DB000FCE51F0709F476C008F07FC080912E0281
:100DC0008BC00C3F3CE5130709F44FC018F5033105
:100DD0009CE5190709F47DC078F40131BCE51B07D7
:100DE00009F473C002311C4509F0A4C00E94E71A3F
:100DF00080912E028F7733C00531FCE51F0709F47F
:100E000072C008F486C00B3F1C4509F093C0809166
:100E10002F023EC001158DE5180709F45FC058F494
:100E20000E3FACE51A0709F444C008F43FC08091B6
:100E30002F0282602DC00230EDE51E0709F475C057
:100E400008F45DC003301D4509F074C060E06EC059
:100E500080912E02816003C080912E028061809378
:100E60002E0268C080912E0211C080912F028260F4
:100E700080932F025FC080912E028062F0CF80911C
:100E80002E028064ECCF80912E0288608460E7CFD0
:100E90008160EECF80912E028E7FE1CF80912E0275
:100EA0008D7FDDCF80912E02877FD9CF80912F0259
:100EB00018C080912F028D7FDBCF80912E028F7E14
:100EC000CECF80912E028F7DCACF80912E028F7B54
:100ED000C6CF80912E02877F8B7FC1CF80912F025A
:100EE0008D7F8E7FC5CF80912E0282FB222720F935
:100EF00091E0922790FB82F990FB83F9B0CF80912B
:100F00002F02982F909591708E7F892B90FB81F9FD
:100F1000AFCF0E94E71A80912E0287FB222720F98B
:100F200091E0922790FB87F99ACF61E08EE090E004
:100F30000E94E82A60912E0210912F0284E090E036
:100F40000E94E82A612F82E290E00E94E82A0E9433
:100F5000E71A7BC006312CE5120721F58091460384
:100F60008A7A91E009F490E090930602882311F0C8
:100F700065E301C069E284E592E00E943F120FC080
:100F80000631BCE51B0709F041C0809106028823A9
:100F900009F442C365E384E592E00E9432120E94A4
:100FA0000F1753C00B352DE5120751F158F40115F9
:100FB0008CE51807B9F00F3D1C4509F078C00E9478
:100FC000AF1F43C00C35ADE51A07E1F00D351D45E7
:100FD00009F06DC080912F0282FB882780F991E093
:100FE000892711C00E94E71AEFEFF4E30CE0E1500B
:100FF000F0400040E1F700C000000E94741125C0DD
:1010000081E001C080E00E943C1751C080914603FE
:1010100082720D3C3CE5130709F497C3B0F1023D21
:101020008CE5180709F4A1C308F428C3053D2CE595
:10103000120709F4A0C308F434C3063DACE51A074F
:1010400009F49EC30E351D4591F58091C00287704D
:1010500009F49BC3D70112968C91882309F495C398
:1010600082E02A960FB6F894DEBF0FBECDBFDF91A7
:10107000CF911F910F91FF90EF90DF90CF90BF9095
:10108000AF909F908F900C949B1A073CACE51A0789
:1010900009F447C308F0D0C2043CECE51E0709F48C
:1010A00036C308F0BBC2033C1C4509F406C3D70194
:1010B00012968C9112970C9111961C91882349F0ED
:1010C000C8010E94CC17D82E682FC8010E943D1A73
:1010D00004C0C8010E94111AD82EE12FF0E0B8E038
:1010E000DB9EE00DF11D112433E0EE0FFF1F3A955A
:1010F000E1F7E00FF11DEE0FFF1FEE50FD4F859160
:1011000094910E94271E8C01982EF701A280C58021
:10111000C2945FE0C5228091C002877099F0AA2036
:1011200089F0812F807F803421F080E2800F883029
:1011300048F082E00E949B1A8091C0028770DD24F3
:10114000D3948111D12CB12EB2942FE0B2228B2DE9
:1011500090E08C30910508F011C2FC01EC59FF4F72
:101160000C94742B812F807F1F70882311F01295AF
:10117000107FAA20B9F0112309F4EBC180E2800F9F
:10118000883010F0911006C080914603182B109300
:10119000460305C080914503182B109345030E9418
:1011A0000F17D7C1802F0E941C1B112309F4E6C121
:1011B000005E083010F0911004C0812F0E942020A2
:1011C00006C01095809145031823109345030E9493
:1011D0000F17D4C1812F807F1F70803211F01295BC
:1011E000107F802F992021F0F1E09F1611F130C07F
:1011F000AA20B1F0CC2081F001E0C0120DC0809196
:101200002F0282FDBBC18091C302182B181709F46D
:10121000B5C11093C302B2C18091C302812B10C02B
:10122000CC2021F021E0C21609F4A8C10E941A20A6
:1012300016C0AA2041F035E03C1508F49FC1812F6B
:101240000E94121B9BC184E08C1508F497C107C053
:10125000AA2019F0CC2099F37CC1C11081C1812F43
:101260000E940B1B8BC1812F837009F069C0A110F4
:1012700089C1902F929596959770990F990F802F0D
:101280008F70882E912CA12CB12C092E04C0880CB3
:10129000991CAA1CBB1C0A94D2F704FF12C04FE091
:1012A00050E060E070E004C0440F551F661F771FD8
:1012B0009A95D2F7DB01CA0180959095A095B095DB
:1012C00003C080E090E0DC0116951695412F437035
:1012D000423019F1C8F40091C4021091C502209166
:1012E000C6023091C702413059F088299929AA29AC
:1012F000BB29BC01CD0160237123822393230AC043
:10130000802A912AA22AB32ABC01CD016829792911
:101310008A299B290E94D91A35C188299929AA2985
:10132000BB290091C4021091C5022091C6023091E0
:10133000C702BC01CD016027712782279327EACF1E
:10134000AA2019F0812F817001C08695882309F4A5
:1013500019C1902F929596959770990F990F802F9C
:101360008F70882E912CA12CB12C092E04C0880CD2
:10137000991CAA1CBB1C0A94D2F704FF12C04FE0B0
:1013800050E060E070E004C0440F551F661F771FF7
:101390009A95D2F7DB01CA0180959095A095B095FA
:1013A00003C080E090E0DC0116951695412F437054
:1013B0004230D9F068F500912A0210912B02209159
:1013C0002C0230912D02413059F088299929AA29FF
:1013D000BB29BC01CD0160237123822393231EC04E
:1013E000802A912AA22AB32A13C088299929AA29D6
:1013F000BB2900912A0210912B0220912C023091DE
:101400002D02BC01CD01602771278227932706C0DA
:10141000BC01CD01682979298A299B290E94681A73
:10142000B1C01F70AA2039F0812F0E94B81A802FF6
:101430000E94121BA7C0802F0E940B1B812F0E94AD
:10144000761AA0C0802FE2EF9E1609F440C0E9157D
:1014500038F0F0EF9F1661F021EF921699F174C009
:1014600033EF9316D9F194EF991609F44EC06CC07E
:10147000AA2019F1A4E0AC1508F480C01F7181E026
:1014800090E0A0E0B0E0AC01BD0104C0440F551FE6
:10149000661F771F1A95D2F780912A0290912B022E
:1014A000A0912C02B0912D028A019B0108271927D7
:1014B0002A273B27C901B80125C025E02C1508F4CF
:1014C0005DC0DCCFAA2029F0812F8F7130C0AA2007
:1014D000D9F3812F8F710E94761A50C0AA2079F01B
:1014E0001F7181E090E0A0E0B0E0BC01CD0104C03C
:1014F000660F771F881F991F1A95D2F703C060E007
:1015000070E0CB010E94681A39C0AA2099F01F71BF
:10151000812F0E94B81A80912F0282FD07C038E007
:10152000139FC001112483608093C002812F0E9409
:10153000B81A24C081E00E949B1A81E08C15F0F457
:1015400082E00E949B1A1AC0AA2039F0CC2009F42C
:10155000BBCF802F0E94951B11C0CC2009F4B9CFBE
:10156000893349F49FEFA7EEB3E09150A040B0401B
:10157000E1F700C00000802F0E941C1B88EF8B0D3C
:10158000843010F40E945912DD20A9F08091C0022D
:1015900080FD11C0F70112828595859585950E9481
:1015A000B81AC7010E949D038091C0028595859558
:1015B00085950E94761A85E0F701DE01119601906B
:1015C0000D928A95E1F789819A810E94111AEA8128
:1015D000F0E008E0809FE00DF11D112483E0EE0FA4
:1015E000FF1F8A95E1F78981E80FF11DEE0FFF1FBC
:1015F000EE50FD4F85919491C8C0E059FF4F0C9477
:10160000742BF801E356FD45EE30F10508F042CAAF
:10161000E258FF4F0C94742B69E2BDCC053C3CE5CD
:10162000130709F479C0063C1C4509F040CD43EB93
:1016300052E16CEB72E18DC00A3CACE51A0709F48B
:101640007AC070F4083CECE51E0709F46FC0093C51
:101650001C4509F02CCD47EA52E16BE972E179C0F3
:101660000B3C2CE5120709F46BC00C3C1C4509F03F
:101670001ECD47ED52E168EE72E16BC00F3CACE568
:101680001A0709F46CC008F467C0003DECE51E07BA
:1016900009F468C0013D1C4509F009CD6EE089E000
:1016A0006CC0033D8CE5180709F462C0043D1C457D
:1016B00009F0FDCC61E088E165C080913B0380FFCB
:1016C00020C08E7F80933B0360913B0370913C036D
:1016D00080913D0390913E030E94C5120E94942385
:1016E0008091FB0281608093FB02EFEFF0E702E064
:1016F000E150F0400040E1F700C000000E94B62336
:10170000A4CC816080933B0361E086953BC045E4B7
:1017100054E16EE474E11DC04EE454E165E474E10B
:1017200018C04CEB52E163EB72E113C04BE952E19C
:1017300067EA72E10EC043E852E16FE872E109C066
:101740004FE852E163E872E104C048EE52E167ED10
:1017500072E10E948E2379CC61E081E013C065E0E4
:1017600082E00BC068E086E008C064E18FE005C05D
:1017700067E185E102C062E289E10E947C2365CCD9
:1017800061E083E20E94051460CC2A960FB6F894BB
:10179000DEBF0FBECDBFDF91CF911F910F91FF90A4
:1017A000EF90DF90CF90BF90AF909F908F90089573
:1017B000982F973068F59093E900981739F0509179
:1017C000EC002091ED004091F00003C0562F40E066
:1017D00022E021FD02C09F5FECCF3091EB003E7F05
:1017E0003093EB003091ED003D7F3093ED00309170
:1017F000EB0031603093EB005093EC002093ED0050
:101800004093F0002091EE0027FDE5CF80E00895A1
:101810008F708093E90081E008952091E400309179
:10182000E50095E64091EC00842F817040FF23C0D5
:101830008091E80080FD1DC080911F02882399F0EF
:10184000853099F08091EB0085FD11C04091E40056
:101850005091E5002417350729F3915011F09A01B2
:10186000E1CF84E0089582E0089583E0089581E067
:10187000089580E008954091E80042FFDDCF08958B
:101880000F931F93CF93DF938C010E940D0C811156
:1018900018C0E80108E010E08091E80085FD0AC06A
:1018A0008091E8008E778093E8000E940D0C8823D9
:1018B00099F307C089918093F1000150110961F7F4
:1018C00080E0DF91CF911F910F91089580912102C7
:1018D00087FF11C08091E80082FD05C080911F0242
:1018E0008111F8CF11C08091E8008B770BC08091F7
:1018F0001F02882349F08091E80080FFF8CF809193
:10190000E8008E778093E8000895209127023091B7
:1019100028022617370748F06115710539F4209120
:10192000E8002E772093E80001C0B901FC0120E017
:101930006115710579F180911F028823F1F18530DD
:10194000F1F18091E80083FD3CC08091E80082FDC8
:101950002EC08091E80080FFEBCF2091F3008091B2
:10196000F20090E0922B6115710551F088309105DD
:1019700038F421912093F100615071090196F3CF61
:1019800021E0089709F020E08091E8008E778093AD
:10199000E800CECF2111CFCF0AC080911F0288234B
:1019A00061F0853061F08091E80083FD0AC080918C
:1019B000E80082FFF2CF80E0089582E0089583E09E
:1019C000089581E00895089508950895809114027E
:1019D0000895CF93DF9321E02093E9002FEF30911A
:1019E000E800215035FD06C035ED3A95F1F70000CD
:1019F0002111F5CF2091E80025FF14C0EC0140E053
:101A000050E068E070E00E94400C8091E8008E7722
:101A10008093E80088E0FE01A5E1B2E001900D921C
:101A20008A95E1F7DF91CF910895FC01AC014C5FFD
:101A30005F4F8FEF91E32191822728E030E087FF0D
:101A400003C0880F892701C0880F21503109B9F7D9
:101A5000E417F50781F708951F93CF93DF93CDB770
:101A6000DEB7AA970FB6F894DEBF0FBECDBFE1E296
:101A7000F2E08091F100819322E0E932F207C9F7A8
:101A800080912202833009F460C030F4813071F01B
:101A9000823009F49AC0B1C08A3009F486C08B3014
:101AA00009F46BC0893009F0A8C020C080912102E0
:101AB000813A09F0A2C08091E800877F8093E80016
:101AC0008091250290912602892B21F468E085E11E
:101AD00092E003C060E080E090E070E00E94850C3E
:101AE0008091E8008B778093E80087C08091210285
:101AF000813209F082C08091250290912602892BC3
:101B000009F07BC08091E800877F8093E800809196
:101B1000E80082FD05C080911F028111F8CF6DC0E1
:101B20002091F3008091F20090E0922B029729F42B
:101B30008091F1008B7F813021F48091F1008093BE
:101B400014028091E8008B7754C080912102813A81
:101B500009F053C08091250290912602892B09F04B
:101B60004CC08091E800877F8093E8008091E80076
:101B700080FFFCCF8091000137C08091210281322B
:101B8000E1F58091250290912602892BB1F5809193
:101B9000E800877F8093E8000E94660C8091230212
:101BA000809300010E94E71A28C0809121028132AF
:101BB00021F58091E800877F8093E8000E94660C01
:101BC000809124028093130218C080912102813AEF
:101BD000A1F48091E800877F8093E8008091E8007D
:101BE00080FFFCCF809113028093F1008091E80088
:101BF0008E778093E8000E94660C8091E80083FF56
:101C0000B4C18091210290912202492F50E04A30C4
:101C1000510508F0AAC1FA01E457FF4F0C94742B48
:101C2000803821F0823809F0A0C108C080911D02DF
:101C300090911E02992389F082600FC08091250245
:101C40008F70873008F091C18093E9008091EB009C
:101C500085FB882780F91092E9009091E800977F32
:101C60009093E8008093F1001092F10053C1282F67
:101C70002D7F09F07AC1882319F0823061F075C197
:101C800080912302813009F070C1933009F080E027
:101C900080931E022EC08091230281112AC0809160
:101CA00025028F702FEF280F263008F05EC1809339
:101CB000E9002091EB0020FF1CC0933021F48091BB
:101CC000EB00806214C09091EB0090619093EB0068
:101CD00021E030E0A90102C0440F551F8A95E2F7C8
:101CE0004093EA001092EA008091EB0088608093B4
:101CF000EB001092E9008091E800877F0EC181110E
:101D000034C1109123021F778091E3008078812BEA
:101D10008093E3008091E800877F8093E8000E9431
:101D2000660C8091E80080FFFCCF8091E300806822
:101D30008093E300111102C082E001C083E0809330
:101D40001F0213C18058823008F00FC18091230216
:101D5000909124028C3D53E0950779F583E08A83C6
:101D60008AE289834FB7F894DE01139620E03EE0C3
:101D700051E2E32FF0E050935700E49120FF03C0BD
:101D8000E295EF703F5FEF708E2F90E0EA3010F039
:101D9000C79601C0C0968D939D932F5F243149F75C
:101DA0004FBF8091E800877F8093E8006AE270E08F
:101DB000CE0101960E94850C9CC040912502509155
:101DC0002602292F332723303105A9F068F421306A
:101DD000310509F4D9C02230310509F0C6C082E2CC
:101DE00090E0E8E8F1E032C02132310521F1223201
:101DF000310529F1BAC0992781309105A1F058F039
:101E0000029709F0B2C0ECEBF1E0E4918E2F90E084
:101E1000ECEBF1E018C0ECEDF1E0E4918E2F90E0F6
:101E2000ECEDF1E010C0EAECF1E0E4918E2F90E0EF
:101E3000EAECF1E008C0452B09F4ABC096C0452B95
:101E400009F4ACC092C0009709F48FC02091E8005B
:101E5000277F2093E80020912702309128028217E3
:101E6000930708F49C0140E02115310589F1809128
:101E70001F02882309F43DC08530D9F18091E80024
:101E800083FD37C08091E80082FD2FC08091E8007B
:101E900080FFEACF4091F3008091F20090E0942B14
:101EA0002115310559F08830910540F44491409353
:101EB000F1003196215031090196F2CF41E00897A7
:101EC00009F040E08091E8008E778093E800CCCF65
:101ED0004111CDCF0AC080911F02882351F0853077
:101EE00041F08091E80083FD04C08091E80082FF0A
:101EF000F2CF8091E8008B778093E80036C080387D
:101F0000A1F58091E800877F8093E800809120020E
:101F10008093F1008091E8008E778093E8000E9422
:101F2000660C23C0811121C080912302909124026C
:101F300099270297D4F48091E800877F8093E80086
:101F400010912302109320020E94660C111106C00A
:101F50008091E30087FD02C081E001C084E08093AE
:101F60001F0261EC81E00E94D80B8091E80083FFA2
:101F70001AC08091E800877F8093E8008091EB0091
:101F800080628093EB000FC082E190E0EAEAF1E02A
:101F90005DCF89E090E0EAE9F1E058CF80E490E09D
:101FA000E8E4F1E053CFAA960FB6F894DEBF0FBE77
:101FB000CDBFDF91CF911F9108951F920F920FB661
:101FC0000F9211242F933F934F935F936F937F93BF
:101FD0008F939F93AF93BF93CF93DF93EF93FF9331
:101FE000C091E900CF708091EC00D82FD17080FDB6
:101FF000D0E81092E9008091F000877F8093F00094
:1020000078940E942C0D1092E9008091F000886075
:102010008093F000CD2BCF70C093E900FF91EF913A
:10202000DF91CF91BF91AF919F918F917F916F91F0
:102030005F914F913F912F910F900FBE0F901F9086
:102040001895E8EDF0E080818E7F80831092E200A9
:102050001092DA001092E100A0EEB0E08C91816065
:102060008C9380818F77808319BCA7EDB0E08C9131
:102070008E7F8C9380818F7E8083109212020895D0
:10208000CF92DF92EF92FF920F931F93CF93DF9344
:10209000C8EDD0E088818F7E8883E7EDF0E0808115
:1020A0008160808384E082BF81E080931202888116
:1020B0008E7F888302EE10E0F80110821092DA0021
:1020C00081EEC82ED12CF601108288818F7788830B
:1020D00088818068888388818F7D888319BC10926D
:1020E0001F021092200210921E0210921D0290EE0A
:1020F000E92EF12CF70180818B7F808388818160BC
:10210000888360E080E00E94D80BF60180818E7F9A
:102110008083F801808181608083808188608083F2
:10212000F70180818E7F8083888180618883DF9141
:10213000CF911F910F91FF90EF90DF90CF90089576
:102140001F920F920FB60F9211242F933F934F932C
:102150005F936F937F938F939F93AF93BF93EF930F
:10216000FF938091E10082FF09C08091E20082FF2D
:1021700005C08091E1008B7F8093E1008091DA00BF
:1021800080FF2AC08091D80080FF26C08091DA00AD
:102190008E7F8093DA008091D90080FF18C080E1A3
:1021A00089BD82E189BD09B400FEFDCF81E0809345
:1021B0001F028091120281110FC00E9421100E9403
:1021C00040108091E20084608093E20005C019BC59
:1021D00010921F02109212028091E10080FF17C03E
:1021E0008091E20080FF13C08091E2008E7F809397
:1021F000E2008091E20080618093E2008091D8004B
:1022000080628093D80019BC85E080931F02809182
:10221000E10084FF2EC08091E20084FF2AC080E1AB
:1022200089BD82E189BD09B400FEFDCF8091D8004F
:102230008F7D8093D8008091E1008F7E8093E100B4
:102240008091E2008F7E8093E2008091E2008160C5
:102250008093E20080912002882311F084E007C07F
:102260008091E30087FD02C081E001C083E080939C
:102270001F028091E10083FF26C08091E20083FF6E
:1022800022C08091E100877F8093E10082E080930B
:102290001F02109220028091E1008E7F8093E10066
:1022A0008091E2008E7F8093E2008091E200806165
:1022B0008093E20060E080E00E94D80B8091F00003
:1022C00088608093F000FF91EF91BF91AF919F9153
:1022D0008F917F916F915F914F913F912F910F90CF
:1022E0000FBE0F901F90189581E08093E00080E270
:1022F0008093D8001092C9008FE19EE40197F1F716
:1023000000C0000087E090EBDC01809347039093CE
:102310004803A0934903B0934A039CE088E10FB6B9
:10232000F894A895809360000FBE90936000FFCF53
:1023300078941F920F920FB60F9211248F939F9350
:10234000AF93BF9380910E0290910F02A091100263
:10235000B09111020196A11DB11D80930E029093C0
:102360000F02A0931002B0931102BF91AF919F9101
:102370008F910F900FBE0F901F9018959C014FB733
:10238000F89480910E0290910F02A0911002B091EA
:1023900011024FBF821B930B08952FB7F8946091E1
:1023A0000E0270910F0280911002909111022FBFC6
:1023B00008952FB7F89480910E0290910F02A0918A
:1023C0001002B09111022FBF08951F920F920FB605
:1023D0000F9211248F939F93AF93BF9380910D021F
:1023E000811113C080910E0290910F02A0911002F2
:1023F000B09111024196A11DB11D80930E029093E0
:102400000F02A0931002B0931102BF91AF919F9160
:102410008F910F900FBE0F901F9018950F931F93E1
:102420000E94ED1D882321F01F910F910C94CD1176
:102430000E94CD110091090210910A0220910B0215
:1024400030910C02600F711F821F931F1F910F911B
:1024500008950E94ED1D81110C94D9110E940E1255
:10246000CB0108959C012A5F3F4FFC014281461336
:1024700001C01282019682179307B9F708959C0153
:10248000FC0132969FEF80E04191461789F09F3F13
:1024900019F4411101C0982F8F5F8630A9F79F3F33
:1024A00039F0F901E90FF11D97FDFA95628308955E
:1024B00008950E94ED1D882351F0E0910702F091EC
:1024C0000802309721F00190F081E02D099480E01E
:1024D000089580913B03282F269530E02115310582
:1024E00019F48170826005C02532310524F08170B5
:1024F000886480933B0380913E03873918F086E916
:1025000080933E030895EBE3F3E0438128E0421B10
:1025100008F440E021E0628181810C949B26EBE38A
:10252000F3E0438128E0420F08F44FEF21E062819D
:1025300081810C949B26EBE3F3E0628128E0621B2F
:1025400008F460E021E0438181810C949B26EBE359
:10255000F3E0628128E0620F08F46FEF21E043812D
:1025600081810C949B26EBE3F3E0818121E04381A0
:10257000628188500C949B26EBE3F3E0818121E09B
:1025800043816281885F0C949B26CF92DF92EF9209
:10259000FF926B017C010E946912B701A60188E0DD
:1025A00090E0FF90EF90DF90CF900C94FA2A80910A
:1025B0003F03882319F0815080933F0360913B03D0
:1025C00070913C0380913D0390913E030C94C512A1
:1025D00080913F03833018F48F5F80933F036091B5
:1025E0003B0370913C0380913D0390913E030C941A
:1025F000C512EBE3F3E083E0808311828FEF8283E7
:1026000086E983831482A9EFB2E012968C91129727
:10261000836012968C9360817181828193810C9486
:10262000C512AF92BF92CF92DF92EF92FF920F93BB
:102630001F93CF93DF93E82EF62EE901E42FF0E00D
:10264000611106C0EE50FE4FE4914E2F2E2F71C047
:10265000062F10E0EE50FE4F4491F42FC42ED12CE3
:1026600026E0829FC00111242FEF30E0B9010E94C3
:102670002A2B5BEA5603C001579F900D11248E0D43
:10268000911D8E0D911D582F550F580FD901A01B6C
:10269000B10BAC9DC001AD9D900DBC9D900D112462
:1026A000E92FF59ED0011124AB2FBB277901EA1A3F
:1026B000FB0AEC9CD001ED9CB00DFC9CB00D1124EC
:1026C0005901A51AB108A09E7001A19EF00CB09E00
:1026D000F00C1124EF2CFF242E193F092C9D8001B2
:1026E0002D9D100D3C9D100D1124212F6230710580
:1026F00091F048F461157105E1F061307105B9F4AC
:10270000242F4B2F16C06430710569F040F06630FD
:10271000710579F00CC0242F492FE12F0AC0492FF1
:10272000EF2F2B2F06C0292FE42F412F02C0292F76
:10273000EB2F49832883EA83DF91CF911F910F917B
:10274000FF90EF90DF90CF90BF90AF900895CF9320
:10275000DF9300D01F92CDB7DEB790913B0390FF7F
:102760000DC0473908F046E99E012F5F3F4F0E9498
:1027700011134B8169818A810E9440260F900F902E
:102780000F90DF91CF910895AF92BF92CF92DF92D9
:10279000EF92FF920F931F93CF93DF937C015B0126
:1027A0006A01809129028A3018F001E010E002C02D
:1027B0000AE010E0C1E0D0E0F894B501C701F601ED
:1027C00009957894811115C021960C171D0794F076
:1027D000CC9F9001CD9F300D300D112480E090E012
:1027E00045E34A95F1F70000019682179307C1F778
:1027F000E3CF81E0DF91CF911F910F91FF90EF9098
:10280000DF90CF90BF90AF90089590913B0390FFE1
:102810003BC09170811102C0926006C0853210F0F9
:10282000986402C0880F982B90933B038091FB0221
:1028300081608093FB02662351F060913B037091AD
:102840003C0380913D0390913E030E94C51260912C
:102850003B03669570E04BE050E089E491E00E9414
:10286000B72B892B19F00E94942302C00E949B234E
:1028700081E08093F60220E040913E0360913D03A9
:1028800080913C030C949B26089580913B03869590
:10289000815009F484E261E00C94051480913B03BB
:1028A00086958F5F853208F081E061E00C94051415
:1028B000CF93DF93CDB7DEB72A970FB6F894DEBF7C
:1028C0000FBECDBF84B7877F84BF0FB6F894A8959D
:1028D00080916000886180936000109260000FBE5C
:1028E00090E080E80FB6F8948093610090936100C7
:1028F0000FBE85B7806885BF85B7806885BF85E3D3
:102900009CE190930302809302020E9421100E9496
:1029100040108091E20084608093E200789480917E
:102920001F028823A1F01091E9001F709091EC0024
:10293000892F817090FD80E8182B1092E90080911A
:10294000E80083FD0E942C0D1F701093E90082E0C7
:1029500084BD93E095BD9AEF97BD80936E00109271
:10296000090210920A0210920B0210920C020E94AD
:10297000ED1D8093010180910101882321F01092C7
:1029800057018AE003C08AE0809357018093580181
:102990000E94ED1D81110E940F29809101018091FB
:1029A0000101811102C094E001C090E090933D02CA
:1029B00084E0891B80933C020AEC11E0F8018191CC
:1029C0008F018F3F11F00E94101EF1E00E3C1F0797
:1029D000A9F702ED11E0F80181918F018F3F11F00D
:1029E0000E94101EF1E00A3D1F07A9F7E4E3F2E0A0
:1029F000AFE3B2E011921D9222E0EC33F207D1F77F
:102A000080E090E00E94E22A893E9E4F11F00E94F1
:102A1000AF1F82E090E00E94D42A80934B020E9474
:102A20009E1F90932F0280932E020E9427208FE3F7
:102A30009CE90197F1F700C000000E9427208091D7
:102A40003F0280FF08C06FEF7FEF80E090E00E94C0
:102A5000062B0E94741183E090E00E94D42A682F14
:102A600070E080E090E00E94D91A8CE090E00E9433
:102A7000D42A90E0A0E0B0E080933002909331023D
:102A8000A0933202B09333020E94ED1D811102C067
:102A90000E94122980913E0281113BC080E090E0AB
:102AA0000E94E22A893E9E4F21F00E94AF1F0E94A1
:102AB000F91288E090E00E94DC2A60933B03709357
:102AC0003C0380933D0390933E038091FB0283601F
:102AD0008093FB026E7F71F40E94F91288E090E00F
:102AE0000E94DC2A60933B0370933C0380933D0378
:102AF00090933E030E9469120E94942380913B03AD
:102B000080FF04C060E086950E94051481E08093F8
:102B10003E0282E091E09093080280930702F8E180
:102B2000EF2EF12CA0E46A2EB7E4CB2EB2E0DB2E20
:102B300010E1712E80911F02853009F03EC012E134
:102B400080911F02853009F034C080911F028430CB
:102B500009F110920D020FB6F894A895E09260006A
:102B60000FBE6092600083B7817F846083BF83B7AC
:102B7000816083BF7894889583B78E7F83BF0FB6BB
:102B8000F894A8958091600088618093600010920D
:102B900060000FBE80911E02882391F20E942720C0
:102BA000EFE3F2E08191811124C1CE16DF06D1F767
:102BB000C7CF0E94E71A0E9459120E942720811154
:102BC0000E94CD11ACE4B2E0EFE3F2E000E010E0EF
:102BD000802E91908D91892549F1A12CBB24B3942D
:102BE000982F9B21F1F00E94ED1D882399F0A98276
:102BF0008A829B2081E009F480E08B830E94D911B6
:102C00008160782F9D838C8349815A816B818D816E
:102C10000E947127F801E45BFD4F8081B826B082E5
:102C20001AC0A394BB0C28E0A212DACF0F5F1F4F8B
:102C30000830110569F68FEF8E838F8318860E9406
:102C4000D9118160782F9A8789874E815F81688545
:102C50008A850E9471278091FA02882309F4BDC0F9
:102C60008091F902E0913B03E695E81BE093F502C1
:102C7000823059F4F0E0E251FE4FE4910E2F10E063
:102C8000E9E8AE2EE2E2BE2E59C0863059F4F0E0FB
:102C9000E551FE4FE4910E2F10E079E7A72E72E286
:102CA000B72E4CC0893061F4E695F0E0E851FE4F54
:102CB000E4910E2F10E062E0A62E66E2B62E3EC032
:102CC0008F3061F4E695F0E0EB51FE4FE4910E2F6A
:102CD00010E053E6A52E55E2B52E30C0853159F4EB
:102CE000F0E0EE51FE4FE4910E2F10E04AEDA42EDD
:102CF00044E2B42E23C08831A1F0833249F4E0EEDF
:102D0000F1E0059114913BE5A32E36E2B32E16C0F7
:102D1000843271F404EF11E022E0A22E24E2B22EFC
:102D20000DC008E210E094E4A92E94E2B92E06C08A
:102D300000ED17E087E4A82E82E2B82E8091F6021B
:102D4000882361F01092F6020E9429129093F402F7
:102D50008093F3021092F8021092F7020E94291257
:102D6000E091F302F091F4029C012E1B3F0B2F3FE8
:102D70003F4798F5209149022223B1F01092490271
:102D80002091470230914802821B930B8F3F9F474F
:102D900058F4205D3A4830934802209347028091CE
:102DA000FB0288608093FB028090F7029090F8020B
:102DB0000E0F1F1F1093F4020093F30283EF92E0B3
:102DC000F50109958091F7029091F802892B29F479
:102DD000892819F081E0809349020E94591290914C
:102DE0004A02891709F4A6CE0E94591280934A021A
:102DF000A1CE79BC19BD09B400FEFDCF8091D800E9
:102E00008F7D8093D8008091E00082608093E00005
:102E10008091E00081FDFCCF0E94E71A91CE909155
:102E2000460380914503892B2091C102982F922B54
:102E3000909354028091C302882389F0892B809358
:102E40005402E6E5F2E097E080E0915029F021910C
:102E50002223D9F38F5FF9CF81110E941A20E091CC
:102E60000702F0910802309731F00280F381E02DE3
:102E700084E592E009940895CF93C0912F02C2FB9C
:102E8000992790F9981781F080FBC2F9C0932F021F
:102E900060912E0284E090E00E94E82A6C2F82E28A
:102EA00090E0CF910C94E82ACF9108958091BF02D1
:102EB00090918E02891719F08F5F8770FBCF08956C
:102EC0000F931F93CF93DF9380918D0282958F7024
:102ED00009F05DC080918A02882309F458C080916E
:102EE000BF0210918E026091880270918902C09198
:102EF0008B02D0918C0291E06F3F09F090E0292F76
:102F000006E0811709F443C0209721F07F3F21F0AC
:102F100030E003C031E001C0322F90E030FD34C01A
:102F2000089FF001099FF00D1124DF01A157BD4F4B
:102F300011963C911197371327C03C91361324C04A
:102F400012963C91129731111FC013964D915C91CE
:102F500014974C1B5D0B4F3A5105B0F480918D02D4
:102F60008F70806180938D02EC56FD4F80818F7051
:102F70008061808388E892E00E949D03DF91CF9179
:102F80001F910F910C94561701968770BACFDF915D
:102F9000CF911F910F9108958F929F92AF92BF9200
:102FA000EF92FF920F931F93CF93DF9380902A02AB
:102FB00090902B02A0902C02B0902D024091C40260
:102FC0005091C5026091C6027091C702842A952A69
:102FD000A62AB72ACFE1D0E0E92EF12C082F10E085
:102FE000D501C4010C2E04C0B695A7959795879579
:102FF0000A94D2F780FD04C0219790F780E01AC0B0
:10300000FE0183E0EE0FFF1F8A95E1F7EE0DFF1D35
:1030100093E0EE0FFF1F9A95E1F7E00FF11FEE0F1F
:10302000FF1FEE50FD4F859194910E94271E01973E
:1030300019F38C2FDF91CF911F910F91FF90EF909B
:10304000BF90AF909F908F900895CF93DF93D82F2C
:10305000C92F0E94CC17EC2FF0E098E0899FE00D7B
:10306000F11D112483E0EE0FFF1F8A95E1F7ED0FAC
:10307000F11DEE0FFF1FEE50FD4F859194910E94C0
:10308000271EDF91CF910895FC01808191810E94DC
:103090002518292F2F70E92FE295EF704E2F50E061
:1030A000FA013297EE30F105B8F4EA56FF4F0C946E
:1030B000742B803F99F018F4883E70F40FC0843F61
:1030C00059F40CC0883E50F0813F31F407C0822F84
:1030D000869586958695089580E0089581E0089507
:1030E0009F92AF92BF92CF92DF92EF92FF920F9397
:1030F0001F93CF93DF93CDB7DEB761970FB6F894E8
:10310000DEBF0FBECDBF8C0185E0F801DE011D964C
:1031100001900D928A95E1F7F801E2809091880282
:103120006091890240918B0250918C0241155105AA
:1031300031F06F3F31F481E09F3F19F403C081E02B
:1031400001C080E0F82FF1709F2E80FD1AC1F801B8
:1031500030812181C380D48088E8A82E82E0B82EF7
:10316000F0908A02F601E41BF50BFF2009F4C6C0BB
:1031700080918D02EF3AF10508F091C0482F407F11
:1031800009F050C0621311C093130FC0FE2CE11060
:103190000CC08F70806180938D02C5010E949D03D9
:1031A00080918D02F801858329C1CD2831F02F3F10
:1031B00031F481E03F3F19F403C081E001C080E0B9
:1031C00080FD03C081E08E2502C080E090E0F82FF2
:1031D000F170FF2E80FF1CC08091BF0240918E02D3
:1031E00056E0841709F4E8C090E0589FF001599F19
:1031F000F00D1124E157FD4F6181261306C0608157
:10320000631303C06281E61203C001968770E9CFA1
:10321000FE2CEE2009F4F2C080918D028160809333
:103220008D0249C0621306C0931304C0E11002C0AE
:10323000F80186C0C8010E944418882351F1EE208D
:1032400041F120918D02822F82958F7090E002973C
:1032500074F0809188029091890298878F831986F3
:10326000DB86CA862C87CE0107960E949D0386E0E6
:10327000F801A8E8B2E001900D928A95E1F70E946A
:1032800060170AC06217C9F0C8010E944418811172
:103290001EC0C8010E949D03FF24F394AFC0482FB5
:1032A000407F81F788E892E00E949D0386E0F50167
:1032B00011928A95E9F7F12CA1C09313E5CFE110A3
:1032C000E3CFF8018583C8010E949D0354C0EE201E
:1032D00001F320918D02822F82958F7090E00297EA
:1032E00034F280918802909189029A8389831B82AB
:1032F000DD82CC822E83CE010196B7CFEF3AF10565
:10330000D0F5FE2CEE2029F2621327C0931325C0BE
:1033100020918D0220FD18C0822F82958F70482F3A
:1033200050E04115510581F0F80125834F305105DA
:1033300041F08F5F982F9295907F822F8F70892B0D
:103340008583C8010E949D0386E0F801A8E8B2E0E9
:1033500001900D928A95E1F751C0C8010E9444186E
:10336000811185CF80918D02816080938D02C8018B
:103370000E949D0343C086E0F50111928A95E9F70A
:103380003DC0EE2009F485CFC8010E944418F82EF4
:10339000882309F47ECF86E0F801A8E8B2E0019026
:1033A0000D928A95E1F780918802909189020E949E
:1033B00025180E94601722C03D872E878D859E8527
:1033C0000E942518292F22952F70223028F49F70F3
:1033D00039F0811105C00BC0243028F49F7049F4E6
:1033E000805E883020F0C8010E949D039F2CF92C3C
:1033F00005C0F8019581907F99F7F9CF8F2D6196DF
:103400000FB6F894DEBF0FBECDBFDF91CF911F91F5
:103410000F91FF90EF90DF90CF90BF90AF909F9073
:10342000089528E0929F800D1124682F6695669577
:103430006695982F977085E0689FB001112440E051
:1034400050E080E0FB01E40FF51FE05AFD4F2081C2
:1034500030E0092E02C0369527950A94E2F72170D4
:103460003327042E01C0220F0A94EAF7822B4F5F04
:103470005F4F4530510531F7089528E0929F800D48
:103480001124E82FE695E695E695877051E001C096
:10349000550F8A95EAF785E0E89FF0011124E05A7C
:1034A000FD4F20E030E070E04081CB01022E02C0F1
:1034B000969587950A94E2F78170819584278523F4
:1034C000842781932F5F3F4F2530310569F7089599
:1034D00060932A0270932B0280932C0290932D020A
:1034E000109245031092C1020C940F170F931F9373
:1034F00041E050E060E070E004C0440F551F661FDB
:10350000771F8A95D2F74095509560957095809178
:103510002A0290912B02A0912C02B0912D028A01D7
:103520009B01082319232A233B23C901B8011F91BA
:103530000F910C94681A2091C00280958223809389
:10354000C002982F977041F430E0482F082E000CED
:10355000550B2417350721F490912F0292FF07C0D5
:103560008595859585950E94761A1092C0020895DA
:103570000F931F9341E050E060E070E004C0440FFF
:10358000551F661F771F8A95D2F780912A02909166
:103590002B02A0912C02B0912D028A019B01082BD5
:1035A000192B2A2B3B2BC901B8011F910F910C94A9
:1035B000681A6093C4027093C5028093C602909308
:1035C000C702109245031092C1020C940F1710927B
:1035D000460386E0E6E5F2E0DF011D928A95E9F711
:1035E000109245031092C1020C940F17882341F0EA
:1035F0008095909145038923809345030C940F1780
:103600000895882339F090914503892B80934503D1
:103610000C940F170895882321F00E9420200C9409
:103620000F170895882339F090914603892B8093D2
:1036300046030C940F170895882309F475C0682F6A
:10364000823869F40E94591281FF6EC069E384E5F3
:1036500092E00E943F120E940F1769E30EC0833868
:1036600091F40E94591280FF5FC063E584E592E007
:103670000E943F120E940F1763E584E592E00E94CA
:1036800032120C940F17843869F40E94591282FF89
:103690004BC067E484E592E00E943F120E940F173E
:1036A00067E4EBCF8CEF860F813A38F380E2860F28
:1036B000883048F4677081E001C0880F6A95EAF7A6
:1036C0000E942020DECF8BE5860F8330A0F480910E
:1036D0005C0290915D02892B39F110925D0210928B
:1036E0005C02E0910702F09108023097E9F0068051
:1036F000F781E02D16C0685A6731B0F480915E0200
:1037000090915F02892B81F010925F0210925E020D
:10371000E0910702F0910802309731F00084F185C2
:10372000E02D80E090E009940895CF93882309F478
:103730007CC0C82F8238B1F40E94591281FD75C037
:1037400069E384E592E00E943F120E940F172FEF79
:1037500081EE94E0215080409040E1F700C00000ED
:1037600069E317C08338D1F40E94591280FD5DC00F
:1037700063E584E592E00E943F120E940F172FEF4D
:1037800081EE94E0215080409040E1F700C00000BD
:1037900063E584E592E00E9432123CC08438B1F4C3
:1037A0000E94591282FD41C067E484E592E00E94C4
:1037B0003F120E940F172FEF81EE94E021508040BE
:1037C0009040E1F700C0000067E4E3CF8CEF8C0F7E
:1037D000813A80F4E6E5F2E08CE592E02191C217AF
:1037E000E1F08E179F07D1F76C2F84E592E00E94DD
:1037F0003F1210C080E28C0F8830B8F4C77081E0AF
:1038000090E001C0880FCA95EAF790914603892B92
:1038100080934603CF910C940F176C2F84E592E0B0
:103820000E9432120E940F17DFCFCF9108951F938D
:10383000CF93DF93182F893319F0C0E0D0E002C096
:10384000C0E5D0E0812F0E94951B209741F08FE9C1
:103850009FE00197F1F700C000002197F6CF812F7C
:10386000DF91CF911F910C941C1B80E008959091E3
:103870002E0292FF0DC0282F2871283019F4877F5F
:10388000846006C0282F2471243011F48B7F886057
:1038900093FF0DC0282F2871283119F4877E846189
:1038A00006C0282F2471243111F48B7E8861209169
:1038B0002F0220FF0DC0382F3871383019F4877F60
:1038C000816006C0382F3171313011F48E7F8860ED
:1038D00021FF0DC0282F2871283119F4877E8161BE
:1038E00006C0282F2171213111F48E7E886194FD4C
:1038F000877E0895CF93DF93CDB7DEB728970FB6B5
:10390000F894DEBF0FBECDBF85E0EBE3F3E0DE0150
:10391000119601900D928A95E1F78091F9029091AC
:10392000FA02A091FB028E839F83A887288540918D
:10393000EF025091F0026091F1027091F2023FB7F4
:10394000F89480910E0290910F02A0911002B09114
:1039500011023FBF841B950BA60BB70B8436910554
:10396000A105B10510F4222329F180912E01909137
:103970002F0182529D4F40912D0150E04930510559
:1039800010F048E050E0BE016F5F7F4F0E94D12BE6
:1039900083E090E00E941C2A892B11F080E00DC08A
:1039A0000E94CD116093EF027093F0028093F102B8
:1039B0009093F2021092FB0281E028960FB6F894E1
:1039C000DEBF0FBECDBFDF91CF910895CF93DF93C0
:1039D00000D000D0CDB7DEB74091DA025091DB02C3
:1039E0006091DC027091DD022FB7F89480910E0295
:1039F00090910F02A0911002B09111022FBF841B71
:103A0000950BA60BB70B84369105A105B10580F186
:103A10000E940E12DC01CB010296A11DB11D89830B
:103A20009A83AB83BC8380912401909125018252BB
:103A30009D4F4091230150E04530510510F044E086
:103A400050E0BE016F5F7F4F0E94D12B82E090E07B
:103A50000E941C2A892B11F080E00BC00E94CD111E
:103A60006093DA027093DB028093DC029093DD02B4
:103A700081E00F900F900F900F90DF91CF910895FC
:103A8000EF92FF921F93CF93DF9300D000D01F924D
:103A9000CDB7DEB77B0180E090E00E941C2A892B25
:103AA00009F065C04091120150E04115510511F037
:103AB00041E050E0609113017091140162527D4F1A
:103AC000CE0105960E94D12B4091D6025091D7028B
:103AD0006091D8027091D9022FB7F89480910E02AC
:103AE00090910F02A0911002B09111022FBF841B80
:103AF000950BA60BB70B84369105A105B10538F4DB
:103B00008FED92E00E94150D9D81891791F181E062
:103B100090E00E941C2A892BA1F440911C0150E0E6
:103B20004530510510F044E050E060911D01709166
:103B30001E0162527D4FCE0101960E94D12B11E0F1
:103B400001C010E08FED92E00E94150D91E02D81F3
:103B5000281390E0192341F10E94CD116093D60201
:103B60007093D7028093D8029093D9020FC010E0CF
:103B700001C011E08091DF029091E002A091E1028A
:103B8000B091E20289839A83AB83BC83112361F0F5
:103B900089819A81AB81BC818093D2029093D302B8
:103BA000A093D402B093D5028091D2029091D30217
:103BB000A091D402B091D502F70180839183A283B2
:103BC000B383812F0F900F900F900F900F90DF9184
:103BD000CF911F91FF90EF9008958091D1028111B4
:103BE00018C08091D80080618093D8008AE18A95BE
:103BF000F1F700C08091D90080FD02C082E001C0D1
:103C000081E08093D102823021F40E942110109231
:103C10001F0281E09091D102913009F080E0089577
:103C2000F894E82FE295EF70F0E031A1282F2F7083
:103C300081E090E001C0880F2A95EAF7982F9095CF
:103C4000932391A392A1892B82A378940895CF9373
:103C5000DF938238910569F1B0F48133910509F45D
:103C60006FC048F48932910509F465C08A32910524
:103C700009F46BC06FC08533910509F457C08933CF
:103C80009105B9F067C0833E910571F138F4803E2B
:103C90009105B1F0823E910511F15CC0863E91051F
:103CA000B9F1873E9105C9F1843E910509F052C0F2
:103CB00024C020912E0220FD2AC121FD28C14AC026
:103CC00080912E0280FD1DC180912F0280FF1FC1B7
:103CD00080912E0284FD12C183EE90E02CC1809170
:103CE0002E0282FF11C1F4CF80912E0282FD0CC101
:103CF00080912F0280FD0BC1EBCF80912F0281FFBD
:103D00000CC180912E0284FDF9C087EE90E013C1B2
:103D100080912E0283FFFEC0F4CF80912E0283FD9E
:103D2000F9C080912F0281FDF8C0EBCF80912E0267
:103D300085FDF6C0F8C080912E0285FDF4C0F0C06C
:103D400080912E0286FDF2C0F4C080912E0286FD85
:103D5000F0C0ECC0811523E59207A8F5811532E586
:103D6000930708F099C0811540E29407D0F48115BB
:103D700021E0920708F0DFC0853A910550F48430C5
:103D8000910508F0D8C0019709F0B8C081E090E033
:103D9000D2C09C01205E31092830310508F0AEC048
:103DA000CAC0811531E5930708F071C0811540E55F
:103DB000940708F04EC0811520E4920708F49EC0D5
:103DC0009F70906AB8C0EC01811536E59307F0F456
:103DD000811545E5940708F078C0C11584E5D8073A
:103DE00008F06EC09E012370332781E090E002C08E
:103DF000880F991F2A95E2F7C695C69520E2C29FC3
:103E0000E00111248C2B9D2B9A6895C081152AE521
:103E1000920778F4811539E5930708F05EC08115A3
:103E200048E5940708F46AC0982F8827806F906A45
:103E300082C090568115904208F060C08D2F8F711E
:103E40000E94371C282F2F71CE0199279062922B48
:103E500072C09C0174E0369527957A95E1F7922F10
:103E60009370482F437021E030E002C0220F331FCF
:103E70004A95E2F73C68392B8F70982F9695969566
:103E800040E2949FC0011124822B932B54C0982FA1
:103E90008827816F906A4FC0AC014370552721E09D
:103EA00030E002C0220F331F4A95E2F786958695CF
:103EB00040E2849FC0011124822B932B9C683BC05D
:103EC0009C2F8827846F906A36C00E94371C8F71A0
:103ED00090E0982F882790622EC08F700E94371C28
:103EE00094E0D695C7959A95E1F7CF70D0E0DC2F96
:103EF000CC27D0699E01282BC9011DC080E090E02D
:103F00001AC089E390E017C082EE90E014C080EE02
:103F100090E011C086EE90E00EC084EE90E00BC001
:103F200089E290E008C085E390E005C08AE290E075
:103F300002C081E390E0DF91CF910895CF9384E0B8
:103F400090E00E94D42AC82F82E290E00E94D42AF6
:103F50002C2F30E0A901582BCA01CF91089569EEAA
:103F60007EEF80E090E00E94062B60E082E090E02F
:103F70000E94E82A60E083E090E00E94E82A109224
:103F8000C4021092C5021092C6021092C70260E0ED
:103F900084E090E00E94E82A60E082E290E00E94E3
:103FA000E82A60E085E090E00E94E82A60E086E090
:103FB00090E00E94E82A6FEF87E090E00E94E82AF4
:103FC00040E050E0BA0188E090E00E94FA2A60E008
:103FD0008DE090E00E94E82A40E050E0BA0188E1DC
:103FE00090E00E94FA2A60E087E190E00E94E82ACF
:103FF00040E050E0BA018CE190E00E94FA2A60E0D3
:1040000070E080E290E00E94062B40E050E0BA01B0
:1040100088E190E00E94FA2A40E050E0BA018FE087
:1040200090E00E94FA2A40E050E0BA0183E190E07B
:104030000C94FA2A8091C30281111092C302089550
:1040400080959091460389238093460308958F922B
:104050009F92AF92BF92CF92DF92EF92FF920F9317
:104060001F93CF93DF93CDB7DEB72C970FB6F8949D
:10407000DEBF0FBECDBF9E012F5F3F4F790188E0AD
:10408000F90111928A95E9F70AEC11E05901CC2463
:10409000C394D12CF80180818F3F09F447C0F89474
:1040A000E82FE295EF70F0E021A18F70A60102C029
:1040B000440F551F8A95E2F7CA01922F982B91A3BE
:1040C00092A18095892382A3789400C0E2EDF1E06B
:1040D00020E030E0912C41914F3FB1F0A42FA29508
:1040E000AF70B0E090968C9190E04F7002C09595C3
:1040F00087954A95E2F780FD07C08C2D022E01C0FE
:10410000880F0A94EAF701C080E0982A2F5F3F4F9A
:104110002830310501F7F80180818F3F11F00E94AE
:10412000101EF0EAFA95F1F7F50190820F5F1F4F2C
:10413000FFEFAF1ABF0A21E00E3C120709F0AACF29
:1041400048E050E0B70184E392E00E94C42B8C0168
:10415000892B41F088E0F701A4E3B2E001900D92D1
:104160008A95E1F7F0903D020115110549F081E0D3
:104170008093CA020E94D9119093C9028093C80209
:104180008091CA028823B9F08091C8029091C90237
:104190000E94BE11059778F0A4E3B2E0EF2DF0E0A5
:1041A000E15CFD4F88E392E02D9121938A179B07F4
:1041B000D9F71092CA020115110509F052C10E94E7
:1041C000ED1DE0913D02882309F4B7C019861A86D7
:1041D0001B861C860E2F10E0015C1D4F809129026A
:1041E000AE01435F5F4F7A018A3058F440E45DE1ED
:1041F000BE01675F7F4FC8010E94C413882311F17D
:104200000AC08091CB029091CC020E94BE11843FE3
:10421000914060F728C046EE5CE1BE01675F7F4FCA
:10422000C8010E94C413882369F04AE75CE1BE011B
:10423000675F7F4FC8010E94C413882319F0109252
:10424000290219C0809129028F3F19F08F5F809356
:104250002902809129028A3070F00E94D91190932E
:10426000CC028093CB02E0913C02F0E0E15CFD4F98
:10427000DE01199614C0E0913C02F0E0E15CFD4FD4
:10428000DE011996D12C8D919081981719F08083B9
:10429000DD24D3943196AE15BF05A9F707C011925E
:1042A0001D92EA16FB06D9F7DD24D39480910C0108
:1042B0008F3F49F1C12C96E1B92E1BC0BE9CF00185
:1042C000BF9CF00D1124E45AFE4F8288938881141C
:1042D000910419F48FEA882E912CBE9C8001BF9C1A
:1042E000100D1124045A1E4FF801868181110DC052
:1042F000C394EC2CF12C80910C01082E000C990B2E
:104300008E159F05DCF60D2DAEC0858596850E9425
:10431000BE118816990660F7F8018189811103C0E2
:10432000C8010E949D22BE9CC001BF9C900D11241B
:104330008E599E4F0E94BE22DBCFF0E0E15CFD4F24
:10434000F89484E0AFEDB2E001900D928A95E1F728
:104350008FED92E00E94150D8093DE027894F89420
:10436000C090E302D090E402E090E502F090E60213
:104370008091CD029091CE02A091CF02B091D00257
:10438000C816D906EA06FB06D1F0C092CD02D0923B
:10439000CE02E092CF02F092D0020E94ED1D811178
:1043A0000EC00E94CD11C61AD70AE80AF90AC092B7
:1043B0000902D0920A02E0920B02F0920C02789469
:1043C000F8948091EE02882309F449C080FF24C04C
:1043D0009091E70280913B0390FF09C08160809338
:1043E0003B0360E0892F86950E94051415C08E7FDF
:1043F00080933B030E9494238091FB028160809311
:10440000FB02FFEF20E732E0F15020403040E1F7BF
:1044100000C000000E94B6238091EE0281FF09C017
:1044200020E04091EA026091E9028091E8020E9456
:104430009B268091EE0282FF09C08091ED028823C5
:1044400019F00E949B2302C00E9494238091EE02E7
:1044500083FF03C081E08093F6021092EE0278940D
:1044600002C001E010E0802F2C960FB6F894DEBF5A
:104470000FBECDBFDF91CF911F910F91FF90EF90B5
:10448000DF90CF90BF90AF909F908F900895089548
:10449000FC018081813021F4FB018081918105C084
:1044A000823029F4FB01828193810C947F28089546
:1044B000FC018081813021F4FB018081918105C064
:1044C000823029F4FB01828193810C94992808950C
:1044D000CF93DF93FC012081223041F4FB01EC01FA
:1044E000828193810E94992881E08B87DF91CF910F
:1044F0000895CF93DF93EC01EBE3F3E04381628116
:104500008C810E94A7138C818F5F8C83DF91CF9168
:104510000895CF93DF93EC01EC81F0E0E950FB4F7D
:104520004491EBE3F3E0628181810E94A7138C81C7
:104530008F5F8C83DF91CF910895CF93DF93EC0150
:1045400081E0898B909146038F81892B809346036C
:10455000909145038885892B809345030E940F170E
:10456000EA81FB81CE010696309729F06C897D891E
:10457000DF91CF910994DF91CF910895EF92FF924F
:104580000F931F93CF93DF93FC01228521113AC033
:10459000EC01E380F480F7E5FF1A26E12E9DC001CF
:1045A0002F9D900D1124DC01A45ABE4F1496ED915D
:1045B000FC9115978E599E4F309729F054966D9126
:1045C0007C915597099586E18E9D80018F9D100DF8
:1045D0001124045A1E4FF80187810E942020F801FF
:1045E00080858095909145038923809345030E949F
:1045F0000F17188219861B861E821D821092440393
:1046000010924303DF91CF911F910F91FF90EF9094
:1046100008950F931F93CF93DF93C42FD22FFC01E4
:1046200082818823C9F0409342030E94D91190935C
:1046300041038093400380E28C0F883008F057C01C
:10464000C77081E001C0880FCA95EAF7DF91CF916A
:104650001F910F910C94121B80914203481330C09C
:1046600080914003909141030E94BE118F3A9105C1
:1046700038F510E21D0FCD17B9F080E28C0F8830AD
:1046800040F4C77081E001C0880FCA95EAF70E9424
:104690000B1B183028F581E09D2F977001C0880F03
:1046A0009A95EAF70E94121B802F0E94171C18305F
:1046B000F0F4D77081E001C0880FDA95EAF70AC0FC
:1046C00080E28C0F883098F4C77081E001C0880FB9
:1046D000CA95EAF7DF91CF911F910F910C940B1BB4
:1046E000802FDF91CF911F910F910C94171CDF91B8
:1046F000CF911F910F91089590913B0390FF04C0BB
:104700009695981740F003C0811105C090E0961768
:1047100010F40C944E1461E00C940514882311F0ED
:10472000FA0101C0FB010994E9EFF2E011828281F4
:1047300084608283089560913B03669570E04BE04E
:1047400050E089E491E00E94B72B892B19F481E0B5
:104750008093FA020E9429129093F4028093F3024C
:104760008091FB0284608093FB0208953091580190
:1047700080913B0380FF16C0E091570163E0E69F04
:10478000F0011124E150FD4F539A8BB1877F9BB10B
:1047900098602FB7F894AF0163E0369F400D511D2C
:1047A000112414C08091590190915A01891720F762
:1047B000E82FF0E0AF01440F551FE40FF51FE15063
:1047C000FD4F1182108212828F5FF0CFE417F50740
:1047D00089F0319168E09BB9000000C037FF8BB9C8
:1047E000330F000000C000C000C08BB900C06A9544
:1047F00091F7ECCF2FBF8FE594E00197F1F700C060
:10480000000008950F931F93CF93DF93EC0100E016
:1048100010E080915B01282F30E0021713073CF570
:10482000909159019801290F311DA901440F551F7D
:10483000240F351F21503D4F869590E04C8108177D
:1048400019071CF4442349F002C0411106C04091ED
:104850003E03473918F046E901C040E060913D034E
:1048600080913C030E9411130F5F1F4FD2CF0E9413
:10487000B6238C8190E00196817099278C83DF911B
:10488000CF911F910F9108958F929F92AF92BF92F7
:10489000CF92DF92EF92FF920F931F93CF93DF930C
:1048A0008C01FC014481C42FD0E09E01DE010E94F6
:1048B000822B9B01AC010E94982B6B017C01E0E2F2
:1048C000F0E0EC1BFD0BA5E5B0E09B01AC010E9404
:1048D000982B4B015C019F01DF010E947A2B9B0109
:1048E000AC010E94A32B9B01AC012C0D3D1D4E1D64
:1048F0005F1DC501B4010E94522BC22FD22F2A3254
:1049000028F4F3E02F9F900111240DC025E530E03D
:104910002C1B3109C901880F991F280F391F37FF38
:1049200002C02F5F3F4F35952795C22FC095F12CC0
:1049300085E5E82EED1A80915B01F816E0F4F1FCB4
:1049400002C08E2D01C08D2F909159012F2D30E086
:10495000290F311DA901440F551F240F351F215068
:104960003D4F4C2FC73908F046E960913D030E9446
:104970001113F394E0CF0E94B623F80184818111D2
:1049800002C091E003C0803219F49FEF909356016A
:1049900090915601890FF8018483DF91CF911F9187
:1049A0000F91FF90EF90DF90CF90BF90AF909F90CE
:1049B0008F9008951F93CF93DF93EC018C81811129
:1049C00009C081E08C831092FD0292E09093550122
:1049D000809354018091590190915A01891770F484
:1049E000E82FF0E09F01220F331FE20FF31FE15089
:1049F000FD4F1182108212828F5FF0CF10E0609124
:104A00005B011617D8F5E12FF0E070E0CF010E94AE
:104A10003E2B20915901820F2091FD02022E000CA5
:104A2000330B90E0E217F307E4F020915501022EDA
:104A3000000C330B2E173F07A4F09C01220F331FED
:104A4000820F931F9C0121503D4F40913E034739F7
:104A500008F046E960913D0380913C030E941113E8
:104A60000BC0FC01EE0FFF1F8E0F9F1FFC01E150DA
:104A7000FD4F1182108212821F5FC1CF0E94B623A8
:104A8000809154012091FD02280F2093FD02909106
:104A90005501980F9093550119165CF4022E000CE5
:104AA000330B40915B0150E0415051092417350709
:104AB00034F0819580935401813009F41C82DF9198
:104AC000CF911F9108957F928F929F92AF92BF9244
:104AD000CF92DF92EF92FF920F931F93CF93DF93CA
:104AE000EC018A8180FF03C0BB24BA9402C0BB24BE
:104AF000B3948C8181110DC081E0B81206C0809101
:104B00005B0181508093FC0202C01092FC0281E0A4
:104B10008C83A12C44E1742E80905B01A81408F0D2
:104B200044C080915901CA2CD12C8601080F111D57
:104B3000C801880F991F080F191F01501D4FF80158
:104B400011821082128234E0E32EF12C912C80919C
:104B5000FC02890D85312CF0672D0E941C2B892FBA
:104B600002C087FD880D082E000C990BC816D906C7
:104B7000A9F480913E038E9DA0018F9D500D1124BC
:104B80005595479555954795473908F046E9980159
:104B900060913D0380913C030E9411139B0CF1E056
:104BA000EF1AF108A1F6A394B7CF0E94B623809123
:104BB000FC0291E0B9120EC0811107C080915B0127
:104BC00081508093FC021C820FC081508093FC02B4
:104BD000BC820AC090E0019660915B0170E00E9487
:104BE0003E2B8093FC028C83DF91CF911F910F911C
:104BF000FF90EF90DF90CF90BF90AF909F908F90FD
:104C00007F900895FF920F931F93CF93DF93EC0152
:104C1000F12C0FEF10E060915B01F61608F5809122
:104C200059012F2D30E0280F311DC901880F991F20
:104C3000280F391F21503D4F40913E03473908F05E
:104C400046E970E0C8010E943E2B962F8C8160914E
:104C50003D03F99E800D11240E941113F394DBCFC4
:104C60000E94B6239A818C8190FF02C08F5F01C0A1
:104C700081508C83DF91CF911F910F91FF90089508
:104C800090913B0390FF16C09091590120915A01D9
:104C9000921770F4E92FF0E0DF01AA0FBB1FEA0FB3
:104CA000FB1FE150FD4F8183608342839F5FF0CF04
:104CB0000C94B62308950F931F93CF93DF9300D0E6
:104CC0001F92CDB7DEB78C018091FE0281110AC020
:104CD0009E012F5F3F4F46E96FEF0E9411138A81BB
:104CE0008093FE02F8018481813051F028F08230F7
:104CF00061F44091FE020AC08091FE0240E007C0CC
:104D00006091FE0240E080E003C040E080E060E0AF
:104D10000E944026F801848190E0019663E070E0F3
:104D20000E943E2B84830F900F900F90DF91CF91C4
:104D30001F910F910895AF92BF92CF92DF92EF92A1
:104D4000FF920F931F93CF93DF9300D01F92CDB7A5
:104D5000DEB7082FF62E142FE22E90913B0390FF22
:104D600085C0E92FE695AE2FB0E0A452BE4F8C91DE
:104D70008093F9029E7F923081F4473908F046E92A
:104D80009E012F5F3F4F6F2D802F0E9411134B818B
:104D900069818A810E94402646C0823019F41091B0
:104DA0003E0341C0863019F400913C033CC0893079
:104DB000D9F38931C1F5E9518E2F8170D82EE6954E
:104DC000F0E0EE50FB4FA590B490C12CBB24609155
:104DD0005B01C61630F52C2D30E0A29EC001A39ECB
:104DE000900DB29E900D112470E00E942A2B802F0E
:104DF000D11002C0860F01C0861B90915901290F66
:104E0000311DA901440F551F240F351F21503D4F5F
:104E1000412F173908F046E96F2D0E941113C394F2
:104E2000D6CF0E94B62380913C03081308C080911E
:104E30003D03F81204C080913E03181729F08091B9
:104E4000FB0282608093FB0200933C03F0923D03DF
:104E500010933E03EE2051F060913B0370913C03B0
:104E600080913D0390913E030E94C5120F900F90D8
:104E70000F90DF91CF911F910F91FF90EF90DF90F6
:104E8000CF90BF90AF9008959C013A9521153F4176
:104E900030F5BC0166277270AC01442754709C0148
:104EA0002227387094FF0FC090FF02C080E101C03C
:104EB00080E0672B09F08062452B09F08064232B8A
:104EC00079F080680895892F8170672B09F08260DE
:104ED000452B09F08460232B19F08860089580E049
:104EE00008951F93CF93DF93CDB7DEB767970FB6C3
:104EF000F894DEBF0FBECDBF4B8B5C8B6D8B7E8B72
:104F00008F8B61111092450386E09E01235F3F4F16
:104F1000D901E82F1D92EA95E9F795E0FE01739615
:104F2000D90101900D929A95E1F79C894E895F898C
:104F30007B897D879E876F87598B488BF901DE01BE
:104F4000179601900D928A95E1F7CE0107960E947F
:104F5000701881113EC086E0FE013796DE01119681
:104F600001900D928A95E1F7FF81E8856A857B853E
:104F70006115710531F0EF3F31F481E0FF3F19F425
:104F800003C081E001C080E080FD23C020918E023B
:104F900030E0C9010196877099274091BF0250E027
:104FA0008417950779F1F983EA837D836C8396E012
:104FB000929FD001939FB00D1124A157BD4FFE01C8
:104FC000319601900D929A95E1F780938E020E949E
:104FD000561716E08091BF0290918E028917F9F062
:104FE000189FC001112481579D4F0E94701888237B
:104FF000B1F08091BF0290E001968770992780936D
:10500000BF02E8CF0E94E71A10928E021092BF02F0
:10501000E8E8F2E086E0DF011D928A95E9F76796FD
:105020000FB6F894DEBF0FBECDBFDF91CF911F91B9
:105030000895DF92EF92FF920F931F93CF93DF9328
:10504000E82FF0E0E95DF94FD490282F26952695BA
:10505000269530E0F901E95EF94F0491877010E080
:10506000082E02C0159507950A94E2F701701127E2
:10507000F901E95FF94FE490F12C082E02C0F59494
:10508000E7940A94E2F791E0E922FF24F901E9505C
:10509000FA4FC491D0E002C0D595C7958A95E2F742
:1050A000C170DD270115110519F081EE0E94951BD5
:1050B000E114F10419F086EE0E94951B8D2D0E94DB
:1050C000171CEF2819F086EE0E941C1B012B19F00B
:1050D00081EE0E941C1BCD2B51F08CE2DF91CF9111
:1050E0001F910F91FF90EF90DF900C94171CDF91B0
:1050F000CF911F910F91FF90EF90DF900895CF9384
:10510000DF93EC010E941C1BCE01805E9109089781
:1051100010F0209739F4CE010E944427DF91CF91FF
:105120000C940B1BCE010E944427DF91CF910C946D
:10513000F61ACF93DF93EC01805E9109089710F087
:10514000209731F4CE010E9444270E94121B05C013
:10515000CE010E9444270E94011B8C2FDF91CF912A
:105160000C94951B8EE14A9B02C08150E1F74A9B4B
:10517000FECF08955A9880E28A95F1F75A9A0895D9
:10518000FC012AE02A95F1F728E090E080E031E088
:1051900040E14A95F1F7880F4A9B02C0816093274E
:1051A00000C0000040E14A95F1F7215089F720E165
:1051B0002A95F1F729B100C0000030E13A95F1F7E6
:1051C00022FB222720F992272081920F90830895B5
:1051D000EF92FF920F931F93CF93DF931F92CDB760
:1051E000DEB719828C017C01E60EF11C0E151F053D
:1051F00051F00E94B228CE0101960E94C028F80109
:1052000081938F01F3CF81E09981911180E00F901C
:10521000DF91CF911F910F91FF90EF900895529AD7
:105220005A9A089552985A9AEA9AE9E6F0E08081EB
:105230008F7C80830895615091E001C0990F6A9539
:10524000EAF720E031E0992361F0492F482319F073
:105250005A9A232701C05A9840E24A95F1F7969549
:10526000F2CF222311F05A9A01C05A9880E28A950F
:10527000F1F75A980895FF920F931F93CF93DF93FE
:10528000EC018C01060F111DC017D10741F0F990F8
:105290000E94BA2868E08F2D0E941B29F5CFDF916C
:1052A000CF911F910F91FF9008951F920F920FB60B
:1052B0000F921124EF92FF920F931F932F933F931E
:1052C0004F935F936F937F938F939F93AF93BF930E
:1052D000EF93FF93CF93DF931F92CDB7DEB7198281
:1052E0000E94B228CE0101960E94C028A82FA69540
:1052F000A695A6959A2F969595702A2F2570920FB0
:10530000292F237096959695920F877089137CC0EC
:105310008981811179C0A53008F076C080E18A9535
:10532000F1F75A9A529AB2E0BA95F1F700C05A983A
:10533000EA2EF12CEAE0AE9FD0011124A35FBE4F0C
:105340001896ED91FC9119973097B1F06091DA01C0
:105350007091DB0116962D913C911797260F371F00
:1053600013968D919C911497680F791F15964C9107
:10537000159712968C9109958AE08E9DF0018F9D6C
:10538000F00D1124E35FFE4F6581662351F080919B
:10539000DA019091DB0126813781820F931F0E94F1
:1053A0003B290E94BA28F0E1FA95F1F75A985298F1
:1053B0005A9A80E18A95F1F78AE08E9D80018F9D4F
:1053C000100D1124035F1E4FD80112966C91129795
:1053D000662399F08091DA019091DB0113962D916B
:1053E0003C911497820F931F0E94E828D801ED91F9
:1053F000FC91811105C082E004C0D801ED91FC91BF
:1054000088E080830E94B2280F90DF91CF91FF91B6
:10541000EF91BF91AF919F918F917F916F915F912C
:105420004F913F912F911F910F91FF90EF900F900F
:105430000FBE0F901F9018950F931F93CF93DF937C
:10544000853091050CF0A9C02AE0289FF001299F22
:10545000F00D1124E35FFE4F20813181232B09F4ED
:105460009CC0EC01F894529A5A9885E08A95F1F71D
:1054700000008C2F869585709C2F9570890F982F32
:105480009370869586958E0123E0000F111F2A9553
:10549000E1F7890F082B0E94BA28A4E0AA95F1F73A
:1054A00000C068E0802F0E941B29B0E1BA95F1F797
:1054B00052985A9A4A9902C000C0FCCF87E090E007
:1054C0004A9B17C0019799F4529A5A9A8AE08C9F86
:1054D000F0018D9FF00D1124E35FFE4F0190F081EC
:1054E000E02D81E08083789481E090E058C000C096
:1054F000E7CF8AE08C9F80018D9F100D1124035F00
:105500001E4FF80165816623B9F08091DA01909110
:10551000DB0126813781820F931F0E94E8288111C9
:105520000BC0529A5A9AD801ED91FC9182E0808387
:10553000789482E090E033C00E94B228B0E2BA953D
:10554000F1F75A98529AE0E1EA95F1F78AE08C9FD8
:10555000F0018D9FF00D1124E35FFE4F6281662301
:1055600051F08091DA019091DB0123813481820F27
:10557000931F0E943B290E94BA288AE08C9FF00169
:105580008D9FF00D1124E35FFE4F0190F081E02D1F
:105590001082789480E090E002C084E090E0DF9197
:1055A000CF911F910F910895F999FECF92BD81BDC2
:1055B000F89A992780B50895A6E1B0E044E050E05C
:1055C0000C940E2BA8E1B0E042E050E00C940E2BBE
:1055D000262FF999FECF92BD81BDF89A019700B4AC
:1055E000021639F01FBA20BD0FB6F894FA9AF99A4C
:1055F0000FBE08950396272F0E94E92A0E94E82AE9
:10560000252F0E94E92A242F0C94E92A0196272F9E
:105610000E94E92A0C94E82ADC01CB01FC01F999EB
:10562000FECF06C0F2BDE1BDF89A319600B40D92EE
:1056300041505040B8F7089587FB082E062687FD95
:10564000819567FD61950E94AB2B0EF4919507FC47
:1056500081950895AA1BBB1B51E107C0AA1FBB1F60
:10566000A617B70710F0A61BB70B881F991F5A95EE
:10567000A9F780959095BC01CD01089597FB072E61
:1056800016F4009407D077FD09D00E942A2B07FC5E
:1056900005D03EF4909581959F4F08957095619542
:1056A0007F4F0895A1E21A2EAA1BBB1BFD010DC05E
:1056B000AA1FBB1FEE1FFF1FA217B307E407F507C2
:1056C00020F0A21BB30BE40BF50B661F771F881F9E
:1056D000991F1A9469F760957095809590959B0134
:1056E000AC01BD01CF010895EE0FFF1F0590F491AD
:1056F000E02D09940E94822B332312F48A1B9B0B0A
:105700000C94932BA29FB001B39FC001A39F700D77
:10571000811D1124911DB29F700D811D1124911DB9
:1057200008950E94822BB7FF0895821B930B089562
:105730000E94822BA59F900DB49F900DA49F800D79
:10574000911D11240895B7FF0C94982B0E94982B5B
:10575000821B930B0895991B79E004C0991F96173B
:1057600008F0961B881F7A95C9F780950895FC016B
:105770004150504030F001900616D1F73197CF01DB
:105780000895882799270895FB01DC0104C08D91B5
:105790000190801921F441505040C8F7881B990BA3
:1057A0000895FB01DC0102C001900D924150504070
:0857B000D8F70895F894FFCF2B
:1057B8000101E60CE90CE50CE30CE40CFFC2020065
:1057C80000000100000000C2020000000401000007
:1057D80000C2020405000000000000C2020809001F
:1057E80000000000001600DF801800FC801200F6A0
:1057F800800800ACA00400E48001191A1B1C1D1EBF
:105808001F202122010201001400141468225822CA
:105818004822000000000000000000000000000016
:1058280045016822582248220000000000000000BC
:1058380000000000000041016822582248220000B0
:105848000000000000000000000000003D01682288
:10585800582248220000000000000000000000005C
:105868000000390168225822482200000000000088
:105878000000000000000000350134C697940000C5
:10588800000036323331F7F6F5F4DE020001020289
:1058980002020606060909090909090F0F0F0F0F69
:1058A8000F1515151819191919191919191919236D
:0258B8002400CA
:00000001FF
