:100000000C947A090C94C1090C94C1090C94FC3429
:100010000C94C1090C94C1090C94C1090C94C10938
:100020000C94C1090C94C1090C94401B0C947C1ACB
:100030000C946A280C94C1090C94C1090C94C10950
:100040000C94C1090C94C1090C94C1090C94C10908
:100050000C94C1090C94151C0C94C1090C94C10991
:100060000C94C1090C94C1090C94C1090C94C109E8
:100070000C94C1090C94C1090C94C1090C94C109D8
:100080000C94C1090C94C1090C94C1090C94C109C8
:100090000C94C1090C94C1090C94C1090C94C109B8
:1000A0000C94C1090C94C1090C94C109370A350B91
:1000B000DD0A540A790A890AA30ABB0ACF0AEF0AA1
:1000C000180B040B6B0D6B0DA50DA50DE50D8C0F1D
:1000D0008C0F8C0F010EDF0EF00EF00E370A470B5F
:1000E000DD0A540A790A890AA30ABB0ACF0AEF0A71
:1000F000180B040B9718BE18541ABE18541A061978
:100100002919541A181A2B1AFC24FC240F250F2520
:1001100005250F250F250F25FC24FC240A250F2576
:100120000F250A2500DA1281FFD9F1DB20A4A62EC3
:10013000AF00A0C000A1C800AED580A83FD300404A
:100140008D14200064321405010980A10185031972
:10015000012AB700150126B700950175108100C06E
:10016000050C0901A101850419012AA00215012627
:10017000A002950175108100C005010906A10105C5
:100180000719E029E71500250195087501810295F9
:1001900001750881010507190029FF150026FF00D8
:1001A0009506750881000508190129059505750151
:1001B0009102950175039101C009023B0002010003
:1001C000A0FA090400000103010100092111010046
:1001D000012240000705810308000A09040100010B
:1001E00003000000092111010001223200070582ED
:1001F0000320000A12010002000000081D8D9D9DD1
:100200000100010200010C034B007900720069003B
:10021000610000001003730070006C00690074003E
:100220004B004200000004030904726D65720A0A63
:100230002B343920313733203234203138203531D6
:10024000350A6D61696C4073746F65726D65722DEE
:10025000636F6E73756C74696E672E64650A777769
:10026000772E73746F65726D65722D636F6E737523
:100270006C74696E672E64650A0A00726D65722D72
:10028000636F6E73756C74696E670A44722E2050CA
:1002900065746572205374000A0A2D2D0A0A73745E
:1002A00000726D65720A0A00650A506574657220F5
:1002B000537400467265756E646C696368652047A7
:1002C0007200726D65720A0A00650A506574657283
:1002D000205374006E652047720053636800650AFE
:1002E00050657465720A0A006E6520477200536398
:1002F00068002D2D3E2000000000000500130009BD
:10030000001A001400025400000000070017001635
:100310000015000400635D000014590A001900066E
:10032000001B001D00E3002B612C41E2002900A806
:1003300000000000000000000000000D000F001889
:10034000001C006A5D6B5D000000001000110008D9
:10035000000C000B006C5D280200000E001200373C
:10036000003600695D295D28612A72E4006D5D2C0C
:100370000000000000000000000000665D24002571
:100380000026000100010000000000675D1E001F44
:100390000020002700640001000100685D210022A8
:1003A0000023000100010001000100010001000123
:1003B00000000000000000000000001F024A005280
:1003C000004D000000655D00000000320250005149
:1003D000004F0000006E5D01004C002D023800301F
:1003E000001E022D14010001004C0001000100015B
:1003F0000000000000000000000000430040004139
:10040000004200010001000000000044003A003BEF
:10041000003C00010001000100010045003D003EDC
:10042000003F000100010001000100010001000186
:1004300000000000000000000000000100010001B9
:1004400000010001000100000000000100010001A6
:100450000001000100010001000100010001000194
:100460000001000100010001000100010001000184
:100470000000000000000000010209080704030555
:10048000060001020908070403050607087F08079C
:10049000003E5B4F5B3E003E6B4F6B3E001C3E7C64
:1004A0003E1C00183C7E3C18001C577D571C001C4D
:1004B0005E7F5E1C0000183C180000FFE7C3E7FFEA
:1004C00000001824180000FFE7DBE7FF0030483A7F
:1004D000060E00262979292600407F0505070040E1
:1004E0007F05253F005A3CE73C5A007F3E1C1C0814
:1004F00000081C1C3E7F0014227F2214005F5F0056
:100500005F5F0006097F017F00006689956A0060D1
:10051000606060600094A2FFA2940008047E04085A
:100520000010207E20100008082A1C0800081C2A41
:100530000808001E10101010000C1E0C1E0C0030BD
:10054000383E383000060E3E0E0600000000000067
:100550000000005F000000000700070000147F1487
:100560007F1400242A7F2A120023130864620036B5
:100570004956205000000807030000001C224100DB
:10058000000041221C00002A1C7F1C2A0008083E93
:100590000808000080703000000808080808000003
:1005A00000606000002010080402003E5149453EF2
:1005B0000000427F400000724949494600214149FC
:1005C0004D33001814127F10002745454539003C73
:1005D0004A49493100412111090700364949493644
:1005E00000464949291E0000001400000000403464
:1005F0000000000008142241001414141414000018
:1006000041221408000201590906003E415D594E7D
:10061000007C1211127C007F49494936003E41415D
:100620004122007F4141413E007F49494941007FCD
:1006300009090901003E41415173007F0808087F04
:100640000000417F4100002040413F01007F08142D
:100650002241007F40404040007F021C027F007F1B
:100660000408107F003E4141413E007F0909090610
:10067000003E4151215E007F091929460026494963
:1006800049320003017F0103003F4040403F001F0B
:100690002040201F003F4038403F0063140814638F
:1006A000000304780403006159494D4300007F4171
:1006B000414100020408102000004141417F000434
:1006C00002010204004040404040000003070800CF
:1006D000002054547840007F284444380038444473
:1006E000442800384444287F0038545454180000EB
:1006F000087E09020018A4A49C78007F08040478EE
:100700000000447D4000002040403D00007F102854
:1007100044000000417F4000007C04780478007CA5
:100720000804047800384444443800FC1824241891
:100730000018242418FC007C0804040800485454C1
:1007400054240004043F4424003C4040207C001C0E
:100750002040201C003C4030403C004428102844ED
:10076000004C9090907C004464544C440000083647
:100770004100000000770000000041360800000240
:1007800001020402003C2623263C00000000000079
:1007900000404040F0F8F8FF38FFF8F83FF8F8FF65
:1007A00038FFF8F8F040404000000000000080C032
:1007B000C0C0800000C0C08000000080C0C000C079
:1007C000C0000080C0C00000000000C0C0C0C0C0A9
:1007D00000C0C00000000000000000000000000099
:1007E0000000000000000000000000000000000009
:1007F00000000000000000000000000000000000F9
:1008000000000000000000000000C0F0F8FC3E1EE8
:1008100006010000007F4141417F007F4141417F4F
:10082000000080C0E07E5B4F5BFEC00000C000DCCB
:10083000D7DEDEDED7DC00C00000000000000000D4
:1008400000000000000000000000000000000000A8
:1008500000494949FFFFFFFFE0DFBFBF00BFBFDF27
:10086000E0FFFFFFFF49494900000000001F3F6013
:1008700060E0BF1F007F7F071E381E077F7F007F5D
:100880007F0E1F3B716000000000007F7F0C0C0C8E
:10089000007E7E007F7E0303007F7E03037E7E0357
:1008A000037F7E000F3E703C063C703E0F00327BA3
:1008B00049493F7E007F7E0303001E3F69696F2622
:1008C00000000000000000000000030F1F3F3C7804
:1008D00070600000007F4141417F007F4141417FC6
:1008E00000307B7F7830202030787F3B0003000F82
:1008F0007F0F0F0F7F0F00030000000000000000BB
:1009000000000000000000000000000000000000E7
:1009100000010101070F0F7F0F7F0F0F7E0F0F7F69
:100920000F7F0F0F07010101000000000000000011
:1009300000000101000000000000000000000000B5
:1009400000000000000000000000000000000000A7
:100950000000000000000000000000000000000097
:100960000000000000000000000000000000000087
:100970000000000000000000000000000000000077
:100980000000000000000000000000000000000067
:100990000000000000000000000000000000000057
:1009A0000000000000000000000000000000000047
:1009B0000000000000000000000000000000000037
:1009C000000000000000000000000000AF00AE00CA
:1009D000007E7E183C6642000C1C70701C0C00747B
:1009E0007414147C68007C7C0070782C247C7C005F
:1009F00000000000000000000000000000000000F7
:100A00000000000000000000008040402020202066
:100A10001010101010080804040408304080000072
:100A200000000000000000000000000000000000C6
:100A300000000000000000000000000000000000B6
:100A40000000000000000000000000008080800026
:100A5000000000C06030180C84C66223331191710D
:100A6000F1719111332362C6840C183060C000000C
:100A70000000000000000000000000000000000076
:100A8000186482020202020201000000008080005D
:100A900000000000000000008000303000C0C1C134
:100AA000C204081020408000000080808080404008
:100AB000404020202020101010100808080808C40A
:100AC00004C404C402C202C201010101000000000A
:100AD00000FC0F0100F80E1F6D8C9494A4A6F9E0A1
:100AE000FFE0F9A6A494948C6D1F0EF800010FFC92
:100AF000000000000000000000000000000000C036
:100B0000380403000000000000000C0C0C0D010074
:100B100040A0212212111111090808080804040834
:100B2000081010101010110F01010000000000004B
:100B3000000000000000000000000000AAAAFFFF63
:100B4000C3BF7F037FBFC3FFFFAAAA00000000004E
:100B5000001F78C0000F387CDB9814141232CF03CA
:100B6000FF03CF3212141498DB7C380F00C0781FBB
:100B700010101010080808080804040404040203F4
:100B8000020201010101010102020404080808082F
:100B90000807000000000000000000000000000046
:100BA0000000000000000000000000000000000045
:100BB0000000000000000000000000000282871F0B
:100BC000079F071C079F079F070282000000002065
:100BD000101010110B0E0C1810312362664444479C
:100BE000474744446662233110180C060301000095
:100BF00000000000000000000000000000000000F5
:100C000000000000000000000000000000000000E4
:100C100000000000000000000000000000000000D4
:100C200000000000000000000000000000000000C4
:100C30000000000000000000000000000708081786
:100C4000000F0102010F000F02050800007E7E1850
:100C50003C6642000C1C70701C0C00747414147CF4
:100C600068007C7C0070782C247C7C0000000000F4
:100C70000000000000000000000000000000808074
:100C800000000000008040402020202010101010A4
:100C90000804020101020C30408000000000000046
:100CA00000F8F8F8F8000000000080800000000064
:100CB0000000000000000000000000000000000034
:100CC000000000000000000080808000000000C0E4
:100CD0006030180C84C6622333119171F171911147
:100CE000332362C6840C183060C00000000000008E
:100CF0000000000000000000000000001EE10000F5
:100D0000010102028180800000808000000000005C
:100D100000000000800030300000010102040810D3
:100D2000204387070100B8BCBE9F5F5F4F4C202067
:100D30002020101010100808080808C404C404C4B7
:100D400002C202C2010101010000000000FC0F010B
:100D500000F80E1F6D8C9494A4A6F9E0FFE0F9A6AC
:100D6000A494948C6D1F0EF800010FFC000000008D
:100D7000000000000000000000000080700C030074
:100D800000180605989984437C4141404020212267
:100D9000121111110908080808040408081010109D
:100DA0001010110F013D7CFCFCFCFCFC3C0C000015
:100DB0000000000000000000AAAAFFFFC3BF7F03DD
:100DC0007FBFC3FFFFAAAA0000000000001F78C079
:100DD000000F387CDB9814141232CF03FF03CF329C
:100DE00012141498DB7C380F00C0783F10101010DC
:100DF00008080808080404040404020302020101AC
:100E000001010101000000000000000000000000DE
:100E100000000000000000000000000000000000D2
:100E200000000000000000000103030000000000BB
:100E300000000000000000000282871F079F071CBF
:100E4000079F079F0702820000000020101010116A
:100E50000B0E0C1810312362664444474747444444
:100E60006662233110180C06030100000000000028
:100E70000000000000000000000000000000000072
:100E80000000000000000000000000000000000062
:100E90000000000000000000000000000000000052
:100EA0000000000000000000000000000000000042
:100EB000000000000000000007080817000F0102F2
:100EC000010F000F02050800007E7E183C664200FC
:100ED0000C1C70701C0C00747414147C68007C7CF6
:100EE0000070782C247C7C000000000000000000D2
:100EF00000000000000000000000808000000000F2
:100F00000080404020202020101010100804020112
:100F100001020C30408000000000000000000000D2
:100F200000000000000000000000000000000000C1
:100F300000000000000000000000000000000000B1
:100F40000000000080808000000000C06030180CAD
:100F500084C6622333119171F1719111332362C6FA
:100F6000840C183060C00000000000000000000089
:100F700000000000000000001EE10000010102026C
:100F80000100000000808000000000000000000060
:100F900080003030000001E11A06093135018A7CF9
:100FA00000008080808040404040202020201010A1
:100FB00010100808080808C404C404C402C202C20D
:100FC000010101010000000000FC0F0100F80E1FEC
:100FD0006D8C9494A4A6F9E0FFE0F9A6A494948CF7
:100FE0006D1F0EF800010FFC000000000000000063
:100FF0000000000000000080700C030000000000F2
:10100000000000000001010040A021221211111176
:101010000908080808040404040404020202010187
:1010200001010000000000000000000000000000BE
:1010300000000000AAAAFFFFC3BF7F037FBFC3FF5A
:10104000FFAAAA0000000000001F78C0000F387C33
:10105000DB9814141232CF03FF03CF32121414980A
:10106000DB7C380F00C0781F10101010080808082B
:1010700008040404040402037A7A7979797939310D
:101080000202040408080888888780000000000025
:101090000000000000000000000000000000000050
:1010A0000000000000000000000000000000000040
:1010B000000000000282871F079F071C079F079FF1
:1010C0000702820000000020101010110B0E0C18F7
:1010D00010312362664444474747444466622331E3
:1010E00010180C06030100000000000000000000C2
:1010F00000000000000000000000000030787CFECE
:10110000FF3F0700000000FFFF7F7F3F3E1C1800ED
:1011100000000000000000000000000000000000CF
:1011200000000000000000000000000000000000BF
:101130000000000007080817000F0102010F000F50
:101140000205080000000000000000000000000090
:101150000000000000000000000000010000380056
:1011600000007800000000F68700ECFEFFFF87011A
:1011700000000000000000000000002A2B280000F2
:101180000000000000000000000000000000290036
:101190000000002C1E1F322122233225263030363B
:1011A000383724271E1F2021222324252637366482
:1011B00027642D140405060708090A0B0C0D0E0FF1
:1011C000101112131415161718191A1B1D1C252D92
:1011D0002635382E0405060708090A0B0C0D0E0FDC
:1011E000101112131415161718191A1B1D1C24643C
:1011F00027304C000101010101010101010202023D
:1012000002020202020203030303030303030404B2
:10121000040404040405050505050606060606077C
:101220000707070708080808090909090A0A0A0B35
:101230000B0B0C0C0C0D0D0D0E0E0E0F0F0F1010D6
:10124000111111121213131414151516161717185D
:101250001819191A1A1B1B1C1D1D1E1E1F202021C8
:101260002222232424252626272829292A2B2C2D0F
:101270002D2E2F30313232333435363738393A3B30
:101280003C3D3E3F404142434445464748494A4C25
:101290004D4E4F50515354555658595A5B5D5E5FF1
:1012A000616264656668696B6C6D6F707273757787
:1012B000787A7B7D7E8082838587888A8C8E8F91E9
:1012C000939596989A9C9EA0A2A3A5A7A9ABADAF13
:1012D000B1B3B5B7BABCBEC0C2C4C6C9CBCDCFD1FD
:1012E000D4D6D8DBDDDFE2E4E7E9EBEEF0F3F5F8A6
:1012F000FAFDFF0011241FBECFEFDAE0DEBFCDBF45
:1013000004B603FE27C08091000890910108A091C7
:101310000208B09103088730904BA740B04BD1F43E
:10132000109200081092010810920208109203080F
:1013300014BE84B7877F84BF0FB6F894A8958091B8
:101340006000886180936000109260000FBEE0E052
:10135000F8E3099512E0A0E0B1E0E6E5FEE602C0A0
:1013600005900D92A632B107D9F728E0A6E2B2E0C7
:1013700001C01D92A030B207E1F70E9405100C9445
:1013800029370C9400008F929F92AF92BF92CF9218
:10139000DF92EF92FF920F931F93CF93DF93CDB71E
:1013A000DEB72A970FB6F894DEBF0FBECDBFFC01A3
:1013B000D080118183819481892B39F01F3F39F4CA
:1013C00091E00FEFD01203C003C091E001C090E0A4
:1013D00090FD08C67F0185E0DE01169601900D9212
:1013E0008A95E1F7D70112962C918E819F81222355
:1013F00049F00E946F24082F682F8E819F810E94E0
:10140000E02603C00E94B426082FE12FF0E0B8E0E8
:101410000B9FE00DF11D1124A3E0EE0FFF1FAA9515
:10142000E1F7ED0DF11DEE0FFF1FE950FD4F0591A6
:1014300014915801F7018281980123563D456901B5
:10144000882309F4C6C50E9452286093280270932D
:10145000290280932A0290932B023CE0C316D10408
:1014600008F003C1F601EA5AFF4F0C940037D70188
:1014700012968C91882389F08091B70285FD05C072
:1014800086EE0E94AE3284E11BC085EE0E94B52735
:1014900086EE0E94AE3284E61EC084E10E94B5272B
:1014A00084E60E94B52777C5F70182818823E1F0A1
:1014B0008091B70285FD08C086EE0E94AE3284E2BC
:1014C0000E94AE3286EEEDCF85EE0E94B52786EE05
:1014D0000E94AE3287E20E94AE3286EE0E94B527AD
:1014E00085EE0E94AE3257C584E20E94B52787E29E
:1014F000D8CFD70112968C91882379F08091B702CA
:1015000085FD05C085EE0E94AE3285E29EC086E272
:10151000E8CFF7018281811105C085E20E94B527DD
:1015200086E2BFCF8091B70285FD05C086EE0E949E
:10153000AE3285E2C5CF85EE0E94B52786EE0E94C9
:10154000AE3286E2C8CFD70112968C91882389F0FB
:101550008091B70285FD05C085EE0E94AE3284E21F
:1015600074C085EE0E94B52786EE0E94AE3280E3FD
:10157000B2CF84E245C0F7018281882359F080917F
:10158000B70285FD05C085EE0E94AE3283E25DC0E4
:1015900082E2A7CF83E20E94B52782E282CFD70101
:1015A00012968C918823B1F08091B70285FD0DC011
:1015B00085E30E94112885E394CFF7018281882377
:1015C00061F08091B70285FDE6C48EE20E94112889
:1015D0008EE287CF85E30E94B5278EE262CFD701E6
:1015E00012968C91882359F08091B70285FD05C031
:1015F00085EE0E94AE3287E228C080E372CF87E298
:101600000E94B52780E34DCFF7018281882359F0EE
:101610008091B70285FD05C085EE0E94AE3281E261
:1016200014C080E25ECF81E20E94B52780E239CF0C
:10163000D70112968C91882399F08091B70285FD8D
:1016400008C085EE0E94AE3288E30E94AE3285EE7D
:1016500028CF85EE0E94B52782E30E94AE3240CFAC
:1016600088E30E94B52782E31CCFD70112968C91A4
:10167000882369F0C801825E9C45059740F46EE1BD
:10168000600F609330028CE090E00E94AC3617FF50
:101690007AC0F7018281882309F475C00E940A2963
:1016A0008695817080932D0290913002913029F4BB
:1016B000882319F089E30E9411288091B702809352
:1016C0002C021092B70280913002813071F048F004
:1016D000823081F08430A1F486EE0E94112888E1E6
:1016E0000DC082EE0E94AE320BC088E193E00E94F2
:1016F0008B2D06C082EE0E94AE3287E50E94112833
:101700008FE39CE90197F1F700C000004801E894DD
:1017100097F87CE0C72ED12CC4010C2C02C0969502
:1017200087950A94E2F78F7096EF980F963010F035
:10173000805D01C0895A0E94C62C94E0C91AD10864
:10174000ACEFCA16AFEFDA0639F78091300281307C
:1017500039F078F0823069F0843089F488E20DC085
:101760008CE20E94112880912D02882341F089E3A8
:1017700004C082EE0E94B52702C00E941128809109
:101780002C028093B702F7018281882309F43FC0BD
:101790008091EC06882329F1C80190568115F0E26A
:1017A0009F0720F0905E8115904110F45801BB24F2
:1017B0008091EB06853060F4E82FF0E0EE0FFF1F1C
:1017C000E152F94FB182A0828F5F8093EB0602C095
:1017D0001092EC060E945E289093EA068093E90638
:1017E000DAC309323DE5130791F481E08093EC06FA
:1017F0000E945E289093EA068093E9061092EB0619
:101800008AE0EFEDF6E0DF011D928A95E9F7F70136
:1018100082818111ADC08091B70282720B3CBCE520
:101820001B0709F494C030F5063CFCE51F0709F4DA
:101830007AC058F4043C3CE5130709F46AC008F088
:101840006DC0033C1C45D9F1EBC0083CBCE51B074F
:1018500009F473C008F46CC0093CFCE51F0709F4E7
:1018600071C00A3C1C4509F0DBC04DEA5BE269EB44
:101870007BE276C0013D3CE5130788F40F3C9CE514
:10188000190708F088C30D3CACE51A0709F464C0D9
:1018900008F069C040E358E261E478E261C0073DC6
:1018A000ECE51E0738F4023D1C4508F074C30E94A5
:1018B000791771C30E351D4509F46DC3B1C0809110
:1018C000CE0280FF20C08E7F8093CE026091CE0238
:1018D0007091CF028091D0029091D1020E949C31F0
:1018E0000E94572A809163078160809363073FEFCE
:1018F00080E792E0315080409040E1F700C0000066
:101900000E94792A48C381608093CE0261E0869567
:101910002CC04BE952E364EA72E322C044EA52E38A
:101920006BE972E31DC04DED5BE266EE7BE218C031
:1019300046EE5BE26DED7BE213C045EC5BE261EDF0
:101940007BE20EC041ED5BE265EC7BE209C049EB56
:101950005BE26DEA7BE204C041E458E260E378E2D6
:101960000E94512A18C361E081E00E945B3213C3D8
:101970000B35ADE51A0709F44EC058F40115ECE536
:101980001E07C1F00F3D1C4509F04AC00E942923E3
:1019900002C30C352DE5120709F43FC00D351D4576
:1019A00009F03EC080912F0282FB882780F991E0E8
:1019B000892734C01092B7020E9482278FEF94E3E8
:1019C000ACE081509040A040E1F700C0000081E011
:1019D0008093E00080E28093D8001092C900EFE18C
:1019E000FEE43197F1F700C0000087E090EBDC01E6
:1019F0008093000890930108A0930208B093030815
:101A00009CE088E10FB6F894A895809360000FBE23
:101A100090936000FFCF81E001C080E00E94DF234F
:101A2000D70112968C9112970C9111961C918823D4
:101A300049F0C8010E946F24D82E682FC8010E9467
:101A4000E02604C0C8010E94B426D82EE12FF0E0A1
:101A5000B8E0DB9EE00DF11D112433E0EE0FFF1F17
:101A60003A95E1F7E00FF11DEE0FFF1FE950FD4F32
:101A7000859194910E94C21C8C01982EF701C2801E
:101A8000B580B2945FE0B52280915907877099F0D4
:101A9000CC2089F0812F807F803421F080E2800F7C
:101AA000883048F082E00E943A2780915907877079
:101AB000DD24D3948111D12CA12EA2942FE0A22257
:101AC0008A2D90E08C30910508F026C2FC01EE5979
:101AD000FF4F0C940037812F807F1F70882311F0F7
:101AE0001295107FCC20B9F0112309F400C280E2D6
:101AF000800F883010F0911006C08091B702182B2B
:101B00001093B70205C08091F207182B1093F207CB
:101B10000E94A423ECC1802F0E94B527112309F451
:101B2000FBC1005E1095083010F0911006C0809146
:101B3000B70218231093B70205C08091F20718234B
:101B40001093F2070E94A423E7C1812F807F1F70AA
:101B5000803211F01295107F802F992021F0F1E052
:101B60009F16C9F027C0CC2069F080916002B110A7
:101B700002C0812B17C001E0812BB01213C00E945C
:101B80009A23CAC1BB2021F021E0B21609F4C4C1D6
:101B90000E94942316C0CC2041F035E03B1508F498
:101BA000BBC1812F0E94AB27B7C184E08B1508F41D
:101BB000B3C107C0CC2019F0BB2099F398C1B11074
:101BC0009DC1812F0E94A027A7C1812F8695869550
:101BD000837019F0813059F09FC1CC2019F0C801F1
:101BE000937002C080E090E00E94F4289BC1CC205A
:101BF00019F0C801937002C080E090E00E94DE28D6
:101C000091C1812F837009F069C0C11089C1902FE3
:101C1000929596959770990F990F802F8F70882EB7
:101C2000912CA12CB12C092E04C0880C991CAA1C43
:101C3000BB1C0A94D2F704FF12C04FE050E060E0F2
:101C400070E004C0440F551F661F771F9A95D2F7A6
:101C5000DB01CA0180959095A095B09503C080E006
:101C600090E0DC0116951695412F4370423019F132
:101C7000C8F4009158021091590220915A023091F3
:101C80005B02413059F088299929AA29BB29BC0156
:101C9000CD0160237123822393230AC0802A912AD5
:101CA000A22AB32ABC01CD01682979298A299B2956
:101CB0000E94782735C188299929AA29BB29009132
:101CC00058021091590220915A0230915B02BC01D6
:101CD000CD016027712782279327EACFCC2019F006
:101CE000812F817001C08695882309F419C1902F36
:101CF000929596959770990F990F802F8F70882ED7
:101D0000912CA12CB12C092E04C0880C991CAA1C62
:101D1000BB1C0A94D2F704FF12C04FE050E060E011
:101D200070E004C0440F551F661F771F9A95D2F7C5
:101D3000DB01CA0180959095A095B09503C080E025
:101D400090E0DC0116951695412F43704230D9F092
:101D500068F500915C0210915D0220915E02309165
:101D60005F02413059F088299929AA29BB29BC0171
:101D7000CD0160237123822393231EC0802A912AE0
:101D8000A22AB32A13C088299929AA29BB2900911C
:101D90005C0210915D0220915E0230915F02BC01F5
:101DA000CD01602771278227932706C0BC01CD0192
:101DB000682979298A299B290E940B27B1C01F70A5
:101DC000CC2039F0812F0E945727802F0E94AB270B
:101DD000A7C0802F0E94A027812F0E941527A0C096
:101DE000802FE2EF9E1609F440C0E91538F0F0EFBD
:101DF0009F1661F021EF921699F174C033EF93169C
:101E0000D9F194EF991609F44EC06CC0CC2019F1A9
:101E1000A4E0AB1508F480C01F7181E090E0A0E061
:101E2000B0E0AC01BD0104C0440F551F661F771F11
:101E30001A95D2F780915C0290915D02A0915E02AA
:101E4000B0915F028A019B01082719272A273B27A7
:101E5000C901B80125C025E02B1508F45DC0DCCF11
:101E6000CC2029F0812F8F7130C0CC20D9F3812F65
:101E70008F710E94152750C0CC2079F01F7181E02E
:101E800090E0A0E0B0E0BC01CD0104C0660F771F78
:101E9000881F991F1A95D2F703C060E070E0CB014C
:101EA0000E940B2739C0CC2099F01F71812F0E940E
:101EB000572780912F0282FD07C038E0139FC00191
:101EC0001124836080935907812F0E94572724C0D3
:101ED00081E00E943A2781E08B15F0F482E00E94B5
:101EE0003A271AC0CC2039F0BB2009F4BBCF802F91
:101EF0000E94AE3211C0BB2009F4B9CF893349F436
:101F00009FEFA7EEB3E09150A040B040E1F700C0D2
:101F10000000802F0E94B52788EF8A0D843010F4CE
:101F20000E940A29DD20A9F08091590780FD11C087
:101F3000F70112828595859585950E945727C701DF
:101F40000E94C309809159078595859585950E94C2
:101F5000152785E0F701DE01119601900D928A9513
:101F6000E1F789819A810E94B426EA81F0E008E0D5
:101F7000809FE00DF11D112483E0EE0FFF1F8A9575
:101F8000E1F78981E80FF11DEE0FFF1FE950FD4FCA
:101F90008591949127C080915907877019F1D701D5
:101FA00012968C918823F1F082E02A960FB6F8946D
:101FB000DEBF0FBECDBFDF91CF911F910F91FF907C
:101FC000EF90DF90CF90BF90AF909F908F900C9448
:101FD0003A272C30310508F05ACBF901E259FF4F6E
:101FE0000C9400372A960FB6F894DEBF0FBECDBF13
:101FF000DF91CF911F910F91FF90EF90DF90CF90E5
:10200000BF90AF909F908F900895CF93DF93CDB7FF
:10201000DEB72C970FB6F894DEBF0FBECDBF84B7E6
:10202000877F84BF0FB6F894A8958091600088617F
:1020300080936000109260000FBE90E080E80FB6C1
:10204000F89480936100909361000FBE85B780681B
:1020500085BF85B7806885BF86E69CE1909327029F
:10206000809326020E94C01A0E94DF1A8091E2002B
:1020700084608093E20078948091C4028823A1F068
:102080001091E9001F709091EC00892F817090FDF4
:1020900080E8182B1092E9008091E80083FD0E94EF
:1020A000B1171F701093E90082E084BD93E095BDE5
:1020B0009AEF97BD80936E001092B3071092B40709
:1020C0001092B5071092B6070E9466318093000106
:1020D00080910001882321F0109216018AE003C04C
:1020E0008AE080931601809317010E946631811166
:1020F0000E94B6348091000180910001811102C0DC
:1021000094E001C090E090933D0284E0891B8093AD
:102110003C020FE911E0F3EAEF2EF1E0FF2ED801C7
:102120008D918D018F3F11F00E94AB1CE016F106DE
:10213000B1F707EA11E0EFEAEE2EE1E0FE2EF8013A
:1021400081918F018F3F11F00E94AB1CE016F106C8
:10215000B1F7E4E3F2E08CE392E0A0E4B2E01192A4
:102160001D928E179F07D9F780E090E00E94A63657
:10217000893E9E4F11F00E94292382E090E00E9448
:1021800098368093A60284E090E00E949836182F3B
:1021900082E290E00E949836212F30E0382B309375
:1021A0002F0220932E0283E090E00E949836682F41
:1021B00070E080E090E00E9478278CE090E00E9440
:1021C000983690E0A0E0B0E0809330029093310226
:1021D000A0933202B09333020E946631811102C093
:1021E0000E94B93482E08093A10280E88093A00726
:1021F0000E944A336DE070E087E391E00E94881707
:10220000892B09F043C08091A10263E070E081FD59
:102210003AC084E391E00E948817892BB9F56DE0FC
:1022200070E084E291E00E948817892B79F50E9482
:102230005228DC01CB01805A9541AF4FBF4F8093AC
:10224000A7079093A807A093A907B093AA07E5ED65
:10225000F2E080E094E0DF019C011D9221503040CB
:10226000E1F7F093D606E093D5068FEF9FEF9093BA
:10227000D4028093D30281E08093AC078093AB07B4
:102280001092A20203C081E391E0C5CF80913E028B
:1022900081113BC080E090E00E94A636893E9E4FAF
:1022A00021F00E9429230E94AE3188E090E00E9434
:1022B000A0366093CE027093CF028093D0029093A9
:1022C000D102809163078360809363076E7F71F40E
:1022D0000E94AE3188E090E00E94A0366093CE026A
:1022E0007093CF028093D0029093D1020E948931E3
:1022F0000E94572A8091CE0280FF04C060E086953C
:102300000E945B3281E080933E0280910001811146
:1023100006C085E380930C0186E680930B01209133
:102320000C01E22FE295EF70F0E031A12F7081E017
:1023300090E0AC01022E01C0440F0A94EAF7542F3A
:102340005095352331A332A1432B42A340910B0179
:10235000A42FA295AF70B0E091963C9191974F70E9
:10236000042E01C0880F0A94EAF7982F90959323C2
:1023700091969C93919792969C919297892B929685
:102380008C93929780A190E002C0959587952A95AD
:10239000E2F7817090962C9130E002C03595279538
:1023A0004A95E2F720FD02C090E001C092E0892B3F
:1023B00080934F029091000181E0982790934E0204
:1023C000891B80933F028091CE0281608093CE0270
:1023D00060E086950E945B3260E082E00E945B32A2
:1023E0000E94A4320E94A4320E94A43281E091E0B3
:1023F0009093B0078093AF0760E4C62E2224239405
:10240000312C8091C402853009F046C000E112E110
:102410008091C402853009F039C08091C4028430B3
:1024200019F11092B70788E190E00FB6F894A895DB
:10243000809360000FBEC092600083B7817F84608C
:1024400083BF83B7816083BF7894889583B78E7F7D
:1024500083BF0FB6F894A89580916000886180933F
:102460006000109260000FBE8091C302882309F4BF
:10247000CFCF0E944D1EE0E4F2E0819181115DC357
:10248000A8E4B2E0AE17BF07C1F7C2CF1092B702FF
:102490000E9482270E940A290E944D1EB82E811197
:1024A0000E945228E7EAF2E0A0E4B2E000E010E087
:1024B000A02EDD9081918D2549F1E12CFF24F3942C
:1024C0009F2D9823F1F00E946631882399F0E982CC
:1024D000AA82DF2081E009F480E08B830E945E28DD
:1024E0008160782F9D838C8349815A816B818D8196
:1024F0000E941C2CF801E955FD4F8081F826F082DE
:102500001AC0E394FF0C28E0E212DACF0F5F1F4FEE
:102510000830110569F68FEF8E838F8318860E942D
:102520005E288160782F9A8789874E815F816885D0
:102530008A850E941C2C80916207882309F46BC055
:1025400080916107E091CE02E695E81BE0935D077C
:10255000823061F4E695F0E0EC5BFE4FE4910E2FE3
:1025600010E050E0E52E5BE2F52E06C000ED17E02E
:102570004FE2E42E48E2F42E80915E07882361F05A
:1025800010925E070E94AE2890935C0780935B07D1
:102590001092600710925F070E94AE28E0915B07DF
:1025A000F0915C079C012E1B3F0B2F3F3F4798F596
:1025B00020914A022223B1F010924A02209148024F
:1025C00030914902821B930B8F3F9F4758F4205D47
:1025D0003A4830934902209348028091630788600B
:1025E0008093630780905F07909060070E0F1F1F16
:1025F00010935C0700935B078BE597E0F701099563
:1026000080915F0790916007892B29F4892819F040
:1026100081E080934A02E0914F025E2F550F550FE3
:1026200020910C01E22FE295EF70F0E080A190E0A4
:102630002F7002C0959587952A95E2F781709927AA
:1026400040910B01E42FE295EF70F0E020A130E023
:102650004F7002C0359527954A95E2F7F901E17070
:10266000FF2720FF02C0E2E0F0E0E82BF92BE52B8A
:10267000E0934F0210914E02EF70F0E0E155FE4FF3
:10268000908180914D02890F80934D02843074F0C7
:10269000E12FF0E0E55BFD4F80818F5F808360E09C
:1026A000812F0E94F62DDD24D39401C0D12C80917E
:1026B0004D028D3F6CF4E12FF0E0E55BFD4F808132
:1026C0008150808361E0812F0E94F62DDD24D39418
:1026D00080914D02082E000C990B64E070E00E947E
:1026E000EC3680934D02D1100E944B1E8091AC07B6
:1026F000882309F411C28091A3029091A4020E9440
:10270000571CC29708F407C10E945E289093A40248
:102710008093A30285ED92E09093D6068093D50630
:102720000E946631882309F457C00E94BD2D88237A
:1027300031F160915402709155028091560290914E
:1027400057020E943B1C693C71058105910560F0B0
:102750000E9452286093540270935502809356024F
:10276000909357020E94D02D0E94522860935002ED
:10277000709351028093520290935302CCC06091A7
:1027800050027091510280915202909153020E9426
:102790003B1C61367A4E8105910508F0BCC0609102
:1027A00054027091550280915602909157020E94F6
:1027B0003B1C693C71058105910508F4ACC00E9481
:1027C000522860935402709355028093560290935E
:1027D00057020E94D02D9FC040915C0250915D0233
:1027E00060915E0270915F0280915802909159024F
:1027F000A0915A02B0915B02842B952BA62BB72B8C
:10280000AD0166277727411551056105710521F056
:10281000DB01CA0110E101C010E0492F5A2F6B2FD4
:102820007727411551056105710519F0185FDB0126
:10283000CA01AC01BD0104E07695679557954795AF
:102840000A95D1F7411551056105710519F01C5F15
:10285000DB01CA01AC01BD01F2E0769567955795A1
:102860004795FA95D1F7411551056105710519F0A4
:102870001E5FDB01CA01B695A79597958795892BB1
:102880008A2B8B2B09F01F5F85E891E00E94F02DC9
:1028900060E08FE791E00E941E2A133038F429E0AF
:1028A000129FC001112481549E4F02C087E891E01D
:1028B0000E94F02D85E891E00E94F02D10916002B9
:1028C0008091B702182B60E081E991E00E941E2AF6
:1028D000812F827261E009F460E087E991E00E9453
:1028E0001E2A61E0812F817109F460E089E991E09D
:1028F0000E941E2A61E0812F847409F460E08BE954
:1029000091E00E941E2A187861E009F460E08DE9E8
:1029100091E00E941E2A8091AC07882309F4E1C04F
:102920002091D3023091D4022115310509F4D9C088
:102930008091A2028111D5C0482E512C7101082E20
:1029400002C0EE0CFF1C0A94E2F7A9014E215F21A0
:10295000452B11F48F5FF0CF9091A102920176E0A8
:10296000220F331F7A95E1F790FD13C08295880FEF
:10297000880F807480930F01220F232F221F330BA7
:10298000319520931201815C809310011092130104
:1029900012C056E0369527955A95E1F7220F220F7F
:1029A000220F20930F0110921201295F2093100132
:1029B00087E08093130124E630E047E050E06DE0CB
:1029C00071E088E70E940134892B09F08AC0809168
:1029D000A10280FD23C0C20146E0880F991F4A95DD
:1029E000E1F7AC014B525D4F04E610E020E430E02B
:1029F00060E488E70E942834892B09F072C00E94A5
:102A00003429E094F0948091D3029091D402E8228A
:102A1000F922F092D402E092D30263C0E1E6F2E040
:102A2000DF012C2D1D922A95E9F736E0440C551C48
:102A30003A95E1F782EE91E09C878B874AED51E071
:102A4000AB85BC858D91BC87AB87FA019191AF01B5
:102A50008201090F111D0B521D4F90E08F599D4FA0
:102A6000FC0127E0922E9F01281B390B722C01C01C
:102A7000770C2A95EAF7B801812CDB01AD90BD01F6
:102A8000A720292D28192770622E022E000C330B47
:102A9000BA2D01C0BB0F6A94EAF76B2E31952195D0
:102AA00031092770332701C0A6942A95EAF76A28CE
:102AB000A0806A286082839428E08212DECF9A94F4
:102AC00031963FEF9312CFCF8B859C858A5E9140E4
:102AD00009F0B6CF04E610E020E430E041E652E031
:102AE00087CF8091AB078823B9F00E9452280091CC
:102AF000A7071091A8072091A9073091AA07DC0128
:102B0000CB01801B910BA20BB30B8F3F9F4FAF4F9D
:102B1000BF4710F40E941A29B11001C0D1100E94C1
:102B200034290E940A299091A502891709F469CCD9
:102B30000E940A298093A50264CC09BD19BD09B47D
:102B400000FEFDCF8091D8008F7D8093D8008091CA
:102B5000E00082608093E0008091E00081FDFCCF86
:102B60001092B7020E94822753CC2091E40030914A
:102B7000E50095E64091EC00842F817040FF23C072
:102B80008091E80080FD1DC08091C402882399F0E7
:102B9000853099F08091EB0085FD11C04091E400F3
:102BA0005091E5002417350729F3915011F09A014F
:102BB000E1CF84E0089582E0089583E0089581E004
:102BC000089580E008954091E80042FFDDCF089528
:102BD000EF92FF920F931F93CF93DF937C018B01B2
:102BE0000E94B515811119C0E70101151105A1F069
:102BF0008091E80085FD0AC08091E8008E7780937F
:102C0000E8000E94B515882381F307C0899180935D
:102C1000F10001501109E9CF80E0DF91CF911F91C0
:102C20000F91FF90EF9008958091C60287FF11C029
:102C30008091E80082FD05C08091C4028111F8CF27
:102C400011C08091E8008B770BC08091C40288236B
:102C500049F08091E80080FFF8CF8091E8008E77FE
:102C60008093E8000895982F973068F59093E900D5
:102C7000981739F07091EC002091ED005091F00020
:102C800003C0242F762F50E021FD02C09F5FECCFC0
:102C90003091EB003E7F3093EB003091ED003D7FB3
:102CA0003093ED003091EB0031603093EB00709386
:102CB000EC002093ED005093F0002091EE0027FDF2
:102CC000E5CF80E008958F708093E90081E008955A
:102CD0002091CC023091CD022617370748F06115BC
:102CE000710539F42091E8002E772093E80001C0A7
:102CF000B901FC0120E06115710579F18091C402F0
:102D00008823F1F18530F1F18091E80083FD3CC02A
:102D10008091E80082FD2EC08091E80080FFEBCF1B
:102D20002091F3008091F20090E0922B61157105E3
:102D300051F08830910538F421912093F1006150D1
:102D400071090196F3CF21E0089709F020E0809106
:102D5000E8008E778093E800CECF2111CFCF0AC054
:102D60008091C402882361F0853061F08091E80091
:102D700083FD0AC08091E80082FFF2CF80E00895D1
:102D800082E0089583E0089581E008950895809198
:102D9000B90208959091C402943031F58093B30242
:102DA0007093B5026093B40282E08093E9008FEFE4
:102DB0009091E800815095FD06C095ED9A95F1F748
:102DC00000008111F5CF8091E80085FF0DC040E043
:102DD00050E063E070E083EB92E00E94E8158091A0
:102DE000E8008E778093E8000895BC0184E00C949D
:102DF000CA16BC0183E00C94CA16CF93DF9321E07E
:102E00002093E9002FEF3091E800215035FD06C0F6
:102E100035ED3A95F1F700002111F5CF2091E8004A
:102E200025FF14C0EC0140E050E068E070E00E9433
:102E3000E8158091E8008E778093E80088E0FE0135
:102E4000AAEBB2E001900D928A95E1F7DF91CF9164
:102E50000895EF92FF920F931F93CF93DF932091EA
:102E6000D5063091D606255D3240A90144585D4F04
:102E70004130544028F040E054E0421B530B02C064
:102E80004CE752E0C091D302D091D402D901AB52A9
:102E9000BD4FB901420F531F01E010E064177507E1
:102EA000E8F4FB01E21BF30BE80FF91FE491FC913E
:102EB000EF1781F0EC93FB01689415F8F695E79510
:102EC0001694E1F7780102C0EE0CFF1CEA95E2F7D8
:102ED000CE29DF296F5F7F4F1196E0CFD093D402C8
:102EE000C093D302DF91CF911F910F91FF90EF908C
:102EF00008958091CE0280FF07C0869582588F7713
:102F0000853010F40C94A43261E082E00C945B32C2
:102F1000EF92FF920F931F93CF93DF93EC017B010E
:102F200064E670E088E70E9450338C01EC0EFD1ED1
:102F3000CE15DF0561F017FD0AC0FE01849164E63D
:102F400070E00E94D1338C012196892B89F30E9475
:102F50005534C801DF91CF911F910F91FF90EF90F1
:102F600008951F93CF93DF93CDB7DEB7AA970FB61F
:102F7000F894DEBF0FBECDBFE6ECF2E08091F10029
:102F8000819322E0EE3CF207C9F78091C7028330BB
:102F900009F460C030F4813071F0823009F49CC0D3
:102FA000B3C08A3009F488C08B3009F46BC0893013
:102FB00009F0AAC020C08091C602813A09F0A4C0DD
:102FC0008091E800877F8093E8008091CA02909109
:102FD000CB02892B21F468E08AEB92E003C060E029
:102FE00080E090E070E00E9468168091E8008B77A6
:102FF0008093E80089C08091C602813209F084C0C4
:103000008091CA029091CB02029708F07DC0809116
:10301000E800877F8093E8008091E80082FD05C08A
:103020008091C4028111F8CF6FC02091F30080918C
:10303000F20090E0922B029729F48091F1008B7FAF
:10304000813021F48091F1008093B9028091E800F1
:103050008B7756C08091C602813A09F055C08091A5
:10306000CA029091CB02892B09F04EC08091E800F2
:10307000877F8093E8008091E80080FFFCCF8091FB
:10308000140139C08091C6028132F1F58091CA02E3
:103090009091CB02892BC1F58091E800877F8093C6
:1030A000E8000E9414168091C802809314011092C7
:1030B000B7020E94822728C08091C602813221F582
:1030C0008091E800877F8093E8000E941416809129
:1030D000C9028093B80218C08091C602813AA1F457
:1030E0008091E800877F8093E8008091E80080FF6E
:1030F000FCCF8091B8028093F1008091E8008E7738
:103100008093E8000E9414168091E80083FFCCC1F0
:103110008091C6029091C702492F50E04A30510574
:1031200008F0C2C1FA01E658FF4F0C94003780380E
:1031300021F0823809F0B8C108C08091C202909194
:10314000C302992389F082600FC08091CA028F70F8
:10315000873008F0A9C18093E9008091EB0085FBDE
:10316000882780F91092E9009091E800977F90936A
:10317000E8008093F1001092F10065C1282F2D7FA7
:1031800009F092C1882319F0823061F08DC18091DD
:10319000C802813009F088C1933009F080E0809343
:1031A000C3022EC08091C80281112AC08091CA0238
:1031B0008F702FEF280F263008F076C18093E9003A
:1031C0002091EB0020FF1CC0933021F48091EB0094
:1031D000806214C09091EB0090619093EB0021E02D
:1031E00030E0A90102C0440F551F8A95E2F74093D1
:1031F000EA001092EA008091EB0088608093EB0077
:103200001092E9008091E800877F20C181114CC1B4
:103210001091C8021F778091E3008078812B809302
:10322000E3008091E800877F8093E8000E941416F5
:103230008091E80080FFFCCF8091E300806880935C
:10324000E300111102C082E001C083E08093C40258
:103250002BC18058823008F027C18091C80290911C
:10326000C9028C3D53E0950779F583E08A838AE2B1
:1032700089834FB7F894DE01139620E03EE051E2D7
:10328000E32FF0E050935700E49120FF03C0E29554
:10329000EF703F5FEF708E2F90E0EA3010F0C7962E
:1032A00001C0C0968D939D932F5F243149F74FBF86
:1032B0008091E800877F8093E8006AE270E0CE01A9
:1032C00001960E946816AEC04091CA025091CB028E
:1032D000292F332723303105A9F068F42130310537
:1032E00009F4F1C02230310509F0DEC08BE390E033
:1032F000E9EBF1E044C02132310521F12232310500
:1033000071F1D2C0992781309105A1F058F0029750
:1033100009F0CAC0E6E0F2E0E4918E2F90E0E6E02A
:10332000F2E02AC0E6E2F2E0E4918E2F90E0E6E2DD
:10333000F2E022C0E4E1F2E0E4918E2F90E0E4E1DB
:10334000F2E01AC04115510509F4C2C041305105DF
:1033500009F0AAC089E090E0E4EEF1E010C0411568
:10336000510509F4BAC04130510509F09DC082E30E
:1033700090E0E7E4F1E003C0009709F495C02091E4
:10338000E800277F2093E8002091CC023091CD0205
:103390008217930708F49C0140E02115310589F15B
:1033A0008091C402882309F43DC08530D9F1809111
:1033B000E80083FD37C08091E80082FD2FC0809136
:1033C000E80080FFEACF4091F3008091F20090E0A6
:1033D000942B2115310559F08830910540F4449122
:1033E0004093F1003196215031090196F2CF41E02E
:1033F000089709F040E08091E8008E778093E8001C
:10340000CCCF4111CDCF0AC08091C402882351F0A6
:10341000853041F08091E80083FD04C08091E80090
:1034200082FFF2CF8091E8008B778093E8003CC068
:103430008038D1F58091E800877F8093E800809103
:10344000C5028093F1008091E8008E778093E800B8
:103450000E94141629C0811127C08091C802909142
:10346000C9029927029704F58091E800877F80932D
:10347000E8001091C8021093C5020E9414161111A1
:1034800006C08091E30087FD02C081E001C084E0B6
:103490008093C40242E061EC81E00E94331642E274
:1034A00061EC82E00E9433168091E80083FF1AC02D
:1034B0008091E800877F8093E8008091EB00806234
:1034C0008093EB000FC082E190E0E4EFF1E057CF92
:1034D00089E090E0EBECF1E052CF80E490E0E9E7A6
:1034E000F1E04DCFAA960FB6F894DEBF0FBECDBF68
:1034F000DF91CF911F9108951F920F920FB60F92F7
:1035000011242F933F934F935F936F937F938F93E8
:103510009F93AF93BF93CF93DF93EF93FF93C091AC
:10352000E900CF708091EC00D82FD17080FDD0E8F9
:103530001092E9008091F000877F8093F0007894EA
:103540000E94B1171092E9008091F000886080938A
:10355000F000CD2BCF70C093E900FF91EF91DF9188
:10356000CF91BF91AF919F918F917F916F915F911B
:103570004F913F912F910F900FBE0F901F90189574
:10358000E8EDF0E080818E7F80831092E20010925F
:10359000DA001092E100A0EEB0E08C9181608C9393
:1035A00080818F77808319BCA7EDB0E08C918E7FEE
:1035B0008C9380818F7E80831092B6020895CF9283
:1035C000DF92EF92FF920F931F93CF93DF93C8ED9B
:1035D000D0E088818F7E8883E7EDF0E08081816094
:1035E000808384E082BF81E08093B60288818E7FF1
:1035F000888302EE10E0F80110821092DA0081EE6A
:10360000C82ED12CF601108288818F77888388811B
:103610008068888388818F7D888319BC1092C4025A
:103620001092C5021092C3021092C20290EEE92ECF
:10363000F12CF70180818B7F808388818160888372
:1036400042E060E080E00E943316F60180818E7FC8
:103650008083F8018081816080838081886080839D
:10366000F70180818E7F8083888180618883DF91EC
:10367000CF911F910F91FF90EF90DF90CF90089521
:103680001F920F920FB60F9211242F933F934F93D7
:103690005F936F937F938F939F93AF93BF93EF93BA
:1036A000FF938091E10082FF09C08091E20082FFD8
:1036B00005C08091E1008B7F8093E1008091DA006A
:1036C00080FF2AC08091D80080FF26C08091DA0058
:1036D0008E7F8093DA008091D90080FF18C080E14E
:1036E00089BD82E189BD09B400FEFDCF81E08093F0
:1036F000C4028091B60281110FC00E94C01A0E94BC
:10370000DF1A8091E20084608093E20005C019BC5A
:103710001092C4021092B6028091E10080FF17C09F
:103720008091E20080FF13C08091E2008E7F809341
:10373000E2008091E20080618093E2008091D800F5
:1037400080628093D80019BC85E08093C402809188
:10375000E10084FF2EC08091E20084FF2AC080E156
:1037600089BD82E189BD09B400FEFDCF8091D800FA
:103770008F7D8093D8008091E1008F7E8093E1005F
:103780008091E2008F7E8093E2008091E200816070
:103790008093E2008091C502882311F084E007C085
:1037A0008091E30087FD02C081E001C083E0809347
:1037B000C4028091E10083FF27C08091E20083FF73
:1037C00023C08091E100877F8093E10082E08093B5
:1037D000C4021092C5028091E1008E7F8093E100C7
:1037E0008091E2008E7F8093E2008091E200806110
:1037F0008093E20042E060E080E00E943316809116
:10380000F00088608093F000FF91EF91BF91AF913D
:103810009F918F917F916F915F914F913F912F91E8
:103820000F900FBE0F901F90189578941F920F92D3
:103830000FB60F9211248F939F93AF93BF938091F4
:10384000AF029091B002A091B102B091B202019684
:10385000A11DB11D8093AF029093B002A093B1025D
:10386000B093B202BF91AF919F918F910F900FBE15
:103870000F901F901895CF92DF92EF92FF922FB783
:10388000F894C090AF02D090B002E090B102F090F6
:10389000B2022FBFA7019601261B370B480B590B0D
:1038A000CA01B901FF90EF90DF90CF9008959C017D
:1038B0004FB7F8948091AF029091B002A091B102FD
:1038C000B091B2024FBF821B930B089580E0089520
:1038D00090912E0292FF0DC0282F2871283019F4E4
:1038E000877F846006C0282F2471243011F48B7FD9
:1038F000886093FF0DC0282F2871283119F4877E26
:10390000846106C0282F2471243111F48B7E8861D4
:1039100020912F0220FF0DC0382F3871383019F454
:10392000877F816006C0382F3171313011F48E7F6E
:10393000886021FF0DC0282F2871283119F4877E57
:10394000816106C0282F2171213111F48E7E88619A
:1039500094FD877E0895F894E82FE295EF70F0E0EB
:1039600031A1282F2F7081E090E001C0880F2A95A7
:10397000EAF7982F9095932391A392A1892B82A384
:1039800078940895CF93DF938238910569F1B0F46C
:103990008133910509F46FC048F48932910509F427
:1039A00065C08A32910509F46BC08AC085339105E0
:1039B00009F457C089339105B9F082C0833E91055F
:1039C00071F138F4803E9105B1F0823E910511F11C
:1039D00077C0863E9105B9F1873E9105C9F1843ED5
:1039E000910509F06DC024C020912E0220FD53C026
:1039F00021FD51C065C080912E0280FD46C080919E
:103A00002F0280FF48C080912E0284FD3FC183EECB
:103A100090E03EC180912E0282FF3AC0F4CF8091A7
:103A20002E0282FD35C080912F0280FD34C0EBCF85
:103A300080912F0281FF35C080912E0284FD26C126
:103A400087EE90E025C180912E0283FF27C0F4CF3E
:103A500080912E0283FD22C080912F0281FD21C022
:103A6000EBCF80912E0285FD1FC021C080912E02D8
:103A700085FD1DC019C080912E0286FD1BC01DC092
:103A800080912E0286FD19C015C089E390E000C127
:103A900082EE90E0FDC080EE90E0FAC086EE90E00D
:103AA000F7C084EE90E0F4C089E290E0F1C085E3D5
:103AB00090E0EEC08AE290E0EBC081E390E0E8C0E5
:103AC000811532E5930708F069C0811541E5940737
:103AD00028F0982F8827816F906ADAC0883E910578
:103AE00068F5803E910508F0D3C0883A9105B8F496
:103AF000853A910548F0855AE82FF0E0E651FE4FEF
:103B0000808190E09064C4C08130910509F4BBC00D
:103B100008F4BCC08430910508F4B8C0B9C08F3B2C
:103B2000910508F0B3C0885AE82FF0E0EE0FFF1FB0
:103B3000E351FE4F808191819464AAC0811520E5F4
:103B40009207F0F09C0174E0369527957A95E1F79D
:103B5000922F9370482F437021E030E002C0220F73
:103B6000331F4A95E2F73C68392B8F70982F969552
:103B7000969540E2949FC0011124822B932B88C01C
:103B8000811530E4930718F09F70906A81C09C0102
:103B90003A9521153F4108F47BC078C0EC01C1156E
:103BA00086E5D807E8F5C11525E5D20748F08C2F42
:103BB0000E94681C8F7190E0982F8827906268C0DF
:103BC000C11534E5D30728F09C2F8827846F906AAD
:103BD0005FC0AE01437055272C2F26952695C11541
:103BE000D34578F481E090E002C0880F991F4A9590
:103BF000E2F740E2249F90011124822B932B9C68D2
:103C000047C081E090E002C0880F991F4A95E2F713
:103C100040E2249F90011124822B932B9A6838C094
:103C2000C1152AE5D207F8F4C11539E5D30790F09C
:103C30008C2F8F700E94681C94E0D695C7959A953A
:103C4000E1F7CF70D0E0DC2FCC27D0699E01282B84
:103C5000C9011EC0C11548E5D407C0F09C2F8827B4
:103C6000806F906A15C0CE0190568115904270F415
:103C70008D2F8F710E94681C282F2F71CE019927DC
:103C80009062922B05C081E090E002C080E090E05D
:103C9000DF91CF9108950C9452289F92AF92BF92DA
:103CA000CF92DF92EF92FF920F931F93CF93DF9308
:103CB000CDB7DEB72C970FB6F894DEBF0FBECDBFE1
:103CC0009E012F5F3F4F790188E0F90111928A959B
:103CD000E9F70FE911E05901CC24C394D12CF80184
:103CE00080818F3F09F447C0F894E82FE295EF7088
:103CF000F0E021A18F70A60102C0440F551F8A95E4
:103D0000E2F7CA01922F982B91A392A18095892363
:103D100082A3789400C0E7EAF1E020E030E0912C43
:103D200041914F3FB1F0A42FA295AF70B0E09096B3
:103D30008C9190E04F7002C0959587954A95E2F777
:103D400080FD07C08C2D022E01C0880F0A94EAF76F
:103D500001C080E0982A2F5F3F4F2830310501F7DE
:103D6000F80180818F3F11F00E94AB1CF0EAFA95B8
:103D7000F1F7F50190820F5F1F4FFFEFAF1ABF0AF7
:103D800021E0033A120709F0AACF48E050E0B7015A
:103D900084E392E00E9413378C01892B41F088E084
:103DA000F701A4E3B2E001900D928A95E1F7F0905B
:103DB0003D020115110549F081E08093D9060E946A
:103DC0005E289093D8068093D7068091D9068823E1
:103DD000B1F08091D7069091D8060E94571C0597A4
:103DE00070F0A4E3B2E0EF2DF0E0E05CFD4F8D91C8
:103DF000819332E0A833B307D1F71092D9060115A9
:103E0000110509F0FBC30E946631E0913D02882351
:103E100009F410C319861A861B861C860E2F10E023
:103E2000005C1D4F8091FF07AE01435F5F4F7A0139
:103E30008A3060F442EE50E3BE01675F7F4FC801F5
:103E40000E942531882309F447C00AC08091DA0610
:103E50009091DB060E94571C843F914058F74EC05A
:103E60004CE850E3BE01675F7F4FC8010E942531D7
:103E7000882391F14CEF5EE2BE01675F7F4FC8017E
:103E80000E942531882341F14FED5FE2BE01675F5B
:103E90007F4FC8010E9425318823F1F04FE95EE28F
:103EA000BE01675F7F4FC8010E9425318823A1F0C2
:103EB00044EA5FE2BE01675F7F4FC8010E9425317F
:103EC000882351F041E85FE2BE01675F7F4FC80180
:103ED0000E942531811195C38091FF078F3F19F012
:103EE0008F5F8093FF078091FF078A3008F48BC3B0
:103EF0000E945E289093DB068093DA06E0913C02F4
:103F0000F0E0E05CFD4FDE01199611921D92EA1679
:103F1000FB06D9F701E08091DE06882371F08091DD
:103F2000DC069091DD060E94571C833E944028F0E9
:103F300080EE0E94B5271092DE068091EC06882361
:103F400009F474C38091EB06882309F46FC3809150
:103F5000E9069091EA060E94571C8139914008F4C5
:103F600065C31092EC068091DF069091E0060D97F4
:103F7000D9F48091E1069091E206892BA9F4809111
:103F8000E3069091E406892B79F48091E5069091FF
:103F9000E606892B49F48091E7069091E806892B83
:103FA00019F484E30E9411288091DF069091E006C5
:103FB0000497D9F48091E1069091E206892BA9F447
:103FC0008091E3069091E406892B79F48091E506CF
:103FD0009091E606892B49F48091E7069091E806D6
:103FE000892B19F484E30E9411288091DF069091B7
:103FF000E0060897E1F48091E1069091E206892BB2
:10400000B1F48091E3069091E406892B81F48091CC
:10401000E5069091E606892B51F48091E706909190
:10402000E806892B21F488E094E10E948B2D809191
:10403000DF069091E0064297D9F48091E1069091D5
:10404000E206892BA9F48091E3069091E406892B7E
:1040500079F48091E5069091E606892B49F48091E8
:10406000E7069091E806892B19F483E30E94112852
:104070008091DF069091E0064897D9F48091E1069F
:104080009091E206892BA9F48091E3069091E406D1
:10409000892B79F48091E5069091E606892B49F405
:1040A0008091E7069091E806892B19F48FE20E942F
:1040B00011288091DF069091E0064697D9F480910F
:1040C000E1069091E206892BA9F48091E306909194
:1040D000E406892B79F48091E5069091E606892B18
:1040E00049F48091E7069091E806892B19F48DE256
:1040F0000E9411288091DF069091E006439739F5E0
:104100008091E1069091E206892B09F58091E30602
:104110009091E406892BD9F48091E5069091E6060A
:10412000892BA9F48091E7069091E806892B79F410
:1041300080EE0E94AE3281EE0E94AE3284E20E9496
:10414000112881EE0E94B52780EE0E94B52780914C
:10415000DF069091E006099739F58091E10690918C
:10416000E206892B09F58091E3069091E406892BFC
:10417000D9F48091E5069091E606892BA9F4809107
:10418000E7069091E806892B79F480EE0E94AE3222
:1041900081EE0E94AE3285E20E94112881EE0E94DB
:1041A000B52780EE0E94B5278091DF069091E0064A
:1041B000C79709F58091E1069091E206892BD9F421
:1041C0008091E3069091E406892BA9F48091E5069D
:1041D0009091E606892B79F48091E7069091E806A4
:1041E000892B49F483EE0E94AE328EE40E9411289E
:1041F00083EE0E94B5278091DF069091E006C69776
:1042000009F58091E1069091E206892BD9F480911D
:10421000E3069091E406892BA9F48091E50690913C
:10422000E606892B79F48091E7069091E806892BC0
:1042300049F483EE0E94AE328BE40E94112883EE93
:104240000E94B5278091DF069091E0060C97E1F47B
:104250008091E1069091E206892BB1F48091E3060A
:104260009091E406892B81F48091E5069091E60611
:10427000892B51F48091E7069091E806892B21F46F
:1042800082EF92E00E942C2D8091DF069091E00653
:10429000409769F58091E1069091E206479739F5DC
:1042A0008091E3069091E406892B09F58091E5065B
:1042B0009091E606892BD9F48091E7069091E80663
:1042C000892BA9F48EEE92E00E942C2D83E30E94AC
:1042D000112888EE92E00E942C2D8FE20E94112876
:1042E0008DE20E9411288EED92E00E942C2D80918B
:1042F000DF069091E0064097A1F58091E10690914C
:10430000E206469771F58091E3069091E406892BC9
:1043100041F58091E5069091E606892B11F5809193
:10432000E7069091E806892BE1F48AED92E00E947D
:104330002C2D83E30E94112884ED92E00E942C2D05
:104340008FE20E9411288DE20E94112889EC92E0F0
:104350000E942C2D83E30E94112882EC92E00E949F
:104360002C2D8091DF069091E006409769F58091B1
:10437000E1069091E206459739F58091E306909128
:10438000E406892B09F58091E5069091E606892BD4
:10439000D9F48091E7069091E806892BA9F483EB84
:1043A00092E00E942C2D8FE20E9411288DE20E9443
:1043B000112888EA92E00E942C2D83E30E941128A4
:1043C00081EA92E00E942C2D8091DF069091E00618
:1043D000409709F02BC18091E1069091E2064A973F
:1043E00009F024C18091E3069091E406892B09F03D
:1043F0001DC18091E5069091E606892B09F016C152
:104400008091E7069091E806892B09F00FC188E9B1
:1044100092E00E942C2D83E30E9411288BE792E00A
:104420000E942C2D83E30E9411288AE292E00E94D0
:104430002C2DFCC0F0E0E05CFD4FF89484E0ACEB88
:10444000B7E001900D928A95E1F764E070E08CEBA3
:1044500097E00E943A2A8093BB077894F894E09101
:104460004E02F0E0E55BFD4F808189878093C107B4
:1044700061E070E0CE0109960E943A2A8093C0075D
:104480007894F894C090C207D090C307E090C40716
:10449000F090C5078091ED069091EE06A091EF0691
:1044A000B091F006C816D906EA06FB06D1F0C09214
:1044B000ED06D092EE06E092EF06F092F0060E9432
:1044C000663181110EC00E945228C61AD70AE80A26
:1044D000F90AC092B307D092B407E092B507F09200
:1044E000B6077894F8948091C6079091C707A09179
:1044F000C807B091C90780935C0290935D02A093B6
:104500005E02B0935F028091CA079091CB07A091A1
:10451000CC07B091CD078093580290935902A09395
:104520005A02B0935B027894F8948091CE078093FE
:10453000B7028091CF078093F2078091D0070E9445
:104540009A237894F8948091D807882309F449C075
:1045500080FF24C09091D1078091CE0290FF09C0C6
:1045600081608093CE0260E0892F86950E945B3245
:1045700015C08E7F8093CE020E94572A80916307D8
:104580008160809363072FEF30E742E02150304095
:104590004040E1F700C000000E94792A8091D807CE
:1045A00081FF09C020E04091D4076091D30780913A
:1045B000D2070E943B2B8091D80782FF09C08091CF
:1045C000D707882319F00E945E2A02C00E94572A4A
:1045D0008091D80783FF03C081E080935E0710922B
:1045E000D8077894F8948091D907882319F00E940D
:1045F000342902C00E941A29789418C001E010E002
:1046000015C01092FF07E0913C02F0E0E05CFD4F26
:10461000DE01199600E08D919081981711F080834A
:1046200001E03196EA16FB06B1F775CC802F2C9687
:104630000FB6F894DEBF0FBECDBFDF91CF911F91B3
:104640000F91FF90EF90DF90CF90BF90AF909F9031
:10465000089569EE7EEF80E090E00E94CA3660E047
:1046600082E090E00E94AC3660E083E090E00E943F
:10467000AC36109258021092590210925A021092BF
:104680005B0260E084E090E00E94AC3660E082E291
:1046900090E00E94AC3660E085E090E00E94AC368D
:1046A00060E086E090E00E94AC366FEF87E090E03B
:1046B0000E94AC3640E050E0BA0188E090E00E94F1
:1046C000BE3660E08DE090E00E94AC3640E050E005
:1046D000BA0188E190E00E94BE3660E087E190E098
:1046E0000E94AC3640E050E0BA018CE190E00E94BC
:1046F000BE3660E070E080E290E00E94CA3640E0A2
:1047000050E0BA0188E190E00E94BE3640E050E0FF
:10471000BA018FE090E00E94BE3640E050E0BA015E
:1047200083E190E00C94BE3680916002811110927A
:104730006002089590912F0292FD05C09091600251
:1047400098138093600208959091B7028091F207C8
:10475000892B20915A07982F922B9093F1068091E4
:104760006002882389F0892B8093F106E3EFF6E05D
:1047700097E080E0915029F021912223D9F38F5FB7
:10478000F9CF81110E949423E091AF07F091B00717
:10479000309731F00280F381E02D81EF96E00994AB
:1047A000089580E090E00E94F42880E090E00E946C
:1047B000DE281092F20710925A070C94A423CF938C
:1047C000C0912F02C2FB992790F9981781F080FBC6
:1047D000C2F9C0932F0260912E0284E090E00E9403
:1047E000AC366C2F82E290E0CF910C94AC36CF9136
:1047F00008958091580790912707891719F08F5FC6
:104800008770FBCF08950F931F93CF93DF93809111
:10481000260782958F7009F05DC080912307882359
:1048200009F458C08091580710912707609121071B
:1048300070912207C0912407D091250791E06F3F26
:1048400009F090E0292F06E0811709F443C0209772
:1048500021F07F3F21F030E003C031E001C0322F72
:1048600090E030FD34C0089FF001099FF00D112445
:10487000DF01A85DB84F11963C911197371327C0FF
:104880003C91361324C012963C91129731111FC0EF
:1048900013964D915C9114974C1B5D0B4F3A51054B
:1048A000B0F4809126078F70806180932607E35DC6
:1048B000F84F80818F708061808381E297E00E9451
:1048C000C309DF91CF911F910F910C94F9230196A9
:1048D0008770BACFDF91CF911F910F9108958F927A
:1048E0009F92AF92BF92EF92FF920F931F93CF933D
:1048F000DF9380905C0290905D02A0905E02B09089
:104900005F02409158025091590260915A02709191
:104910005B02842A952AA62AB72ACFE1D0E0E92EA5
:10492000F12C082F10E0D501C4010C2E04C0B6955F
:10493000A795979587950A94D2F780FD04C0219793
:1049400090F780E01AC0FE0183E0EE0FFF1F8A950A
:10495000E1F7EE0DFF1D93E0EE0FFF1F9A95E1F7D3
:10496000E00FF11FEE0FFF1FE950FD4F859194916D
:104970000E94C21C019719F38C2FDF91CF911F91D8
:104980000F91FF90EF90BF90AF909F908F90089500
:10499000CF93DF93D82FC92F0E946F24EC2FF0E024
:1049A00098E0899FE00DF11D112483E0EE0FFF1FB9
:1049B0008A95E1F7ED0FF11DEE0FFF1FE950FD4F56
:1049C000859194910E94C21CDF91CF910895FC01C2
:1049D000808191810E94C824292F2F70E92FE295B0
:1049E000EF704E2F50E0FA013297EE30F105B8F437
:1049F000EC57FF4F0C940037803F99F018F4883E35
:104A000070F40FC0843F59F40CC0883E50F0813FD1
:104A100031F407C0822F869586958695089580E0AB
:104A2000089581E008959F92AF92BF92CF92DF9256
:104A3000EF92FF920F931F93CF93DF93CDB7DEB723
:104A400061970FB6F894DEBF0FBECDBF8C0185E035
:104A5000F801DE011D9601900D928A95E1F7F801AB
:104A6000E2809091210760912207409124075091A4
:104A700025074115510531F06F3F31F481E09F3F2B
:104A800019F403C081E001C080E0F82FF1709F2E7F
:104A900080FD1AC1F80130812181C380D48081E278
:104AA000A82E87E0B82EF0902307F601E41BF50B43
:104AB000FF2009F4C6C080912607EF3AF10508F0FF
:104AC00091C0482F407F09F050C0621311C093136A
:104AD0000FC0FE2CE1100CC08F7080618093260700
:104AE000C5010E94C30980912607F801858329C169
:104AF000CD2831F02F3F31F481E03F3F19F403C05E
:104B000081E001C080E080FD03C081E08E2502C00D
:104B100080E090E0F82FF170FF2E80FF1CC08091A4
:104B200058074091270756E0841709F4E8C090E041
:104B3000589FF001599FF00D1124E85DF84F6181F5
:104B4000261306C06081631303C06281E61203C0AE
:104B500001968770E9CFFE2CEE2009F4F2C0809117
:104B6000260781608093260749C0621306C093130D
:104B700004C0E11002C0F80186C0C8010E94E72409
:104B8000882351F1EE2041F120912607822F829552
:104B90008F7090E0029774F0809121079091220726
:104BA00098878F831986DB86CA862C87CE01079665
:104BB0000E94C30986E0F801A1E2B7E001900D92DE
:104BC0008A95E1F70E9403240AC06217C9F0C80160
:104BD0000E94E72481111EC0C8010E94C309FF245E
:104BE000F394AFC0482F407F81F781E297E00E94A5
:104BF000C30986E0F50111928A95E9F7F12CA1C06D
:104C00009313E5CFE110E3CFF8018583C8010E943B
:104C1000C30954C0EE2001F320912607822F82950C
:104C20008F7090E0029734F28091210790912207D3
:104C30009A8389831B82DD82CC822E83CE010196EA
:104C4000B7CFEF3AF105D0F5FE2CEE2029F2621332
:104C500027C0931325C02091260720FD18C0822F5E
:104C600082958F70482F50E04115510581F0F80171
:104C700025834F30510541F08F5F982F9295907F9B
:104C8000822F8F70892B8583C8010E94C30986E01B
:104C9000F801A1E2B7E001900D928A95E1F751C0C9
:104CA000C8010E94E724811185CF80912607816089
:104CB00080932607C8010E94C30943C086E0F5011E
:104CC00011928A95E9F73DC0EE2009F485CFC8011D
:104CD0000E94E724F82E882309F47ECF86E0F801AD
:104CE000A1E2B7E001900D928A95E1F7809121074A
:104CF000909122070E94C8240E94032422C03D876D
:104D00002E878D859E850E94C824292F22952F707D
:104D1000223028F49F7039F0811105C00BC0243077
:104D200028F49F7049F4805E883020F0C8010E940A
:104D3000C3099F2CF92C05C0F8019581907F99F744
:104D4000F9CF8F2D61960FB6F894DEBF0FBECDBFA1
:104D5000DF91CF911F910F91FF90EF90DF90CF9057
:104D6000BF90AF909F90089528E0929F800D1124EE
:104D7000682F669566956695982F977085E0689F71
:104D8000B001112440E050E080E0FB01E40FF51F8A
:104D9000E750F94F208130E0092E02C03695279563
:104DA0000A94E2F721703327042E01C0220F0A94DF
:104DB000EAF7822B4F5F5F4F4530510531F7089579
:104DC00028E0929F800D1124E82FE695E695E69560
:104DD000877051E001C0550F8A95EAF785E0E89F9A
:104DE000F0011124E750F94F20E030E070E04081FD
:104DF000CB01022E02C0969587950A94E2F7817046
:104E0000819584278523842781932F5F3F4F253009
:104E1000310569F7089560935C0270935D02809399
:104E20005E0290935F020C94D1230F931F9341E095
:104E300050E060E070E004C0440F551F661F771F0C
:104E40008A95D2F7409550956095709580915C0257
:104E500090915D02A0915E02B0915F028A019B0178
:104E6000082319232A233B23C901B8011F910F915D
:104E70000C940B2720915907809582238093590722
:104E8000982F977041F430E0482F082E000C550BF6
:104E90002417350721F490912F0292FF07C08595C2
:104EA000859585950E9415271092590708950F93AF
:104EB0001F9341E050E060E070E004C0440F551FD4
:104EC000661F771F8A95D2F780915C0290915D02F0
:104ED000A0915E02B0915F028A019B01082B192B01
:104EE0002A2B3B2BC901B8011F910F910C940B2762
:104EF000609358027093590280935A0290935B0218
:104F00000C94D12386E0E3EFF6E0DF011D928A9551
:104F1000E9F70C94D123882341F080959091F20712
:104F200089238093F2070C94A4230895882339F0F1
:104F30009091F207892B8093F2070C94A423089593
:104F4000882341F080959091B70289238093B7021E
:104F50000C94A4230895882339F09091B702892BEB
:104F60008093B7020C94A4230895882309F458C0B1
:104F7000682F823869F40E940A2981FF51C069E3D1
:104F800081EF96E00E94C4280E94A42369E30EC02A
:104F9000833891F40E940A2980FF42C063E581EFC3
:104FA00096E00E94C4280E94A42363E581EF96E066
:104FB0000E94B7280C94A423843869F40E940A291B
:104FC00082FF2EC067E481EF96E00E94C4280E9411
:104FD000A42367E4EBCF8CEF860F813A38F380E2AD
:104FE000860F883070F4677081E090E001C0880F10
:104FF0006A95EAF780959091B70289238093B7026A
:10500000D9CF8BE5860F833020F480E090E00C94BC
:10501000F428685A673120F480E090E00C94DE2890
:1050200008951F93CF93DF93182F893319F0C0E0B1
:10503000D0E002C0C0E5D0E0812F0E94AE322097C0
:1050400041F08FE99FE00197F1F700C00000219740
:10505000F6CF812FDF91CF911F910C94B527089542
:105060008091D202882319F081508093D2026091FE
:10507000CE027091CF028091D0029091D1020C9417
:105080009C318091D202833018F48F5F8093D202DA
:105090006091CE027091CF028091D0029091D102A6
:1050A0000C949C312FB7F8946091AF027091B002CC
:1050B0008091B1029091B2022FBF08952FB7F8945A
:1050C0008091AF029091B002A091B102B091B20272
:1050D0002FBF08951F920F920FB60F9211248F9336
:1050E0009F93AF93BF938091B707811113C08091B5
:1050F000AF029091B002A091B102B091B20241967C
:10510000A11DB11D8093AF029093B002A093B10294
:10511000B093B202BF91AF919F918F910F900FBE4C
:105120000F901F9018950F931F930E94663188234C
:1051300021F01F910F910C9452280E945228009147
:10514000B3071091B4072091B5073091B607600FEF
:10515000711F821F931F1F910F9108950E94663146
:1051600081110C945E280E949328CB0108959C0124
:105170002A5F3F4FFC014281461301C01282019613
:1051800082179307B9F708959C01FC0132969FEFAF
:1051900080E04191461789F09F3F19F4411101C009
:1051A000982F8F5F8630A9F79F3F39F0F901E90FFB
:1051B000F11D97FDFA956283089508952091B10736
:1051C0003091B2072817390771F09093B207809396
:1051D000B107E091AF07F091B007309721F000845C
:1051E000F185E02D099408952091AD073091AE0727
:1051F0002817390771F09093AE078093AD07E091BF
:10520000AF07F091B007309721F00680F781E02DCD
:10521000099408950E946631882351F0E091AF0708
:10522000F091B007309721F00190F081E02D0994C2
:1052300080E008958091AC079091AB07882389F0B6
:10524000992369F062E070E08DEC99E00E94881784
:10525000892B19F08091AB0708951092AB079091BC
:10526000AB0781E0892708958091AC078823F9F086
:105270000E945228DC01CB01805A9541AF4FBF4FAD
:105280008093A7079093A807A093A907B093AA07B4
:105290008091AB0781110BC062E070E08BEC99E06C
:1052A0000E948817892B19F481E08093AB078091C5
:1052B000AB070895CF93E82F2091D5063091D606FD
:1052C000255D32404091A007642F70E0C9010E9423
:1052D0007B36481B842FEE2359F066E00E94E036AF
:1052E000C82FC150B0F060E080E20E948B29F9CF56
:1052F000A901480F511D4115544018F080E020E0ED
:1053000030E0280F311D2B523D4F3093D6062093AD
:10531000D506CF910895CF93DF938A3011F481E0C1
:1053200003C08D3029F480E0DF91CF910C945A298D
:10533000C62F682F8091D5069091D60626E0FC01F5
:10534000A1EAB7E001900D922A95E1F7603E30F0B6
:1053500026E0FC0111922A95E9F70AC0F6E06F9F5A
:10536000B001112465577B4F46E050E00E948F3614
:10537000C11137C0C091D506D091D60646E050E0A5
:10538000BE0181EA97E00E941337892BC9F19E0183
:10539000255D3240A90186E0569547958A95E1F74B
:1053A00081E090E0BC0102C0660F771F4A95E2F7EA
:1053B0004091D3025091D402462B572B2B5F3F4F85
:1053C00066E0369527956A95E1F702C0880F991F28
:1053D0002A95E2F7842B952B9093D4028093D302E5
:1053E0000FC0E091D506F091D6069F012A5F3F4F8E
:1053F0002E173F0709F4BECF808180958193F8CFA7
:105400009E012F5C32404091A007642F70E0C901DB
:105410000E947B36481B463010F4240F311D2115A5
:1054200084E0380710F020E030E02B523D4F3093FD
:10543000D6062093D506DF91CF910895FF920F9362
:105440001F93CF93DF93EC01F62EFC010190002017
:10545000E9F78F0101501109C017D10728F46F2D0A
:1054600089910E948B29F8CFDF91CF911F910F91E5
:10547000FF900895FC01680F791F8FEF91E3E61705
:10548000F70771F02191822728E030E087FF03C001
:10549000880F892701C0880F21503109B9F7EFCF54
:1054A0000895882311F0FA0101C0FB010994E1E697
:1054B000F7E0118282818460828308956091CE0238
:1054C000669570E041E050E085E191E00E9406378A
:1054D000892B19F481E0809362070E94AE28909393
:1054E0005C0780935B078091630784608093630708
:1054F0000895CF92DF92EF920F931F93CF93DF9394
:10550000CDB7DEB7EC970FB6F894DEBF0FBECDBFB8
:10551000609117018091CE0280FF0AC0E7E7F4E0B6
:10552000AE014F5F5F4F8E01035C1F4FCA0114C075
:105530008091180190911901891780F7E82FF0E008
:105540009F01220F331FE20FF31FEC59F84F118216
:10555000108212828F5FF0CF249130E0D901AA0F20
:10556000BB1F2A0F3B1FD901AC59B84FCD90DD901E
:10557000EC90DA01CD92DD92ED92AD013196A0175B
:10558000B10751F720911601FC01B3E02B9FE00D0C
:10559000F11D1124539A8BB1877F9BB198602FB76F
:1055A000F894AF0133E0639F400D511D1124E417BF
:1055B000F50789F0319168E09BB9000000C037FF22
:1055C0008BB9330F000000C000C000C08BB900C011
:1055D0006A9591F7ECCF2FBF8FE594E00197F1F733
:1055E00000C00000EC960FB6F894DEBF0FBECDBF32
:1055F000DF91CF911F910F91EF90DF90CF900895A1
:10560000FF920F931F93CF93DF93EC01F12C0FEFD9
:1056100010E060911A01F616F0F4809118012F2D18
:1056200030E0280F311DC901880F991F280F391F3D
:105630002C59384F70E0C8010E94EC36962F8C81AF
:105640004091D1026091D002F99E800D11240E94F8
:10565000C531F394DECF0E94792A9A818C8190FF24
:1056600002C08F5F01C081508C83DF91CF911F9169
:105670000F91FF900895EF92FF920F931F93CF9396
:10568000DF9300D01F92CDB7DEB7182FF62E042F70
:10569000E22E8091CE0280FF56C0E82FE695F0E022
:1056A000E55EFD4F9081909361078E7F823021F5FA
:1056B0009E012F5F3F4F812F0E94C5318091CE0206
:1056C00080FF1EC02B8139814A8180911801909101
:1056D0001901891770F4E82FF0E0BF01660F771FFA
:1056E000E60FF71FEC59F84F4183308322838F5F19
:1056F000F0CF0E94792A04C0923011F41091CF02A9
:105700008091CF02181308C08091D002F81204C013
:105710008091D102081729F08091630782608093FD
:1057200063071093CF02F092D0020093D102EE20D3
:1057300051F06091CE027091CF028091D002909191
:10574000D1020E949C310F900F900F90DF91CF916A
:105750001F910F91FF90EF900895EEECF2E04381DE
:1057600021E1421B08F440E021E0628181810C9438
:105770003B2BEEECF2E0438121E1420F08F44FEFC6
:1057800021E0628181810C943B2BEEECF2E062819E
:1057900021E1621B08F460E021E0438181810C94E7
:1057A0003B2BEEECF2E0628121E1620F08F46FEF37
:1057B00021E0438181810C943B2BEEECF2E081816E
:1057C00021E04381628188500C943B2BEEECF2E0A7
:1057D000818121E043816281885F0C943B2B9C0195
:1057E0003A9521153F4130F5BC0166277270AC0136
:1057F000442754709C012227387094FF0FC090FFFB
:1058000002C080E101C080E0672B09F08062452B77
:1058100009F08064232B79F080680895892F8170C6
:10582000672B09F08260452B09F08460232B19F067
:105830008860089580E008951F93CF93DF93CDB7DC
:10584000DEB767970FB6F894DEBF0FBECDBF4B8BA8
:105850005C8B6D8B7E8B8F8B61111092F20786E0D3
:105860009E01235F3F4FD901E82F1D92EA95E9F78A
:1058700095E0FE017396D90101900D929A95E1F79A
:105880009C894E895F897B897D879E876F87598B2D
:10589000488BF901DE01179601900D928A95E1F788
:1058A000CE0107960E94132581113EC086E0FE01BD
:1058B0003796DE01119601900D928A95E1F7FF81EE
:1058C000E8856A857B856115710531F0EF3F31F41C
:1058D00081E0FF3F19F403C081E001C080E080FD5A
:1058E00023C02091270730E0C901019687709927CE
:1058F0004091580750E08417950779F1F983EA83BE
:105900007D836C8396E0929FD001939FB00D11240C
:10591000A85DB84FFE01319601900D929A95E1F77E
:10592000809327070E94F92316E0809158079091F1
:105930002707891709F1189FC0011124885D984F26
:105940000E9413258823C1F08091580790E00196AA
:105950008770992780935807E8CF1092B7020E946A
:1059600082271092270710925807E1E2F7E086E0BD
:10597000DF011D928A95E9F767960FB6F894DEBFAE
:105980000FBECDBFDF91CF911F910895DF92EF92AF
:10599000FF920F931F93CF93DF93E82FF0E0ED5822
:1059A000FE4ED490282F26952695269530E0F901B5
:1059B000ED59FE4E0491877010E0082E02C0159537
:1059C00007950A94E2F701701127F901ED5AFE4E8E
:1059D000E490F12C082E02C0F594E7940A94E2F7C3
:1059E00091E0E922FF24F901ED5BFE4EC491D0E085
:1059F00002C0D595C7958A95E2F7C170DD270115DC
:105A0000110519F081EE0E94AE32E114F10419F093
:105A100086EE0E94AE328D2D0E941128EF2819F0DB
:105A200086EE0E94B527012B19F081EE0E94B52762
:105A3000CD2B51F08CE2DF91CF911F910F91FF9010
:105A4000EF90DF900C941128DF91CF911F910F916F
:105A5000FF90EF90DF900895FF920F931F93CF93E5
:105A6000DF938C018AE0F82EF8018491882309F4F1
:105A70004CC0813009F042C0E8012196FE018491BA
:105A8000813031F42196FE0184910E94112839C0A1
:105A9000823039F4E8012296FE0184910E94AE32F0
:105AA00030C0833039F4E8012296FE0184910E94CF
:105AB000B52727C0843029F5E8012296FE012491FC
:105AC00080E090E030E0205331092A30310560F465
:105AD000F89EA001F99E500D1124C901840F951F55
