:100000000C947B090C94C2090C94C2090C945E34C4
:100010000C94C2090C94C2090C94C2090C94C20934
:100020000C94C2090C94C2090C9421250C945D24F3
:100030000C94CA270C94C2090C94C2090C94C209EE
:100040000C94C2090C94C2090C94C2090C94C20904
:100050000C94C2090C9461270C94C2090C94C20937
:100060000C94C2090C94C2090C94C2090C94C209E4
:100070000C94C2090C94C2090C94C2090C94C209D4
:100080000C94C2090C94C2090C94C2090C94C209C4
:100090000C94C2090C94C2090C94C2090C94C209B4
:1000A0000C94C2090C94C2090C94C209370A190BAA
:1000B000CB0A510A740A810A990AAE0AC00ADB0AFD
:1000C000FF0AED0ADE0CDE0C180D180D580DFF0EA0
:1000D000FF0EFF0E740D520E630E630E991D991DD7
:1000E000AC1DAC1DA21DAC1DAC1DAC1D991D991DF8
:1000F000A71DAC1DAC1DA71D78229F2235249F2271
:100100003524E7220A233524F9230C2400DA12814E
:10011000FFD9F1DB20A4A62EAF00A0C000A1C8002B
:10012000AED580A83FD300408D14200064321472F5
:100130006D65720A0A2B343920313733203234206E
:100140003138203531350A6D61696C4073746F65E3
:10015000726D65722D636F6E73756C74696E672E48
:1001600064650A7777772E73746F65726D65722D8B
:10017000636F6E73756C74696E672E64650A0A002E
:10018000726D65722D636F6E73756C74696E670A3C
:1001900044722E205065746572205374000A2D2D10
:1001A0000A0A737400726D65720A0A00650A506566
:1001B00074657220537400467265756E646C696371
:1001C000686520477200726D65720A0A00650A5000
:1001D00065746572205374005669656C65204772BA
:1001E00000726D65720A0A00650A506574657220B6
:1001F0005374006E652047720053636800650A50AF
:10020000657465720A0A006E652047720053636860
:10021000002D2D3E20000000000005001300090005
:100220001A00140002540000000007001700160016
:1002300015000400635DE10014590A00190006006E
:100240001B001D00E3002B612C41E2002900A800E7
:10025000000000000000000000000D000F0018006A
:100260001C006A5D6B5D00000000100011000800BA
:100270000C000B006C5D28022A000E0012003700F3
:100280003600695D295D2861E500E4006D5DC35CB1
:1002900000000000000000000000665D2400250052
:1002A00026000100010000000000675D1E001F0025
:1002B00020002700640001000100685D2100220089
:1002C0002300010001000100010001000100010004
:1002D000000000000000000000001F024A00520061
:1002E0004D000000655D000000003202500051002A
:1002F0004F0000006E5D010001002D02380030004B
:100300001E022D14010001004C7201000100CA5CA4
:100310000000000000000000000043004000410019
:100320004200010001000000000044003A003B00D0
:100330003C00010001000100010045003D003E00BD
:100340003F00010001000100010001000100010067
:1003500000000000000000000000010001002F006C
:100360000100010001000000000001003400081439
:1003700001000100010001000100010033002D0017
:100380000100010001000100010001000100010065
:1003900000000000000005010980A101850319018A
:1003A0002AB700150126B700950175108100C00518
:1003B0000C0901A101850419012AA002150126A03A
:1003C00002950175108100C005010906A10105070C
:1003D00019E029E7150025019508750181029501AD
:1003E000750881010507190029FF150026FF0095F2
:1003F0000675088100050819012905950575019103
:1004000002950175039101C009023B00020100A0A1
:10041000FA09040000010301010009211101000192
:100420002240000705810308000A090401000103B6
:10043000000000092111010001223200070582039A
:1004400020000A12010002000000081D8D9D9D0180
:1004500000010200010C034B007900720069006189
:100460000000001003730070006C00690074004B02
:100470000042000000040309040001020908070407
:100480000305060001020908070403050607087FA3
:100490000807003E5B4F5B3E003E6B4F6B3E001C0F
:1004A0003E7C3E1C00183C7E3C18001C577D571CAF
:1004B000001C5E7F5E1C0000183C180000FFE7C3B4
:1004C000E7FF00001824180000FFE7DBE7FF00301B
:1004D000483A060E00262979292600407F0505079F
:1004E00000407F05253F005A3CE73C5A007F3E1CF8
:1004F0001C0800081C1C3E7F0014227F2214005F91
:100500005F005F5F0006097F017F00006689956AD2
:100510000060606060600094A2FFA2940008047E06
:1005200004080010207E20100008082A1C0800087B
:100530001C2A0808001E10101010000C1E0C1E0CA7
:100540000030383E383000060E3E0E060000000037
:1005500000000000005F000000000700070000141A
:100560007F147F1400242A7F2A1200231308646258
:1005700000364956205000000807030000001C22E6
:100580004100000041221C00002A1C7F1C2A000898
:10059000083E0808000080703000000808080808BD
:1005A000000000606000002010080402003E514975
:1005B000453E0000427F4000007249494946002103
:1005C00041494D33001814127F1000274545453925
:1005D000003C4A4949310041211109070036494987
:1005E000493600464949291E000000140000000059
:1005F00040340000000008142241001414141414A4
:10060000000041221408000201590906003E415D24
:10061000594E007C1211127C007F49494936003E38
:1006200041414122007F4141413E007F49494941CA
:10063000007F09090901003E41415173007F08080C
:10064000087F0000417F4100002040413F01007FC2
:1006500008142241007F40404040007F021C027F7E
:10066000007F0408107F003E4141413E007F0909A0
:100670000906003E4151215E007F091929460026E6
:10068000494949320003017F0103003F4040403F98
:10069000001F2040201F003F4038403F00631408E7
:1006A0001463000304780403006159494D430000BA
:1006B0007F41414100020408102000004141417F78
:1006C00000040201020400404040404000000307D3
:1006D0000800002054547840007F284444380038F3
:1006E0004444442800384444287F00385454541863
:1006F0000000087E09020018A4A49C78007F08046A
:1007000004780000447D4000002040403D00007F10
:10071000102844000000417F4000007C04780478E9
:10072000007C0804047800384444443800FC182451
:1007300024180018242418FC007C0804040800482D
:10074000545454240004043F4424003C4040207C82
:10075000001C2040201C003C4030403C004428103D
:100760002844004C9090907C004464544C44000019
:100770000836410000000077000000004136080004
:10078000000201020402003C2623263C0000000077
:10079000000000404040F0F8F8FF38FFF8F83FF85C
:1007A000F8FF38FFF8F8F04040400000000000007B
:1007B00080C0C0C0800000C0C08000000080C0C0F9
:1007C00000C0C0000080C0C00000000000C0C0C069
:1007D000C0C000C0C0000000000000000000000019
:1007E0000000000000000000000000000000000009
:1007F00000000000000000000000000000000000F9
:10080000000000000000000000000000C0F0F8FC44
:100810003E1E06010000007F4141417F007F4141B3
:10082000417F000080C0E07E5B4F5BFEC00000C0E7
:1008300000DCD7DEDEDED7DC00C0000000000000F8
:1008400000000000000000000000000000000000A8
:10085000000000494949FFFFFFFFE0DFBFBF00BFC5
:10086000BFDFE0FFFFFFFF49494900000000001F14
:100870003F6060E0BF1F007F7F071E381E077F7F3D
:10088000007F7F0E1F3B716000000000007F7F0C27
:100890000C0C007E7E007F7E0303007F7E03037EC0
:1008A0007E03037F7E000F3E703C063C703E0F00CF
:1008B000327B49493F7E007F7E0303001E3F69690A
:1008C0006F2600000000000000000000030F1F3F23
:1008D0003C7870600000007F4141417F007F4141D2
:1008E000417F00307B7F7830202030787F3B0003D1
:1008F000000F7F0F0F0F7F0F0003000000000000AC
:1009000000000000000000000000000000000000E7
:10091000000000010101070F0F7F0F7F0F0F7E0FF7
:100920000F7F0F7F0F0F0701010100000000000083
:1009300000000000010100000000000000000000B5
:1009400000000000000000000000000000000000A7
:100950000000000000000000000000000000000097
:100960000000000000000000000000000000000087
:100970000000000000000000000000000000000077
:100980000000000000000000000000000000000067
:100990000000000000000000000000000000000057
:1009A0000000000000000000000000000000000047
:1009B0000000000000000000000000000000000037
:1009C0000000000000000000000000000000AF0078
:1009D000AE00007E7E183C6642000C1C70701C0C41
:1009E00000747414147C68007C7C0070782C247C67
:1009F0007C0000000000000000000000000000007B
:100A000000000000000000000000008040402020A6
:100A10002020101010101008080404040830408032
:100A200000000000000000000000000000000000C6
:100A300000000000000000000000000000000000B6
:100A400000000000000000000000000000008080A6
:100A50008000000000C06030180C84C6622333118F
:100A60009171F1719111332362C6840C183060C00A
:100A70000000000000000000000000000000000076
:100A800000001864820202020202010000000080DD
:100A9000800000000000000000008000303000C036
:100AA000C1C1C20408102040800000008080808006
:100AB0004040404020202020101010100808080856
:100AC00008C404C404C402C202C20101010100003E
:100AD000000000FC0F0100F80E1F6D8C9494A4A67A
:100AE000F9E0FFE0F9A6A494948C6D1F0EF80001C4
:100AF0000FFC0000000000000000000000000000EB
:100B000000C0380403000000000000000C0C0C0DB5
:100B1000010040A02122121111110908080808043F
:100B20000408081010101010110F0101000000003F
:100B30000000000000000000000000000000AAAA61
:100B4000FFFFC3BF7F037FBFC3FFFFAAAA00000050
:100B50000000001F78C0000F387CDB98141412329C
:100B6000CF03FF03CF3212141498DB7C380F00C080
:100B7000781F101010100808080808040404040462
:100B8000020302020101010101010202040408083A
:100B90000808080700000000000000000000000036
:100BA0000000000000000000000000000000000045
:100BB00000000000000000000000000000000282B1
:100BC000871F079F071C079F079F070282000000DF
:100BD0000020101010110B0E0C1810312362664407
:100BE0004447474744446662233110180C0603010A
:100BF00000000000000000000000000000000000F5
:100C000000000000000000000000000000000000E4
:100C100000000000000000000000000000000000D4
:100C200000000000000000000000000000000000C4
:100C300000000000000000000000000000000708A5
:100C40000817000F0102010F000F02050800007EC7
:100C50007E183C6642000C1C70701C0C00747414EE
:100C6000147C68007C7C0070782C247C7C00000064
:100C70000000000000000000000000000000000074
:100C800080800000000000804040202020201010C4
:100C900010100804020101020C3040800000000026
:100CA000000000F8F8F8F800000000008080000064
:100CB0000000000000000000000000000000000034
:100CC00000000000000000000000808080000000A4
:100CD00000C06030180C84C6622333119171F17129
:100CE0009111332362C6840C183060C000000000EC
:100CF00000000000000000000000000000001EE1F5
:100D0000000001010202818080000080800000005C
:100D100000000000000080003030000001010204EB
:100D20000810204387070100B8BCBE9F5F5F4F4C8F
:100D300020202020101010100808080808C404C43F
:100D400004C402C202C2010101010000000000FC53
:100D50000F0100F80E1F6D8C9494A4A6F9E0FFE03B
:100D6000F9A6A494948C6D1F0EF800010FFC0000EE
:100D70000000000000000000000000000080700C77
:100D8000030000180605989984437C4141404020A7
:100D9000212212111111090808080804040808107A
:100DA00010101010110F013D7CFCFCFCFCFC3C0CF5
:100DB00000000000000000000000AAAAFFFFC3BF5F
:100DC0007F037FBFC3FFFFAAAA0000000000001F2F
:100DD00078C0000F387CDB9814141232CF03FF0365
:100DE000CF3212141498DB7C380F00C0783F1010FB
:100DF000101008080808080404040404020302028E
:100E000001010101010100000000000000000000DC
:100E100000000000000000000000000000000000D2
:100E200000000000000000000000010303000000BB
:100E3000000000000000000000000282871F079FE2
:100E4000071C079F079F0702820000000020101068
:100E500010110B0E0C1810312362664444474747AB
:100E600044446662233110180C06030100000000A0
:100E70000000000000000000000000000000000072
:100E80000000000000000000000000000000000062
:100E90000000000000000000000000000000000052
:100EA0000000000000000000000000000000000042
:100EB0000000000000000000000007080817000FF5
:100EC0000102010F000F02050800007E7E183C663B
:100ED00042000C1C70701C0C00747414147C6800AC
:100EE0007C7C0070782C247C7C00000000000000DA
:100EF00000000000000000000000000080800000F2
:100F00000000008040402020202010101010080415
:100F1000020101020C3040800000000000000000CF
:100F200000000000000000000000000000000000C1
:100F300000000000000000000000000000000000B1
:100F400000000000000080808000000000C06030D1
:100F5000180C84C6622333119171F17191113323FE
:100F600062C6840C183060C0000000000000000061
:100F7000000000000000000000001EE10000010170
:100F8000020201000000008080000000000000005C
:100F9000000080003030000001E11A0609313501FF
:100FA0008A7C0000808080804040404020202020BB
:100FB000101010100808080808C404C404C402C2B1
:100FC00002C2010101010000000000FC0F0100F855
:100FD0000E1F6D8C9494A4A6F9E0FFE0F9A6A494EA
:100FE000948C6D1F0EF800010FFC00000000000043
:100FF00000000000000000000080700C03000000F2
:101000000000000000000001010040A02122121198
:101010001111090808080804040404040402020267
:1010200001010101000000000000000000000000BC
:10103000000000000000AAAAFFFFC3BF7F037FBF1C
:10104000C3FFFFAAAA0000000000001F78C0000F25
:10105000387CDB9814141232CF03FF03CF32121402
:101060001498DB7C380F00C0781F1010101008088F
:10107000080808040404040402037A7A7979797967
:1010800039310202040408080888888780000000BB
:101090000000000000000000000000000000000050
:1010A0000000000000000000000000000000000040
:1010B0000000000000000282871F079F071C079F97
:1010C000079F0702820000000020101010110B0E75
:1010D0000C18103123626644444747474444666213
:1010E000233110180C06030100000000000000006E
:1010F0000000000000000000000000000000307848
:101100007CFEFF3F0700000000FFFF7F7F3F3E1C8B
:1011100018000000000000000000000000000000B7
:1011200000000000000000000000000000000000BF
:1011300000000000000007080817000F0102010F5F
:10114000000F020508000000000000000000000081
:10115000000000000000000000000000000100008E
:10116000380000007800000000F68700ECFEFFFF6A
:10117000870100000000000000000000002A2B286A
:10118000000000000000000000000000000000005F
:1011900029000000002C1E1F322122233225263078
:1011A0003036383724271E1F2021222324252637B6
:1011B000366427642D140405060708090A0B0C0D74
:1011C0000E0F101112131415161718191A1B1D1CC7
:1011D000252D2635382E0405060708090A0B0C0DA7
:1011E0000E0F101112131415161718191A1B1D1CA7
:1011F000246427304C0001010101010101010102B9
:1012000002020202020202020303030303030303B6
:101210000404040404040405050505050606060681
:1012200006070707070708080808090909090A0A3D
:101230000A0B0B0B0C0C0C0D0D0D0E0E0E0F0F0FE1
:10124000101011111112121313141415151616176C
:1012500017181819191A1A1B1B1C1D1D1E1E1F20DA
:1012600020212222232424252626272829292A2B27
:101270002C2D2D2E2F30313232333435363738394C
:101280003A3B3C3D3E3F4041424344454647484946
:101290004A4C4D4E4F50515354555658595A5B5D18
:1012A0005E5F616264656668696B6C6D6F707273B6
:1012B0007577787A7B7D7E8082838587888A8C8E1D
:1012C0008F91939596989A9C9EA0A2A3A5A7A9AB4F
:1012D000ADAFB1B3B5B7BABCBEC0C2C4C6C9CBCD41
:1012E000CFD1D4D6D8DBDDDFE2E4E7E9EBEEF0F3F3
:1012F000F5F8FAFDFF0011241FBECFEFDAE0DEBFE4
:10130000CDBF04B603FE27C08091FB079091FC0778
:10131000A091FD07B091FE078730904BA740B04BDE
:10132000D1F41092FB071092FC071092FD07109267
:10133000FE0714BE84B7877F84BF0FB6F894A895C4
:1013400080916000886180936000109260000FBE01
:10135000E0E0F8E3099512E0A0E0B1E0EAE1FDE6A3
:1013600002C005900D92A632B107D9F727E0A6E298
:10137000B2E001C01D92AB3FB207E1F70E94500FEF
:101380000C948B360C9400008F929F92AF92BF9278
:10139000CF92DF92EF92FF920F931F93CF93DF9341
:1013A000CDB7DEB72A970FB6F894DEBF0FBECDBF1C
:1013B000FC01D080118183819481892B39F01F3FFA
:1013C00039F491E00FEFD01203C003C091E001C0E7
:1013D00090E090FD52C57F0185E0DE0116960190F8
:1013E0000D928A95E1F7D70112962C918E819F81FB
:1013F000222349F00E940C1D082F682F8E819F81A7
:101400000E947D1F03C00E94511F082FE12FF0E0B2
:10141000B8E00B9FE00DF11D112473E0EE0FFF1FEC
:101420007A95E1F7ED0DF11DEE0FFF1FEA5EFD4F1E
:10143000059114916801F7018281882351F00E947F
:10144000B227609328027093290280932A02909316
:101450002B02F801E356FD45D70112968C91EC3032
:10146000F10508F0E6C0EA5AFF4F0C946236882373
:1014700089F080912E0385FD05C086EE0E94103212
:1014800084E119C085EE0E94522086EE0E9410323F
:1014900084E61CC084E10E94522084E60E9452200F
:1014A00015C28823E1F080912E0385FD08C086EEE9
:1014B0000E94103284E20E94103286EEEFCF85EE59
:1014C0000E94522086EE0E94103287E20E94103263
:1014D00086EE0E94522085EE0E941032F7C184E20F
:1014E0000E94522087E2DACF882369F080912E0390
:1014F00085FD05C085EE0E94103285E28AC086E235
:10150000EBCF811105C085E20E94522086E2C6CF52
:1015100080912E0385FD05C086EE0E94103285E283
:10152000CACF85EE0E94522086EE0E94103286E2DB
:10153000CDCF882389F080912E0385FD05C085EEEF
:101540000E94103284E265C085EE0E94522086EE31
:101550000E94103280E3BACF84E23BC0882359F066
:1015600080912E0385FD05C085EE0E94103283E236
:1015700050C082E2B1CF83E20E94522082E28ECF3D
:101580008823A1F080912E0385FD0BC085E30E9486
:10159000AE2085E3A1CF882361F080912E0385FDE5
:1015A00095C18EE20E94AE208EE296CF85E30E9426
:1015B00052208EE273CF882359F080912E0385FD4F
:1015C00005C085EE0E94103287E223C080E384CFFD
:1015D00087E20E94522080E361CF882359F08091F6
:1015E0002E0385FD05C085EE0E94103281E211C0F8
:1015F00080E272CF81E20E94522080E24FCF8823A6
:1016000099F080912E0385FD08C085EE0E9410326E
:1016100088E30E94103285EE41CF85EE0E94522071
:1016200082E30E94103257CF88E30E94522082E367
:1016300035CF882309F43FC08091BE02882329F169
:10164000C80190568115B0E29B0720F0905E81158D
:10165000904110F46801DD248091BD02853060F472
:10166000E82FF0E0EE0FFF1FEF54FD4FD182C08254
:101670008F5F8093BD0202C01092BE020E94BE27FF
:101680009093BC028093BB0221C10932FDE51F0784
:1016900091F481E08093BE020E94BE279093BC0229
:1016A0008093BB021092BD028AE0E1EBF2E0DF0121
:1016B0001D928A95E9F7D70112968C918111ADC0E0
:1016C00080912E0382720B3CBCE51B0709F494C089
:1016D00030F5063CFCE51F0709F47AC058F4043CD9
:1016E0003CE5130709F46AC008F06DC0033C1C45D3
:1016F000D9F10CC1083CBCE51B0709F473C008F420
:101700006CC0093CFCE51F0709F471C00A3C1C458C
:1017100009F0FCC049EA50E365EB70E376C0013D97
:101720003CE5130788F40F3C9CE5190708F0CEC090
:101730000D3CACE51A0709F464C008F069C04AE53D
:1017400056E26BE676E261C0073DECE51E0738F431
:10175000023D1C4508F0BAC00E942E21B7C00E35CC
:101760001D4509F4B3C0D2C08091450380FF20C05D
:101770008E7F80934503609145037091460380916D
:101780004703909148030E94FE300E94B729809140
:1017900057078160809357073FEF80E792E0315011
:1017A00080409040E1F700C000000E94D9298EC01F
:1017B00081608093450361E086952CC04DEF51E335
:1017C00066E072E322C046E052E36DEF71E31DC0B4
:1017D00049ED50E362EE70E318C042EE50E369ED6C
:1017E00070E313C041EC50E36DEC70E30EC04DECC0
:1017F00050E361EC70E309C045EB50E369EA70E344
:1018000004C04BE656E26AE576E20E94B1295EC06A
:1018100061E081E00E94BD3159C00B35ADE51A078A
:1018200009F44EC058F40115ECE51E07C1F00F3D58
:101830001C4509F06BC00E94C61B48C00C352DE545
:10184000120709F43FC00D351D4509F05FC08091B6
:101850002D0282FB882780F991E0892734C01092FD
:101860002E030E941F208FEF94E3ACE08150904044
:10187000A040E1F700C0000081E08093E00080E23A
:101880008093D8001092C900EFE1FEE43197F1F7A0
:1018900000C0000087E090EBDC018093FB07909391
:1018A000FC07A093FD07B093FE079CE088E10FB60C
:1018B000F894A895809360000FBE90936000FFCFCE
:1018C00081E001C080E00E947C1C20C080912B033D
:1018D000877009F4D2C2D70112968C91882309F43B
:1018E000CCC282E02A960FB6F894DEBF0FBECDBF01
:1018F000DF91CF911F910F91FF90EF90DF90CF90EC
:10190000BF90AF909F908F900C94D71FF70182816A
:1019100000811181882349F0C8010E940C1DD82E36
:10192000682FC8010E947D1F04C0C8010E94511F7A
:10193000D82EE12FF0E0B8E0DB9EE00DF11D112480
:1019400033E0EE0FFF1F3A95E1F7E00FF11DEE0FC8
:10195000FF1FEA5EFD4F859194910E9449158C010D
:10196000982EF701C280B580B2945FE0B5228091D5
:101970002B03877099F0CC2089F0812F807F8034F1
:1019800021F080E2800F883048F082E00E94D71F6B
:1019900080912B038770DD24D3948111D12CA12E4B
:1019A000A2942FE0A2228A2D90E08C30910508F0BD
:1019B00026C2FC01EE59FF4F0C946236812F807FC6
:1019C0001F70882311F01295107FCC20B9F01123DD
:1019D00009F400C280E2800F883010F0911006C038
:1019E00080912E03182B10932E0305C08091ED07D4
:1019F000182B1093ED070E94411CECC1802F0E9410
:101A00005220112309F4FBC1005E1095083010F03C
:101A1000911006C080912E03182310932E0305C049
:101A20008091ED0718231093ED070E94411CE7C138
:101A3000812F807F1F70803211F01295107F802FD0
:101A4000992021F0F1E09F16C9F027C0CC2069F061
:101A500080915A02B11002C0812B17C001E0812B86
:101A6000B01213C00E94371CCAC1BB2021F021E074
:101A7000B21609F4C4C10E94311C16C0CC2041F03A
:101A800035E03B1508F4BBC1812F0E944820B7C147
:101A900084E08B1508F4B3C107C0CC2019F0BB203B
:101AA00099F398C1B1109DC1812F0E943D20A7C11B
:101AB000812F86958695837019F0813059F09FC1EA
:101AC000CC2019F0C801937002C080E090E00E9421
:101AD00054289BC1CC2019F0C801937002C080E04B
:101AE00090E00E943E2891C1812F837009F069C067
:101AF000C11089C1902F929596959770990F990F63
:101B0000802F8F70882E912CA12CB12C092E04C00F
:101B1000880C991CAA1CBB1C0A94D2F704FF12C0A3
:101B20004FE050E060E070E004C0440F551F661FB6
:101B3000771F9A95D2F7DB01CA0180959095A09501
:101B4000B09503C080E090E0DC0116951695412F1A
:101B50004370423019F1C8F40091520210915302BF
:101B60002091540230915502413059F08829992929
:101B7000AA29BB29BC01CD016023712382239323B1
:101B80000AC0802A912AA22AB32ABC01CD01682961
:101B900079298A299B290E94152035C188299929EC
:101BA000AA29BB290091520210915302209154029C
:101BB00030915502BC01CD01602771278227932700
:101BC000EACFCC2019F0812F817001C0869588233F
:101BD00009F419C1902F929596959770990F990FC6
:101BE000802F8F70882E912CA12CB12C092E04C02F
:101BF000880C991CAA1CBB1C0A94D2F704FF12C0C3
:101C00004FE050E060E070E004C0440F551F661FD5
:101C1000771F9A95D2F7DB01CA0180959095A09520
:101C2000B09503C080E090E0DC0116951695412F39
:101C300043704230D9F068F5009156021091570276
:101C40002091580230915902413059F08829992940
:101C5000AA29BB29BC01CD016023712382239323D0
:101C60001EC0802A912AA22AB32A13C08829992942
:101C7000AA29BB29009156021091570220915802BF
:101C800030915902BC01CD0160277127822793272B
:101C900006C0BC01CD01682979298A299B290E94A7
:101CA000A81FB1C01F70CC2039F0812F0E94F41FF3
:101CB000802F0E944820A7C0802F0E943D20812FA6
:101CC0000E94B21FA0C0802FE2EF9E1609F440C010
:101CD000E91538F0F0EF9F1661F021EF921699F1B7
:101CE00074C033EF9316D9F194EF991609F44EC0EE
:101CF0006CC0CC2019F1A4E0AB1508F480C01F71B2
:101D000081E090E0A0E0B0E0AC01BD0104C0440F70
:101D1000551F661F771F1A95D2F780915602909132
:101D20005702A0915802B09159028A019B010827DD
:101D300019272A273B27C901B80125C025E02B1503
:101D400008F45DC0DCCFCC2029F0812F8F7130C02A
:101D5000CC20D9F3812F8F710E94B21F50C0CC20AC
:101D600079F01F7181E090E0A0E0B0E0BC01CD010E
:101D700004C0660F771F881F991F1A95D2F703C0FA
:101D800060E070E0CB010E94A81F39C0CC2099F020
:101D90001F71812F0E94F41F80912D0282FD07C0C8
:101DA00038E0139FC0011124836080932B03812F9F
:101DB0000E94F41F24C081E00E94D71F81E08B1590
:101DC000F0F482E00E94D71F1AC0CC2039F0BB206B
:101DD00009F4BBCF802F0E94103211C0BB2009F440
:101DE000B9CF893349F49FEFA7EEB3E09150A040FB
:101DF000B040E1F700C00000802F0E94522088EF21
:101E00008A0D843010F40E946A28DD20A9F08091A8
:101E10002B0380FD11C0F70112828595859585956C
:101E20000E94F41FC7010E94C40980912B0385956D
:101E3000859585950E94B21F85E0F701DE01119618
:101E400001900D928A95E1F789819A810E94511F34
:101E5000EA81F0E008E0809FE00DF11D112483E0AD
:101E6000EE0FFF1F8A95E1F78981E80FF11DEE0F54
:101E7000FF1FEA5EFD4F859194912A960FB6F89464
:101E8000DEBF0FBECDBFDF91CF911F910F91FF90AD
:101E9000EF90DF90CF90BF90AF909F908F9008957C
:101EA000CF93DF93CDB7DEB72C970FB6F894DEBF94
:101EB0000FBECDBF84B7877F84BF0FB6F894A895B7
:101EC00080916000886180936000109260000FBE76
:101ED00090E080E80FB6F8948093610090936100E1
:101EE0000FBE85B7806885BF85B7806885BF8DEEDA
:101EF00094E190932702809326020E94A1240E94DD
:101F0000C0248091E20084608093E2007894809104
:101F10003B038823A1F01091E9001F709091EC0021
:101F2000892F817090FD80E8182B1092E900809134
:101F3000E80083FD0E9492211F701093E90082E067
:101F400084BD93E095BD9AEF97BD80936E0010928B
:101F5000A6071092A7071092A8071092A9070E943F
:101F600086308093000180910001882321F0109237
:101F700016018AE003C08AE080931601809317015E
:101F80000E94863081110E94183480910001809156
:101F90000001811102C094E001C090E090933702EB
:101FA00084E0891B809336020FE911E0F3EAEF2EFB
:101FB000F1E0FF2ED8018D918D018F3F11F00E942D
:101FC0003215E016F106B1F707EA11E0EFEAEE2E5E
:101FD000E1E0FE2EF80181918F018F3F11F00E9408
:101FE0003215E016F106B1F7EEE2F2E086E392E098
:101FF000AAE3B2E011921D928E179F07D9F780E0F5
:1020000090E00E940836893E9E4F11F00E94C61B48
:1020100082E090E00E94FA358093A00284E090E094
:102020000E94FA35182F82E290E00E94FA35212FA3
:1020300030E0382B30932D0220932C0283E090E087
:102040000E94FA35682F70E080E090E00E94152031
:102050000E948630811102C00E941B3482E080936E
:102060009B0280E880934A030E94AC326DE070E0EE
:102070008FE191E00E943D21892B09F043C08091BE
:102080009B0263E070E081FD3AC08CE191E00E9428
:102090003D21892BB9F56DE070E08CE091E00E9464
:1020A0003D21892B79F50E94B227DC01CB01805AB2
:1020B0009541AF4FBF4F80939A0790939B07A09392
:1020C0009C07B0939D07EDE4F3E080E094E0DF012E
:1020D0009C011D9221503040E1F7F0934E07E093B0
:1020E0004D078FEF9FEF90934C0380934B0381E05C
:1020F00080939F0780939E0710929C0203C089E102
:1021000091E0C5CF8091380281113BC080E090E022
:102110000E940836893E9E4F21F00E94C61B0E94F5
:10212000103188E090E00E9402366093450370937E
:102130004603809347039093480380915707836039
:10214000809357076E7F71F40E94103188E090E011
:102150000E940236609345037093460380934703C1
:10216000909348030E94EB300E94B7298091450369
:1021700080FF04C060E086950E94BD3181E08093BD
:10218000380280910001811106C085E380930C0123
:1021900086E680930B0120910C01E22FE295EF700F
:1021A000F0E031A12F7081E090E0AC01022E01C07F
:1021B000440F0A94EAF7542F5095352331A332A1E6
:1021C000432B42A340910B01A42FA295AF70B0E026
:1021D00091963C9191974F70042E01C0880F0A94FC
:1021E000EAF7982F9095932391969C9391979296C6
:1021F0009C919297892B92968C93929780A190E0D4
:1022000002C0959587952A95E2F7817090962C915A
:1022100030E002C0359527954A95E2F720FD02C0CF
:1022200090E001C092E0892B8093490290910001D7
:1022300081E0982790934802891B8093390280910E
:10224000450381608093450360E086950E94BD311F
:1022500060E082E00E94BD310E9406320E94063298
:102260000E94063281E091E09093A3078093A20739
:1022700060E4C62E22242394312C80913B038530C8
:1022800009F046C000E112E180913B03853009F07E
:1022900039C080913B03843019F11092AA0788E17C
:1022A00090E00FB6F894A895809360000FBEC0929E
:1022B000600083B7817F846083BF83B7816083BF01
:1022C0007894889583B78E7F83BF0FB6F894A895CE
:1022D00080916000886180936000109260000FBE62
:1022E00080913A03882309F4CFCF0E94D416EAE301
:1022F000F2E08191811159C3A2E4B2E0AE17BF07A9
:10230000C1F7C2CF10922E030E941F200E946A289C
:102310000E94D416B82E81110E94B227E1EAF2E0A1
:10232000AAE3B2E000E010E0A02EDD9081918D25BF
:1023300049F1E12CFF24F3949F2D9823F1F00E94A2
:102340008630882399F0E982AA82DF2081E009F4AF
:1023500080E08B830E94BE278160782F9D838C83D1
:1023600049815A816B818D810E943A2BF801EF558A
:10237000FD4F8081F826F0821AC0E394FF0C28E01C
:10238000E212DACF0F5F1F4F0830110569F68FEFA9
:102390008E838F8318860E94BE278160782F9A874C
:1023A00089874E815F8168858A850E943A2B80915A
:1023B0005607882309F46BC080915507E0914503C7
:1023C000E695E81BE0935107823061F4E695F0E072
:1023D000E45DFE4FE4910E2F10E050E6E52E5AE248
:1023E000F52E06C000ED17E046EFE42E45E2F42E90
:1023F00080915207882361F0109252070E940E28A4
:102400009093500780934F071092540710925307F0
:102410000E940E28E0914F07F09150079C012E1B5F
:102420003F0B2F3F3F4798F5209144022223B1F004
:10243000109244022091420230914302821B930B7E
:102440008F3F9F4758F4205D3A48309343022093D2
:102450004202809157078860809357078090530706
:10246000909054070E0F1F1F1093500700934F07B3
:102470008FE497E0F70109958091530790915407F5
:10248000892B29F4892819F081E080934402E09196
:1024900049025E2F550F550F20910C01E22FE29556
:1024A000EF70F0E080A190E02F7002C095958795C5
:1024B0002A95E2F78170992740910B01E42FE2956C
:1024C000EF70F0E020A130E04F7002C03595279505
:1024D0004A95E2F7F901E170FF2720FF02C0E2E030
:1024E000F0E0E82BF92BE52BE0934902109148022C
:1024F000EF70F0E0E155FE4F908180914702890F27
:1025000080934702843074F0E12FF0E0EB5BFD4FE5
:1025100080818F5F808360E0812F0E940E2DDD24FB
:10252000D39401C0D12C809147028D3F6CF4E12FF0
:10253000F0E0EB5BFD4F80818150808361E0812F73
:102540000E940E2DDD24D39480914702082E000CAA
:10255000990B64E070E00E944E3680934702D110E0
:102560000E94D21680919F07882309F40DC28091A2
:102570009D0290919E020E94A327C29708F403C176
:102580000E94BE2790939E0280939D0280E00E944D
:102590001C210E948630882309F457C00E94C92C50
:1025A000882331F160914E0270914F028091500268
:1025B000909151020E948727693C71058105910520
:1025C00060F00E94B22760934E0270934F02809396
:1025D0005002909351020E94DC2C0E94B22760931B
:1025E0004A0270934B0280934C0290934D02CBC0F1
:1025F00060914A0270914B0280914C0290914D0281
:102600000E94872761367A4E8105910508F0BBC08C
:1026100060914E0270914F02809150029091510250
:102620000E948727693C71058105910508F4ABC0BC
:102630000E94B22760934E0270934F028093500223
:10264000909351020E94DC2C9EC040915602509102
:1026500057026091580270915902809152029091F4
:102660005302A0915402B0915502842B952BA62BB6
:10267000B72BAD0166277727411551056105710517
:1026800021F0DB01CA0110E101C010E0492F5A2FEF
:102690006B2F7727411551056105710519F0185FFA
:1026A000DB01CA01AC01BD0104E076956795579541
:1026B00047950A95D1F7411551056105710519F046
:1026C0001C5FDB01CA01AC01BD01F2E076956795A4
:1026D00057954795FA95D1F7411551056105710553
:1026E00019F01E5FDB01CA01B695A79597958795EE
:1026F000892B8A2B8B2B09F01F5F82E00E941C2103
:1027000060E08FE791E00E947E29133038F429E0E1
:10271000129FC001112481549E4F02C087E891E0AE
:102720000E94082D85E891E00E94082D10915A0220
:1027300080912E03182B60E081E991E00E947E29B0
:10274000812F827261E009F460E087E991E00E94E4
:102750007E2961E0812F817109F460E089E991E0CF
:102760000E947E2961E0812F847409F460E08BE986
:1027700091E00E947E29187861E009F460E08DE91B
:1027800091E00E947E2980919F07882309F4E1C08F
:1027900020914B0330914C032115310509F4D9C028
:1027A00080919C028111D5C0482E512C7101082EB8
:1027B00002C0EE0CFF1C0A94E2F7A9014E215F2132
:1027C000452B11F48F5FF0CF90919B02920176E040
:1027D000220F331F7A95E1F790FD13C08295880F81
:1027E000880F807480930F01220F232F221F330B39
:1027F000319520931201815C809310011092130196
:1028000012C056E0369527955A95E1F7220F220F10
:10281000220F20930F0110921201295F20931001C3
:1028200087E08093130124E630E047E050E06DE05C
:1028300071E088E70E946333892B09F08AC0809198
:102840009B0280FD23C0C20146E0880F991F4A9574
:10285000E1F7AC01435B5C4F04E610E020E430E0BC
:1028600060E488E70E948A33892B09F072C00E94D5
:102870009428E094F09480914B0390914C03E822CB
:10288000F922F0924C03E0924B0363C0EBE5F2E0D7
:10289000DF012C2D1D922A95E9F736E0440C551CDA
:1028A0003A95E1F782EE91E09C878B874AED51E003
:1028B000AB85BC858D91BC87AB87FA019191AF0147
:1028C0008201090F111D035B1C4F90E0855A9D4F3B
:1028D000FC0127E0922E9F01281B390B722C01C0AE
:1028E000770C2A95EAF7B801812CDB01AD90BD0188
:1028F000A720292D28192770622E022E000C330BD9
:10290000BA2D01C0BB0F6A94EAF76B2E3195219561
:1029100031092770332701C0A6942A95EAF76A285F
:10292000A0806A286082839428E08212DECF9A9485
:1029300031963FEF9312CFCF8B859C858A5E914075
:1029400009F0B6CF04E610E020E430E04BE552E0B9
:1029500087CF80919E078823B9F00E94B22700910B
:102960009A0710919B0720919C0730919D07DC01ED
:10297000CB01801B910BA20BB30B8F3F9F4FAF4F2F
:10298000BF4710F40E947A28B11001C0D1100E94F4
:1029900094280E946A2890919F02891709F46DCCAF
:1029A0000E946A2880939F0268CC09BD19BD09B4B2
:1029B00000FEFDCF8091D8008F7D8093D80080915C
:1029C000E00082608093E0008091E00081FDFCCF18
:1029D00010922E030E941F2057CC80E00895909102
:1029E0002C0292FF0DC0282F2871283019F4877F00
:1029F000846006C0282F2471243011F48B7F8860F6
:102A000093FF0DC0282F2871283119F4877E846127
:102A100006C0282F2471243111F48B7E8861209107
:102A20002D0220FF0DC0382F3871383019F4877F00
:102A3000816006C0382F3171313011F48E7F88608B
:102A400021FF0DC0282F2871283119F4877E81615C
:102A500006C0282F2171213111F48E7E886194FDEA
:102A6000877E0895F894E82FE295EF70F0E031A1A9
:102A7000282F2F7081E090E001C0880F2A95EAF797
:102A8000982F9095932391A392A1892B82A3789458
:102A90000895CF93DF938238910569F1B0F48133C3
:102AA000910509F46FC048F48932910509F465C0B5
:102AB0008A32910509F46BC08AC08533910509F407
:102AC00057C089339105B9F082C0833E910571F1F9
:102AD00038F4803E9105B1F0823E910511F177C046
:102AE000863E9105B9F1873E9105C9F1843E910575
:102AF00009F06DC024C020912C0220FD53C021FD9F
:102B000051C065C080912C0280FD46C080912D028D
:102B100080FF48C080912C0284FD3FC183EE90E08D
:102B20003EC180912C0282FF3AC0F4CF80912C02EA
:102B300082FD35C080912D0280FD34C0EBCF8091A5
:102B40002D0281FF35C080912C0284FD26C187EEC5
:102B500090E025C180912C0283FF27C0F4CF8091A3
:102B60002C0283FD22C080912D0281FD21C0EBCF7C
:102B700080912C0285FD1FC021C080912C0285FD13
:102B80001DC019C080912C0286FD1BC01DC0809104
:102B90002C0286FD19C015C089E390E000C182EEC9
:102BA00090E0FDC080EE90E0FAC086EE90E0F7C0C5
:102BB00084EE90E0F4C089E290E0F1C085E390E01B
:102BC000EEC08AE290E0EBC081E390E0E8C08115BE
:102BD00032E5930708F069C0811541E5940728F0B4
:102BE000982F8827816F906ADAC0883E910568F532
:102BF000803E910508F0D3C0883A9105B8F4853A33
:102C0000910548F0855AE82FF0E0E651FE4F8081AB
:102C100090E09064C4C08130910509F4BBC008F411
:102C2000BCC08430910508F4B8C0B9C08F3B910591
:102C300008F0B3C0885AE82FF0E0EE0FFF1FE35111
:102C4000FE4F808191819464AAC0811520E592078E
:102C5000F0F09C0174E0369527957A95E1F7922F74
:102C60009370482F437021E030E002C0220F331FE1
:102C70004A95E2F73C68392B8F70982F9695969578
:102C800040E2949FC0011124822B932B88C08115B0
:102C900030E4930718F09F70906A81C09C013A95C8
:102CA00021153F4108F47BC078C0EC01C11586E5D1
:102CB000D807E8F5C11525E5D20748F08C2F0E940A
:102CC000EF148F7190E0982F8827906268C0C1152B
:102CD00034E5D30728F09C2F8827846F906A5FC063
:102CE000AE01437055272C2F26952695C115D34547
:102CF00078F481E090E002C0880F991F4A95E2F7CE
:102D000040E2249F90011124822B932B9C6847C0A2
:102D100081E090E002C0880F991F4A95E2F740E2F7
:102D2000249F90011124822B932B9A6838C0C115DF
:102D30002AE5D207F8F4C11539E5D30790F08C2FB6
:102D40008F700E94EF1494E0D695C7959A95E1F79D
:102D5000CF70D0E0DC2FCC27D0699E01282BC90191
:102D60001EC0C11548E5D407C0F09C2F8827806F8E
:102D7000906A15C0CE0190568115904270F48D2F47
:102D80008F710E94EF14282F2F71CE019927906226
:102D9000922B05C081E090E002C080E090E0DF91DE
:102DA000CF9108950C94B2279F92AF92BF92CF9289
:102DB000DF92EF92FF920F931F93CF93DF93CDB7E4
:102DC000DEB72C970FB6F894DEBF0FBECDBF9E01C5
:102DD0002F5F3F4F790188E0F90111928A95E9F759
:102DE0000FE911E05901CC24C394D12CF801808162
:102DF0008F3F09F447C0F894E82FE295EF70F0E0B8
:102E000021A18F70A60102C0440F551F8A95E2F7D9
:102E1000CA01922F982B91A392A18095892382A316
:102E2000789400C0E7EAF1E020E030E0912C419195
:102E30004F3FB1F0A42FA295AF70B0E090968C9167
:102E400090E04F7002C0959587954A95E2F780FD16
:102E500007C08C2D022E01C0880F0A94EAF701C02A
:102E600080E0982A2F5F3F4F2830310501F7F801A5
:102E700080818F3F11F00E943215F0EAFA95F1F748
:102E8000F50190820F5F1F4FFFEFAF1ABF0A21E0DD
:102E9000033A120709F0AACF48E050E0B7018EE2EA
:102EA00092E00E9475368C01892B41F088E0F70191
:102EB000AEE2B2E001900D928A95E1F7F090370210
:102EC0000115110549F081E08093AB020E94BE27F5
:102ED0009093AA028093A9028091AB028823B1F05B
:102EE0008091A9029091AA020E94A327059770F0F1
:102EF000AEE2B2E0EF2DF0E0E65CFD4F8D91819304
:102F000032E0A233B307D1F71092AB0201151105DD
:102F100009F011C40E948630E0913702882309F439
:102F200026C319861A861B861C860E2F10E0065CA7
:102F30001D4F8091FA07AE01435F5F4F7A018A30DF
:102F400060F442E050E3BE01675F7F4FC8010E941A
:102F50004530882309F447C00AC08091AC029091A3
:102F6000AD020E94A327843F914058F74EC04CEA1F
:102F70005FE2BE01675F7F4FC8010E944530882332
:102F800091F14CE15EE2BE01675F7F4FC8010E9494
:102F90004530882341F14FEF5EE2BE01675F7F4F0E
:102FA000C8010E9445308823F1F04FEB5DE2BE017D
:102FB000675F7F4FC8010E9445308823A1F044EC31
:102FC0005EE2BE01675F7F4FC8010E9445308823E3
:102FD00051F041EA5EE2BE01675F7F4FC8010E9487
:102FE00045308111ABC38091FA078F3F19F08F5F95
:102FF0008093FA078091FA078A3008F4A1C30E94EF
:10300000BE279093AD028093AC02E0913602F0E0CF
:10301000E65CFD4FDE01199611921D92EA16FB0641
:10302000D9F701E08091B002882371F08091AE025F
:103030009091AF020E94A327833E944028F080EE37
:103040000E9452201092B0028091BE02882309F49F
:103050008AC38091BD02882309F485C38091BB0295
:103060009091BC020E94A3278139914008F47BC350
:103070001092BE028091B1029091B2020497D9F4ED
:103080008091B3029091B402892BA9F48091B5028A
:103090009091B602892B79F48091B7029091B80291
:1030A000892B49F48091B9029091BA02892B19F4C5
:1030B00084E30E94AE208091B1029091B202089701
:1030C00001F58091B3029091B402892BD1F48091E3
:1030D000B5029091B602892BA1F48091B70290912C
:1030E000B802892B71F48091B9029091BA02892BB0
:1030F00041F488E094E10E94B02C88E094E10E94C1
:10310000962C8091B1029091B2024297D9F48091AD
:10311000B3029091B402892BA9F48091B5029091E9
:10312000B602892B79F48091B7029091B802892B6D
:1031300049F48091B9029091BA02892B19F483E382
:103140000E94AE208091B1029091B2024897D9F4CA
:103150008091B3029091B402892BA9F48091B502B9
:103160009091B602892B79F48091B7029091B802C0
:10317000892B49F48091B9029091BA02892B19F4F4
:103180008FE20E94AE208091B1029091B2024697E8
:10319000D9F48091B3029091B402892BA9F4809163
:1031A000B5029091B602892B79F48091B702909183
:1031B000B802892B49F48091B9029091BA02892B07
:1031C00019F48DE20E94AE208091B1029091B2027A
:1031D0000C97E1F48091B3029091B402892BB1F481
:1031E0008091B5029091B602892B81F48091B7024B
:1031F0009091B802892B51F48091B9029091BA0252
:10320000892B21F481E192E00E94E42B8091B102AC
:103210009091B202439739F58091B3029091B40234
:10322000892B09F58091B5029091B602892BD9F4CA
:103230008091B7029091B802892BA9F48091B902CC
:103240009091BA02892B79F480EE0E94103281EEBF
:103250000E94103284E20E94AE2081EE0E94522031
:1032600080EE0E9452208091B1029091B2020997A3
:1032700039F58091B3029091B402892B09F58091C0
:10328000B5029091B602892BD9F48091B702909142
:10329000B802892BA9F48091B9029091BA02892BC6
:1032A00079F480EE0E94103281EE0E94103285E2A5
:1032B0000E94AE2081EE0E94522080EE0E94522099
:1032C0008091B1029091B202C79709F58091B30243
:1032D0009091B402892BD9F48091B5029091B602F5
:1032E000892BA9F48091B7029091B802892B79F4C7
:1032F0008091B9029091BA02892B49F483EE0E9421
:1033000010328EE40E94AE2083EE0E945220809103
:10331000B1029091B202C69709F58091B3029091E3
:10332000B402892BD9F48091B5029091B602892B11
:10333000A9F48091B7029091B802892B79F4809119
:10334000B9029091BA02892B49F483EE0E9410329F
:103350008BE40E94AE2083EE0E9452208091B10245
:103360009091B202409769F58091B3029091B402B6
:10337000479739F58091B5029091B602892B09F5EE
:103380008091B7029091B802892BD9F48091B9024B
:103390009091BA02892BA9F48DE092E00E94E42B6F
:1033A00083E30E94AE2087E092E00E94E42B8FE24C
:1033B0000E94AE208DE20E94AE208DEF91E00E942F
:1033C000E42B8091B1029091B2024097A1F58091D7
:1033D000B3029091B402469771F58091B502909135
:1033E000B602892B41F58091B7029091B802892BE2
:1033F00011F58091B9029091BA02892BE1F489EF1D
:1034000091E00E94E42B83E30E94AE2083EF91E0E1
:103410000E94E42B8FE20E94AE208DE20E94AE203B
:1034200088EE91E00E94E42B83E30E94AE2081EEBF
:1034300091E00E94E42B8091B1029091B2024097FA
:1034400069F58091B3029091B402459739F5809166
:10345000B5029091B602892B09F58091B70290913F
:10346000B802892BD9F48091B9029091BA02892BC4
:10347000A9F488ED91E00E94E42B8FE20E94AE2037
:103480008DE20E94AE208DEC91E00E94E42B83E35C
:103490000E94AE2086EC91E00E94E42B8091B10264
:1034A0009091B202409769F58091B3029091B40275
:1034B000499739F58091B5029091B602892B09F5AB
:1034C0008091B7029091B802892BD9F48091B9020A
:1034D0009091BA02892BA9F487EB91E00E94E42B2A
:1034E0008FE20E94AE208DE20E94AE208CEA91E035
:1034F0000E94E42B83E30E94AE2085EA91E00E94C3
:10350000E42B8091B1029091B202409709F02BC157
:103510008091B3029091B4024A9709F024C180913E
:10352000B5029091B602892B09F01DC18091B702B6
:103530009091B802892B09F016C18091B90290913F
:10354000BA02892B09F00FC18DE991E00E94E42BAA
:1035500083E30E94AE2080E891E00E94E42B83E3A5
:103560000E94AE208FE291E00E94E42BFCC0F0E0CC
:10357000E65CFD4FF89484E0A7EBB7E001900D9274
:103580008A95E1F764E070E087EB97E00E949A2962
:103590008093B6077894F894E0914802F0E0EB5BF2
:1035A000FD4F808189878093BC0761E070E0CE0188
:1035B00009960E949A298093BB077894F894C0904A
:1035C000BD07D090BE07E090BF07F090C007809184
:1035D000BF029091C002A091C102B091C202C81670
:1035E000D906EA06FB06D1F0C092BF02D092C00213
:1035F000E092C102F092C2020E94863081110EC098
:103600000E94B227C61AD70AE80AF90AC092A6078A
:10361000D092A707E092A807F092A9077894F894AF
:103620008091C1079091C207A091C307B091C407D0
:103630008093560290935702A0935802B093590278
:103640008091C5079091C607A091C707B091C807A0
:103650008093520290935302A0935402B093550268
:103660007894F8948091C90780932E038091CA07BB
:103670008093ED078091CB070E94371C7894F894D3
:103680008091D307882309F449C080FF24C090911A
:10369000CC078091450390FF09C08160809345036A
:1036A00060E0892F86950E94BD3115C08E7F809382
:1036B00045030E94B729809157078160809357077F
:1036C0002FEF30E742E0215030404040E1F700C0AA
:1036D00000000E94D9298091D30781FF09C020E012
:1036E0004091CF076091CE078091CD070E949B2A21
:1036F0008091D30782FF09C08091D207882319F0F7
:103700000E94BE2902C00E94B7298091D30783FF7F
:1037100003C081E0809352071092D3077894F89405
:103720008091D407882319F00E94942802C00E9437
:103730007A28789418C001E010E015C01092FA07BA
:10374000E0913602F0E0E65CFD4FDE01199600E004
:103750008D919081981711F0808301E03196EA16DF
:10376000FB06B1F75FCC802F2C960FB6F894DEBF26
:103770000FBECDBFDF91CF911F910F91FF90EF90C2
:10378000DF90CF90BF90AF909F90089569EE7EEF4D
:1037900080E090E00E942C3660E082E090E00E94A1
:1037A0000E3660E083E090E00E940E3610925202E6
:1037B00010925302109254021092550260E084E07D
:1037C00090E00E940E3660E082E290E00E940E36A9
:1037D00060E085E090E00E940E3660E086E090E0D8
:1037E0000E940E366FEF87E090E00E940E3640E0B8
:1037F00050E0BA0188E090E00E94203660E08DE061
:1038000090E00E940E3640E050E0BA0188E190E07E
:103810000E94203660E087E190E00E940E3640E092
:1038200050E0BA018CE190E00E94203660E070E048
:1038300080E290E00E942C3640E050E0BA0188E13E
:1038400090E00E94203640E050E0BA018FE090E026
:103850000E94203640E050E0BA0183E190E00C94F1
:10386000203680915A02811110925A020895909147
:103870002D0292FD05C090915A02981380935A022E
:10388000089590912E038091ED07892B20912C03B0
:10389000982F922B9093C30280915A02882389F02B
:1038A000892B8093C302E5ECF2E097E080E0915031
:1038B00029F021912223D9F38F5FF9CF81110E9442
:1038C000311CE091A207F091A307309731F00280FC
:1038D000F381E02D83EC92E00994089580E090E07C
:1038E0000E94542880E090E00E943E281092ED074C
:1038F00010922C030C94411CCF93C0912D02C2FB5B
:10390000992790F9981781F080FBC2F9C0932D0296
:1039100060912C0284E090E00E940E366C2F82E2CF
:1039200090E0CF910C940E36CF91089580912A03A8
:103930009091F902891719F08F5F8770FBCF089576
:103940000F931F93CF93DF938091F80282958F702E
:1039500009F05DC08091F502882309F458C0809178
:103960002A031091F9026091F3027091F402C09160
:10397000F602D091F70291E06F3F09F090E0292F15
:1039800006E0811709F443C0209721F07F3F21F022
:1039900030E003C031E001C0322F90E030FD34C090
:1039A000089FF001099FF00D1124DF01A650BD4FC3
:1039B00011963C911197371327C03C91361324C0C0
:1039C00012963C91129731111FC013964D915C9144
:1039D00014974C1B5D0B483C5105B0F48091F802E4
:1039E0008F7080618093F802E150FD4F80818F706D
:1039F0008061808383EF92E00E94C409DF91CF91C0
:103A00001F910F910C94961C01968770BACFDF918D
:103A1000CF911F910F9108958F929F92AF92BF9275
:103A2000EF92FF920F931F93CF93DF9380905602F4
:103A300090905702A0905802B090590240915202C3
:103A4000509153026091540270915502842A952A34
:103A5000A62AB72ACFE1D0E0E92EF12C082F10E0FA
:103A6000D501C4010C2E04C0B695A79597958795EE
:103A70000A94D2F780FD04C0219790F780E01AC025
:103A8000FE0183E0EE0FFF1F8A95E1F7EE0DFF1DAB
:103A900093E0EE0FFF1F9A95E1F7E00FF11FEE0F95
:103AA000FF1FEA5EFD4F859194910E944915019791
:103AB00019F38C2FDF91CF911F910F91FF90EF9011
:103AC000BF90AF909F908F900895CF93DF93D82FA2
:103AD000C92F0E940C1DEC2FF0E098E0899FE00DAB
:103AE000F11D112483E0EE0FFF1F8A95E1F7ED0F22
:103AF000F11DEE0FFF1FEA5EFD4F859194910E942C
:103B00004915DF91CF910895FC01808191810E9438
:103B1000651D292F2F70E92FE295EF704E2F50E091
:103B2000FA013297EE30F105B8F4E259FF4F0C94E8
:103B30006236803F99F018F4883E70F40FC0843FDD
:103B400059F40CC0883E50F0813F31F407C0822FF9
:103B5000869586958695089580E0089581E008957C
:103B60009F92AF92BF92CF92DF92EF92FF920F930C
:103B70001F93CF93DF93CDB7DEB761970FB6F8945D
:103B8000DEBF0FBECDBF8C0185E0F801DE011D96C2
:103B900001900D928A95E1F7F801E2809091F3028D
:103BA0006091F4024091F6025091F70241155105DF
:103BB00031F06F3F31F481E09F3F19F403C081E0A1
:103BC00001C080E0F82FF1709F2E80FD1AC1F8012E
:103BD00030812181C380D48083EFA82E82E0B82E6B
:103BE000F090F502F601E41BF50BFF2009F4C6C0C6
:103BF0008091F802E83CF10508F091C0482F407F21
:103C000009F050C0621311C093130FC0FE2CE110D5
:103C10000CC08F7080618093F802C5010E94C409B6
:103C20008091F802F801858329C1CD2831F02F3F1A
:103C300031F481E03F3F19F403C081E001C080E02E
:103C400080FD03C081E08E2502C080E090E0F82F67
:103C5000F170FF2E80FF1CC080912A034091F90271
:103C600056E0841709F4E8C090E0589FF001599F8E
:103C7000F00D1124E650FD4F6181261306C06081CE
:103C8000631303C06281E61203C001968770E9CF17
:103C9000FE2CEE2009F4F2C08091F802816080933E
:103CA000F80249C0621306C0931304C0E11002C0B9
:103CB000F80186C0C8010E94841D882351F1EE20BE
:103CC00041F12091F802822F82958F7090E0029747
:103CD00074F08091F3029091F40298878F83198693
:103CE000DB86CA862C87CE0107960E94C40986E02F
:103CF000F801A3EFB2E001900D928A95E1F70E94DE
:103D0000A01C0AC06217C9F0C8010E94841D81115D
:103D10001EC0C8010E94C409FF24F394AFC0482FFD
:103D2000407F81F783EF92E00E94C40986E0F501AD
:103D300011928A95E9F7F12CA1C09313E5CFE11018
:103D4000E3CFF8018583C8010E94C40954C0EE2066
:103D500001F32091F802822F82958F7090E00297F4
:103D600034F28091F3029091F4029A8389831B824A
:103D7000DD82CC822E83CE010196B7CFE83CF105DF
:103D8000D0F5FE2CEE2029F2621327C0931325C034
:103D90002091F80220FD18C0822F82958F70482F45
:103DA00050E04115510581F0F80125834F30510550
:103DB00041F08F5F982F9295907F822F8F70892B83
:103DC0008583C8010E94C40986E0F801A3EFB2E030
:103DD00001900D928A95E1F751C0C8010E94841D9F
:103DE000811185CF8091F80281608093F802C8012B
:103DF0000E94C40943C086E0F50111928A95E9F753
:103E00003DC0EE2009F485CFC8010E94841DF82E24
:103E1000882309F47ECF86E0F801A3EFB2E0019099
:103E20000D928A95E1F78091F3029091F4020E943D
:103E3000651D0E94A01C22C03D872E878D859E8512
:103E40000E94651D292F22952F70223028F49F7023
:103E500039F0811105C00BC0243028F49F7049F45B
:103E6000805E883020F0C8010E94C4099F2CF92C84
:103E700005C0F8019581907F99F7F9CF8F2D619654
:103E80000FB6F894DEBF0FBECDBFDF91CF911F916B
:103E90000F91FF90EF90DF90CF90BF90AF909F90E9
:103EA000089528E0929F800D1124682F66956695ED
:103EB0006695982F977085E0689FB001112440E0C7
:103EC00050E080E0FB01E40FF51FE553FD4F20813A
:103ED00030E0092E02C0369527950A94E2F721704A
:103EE0003327042E01C0220F0A94EAF7822B4F5F7A
:103EF0005F4F4530510531F7089528E0929F800DBE
:103F00001124E82FE695E695E695877051E001C00B
:103F1000550F8A95EAF785E0E89FF0011124E553F3
:103F2000FD4F20E030E070E04081CB01022E02C066
:103F3000969587950A94E2F7817081958427852369
:103F4000842781932F5F3F4F2530310569F708950E
:103F500060935602709357028093580290935902CF
:103F60000C946E1C0F931F9341E050E060E070E0F2
:103F700004C0440F551F661F771F8A95D2F74095DE
:103F80005095609570958091560290915702A0913E
:103F90005802B09159028A019B01082319232A2350
:103FA0003B23C901B8011F910F910C94A81F2091C8
:103FB0002B038095822380932B03982F977041F4D5
:103FC00030E0482F082E000C550B2417350721F43C
:103FD00090912D0292FF07C08595859585950E9449
:103FE000B21F10922B0308950F931F9341E050E0EE
:103FF00060E070E004C0440F551F661F771F8A956C
:10400000D2F78091560290915702A0915802B09138
:1040100059028A019B01082B192B2A2B3B2BC90122
:10402000B8011F910F910C94A81F609352027093D6
:10403000530280935402909355020C946E1C86E0B8
:10404000E5ECF2E0DF011D928A95E9F70C946E1C15
:10405000882341F080959091ED0789238093ED07A7
:104060000C94411C0895882339F09091ED07892B19
:104070008093ED070C94411C0895882341F08095AE
:1040800090912E03892380932E030C94411C089554
:10409000882339F090912E03892B80932E030C9462
:1040A000411C0895882309F458C0682F823869F4A8
:1040B0000E946A2881FF51C069E383EC92E00E946C
:1040C00024280E94411C69E30EC0833891F40E94A9
:1040D0006A2880FF42C063E583EC92E00E942428B6
:1040E0000E94411C63E583EC92E00E9417280C9427
:1040F000411C843869F40E946A2882FF2EC067E45C
:1041000083EC92E00E9424280E94411C67E4EBCFDC
:104110008CEF860F813A38F380E2860F883070F496
:10412000677081E090E001C0880F6A95EAF780959A
:1041300090912E03892380932E03D9CF8BE5860F90
:10414000833020F480E090E00C945428685A673162
:1041500020F480E090E00C943E2808951F93CF93C4
:10416000DF93182F893319F0C0E0D0E002C0C0E51A
:10417000D0E0812F0E941032209741F08FE99FE01C
:104180000197F1F700C000002197F6CF812FDF9152
:10419000CF911F910C945220EF92FF920F931F9397
:1041A000CF93DF9320914D0730914E072D5433402C
:1041B000A90144585D4F4130544028F040E054E09C
:1041C000421B530B02C04CE752E0C0914B03D0910D
:1041D0004C03D901A35BBC4FB901420F531F01E04F
:1041E00010E064177507E8F4FB01E21BF30BE80F1E
:1041F000F91FE491FC91EF1781F0EC93FB016894B7
:1042000015F8F695E7951694E1F7780102C0EE0CE3
:10421000FF1CEA95E2F7CE29DF296F5F7F4F1196E9
:10422000E0CFD0934C03C0934B03DF91CF911F910C
:104230000F91FF90EF90089590914A03899FC001DC
:104240001124811524E0920714F080E090E0835B54
:104250009C4F90934E0780934D070895809145039E
:1042600080FF07C0869582588F77853010F40C94B4
:10427000063261E082E00C94BD31EF92FF920F9321
:104280001F93CF93DF93EC017B0164E670E088E736
:104290000E94B2328C01EC0EFD1ECE15DF0561F0DE
:1042A00017FD0AC0FE01849164E670E00E9433337A
:1042B0008C012196892B89F30E94B733C801DF91C5
:1042C000CF911F910F91FF90EF900895EF92FF9281
:1042D0000F931F93CF93DF937C018B010E947C2669
:1042E000811119C0E70101151105A1F08091E800C5
:1042F00085FD0AC08091E8008E778093E8000E94D7
:104300007C26882381F307C089918093F1000150B6
:104310001109E9CF80E0DF91CF911F910F91FF90BC
:10432000EF9008951F93CF93DF93CDB7DEB7AA9791
:104330000FB6F894DEBF0FBECDBFEDE3F3E0809182
:10434000F100819323E0E534F207C9F780913E0341
:10435000833009F460C030F4813071F0823009F4A8
:104360009CC0B3C08A3009F488C08B3009F46BC09C
:10437000893009F0AAC020C080913D03813A09F03C
:10438000A4C08091E800877F8093E800809141037A
:1043900090914203892B21F468E081E393E003C00C
:1043A00060E080E090E070E00E9403278091E800E8
:1043B0008B778093E80089C080913D03813209F0BA
:1043C00084C08091410390914203029708F07DC020
:1043D0008091E800877F8093E8008091E80082FD6B
:1043E00005C080913B038111F8CF6FC02091F3008D
:1043F0008091F20090E0922B029729F48091F100D5
:104400008B7F813021F48091F10080933003809183
:10441000E8008B7756C080913D03813A09F055C082
:104420008091410390914203892B09F04EC0809105
:10443000E800877F8093E8008091E80080FFFCCF50
:104440008091140139C080913D038132F1F5809152
:10445000410390914203892BC1F58091E800877F49
:104460008093E8000E94AF2680913F03809314015F
:1044700010922E030E941F2028C080913D0381329C
:1044800021F58091E800877F8093E8000E94AF26A5
:104490008091400380932F0318C080913D03813A9F
:1044A000A1F48091E800877F8093E8008091E80084
:1044B00080FFFCCF80912F038093F1008091E80072
:1044C0008E778093E8000E94AF268091E80083FFFA
:1044D000CCC180913D0390913E03492F50E04A307A
:1044E000510508F0C2C1FA01E458FF4F0C9462363E
:1044F000803821F0823809F0B8C108C080913903B2
:1045000090913A03992389F082600FC08091410312
:104510008F70873008F0A9C18093E9008091EB008B
:1045200085FB882780F91092E9009091E800977F39
:104530009093E8008093F1001092F10065C1282F5C
:104540002D7F09F092C1882319F0823061F08DC16E
:1045500080913F03813009F088C1933009F080E0F9
:1045600080933A032EC080913F0381112AC080912D
:1045700041038F702FEF280F263008F076C180930B
:10458000E9002091EB0020FF1CC0933021F48091C2
:10459000EB00806214C09091EB0090619093EB006F
:1045A00021E030E0A90102C0440F551F8A95E2F7CF
:1045B0004093EA001092EA008091EB0088608093BB
:1045C000EB001092E9008091E800877F20C1811103
:1045D0004CC110913F031F778091E3008078812BBD
:1045E0008093E3008091E800877F8093E8000E9439
:1045F000AF268091E80080FFFCCF8091E3008068C7
:104600008093E300111102C082E001C083E0809337
:104610003B032BC18058823008F027C180913F03B3
:10462000909140038C3D53E0950779F583E08A83B0
:104630008AE289834FB7F894DE01139620E03EE0CA
:1046400051E2E32FF0E050935700E49120FF03C0C4
:10465000E295EF703F5FEF708E2F90E0EA3010F040
:10466000C79601C0C0968D939D932F5F243149F763
:104670004FBF8091E800877F8093E8006AE270E096
:10468000CE0101960E940327AEC040914103509194
:104690004203292F332723303105A9F068F4213054
:1046A000310509F4F1C02230310509F0DEC08BE399
:1046B00090E0E8E0F4E044C02132310521F12232FB
:1046C000310571F1D2C0992781309105A1F058F0E0
:1046D000029709F0CAC0E5E5F4E0E4918E2F90E07E
:1046E000E5E5F4E02AC0E5E7F4E0E4918E2F90E000
:1046F000E5E7F4E022C0E3E6F4E0E4918E2F90E0F9
:10470000E3E6F4E01AC04115510509F4C2C0413096
:10471000510509F0AAC089E090E0E3E3F4E010C09D
:104720004115510509F4BAC04130510509F09DC049
:1047300082E390E0E6E9F3E003C0009709F495C056
:104740002091E800277F2093E800209143033091D7
:1047500044038217930708F49C0140E021153105BA
:1047600089F180913B03882309F43DC08530D9F15C
:104770008091E80083FD37C08091E80082FD2FC062
:104780008091E80080FFEACF4091F3008091F20031
:1047900090E0942B2115310559F08830910540F4B3
:1047A00044914093F1003196215031090196F2CFA6
:1047B00041E0089709F040E08091E8008E7780930F
:1047C000E800CCCF4111CDCF0AC080913B038823B4
:1047D00051F0853041F08091E80083FD04C0809164
:1047E000E80082FFF2CF8091E8008B778093E800A9
:1047F0003CC08038D1F58091E800877F8093E80045
:1048000080913C038093F1008091E8008E77809343
:10481000E8000E94AF2629C0811127C080913F0384
:10482000909140039927029704F58091E800877FD3
:104830008093E80010913F0310933C030E94AF2641
:10484000111106C08091E30087FD02C081E001C024
:1048500084E080933B0342E061EC81E00E94CE263D
:1048600042E261EC82E00E94CE268091E80083FF64
:104870001AC08091E800877F8093E8008091EB0068
:1048800080628093EB000FC082E190E0E3E4F4E00B
:1048900057CF89E090E0EAE1F4E052CF80E490E085
:1048A000E8ECF3E04DCFAA960FB6F894DEBF0FBE4A
:1048B000CDBFDF91CF911F9108951F920F920FB638
:1048C0000F9211242F933F934F935F936F937F9396
:1048D0008F939F93AF93BF93CF93DF93EF93FF9308
:1048E000C091E900CF708091EC00D82FD17080FD8D
:1048F000D0E81092E9008091F000877F8093F0006B
:1049000078940E9492211092E9008091F0008860D2
:104910008093F000CD2BCF70C093E900FF91EF9111
:10492000DF91CF91BF91AF919F918F917F916F91C7
:104930005F914F913F912F910F900FBE0F901F905D
:104940001895E8EDF0E080818E7F80831092E20080
:104950001092DA001092E100A0EEB0E08C9181603C
:104960008C9380818F77808319BCA7EDB0E08C9108
:104970008E7F8C9380818F7E808310922D0308958B
:10498000CF92DF92EF92FF920F931F93CF93DF931B
:10499000C8EDD0E088818F7E8883E7EDF0E08081EC
:1049A0008160808384E082BF81E080932D038881D1
:1049B0008E7F888302EE10E0F80110821092DA00F8
:1049C00081EEC82ED12CF601108288818F778883E2
:1049D00088818068888388818F7D888319BC109244
:1049E0003B0310923C0310923A031092390390EE6D
:1049F000E92EF12CF70180818B7F80838881816093
:104A0000888342E060E080E00E94CE26F60180814B
:104A10008E7F8083F80180818160808380818860BF
:104A20008083F70180818E7F808388818061888385
:104A3000DF91CF911F910F91FF90EF90DF90CF907A
:104A400008951F920F920FB60F9211242F933F9348
:104A50004F935F936F937F938F939F93AF93BF9386
:104A6000EF93FF938091E10082FF09C08091E20003
:104A700082FF05C08091E1008B7F8093E1008091EF
:104A8000DA0080FF2AC08091D80080FF26C0809184
:104A9000DA008E7F8093DA008091D90080FF18C001
:104AA00080E189BD82E189BD09B400FEFDCF81E0CE
:104AB00080933B0380912D0381110FC00E94A1249C
:104AC0000E94C0248091E20084608093E20005C0CF
:104AD00019BC10923B0310922D038091E10080FFDE
:104AE00017C08091E20080FF13C08091E2008E7FAA
:104AF0008093E2008091E20080618093E2008091E7
:104B0000D80080628093D80019BC85E080933B0375
:104B10008091E10084FF2EC08091E20084FF2AC0D2
:104B200080E189BD82E189BD09B400FEFDCF80919D
:104B3000D8008F7D8093D8008091E1008F7E809394
:104B4000E1008091E2008F7E8093E2008091E2009C
:104B500081608093E20080913C03882311F084E01F
:104B600007C08091E30087FD02C081E001C083E0BF
:104B700080933B038091E10083FF27C08091E20096
:104B800083FF23C08091E100877F8093E10082E072
:104B900080933B0310923C038091E1008E7F8093D1
:104BA000E1008091E2008E7F8093E2008091E2003C
:104BB00080618093E20042E060E080E00E94CE26C7
:104BC0008091F00088608093F000FF91EF91BF9199
:104BD000AF919F918F917F916F915F914F913F9195
:104BE0002F910F900FBE0F901F9018950895089564
:104BF00080913003089590913B03943031F5809378
:104C0000AF077093B1076093B00782E08093E9002B
:104C10008FEF9091E800815095FD06C095ED9A9533
:104C2000F1F700008111F5CF8091E80085FF0DC0FC
:104C300040E050E063E070E08FEA97E00E94662178
:104C40008091E8008E778093E8000895BC0184E0AD
:104C50000C94FB25BC0183E00C94FB25CF93DF93E0
:104C600021E02093E9002FEF3091E800215035FD3D
:104C700006C035ED3A95F1F700002111F5CF2091EE
:104C8000E80025FF14C0EC0140E050E068E070E06F
:104C90000E9466218091E8008E778093E80088E08A
:104CA000FE01A1E3B3E001900D928A95E1F7DF9157
:104CB000CF91089580914903882319F08150809302
:104CC0004903609145037091460380914703909199
:104CD00048030C94FE3080914903833018F48F5FB1
:104CE0008093490360914503709146038091470387
:104CF000909148030C94FE302091E4003091E5003F
:104D000095E64091EC00842F817040FF23C0809194
:104D1000E80080FD1DC080913B03882399F0853019
:104D200099F08091EB0085FD11C04091E400509115
:104D3000E5002417350729F3915011F09A01E1CFCE
:104D400084E0089582E0089583E0089581E0089565
:104D500080E008954091E80042FFDDCF0895809102
:104D60003D0387FF11C08091E80082FD05C080915E
:104D70003B038111F8CF11C08091E8008B770BC005
:104D800080913B03882349F08091E80080FFF8CFB1
:104D90008091E8008E778093E8000895982F9730EF
:104DA00068F59093E900981739F07091EC00209124
:104DB000ED005091F00003C0242F762F50E021FD2C
:104DC00002C09F5FECCF3091EB003E7F3093EB0051
:104DD0003091ED003D7F3093ED003091EB0031607C
:104DE0003093EB007093EC002093ED005093F000B3
:104DF0002091EE0027FDE5CF80E008958F7080932D
:104E0000E90081E00895209143033091440326177F
:104E1000370748F06115710539F42091E8002E77C5
:104E20002093E80001C0B901FC0120E06115710583
:104E300079F180913B038823F1F18530F1F1809184
:104E4000E80083FD3CC08091E80082FD2EC0809187
:104E5000E80080FFEBCF2091F3008091F20090E01A
:104E6000922B6115710551F08830910538F421912C
:104E70002093F100615071090196F3CF21E008976A
:104E800009F020E08091E8008E778093E800CECF93
:104E90002111CFCF0AC080913B03882361F0853078
:104EA00061F08091E80083FD0AC08091E80082FFF4
:104EB000F2CF80E0089582E0089583E0089581E0D4
:104EC000089578941F920F920FB60F9211248F932A
:104ED0009F93AF93BF938091AB079091AC07A09144
:104EE000AD07B091AE070196A11DB11D8093AB0730
:104EF0009093AC07A093AD07B093AE07BF91AF916D
:104F00009F918F910F900FBE0F901F901895CF9289
:104F1000DF92EF92FF922FB7F894C090AB07D0903A
:104F2000AC07E090AD07F090AE072FBFA701960148
:104F3000261B370B480B590BCA01B901FF90EF90A4
:104F4000DF90CF9008959C014FB7F8948091AB0704
:104F50009091AC07A091AD07B091AE074FBF821BF7
:104F6000930B08952FB7F8946091AB077091AC073D
:104F70008091AD079091AE072FBF08952FB7F89499
:104F80008091AB079091AC07A091AD07B091AE07AF
:104F90002FBF08951F920F920FB60F9211248F9377
:104FA0009F93AF93BF938091AA07811113C0809103
:104FB000AB079091AC07A091AD07B091AE074196B9
:104FC000A11DB11D8093AB079093AC07A093AD07D3
:104FD000B093AE07BF91AF919F918F910F900FBE8D
:104FE0000F901F9018950F931F930E94863088236F
:104FF00021F01F910F910C94B2270E94B2270091CB
:10500000A6071091A7072091A8073091A907600F64
:10501000711F821F931F1F910F9108950E94863068
:1050200081110C94BE270E94F327CB0108959C01A7
:105030002A5F3F4FFC014281461301C01282019654
:1050400082179307B9F708959C01FC0132969FEFF0
:1050500080E04191461789F09F3F19F4411101C04A
:10506000982F8F5F8630A9F79F3F39F0F901E90F3C
:10507000F11D97FDFA956283089508952091A40784
:105080003091A5072817390771F09093A5078093F1
:10509000A407E091A207F091A307309721F00084C4
:1050A000F185E02D099408952091A0073091A10782
:1050B0002817390771F09093A1078093A007E0911A
:1050C000A207F091A307309721F00680F781E02D29
:1050D000099408950E948630882351F0E091A20738
:1050E000F091A307309721F00190F081E02D099411
:1050F00080E0089580919F0790919E07882389F012
:10510000992369F062E070E08FEC99E00E943D2104
:10511000892B19F080919E07089510929E07909117
:105120009E0781E08927089580919F078823F9F0E1
:105130000E94B227DC01CB01805A9541AF4FBF4F8F
:1051400080939A0790939B07A0939C07B0939D0729
:1051500080919E0781110BC062E070E08DEC99E0B8
:105160000E943D21892B19F481E080939E07809154
:105170009E070895CF93E82F20914D0730914E0759
:105180002D54334040914A03642F70E0C9010E94BE
:10519000DD35481B842FEE2359F066E00E9442362D
:1051A000C82FC150B0F060E080E20E94EB28F9CF38
:1051B000A901480F511D4115544018F080E020E02E
:1051C00030E0280F311D235B3C4F30934E07209376
:1051D0004D07CF910895CF93DF938A3011F481E08A
:1051E00003C08D3029F480E0DF91CF910C94BA2870
:1051F000C62F682F80914D0790914E0726E0FC0145
:10520000A4E9B7E001900D922A95E1F7603E30F0F5
:1052100026E0FC0111922A95E9F70AC0F6E06F9F9B
:10522000B001112463577B4F46E050E00E94F135F6
:10523000C11137C0C0914D07D0914E0746E050E0F4
:10524000BE0184E997E00E947536892BC9F19E0161
:105250002D543340A90186E0569547958A95E1F78C
:1052600081E090E0BC0102C0660F771F4A95E2F72B
:1052700040914B0350914C03462B572B2B5F3F4FD4
:1052800066E0369527956A95E1F702C0880F991F69
:105290002A95E2F7842B952B90934C0380934B0334
:1052A0000FC0E0914D07F0914E079F012A5F3F4FDD
:1052B0002E173F0709F4BECF808180958193F8CFE8
:1052C0009E012754334040914A03642F70E0C90186
:1052D0000E94DD35481B463010F4240F311D211586
:1052E00084E0380710F020E030E0235B3C4F30933F
:1052F0004E0720934D07DF91CF910895FF920F93B2
:105300001F93CF93DF93EC01F62EFC010190002058
:10531000E9F78F0101501109C017D10728F46F2D4B
:1053200089910E94EB28F8CFDF91CF911F910F91C7
:10533000FF900895FC01680F791F8FEF91E3E61746
:10534000F70771F02191822728E030E087FF03C042
:10535000880F892701C0880F21503109B9F7EFCF95
:105360000895882311F0FA0101C0FB010994E5E5D5
:10537000F7E0118282818460828308956091450301
:10538000669570E041E050E085E191E00E9468366A
:10539000892B19F481E0809356070E940E28909380
:1053A000500780934F078091570784608093570779
:1053B0000895CF92DF92EF920F931F93CF93DF93D5
:1053C000CDB7DEB7EC970FB6F894DEBF0FBECDBFFA
:1053D000609117018091450380FF0AC0E9E7F4E07E
:1053E000AE014F5F5F4F8E01035C1F4FCA0114C0B7
:1053F0008091180190911901891780F7E82FF0E04A
:105400009F01220F331FE20FF31FE85AF84F11825A
:10541000108212828F5FF0CF249130E0D901AA0F61
:10542000BB1F2A0F3B1FD901A85AB84FCD90DD9062
:10543000EC90DA01CD92DD92ED92AD013196A0179C
:10544000B10751F720911601FC01B3E02B9FE00D4D
:10545000F11D1124539A8BB1877F9BB198602FB7B0
:10546000F894AF0133E0639F400D511D1124E41700
:10547000F50789F0319168E09BB9000000C037FF63
:105480008BB9330F000000C000C000C08BB900C052
:105490006A9591F7ECCF2FBF8FE594E00197F1F774
:1054A00000C00000EC960FB6F894DEBF0FBECDBF73
:1054B000DF91CF911F910F91EF90DF90CF900895E2
:1054C000FF920F931F93CF93DF93EC01F12C0FEF1B
:1054D00010E060911A01F616F0F4809118012F2D5A
:1054E00030E0280F311DC901880F991F280F391F7F
:1054F000285A384F70E0C8010E944E36962F8C8192
:105500004091480360914703F99E800D11240E9449
:105510002731F394DECF0E94D9299A818C8190FFA4
:1055200002C08F5F01C081508C83DF91CF911F91AA
:105530000F91FF900895EF92FF920F931F93CF93D7
:10554000DF9300D01F92CDB7DEB7182FF62E042FB1
:10555000E22E8091450380FF56C0E82FE695F0E0EB
:10556000E55EFD4F9081909355078E7F823021F547
:105570009E012F5F3F4F812F0E942731809145036D
:1055800080FF1EC02B8139814A8180911801909142
:105590001901891770F4E82FF0E0BF01660F771F3B
:1055A000E60FF71FE85AF84F4183308322838F5F5D
:1055B000F0CF0E94D92904C0923011F41091460313
:1055C00080914603181308C080914703F81204C065
:1055D00080914803081729F08091570782608093D3
:1055E000570710934603F092470300934803EE20B9
:1055F00051F060914503709146038091470390916B
:1056000048030E94FE300F900F900F90DF91CF91D2
:105610001F910F91FF90EF9008959C013A952115ED
:105620003F4130F5BC0166277270AC0144275470CD
:105630009C012227387094FF0FC090FF02C080E1C8
:1056400001C080E0672B09F08062452B09F080647F
:10565000232B79F080680895892F8170672B09F0DA
:105660008260452B09F08460232B19F0886008952F
:1056700080E008951F93CF93DF93CDB7DEB7679790
:105680000FB6F894DEBF0FBECDBF4B8B5C8B6D8B1E
:105690007E8B8F8B61111092ED0786E09E01235F58
:1056A0003F4FD901E82F1D92EA95E9F795E0FE01F9
:1056B0007396D90101900D929A95E1F79C894E89D4
:1056C0005F897B897D879E876F87598B488BF9011E
:1056D000DE01179601900D928A95E1F7CE010796AB
:1056E0000E94B01D81113EC086E0FE013796DE01AA
:1056F000119601900D928A95E1F7FF81E8856A8500
:105700007B856115710531F0EF3F31F481E0FF3F9A
:1057100019F403C081E001C080E080FD23C0209126
:10572000F90230E0C90101968770992740912A0358
:1057300050E08417950779F1F983EA837D836C83C0
:1057400096E0929FD001939FB00D1124A650BD4FBB
:10575000FE01319601900D929A95E1F78093F9023E
:105760000E94961C16E080912A039091F9028917F5
:1057700009F1189FC001112486509D4F0E94B01D51
:105780008823C1F080912A0390E0019687709927C1
:1057900080932A03E8CF10922E030E941F201092BC
:1057A000F90210922A03E3EFF2E086E0DF011D9296
:1057B0008A95E9F767960FB6F894DEBF0FBECDBFA6
:1057C000DF91CF911F910895AF92BF92CF92DF9258
:1057D000EF92FF920F931F93CF93DF93EC018AE038
:1057E000A82EFE012491222309F495C0213009F04E
:1057F0003DC031968491813021F42296FE0184913E
:1058000084C0823031F42296FE0184910E941032CD
:1058100080C0833031F42296FE0184910E94522090
:1058200078C0843009F074C02296FE01249180E093
:1058300090E030E0205331092A30310560F4A89E11
:10584000A001A99E500D1124C901840F951F219616
:10585000FE012491EECF009709F45BC0EFE9FFE071
:105860003197F1F700C000000197F5CFE22FF0E08B
:10587000EB58FE4EB490822F86958695869590E0E3
:10588000FC01EB59FE4EE4902770F12C022E02C071
:10589000F594E7940A94E2F7F1E0EF22FF24FC018B
:1058A000EB5AFE4EC490D12C022E02C0D594C79460
:1058B0000A94E2F731E0C322DD24FC01EB5BFE4EEB
:1058C000049110E002C0159507952A95E2F7017042
:1058D0001127E114F10419F081EE0E941032C11475
:1058E000D10419F086EE0E9410328B2D0E94AE205A
:1058F000CD2819F086EE0E945220EF2819F081EE93
:105900000E945220012B29F08CE20E94AE2001C09F
:10591000EF01219666CFDF91CF911F910F91FF90FC
:10592000EF90DF90CF90BF90AF900895CF93DF932B
:10593000EC010E945220CE01805E9109089710F080
:10594000209739F4CE010E940D2BDF91CF910C945A
:105950003D20CE010E940D2BDF91CF910C94282089
:10596000CF93DF93EC01805E9109089710F02097A8
:1059700031F4CE010E940D2B0E94482005C0CE01BB
:105980000E940D2B0E9433208C2FDF91CF910C941D
:105990001032609128027091290280912A02909120
:1059A0002B020E94872721E06C3D754081059105FF
:1059B00008F020E0822F0895CF93DF930E94C92C36
:1059C0008823D9F0C091B307D0E02196C170DD27BC
:1059D000C093B30781E00E941C2121E030E02C1B22
:1059E0003D0B4CE752E0249FC001259F900D349F52
:1059F000900D1124835B934F07C01092B20781E092
:105A00000E941C2181ED99E0DF91CF910C94CC2074
:105A100060E00E947E2981E00C94BA28CF93C62FC3
:105A2000409156025091570260915802709159026C
:105A300081111EC0411551056105710531F0769542
:105A400067955795479540FD0DC084EECC2321F016
:105A50000E94AE2089EA03C00E94AE208AEA0E941A
:105A6000AE2038C0CC2311F08DEBF9CF8EEBF7CF01
:105A7000411551056105710531F07695679557958A
:105A8000479540FD06C0CC2311F08BE4E8CF8EE4AF
:105A9000E6CF8091B002811106C081E08093B00210
:105AA00080EE0E9410320E94BE279093AF02809336
:105AB000AE02CC2339F08BE292E00E94B02C8BE254
:105AC00092E006C08BE290E00E94B02C8BE290E066
:105AD0000E94962C80E0CF910895EF92FF920F9351
