:100000000C949A030C94E1030C94E1030C94EB2CF4
:100010000C94E1030C94E1030C94E1030C94E103D0
:100020000C94E1030C94E1030C946F100C94AC0F4E
:100030000C94B4110C94E1030C94E1030C94E103CF
:100040000C94E1030C94E1030C94E1030C94E103A0
:100050000C94E1030C9467110C94E1030C94E103FC
:100060000C94E1030C94E1030C94E1030C94E10380
:100070000C94E1030C94E1030C94E1030C94E10370
:100080000C94E1030C94E1030C94E1030C94E10360
:100090000C94E1030C94E1030C94E1030C94E10350
:1000A0000C94E1030C94E1030C94E10348042A0549
:1000B000DC04620485049204AA04BF04D104EC04A5
:1000C0001005FE04A408A408DE08DE08A00AA00AA1
:1000D000A00AA00A31090F0A200A200ADF0D060E25
:1000E000840F060E840F4E0E710E840F4E0F610F9B
:1000F000F61FF61F09200920FF1F092009200920EB
:10010000F61FF61F04200920092004200501090616
:10011000A101050719E029E71500250195087501DA
:1001200081029501750881010507190029FF150055
:1001300026FF009506750881000508190129059517
:100140000575019102950175039101C00902220014
:10015000010100A0FA0904000001030101000921C6
:10016000110100012240000705810308000A120165
:100170000002000000081D8D9D9D0100010200018C
:100180000C034B007900720069006100000010034D
:10019000730070006C00690074004B0042000000A6
:1001A0000403090400047F3F1F643214643214788E
:1001B0003C1E1E140A05726D65720A0A2B34392022
:1001C000313733203234203138203531350A6D61F2
:1001D000696C4073746F65726D65722D636F6E73B9
:1001E000756C74696E672E64650A7777772E737401
:1001F0006F65726D65722D636F6E73756C74696E69
:10020000672E64650A0A00726D65722D636F6E73E6
:10021000756C74696E670A44722E2050657465723D
:10022000205374000A0A2D2D0A0A737400726D653A
:10023000720A0A00650A506574657220537400469C
:100240007265756E646C6963686520477200726DD3
:1002500065720A0A00650A5065746572205374005D
:100260006E652047720053636800650A50657465C7
:10027000720A0A006E65204772005363680000002E
:1002800000000500130009001A00140002540000C9
:10029000000007001700160015000400635D000051
:1002A00014590A00190006001B001D00E3002B6111
:1002B0002C41E2002900A80000000000000000001E
:1002C00000000D000F0018001C006A5D6B5D00004F
:1002D00000001000110008000C000B006C5D2802EB
:1002E00000000E00120037003600695D295D2861AC
:1002F0002A72E4006D5D2C00000000000000000088
:100300000000665D240025002600010001000000B9
:100310000000675D1E001F00200027006400010030
:100320000100685D2100220023000100010001009E
:1003300001000100010001000000000000000000B9
:1003400000001F024A0052004D000000655D0000E1
:1003500000003202500051004F0000006E5D0100AD
:100360004C002D02380030001E022D140100010047
:100370004C0001000100010000000000000000002E
:100380000000430040004100420001000100000065
:10039000000044003A003B003C0001000100010065
:1003A000010045003D003E003F000100010001004A
:1003B0000100010001000100000000000000000039
:1003C0000000010001000100010001000100000027
:1003D0000000010001000100010001000100010016
:1003E0000100010001000100010001000100010005
:1003F00001000100010001000000000000000000F9
:1004000000000100010001000100010001000000E6
:1004100000000100010001000100010001000100D5
:1004200001000100010001000100010001000100C4
:1004300001000100010001000000000000000000B8
:1004400000000100010001000100010001000000A6
:100450000000010001000100010001000100010095
:100460000100C35CC85CC65CCA5CC45C01000100DE
:100470000100010001000100000000000000FFAACF
:100480007F55402223252628292A2C2D2F30323330
:100490003536383A3B3D3E4042434547494A4C4E4B
:1004A0005051535557595A5C5E6062646668696B77
:1004B0006D6F71737577797B7D7F81838587898A7D
:1004C0008C8E90929496989A9C9E9FA1A3A5A7A883
:1004D000AAACAEAFB1B3B4B6B8B9BBBCBEBFC1C2B3
:1004E000C3C5C6C7C9CACBCCCDCED0D1D2D2D3D446
:1004F000D5D6D7D7D8D9D9DADADBDBDBDCDCDCDC64
:10050000DCDDDDDDDDDCDCDCDCDCDBDBDBDADAD931
:10051000D9D8D7D7D6D5D4D3D2D2D1D0CECDCCCBB3
:10052000CAC9C7C6C5C3C2C1BFBEBCBBB9B8B6B4D1
:10053000B3B1AFAEACAAA8A7A5A3A19F9E9C9A9861
:10054000969492908E8C8A89878583817F7D7B7932
:10055000777573716F6D6B6968666462605E5C5A13
:100560005957555351504E4C4A4947454342403ED6
:100570003D3B3A3836353332302F2D2C2A29282668
:100580002523220000000000000000000000000001
:100590000000000000000000000000010000380022
:1005A00000007800000000F68700ECFEFFFF8701E6
:1005B00000000000000000000000002A2B280000BE
:1005C0000000000000000000000000000000290002
:1005D0000000002C1E1F3221222332252630303607
:1005E000383724271E1F202122232425263736644E
:1005F00027642D140405060708090A0B0C0D0E0FBD
:10060000101112131415161718191A1B1D1C252D5D
:100610002635382E0405060708090A0B0C0D0E0FA7
:10062000101112131415161718191A1B1D1C246407
:1006300027304C0001010101010101010102020208
:10064000020202020202030303030303030304047E
:100650000404040404050505050506060606060748
:100660000707070708080808090909090A0A0A0B01
:100670000B0B0C0C0C0D0D0D0E0E0E0F0F0F1010A2
:100680001111111212131314141515161617171829
:100690001819191A1A1B1B1C1D1D1E1E1F20202194
:1006A0002222232424252626272829292A2B2C2DDB
:1006B0002D2E2F30313232333435363738393A3BFC
:1006C0003C3D3E3F404142434445464748494A4CF1
:1006D0004D4E4F50515354555658595A5B5D5E5FBD
:1006E000616264656668696B6C6D6F707273757753
:1006F000787A7B7D7E8082838587888A8C8E8F91B5
:10070000939596989A9C9EA0A2A3A5A7A9ABADAFDE
:10071000B1B3B5B7BABCBEC0C2C4C6C9CBCDCFD1C8
:10072000D4D6D8DBDDDFE2E4E7E9EBEEF0F3F5F871
:10073000FAFDFF0011241FBECFEFDAE0DEBFCDBF10
:1007400004B603FE27C08091040390910503A09195
:100750000603B09107038730904BA740B04BD1F40C
:1007600010920403109205031092060310920703DF
:1007700014BE84B7877F84BF0FB6F894A895809184
:100780006000886180936000109260000FBEE0E01E
:10079000F8E3099511E0A0E0B1E0E4EEFEE502C067
:1007A00005900D92A43AB107D9F723E0A4EAB1E08D
:1007B00001C01D92A430B207E1F70E9497130C9478
:1007C000702F0C9400008F929F92AF92BF92CF92A5
:1007D000DF92EF92FF920F931F93CF93DF93CDB7EA
:1007E000DEB72A970FB6F894DEBF0FBECDBFFC016F
:1007F000D080118183819481892B39F01F3F39F496
:1008000091E02FEFD21203C003C091E001C090E04D
:1008100090FDA1C77F0185E0DE01169601900D9243
:100820008A95E1F7D70112962C918E819F81222320
:1008300049F00E94691F082F682F8E819F810E94B6
:10084000DA2103C00E94AE21082FE12FF0E0B8E0CA
:100850000B9FE00DF11D1124A3E0EE0FFF1FAA95E1
:10086000E1F7ED0DF11DEE0FFF1FE258FD4F059171
:1008700014916801F801E356FD45D70112968C9159
:10088000EC30F10508F0E6C0EA5AFF4F0C940A2F4D
:10089000882389F08091AE0285FD05C086EE0E9416
:1008A000C62B84E119C085EE0E94DE2286EE0E94EE
:1008B000C62B84E61CC084E10E94DE2284E60E94EE
:1008C000DE22C7C38823E1F08091AE0285FD08C017
:1008D00086EE0E94C62B84E20E94C62B86EEEFCFE6
:1008E00085EE0E94DE2286EE0E94C62B87E20E94E1
:1008F000C62B86EE0E94DE2285EE0E94C62BA9C37F
:1009000084E20E94DE2287E2DACF882369F08091B8
:10091000AE0285FD05C085EE0E94C62B85E28AC029
:1009200086E2EBCF811105C085E20E94DE2286E2DD
:10093000C6CF8091AE0285FD05C086EE0E94C62B13
:1009400085E2CACF85EE0E94DE2286EE0E94C62B8B
:1009500086E2CDCF882389F08091AE0285FD05C067
:1009600085EE0E94C62B84E265C085EE0E94DE22E1
:1009700086EE0E94C62B80E3BACF84E23BC0882378
:1009800059F08091AE0285FD05C085EE0E94C62B10
:1009900083E250C082E2B1CF83E20E94DE2282E293
:1009A0008ECF8823A1F08091AE0285FD0BC085E338
:1009B0000E945C2385E3A1CF882361F08091AE0281
:1009C00085FD47C38EE20E945C238EE296CF85E3CD
:1009D0000E94DE228EE273CF882359F08091AE020E
:1009E00085FD05C085EE0E94C62B87E223C080E30B
:1009F00084CF87E20E94DE2280E361CF882359F012
:100A00008091AE0285FD05C085EE0E94C62B81E275
:100A100011C080E272CF81E20E94DE2280E24FCFDD
:100A2000882399F08091AE0285FD08C085EE0E9472
:100A3000C62B88E30E94C62B85EE41CF85EE0E942F
:100A4000DE2282E30E94C62B57CF88E30E94DE227B
:100A500082E335CF882369F0C801825E9C45059703
:100A600040F46EE1600F6093FA018CE090E00E9428
:100A70007E2E17FF7EC0F7018281882309F479C09A
:100A80000E942812869581708093A7019091FA01A7
:100A9000913029F4882319F089E30E945C23809126
:100AA000AE028093A6011092AE028091FA018130CD
:100AB00071F048F08230A1F08430C1F486EE0E94DB
:100AC0005C2388E111C082EE0E94C62B0FC088E132
:100AD00093E00E94A52988E193E00E948B2906C03B
:100AE00082EE0E94C62B87E50E945C238FE39CE97F
:100AF0000197F1F700C000004801E89497F87CE006
:100B0000A72EB12CC4010A2C02C0969587950A9491
:100B1000E2F78F7096EF980F963010F0805D01C06D
:100B2000895A0E94C62894E0A91AB108ACEFAA1607
:100B3000AFEFBA0639F78091FA01813039F078F0D9
:100B4000823069F0843089F488E20DC08CE20E9422
:100B50005C238091A701882341F089E304C082EEE1
:100B60000E94DE2202C00E945C238091A601809335
:100B7000AE02F7018281882309F441C080913902D5
:100B8000882329F1C80190568115F0E29F0720F0D3
:100B9000905E8115904110F46801DD248091380247
:100BA000853060F4E82FF0E0EE0FFF1FE45DFD4FAD
:100BB000D182C0828F5F8093380202C010923902C6
:100BC0000E94A811909337028093360242C20932E4
:100BD0008DE5180709F056C181E0809339020E9423
:100BE000A8119093370280933602109238028AE05F
:100BF000ECE2F2E0DF011D928A95E9F716C0043FAE
:100C0000ECE51E0709F442C108F06DC1093D2CE571
:100C1000120709F45CC10A3D8CE5180709F45DC1AF
:100C2000083D9CE5190709F449C1F7018281882331
:100C300009F48FC1109203030230FCE51F0708F48A
:100C400071C106312CE5120730F0C8018B5F9C455D
:100C5000099708F067C10E94081A9093F9018093E0
:100C6000F80100318CE5180709F4C3C008F041C051
:100C70000830ACE51A0709F49AC0F0F40430ECE54A
:100C80001E0709F487C068F402302CE5120709F446
:100C900077C003301C4509F0E5C08091F8018260FF
:100CA00076C006309CE5190709F46EC008F07BC0D9
:100CB0008091F80188606BC00C30BCE51B0709F41B
:100CC00085C068F40A30FCE51F0709F474C008F019
:100CD00079C00E94A5228091F801806858C00E302A
:100CE0008CE5180709F476C008F07FC08091F80100
:100CF0008BC00C3FACE51A0709F44FC018F503315F
:100D0000ECE51E0709F47DC078F401312CE51207EB
:100D100009F473C002311C4509F0A4C00E94A52249
:100D20008091F8018F7733C005319CE5190709F4EC
:100D300072C008F486C00B3F1C4509F093C0809137
:100D4000F9013EC00115EDE51E0709F45FC058F436
:100D50000E3F2CE5120709F444C008F43FC080910F
:100D6000F90182602DC002309DE5190709F475C0B4
:100D700008F45DC003301D4509F074C060E06EC02A
:100D80008091F801816003C08091F80180618093B7
:100D9000F80168C08091F80111C08091F90182606A
:100DA0008093F9015FC08091F8018062F0CF80915B
:100DB000F8018064ECCF8091F80188608460E7CF0F
:100DC0008160EECF8091F8018E7FE1CF8091F801B4
:100DD0008D7FDDCF8091F801877FD9CF8091F90198
:100DE00018C08091F9018D7FDBCF8091F8018F7E53
:100DF000CECF8091F8018F7DCACF8091F8018F7B93
:100E0000C6CF8091F801877F8B7FC1CF8091F90198
:100E10008D7F8E7FC5CF8091F80182FB222720F93C
:100E200091E0922790FB82F990FB83F9B0CF8091FB
:100E3000F901982F909591708E7F892B90FB81F905
:100E4000AFCF0E94A5228091F80187FB222720F9CD
:100E500091E0922790FB87F99ACF61E08EE090E0D5
:100E60000E947E2E6091F8011091F90184E090E0DB
:100E70000E947E2E612F82E290E00E947E2E0E94D0
:100E8000A522E7C0043FBCE51B0731F406E221EED2
:100E900040EE64EF7CE517C0053FECE51E0708F067
:100EA0008FC3093DFCE51F0791F00A3D2CE51207B1
:100EB000A1F0083D8CE5180709F0BCCE06E221EE52
:100EC00041EE68ED7CE5C7010E949F23C2C007E2A6
:100ED00025EE45EE69ED7CE5F6CF08E221E045EE32
:100EE0006AED7CE5F0CF063FACE51A0731F406E287
:100EF00021EE42EE66EF7CE5E6CF063FBCE51B0740
:100F000030F407E225EE44EE65EF7CE5DCCF073FE9
:100F1000ECE51E0709F089CE07E225EE46EE67EF05
:100F20007CE5D1CF0631FCE51F0709F040C0809178
:100F3000AE028A7A91E009F490E09093A8018823A8
:100F400011F065E301C069E28FE392E00E940E12A6
:100F50000EC00631ECE51E0769F48091A8018823D4
:100F600009F43BC365E38FE392E00E9401120E9403
:100F7000AC1E6FC08091AE0282720D3CECE51E0784
:100F800009F4C9C308F04DC0073C2CE5120709F469
:100F9000AEC308F033C3043CACE51A0709F49DC3A3
:100FA00008F01DC3033CECE51E0709F46CC3D70130
:100FB00012968C91882309F46CC00B35BDE51B0794
:100FC00051F158F40115FCE51F07B9F00F3D1C4520
:100FD00009F05FC00E943B1E3CC00C358DE5180730
:100FE000E1F00D351D4509F054C08091F90182FBF7
:100FF000882780F991E0892711C00E94A522AFEFD0
:10100000B4E3ECE0A150B040E040E1F700C00000E4
:101010000E9443111EC081E001C080E00E94D91EE1
:1010200038C0023D8CE5180709F485C308F40AC3EB
:10103000053D2CE5120709F484C308F417C3063DE7
:10104000BCE51B0709F482C30E35EDE51E0709F068
:10105000AECF8091AB02877009F47DC3D7011296A1
:101060008C91882309F477C382E02A960FB6F8940E
:10107000DEBF0FBECDBFDF91CF911F910F91FF90CB
:10108000EF90DF90CF90BF90AF909F908F900C9497
:101090005922D70112968C9112970C9111961C919E
:1010A000882349F0C8010E94691FD82E682FC80103
:1010B0000E94DA2104C0C8010E94AE21D82EE12F7F
:1010C000F0E0B8E0DB9EE00DF11D112433E0EE0FFF
:1010D000FF1F3A95E1F7E00FF11DEE0FFF1FE258F9
:1010E000FD4F859194910E948F188C01982EF701E5
:1010F000A280B580B2945FE0B5228091AB02877088
:1011000099F0AA2089F0812F807F803421F080E23D
:10111000800F883048F082E00E9459228091AB0213
:101120008770DD24D3948111D12CC12EC2942FE07D
:10113000C2228C2D90E08C30910508F001C2FC0198
:10114000EE59FF4F0C940A2F812F807F1F70882348
:1011500011F01295107FAA20B9F0112309F4DBC118
:1011600080E2800F883010F0911006C08091AE02AE
:10117000182B1093AE0205C08091AD02182B10936E
:10118000AD020E94AC1EC7C1802F0E94DE22112337
:1011900009F4D6C1005E1095083010F0911006C019
:1011A0008091AE0218231093AE0205C08091AD026B
:1011B00018231093AD020E94AC1EC2C1812F807F04
:1011C0001F70803211F01295107F992021F0F1E00C
:1011D0009F1611F130C0AA20B1F0BB2081F021E0B0
:1011E000B2120DC08091F90182FDAAC18091AF02B7
:1011F000182B181709F4A4C11093AF02A1C1809154
:10120000AF02812B10C0BB2021F081E0B81609F499
:1012100097C10E94A61E21C0AA2041F095E09B150F
:1012200008F48EC1812F0E94D4228AC1A4E0AB159C
:1012300008F486C112C0AA2019F0BB2099F36BC133
:10124000BB2059F0093309F078C1BFEFE7EEF3E0B6
:10125000B150E040F040E1F76EC1812F0E94C922F9
:101260006FC1812F837009F069C0A1106DC1902FEB
:10127000929596959770990F990F802F8F70882E61
:10128000912CA12CB12C092E04C0880C991CAA1CED
:10129000BB1C0A94D2F704FF12C04FE050E060E09C
:1012A00070E004C0440F551F661F771F9A95D2F750
:1012B000DB01CA0180959095A095B09503C080E0B0
:1012C00090E0DC0116951695412F4370423019F1DC
:1012D000C8F40091B0021091B1022091B202309195
:1012E000B302413059F088299929AA29BB29BC01A8
:1012F000CD0160237123822393230AC0802A912A7F
:10130000A22AB32ABC01CD01682979298A299B29FF
:101310000E94972219C188299929AA29BB290091DD
:10132000B0021091B1022091B2023091B302BC011F
:10133000CD016027712782279327EACFAA2019F0D1
:10134000812F817001C08695882309F4FDC0902FFC
:10135000929596959770990F990F802F8F70882E80
:10136000912CA12CB12C092E04C0880C991CAA1C0C
:10137000BB1C0A94D2F704FF12C04FE050E060E0BB
:1013800070E004C0440F551F661F771F9A95D2F76F
:10139000DB01CA0180959095A095B09503C080E0CF
:1013A00090E0DC0116951695412F43704230D9F03C
:1013B00068F50091F4011091F5012091F60130914A
:1013C000F701413059F088299929AA29BB29BC0184
:1013D000CD0160237123822393231EC0802A912A8A
:1013E000A22AB32A13C088299929AA29BB290091C6
:1013F000F4011091F5012091F6013091F701BC0143
:10140000CD01602771278227932706C0BC01CD013B
:10141000682979298A299B290E94052295C01F7075
:10142000AA2039F0812F0E947622802F0E94D42298
:101430008BC0802F0E94C922812F0E94342284C039
:10144000802F22EF921629F1291538F090EF991686
:1014500059F0A1EF9A16C1F059C0B3EF9B1601F1F4
:10146000E4EF9E16A1F152C0AA2049F0F4E0FB156A
:1014700008F466C0812F8F710E94132261C025E09D
:101480002B1508F45DC0F6CFAA2029F0812F8F71AB
:1014900030C0AA20D9F3812F8F710E94342250C00E
:1014A000AA2079F01F7181E090E0A0E0B0E0BC01DB
:1014B000CD0104C0660F771F881F991F1A95D2F7B8
:1014C00003C060E070E0CB010E94052239C0AA2071
:1014D00099F01F71812F0E9476228091F90182FD7F
:1014E00007C0A8E01A9FC001112483608093AB025B
:1014F000812F0E94762224C081E00E945922B1E00F
:10150000BB15F0F482E00E9459221AC0AA2039F0DB
:10151000BB2009F4BBCF802F0E94C62B11C0BB207B
:1015200009F4B9CF893349F4EFEFF7EE23E0E15046
:10153000F0402040E1F700C00000802F0E94DE2232
:1015400088EF8C0D843010F40E942812DD20B1F059
:101550008091AB0280FD12C0D70112961C92859536
:10156000859585950E947622C7010E94E3038091AC
:10157000AB028595859585950E94342285E0F7011B
:10158000DE01119601900D928A95E1F789819A8189
:101590000E94AE21EA81F0E0B8E08B9FE00DF11DE2
:1015A000112483E0EE0FFF1F8A95E1F78981E80F90
:1015B000F11DEE0FFF1FE258FD4F85919491CBC0B6
:1015C000063F9CE5190709F492CC08F49ACC073F32
:1015D000BCE51B0709F4A0CC2DCB69E2C4CC053CCB
:1015E000FCE51F0709F47EC0063C2CE5120709F054
:1015F000DECC48E45AE261E57AE291C00A3C9CE51F
:10160000190709F47EC078F4083CBCE51B0709F40F
:1016100073C0093CECE51E0709F0C9CC4CE35AE263
:1016200060E37AE27CC00B3CFCE51F0709F46EC066
:101630000C3C2CE5120709F0BACC46E85AE267E9FF
:101640007AE26DC00F3CACE51A0709F46EC008F4ED
:1016500069C0003DECE51E0709F46AC0013DFCE5E8
:101660001F0709F0A4CC6EE089E06DC0033D9CE546
:10167000190709F463C0043DACE51A0709F097CCDB
:1016800061E088E165C08091FC0280FF20C08E7F10
:101690008093FC026091FC027091FD028091FE0239
:1016A0009091FF020E94742A0E9441248091BC0202
:1016B00081608093BC02FFEF20E782E0F150204080
:1016C0008040E1F700C000000E946324C2CC81602A
:1016D0008093FC0261E086953BC043EB5BE26CEBE0
:1016E0007BE21DC04CEB5BE263EB7BE218C041E5A3
:1016F0005AE268E47AE213C040E35AE26CE37AE229
:101700000EC048E15AE264E27AE209C044E25AE2D9
:1017100068E17AE204C047E95AE266E87AE20E94A8
:101720003B2497CC61E081E013C065E082E00BC010
:1017300068E086E008C064E18FE005C067E185E10C
:1017400002C062E289E10E94292483CC61E083E245
:101750000E94732B7ECC2A960FB6F894DEBF0FBE84
:10176000CDBFDF91CF911F910F91FF90EF90DF9050
:10177000CF90BF90AF909F908F900895982F973003
:1017800068F59093E900981739F05091EC0020919A
:10179000ED004091F00003C0562F40E022E021FD13
:1017A00002C09F5FECCF3091EB003E7F3093EB00A7
:1017B0003091ED003D7F3093ED003091EB003160D2
:1017C0003093EB005093EC002093ED004093F00039
:1017D0002091EE0027FDE5CF80E008958F70809383
:1017E000E90081E008952091E4003091E50095E65C
:1017F0004091EC00842F817040FF23C08091E8006D
:1018000080FD1DC08091C101882399F0853099F039
:101810008091EB0085FD11C04091E4005091E500FE
:101820002417350729F3915011F09A01E1CF84E094
:10183000089582E0089583E0089581E0089580E0AE
:1018400008954091E80042FFDDCF08950F931F9364
:10185000CF93DF938C010E94F30B811118C0E80134
:1018600008E010E08091E80085FD0AC08091E80062
:101870008E778093E8000E94F30B882399F307C0CA
:1018800089918093F1000150110961F780E0DF91A7
:10189000CF911F910F9108958091C30187FF11C0CF
:1018A0008091E80082FD05C08091C1018111F8CFCF
:1018B00011C08091E8008B770BC08091C101882313
:1018C00049F08091E80080FFF8CF8091E8008E77A2
:1018D0008093E80008952091C9013091CA0126172C
:1018E000370748F06115710539F42091E8002E772B
:1018F0002093E80001C0B901FC0120E061157105E9
:1019000079F18091C1018823F1F18530F1F1809165
:10191000E80083FD3CC08091E80082FD2EC08091EC
:10192000E80080FFEBCF2091F3008091F20090E07F
:10193000922B6115710551F08830910538F4219191
:101940002093F100615071090196F3CF21E00897CF
:1019500009F020E08091E8008E778093E800CECFF8
:101960002111CFCF0AC08091C101882361F0853059
:1019700061F08091E80083FD0AC08091E80082FF59
:10198000F2CF80E0089582E0089583E0089581E039
:1019900008950895089508958091B6010895CF930C
:1019A000DF9321E02093E9002FEF3091E8002150F0
:1019B00035FD06C035ED3A95F1F700002111F5CF60
:1019C0002091E80025FF14C0EC0140E050E068E001
:1019D00070E00E94260C8091E8008E778093E800EA
:1019E00088E0FE01A7EBB1E001900D928A95E1F746
:1019F000DF91CF9108951F93CF93DF93CDB7DEB7DB
:101A0000AA970FB6F894DEBF0FBECDBFE3ECF1E0AE
:101A10008091F100819321E0EB3CF207C9F78091BE
:101A2000C401833009F460C030F4813071F0823039
:101A300009F49AC0B1C08A3009F486C08B3009F429
:101A40006BC0893009F0A8C020C08091C301813AE1
:101A500009F0A2C08091E800877F8093E800809120
:101A6000C7019091C801892B21F468E087EB91E0D0
:101A700003C060E080E090E070E00E946B0C809119
:101A8000E8008B778093E80087C08091C3018132A2
:101A900009F082C08091C7019091C801892B09F09B
:101AA0007BC08091E800877F8093E8008091E80008
:101AB00082FD05C08091C1018111F8CF6DC02091D8
:101AC000F3008091F20090E0922B029729F480912C
:101AD000F1008B7F813021F48091F1008093B60179
:101AE0008091E8008B7754C08091C301813A09F05E
:101AF00053C08091C7019091C801892B09F04CC057
:101B00008091E800877F8093E8008091E80080FF63
:101B1000FCCF8091000137C08091C3018132E1F593
:101B20008091C7019091C801892BB1F58091E8009F
:101B3000877F8093E8000E944C0C8091C5018093C0
:101B400000010E94A52228C08091C301813221F5A5
:101B50008091E800877F8093E8000E944C0C809180
:101B6000C6018093B50118C08091C301813AA1F4E8
:101B70008091E800877F8093E8008091E80080FFF3
:101B8000FCCF8091B5018093F1008091E8008E77C1
:101B90008093E8000E944C0C8091E80083FFB4C160
:101BA0008091C3019091C401492F50E04A30510502
:101BB00008F0AAC1FA01E259FF4F0C940A2F8038AD
:101BC00021F0823809F0A0C108C08091BF01909136
:101BD000C001992389F082600FC08091C7018F7086
:101BE000873008F091C18093E9008091EB0085FB7C
:101BF000882780F91092E9009091E800977F9093F0
:101C0000E8008093F1001092F10053C1282F2D7F3E
:101C100009F07AC1882319F0823061F075C1809192
:101C2000C501813009F070C1933009F080E08093E4
:101C3000C0012EC08091C50181112AC08091C701C9
:101C40008F702FEF280F263008F05EC18093E900D7
:101C50002091EB0020FF1CC0933021F48091EB0019
:101C6000806214C09091EB0090619093EB0021E0B2
:101C700030E0A90102C0440F551F8A95E2F7409356
:101C8000EA001092EA008091EB0088608093EB00FC
:101C90001092E9008091E800877F0EC1811134C164
:101CA0001091C5011F778091E3008078812B80938C
:101CB000E3008091E800877F8093E8000E944C0C4D
:101CC0008091E80080FFFCCF8091E30080688093E2
:101CD000E300111102C082E001C083E08093C101E2
:101CE00013C18058823008F00FC18091C5019091D6
:101CF000C6018C3D53E0950779F583E08A838AE23B
:101D000089834FB7F894DE01139620E03EE051E25C
:101D1000E32FF0E050935700E49120FF03C0E295D9
:101D2000EF703F5FEF708E2F90E0EA3010F0C796B3
:101D300001C0C0968D939D932F5F243149F74FBF0B
:101D40008091E800877F8093E8006AE270E0CE012E
:101D500001960E946B0C9CC04091C7015091C80134
:101D6000292F332723303105A9F068F421303105BC
:101D700009F4D9C02230310509F0C6C082E290E0F2
:101D8000ECE4F1E032C02132310521F1223231059B
:101D900029F1BAC0992781309105A1F058F0029736
:101DA00009F0B2C0E0E8F1E0E4918E2F90E0E0E8C5
:101DB000F1E018C0E0EAF1E0E4918E2F90E0E0EA73
:101DC000F1E010C0EEE8F1E0E4918E2F90E0EEE853
:101DD000F1E008C0452B09F4ABC096C0452B09F4CF
:101DE000ACC092C0009709F48FC02091E800277F13
:101DF0002093E8002091C9013091CA01821793070E
:101E000008F49C0140E02115310589F18091C10160
:101E1000882309F43DC08530D9F18091E80083FD25
:101E200037C08091E80082FD2FC08091E80080FFDC
:101E3000EACF4091F3008091F20090E0942B2115BD
:101E4000310559F08830910540F444914093F100F8
:101E50003196215031090196F2CF41E0089709F0FF
:101E600040E08091E8008E778093E800CCCF41116C
:101E7000CDCF0AC08091C101882351F0853041F057
:101E80008091E80083FD04C08091E80082FFF2CFDA
:101E90008091E8008B778093E80036C08038A1F508
:101EA0008091E800877F8093E8008091C201809351
:101EB000F1008091E8008E778093E8000E944C0C3E
:101EC00023C0811121C08091C5019091C60199273D
:101ED0000297D4F48091E800877F8093E800109106
:101EE000C5011093C2010E944C0C111106C08091D3
:101EF000E30087FD02C081E001C084E08093C1015E
:101F000061EC81E00E94BE0B8091E80083FF1AC063
:101F10008091E800877F8093E8008091EB008062E9
:101F20008093EB000FC082E190E0EEE6F1E05DCF40
:101F300089E090E0EEE5F1E058CF80E490E0ECE05D
:101F4000F1E053CFAA960FB6F894DEBF0FBECDBF17
:101F5000DF91CF911F9108951F920F920FB60F92AC
:101F600011242F933F934F935F936F937F938F939E
:101F70009F93AF93BF93CF93DF93EF93FF93C09162
:101F8000E900CF708091EC00D82FD17080FDD0E8AF
:101F90001092E9008091F000877F8093F0007894A0
:101FA0000E94FB0C1092E9008091F0008860809301
:101FB000F000CD2BCF70C093E900FF91EF91DF913E
:101FC000CF91BF91AF919F918F917F916F915F91D1
:101FD0004F913F912F910F900FBE0F901F9018952A
:101FE000E8EDF0E080818E7F80831092E200109215
:101FF000DA001092E100A0EEB0E08C9181608C9349
:1020000080818F77808319BCA7EDB0E08C918E7FA3
:102010008C9380818F7E80831092B4010895CF923B
:10202000DF92EF92FF920F931F93CF93DF93C8ED50
:10203000D0E088818F7E8883E7EDF0E08081816049
:10204000808384E082BF81E08093B40188818E7FA9
:10205000888302EE10E0F80110821092DA0081EE1F
:10206000C82ED12CF601108288818F7788838881D1
:102070008068888388818F7D888319BC1092C10114
:102080001092C2011092C0011092BF0190EEE92E91
:10209000F12CF70180818B7F808388818160888328
:1020A00060E080E00E94BE0BF60180818E7F80831D
:1020B000F801808181608083808188608083F7015E
:1020C00080818E7F8083888180618883DF91CF913A
:1020D0001F910F91FF90EF90DF90CF9008951F9286
:1020E0000F920FB60F9211242F933F934F935F934C
:1020F0006F937F938F939F93AF93BF93EF93FF93D0
:102100008091E10082FF09C08091E20082FF05C05A
:102110008091E1008B7F8093E1008091DA0080FF65
:102120002AC08091D80080FF26C08091DA008E7F7F
:102130008093DA008091D90080FF18C080E189BDCA
:1021400082E189BD09B400FEFDCF81E08093C10129
:102150008091B40181110FC00E94F00F0E940F10F6
:102160008091E20084608093E20005C019BC109267
:10217000C1011092B4018091E10080FF17C08091ED
:10218000E20080FF13C08091E2008E7F8093E20026
:102190008091E20080618093E2008091D8008062AB
:1021A0008093D80019BC85E08093C1018091E10043
:1021B00084FF2EC08091E20084FF2AC080E189BDA7
:1021C00082E189BD09B400FEFDCF8091D8008F7DEA
:1021D0008093D8008091E1008F7E8093E100809110
:1021E000E2008F7E8093E2008091E2008160809324
:1021F000E2008091C201882311F084E007C0809141
:10220000E30087FD02C081E001C083E08093C1014B
:102210008091E10083FF26C08091E20083FF22C00D
:102220008091E100877F8093E10082E08093C1018B
:102230001092C2018091E1008E7F8093E100809135
:10224000E2008E7F8093E2008091E20080618093C3
:10225000E20060E080E00E94BE0B8091F0008860A8
:102260008093F000FF91EF91BF91AF919F918F917B
:102270007F916F915F914F913F912F910F900FBE82
:102280000F901F90189581E08093E00080E280938A
:10229000D8001092C9008FE19EE40197F1F700C0C9
:1022A000000087E090EBDC0180930403909305032A
:1022B000A0930603B09307039CE088E10FB6F8945F
:1022C000A895809360000FBE90936000FFCF789434
:1022D0001F920F920FB60F9211248F939F93AF937B
:1022E000BF938091B0019091B101A091B201B091E2
:1022F000B3010196A11DB11D8093B0019093B1016E
:10230000A093B201B093B301BF91AF919F918F9110
:102310000F900FBE0F901F9018959C014FB7F89427
:102320008091B0019091B101A091B201B091B3013F
:102330004FBF821B930B08952FB7F8946091B001A3
:102340007091B1018091B2019091B3012FBF0895B6
:102350002FB7F8948091B0019091B101A091B20192
:10236000B091B3012FBF08951F920F920FB60F9235
:1023700011248F939F93AF93BF938091AF018111ED
:1023800013C08091B0019091B101A091B201B091C0
:10239000B3014196A11DB11D8093B0019093B1018D
:1023A000A093B201B093B301BF91AF919F918F9170
:1023B0000F900FBE0F901F9018950F931F930E94C0
:1023C0005518882321F01F910F910C949C110E94A5
:1023D0009C110091AB011091AC012091AD013091A5
:1023E000AE01600F711F821F931F1F910F910895FF
:1023F0000E94551881110C94A8110E94DD11CB0187
:1024000008959C012A5F3F4FFC014281461301C0A1
:102410001282019682179307B9F708959C01FC0177
:1024200032969FEF80E04191461789F09F3F19F463
:10243000411101C0982F8F5F8630A9F79F3F39F077
:10244000F901E90FF11D97FDFA956283089508954A
:102450000E945518882351F0E091A901F091AA013A
:10246000309721F00190F081E02D099480E00895EB
:10247000CF93DF93CDB7DEB728970FB6F894DEBFC2
:102480000FBECDBF85E0ECEFF2E0DE0111960190CA
:102490000D928A95E1F78091BA029091BB02A091CA
:1024A000BC028E839F83A88728854091EF015091BD
:1024B000F0016091F1017091F2013FB7F8948091C1
:1024C000B0019091B101A091B201B091B3013FBFB1
:1024D000841B950BA60BB70B84369105A105B1059E
:1024E00010F4222329F18091360190913701845212
:1024F0009E4F4091350150E04930510510F048E0C1
:1025000050E0BE016F5F7F4F0E94672F85E090E033
:102510000E94B22D892B11F080E00DC00E949C1109
:102520006093EF017093F0018093F1019093F201B9
:102530001092BC0281E028960FB6F894DEBF0FBE61
:10254000CDBFDF91CF910895CF93DF9300D000D01E
:10255000CDB7DEB74091D8015091D9016091DA0131
:102560007091DB012FB7F8948091B0019091B10187
:10257000A091B201B091B3012FBF841B950BA60BA4
:10258000B70B84369105A105B10580F10E94DD11DC
:10259000DC01CB010296A11DB11D89839A83AB8317
:1025A000BC8380912C0190912D0184529E4F4091CB
:1025B0002B0150E04530510510F044E050E0BE01E1
:1025C0006F5F7F4F0E94672F84E090E00E94B22DE2
:1025D000892B11F080E00BC00E949C116093D80100
:1025E0007093D9018093DA019093DB0181E00F9021
:1025F0000F900F900F90DF91CF910895CF92DF92BF
:10260000EF92FF920F931F93CF93DF931F92CDB75B
:10261000DEB7EE24E394F12C02EE11E09E012F5F71
:102620003F4F44ED51E063E082E00E94A217C82EC4
:10263000882379F1D09009028D2D90E09C012B5ECA
:102640003D4F79011981F9018081181B012F80E02C
:1026500010165CF40150F70180818F5F808360E089
:102660008D2D0E94BE2981E0F3CF912F17FD90E0C0
:10267000191B112359F01F5FF7018081815080835E
:1026800061E08D2D0E94BE2981E0F3CF81110E946F
:10269000061A8C2D0F90DF91CF911F910F91FF9013
:1026A000EF90DF90CF900895CF92DF92EF92FF925C
:1026B0000F931F93CF93DF9300D000D0CDB7DEB739
:1026C0006B0184E0E82EF12C0DED11E09E012F5FEF
:1026D0003F4F40ED51E061E080E00E94A217882367
:1026E00061F049815A816B817C814093CC01509388
:1026F000CD016093CE017093CF014091CC015091F8
:10270000CD016091CE017091CF01F60140835183DC
:10271000628373830F900F900F900F90DF91CF9192
:102720001F910F91FF90EF90DF90CF900895CF937E
:10273000DF93CDB7DEB72A970FB6F894DEBF0FBE92
:10274000CDBF84B7877F84BF0FB6F894A8958091DA
:102750006000886180936000109260000FBE90E07E
:1027600080E80FB6F89480936100909361000FBEEB
:1027700085B7806885BF85B7806885BF8DE597E19F
:102780009093A5018093A4010E94F00F0E940F1066
:102790008091E20084608093E20078948091C1018E
:1027A0008823A1F01091E9001F709091EC00892F0F
:1027B000817090FD80E8182B1092E9008091E8006C
:1027C00083FD0E94FB0C1F701093E90082E084BD22
:1027D00093E095BD9AEF97BD80936E001092AB0188
:1027E0001092AC011092AD011092AE010E945518EA
:1027F00080933D0180913D01882321F01092580182
:102800008AE003C08AE080935801809359010E94B6
:10281000551881110E94A52C80913D0180913D01A8
:10282000811102C094E001C090E09093070284E01F
:10283000891B809306020FE511E093E6E92E91E0F3
:10284000F92EF80181918F018F3F11F00E947818C5
:10285000E016F106B1F707E611E08FE6E82E81E019
:10286000F82EF80181918F018F3F11F00E947818A6
:10287000E016F106B1F7EEEFF1E086E092E0AAE0B3
:10288000B2E011921D928E179F07D9F780E090E079
:102890000E94782E893E9E4F11F00E943B1E82E0DE
:1028A00090E00E946A2E80931B020E94081A909367
:1028B000F9018093F8010E94191A8FE39CE90197AE
:1028C000F1F700C000000E94191A80910A0280FFEF
:1028D00008C06FEF7FEF80E090E00E949C2E0E9486
:1028E000431183E090E00E946A2E682F70E080E040
:1028F00090E00E9497228CE090E00E946A2E90E087
:10290000A0E0B0E08093FA019093FB01A093FC015A
:10291000B093FD010E945518811102C00E94A82C9D
:102920008091080281113BC080E090E00E94782EE7
:10293000893E9E4F21F00E943B1E0E94A82A88E0FB
:1029400090E00E94722E6093FC027093FD028093CF
:10295000FE029093FF028091BC0283608093BC02D0
:102960006E7F71F40E94A82A88E090E00E94722E87
:102970006093FC027093FD028093FE029093FF022D
:102980000E945A2A0E9441248091FC0280FF04C0C8
:1029900060E086950E94732B81E08093080280910D
:1029A0003D01811106C085E38093490186E680934D
:1029B000480120914901E22FE295EF70F0E031A14A
:1029C0002F7081E090E0AC01022E01C0440F0A9408
:1029D000EAF7542F5095352331A332A1432B42A35C
:1029E00040914801A42FA295AF70B0E091963C9120
:1029F00091974F70042E01C0880F0A94EAF7982F20
:102A00009095932391969C93919792969C919297EF
:102A1000892B92968C93929780A190E002C0959515
:102A200087952A95E2F7817090962C9130E002C04C
:102A3000359527954A95E2F720FD02C090E001C048
:102A400092E0892B8093190290913D0181E09827B3
:102A500090931802891B809309028EE391E0909372
:102A6000AA018093A901F8E1EF2EF12CA0E46A2ECF
:102A7000B2E1CB2EB2E0DB2E10E1712E8091C101CC
:102A8000853009F03EC012E18091C101853009F026
:102A900034C08091C101843009F11092AF010FB6AA
:102AA000F894A895E09260000FBE6092600083B732
:102AB000817F846083BF83B7816083BF789488956A
:102AC00083B78E7F83BF0FB6F894A895809160007E
:102AD000886180936000109260000FBE8091C001F9
:102AE000882391F20E94191AEAE0F2E081918111A3
:102AF0008DC1CE16DF06D1F7C7CF0E94A5220E9456
:102B000028120E94191A81110E949C11ECE1F2E036
:102B1000AAE0B2E000E010E0802E9D90819189252E
:102B200049F1A12CBB24B394982F9B21F1F00E9472
:102B30005518882399F0A9828A829B2081E009F4A4
:102B400080E08B830E94A8118160782F9D838C8305
:102B500049815A816B818D810E941E28F801E45EB3
:102B6000FD4F8081B826B0821AC0A394BB0C28E028
:102B7000A212DACF0F5F1F4F0830110569F68FEFF1
:102B80008E838F8318860E94A8118160782F9A8780
:102B900089874E815F8168858A850E941E28809181
:102BA000BB02882309F4BDC08091BA02E091FC0207
:102BB000E695E81BE093B602823059F4F0E0EE545B
:102BC000FE4FE4910E2F10E0EBE8AE2EE3E2BE2EB6
:102BD00059C0863059F4F0E0E155FE4FE4910E2FD4
:102BE00010E07BE7A72E73E2B72E4CC0893061F46A
:102BF000E695F0E0E455FE4FE4910E2F10E06FEA09
:102C0000A62E66E2B62E3EC08F3061F4E695F0E067
:102C1000E755FE4FE4910E2F10E050E1A52E56E24D
:102C2000B52E30C0853159F4F0E0EA55FE4FE491FD
:102C30000E2F10E047E8A42E45E2B42E23C08831C1
:102C4000A1F0833249F4E4EAF1E00591149138E00F
:102C5000A32E37E2B32E16C0843271F404EF11E0D4
:102C60002FEAA22E24E2B22E0DC008E210E091EF6E
:102C7000A92E94E2B92E06C000ED17E08AE7A82E2F
:102C800083E2B82E8091B702882361F01092B702D8
:102C90000E94F8119093B5028093B4021092B90289
:102CA0001092B8020E94F811E091B402F091B502BE
:102CB0009C012E1B3F0B2F3F3F4798F5209114029C
:102CC0002223B1F0109214022091120230911302CB
:102CD000821B930B8F3F9F4758F4205D3A483093F7
:102CE0001302209312028091BC0288608093BC0280
:102CF0008090B8029090B9020E0F1F1F1093B5027A
:102D00000093B40284EB92E0F50109958091B8023A
:102D10009091B902892B29F4892819F081E08093D8
:102D20001402E09119025E2F550F550F20914901B1
:102D3000E22FE295EF70F0E080A190E02F7002C0EA
:102D4000959587952A95E2F78170992740914801DA
:102D5000E42FE295EF70F0E020A130E04F7002C068
:102D6000359527954A95E2F7F901E170FF2720FF95
:102D700002C0E2E0F0E0E82BF92BE52BE09319022A
:102D800010911802EF70F0E0E159FE4F90818091B0
:102D90001702890F8093170284306CF0E12FF0E066
:102DA000EB5EFD4F80818F5F808360E0812F0E940A
:102DB000BE2921E001C020E0809117028D3F64F41C
:102DC000E12FF0E0EB5EFD4F80818150808361E078
:102DD000812F0E94BE2921E080911702082E000C4D
:102DE000990B64E070E00E94D42E809317022111A9
:102DF0000E94061A0E94281290911A02891709F45B
:102E00003DCE0E94281280931A0238CE79BC19BD9B
:102E100009B400FEFDCF8091D8008F7D8093D8004B
:102E20008091E00082608093E0008091E00081FD6D
:102E3000FCCF0E94A52228CEAF92BF92CF92DF9204
:102E4000EF92FF920F931F93CF93DF937C015B016F
:102E50006A018091F3018A3018F001E010E002C0AD
:102E60000AE010E0C1E0D0E0F894B501C701F60136
:102E700009957894811115C021960C171D0794F0BF
:102E8000CC9F9001CD9F300D300D112480E090E05B
:102E900045E34A95F1F70000019682179307C1F7C1
:102EA000E3CF81E0DF91CF911F910F91FF90EF90E1
:102EB000DF90CF90BF90AF90089580E008959091FB
:102EC000F80192FF0DC0282F2871283019F4877F50
:102ED000846006C0282F2471243011F48B7F886011
:102EE00093FF0DC0282F2871283119F4877E846143
:102EF00006C0282F2471243111F48B7E8861209123
:102F0000F90120FF0DC0382F3871383019F4877F50
:102F1000816006C0382F3171313011F48E7F8860A6
:102F200021FF0DC0282F2871283119F4877E816177
:102F300006C0282F2171213111F48E7E886194FD05
:102F4000877E08957F928F929F92AF92BF92CF9289
:102F5000DF92EF92FF920F931F93CF93DF931F9215
:102F6000CDB7DEB7762E4A0159016801082F880FC8
:102F7000110BC8010E94B22D892B09F07EC08AE096
:102F8000809FF001819FF00D1124EF5FFE4F45817E
:102F900050E04115510511F041E050E08AE0809F7A
:102FA000F001819FF00D1124EF5FFE4F6681778164
:102FB00064527E4FCE0101960E94672FF40140813A
:102FC0005181628173812FB7F8948091B001909103
:102FD000B101A091B201B091B3012FBF841B950B39
:102FE000A60BB70B84369105A105B10540F4B701D6
:102FF000C6010E9412249981891709F440C0072D47
:10300000770C110BC8010E94B22D892B09F5E11430
:10301000F10401F18AE0809FF001819FF00D1124FD
:10302000EF5FFE4F458150E0E416F50608F4A70176
:103030008AE0809FF001819FF00D1124EF5FFE4F29
:103040006681778164527E4FC5010E94672F02C05E
:1030500010E001C011E0B701C6010E94122491E006
:103060002981281390E0192381F00E949C11F4011A
:10307000608371838283938308C010E001C011E0F4
:10308000A701B601C5010E94672F812F0F90DF9124
:10309000CF911F910F91FF90EF90DF90CF90BF9055
:1030A000AF909F908F907F90089580913E02811104
:1030B00018C088EC9091E30097FD0AC0EFE3FCE9AB
:1030C0003197F1F700C000008150A1F782E001C004
:1030D00081E080933E02823021F40E94F00F109232
:1030E000C10181E090913E02913009F080E00895A5
:1030F000F894E82FE295EF70F0E031A1282F2F70BF
:1031000081E090E001C0880F2A95EAF7982F90950A
:10311000932391A392A1892B82A378940895CF93AE
:10312000DF938238910569F1B0F48133910509F498
:103130006FC048F48932910509F465C08A3291055F
:1031400009F46BC06FC08533910509F457C089330A
:103150009105B9F067C0833E910571F138F4803E66
:103160009105B1F0823E910511F15CC0863E91055A
:10317000B9F1873E9105C9F1843E910509F052C02D
:1031800024C02091F80120FD2AC121FD28C14AC098
:103190008091F80180FD1DC18091F90180FF1FC160
:1031A0008091F80184FD12C183EE90E02CC18091E2
:1031B000F80182FF11C1F4CF8091F80182FD0CC1AA
:1031C0008091F90180FD0BC1EBCF8091F90181FF66
:1031D0000CC18091F80184FDF9C087EE90E013C125
:1031E0008091F80183FFFEC0F4CF8091F80183FD48
:1031F000F9C08091F90181FDF8C0EBCF8091F80111
:1032000085FDF6C0F8C08091F80185FDF4C0F0C0DE
:103210008091F80186FDF2C0F4C08091F80186FD2E
:10322000F0C0ECC0811523E59207A8F5811532E5C1
:10323000930708F099C0811540E29407D0F48115F6
:1032400021E0920708F0DFC0853A910550F4843000
:10325000910508F0D8C0019709F0B8C081E090E06E
:10326000D2C09C01205E31092830310508F0AEC083
:10327000CAC0811531E5930708F071C0811540E59A
:10328000940708F04EC0811520E4920708F49EC010
:103290009F70906AB8C0EC01811536E59307F0F491
:1032A000811545E5940708F078C0C11584E5D80775
:1032B00008F06EC09E012370332781E090E002C0C9
:1032C000880F991F2A95E2F7C695C69520E2C29FFE
:1032D000E00111248C2B9D2B9A6895C081152AE55D
:1032E000920778F4811539E5930708F05EC08115DF
:1032F00048E5940708F46AC0982F8827806F906A81
:1033000082C090568115904208F060C08D2F8F7159
:103310000E945F17282F2F71CE0199279062922B60
:1033200072C09C0174E0369527957A95E1F7922F4B
:103330009370482F437021E030E002C0220F331F0A
:103340004A95E2F73C68392B8F70982F96959695A1
:1033500040E2949FC0011124822B932B54C0982FDC
:103360008827816F906A4FC0AC014370552721E0D8
:1033700030E002C0220F331F4A95E2F7869586950A
:1033800040E2849FC0011124822B932B9C683BC098
:103390009C2F8827846F906A36C00E945F178F71B8
:1033A00090E0982F882790622EC08F700E945F1740
:1033B00094E0D695C7959A95E1F7CF70D0E0DC2FD1
:1033C000CC27D0699E01282BC9011DC080E090E068
:1033D0001AC089E390E017C082EE90E014C080EE3E
:1033E00090E011C086EE90E00EC084EE90E00BC03D
:1033F00089E290E008C085E390E005C08AE290E0B1
:1034000002C081E390E0DF91CF9108950C949C116C
:10341000CF9384E090E00E946A2EC82F82E290E071
:103420000E946A2E2C2F30E0A901582BCA01CF919F
:1034300008957F928F929F92AF92BF92CF92DF9228
:10344000EF92FF920F931F93CF93DF93CDB7DEB729
:103450002C970FB6F894DEBF0FBECDBF9E012F5F35
:103460003F4F790188E0D9011D928A95E9F70FE570
:1034700011E0690183E6882E81E0982EAA24A394A6
:10348000B12CF80180818F3F09F448C0F894E82FEF
:10349000E295EF70F0E021A18F70A50102C0440F0A
:1034A000551F8A95E2F7CA01922F982B91A392A1FA
:1034B0008095892382A3789400C0E7E6F1E020E0BC
:1034C00030E0712C81918F3FB9F0A82FA295AF7099
:1034D000B0E090964C9150E08F70DA0102C0B59543
:1034E000A7958A95E2F7A0FD07C08A2D022E01C09C
:1034F000880F0A94EAF701C080E0782A2F5F3F4FD7
:1035000028303105F9F6F80180818F3F11F00E94D3
:103510007818F0EAFA95F1F7D6017C920F5F1F4F09
:10352000BFEFCB1ADB0A8016910609F0AACF48E05C
:1035300050E0B7018EEF91E00E945A2F8C01892B49
:1035400041F088E0F701AEEFB1E001900D928A956D
:10355000E1F7F09007020115110549F081E0809331
:1035600026020E94A8119093250280932402809144
:1035700026028823B9F080912402909125020E94AE
:103580008D11059778F0AEEFB1E0EF2DF0E0E65F3A
:10359000FD4F82E092E02D9121938A179B07D9F786
:1035A000109226020115110509F04EC30E9455180C
:1035B000E0910702882309F49EC219861A861B86A9
:1035C0001C860E2F10E0065F1D4F8091F301FE0157
:1035D0003D967F018A3058F444E553E1BE01675FB0
:1035E0007F4FC8010E941C17882361F10AC0809197
:1035F0002702909128020E948D11843F914060F72C
:1036000032C04EEF52E1BE01675F7F4FC8010E949A
:103610001C178823B9F044EA52E1BE01675F7F4F6F
:10362000C8010E941C17882369F048E352E1BE01DB
:10363000675F7F4FC8010E941C17882319F0109202
:10364000F30119C08091F3018F3F19F08F5F8093D0
:10365000F3018091F3018A3070F00E94A8119093D9
:10366000280280932702E0910602F0E0E65FFD4F1A
:10367000DE01199613C0E0910602F0E0E65FFD4F0F
:10368000DE01199600E08D919081981711F08083EA
:1036900001E03196AE15BF05B1F706C011921D923B
:1036A000EA16FB06D9F701E080912B02882371F01E
:1036B0008091290290912A020E948D11833E9440AC
:1036C00028F080EE0E94DE2210922B0280913902B7
:1036D000882309F4BBC280913802882309F4B6C25A
:1036E00080913602909137020E948D11853F914062
:1036F00008F4ACC21092390280912C0290912D02F4
:103700000497D9F480912E0290912F02892BA9F46D
:103710008091300290913102892B79F480913202AC
:1037200090913302892B49F48091340290913502B3
:10373000892B19F484E30E945C2380912C029091E0
:103740002D024297D9F480912E0290912F02892B5D
:10375000A9F48091300290913102892B79F4809103
:10376000320290913302892B49F480913402909176
:103770003502892B19F483E30E945C2380912C028B
:1037800090912D024897D9F480912E0290912F02AA
:10379000892BA9F48091300290913102892B79F420
:1037A0008091320290913302892B49F48091340246
:1037B00090913502892B19F48FE20E945C2380914D
:1037C0002C0290912D024697D9F480912E0290916F
:1037D0002F02892BA9F48091300290913102892B1C
:1037E00079F48091320290913302892B49F48091CF
:1037F000340290913502892B19F48DE20E945C23EA
:1038000080912C0290912D02439739F580912E02E0
:1038100090912F02892B09F580913002909131020D
:10382000892BD9F48091320290913302892BA9F42B
:103830008091340290913502892B79F480EE0E94B8
:10384000C62B81EE0E94C62B84E20E945C2381EE8F
:103850000E94DE2280EE0E94DE2280912C02909156
:103860002D02099739F580912E0290912F02892B14
:1038700009F58091300290913102892BD9F4809121
:10388000320290913302892BA9F4809134029091F5
:103890003502892B79F480EE0E94C62B81EE0E94BE
:1038A000C62B85E20E945C2381EE0E94DE2280EE20
:1038B0000E94DE2280912C0290912D02C79721F563
:1038C00080912E0290912F02892BF1F48091300289
:1038D00090913102892BC1F4809132029091330290
:1038E000892B91F48091340290913502892B61F4F7
:1038F00082EE0E94C62B8CE30E945C2382EE0E9423
:10390000DE2281E10E945C2380912C0290912D02A5
:103910000F97D9F480912E0290912F02892BA9F450
:103920008091300290913102892B79F4809132029A
:1039300090913302892B49F48091340290913502A1
:10394000892B19F483E00E94132280912C0290911C
:103950002D02409769F580912E0290912F02479792
:1039600039F58091300290913102892B09F58091CF
:10397000320290913302892BD9F4809134029091D4
:103980003502892BA9F48AE792E00E942C2983E36F
:103990000E945C2384E792E00E942C298FE20E941F
:1039A0005C238DE20E945C238AE692E00E942C292F
:1039B00080912C0290912D024097A1F580912E02CA
:1039C00090912F02469771F58091300290913102CB
:1039D000892B41F58091320290913302892B11F5A8
:1039E0008091340290913502892BE1F486E692E0D1
:1039F0000E942C2983E30E945C2380E692E00E94CF
:103A00002C298FE20E945C238DE20E945C2385E5D5
:103A100092E00E942C2983E30E945C238EE492E0D2
:103A20000E942C2980912C0290912D02409769F5DB
:103A300080912E0290912F02459739F580913002A6
:103A400090913102892B09F58091320290913302D5
:103A5000892BD9F48091340290913502892BA9F4F5
:103A60008FE392E00E942C298FE20E945C238DE27A
:103A70000E945C2384E392E00E942C2983E30E944D
:103A80005C238DE292E00E942C2980912C0290917F
:103A90002D02409709F0DAC080912E0290912F02FA
:103AA0004A9709F0D3C08091300290913102892B5E
:103AB00009F0CCC08091320290913302892B09F039
:103AC000C5C08091340290913502892B09F0BEC0A7
:103AD00084E292E00E942C2983E30E945C2387E029
:103AE00092E00E942C2983E30E945C2386EB91E004
:103AF0000E942C29ABC0F0E0E65FFD4FF89484E013
:103B0000ADEDB1E001900D928A95E1F764E070E0CF
:103B10008DED91E00E9412248093DC017894F8945A
:103B2000E0911802F0E0EB5EFD4F80818987809381
:103B3000E20161E070E0CE0109960E9412248093B8
:103B4000E1017894F894C090E301D090E401E09012
:103B5000E501F090E60180913A0290913B02A0913C
:103B60003C02B0913D02C816D906EA06FB06D1F028
:103B7000C0923A02D0923B02E0923C02F0923D02A7
:103B80000E94551881110EC00E949C11C61AD70AB6
:103B9000E80AF90AC092AB01D092AC01E092AD0103
:103BA000F092AE017894F8948091EE01882309F4A4
:103BB00049C080FF24C09091E7018091FC0290FFF2
:103BC00009C081608093FC0260E0892F86950E9485
:103BD000732B15C08E7F8093FC020E94412480913C
:103BE000BC0281608093BC024FEF50E782E04150FD
:103BF00050408040E1F700C000000E9463248091A3
:103C0000EE0181FF09C020E04091EA016091E901E5
:103C10008091E8010E9448278091EE0182FF09C04F
:103C20008091ED01882319F00E94482402C00E946F
:103C300041248091EE0183FF03C081E08093B702AD
:103C40001092EE01789402C001E010E0802F2C96D3
:103C50000FB6F894DEBF0FBECDBFDF91CF911F919D
:103C60000F91FF90EF90DF90CF90BF90AF909F901B
:103C70008F907F90089569EE7EEF80E090E00E9443
:103C80009C2E60E082E090E00E947E2E60E083E067
:103C900090E00E947E2E1092B0021092B10210921B
:103CA000B2021092B30260E084E090E00E947E2EA7
:103CB00060E082E290E00E947E2E60E085E090E08D
:103CC0000E947E2E60E086E090E00E947E2E6FEFE4
:103CD00087E090E00E947E2E40E050E0BA0188E04C
:103CE00090E00E94902E60E08DE090E00E947E2E99
:103CF00040E050E0BA0188E190E00E94902E60E040
:103D000087E190E00E947E2E40E050E0BA018CE115
:103D100090E00E94902E60E070E080E290E00E94CF
:103D20009C2E40E050E0BA0188E190E00E94902E85
:103D300040E050E0BA018FE090E00E94902E40E019
:103D400050E0BA0183E190E00C94902E8091AF0294
:103D500081111092AF0208959091AE028091AD0250
:103D6000892B2091AC02982F922B90933F02809147
:103D7000AF02882389F0892B80933F02E1E4F2E0CF
:103D800097E080E0915029F021912223D9F38F5FB1
:103D9000F9CF81110E94A61EE091A901F091AA011C
:103DA000309731F00280F381E02D8FE392E00994A7
:103DB0000895CF93C091F901C2FB992790F9981704
:103DC00081F080FBC2F9C093F9016091F80184E0B1
:103DD00090E00E947E2E6C2F82E290E0CF910C94B6
:103DE0007E2ECF9108958091AA0290917902891731
:103DF00019F08F5F8770FBCF08950F931F93CF93B8
:103E0000DF938091780282958F7009F05DC0809178
:103E10007502882309F458C08091AA021091790292
:103E20006091730270917402C0917602D091770212
:103E300091E06F3F09F090E0292F06E0811709F427
:103E400043C0209721F07F3F21F030E003C031E0F4
:103E500001C0322F90E030FD34C0089FF001099F6F
:103E6000F00D1124DF01A658BD4F11963C9111971A
:103E7000371327C03C91361324C012963C911297F9
:103E800031111FC013964D915C9114974C1B5D0B23
:103E90004F3A5105B0F4809178028F708061809321
:103EA0007802E158FD4F80818F708061808383E7C5
:103EB00092E00E94E303DF91CF911F910F910C9448
:103EC000F31E01968770BACFDF91CF911F910F91AA
:103ED00008958F929F92AF92BF92EF92FF920F93AD
:103EE0001F93CF93DF938090F4019090F501A09001
:103EF000F601B090F7014091B0025091B10260918B
:103F0000B2027091B302842A952AA62AB72ACFE179
:103F1000D0E0E92EF12C082F10E0D501C4010C2EC1
:103F200004C0B695A795979587950A94D2F780FD1A
:103F300004C0219790F780E01AC0FE0183E0EE0FE5
:103F4000FF1F8A95E1F7EE0DFF1D93E0EE0FFF1FB7
:103F50009A95E1F7E00FF11FEE0FFF1FE258FD4FBA
:103F6000859194910E948F18019719F38C2FDF91FE
:103F7000CF911F910F91FF90EF90BF90AF909F90C6
:103F80008F900895CF93DF93D82FC92F0E94691F78
:103F9000EC2FF0E098E0899FE00DF11D112483E003
:103FA000EE0FFF1F8A95E1F7ED0FF11DEE0FFF1FDA
:103FB000E258FD4F859194910E948F18DF91CF9127
:103FC0000895FC01808191810E94C21F292F2F70CA
:103FD000E92FE295EF704E2F50E0FA013297EE3064
:103FE000F105B8F4E858FF4F0C940A2F803F99F080
:103FF00018F4883E70F40FC0843F59F40CC0883E1A
:1040000050F0813F31F407C0822F869586958695C2
:10401000089580E0089581E008959F92AF92BF9245
:10402000CF92DF92EF92FF920F931F93CF93DF9384
:10403000CDB7DEB761970FB6F894DEBF0FBECDBF28
:104040008C0185E0F801DE011D9601900D928A95A4
:10405000E1F7F801E280909173026091740240915F
:104060007602509177024115510531F06F3F31F4DE
:1040700081E09F3F19F403C081E001C080E0F82F88
:10408000F1709F2E80FD1AC1F80130812181C3801B
:10409000D48083E7A82E82E0B82EF0907502F60156
:1040A000E41BF50BFF2009F4C6C080917802EF3ABB
:1040B000F10508F091C0482F407F09F050C062130D
:1040C00011C093130FC0FE2CE1100CC08F708061E3
:1040D00080937802C5010E94E30380917802F80181
:1040E000858329C1CD2831F02F3F31F481E03F3F56
:1040F00019F403C081E001C080E080FD03C081E0CD
:104100008E2502C080E090E0F82FF170FF2E80FF36
:104110001CC08091AA024091790256E0841709F4EC
:10412000E8C090E0589FF001599FF00D1124E65827
:10413000FD4F6181261306C06081631303C0628155
:10414000E61203C001968770E9CFFE2CEE2009F439
:10415000F2C08091780281608093780249C0621336
:1041600006C0931304C0E11002C0F80186C0C80164
:104170000E94E11F882351F1EE2041F12091780245
:10418000822F82958F7090E0029774F08091730275
:104190009091740298878F831986DB86CA862C8754
:1041A000CE0107960E94E30386E0F801A3E7B2E0A0
:1041B00001900D928A95E1F70E94FD1E0AC06217D8
:1041C000C9F0C8010E94E11F81111EC0C8010E94F0
:1041D000E303FF24F394AFC0482F407F81F783E7C8
:1041E00092E00E94E30386E0F50111928A95E9F7D7
:1041F000F12CA1C09313E5CFE110E3CFF801858343
:10420000C8010E94E30354C0EE2001F3209178021C
:10421000822F82958F7090E0029734F28091730222
:10422000909174029A8389831B82DD82CC822E83D3
:10423000CE010196B7CFEF3AF105D0F5FE2CEE2076
:1042400029F2621327C0931325C02091780220FD24
:1042500018C0822F82958F70482F50E0411551056C
:1042600081F0F80125834F30510541F08F5F982F81
:104270009295907F822F8F70892B8583C8010E9431
:10428000E30386E0F801A3E7B2E001900D928A957E
:10429000E1F751C0C8010E94E11F811185CF8091D3
:1042A0007802816080937802C8010E94E30343C0D2
:1042B00086E0F50111928A95E9F73DC0EE2009F4F8
:1042C00085CFC8010E94E11FF82E882309F47ECF14
:1042D00086E0F801A3E7B2E001900D928A95E1F73C
:1042E00080917302909174020E94C21F0E94FD1E71
:1042F00022C03D872E878D859E850E94C21F292F53
:1043000022952F70223028F49F7039F0811105C05A
:104310000BC0243028F49F7049F4805E883020F070
:10432000C8010E94E3039F2CF92C05C0F801958178
:10433000907F99F7F9CF8F2D61960FB6F894DEBF75
:104340000FBECDBFDF91CF911F910F91FF90EF90E6
:10435000DF90CF90BF90AF909F90089528E0929FFC
:10436000800D1124682F669566956695982F977035
:1043700085E0689FB001112440E050E080E0FB013F
:10438000E40FF51FE55BFD4F208130E0092E02C0F0
:10439000369527950A94E2F721703327042E01C041
:1043A000220F0A94EAF7822B4F5F5F4F4530510589
:1043B00031F7089528E0929F800D1124E82FE695AB
:1043C000E695E695877051E001C0550F8A95EAF7AA
:1043D00085E0E89FF0011124E55BFD4F20E030E02F
:1043E00070E04081CB01022E02C0969587950A9419
:1043F000E2F78170819584278523842781932F5F3D
:104400003F4F2530310569F708956093F4017093AB
:10441000F5018093F6019093F7011092AD0210928E
:10442000AC020C94AC1E0F931F9341E050E060E08F
:1044300070E004C0440F551F661F771F8A95D2F79E
:104440008091F4019091F501A091F601B091F701EE
:104450008A019B01082719272A273B27C901B80190
:104460001F910F910C9405220F931F9341E050E090
:1044700060E070E004C0440F551F661F771F8A95E7
:10448000D2F740955095609570958091F401909188
:10449000F501A091F601B091F7018A019B01082373
:1044A00019232A233B23C901B8011F910F910C94B2
:1044B00005222091AB02809582238093AB02982F36
:1044C000977041F430E0482F082E000C550B24174C
:1044D000350721F49091F90192FF07C085958595E4
:1044E00085950E9434221092AB0208950F931F937A
:1044F00041E050E060E070E004C0440F551F661FCB
:10450000771F8A95D2F78091F4019091F501A091DF
:10451000F601B091F7018A019B01082B192B2A2B78
:104520003B2BC901B8011F910F910C940522609398
:10453000B0027093B1028093B2029093B3021092D2
:10454000AD021092AC020C94AC1E1092AE0286E04A
:10455000E1E4F2E0DF011D928A95E9F71092AD02E5
:104560001092AC020C94AC1E882341F0809590917F
:10457000AD0289238093AD020C94AC1E089588236C
:1045800039F09091AD02892B8093AD020C94AC1E52
:104590000895882341F080959091AE0289238093FD
:1045A000AE020C94AC1E0895882339F09091AE02AF
:1045B000892B8093AE020C94AC1E0895882309F4D5
:1045C0007AC0682F823869F40E94281281FF73C074
:1045D00069E38FE392E00E940E120E94AC1E69E331
:1045E0000EC0833891F40E94281280FF64C063E5F6
:1045F0008FE392E00E940E120E94AC1E63E58FE3EF
:1046000092E00E9401120C94AC1E843869F40E945E
:10461000281282FF50C067E48FE392E00E940E12DE
:104620000E94AC1E67E4EBCF8CEF860F813A38F323
:1046300080E2860F883070F4677081E090E001C0FE
:10464000880F6A95EAF780959091AE02892380934E
:10465000AE02D9CF8BE5860F8330A0F4809147025C
:1046600090914802892B39F110924802109247022A
:10467000E091A901F091AA013097E9F00680F78155
:10468000E02D16C0685A6731B0F4809149029091CC
:104690004A02892B81F010924A0210924902E0915D
:1046A000A901F091AA01309731F00084F185E02D45
:1046B00080E090E0099408951F93CF93DF93182F23
:1046C000893319F0C0E0D0E002C0C0E5D0E0812F0E
:1046D0000E94C62B209741F08FE99FE00197F1F7E8
:1046E00000C000002197F6CF812FDF91CF911F915D
:1046F0000C94DE220895CF93DF93EC01ECEFF2E00F
:10470000438162818C810E94562B8C818F5F8C83C8
:10471000DF91CF910895CF93DF93EC01EC81F0E02E
:10472000ED57FB4F4491ECEFF2E0628181810E94F2
:10473000562B8C818F5F8C83DF91CF9108950F93DF
:104740001F93CF93DF93C42FD22FFC018281882344
:10475000C9F0409303030E94A81190930203809331
:10476000010380E28C0F883008F057C0C77081E0E9
:1047700001C0880FCA95EAF7DF91CF911F910F9181
:104780000C94D42280910303481330C0809101031C
:10479000909102030E948D118F3A910538F510E235
:1047A0001D0FCD17B9F080E28C0F883040F4C77030
:1047B00081E001C0880FCA95EAF70E94C92218302B
:1047C00028F581E09D2F977001C0880F9A95EAF730
:1047D0000E94D422802F0E945C231830F0F4D770FE
:1047E00081E001C0880FDA95EAF70AC080E28C0FF9
:1047F000883098F4C77081E001C0880FCA95EAF745
:10480000DF91CF911F910F910C94C922802FDF91DE
:10481000CF911F910F910C945C23DF91CF911F9149
:104820000F910895FC01680F791F8FEF91E3E61750
:10483000F70771F02191822728E030E087FF03C05D
:10484000880F892701C0880F21503109B9F7EFCFB0
:1048500008959091FC0290FF04C09695981740F03F
:1048600003C0811105C090E0961710F40C94BC2B86
:1048700061E00C94732B882311F0FA0101C0FB0155
:104880000994EAEBF2E011828281846082830895C8
:104890006091FC02669570E04BE050E08AE491E0A4
:1048A0000E944D2F892B19F481E08093BB020E9456
:1048B000F8119093B5028093B4028091BC02846099
:1048C0008093BC020895309159018091FC0280FFD1
:1048D00016C0E091580163E0E69FF0011124E05416
:1048E000FD4F539A8BB1877F9BB198602FB7F89497
:1048F000AF0163E0369F400D511D112414C080911B
:104900005A0190915B01891720F7E82FF0E0AF0181
:10491000440F551FE40FF51FE054FD4F1182108224
:1049200012828F5FF0CFE417F50789F0319168E0CC
:104930009BB9000000C037FF8BB9330F000000C0E7
:1049400000C000C08BB900C06A9591F7ECCF2FBFB3
:104950008FE594E00197F1F700C0000008950F93F0
:104960001F93CF93DF93EC0100E010E080915C0196
:10497000282F30E0021713073CF590915A01980157
:10498000290F311DA901440F551F240F351F205435
:104990003D4F869590E04C81081719071CF444237D
:1049A00049F002C0411106C04091FF02473918F09A
:1049B00046E901C040E06091FE028091FD020E9444
:1049C000C02A0F5F1F4FD2CF0E9463248C8190E0DA
:1049D0000196817099278C83DF91CF911F910F9160
:1049E00008958F929F92AF92BF92CF92DF92EF92F3
:1049F000FF920F931F93CF93DF938C01FC014481AF
:104A0000C42FD0E09E01DE010E94182F9B01AC0153
:104A10000E942E2F6B017C01E0E2F0E0EC1BFD0B0D
:104A2000A5E5B0E09B01AC010E942E2F4B015C017B
:104A30009F01DF010E94102F9B01AC010E94392FC2
:104A40009B01AC012C0D3D1D4E1D5F1DC501B40128
:104A50000E94E82EC22FD22F2A3228F4F3E02F9F93
:104A6000900111240DC025E530E02C1B3109C9014E
:104A7000880F991F280F391F37FF02C02F5F3F4F44
:104A800035952795C22FC095F12C85E5E82EED1AB6
:104A900080915C01F816E0F4F1FC02C08E2D01C09B
:104AA0008D2F90915A012F2D30E0290F311DA90132
:104AB000440F551F240F351F20543D4F4C2FC7392D
:104AC00008F046E96091FE020E94C02AF394E0CF0C
:104AD0000E946324F8018481811102C091E003C027
:104AE000803219F49FEF9093570190915701890FED
:104AF000F8018483DF91CF911F910F91FF90EF9088
:104B0000DF90CF90BF90AF909F908F9008951F93AC
:104B1000CF93DF93EC018C81811109C081E08C83FC
:104B20001092BE0292E090935601809355018091BD
:104B30005A0190915B01891770F4E82FF0E09F0112
:104B4000220F331FE20FF31FE054FD4F118210823A
:104B500012828F5FF0CF10E060915C011617D8F5DC
:104B6000E12FF0E070E0CF010E94D42E20915A0195
:104B7000820F2091BE02022E000C330B90E0E21750
:104B8000F307E4F020915601022E000C330B2E1790
:104B90003F07A4F09C01220F331F820F931F9C013B
:104BA00020543D4F4091FF02473908F046E960919B
:104BB000FE028091FD020E94C02A0BC0FC01EE0F94
:104BC000FF1F8E0F9F1FFC01E054FD4F11821082CA
:104BD00012821F5FC1CF0E946324809155012091F2
:104BE000BE02280F2093BE0290915601980F909319
:104BF000560119165CF4022E000C330B40915C0137
:104C000050E0415051092417350734F081958093C5
:104C10005501813009F41C82DF91CF911F910895D5
:104C20007F928F929F92AF92BF92CF92DF92EF923C
:104C3000FF920F931F93CF93DF93EC018A8180FF44
:104C400003C0BB24BA9402C0BB24B3948C818111ED
:104C50000DC081E0B81206C080915C018150809344
:104C6000BD0202C01092BD0281E08C83A12C44E100
:104C7000742E80905C01A81408F044C080915A0101
:104C8000CA2CD12C8601080F111DC801880F991F4D
:104C9000080F191F00541D4FF80111821082128253
:104CA00034E0E32EF12C912C8091BD02890D8531E9
:104CB0002CF0672D0E94B22E892F02C087FD880D2F
:104CC000082E000C990BC816D906A9F48091FF0292
:104CD0008E9DA0018F9D500D11245595479555959A
:104CE0004795473908F046E998016091FE028091A6
:104CF000FD020E94C02A9B0CF1E0EF1AF108A1F618
:104D0000A394B7CF0E9463248091BD0291E0B912B1
:104D10000EC0811107C080915C0181508093BD025B
:104D20001C820FC081508093BD02BC820AC090E0FB
:104D3000019660915C0170E00E94D42E8093BD02C8
:104D40008C83DF91CF911F910F91FF90EF90DF90B7
:104D5000CF90BF90AF909F908F907F900895FF92DB
:104D60000F931F93CF93DF93EC01F12C0FEF10E023
:104D700060915C01F61608F580915A012F2D30E004
:104D8000280F311DC901880F991F280F391F205482
:104D90003D4F4091FF02473908F046E970E0C801F5
:104DA0000E94D42E962F8C816091FE02F99E800D78
:104DB00011240E94C02AF394DBCF0E9463249A81BD
:104DC0008C8190FF02C08F5F01C081508C83DF9186
:104DD000CF911F910F91FF9008959091FC0290FF49
:104DE00016C090915A0120915B01921770F4E92F3F
:104DF000F0E0DF01AA0FBB1FEA0FFB1FE054FD4FDD
:104E00008183608342839F5FF0CF0C946324089575
:104E10000F931F93CF93DF9300D01F92CDB7DEB7D0
:104E20008C018091BF0281110AC09E012F5F3F4F0C
:104E300046E96FEF0E94C02A8A818093BF02F80181
:104E40008481813051F028F0823061F44091BF02BA
:104E50000AC08091BF0240E007C06091BF0240E0FD
:104E600080E003C040E080E060E00E94ED26F801B1
:104E7000848190E0019663E070E00E94D42E8483E8
:104E80000F900F900F90DF91CF911F910F91089588
:104E9000AF92BF92CF92DF92EF92FF920F931F9348
:104EA000CF93DF9300D01F92CDB7DEB7082FF62E39
:104EB000142FE22E9091FC0290FF85C0E92FE69519
:104EC000AE2FB0E0A158BE4F8C918093BA029E7F66
:104ED000923081F4473908F046E99E012F5F3F4F39
:104EE0006F2D802F0E94C02A4B8169818A810E9488
:104EF000ED2646C0823019F41091FF0241C0863081
:104F000019F40091FD023CC08930D9F38931C1F513
:104F1000E9518E2F8170D82EE695F0E0E258FB4FD4
:104F2000A590B490C12CBB2460915C01C61630F5ED
:104F30002C2D30E0A29EC001A39E900DB29E900D3C
:104F4000112470E00E94C02E802FD11002C0860F65
:104F500001C0861B90915A01290F311DA901440FF0
:104F6000551F240F351F20543D4F412F173908F08E
:104F700046E96F2D0E94C02AC394D6CF0E946324B5
:104F80008091FD02081308C08091FE02F81204C04F
:104F90008091FF02181729F08091BC0282608093F3
:104FA000BC020093FD02F092FE021093FF02EE207D
:104FB00051F06091FC027091FD028091FE0290918F
:104FC000FF020E94742A0F900F900F90DF91CF91F3
:104FD0001F910F91FF90EF90DF90CF90BF90AF9017
:104FE00008959C013A9521153F4130F5BC01662793
:104FF0007270AC01442754709C012227387094FFD2
:105000000FC090FF02C080E101C080E0672B09F073
:105010008062452B09F08064232B79F08068089525
:10502000892F8170672B09F08260452B09F084601D
:10503000232B19F08860089580E008951F93CF9383
:10504000DF93CDB7DEB767970FB6F894DEBF0FBE1C
:10505000CDBF4B8B5C8B6D8B7E8B8F8B61111092D8
:10506000AD0286E09E01235F3F4FD901E82F1D92DC
:10507000EA95E9F795E0FE017396D90101900D924A
:105080009A95E1F79C894E895F897B897D879E8708
:105090006F87598B488BF901DE01179601900D92AD
:1050A0008A95E1F7CE0107960E940D2081113EC03E
:1050B00086E0FE013796DE01119601900D928A95E9
:1050C000E1F7FF81E8856A857B856115710531F01F
:1050D000EF3F31F481E0FF3F19F403C081E001C0EC
:1050E00080E080FD23C02091790230E0C901019663
:1050F000877099274091AA0250E08417950779F1AB
:10510000F983EA837D836C8396E0929FD001939F1D
:10511000B00D1124A658BD4FFE01319601900D929D
:105120009A95E1F7809379020E94F31E16E0809130
:10513000AA02909179028917F9F0189FC0011124F1
:1051400086589D4F0E940D208823B1F08091AA02BD
:1051500090E00196877099278093AA02E8CF0E9479
:10516000A522109279021092AA02E3E7F2E086E00B
:10517000DF011D928A95E9F767960FB6F894DEBFB6
:105180000FBECDBFDF91CF911F910895DF92EF92B7
:10519000FF920F931F93CF93DF93E82FF0E0ED542E
:1051A000FA4FD490282F26952695269530E0F901C0
:1051B000ED55FA4F0491877010E0082E02C0159546
:1051C00007950A94E2F701701127F901ED56FA4F9D
:1051D000E490F12C082E02C0F594E7940A94E2F7CB
:1051E00091E0E922FF24F901ED57FA4FC491D0E094
:1051F00002C0D595C7958A95E2F7C170DD270115E4
:10520000110519F081EE0E94C62BE114F10419F08A
:1052100086EE0E94C62B8D2D0E945C23EF2819F08C
:1052200086EE0E94DE22012B19F081EE0E94DE2222
:10523000CD2B51F08CE2DF91CF911F910F91FF9018
:10524000EF90DF900C945C23DF91CF911F910F9131
:10525000FF90EF90DF900895FF920F931F93CF93ED
:10526000DF938C018AE0F82EF8018491882309F4F9
:105270004CC0813009F042C0E8012196FE018491C2
:10528000813031F42196FE0184910E945C2339C063
:10529000823039F4E8012296FE0184910E94C62BE7
:1052A00030C0833039F4E8012296FE0184910E94D7
:1052B000DE2227C0843029F5E8012296FE012491E0
:1052C00080E090E030E0205331092A30310560F46D
:1052D000F89EA001F99E500D1124C901840F951F5D
:1052E0002196FE012491EECF009759F0EFE9FFE0FF
:1052F0003197F1F700C000000197F6CF0E94C62851
:10530000E8018E010F5F1F4FAFCFDF91CF911F914B
:105310000F91FF900895CF93DF93EC010E94DE225E
:10532000CE01805E9109089710F0209739F4CE01E4
:105330000E94F127DF91CF910C94C922CE010E94E7
:10534000F127DF91CF910C94B422CF93DF93EC013E
:10535000805E9109089710F0209731F4CE010E94E9
:10536000F1270E94D42205C0CE010E94F1270E949D
:10537000BF228C2FDF91CF910C94C62BCF93C62FD9
:105380004091F4015091F5016091F6017091F7019F
:10539000811119C0411551056105710531F07695EE
:1053A00067955795479540FD08C0CC2311F089EAD1
:1053B00001C08AEA0E945C2338C0CC2311F08DEB37
:1053C000F9CF8EEBF7CF411551056105710531F02D
:1053D000769567955795479540FD06C0CC2311F00B
:1053E0008EE4E8CF8BE4E6CF80912B02811106C0DA
:1053F00081E080932B0280EE0E94C62B0E94A811B0
:1054000090932A0280932902CC2339F08BE290E01A
:105410000E94A5298BE290E006C08BE292E00E94F8
:10542000A5298BE292E00E948B2980E0CF9108951C
:10543000ECEFF2E0438128E0421B08F440E021E079
:10544000628181810C944827ECEFF2E0438128E0EF
:10545000420F08F44FEF21E0628181810C944827CC
:10546000ECEFF2E0628128E0621B08F460E021E0EA
:10547000438181810C944827ECEFF2E0628128E0BF
:10548000620F08F46FEF21E0438181810C9448277B
:10549000ECEFF2E0818121E04381628188500C943D
:1054A0004827ECEFF2E0818121E043816281885F4F
:1054B0000C9448278091FC02282F269530E0211576
:1054C000310519F48170826005C02532310524F060
:1054D000817088648093FC028091FF02873918F004
:1054E00086E98093FF020895CF92DF92EF92FF92B8
:1054F0006B017C010E945A2AB701A60188E090E066
:10550000FF90EF90DF90CF900C94902E809100034D
:10551000882319F08150809300036091FC02709100
:10552000FD028091FE029091FF020C94742A8091FA
:105530000003833018F48F5F809300036091FC02B6
:105540007091FD028091FE029091FF020C94742AEA
:10555000ECEFF2E083E0808311828FEF828386E9B3
:1055600083831482AAEBB2E012968C911297836027
:1055700012968C9360817181828193810C94742A3C
:10558000AF92BF92CF92DF92EF92FF920F931F9351
:10559000CF93DF93E82EF62EE901E42FF0E06111BE
:1055A00006C0ED5CF94FE4914E2F2E2F71C0062FEF
:1055B00010E0ED5CF94F4491F42FC42ED12C26E07D
:1055C000829FC00111242FEF30E0B9010E94C02E4C
:1055D0005BEA5603C001579F900D11248E0D911D5B
:1055E0008E0D911D582F550F580FD901A01BB10BCF
:1055F000AC9DC001AD9D900DBC9D900D1124E92F77
:10560000F59ED0011124AB2FBB277901EA1AFB0AC2
:10561000EC9CD001ED9CB00DFC9CB00D1124590107
:10562000A51AB108A09E7001A19EF00CB09EF00CCE
:105630001124EF2CFF242E193F092C9D80012D9D54
:10564000100D3C9D100D1124212F6230710591F039
:1056500048F461157105E1F061307105B9F4242F4A
:105660004B2F16C06430710569F040F0663071054B
:1056700079F00CC0242F492FE12F0AC0492FEF2FBA
:105680002B2F06C0292FE42F412F02C0292FEB2FEB
:1056900049832883EA83DF91CF911F910F91FF9077
:1056A000EF90DF90CF90BF90AF900895CF93DF93AE
:1056B00000D01F92CDB7DEB79091FC0290FF0DC0D5
:1056C000473908F046E99E012F5F3F4F0E94C02AEC
:1056D0004B8169818A810E94ED260F900F900F9077
:1056E000DF91CF9108959091FC0290FF3BC09170A3
:1056F000811102C0926006C0853210F0986402C029
:10570000880F982B9093FC028091BC02816080935B
:10571000BC02662351F06091FC027091FD02809101
:10572000FE029091FF020E94742A6091FC0266952D
:1057300070E04BE050E08AE491E00E944D2F892B0D
:1057400019F00E94412402C00E94482481E0809305
:10575000B70220E04091FF026091FE028091FD02BD
:105760000C94482708958091FC028695815009F495
:1057700084E261E00C94732B8091FC0286958F5F2C
:10578000853208F081E061E00C94732BCF9388237D
:1057900009F47CC0C82F8238B1F40E94281281FD20
:1057A00075C069E38FE392E00E940E120E94AC1E66
:1057B0002FEF81EE94E0215080409040E1F700C04F
:1057C000000069E317C08338D1F40E94281280FDDD
:1057D0005DC063E58FE392E00E940E120E94AC1E52
:1057E0002FEF81EE94E0215080409040E1F700C01F
:1057F000000063E58FE392E00E9401123CC0843810
:10580000B1F40E94281282FD41C067E48FE392E068
:105810000E940E120E94AC1E2FEF81EE94E02150E8
:1058200080409040E1F700C0000067E4E3CF8CEFD8
:105830008C0F813A80F4E1E4F2E087E492E0219178
:10584000C217E1F08E179F07D1F76C2F8FE392E01C
:105850000E940E1210C080E28C0F8830B8F4C7701E
:1058600081E090E001C0880FCA95EAF79091AE02FE
:10587000892B8093AE02CF910C94AC1E6C2F8FE3DA
:1058800092E00E9401120E94AC1EDFCFCF910895DA
:105890008EE14A9B02C08150E1F74A9BFECF0895FA
:1058A0005A9880E28A95F1F75A9A0895FC012AE005
:1058B0002A95F1F728E090E080E031E040E14A9558
:1058C000F1F7880F4A9B02C08160932700C0000057
:1058D00040E14A95F1F7215089F720E12A95F1F747
:1058E00029B100C0000030E13A95F1F722FB2227F0
:1058F00020F992272081920F90830895EF92FF92D2
:105900000F931F93CF93DF931F92CDB7DEB719820A
:105910008C017C01E60EF11C0E151F0551F00E9452
:10592000482CCE0101960E94562CF80181938F01DC
:10593000F3CF81E09981911180E00F90DF91CF91B9
:105940001F910F91FF90EF900895529A5A9A0895DF
:1059500052985A9AEA9AE9E6F0E080818F7C808337
:105960000895615091E001C0990F6A95EAF720E02F
:1059700031E0992361F0492F482319F05A9A2327DF
:1059800001C05A9840E24A95F1F79695F2CF22234A
:1059900011F05A9A01C05A9880E28A95F1F75A9804
:1059A0000895FF920F931F93CF93DF93EC018C0127
:1059B000060F111DC017D10741F0F9900E94502C1D
:1059C00068E08F2D0E94B12CF5CFDF91CF911F9110
:1059D0000F91FF9008951F920F920FB60F9211240E
:1059E000EF92FF920F931F932F933F934F935F93E9
:1059F0006F937F938F939F93AF93BF93EF93FF9397
:105A0000CF93DF931F92CDB7DEB719820E94482C47
:105A1000CE0101960E94562CA82FA695A695A69574
:105A20009A2F969595702A2F2570920F292F237003
:105A300096959695920F877089137CC08981811104
:105A400079C0A73008F076C080E18A95F1F75A9ABC
:105A5000529AB2E0BA95F1F700C05A98EA2EF12CAA
:105A6000EAE0AE9FD0011124AF5FBE4F1896ED91D2
:105A7000FC9119973097B1F060915D0170915E01D2
:105A800016962D913C911797260F371F13968D91DF
:105A90009C911497680F791F15964C911597129643
:105AA0008C9109958AE08E9DF0018F9DF00D112457
:105AB000EF5FFE4F6581662351F080915D0190910B
:105AC0005E0126813781820F931F0E94D12C0E9494
:105AD000502CF0E1FA95F1F75A9852985A9A80E1D1
