:100000000C9454030C949B030C949B030C94BB2BF7
:100010000C949B030C949B030C949B030C949B03E8
:100020000C949B030C949B030C94F2160C942F16C7
:100030000C9437180C949B030C949B030C949B0317
:100040000C949B030C949B030C949B030C949B03B8
:100050000C949B030C94EA170C949B030C949B0345
:100060000C949B030C949B030C949B030C949B0398
:100070000C949B030C949B030C949B030C949B0388
:100080000C949B030C949B030C949B030C949B0378
:100090000C949B030C949B030C949B030C949B0368
:1000A0000C949B030C949B030C949B0345044A05FE
:1000B000EB046204870497044A054A05B104C904A5
:1000C000DD04FD0426051205B208B208EA08EA08B4
:1000D000BE0ABE0ABE0ABE0A3309110A220A220A51
:1000E0004A044A05EB046204870497044A054A055A
:1000F000B104C904DD04FD04260512055B044A05AC
:10010000EB046204870497044A054A05B104C90454
:10011000DD04FD04260512056214891407168914EE
:100120000716D114F4140716D115E4156D1E6D1EB3
:10013000801E801E761E801E801E801E6D1E6D1EFF
:100140007B1E801E801E7B1E05010906A10105077E
:1001500019E029E71500250195087501810295012F
:10016000750881010507190029FF150026FF009574
:100170000675088100050819012905950575019185
:1001800002950175039101C009022200010100A03E
:10019000FA09040000010301010009211101000115
:1001A0002240000705810308000A12010002000036
:1001B00000081D8D9D9D0100010200010C034B00F4
:1001C0007900720069006100000010037300700084
:1001D0006C00690074004B00420000000403090435
:1001E00000047F3F1F643214643214783C1E1E14D6
:1001F0000A05000000000500130009001A001400A1
:1002000002510000000007001700045715000057B6
:10021000635D296105570A00190006001B001D00D7
:10022000650029610557E2002B00A80000000000CE
:100230000000000000000D000F0003571C006C5D63
:100240006D5D000000001000110001570C000B0054
:100250006E5D28612A720E000257695D6A5D6B5DF2
:10026000035328612A72E4006F5D2C000000000037
:10027000000000000000665D24002500260001004B
:10028000010000000000675D1E001F002000270025
:10029000640001000100685D2100220023000100CC
:1002A0000100010001000100010001000000000048
:1002B0000000000000001F024A0052004D00000034
:1002C000655D000000003202500051004F00000048
:1002D000705D01004C002D02380030001E0200004D
:1002E000000001004C0001000100010000000000BE
:1002F00000000000000043004000410042000100F7
:1003000001000000000044003A003B003C000100F6
:1003100001000100010045003D003E003F000100DA
:1003200001000100010001000100010000000000C7
:1003300000000000000001000100010001000100B8
:1003400001000000000001000100010001000100A7
:100350000100010001000100010001000100010095
:100360000100010001000100010001000000000087
:100370000000000000000100010001000100010078
:100380000100000000000100010001000100010067
:100390000100010001000100010001000100010055
:1003A0000100010001000100010001000000000047
:1003B0000000000000000100010001000100010038
:1003C000010000000000C35CC85CC65CCA5CC45C81
:1003D0000100010001000100C95CC75CCB5CC55C89
:1003E0000100010001000100010001000000000007
:1003F00000002223252628292A2C2D2F30323335A0
:1004000036383A3B3D3E4042434547494A4C4E50C0
:1004100051535557595A5C5E6062646668696B6DEA
:100420006F71737577797B7D7F81838587898A8CEE
:100430008E90929496989A9C9E9FA1A3A5A7A8AAF5
:10044000ACAEAFB1B3B4B6B8B9BBBCBEBFC1C2C32A
:10045000C5C6C7C9CACBCCCDCED0D1D2D2D3D4D5C4
:10046000D6D7D7D8D9D9DADADBDBDBDCDCDCDCDCED
:10047000DDDDDDDDDCDCDCDCDCDBDBDBDADAD9D9C5
:10048000D8D7D7D6D5D4D3D2D2D1D0CECDCCCBCA53
:10049000C9C7C6C5C3C2C1BFBEBCBBB9B8B6B4B379
:1004A000B1AFAEACAAA8A7A5A3A19F9E9C9A98960F
:1004B0009492908E8C8A89878583817F7D7B7977E2
:1004C0007573716F6D6B6968666462605E5C5A59C2
:1004D00057555351504E4C4A4947454342403E3D83
:1004E0003B3A3836353332302F2D2C2A2928262511
:1004F00023220001010101010101010102020202A6
:1005000002020202020303030303030303040404BD
:100510000404040405050505050606060606070786
:1005200007070708080808090909090A0A0A0B0B3E
:100530000B0C0C0C0D0D0D0E0E0E0F0F0F101011DD
:100540001111121213131414151516161717181863
:1005500019191A1A1B1B1C1D1D1E1E1F20202122CB
:1005600022232424252626272829292A2B2C2D2D11
:100570002E2F30313232333435363738393A3B3C2E
:100580003D3E3F404142434445464748494A4C4D21
:100590004E4F50515354555658595A5B5D5E5F61EA
:1005A0006264656668696B6C6D6F7072737577787D
:1005B0007A7B7D7E8082838587888A8C8E8F9193DB
:1005C0009596989A9C9EA0A2A3A5A7A9ABADAFB102
:1005D000B3B5B7BABCBEC0C2C4C6C9CBCDCFD1D4E7
:1005E000D6D8DBDDDFE2E4E7E9EBEEF0F3F5F8FA8D
:1005F000FDFFFFAA7F554000000000000000000042
:1006000000000000000000000000000000000000EA
:1006100000000000000000000000007E0F00D4FF7A
:10062000FFFFC70000007800000000000000002A63
:100630002B28000000000000000000000000000067
:10064000000029000000002C1E3420212224342622
:1006500027252E362D3738271E1F2021222324251B
:10066000263333362E37381F0405060708090A0BD0
:100670000C0D0E0F101112131415161718191A1B42
:100680001C1D2F3130232D350405060708090A0BE0
:100690000C0D0E0F101112131415161718191A1B22
:1006A0001C1D2F3130354C0011241FBECFEFDAE076
:1006B000DEBFCDBF04B603FE27C0809194039091A6
:1006C0009503A0919603B09197038730904BA74074
:1006D000B04BD1F4109294031092950310929603AC
:1006E0001092970314BE84B7877F84BF0FB6F89427
:1006F000A8958091600088618093600010926000EE
:100700000FBEE0E0F8E3099512E0A0E0B1E0E4E814
:10071000FCE502C005900D92A034B107D9F723E0A3
:10072000A0E4B2E001C01D92A439B207E1F70E9433
:100730001A1A0C94402E0C9400008F929F92AF9244
:10074000BF92CF92DF92EF92FF920F931F93CF93BE
:10075000DF93CDB7DEB72A970FB6F894DEBF0FBE92
:10076000CDBFFC01D080118183819481892B39F028
:100770001F3F39F491E00FEFD01203C003C091E0A6
:1007800001C090E090FF02C00C94C50B7F0185E092
:10079000DE01169601900D928A95E1F7D701129627
:1007A0002C918E819F81222349F00E94E01D082F09
:1007B000682F8E819F810E94512003C00E942520B6
:1007C000082FE12FF0E0B8E00B9FE00DF11D1124A0
:1007D000A3E0EE0FFF1FAA95E1F7ED0DF11DEE0F5F
:1007E000FF1FEE50FE4F05911491F701828188237F
:1007F00009F407C7809100018F3F09F444C172E7F3
:10080000C72E71E0D72EA12CB12C992493948091FE
:100810000001082E000C990B8A159B055CF1D6018E
:1008200016968C9116978823F1F019968D919C91CC
:100830001A978017910739F4809190039091910352
:100840008017910781F0F6019786148703878189C5
:10085000811103C0C6010E940025C60106960E94B0
:10086000212510929203FFEFAF1ABF0A26E1C20EB4
:10087000D11CCDCFF801E356FD45EE30F10508F06F
:1008800009C1EA5AFF4F0C94DA2DD70112968C91C8
:10089000882389F08091930385FD05C086EE0E9430
:1008A0008C2184E11BC085EE0E94132186EE0E94FC
:1008B0008C2184E61EC084E10E94132184E60E94FC
:1008C0001321C3C3F70182818823E1F08091930350
:1008D00085FD08C086EE0E948C2184E20E948C2156
:1008E00086EEEDCF85EE0E94132186EE0E948C21CC
:1008F00087E20E948C2186EE0E94132185EE0E94E1
:100900008C21A3C384E20E94132187E2D8CFD701B0
:1009100012968C91882379F08091930385FD05C010
:1009200085EE0E948C2185E29EC086E2E8CFF70129
:100930008281811105C085E20E94132186E2BFCF2A
:100940008091930385FD05C086EE0E948C2185E28F
:10095000C5CF85EE0E94132186EE0E948C2186E28F
:10096000C8CFD70112968C91882389F08091930388
:1009700085FD05C085EE0E948C2184E274C085EE61
:100980000E94132186EE0E948C2180E3B2CF84E284
:1009900045C0F7018281882359F08091930385FD3A
:1009A00005C085EE0E948C2183E25DC082E2A7CF64
:1009B00083E20E94132182E282CFD70112968C91AA
:1009C0008823B1F08091930385FD0DC085E30E94DB
:1009D0000E2285E394CFF7018281882361F0809114
:1009E000930385FD32C38EE20E940E228EE287CFF2
:1009F00085E30E9413218EE262CFD70112968C917B
:100A0000882359F08091930385FD05C085EE0E94EF
:100A10008C2187E228C080E372CF87E20E941321F5
:100A200080E34DCFF7018281882359F080919303B1
:100A300085FD05C085EE0E948C2181E214C080E214
:100A40005ECF81E20E94132180E239CFD701129656
:100A50008C91882399F08091930385FD08C085EEE1
:100A60000E948C2188E30E948C2185EE28CF85EEA0
:100A70000E94132182E30E948C2140CF88E30E94D0
:100A8000132182E31CCFF801E356FD45EE30F1055A
:100A900008F4B3C5C80197558F3F910511F008F0D0
:100AA00053C020910001022E000C330B2817390788
:100AB00014F480930001F701228136E1389F500140
:100AC000399FB00C1124C5018E589E4F6C01DC017A
:100AD00050962C935097928116968C911697992345
:100AE00041F11A961C930E9319978F5F16968C936B
:100AF0000E942B18F601968785878091870287834D
:100B00009091920380919303892B80870190F081CB
:100B1000E02DC50188589E4F309731F0D60154968C
:100B20006D917C91559709951093910300939003D3
:100B30000BC0882349F0F6018189882329F0C5017B
:100B400088589E4F0E942125D70112968C918823A8
:100B500069F0C801825E9C45059740F46EE1600F24
:100B60006093EA028CE090E00E944E2D17FF7EC059
:100B7000F7018281882309F479C00E94AB18869519
:100B80008170809343029091EA02913029F4882386
:100B900019F089E30E940E22809193038093420210
:100BA000109293038091EA02813071F048F0823014
:100BB000A1F08430C1F486EE0E940E2288E111C0BB
:100BC00082EE0E948C210FC088E193E00E94A52A4A
:100BD00088E193E00E948B2A06C082EE0E948C215D
:100BE00087E50E940E228FE39CE90197F1F700C090
:100BF00000005801E894B7F86CE0C62ED12CC5016E
:100C00000C2C02C0969587950A94E2F78F7096EFA8
:100C1000980F963010F0805D01C0895A0E94252AF5
:100C200094E0C91AD108ACEFCA16AFEFDA0639F76B
:100C30008091EA02813039F078F0823069F08430B6
:100C400089F488E20DC08CE20E940E22809143025A
:100C5000882341F089E304C082EE0E94132102C080
:100C60000E940E228091420280939303043FBCE5D0
:100C70001B0741F190F4093DFCE51F07E9F00A3D2F
:100C80002CE5120789F1083D3CE51307B1F506E2B2
:100C900021EE41EE68ED7CE52CC0063F8CE518079F
:100CA000E9F0B0F0073FACE51A0739F507E225EEA9
:100CB00046EE67EF7CE51DC007E225EE45EE69EDE7
:100CC0007CE517C006E221EE40EE64EF7CE511C042
:100CD00007E225EE44EE65EF7CE50BC006E221EE6F
:100CE00042EE66EF7CE505C008E221E045EE6AEDE4
:100CF0007CE5C7010E946C25A8C1F7018281882389
:100D000009F43EC110928F030230FCE51F0708F47E
:100D100021C106312CE5120730F0C8018B5F9C45DC
:100D2000099708F017C10E94830E9093E9028093FF
:100D3000E80200313CE5130709F4C3C008F041C0E4
:100D400008309CE5190709F49AC0F0F40430BCE5BA
:100D50001B0709F487C068F40230FCE51F0709F49B
:100D600077C003301C4509F0E5C08091E80282603D
:100D700076C006303CE5130709F46EC008F07BC06E
:100D80008091E80288606BC00C309CE5190709F47B
:100D900085C068F40A30BCE51B0709F474C008F08C
:100DA00079C00E94DE208091E802806858C00E3031
:100DB000FCE51F0709F476C008F07FC08091E802C7
:100DC0008BC00C3F3CE5130709F44FC018F5033105
:100DD0009CE5190709F47DC078F40131BCE51B07D7
:100DE00009F473C002311C4509F0A4C00E94DE2042
:100DF0008091E8028F7733C00531FCE51F0709F4C5
:100E000072C008F486C00B3F1C4509F093C0809166
:100E1000E9023EC001158DE5180709F45FC058F4DA
:100E20000E3FACE51A0709F444C008F43FC08091B6
:100E3000E90282602DC00230EDE51E0709F475C09D
:100E400008F45DC003301D4509F074C060E06EC059
:100E50008091E802816003C08091E8028061809304
:100E6000E80268C08091E80211C08091E9028260C6
:100E70008093E9025FC08091E8028062F0CF8091A8
:100E8000E8028064ECCF8091E80288608460E7CF5C
:100E90008160EECF8091E8028E7FE1CF8091E80201
:100EA0008D7FDDCF8091E802877FD9CF8091E902E5
:100EB00018C08091E9028D7FDBCF8091E8028F7EA0
:100EC000CECF8091E8028F7DCACF8091E8028F7BE0
:100ED000C6CF8091E802877F8B7FC1CF8091E902E6
:100EE0008D7F8E7FC5CF8091E80282FB222720F97B
:100EF00091E0922790FB82F990FB83F9B0CF80912B
:100F0000E902982F909591708E7F892B90FB81F943
:100F1000AFCF0E94DE208091E80287FB222720F9D4
:100F200091E0922790FB87F99ACF61E08EE090E004
:100F30000E944E2D6091E8021091E90284E090E059
:100F40000E944E2D612F82E290E00E944E2D0E9461
:100F5000DE207BC006312CE5120721F5809193033A
:100F60008A7A91E009F490E090934402882311F08A
:100F700065E301C069E285E492E00E9491180FC028
:100F80000631BCE51B0709F041C08091440288236B
:100F900009F442C365E385E492E00E9484180E944C
:100FA0000C0F53C00B352DE5120751F158F4011504
:100FB0008CE51807B9F00F3D1C4509F078C00E9478
:100FC000940E43C00C35ADE51A07E1F00D351D4513
:100FD00009F06DC08091E90282FB882780F991E0D9
:100FE000892711C00E94DE20EFEFF4E30CE0E1500E
:100FF000F0400040E1F700C000000E94C61725C085
:1010000081E001C080E00E94390F51C080919303BC
:1010100082720D3C3CE5130709F497C3B0F1023D21
:101020008CE5180709F4A1C308F428C3053D2CE595
:10103000120709F4A0C308F434C3063DACE51A074F
:1010400009F49EC30E351D4591F580918502877088
:1010500009F49BC3D70112968C91882309F495C398
:1010600082E02A960FB6F894DEBF0FBECDBFDF91A7
:10107000CF911F910F91FF90EF90DF90CF90BF9095
:10108000AF909F908F900C94530F073CACE51A07DC
:1010900009F447C308F0D0C2043CECE51E0709F48C
:1010A00036C308F0BBC2033C1C4509F406C3D70194
:1010B00012968C9112970C9111961C91882349F0ED
:1010C000C8010E94E01DD82E682FC8010E9451203F
:1010D00004C0C8010E942520D82EE12FF0E0B8E01E
:1010E000DB9EE00DF11D112433E0EE0FFF1F3A955A
:1010F000E1F7E00FF11DEE0FFF1FEE50FE4F85915F
:1011000094910E940A0D8C01982EF701A280C5804F
:10111000C2945FE0C52280918502877099F0AA2071
:1011200089F0812F807F803421F080E2800F883029
:1011300048F082E00E94530F809185028770DD2481
:10114000D3948111D12CB12EB2942FE0B2228B2DE9
:1011500090E08C30910508F011C2FC01EC59FF4F72
:101160000C94DA2D812F807F1F70882311F0129547
:10117000107FAA20B9F0112309F4EBC180E2800F9F
:10118000883010F0911006C080919303182B1093B3
:10119000930305C080919203182B109392030E9431
:1011A0000C0FD7C1802F0E941321112309F4E6C12F
:1011B000005E083010F0911004C0812F0E94050FCE
:1011C00006C01095809192031823109392030E94F9
:1011D0000C0FD4C1812F807F1F70803211F01295C7
:1011E000107F802F992021F0F1E09F1611F130C07F
:1011F000AA20B1F0CC2081F001E0C0120DC0809196
:10120000E90282FDBBC180918702182B181709F4EF
:10121000B5C110938702B2C180918702812B10C0A3
:10122000CC2021F021E0C21609F4A8C10E94FF0ED3
:1012300016C0AA2041F035E03C1508F49FC1812F6B
:101240000E9409219BC184E08C1508F497C107C056
:10125000AA2019F0CC2099F37CC1C11081C1812F43
:101260000E9402218BC1812F837009F069C0A110F7
:1012700089C1902F929596959770990F990F802F0D
:101280008F70882E912CA12CB12C092E04C0880CB3
:10129000991CAA1CBB1C0A94D2F704FF12C04FE091
:1012A00050E060E070E004C0440F551F661F771FD8
:1012B0009A95D2F7DB01CA0180959095A095B095DB
:1012C00003C080E090E0DC0116951695412F437035
:1012D000423019F1C8F400918802109189022091DE
:1012E0008A0230918B02413059F088299929AA2924
:1012F000BB29BC01CD0160237123822393230AC043
:10130000802A912AA22AB32ABC01CD016829792911
:101310008A299B290E94D02035C188299929AA2988
:10132000BB29009188021091890220918A02309194
:101330008B02BC01CD016027712782279327EACF5A
:10134000AA2019F0812F817001C08695882309F4A5
:1013500019C1902F929596959770990F990F802F9C
:101360008F70882E912CA12CB12C092E04C0880CD2
:10137000991CAA1CBB1C0A94D2F704FF12C04FE0B0
:1013800050E060E070E004C0440F551F661F771FF7
:101390009A95D2F7DB01CA0180959095A095B095FA
:1013A00003C080E090E0DC0116951695412F437054
:1013B0004230D9F068F50091E4021091E5022091E5
:1013C000E6023091E702413059F088299929AA298B
:1013D000BB29BC01CD0160237123822393231EC04E
:1013E000802A912AA22AB32A13C088299929AA29D6
:1013F000BB290091E4021091E5022091E6023091B0
:10140000E702BC01CD01602771278227932706C020
:10141000BC01CD01682979298A299B290E947C2059
:10142000B1C01F70AA2039F0812F0E94AF20802FF9
:101430000E940921A7C0802F0E940221812F0E94B3
:101440008A20A0C0802FE2EF9E1609F440C0E91563
:1014500038F0F0EF9F1661F021EF921699F174C009
:1014600033EF9316D9F194EF991609F44EC06CC07E
:10147000AA2019F1A4E0AC1508F480C01F7181E026
:1014800090E0A0E0B0E0AC01BD0104C0440F551FE6
:10149000661F771F1A95D2F78091E4029091E502BA
:1014A000A091E602B091E7028A019B010827192763
:1014B0002A273B27C901B80125C025E02C1508F4CF
:1014C0005DC0DCCFAA2029F0812F8F7130C0AA2007
:1014D000D9F3812F8F710E948A2050C0AA2079F001
:1014E0001F7181E090E0A0E0B0E0BC01CD0104C03C
:1014F000660F771F881F991F1A95D2F703C060E007
:1015000070E0CB010E947C2039C0AA2099F01F71A5
:10151000812F0E94AF208091E90282FD07C038E050
:10152000139FC0011124836080938502812F0E9444
:10153000AF2024C081E00E94530F81E08C15F0F4AD
:1015400082E00E94530F1AC0AA2039F0CC2009F47F
:10155000BBCF802F0E948C2111C0CC2009F4B9CFC1
:10156000893349F49FEFA7EEB3E09150A040B0401B
:10157000E1F700C00000802F0E94132188EF8B0D3F
:10158000843010F40E94AB18DD20A9F08091850210
:1015900080FD11C0F70112828595859585950E9481
:1015A000AF20C7010E949D03809185028595859596
:1015B00085950E948A2085E0F701DE011196019051
:1015C0000D928A95E1F789819A810E942520EA810E
:1015D000F0E008E0809FE00DF11D112483E0EE0FA4
:1015E000FF1F8A95E1F78981E80FF11DEE0FFF1FBC
:1015F000EE50FE4F85919491C8C0E059FF4F0C9476
:10160000DA2DF801E356FD45EE30F10508F042CA47
:10161000E258FF4F0C94DA2D69E2BDCC053C3CE565
:10162000130709F479C0063C1C4509F040CD49E890
:1016300058E262E978E28DC00A3CACE51A0709F489
:101640007AC070F4083CECE51E0709F46FC0093C51
:101650001C4509F02CCD4DE758E261E778E279C0EE
:101660000B3C2CE5120709F46BC00C3C1C4509F03F
:101670001ECD43EC56E264ED76E26BC00F3CACE568
:101680001A0709F46CC008F467C0003DECE51E07BA
:1016900009F468C0013D1C4509F009CD6EE089E000
:1016A0006CC0033D8CE5180709F462C0043D1C457D
:1016B00009F0FDCC61E088E165C08091880380FF7E
:1016C00020C08E7F80938803609188037091890386
:1016D00080918A0390918B030E94B1260E940E266E
:1016E00080914803816080934803EFEFF0E702E0C8
:1016F000E150F0400040E1F700C000000E943026B9
:10170000A4CC81608093880361E086953BC04BED5B
:1017100058E264EE78E21DC044EE58E26BED78E2E8
:1017200018C042E958E269E878E213C041E758E29C
:101730006DE778E20EC049E558E265E678E209C057
:1017400045E658E269E578E204C044ED56E263EC10
:1017500076E20E94082679CC61E081E013C065E062
:1017600082E00BC068E086E008C064E18FE005C05D
:1017700067E185E102C062E289E10E94F62565CC5D
:1017800061E083E20E949B2860CC2A960FB6F89411
:10179000DEBF0FBECDBFDF91CF911F910F91FF90A4
:1017A000EF90DF90CF90BF90AF909F908F90089573
:1017B00080E008959091E80292FF0DC0282F2871D3
:1017C000283019F4877F846006C0282F24712430C4
:1017D00011F48B7F886093FF0DC0282F287128316A
:1017E00019F4877E846106C0282F2471243111F4F6
:1017F0008B7E88612091E90220FF0DC0382F38715F
:10180000383019F4877F816006C0382F317131304C
:1018100011F48E7F886021FF0DC0282F2871283198
:1018200019F4877E816106C0282F2171213111F4BE
:101830008E7E886194FD877E08957F928F929F921D
:10184000AF92BF92CF92DF92EF92FF920F931F93CE
:10185000CF93DF931F92CDB7DEB7762E4A015901A1
:101860006801082F880F110BC8010E94822C892B58
:1018700009F07EC08AE0809FF001819FF00D112465
:10188000EE5FFE4F458150E04115510511F041E0FA
:1018900050E08AE0809FF001819FF00D1124EE5FFF
:1018A000FE4F6681778164537D4FCE0101960E9481
:1018B000372EF40140815181628173812FB7F894F2
:1018C0008091A0029091A102A091A202B091A302E6
:1018D0002FBF841B950BA60BB70B84369105A10572
:1018E000B10540F4B701C6010E94DF25998189172F
:1018F00009F440C0072D770C110BC8010E94822CFF
:10190000892B09F5E114F10401F18AE0809FF001CF
:10191000819FF00D1124EE5FFE4F458150E0E416EB
:10192000F50608F4A7018AE0809FF001819FF00D81
:101930001124EE5FFE4F6681778164537D4FC501B0
:101940000E94372E02C010E001C011E0B701C601AD
:101950000E94DF2591E02981281390E0192381F06E
:101960000E941F18F401608371838283938308C0EF
:1019700010E001C011E0A701B601C5010E94372E99
:10198000812F0F90DF91CF911F910F91FF90EF90DA
:10199000DF90CF90BF90AF909F908F907F900895F1
:1019A00080919802811118C08091D8008061809345
:1019B000D8008AE18A95F1F700C08091D90080FDB6
:1019C00002C082E001C081E080939802823021F45D
:1019D0000E9473161092B10281E0909198029130AA
:1019E00009F080E00895F894E82FE295EF70F0E0B8
:1019F00031A1282F2F7081E090E001C0880F2A9537
:101A0000EAF7982F9095932391A392A1892B82A313
:101A100078940895CF93DF938238910569F1B0F4FB
:101A20008133910509F46FC048F48932910509F4B6
:101A300065C08A32910509F46BC06FC0853391058A
:101A400009F457C089339105B9F067C0833E910509
:101A500071F138F4803E9105B1F0823E910511F1AB
:101A60005CC0863E9105B9F1873E9105C9F1843E7F
:101A7000910509F052C024C02091E80220FD2AC13E
:101A800021FD28C14AC08091E80280FD1DC18091DE
:101A9000E90280FF1FC18091E80284FD12C183EE3C
:101AA00090E02CC18091E80282FF11C1F4CF8091B7
:101AB000E80282FD0CC18091E90280FD0BC1EBCFF1
:101AC0008091E90281FF0CC18091E80284FDF9C098
:101AD00087EE90E013C18091E80283FFFEC0F4CF4F
:101AE0008091E80283FDF9C08091E90281FDF8C090
:101AF000EBCF8091E80285FDF6C0F8C08091E80246
:101B000085FDF4C0F0C08091E80286FDF2C0F4C00B
:101B10008091E80286FDF0C0ECC0811523E59207B4
:101B2000A8F5811532E5930708F099C0811540E2C8
:101B30009407D0F4811521E0920708F0DFC0853AC0
:101B4000910550F48430910508F0D8C0019709F050
:101B5000B8C081E090E0D2C09C01205E31092830FD
:101B6000310508F0AEC0CAC0811531E5930708F011
:101B700071C0811540E5940708F04EC0811520E43E
:101B8000920708F49EC09F70906AB8C0EC0181155E
:101B900036E59307F0F4811545E5940708F078C021
:101BA000C11584E5D80708F06EC09E012370332765
:101BB00081E090E002C0880F991F2A95E2F7C69550
:101BC000C69520E2C29FE00111248C2B9D2B9A68C0
:101BD00095C081152AE5920778F4811539E59307B8
:101BE00008F05EC0811548E5940708F46AC0982F94
:101BF0008827806F906A82C090568115904208F0C5
:101C000060C08D2F8F710E94DA0B282F2F71CE01AB
:101C100099279062922B72C09C0174E036952795AB
:101C20007A95E1F7922F9370482F437021E030E0CE
:101C300002C0220F331F4A95E2F73C68392B8F70A0
:101C4000982F9695969540E2949FC0011124822B7F
:101C5000932B54C0982F8827816F906A4FC0AC0196
:101C60004370552721E030E002C0220F331F4A9510
:101C7000E2F78695869540E2849FC0011124822B6D
:101C8000932B9C683BC09C2F8827846F906A36C03A
:101C90000E94DA0B8F7190E0982F882790622EC0F7
:101CA0008F700E94DA0B94E0D695C7959A95E1F76C
:101CB000CF70D0E0DC2FCC27D0699E01282BC90142
:101CC0001DC080E090E01AC089E390E017C082EE6A
:101CD00090E014C080EE90E011C086EE90E00EC05F
:101CE00084EE90E00BC089E290E008C085E390E0CC
:101CF00005C08AE290E002C081E390E0DF91CF91DD
:101D000008950C941F18CF9384E090E00E943A2D20
:101D1000C82F82E290E00E943A2D2C2F30E0A901DA
:101D2000582BCA01CF91089569EE7EEF80E090E0D4
:101D30000E946C2D60E082E090E00E944E2D60E0F9
:101D400083E090E00E944E2D10928802109289024A
:101D500010928A0210928B0260E084E090E00E9470
:101D60004E2D60E082E290E00E944E2D60E085E022
:101D700090E00E944E2D60E086E090E00E944E2DA3
:101D80006FEF87E090E00E944E2D40E050E0BA01F6
:101D900088E090E00E94602D60E08DE090E00E947D
:101DA0004E2D40E050E0BA0188E190E00E94602DA5
:101DB00060E087E190E00E944E2D40E050E0BA01E3
:101DC0008CE190E00E94602D60E070E080E290E0A5
:101DD0000E946C2D40E050E0BA0188E190E00E9442
:101DE000602D40E050E0BA018FE090E00E94602D4D
:101DF00040E050E0BA0183E190E00C94602D8091C6
:101E00008702811110928702089580959091930323
:101E10008923809393030895909193038091920373
:101E2000892B20918602982F922B909345028091C6
:101E30008702882389F0892B80934502E7E4F2E04A
:101E400097E080E0915029F021912223D9F38F5F10
:101E5000F9CF81110E94FF0EE0919902F0919A0250
:101E6000309731F00280F381E02D85E492E009940F
:101E70000895CF93C091E902C2FB992790F9981772
:101E800081F080FBC2F9C093E9026091E80284E02E
:101E900090E00E944E2D6C2F82E290E0CF910C9446
:101EA0004E2DCF91089520918502809582238093B5
:101EB0008502982F977041F430E0482F082E000CCF
:101EC000550B2417350721F49091E90292FF07C0C2
:101ED0008595859585950E948A20109285020895A2
:101EE0008091840290915302891719F08F5F877057
:101EF000FBCF08950F931F93CF93DF9380915202EE
:101F000082958F7009F05DC080914F02882309F49B
:101F100058C0809184021091530260914D027091DB
:101F20004E02C0915002D091510291E06F3F09F0F2
:101F300090E0292F06E0811709F443C0209721F093
:101F40007F3F21F030E003C031E001C0322F90E04C
:101F500030FD34C0089FF001099FF00D1124DF010E
:101F6000AC5ABD4F11963C911197371327C03C9145
:101F7000361324C012963C91129731111FC013964C
:101F80004D915C9114974C1B5D0B4F3A5105B0F489
:101F9000809152028F70806180935202E75AFD4F08
:101FA00080818F70806180838DE492E00E949D0328
:101FB000DF91CF911F910F910C94700F0196877054
:101FC000BACFDF91CF911F910F9108957F928F9299
:101FD0009F92AF92BF92CF92DF92EF92FF920F93B8
:101FE0001F93CF93DF93CDB7DEB72C970FB6F8943E
:101FF000DEBF0FBECDBF9E012F5F3F4F790188E04E
:10200000D9011D928A95E9F70AEF11E069012EEFD7
:10201000822E21E0922EAA24A394B12CF801808173
:102020008F3F09F448C0F894E82FE295EF70F0E094
:1020300021A18F70A50102C0440F551F8A95E2F7B8
:10204000CA01922F982B91A392A18095892382A3F4
:10205000789400C0E2E0F2E020E030E0712C819161
:102060008F3FB9F0A82FA295AF70B0E090964C9139
:1020700050E08F70DA0102C0B595A7958A95E2F716
:10208000A0FD07C08A2D022E01C0880F0A94EAF72E
:1020900001C080E0782A2F5F3F4F28303105F9F6E4
:1020A000F80180818F3F11F00E94F30CF0EAFA955D
:1020B000F1F7D6017C920F5F1F4FBFEFCB1ADB0AFF
:1020C0008016910609F0AACF48E050E0B7018EEEE5
:1020D00092E00E942A2E8C01892B41F088E0F701C2
:1020E000AEEEB2E001900D928A95E1F7F090F70222
:1020F0000115110549F081E080938E020E942B1892
:1021000090938D0280938C0280918E028823B9F087
:1021100080918C0290918D020E941018059778F0A2
:10212000AEEEB2E0EF2DF0E0E650FD4F82EF92E030
:102130002D9121938A179B07D9F710928E020115D2
:10214000110509F087C10E94D00CE091F7028823A5
:1021500009F4D7C019861A861B861C860E2F10E03C
:1021600006501D4F8091E302FE013D967F018A30AB
:1021700058F447ED59E1BE01675F7F4FC8010E94E7
:102180009F1D882361F10AC080918F029091900277
:102190000E941018843F914060F732C041E859E135
:1021A000BE01675F7F4FC8010E949F1D8823B9F061
:1021B00047E259E1BE01675F7F4FC8010E949F1D42
:1021C000882369F04BEB58E1BE01675F7F4FC80180
:1021D0000E949F1D882319F01092E30219C080917C
:1021E000E3028F3F19F08F5F8093E3028091E30257
:1021F0008A3070F00E942B189093900280938F0287
:10220000E091F602F0E0E650FD4FDE01199614C0B1
:10221000E091F602F0E0E650FD4FDE011996D12C78
:102220008D919081981719F08083DD24D394319695
:10223000AE15BF05A9F707C011921D92EA16FB065D
:10224000D9F7DD24D394809100018F3F59F1C12C3F
:1022500096E1B92E1DC0BE9CF001BF9CF00D11246B
:10226000EE58FE4F828893888114910419F48FEA06
:10227000882E912CBE9C8001BF9C100D11240E58FD
:102280001E4FD80116968C911697811110C0C394D9
:10229000EC2CF12C80910001082E000C990B8E156E
:1022A0009F05CCF680919302882349F11AC01D96B0
:1022B0008D919C911E970E9410188816990638F7E8
:1022C000F8018189811103C0C8010E940025BE9CCC
:1022D000C001BF9C900D112488589E4F0E9421255B
:1022E000D6CF80919102909192020E941018833E65
:1022F000944028F080EE0E941321109293020D2D3D
:10230000ABC0F0E0E650FD4FF89484E0ADECB2E0F5
:1023100001900D928A95E1F764E070E08DEC92E017
:102320000E94DF258093CC027894F894E091080312
:10233000F0E0EB5FFC4F808189878093D20261E0FF
:1023400070E0CE0109960E94DF258093D102789437
:10235000F894C090D302D090D402E090D502F090CF
:10236000D6028091940290919502A0919602B0912C
:102370009702C816D906EA06FB06D1F0C09294026D
:10238000D0929502E0929602F09297020E94D00CB1
:1023900081110EC00E941F18C61AD70AE80AF90A4E
:1023A000C0929B02D0929C02E0929D02F0929E020B
:1023B0007894F8948091DE02882309F449C080FF64
:1023C00024C09091D7028091880390FF09C081605A
:1023D0008093880360E0892F86950E949B2815C012
:1023E0008E7F809388030E940E268091480381602F
:1023F000809348032FEF30E742E0215030404040C7
:10240000E1F700C000000E9430268091DE0281FFCB
:1024100009C020E04091DA026091D9028091D8028F
:102420000E94B0278091DE0282FF09C08091DD0208
:10243000882319F00E94152602C00E940E26809162
:10244000DE0283FF03C081E0809343031092DE022B
:10245000789402C001E010E0802F2C960FB6F8941B
:10246000DEBF0FBECDBFDF91CF911F910F91FF90C7
:10247000EF90DF90CF90BF90AF909F908F907F9024
:102480000895982F973068F59093E900981739F0E0
:102490005091EC002091ED004091F00003C0562FC8
:1024A00040E022E021FD02C09F5FECCF3091EB00C5
:1024B0003E7F3093EB003091ED003D7F3093ED0097
:1024C0003091EB0031603093EB005093EC0020939F
:1024D000ED004093F0002091EE0027FDE5CF80E075
:1024E00008958F708093E90081E008952091E400C1
:1024F0003091E50095E64091EC00842F817040FF1B
:1025000023C08091E80080FD1DC08091B102882326
:1025100099F0853099F08091EB0085FD11C04091D4
:10252000E4005091E5002417350729F3915011F08C
:102530009A01E1CF84E0089582E0089583E0089550
:1025400081E0089580E008954091E80042FFDDCFEA
:1025500008950F931F93CF93DF938C010E947612FF
:10256000811118C0E80108E010E08091E80085FDC5
:102570000AC08091E8008E778093E8000E9476126E
:10258000882399F307C089918093F10001501109C4
:1025900061F780E0DF91CF911F910F9108958091B5
:1025A000B30287FF11C08091E80082FD05C08091D1
:1025B000B1028111F8CF11C08091E8008B770BC078
:1025C0008091B102882349F08091E80080FFF8CF24
:1025D0008091E8008E778093E80008952091B902F9
:1025E0003091BA022617370748F06115710539F4A2
:1025F0002091E8002E772093E80001C0B901FC018A
:1026000020E06115710579F18091B1028823F1F123
:102610008530F1F18091E80083FD3CC08091E800B5
:1026200082FD2EC08091E80080FFEBCF2091F30067
:102630008091F20090E0922B6115710551F0883085
:10264000910538F421912093F100615071090196B0
:10265000F3CF21E0089709F020E08091E8008E7721
:102660008093E800CECF2111CFCF0AC08091B10274
:10267000882361F0853061F08091E80083FD0AC015
:102680008091E80082FFF2CF80E0089582E0089513
:1026900083E0089581E00895089508950895809154
:1026A000A6020895CF93DF9321E02093E9002FEF56
:1026B0003091E800215035FD06C035ED3A95F1F72F
:1026C00000002111F5CF2091E80025FF14C0EC0196
:1026D00040E050E068E070E00E94A9128091E800BC
:1026E0008E778093E80088E0FE01A7EAB2E00190CF
:1026F0000D928A95E1F7DF91CF9108951F93CF93C3
:10270000DF93CDB7DEB7AA970FB6F894DEBF0FBE42
:10271000CDBFE3EBF2E08091F100819322E0EB3B4F
:10272000F207C9F78091B402833009F460C030F435
:10273000813071F0823009F49AC0B1C08A3009F456
:1027400086C08B3009F46BC0893009F0A8C020C066
:102750008091B302813A09F0A2C08091E800877F9E
:102760008093E8008091B7029091B802892B21F400
:1027700068E087EA92E003C060E080E090E070E00B
:102780000E94EE128091E8008B778093E80087C06A
:102790008091B302813209F082C08091B70290919A
:1027A000B802892B09F07BC08091E800877F809375
:1027B000E8008091E80082FD05C08091B10281119E
:1027C000F8CF6DC02091F3008091F20090E0922B41
:1027D000029729F48091F1008B7F813021F4809160
:1027E000F1008093A6028091E8008B7754C080911D
:1027F000B302813A09F053C08091B7029091B802B8
:10280000892B09F04CC08091E800877F8093E80015
:102810008091E80080FFFCCF8091010137C080915A
:10282000B3028132E1F58091B7029091B802892B11
:10283000B1F58091E800877F8093E8000E94CF1275
:102840008091B502809301010E94DE2028C0809112
:10285000B302813221F58091E800877F8093E80000
:102860000E94CF128091B6028093A50218C0809179
:10287000B302813AA1F48091E800877F8093E80059
:102880008091E80080FFFCCF8091A5028093F10049
:102890008091E8008E778093E8000E94CF128091AB
:1028A000E80083FFB4C18091B3029091B402492F34
:1028B00050E04A30510508F0AAC1FA01E457FF4F31
:1028C0000C94DA2D803821F0823809F0A0C108C0BC
:1028D0008091AF029091B002992389F082600FC07D
:1028E0008091B7028F70873008F091C18093E90022
:1028F0008091EB0085FB882780F91092E900909188
:10290000E800977F9093E8008093F1001092F10027
:1029100053C1282F2D7F09F07AC1882319F0823006
:1029200061F075C18091B502813009F070C19330BA
:1029300009F080E08093B0022EC08091B502811131
:102940002AC08091B7028F702FEF280F263008F031
:102950005EC18093E9002091EB0020FF1CC0933002
:1029600021F48091EB00806214C09091EB009061A3
:102970009093EB0021E030E0A90102C0440F551F05
:102980008A95E2F74093EA001092EA008091EB000A
:1029900088608093EB001092E9008091E800877FC7
:1029A0000EC1811134C11091B5021F778091E300EF
:1029B0008078812B8093E3008091E800877F80936B
:1029C000E8000E94CF128091E80080FFFCCF809148
:1029D000E30080688093E300111102C082E001C02F
:1029E00083E08093B10213C18058823008F00FC198
:1029F0008091B5029091B6028C3D53E0950779F530
:102A000083E08A838AE289834FB7F894DE011396C4
:102A100020E03EE051E2E32FF0E050935700E491D4
:102A200020FF03C0E295EF703F5FEF708E2F90E0C4
:102A3000EA3010F0C79601C0C0968D939D932F5F2A
:102A4000243149F74FBF8091E800877F8093E800E9
:102A50006AE270E0CE0101960E94EE129CC04091A5
:102A6000B7025091B802292F332723303105A9F03E
:102A700068F42130310509F4D9C02230310509F05C
:102A8000C6C082E290E0E8E8F1E032C021323105D0
:102A900021F12232310529F1BAC0992781309105FF
:102AA000A1F058F0029709F0B2C0ECEBF1E0E4912C
:102AB0008E2F90E0ECEBF1E018C0ECEDF1E0E4914A
:102AC0008E2F90E0ECEDF1E010C0EAECF1E0E49143
:102AD0008E2F90E0EAECF1E008C0452B09F4ABC082
:102AE00096C0452B09F4ACC092C0009709F48FC082
:102AF0002091E800277F2093E8002091B9023091CF
:102B0000BA028217930708F49C0140E021153105B1
:102B100089F18091B102882309F43DC08530D9F153
:102B20008091E80083FD37C08091E80082FD2FC0CE
:102B30008091E80080FFEACF4091F3008091F2009D
:102B400090E0942B2115310559F08830910540F41F
:102B500044914093F1003196215031090196F2CF12
:102B600041E0089709F040E08091E8008E7780937B
:102B7000E800CCCF4111CDCF0AC08091B1028823AB
:102B800051F0853041F08091E80083FD04C08091D0
:102B9000E80082FFF2CF8091E8008B778093E80015
:102BA00036C08038A1F58091E800877F8093E800E7
:102BB0008091B2028093F1008091E8008E7780933B
:102BC000E8000E94CF1223C0811121C08091B5027C
:102BD0009091B60299270297D4F48091E800877FFC
:102BE0008093E8001091B5021093B2020E94CF12B8
:102BF000111106C08091E30087FD02C081E001C091
:102C000084E08093B10261EC81E00E9441128091E6
:102C1000E80083FF1AC08091E800877F8093E80076
:102C20008091EB0080628093EB000FC082E190E026
:102C3000EAEAF1E05DCF89E090E0EAE9F1E058CF1F
:102C400080E490E0E8E4F1E053CFAA960FB6F89460
:102C5000DEBF0FBECDBFDF91CF911F9108951F92B0
:102C60000F920FB60F9211242F933F934F935F93C0
:102C70006F937F938F939F93AF93BF93CF93DF9384
:102C8000EF93FF93C091E900CF708091EC00D82FB3
:102C9000D17080FDD0E81092E9008091F000877F2C
:102CA0008093F00078940E947E131092E900809146
:102CB000F00088608093F000CD2BCF70C093E900C6
:102CC000FF91EF91DF91CF91BF91AF919F918F9144
:102CD0007F916F915F914F913F912F910F900FBE18
:102CE0000F901F901895E8EDF0E080818E7F808333
:102CF0001092E2001092DA001092E100A0EEB0E033
:102D00008C9181608C9380818F77808319BCA7ED33
:102D1000B0E08C918E7F8C9380818F7E8083109227
:102D2000A4020895CF92DF92EF92FF920F931F9328
:102D3000CF93DF93C8EDD0E088818F7E8883E7ED65
:102D4000F0E080818160808384E082BF81E08093B5
:102D5000A40288818E7F888302EE10E0F801108241
:102D60001092DA0081EEC82ED12CF60110828881F3
:102D70008F77888388818068888388818F7D888326
:102D800019BC1092B1021092B2021092B0021092CD
:102D9000AF0290EEE92EF12CF70180818B7F8083CA
:102DA00088818160888360E080E00E944112F601A2
:102DB00080818E7F8083F801808181608083808123
:102DC00088608083F70180818E7F80838881806125
:102DD0008883DF91CF911F910F91FF90EF90DF904B
:102DE000CF9008951F920F920FB60F9211242F9338
:102DF0003F934F935F936F937F938F939F93AF9383
:102E0000BF93EF93FF938091E10082FF09C080910F
:102E1000E20082FF05C08091E1008B7F8093E1009A
:102E20008091DA0080FF2AC08091D80080FF26C000
:102E30008091DA008E7F8093DA008091D90080FF44
:102E400018C080E189BD82E189BD09B400FEFDCFD3
:102E500081E08093B1028091A40281110FC00E9491
:102E600073160E9492168091E20084608093E200C3
:102E700005C019BC1092B1021092A4028091E10029
:102E800080FF17C08091E20080FF13C08091E200B4
:102E90008E7F8093E2008091E20080618093E20067
:102EA0008091D80080628093D80019BC85E080931F
:102EB000B1028091E10084FF2EC08091E20084FF86
:102EC0002AC080E189BD82E189BD09B400FEFDCF41
:102ED0008091D8008F7D8093D8008091E1008F7E13
:102EE0008093E1008091E2008F7E8093E2008091E8
:102EF000E20081608093E2008091B202882311F0A9
:102F000084E007C08091E30087FD02C081E001C03A
:102F100083E08093B1028091E10083FF26C080911D
:102F2000E20083FF22C08091E100877F8093E1006F
:102F300082E08093B1021092B2028091E1008E7F14
:102F40008093E1008091E2008E7F8093E200809187
:102F5000E20080618093E20060E080E00E94411224
:102F60008091F00088608093F000FF91EF91BF9115
:102F7000AF919F918F917F916F915F914F913F9111
:102F80002F910F900FBE0F901F90189581E08093A6
:102F9000E00080E28093D8001092C9008FE19EE4A7
:102FA0000197F1F700C0000087E090EBDC0180930F
:102FB000940390939503A0939603B09397039CE09A
:102FC00088E10FB6F894A895809360000FBE9093A7
:102FD0006000FFCF78941F920F920FB60F921124CA
:102FE0008F939F93AF93BF938091A0029091A10282
:102FF000A091A202B091A3020196A11DB11D8093E0
:10300000A0029093A102A093A202B093A302BF9149
:10301000AF919F918F910F900FBE0F901F901895B9
:103020009C014FB7F8948091A0029091A102A091C9
:10303000A202B091A3024FBF821B930B08952FB73A
:10304000F8946091A0027091A1028091A2029091E7
:10305000A3022FBF08952FB7F8948091A0029091FA
:10306000A102A091A202B091A3022FBF08951F92C6
:103070000F920FB60F9211248F939F93AF93BF932C
:1030800080919F02811113C08091A0029091A102B2
:10309000A091A202B091A3024196A11DB11D8093FF
:1030A000A0029093A102A093A202B093A302BF91A9
:1030B000AF919F918F910F900FBE0F901F90189519
:1030C0000F931F930E94D00C882321F01F910F9122
:1030D0000C941F180E941F1800919B0210919C02D3
:1030E00020919D0230919E02600F711F821F931FDD
:1030F0001F910F9108950E94D00C81110C942B18F0
:103100000E946018CB0108959C012A5F3F4FFC018B
:103110004281461301C01282019682179307B9F7C4
:1031200008959C01FC0132969FEF80E04191461783
:1031300089F09F3F19F4411101C0982F8F5F8630AD
:10314000A9F79F3F39F0F901E90FF11D97FDFA95B5
:103150006283089508950E94D00C882351F0E09175
:103160009902F0919A02309721F00190F081E02DC0
:10317000099480E00895CF93DF93CDB7DEB7289709
:103180000FB6F894DEBF0FBECDBF85E0E8E8F3E0F0
:10319000DE01119601900D928A95E1F78091460328
:1031A00090914703A09148038E839F83A887288529
:1031B0004091DF025091E0026091E1027091E202E1
:1031C0003FB7F8948091A0029091A102A091A20231
:1031D000B091A3023FBF841B950BA60BB70B84369F
:1031E0009105A105B10510F4222329F18091370141
:1031F0009091380184539D4F4091360150E0493001
:10320000510510F048E050E0BE016F5F7F4F0E9413
:10321000372E85E090E00E94822C892B11F080E00F
:103220000DC00E941F186093DF027093E00280932C
:10323000E1029093E2021092480381E028960FB6D3
:10324000F894DEBF0FBECDBFDF91CF910895CF932D
:10325000DF9300D000D0CDB7DEB74091C8025091C7
:10326000C9026091CA027091CB022FB7F894809185
:10327000A0029091A102A091A202B091A3022FBF3F
:10328000841B950BA60BB70B84369105A105B105E0
:1032900080F10E946018DC01CB010296A11DB11DD6
:1032A00089839A83AB83BC8380912D0190912E01F9
:1032B00084539D4F40912C0150E04530510510F052
:1032C00044E050E0BE016F5F7F4F0E94372E84E0E4
:1032D00090E00E94822C892B11F080E00BC00E94AC
:1032E0001F186093C8027093C9028093CA0290931A
:1032F000CB0281E00F900F900F900F90DF91CF9154
:103300000895CF92DF92EF92FF920F931F93CF9386
:10331000DF931F92CDB7DEB7EE24E394F12C02EDDC
:1033200012E09E012F5F3F4F44EC52E063E082E0E9
:103330000E941D0CC82E882379F1D090F9028D2DA2
:1033400090E09C012B5F3C4F79011981F90180814C
:10335000181B012F80E010165CF40150F7018081EA
:103360008F5F808360E08D2D0E94BE2A81E0F3CFC5
:10337000912F17FD90E0191B112359F01F5FF701E2
:1033800080818150808361E08D2D0E94BE2A81E082
:10339000F3CF81110E94810E8C2D0F90DF91CF9180
:1033A0001F910F91FF90EF90DF90CF900895CF92F3
:1033B000DF92EF92FF920F931F93CF93DF9300D092
:1033C00000D0CDB7DEB76B0184E0E82EF12C0DEC18
:1033D00012E09E012F5F3F4F40EC52E061E080E041
:1033E0000E941D0C882361F049815A816B817C8188
:1033F0004093BC025093BD026093BE027093BF0223
:103400004091BC025091BD026091BE027091BF021A
:10341000F60140835183628373830F900F900F9066
:103420000F90DF91CF911F910F91FF90EF90DF9060
:10343000CF900895CF93DF93CDB7DEB72A970FB61D
:10344000F894DEBF0FBECDBF84B7877F84BF0FB6B1
:10345000F894A89580916000886180936000109234
:1034600060000FBE90E080E80FB6F8948093610092
:10347000909361000FBE85B7806885BF85B780686F
:1034800085BF88ED9BE090934102809340020E94AB
:1034900073160E9492168091E20084608093E2008D
:1034A00078948091B1028823A1F01091E9001F70F7
:1034B0009091EC00892F817090FD80E8182B10927C
:1034C000E9008091E80083FD0E947E131F70109335
:1034D000E90082E084BD93E095BD9AEF97BD8093AB
:1034E0006E0010929B0210929C0210929D0210920C
:1034F0009E020E94D00C80933E0180913E01882361
:1035000021F010926D018AE003C08AE080936D0182
:1035100080936E010E94D00C81110E94752B8091C6
:103520003E0180913E01811102C094E001C090E013
:103530009093F70284E0891B8093F6020AEF11E072
:103540009EEFE92E91E0F92EF80181918F018F3FD6
:1035500011F00E94F30CE016F106B1F702E012E060
:103560008AE0E82E82E0F82EF80181918F018F3FEA
:1035700011F00E94F30CE016F106B1F7EEEEF2E066
:1035800086EF92E0AAEFB2E011921D928E179F078C
:10359000D9F780E090E00E94482D893E9E4F11F0BF
:1035A0000E94940E82E090E00E943A2D80930B03DB
:1035B0000E94830E9093E9028093E8020E94E60F36
:1035C0008FE39CE90197F1F700C000000E94E60F2D
:1035D0008091FA0280FF08C06FEF7FEF80E090E0FB
:1035E0000E946C2D0E94C61783E090E00E943A2D45
:1035F000682F70E080E090E00E94D0208CE090E0A6
:103600000E943A2D90E0A0E0B0E08093EA0290930F
:10361000EB02A093EC02B093ED020E94D00C81115A
:1036200002C00E94782B8091F80281113BC080E09B
:1036300090E00E94482D893E9E4F21F00E94940EFA
:103640000E94E52688E090E00E94422D6093880366
:103650007093890380938A0390938B03809148032E
:103660008360809348036E7F71F40E94E52688E0B2
:1036700090E00E94422D60938803709389038093A9
:103680008A0390938B030E9497260E940E268091B6
:10369000880380FF04C060E086950E949B2881E03B
:1036A0008093F80280913E01811106C085E38093EA
:1036B0004A0186E68093490120914A01E22FE29572
:1036C000EF70F0E031A12F7081E090E0AC01022EAC
:1036D00001C0440F0A94EAF7542F5095352331A3C3
:1036E00032A1432B42A340914901A42FA295AF7070
:1036F000B0E091963C9191974F70042E01C0880FD5
:103700000A94EAF7982F9095932391969C9391971A
:1037100092969C919297892B92968C93929780A1E6
:1037200090E002C0959587952A95E2F78170909672
:103730002C9130E002C0359527954A95E2F720FD9F
:1037400002C090E001C092E0892B80930903909120
:103750003E0181E0982790930803891B8093F9022A
:103760008FE391E090939A0280939902F8E1EF2E13
:10377000F12CA0E46A2EB2E0CB2EB3E0DB2E10E1F8
:10378000712E8091B102853009F03EC012E1809126
:10379000B102853009F034C08091B102843009F162
:1037A00010929F020FB6F894A895E09260000FBEA9
:1037B0006092600083B7817F846083BF83B781603C
:1037C00083BF7894889583B78E7F83BF0FB6F894B4
:1037D000A8958091600088618093600010926000DD
:1037E0000FBE8091B002882391F20E94E60FEAEFAB
:1037F000F2E0819181118DC1CE16DF06D1F7C7CFDE
:103800000E94DE200E94AB180E94E60F81110E94E8
:103810001F18ECE0F3E0AAEFB2E000E010E0802E29
:103820009D908191892549F1A12CBB24B394982FB7
:103830009B21F1F00E94D00C882399F0A9828A8202
:103840009B2081E009F480E08B830E942B1881602B
:10385000782F9D838C8349815A816B818D810E9451
:103860007D29F801E45FFC4F8081B826B0821AC040
:10387000A394BB0C28E0A212DACF0F5F1F4F0830D1
:10388000110569F68FEF8E838F8318860E942B189F
:103890008160782F9A8789874E815F8168858A85C4
:1038A0000E947D2980914703882309F4BDC080913F
:1038B0004603E0918803E695E81BE09342038230DB
:1038C00059F4F0E0E251FE4FE4910E2F10E0ECEEDF
:1038D000AE2EE4E2BE2E59C0863059F4F0E0E55138
:1038E000FE4FE4910E2F10E07CEDA72E74E2B72E70
:1038F0004CC0893061F4E695F0E0E851FE4FE49168
:103900000E2F10E06EE5A62E64E2B62E3EC08F307C
:1039100061F4E695F0E0EB51FE4FE4910E2F10E0DC
:103920005FEBA52E53E2B52E30C0853159F4F0E09F
:10393000EE51FE4FE4910E2F10E046E3A42E43E239
:10394000B42E23C08831A1F0833249F4E0EEF1E0D7
:10395000059114913CE9A32E34E2B32E16C08432B3
:1039600071F404EF11E02EE5A22E22E2B22E0DC07A
:1039700008E210E090EAA92E92E2B92E06C000ED0E
:1039800017E08CE2A82E82E2B82E809143038823B0
:1039900061F0109243030E947B189093410380933F
:1039A000400310924503109244030E947B18E0915B
:1039B0004003F09141039C012E1B3F0B2F3F3F47DB
:1039C00098F5209104032223B1F010920403209172
:1039D000020330910303821B930B8F3F9F4758F4E0
:1039E000205D3A48309303032093020380914803FB
:1039F00088608093480380904403909045030E0FA5
:103A00001F1F109341030093400380E493E0F501EE
:103A100009958091440390914503892B29F48928C5
:103A200019F081E080930403E09109035E2F550FA4
:103A3000550F20914A01E22FE295EF70F0E080A14E
:103A400090E02F7002C0959587952A95E2F78170D6
:103A5000992740914901E42FE295EF70F0E020A111
:103A600030E04F7002C0359527954A95E2F7F9018D
:103A7000E170FF2720FF02C0E2E0F0E0E82BF92B25
:103A8000E52BE093090310910803EF70F0E0E65F87
:103A9000FD4F908180910703890F80930703843045
:103AA0006CF0E12FF0E0EB5FFC4F80818F5F808353
:103AB00060E0812F0E94BE2A21E001C020E08091B9
:103AC00007038D3F64F4E12FF0E0EB5FFC4F808152
:103AD0008150808361E0812F0E94BE2A21E0809185
:103AE0000703082E000C990B64E070E00E94A42DDF
:103AF0008093070321110E94810E0E94AB189091C0
:103B00000A03891709F43DCE0E94AB1880930A037B
:103B100038CE79BC19BD09B400FEFDCF8091D80024
:103B20008F7D8093D8008091E00082608093E000D8
:103B30008091E00081FDFCCF0E94DE2028CEAF9274
:103B4000BF92CF92DF92EF92FF920F931F93CF938A
:103B5000DF937C015B016A018091E3028A3018F0F7
:103B600001E010E002C00AE010E0C1E0D0E0F8940B
:103B7000B501C701F60109957894811115C0219608
:103B80000C171D0794F0CC9F9001CD9F300D300D88
:103B9000112480E090E045E34A95F1F7000001969A
:103BA00082179307C1F7E3CF81E0DF91CF911F9197
:103BB0000F91FF90EF90DF90CF90BF90AF9008955E
:103BC0008F929F92AF92BF92EF92FF920F931F93AB
:103BD000CF93DF938090E4029090E502A090E602FC
:103BE000B090E702409188025091890260918A0268
:103BF00070918B02842A952AA62AB72ACFE1D0E0B9
:103C0000E92EF12C082F10E0D501C4010C2E04C0C0
:103C1000B695A795979587950A94D2F780FD04C02D
:103C2000219790F780E01AC0FE0183E0EE0FFF1F9E
:103C30008A95E1F7EE0DFF1D93E0EE0FFF1F9A95B9
:103C4000E1F7E00FF11FEE0FFF1FEE50FE4F8591E1
:103C500094910E940A0D019719F38C2FDF91CF9157
:103C60001F910F91FF90EF90BF90AF909F908F901A
:103C70000895CF93DF93D82FC92F0E94E01DEC2F1A
:103C8000F0E098E0899FE00DF11D112483E0EE0F34
:103C9000FF1F8A95E1F7ED0FF11DEE0FFF1FEE50AC
:103CA000FE4F859194910E940A0DDF91CF91089566
:103CB000FC01808191810E94391E292F2F70E92FEC
:103CC000E295EF704E2F50E0FA013297EE30F10599
:103CD000B8F4EA56FF4F0C94DA2D803F99F018F4AF
:103CE000883E70F40FC0843F59F40CC0883E50F0F9
:103CF000813F31F407C0822F869586958695089579
:103D000080E0089581E008959F92AF92BF92CF9294
:103D1000DF92EF92FF920F931F93CF93DF93CDB774
:103D2000DEB761970FB6F894DEBF0FBECDBF8C0132
:103D300085E0F801DE011D9601900D928A95E1F76C
:103D4000F801E28090914D0260914E024091500244
:103D5000509151024115510531F06F3F31F481E02E
:103D60009F3F19F403C081E001C080E0F82FF1709B
:103D70009F2E80FD1AC1F80130812181C380D4803B
:103D80008DE4A82E82E0B82EF0904F02F601E41BDD
:103D9000F50BFF2009F4C6C080915202EF3AF105FD
:103DA00008F091C0482F407F09F050C0621311C045
:103DB00093130FC0FE2CE1100CC08F7080618093B4
:103DC0005202C5010E949D0380915202F801858331
:103DD00029C1CD2831F02F3F31F481E03F3F19F464
:103DE00003C081E001C080E080FD03C081E08E253A
:103DF00002C080E090E0F82FF170FF2E80FF1CC021
:103E0000809184024091530256E0841709F4E8C07F
:103E100090E0589FF001599FF00D1124EC5AFD4F8E
:103E20006181261306C06081631303C06281E612BC
:103E300003C001968770E9CFFE2CEE2009F4F2C092
:103E40008091520281608093520249C0621306C081
:103E5000931304C0E11002C0F80186C0C8010E949B
:103E6000581E882351F1EE2041F120915202822FF9
:103E700082958F7090E0029774F080914D0290913E
:103E80004E0298878F831986DB86CA862C87CE01DF
:103E900007960E949D0386E0F801ADE4B2E0019030
:103EA0000D928A95E1F70E947A0F0AC06217C9F055
:103EB000C8010E94581E81111EC0C8010E949D03A6
:103EC000FF24F394AFC0482F407F81F78DE492E048
:103ED0000E949D0386E0F50111928A95E9F7F12C85
:103EE000A1C09313E5CFE110E3CFF8018583C801AA
:103EF0000E949D0354C0EE2001F320915202822FB4
:103F000082958F7090E0029734F280914D029091EB
:103F10004E029A8389831B82DD82CC822E83CE015E
:103F20000196B7CFEF3AF105D0F5FE2CEE2029F23D
:103F3000621327C0931325C02091520220FD18C0A0
:103F4000822F82958F70482F50E04115510581F0E6
:103F5000F80125834F30510541F08F5F982F9295DE
:103F6000907F822F8F70892B8583C8010E949D03CB
:103F700086E0F801ADE4B2E001900D928A95E1F798
:103F800051C0C8010E94581E811185CF80915202F4
:103F9000816080935202C8010E949D0343C086E065
:103FA000F50111928A95E9F73DC0EE2009F485CF1D
:103FB000C8010E94581EF82E882309F47ECF86E09F
:103FC000F801ADE4B2E001900D928A95E1F780919D
:103FD0004D0290914E020E94391E0E947A0F22C01B
:103FE0003D872E878D859E850E94391E292F22951B
:103FF0002F70223028F49F7039F0811105C00BC05A
:10400000243028F49F7049F4805E883020F0C80185
:104010000E949D039F2CF92C05C0F8019581907F8B
:1040200099F7F9CF8F2D61960FB6F894DEBF0FBECA
:10403000CDBFDF91CF911F910F91FF90EF90DF9057
:10404000CF90BF90AF909F90089528E0929F800DF1
:104050001124682F669566956695982F977085E070
:10406000689FB001112440E050E080E0FB01E40FC4
:10407000F51FE85EFC4F208130E0092E02C0369526
:1040800027950A94E2F721703327042E01C0220FEE
:104090000A94EAF7822B4F5F5F4F4530510531F7A5
:1040A000089528E0929F800D1124E82FE695E6956B
:1040B000E695877051E001C0550F8A95EAF785E0D3
:1040C000E89FF0011124E85EFC4F20E030E070E052
:1040D0004081CB01022E02C0969587950A94E2F7A3
:1040E0008170819584278523842781932F5F3F4F9B
:1040F0002530310569F708956093E4027093E50275
:104100008093E6029093E702109292031092860247
:104110000C940C0F0F931F9341E050E060E070E0AF
:1041200004C0440F551F661F771F8A95D2F740952C
:104130005095609570958091E4029091E502A09170
:10414000E602B091E7028A019B01082319232A2382
:104150003B23C901B8011F910F910C947C200F9350
:104160001F9341E050E060E070E004C0440F551F31
:10417000661F771F8A95D2F78091E4029091E5023D
:10418000A091E602B091E7028A019B01082B192B4E
:104190002A2B3B2BC901B8011F910F910C947C2055
:1041A000609388027093890280938A0290938B02B5
:1041B00010929203109286020C940C0F10929303AB
:1041C00086E0E7E4F2E0DF011D928A95E9F71092BC
:1041D0009203109286020C940C0F882341F0809574
:1041E000909192038923809392030C940C0F08956D
:1041F000882339F090919203892B809392030C9439
:104200000C0F0895882321F00E94050F0C940C0FC9
:104210000895882339F090919303892B8093930319
:104220000C940C0F0895882309F475C0682F823808
:1042300069F40E94AB1881FF6EC069E385E492E0E7
:104240000E9491180E940C0F69E30EC0833891F40C
:104250000E94AB1880FF5FC063E585E492E00E9496
:1042600091180E940C0F63E585E492E00E94841887
:104270000C940C0F843869F40E94AB1882FF4BC079
:1042800067E485E492E00E9491180E940C0F67E4B5
:10429000EBCF8CEF860F813A38F380E2860F8830BF
:1042A00048F4677081E001C0880F6A95EAF70E94C0
:1042B000050FDECF8BE5860F8330A0F480911403C9
:1042C00090911503892B39F1109215031092140364
:1042D000E0919902F0919A023097E9F00680F78117
:1042E000E02D16C0685A6731B0F4809116039091A2
:1042F0001703892B81F01092170310921603E09197
:104300009902F0919A02309731F00084F185E02D06
:1043100080E090E009940895CF93882309F47CC04D
:10432000C82F8238B1F40E94AB1881FD75C069E3D3
:1043300085E492E00E9491180E940C0F2FEF81EE0D
:1043400094E0215080409040E1F700C0000069E314
:1043500017C08338D1F40E94AB1880FD5DC063E5BF
:1043600085E492E00E9491180E940C0F2FEF81EEDD
:1043700094E0215080409040E1F700C0000063E5E8
:1043800085E492E00E9484183CC08438B1F40E9415
:10439000AB1882FD41C067E485E492E00E94911869
:1043A0000E940C0F2FEF81EE94E02150804090404E
:1043B000E1F700C0000067E4E3CF8CEF8C0F813A97
:1043C00080F4E7E4F2E08DE492E02191C217E1F09D
:1043D0008E179F07D1F76C2F85E492E00E94911809
:1043E00010C080E28C0F8830B8F4C77081E090E094
:1043F00001C0880FCA95EAF790919303892B8093A7
:104400009303CF910C940C0F6C2F85E492E00E94E3
:1044100084180E940C0FDFCFCF9108951F93CF9384
:10442000DF93182F893319F0C0E0D0E002C0C0E557
:10443000D0E0812F0E948C21209741F08FE99FE0EE
:104440000197F1F700C000002197F6CF812FDF918F
:10445000CF911F910C9413210895FC01808181302C
:1044600021F4FB018081918105C0823029F4FB0198
:10447000828193810C948B2A0895FC018081813084
:1044800021F4FB018081918105C0823029F4FB0178
:10449000828193810C94A52A0895CF93DF93FC0128
:1044A0002081223041F4FB01EC01828193810E9442
:1044B000A52A81E08B87DF91CF9108950F931F93F9
:1044C000CF93DF93EC0100E010E080917101282F81
:1044D00030E0021713073CF590916F019801290F06
:1044E000311DA901440F551F240F351F245B3C4F7C
:1044F000869590E04C81081719071CF4442349F075
:1045000002C0411106C040918B03473918F046E9BB
:1045100001C040E060918A03809189030E94FD26DA
:104520000F5F1F4FD2CF0E9430268C8190E0019602
:10453000817099278C83DF91CF911F910F910895FE
:104540008F929F92AF92BF92CF92DF92EF92FF92A3
:104550000F931F93CF93DF938C01FC014481C42FF1
:10456000D0E09E01DE010E94E82D9B01AC010E947B
:10457000FE2D6B017C01E0E2F0E0EC1BFD0BA5E5FC
:10458000B0E09B01AC010E94FE2D4B015C019F013C
:10459000DF010E94E02D9B01AC010E94092E9B01CE
:1045A000AC012C0D3D1D4E1D5F1DC501B4010E94C7
:1045B000B82DC22FD22F2A3228F4F3E02F9F90017A
:1045C00011240DC025E530E02C1B3109C901880FED
:1045D000991F280F391F37FF02C02F5F3F4F3595B6
:1045E0002795C22FC095F12C85E5E82EED1A809114
:1045F0007101F816E0F4F1FC02C08E2D01C08D2F80
:1046000090916F012F2D30E0290F311DA901440F2A
:10461000551F240F351F245B3C4F4C2FC73908F022
:1046200046E960918A030E94FD26F394E0CF0E9440
:104630003026F8018481811102C091E003C08032EC
:1046400019F49FEF90936C0190916C01890FF80120
:104650008483DF91CF911F910F91FF90EF90DF90B6
:10466000CF90BF90AF909F908F9008951F93CF935E
:10467000DF93EC018C81811109C081E08C83109261
:104680004A0392E090936B0180936A0180916F01DD
:1046900090917001891770F4E82FF0E09F01220FCC
:1046A000331FE20FF31FE45BFC4F11821082128272
:1046B0008F5FF0CF10E0609171011617D8F5E12FF0
:1046C000F0E070E0CF010E94A42D20916F01820FD5
:1046D00020914A03022E000C330B90E0E217F307FF
:1046E000E4F020916B01022E000C330B2E173F07D4
:1046F000A4F09C01220F331F820F931F9C01245BA7
:104700003C4F40918B03473908F046E960918A039A
:10471000809189030E94FD260BC0FC01EE0FFF1F54
:104720008E0F9F1FFC01E45BFC4F118210821282EE
:104730001F5FC1CF0E94302680916A0120914A03F9
:10474000280F20934A0390916B01980F90936B016F
:1047500019165CF4022E000C330B4091710150E0ED
:10476000415051092417350734F0819580936A012F
:10477000813009F41C82DF91CF911F9108957F92BF
:104780008F929F92AF92BF92CF92DF92EF92FF9261
:104790000F931F93CF93DF93EC018A8180FF03C0B7
:1047A000BB24BA9402C0BB24B3948C8181110DC088
:1047B00081E0B81206C08091710181508093490355
:1047C00002C01092490381E08C83A12C44E1742E35
:1047D00080907101A81408F044C080916F01CA2C28
:1047E000D12C8601080F111DC801880F991F080FD1
:1047F000191F045B1C4FF80111821082128234E0F1
:10480000E32EF12C912C80914903890D85312CF0F8
:10481000672D0E94822D892F02C087FD880D082EEA
:10482000000C990BC816D906A9F480918B038E9DB4
:10483000A0018F9D500D112455954795559547958D
:10484000473908F046E9980160918A03809189030D
:104850000E94FD269B0CF1E0EF1AF108A1F6A3944B
:10486000B7CF0E9430268091490391E0B9120EC063
:10487000811107C0809171018150809349031C828E
:104880000FC0815080934903BC820AC090E001961A
:104890006091710170E00E94A42D809349038C8384
:1048A000DF91CF911F910F91FF90EF90DF90CF900C
:1048B000BF90AF909F908F907F900895FF920F933D
:1048C0001F93CF93DF93EC01F12C0FEF10E0609179
:1048D0007101F61608F580916F012F2D30E0280F39
:1048E000311DC901880F991F280F391F245B3C4FC8
:1048F00040918B03473908F046E970E0C8010E94F7
:10490000A42D962F8C8160918A03F99E800D11242D
:104910000E94FD26F394DBCF0E9430269A818C8181
:1049200090FF02C08F5F01C081508C83DF91CF91D7
:104930001F910F91FF9008950F931F93CF93DF93D3
:1049400000D01F92CDB7DEB78C0180914B0381114F
:104950000AC09E012F5F3F4F46E96FEF0E94FD2680
:104960008A8180934B03F8018481813051F028F0D3
:10497000823061F440914B030AC080914B0340E0C8
:1049800007C060914B0340E080E003C040E080E05E
:1049900060E00E947C26F801848190E0019663E04B
:1049A00070E00E94A42D84830F900F900F90DF91F0
:1049B000CF911F910F910895CF93DF93EC01E8E819
:1049C000F3E0438162818C810E9493278C818F5F09
:1049D0008C83DF91CF910895CF93DF93EC01EC812D
:1049E000F0E0EE50FC4F4491E8E8F3E06281818111
:1049F0000E9493278C818F5F8C83DF91CF910895E4
:104A0000CF93DF93EC0181E0898B909193038F81A9
:104A1000892B80939303909192038885892B8093AF
:104A200092030E940C0FEA81FB81CE01069630971B
:104A300029F06C897D89DF91CF910994DF91CF9125
:104A40000895EF92FF920F931F93CF93DF93FC0192
:104A5000228521113AC0EC01E380F480F7E5FF1ACA
:104A600026E12E9DC0012F9D900D1124DC01AE5832
:104A7000BE4F1496ED91FC91159788589E4F309734
:104A800029F054966D917C915597099586E18E9DFC
:104A900080018F9D100D11240E581E4FF801878143
:104AA0000E94050FF80180858095909192038923DB
:104AB000809392030E940C0F188219861B861E8217
:104AC0001D821092910310929003DF91CF911F915C
:104AD0000F91FF90EF9008950F931F93CF93DF9363
:104AE000C42FD22FFC0182818823C9F040938F0309
:104AF0000E942B1890938E0380938D0380E28C0F7D
:104B0000883008F057C0C77081E001C0880FCA958F
:104B1000EAF7DF91CF911F910F910C9409218091B9
:104B20008F03481330C080918D0390918E030E94B3
:104B300010188F3A910538F510E21D0FCD17B9F016
:104B400080E28C0F883040F4C77081E001C0880F8C
:104B5000CA95EAF70E940221183028F581E09D2FBE
:104B6000977001C0880F9A95EAF70E940921802F5B
:104B70000E940E221830F0F4D77081E001C0880F37
:104B8000DA95EAF70AC080E28C0F883098F4C77093
:104B900081E001C0880FCA95EAF7DF91CF911F919C
:104BA0000F910C940221802FDF91CF911F910F91D3
:104BB0000C940E22DF91CF911F910F910895FC016B
:104BC000680F791F8FEF91E3E617F70771F02191D6
:104BD000822728E030E087FF03C0880F892701C0C3
:104BE000880F21503109B9F7EFCF089590918803CC
:104BF00090FF04C09695981740F003C0811105C03E
:104C000090E0961710F40C94E42861E00C949B2833
:104C1000882311F0FA0101C0FB010994E6E4F3E0F6
:104C200011828281846082830895609188036695F1
:104C300070E04BE050E08FE591E00E941D2E892B43
:104C400019F481E0809347030E947B1890934103FD
:104C500080934003809148038460809348030895C3
:104C600030916E018091880380FF16C0E0916D0144
:104C700063E0E69FF0011124E45BFC4F539A8BB193
:104C8000877F9BB198602FB7F894AF0163E0369FA0
:104C9000400D511D112414C080916F01909170013D
:104CA000891720F7E82FF0E0AF01440F551FE40FFC
:104CB000F51FE45BFC4F1182108212828F5FF0CFF0
:104CC000E417F50789F0319168E09BB9000000C056
:104CD00037FF8BB9330F000000C000C000C08BB994
:104CE00000C06A9591F7ECCF2FBF8FE594E0019754
:104CF000F1F700C0000008959091880390FF16C05E
:104D000090916F0120917001921770F4E92FF0E0FB
:104D1000DF01AA0FBB1FEA0FFB1FE45BFC4F81837F
:104D2000608342839F5FF0CF0C943026089580917A
:104D30008803282F269530E02115310519F481705C
:104D4000826005C02532310524F08170886480932B
:104D5000880380918B03873918F086E980938B0351
:104D60000895CF92DF92EF92FF926B017C010E9437
:104D70009726B701A60188E090E0FF90EF90DF90C2
:104D8000CF900C94602D80918C03882319F0815072
:104D900080938C03609188037091890380918A03CA
:104DA00090918B030C94B12680918C03833018F47E
:104DB0008F5F80938C036091880370918903809149
:104DC0008A0390918B030C94B126E8E8F3E083E02A
:104DD000808311828FEF828386E983831482A6E425
:104DE000B3E012968C911297836012968C93608137
:104DF0007181828193810C94B126AF92BF92CF9240
:104E0000DF92EF92FF920F931F93CF93DF93E82EE1
:104E1000F62EE901E42FF0E0611106C0EE50FB4FE1
:104E2000E4914E2F2E2F71C0062F10E0EE50FB4F55
:104E30004491F42FC42ED12C26E0829FC00111246E
:104E40002FEF30E0B9010E94902D5BEA5603C001BC
:104E5000579F900D11248E0D911D8E0D911D582F71
:104E6000550F580FD901A01BB10BAC9DC001AD9DD2
:104E7000900DBC9D900D1124E92FF59ED0011124B9
:104E8000AB2FBB277901EA1AFB0AEC9CD001ED9C01
:104E9000B00DFC9CB00D11245901A51AB108A09EBB
:104EA0007001A19EF00CB09EF00C1124EF2CFF2499
:104EB0002E193F092C9D80012D9D100D3C9D100D3C
:104EC0001124212F6230710591F048F461157105AC
:104ED000E1F061307105B9F4242F4B2F16C0643016
:104EE000710569F040F06630710579F00CC0242F2F
:104EF000492FE12F0AC0492FEF2F2B2F06C0292F52
:104F0000E42F412F02C0292FEB2F49832883EA8306
:104F1000DF91CF911F910F91FF90EF90DF90CF9095
:104F2000BF90AF900895CF93DF9300D01F92CDB77D
:104F3000DEB79091880390FF0DC0473908F046E92D
:104F40009E012F5F3F4F0E94FD264B8169818A8120
:104F50000E947C260F900F900F90DF91CF910895C3
:104F6000AF92BF92CF92DF92EF92FF920F931F9377
:104F7000CF93DF9300D01F92CDB7DEB7082FF62E68
:104F8000142FE22E9091880390FF85C0E92FE695BB
:104F9000AE2FB0E0A65EBD4F8C91809346039E7FFE
:104FA000923081F4473908F046E99E012F5F3F4F68
:104FB0006F2D802F0E94FD264B8169818A810E947E
:104FC0007C2646C0823019F410918B0341C0863094
:104FD00019F4009189033CC08930D9F38931C1F5B6
:104FE000E9518E2F8170D82EE695F0E0EE50FA4F01
:104FF000A590B490C12CBB2460917101C61630F508
:105000002C2D30E0A29EC001A39E900DB29E900D6B
:10501000112470E00E94902D802FD11002C0860FC5
:1050200001C0861B90916F01290F311DA901440F0A
:10503000551F240F351F245B3C4F412F173908F0B3
:1050400046E96F2D0E94FD26C394D6CF0E943026DC
:1050500080918903081308C080918A03F81204C064
:1050600080918B03181729F0809148038260809308
:10507000480300938903F0928A0310938B03EE2078
:1050800051F0609188037091890380918A03909117
:105090008B030E94B1260F900F900F90DF91CF915C
:1050A0001F910F91FF90EF90DF90CF90BF90AF9046
:1050B0000895E8E8F3E0438128E0421B08F440E06B
:1050C00021E0628181810C94B027E8E8F3E043811C
:1050D00028E0420F08F44FEF21E0628181810C94B7
:1050E000B027E8E8F3E0628128E0621B08F460E0A2
:1050F00021E0438181810C94B027E8E8F3E06281EC
:1051000028E0620F08F46FEF21E0438181810C9465
:10511000B027E8E8F3E0818121E043816281885093
:105120000C94B027E8E8F3E0818121E043816281BB
:10513000885F0C94B0279091880390FF3BC09170DA
:10514000811102C0926006C0853210F0986402C0DE
:10515000880F982B909388038091480381608093F7
:105160004803662351F06091880370918903809110
:105170008A0390918B030E94B12660918803669503
:1051800070E04BE050E08FE591E00E941D2E892BEE
:1051900019F00E940E2602C00E94152681E080931D
:1051A000430320E040918B0360918A03809189033F
:1051B0000C94B0270895809188038695815009F456
:1051C00084E261E00C949B288091880386958F5F30
:1051D000853208F081E061E00C949B289C013A95AF
:1051E00021153F4130F5BC0166277270AC014427A0
:1051F00054709C012227387094FF0FC090FF02C0AA
:1052000080E101C080E0672B09F08062452B09F046
:105210008064232B79F080680895892F8170672B33
:1052200009F08260452B09F08460232B19F0886017
:10523000089580E008958091F7018430A1F040F452
:10524000823089F0833091F481E00E948A200EC080
:10525000853019F0863039F009C081E00E948A203B
:1052600082EE0E9413218CE20E9413211092F7011A
:105270000895FC018081813041F48185811119C03C
:1052800082858823B1F083E01DC0823041F481859E
:10529000811111C08285811110C084E013C0833058
:1052A00071F4818581110DC08285882351F088E0D9
:1052B00009C082E007C086E005C085E003C081E048
:1052C00001C087E08093F701843089F028F48230B0
:1052D00089F0833049F00895853019F0863039F02F
:1052E000089582EE0E948C2181E00C94AF208CE224
:1052F0000E940E228CE20C948C211F93CF93DF939B
:10530000CDB7DEB767970FB6F894DEBF0FBECDBF3F
:105310004B8B5C8B6D8B7E8B8F8B6111109292030C
:1053200086E09E01235F3F4FD901E82F1D92EA9549
:10533000E9F795E0FE017396D90101900D929A95D7
:10534000E1F79C894E895F897B897D879E876F877E
:10535000598B488BF901DE01179601900D928A95C1
:10536000E1F7CE0107960E94841E81113EC086E0BF
:10537000FE013796DE01119601900D928A95E1F7B4
:10538000FF81E8856A857B856115710531F0EF3F06
:1053900031F481E0FF3F19F403C081E001C080E0F7
:1053A00080FD23C02091530230E0C901019687702F
:1053B00099274091840250E08417950779F1F98389
:1053C000EA837D836C8396E0929FD001939FB00D1A
:1053D0001124AC5ABD4FFE01319601900D929A9561
:1053E000E1F7809353020E94700F16E080918402CF
:1053F000909153028917F9F0189FC00111248C5A1B
:105400009D4F0E94841E8823B1F08091840290E019
:1054100001968770992780938402E8CF0E94DE204E
:105420001092530210928402EDE4F2E086E0DF0174
:105430001D928A95E9F767960FB6F894DEBF0FBE06
:10544000CDBFDF91CF911F910895DF92EF92FF9230
:105450000F931F93CF93DF93E82FF0E0E95DF94FAF
:10546000D490282F26952695269530E0F901E95EFF
:10547000F94F0491877010E0082E02C0159507952A
:105480000A94E2F701701127F901E95FF94FE490FE
:10549000F12C082E02C0F594E7940A94E2F791E00B
:1054A000E922FF24F901E950FA4FC491D0E002C08B
:1054B000D595C7958A95E2F7C170DD2701151105CD
:1054C00019F081EE0E948C21E114F10419F086EEAE
:1054D0000E948C218D2D0E940E22EF2819F086EE5D
:1054E0000E941321012B19F081EE0E941321CD2B74
:1054F00051F08CE2DF91CF911F910F91FF90EF90CF
:10550000DF900C940E22DF91CF911F910F91FF90AD
:10551000EF90DF900895CF93DF93EC010E94132169
:10552000CE01805E9109089710F0209739F4CE01E2
:105530000E94EE28DF91CF910C940221CE010E94AF
:10554000EE28DF91CF910C94ED20CF93DF93EC0107
:10555000805E9109089710F0209731F4CE010E94E7
:10556000EE280E94092105C0CE010E94EE280E946B
:10557000F8208C2FDF91CF910C948C21CF93C62FE4
:105580004091E4025091E5026091E6027091E702D9
:10559000811119C0411551056105710531F07695EC
:1055A00067955795479540FD08C0CC2311F089EACF
:1055B00001C08AEA0E940E2238C0CC2311F08DEB84
:1055C000F9CF8EEBF7CF411551056105710531F02B
:1055D000769567955795479540FD06C0CC2311F009
:1055E0008EE4E8CF8BE4E6CF80919302811106C070
:1055F00081E08093930280EE0E948C210E942B1800
:105600009093920280939102CC2339F08BE290E048
:105610000E94A52A8BE290E006C08BE292E00E94F5
:10562000A52A8BE292E00E948B2A80E0CF91089518
:105630008EE14A9B02C08150E1F74A9BFECF08955C
:105640005A9880E28A95F1F75A9A0895FC012AE067
:105650002A95F1F728E090E080E031E040E14A95BA
:10566000F1F7880F4A9B02C08160932700C00000B9
:1056700040E14A95F1F7215089F720E12A95F1F7A9
:1056800029B100C0000030E13A95F1F722FB222752
:1056900020F992272081920F90830895EF92FF9234
:1056A0000F931F93CF93DF931F92CDB7DEB719826D
:1056B0008C017C01E60EF11C0E151F0551F00E94B5
:1056C000182BCE0101960E94262BF80181938F01A1
:1056D000F3CF81E09981911180E00F90DF91CF911C
:1056E0001F910F91FF90EF900895529A5A9A089542
:1056F00052985A9AEA9AE9E6F0E080818F7C80839A
:105700000895615091E001C0990F6A95EAF720E091
:1057100031E0992361F0492F482319F05A9A232741
:1057200001C05A9840E24A95F1F79695F2CF2223AC
:1057300011F05A9A01C05A9880E28A95F1F75A9866
:105740000895FF920F931F93CF93DF93EC018C0189
:10575000060F111DC017D10741F0F9900E94202BB0
:1057600068E08F2D0E94812BF5CFDF91CF911F91A3
:105770000F91FF9008951F920F920FB60F92112470
:10578000EF92FF920F931F932F933F934F935F934B
:105790006F937F938F939F93AF93BF93EF93FF93F9
:1057A000CF93DF931F92CDB7DEB719820E94182BDB
:1057B000CE0101960E94262BA82FA695A695A69508
:1057C0009A2F969595702A2F2570920F292F237066
:1057D00096959695920F877089137CC08981811167
:1057E00079C0A73008F076C080E18A95F1F75A9A1F
:1057F000529AB2E0BA95F1F700C05A98EA2EF12C0D
:10580000EAE0AE9FD0011124AE5FBE4F1896ED9135
:10581000FC9119973097B1F06091F8017091F901FE
:1058200016962D913C911797260F371F13968D9141
:105830009C911497680F791F15964C9115971296A5
:105840008C9109958AE08E9DF0018F9DF00D1124B9
:10585000EE5FFE4F6581662351F08091F8019091D3
:10586000F90126813781820F931F0E94A12B0E948C
:10587000202BF0E1FA95F1F75A9852985A9A80E164
:105880008A95F1F78AE08E9D80018F9D100D11247D
:105890000E5F1E4FD80112966C911297662399F0F5
:1058A0008091F8019091F90113962D913C911497F4
:1058B000820F931F0E944E2BD801ED91FC91811114
:1058C00005C082E004C0D801ED91FC9188E080839E
:1058D0000E94182B0F90DF91CF91FF91EF91BF9114
:1058E000AF919F918F917F916F915F914F913F9178
:1058F0002F911F910F91FF90EF900F900FBE0F907F
:105900001F9018950F931F93CF93DF9387309105C6
:105910000CF0A9C02AE0289FF001299FF00D112466
:10592000EE5FFE4F20813181232B09F49CC0EC01F6
:10593000F894529A5A9885E08A95F1F700008C2FD6
:10594000869585709C2F9570890F982F93708695FA
:1059500086958E0123E0000F111F2A95E1F7890F2C
:10596000082B0E94202BA4E0AA95F1F700C068E064
:10597000802F0E94812BB0E1BA95F1F752985A9A84
:105980004A9902C000C0FCCF87E090E04A9B17C054
:10599000019799F4529A5A9A8AE08C9FF0018D9F50
:1059A000F00D1124EE5FFE4F0190F081E02D81E0BB
:1059B0008083789481E090E058C000C0E7CF8AE00F
:1059C0008C9F80018D9F100D11240E5F1E4FF801DA
:1059D00065816623B9F08091F8019091F9012681E3
:1059E0003781820F931F0E944E2B81110BC0529A58
:1059F0005A9AD801ED91FC9182E08083789482E0FC
:105A000090E033C00E94182BB0E2BA95F1F75A9893
:105A1000529AE0E1EA95F1F78AE08C9FF0018D9FC0
:105A2000F00D1124EE5FFE4F6281662351F08091EC
:105A3000F8019091F90123813481820F931F0E9414
:105A4000A12B0E94202B8AE08C9FF0018D9FF00DEE
:105A50001124EE5FFE4F0190F081E02D10827894CA
:105A600080E090E002C084E090E0DF91CF911F9150
:105A70000F910895F999FECF92BD81BDF89A9927AB
:105A800080B50895A6E1B0E044E050E00C94742D98
:105A9000A8E1B0E042E050E00C94742D262FF99973
:105AA000FECF92BD81BDF89A019700B4021639F07D
:105AB0001FBA20BD0FB6F894FA9AF99A0FBE08954E
:105AC0000396272F0E944F2D0E944E2D252F0E94B6
:105AD0004F2D242F0C944F2D0196272F0E944F2DD0
