:100000000C94FC050C9443060C9443060C94E82FC6
:100010000C9443060C9443060C9443060C9443063C
:100020000C9443060C9443060C9407170C94431647
:100030000C94A4240C9443060C9443060C9443069D
:100040000C9443060C9443060C9443060C9443060C
:100050000C9443060C94DC170C9443060C94430652
:100060000C9443060C9443060C9443060C944306EC
:100070000C9443060C9443060C9443060C944306DC
:100080000C9443060C9443060C9443060C944306CC
:100090000C9443060C9443060C9443060C944306BC
:1000A0000C9443060C9443060C944306AA068C0752
:1000B0003E07C406E706F4060C07210733074E0780
:1000C00072076007E009E0091A0A1A0A6B0AF60BC0
:1000D000F60BF60B870A650B760B760B5E14851410
:1000E0001B1685141B16CD14F0141B16DF15F21504
:1000F00091209120A420A4209A20A420A420A42010
:10010000912091209F20A420A4209F2000DA12811A
:10011000FFD9F1DB20A4A62EAF00A0C000A1C8002B
:10012000AED580A83FD300408D1420006432142047
:100130000057004100430053004D6F64733A0005BF
:10014000010980A101850319012AB700150126B70D
:1001500000950175108100C0050C0901A1018504FD
:1001600019012AA002150126A0029501751081002F
:10017000C005010906A101050719E029E7150025B9
:10018000019508750181029501750881010507191E
:100190000029FF150026FF00950675088100050857
:1001A00019012905950575019102950175039101C4
:1001B000C009023B00020100A0FA0904000001038B
:1001C00001010009211101000122400007058103FE
:1001D00008000A09040100010300000009211101BF
:1001E00000012232000705820320000A12010002EA
:1001F000000000081D8D9D9D0100010200010C03FF
:100200004B00790072006900610000001003730068
:1002100070006C00690074004B0042000000040391
:100220000904726D65720A0A2B3439203137332084
:100230003234203138203531350A6D61696C4073B4
:10024000746F65726D65722D636F6E73756C746912
:100250006E672E64650A7777772E73746F65726D9B
:1002600065722D636F6E73756C74696E672E64654D
:100270000A0A00726D65722D636F6E73756C746916
:100280006E670A44722E20506574657220537400A4
:100290000A0A2D2D0A0A737400726D65720A0A002B
:1002A000650A506574657220537400467265756EF8
:1002B000646C6963686520477200726D65720A0A32
:1002C00000650A5065746572205374006E6520479E
:1002D000720053636800650A50657465720A0A000B
:1002E0006E6520477200536368002D2D3E2000008C
:1002F0000000000500130009001A00140002540059
:1003000000000007001700160015000400635D00E0
:100310000014590A00190006001B001D00E3002B01
:10032000612C41E2002900A800000000000000004C
:100330000000000D000F0018001C006A5D6B5D00DE
:100340000000001000110008000C000B006C5D287C
:100350000200000E00120037003600695D295D289A
:10036000612A72E4006D5D2C0000000000000000B6
:10037000000000665D240025002600010001000049
:10038000000000675D1E001F0020002700640001C0
:10039000000100685D21002200230001000100012E
:1003A0000001000100010001000000000000000049
:1003B0000000001F024A0052004D000000655D0071
:1003C0000000003202500051004F0000006E5D013D
:1003D000004C002D02380030001E022D14010001D7
:1003E000004C0001000100010000000000000000BE
:1003F00000000043004000410042000100010000F5
:1004000000000044003A003B003C000100010001F4
:1004100000010045003D003E003F000100010001D9
:1004200000010001000100010000000000000000C8
:1004300000000001000100010001000100010000B6
:1004400000000001000100010001000100010001A5
:100450000001000100010001000100010001000194
:100460000001000100010001000000000000000088
:10047000000000000000000000000000000000007C
:10048000000000000000000000000000000000006C
:10049000000000000000000000000000000000005C
:1004A000000000000000000000000000000000004C
:1004B000000000000001000000000000000000003B
:1004C000000000000000000000000000000000002C
:1004D000000000C35CCA5C000000000000010000D6
:1004E000000100000000000000000000000000000B
:1004F00001020908070403050600010209080704B0
:1005000003050607087F0807003E5B4F5B3E003E81
:100510006B4F6B3E001C3E7C3E1C00183C7E3C1822
:10052000001C577D571C001C5E7F5E1C0000183CA1
:10053000180000FFE7C3E7FF00001824180000FFC1
:10054000E7DBE7FF0030483A060E00262979292626
:1005500000407F05050700407F05253F005A3CE726
:100560003C5A007F3E1C1C0800081C1C3E7F0014E7
:10057000227F2214005F5F005F5F0006097F017F1A
:1005800000006689956A0060606060600094A2FF68
:10059000A2940008047E04080010207E20100008A9
:1005A000082A1C0800081C2A0808001E1010101039
:1005B000000C1E0C1E0C0030383E383000060E3E7B
:1005C0000E060000000000000000005F00000000B8
:1005D0000700070000147F147F1400242A7F2A12CA
:1005E00000231308646200364956205000000807B3
:1005F000030000001C224100000041221C00002AD0
:100600001C7F1C2A0008083E08080000807030008B
:1006100000080808080800000060600000201008BA
:100620000402003E5149453E0000427F40000072F6
:1006300049494946002141494D33001814127F10A1
:10064000002745454539003C4A49493100412111BF
:10065000090700364949493600464949291E000024
:100660000014000000004034000000000814224183
:10067000001414141414000041221408000201593B
:100680000906003E415D594E007C1211127C007F2C
:1006900049494936003E41414122007F4141413EA6
:1006A000007F49494941007F09090901003E414154
:1006B0005173007F0808087F0000417F410000203F
:1006C00040413F01007F08142241007F40404040EC
:1006D000007F021C027F007F0408107F003E414122
:1006E000413E007F09090906003E4151215E007F1D
:1006F000091929460026494949320003017F0103AF
:10070000003F4040403F001F2040201F003F403836
:10071000403F00631408146300030478040300617D
:1007200059494D4300007F41414100020408102017
:1007300000004141417F00040201020400404040AA
:100740004040000003070800002054547840007F18
:100750002844443800384444442800384444287F1E
:100760000038545454180000087E09020018A4A44C
:100770009C78007F080404780000447D400000203D
:1007800040403D00007F102844000000417F4000B1
:10079000007C04780478007C080404780038444421
:1007A000443800FC182424180018242418FC007C69
:1007B000080404080048545454240004043F44240A
:1007C000003C4040207C001C2040201C003C40306D
:1007D000403C004428102844004C9090907C0044F9
:1007E00064544C44000008364100000000770000CB
:1007F000000041360800000201020402003C2623EA
:10080000263C00000000000000404040F0F8F8FFE7
:1008100038FFF8F83FF8F8FF38FFF8F8F0404040AC
:1008200000000000000080C0C0C0800000C0C08088
:1008300000000080C0C000C0C0000080C0C0000038
:10084000000000C0C0C0C0C000C0C0000000000068
:100850000000000000000000000000000000000098
:100860000000000000000000000000000000000088
:100870000000000000000000000000000000000078
:100880000000C0F0F8FC3E1E06010000007F414160
:10089000417F007F4141417F000080C0E07E5B4F8F
:1008A0005BFEC00000C000DCD7DEDEDED7DC00C0AF
:1008B0000000000000000000000000000000000038
:1008C000000000000000000000494949FFFFFFFF51
:1008D000E0DFBFBF00BFBFDFE0FFFFFFFF494949C7
:1008E00000000000001F3F6060E0BF1F007F7F0727
:1008F0001E381E077F7F007F7F0E1F3B7160000048
:100900000000007F7F0C0C0C007E7E007F7E0303C6
:10091000007F7E03037E7E03037F7E000F3E703CDC
:10092000063C703E0F00327B49493F7E007F7E03CC
:1009300003001E3F69696F260000000000000000F0
:100940000000030F1F3F3C7870600000007F4141B2
:10095000417F007F4141417F00307B7F7830202004
:1009600030787F3B0003000F7F0F0F0F7F0F0003D6
:100970000000000000000000000000000000000077
:10098000000000000000000000010101070F0F7FC0
:100990000F7F0F0F7E0F0F7F0F7F0F0F07010101DA
:1009A0000000000000000000000001010000000045
:1009B0000000000000000000000000000000000037
:1009C0000000000000000000000000000000000027
:1009D0000000000000000000000000000000000017
:1009E0000000000000000000000000000000000007
:1009F00000000000000000000000000000000000F7
:100A000000000000000000000000000000000000E6
:100A100000000000000000000000000000000000D6
:100A200000000000000000000000000000000000C6
:100A300000000000000000000000000000000000B6
:100A400000000000AF00AE00000000000000000049
:100A50000000000000000000000000000000000195
:100A60000000380000007800000000F68700ECFE6F
:100A7000FFFF870100000000000000000000002AC6
:100A80002B28000000000000000000000000000013
:100A9000000029000000002C1E1F322122233225D5
:100AA00026303036383724271E1F202122232425C4
:100AB0002637366427642D140405060708090A0B37
:100AC0000C0D0E0F101112131415161718191A1BEE
:100AD0001D1C252D2635382E0405060708090A0B8E
:100AE0000C0D0E0F101112131415161718191A1BCE
:100AF0001D1C246427304C0001010101010101018A
:100B000001020202020202020202030303030303C0
:100B1000030304040404040404050505050506068E
:100B2000060606070707070708080808090909094C
:100B30000A0A0A0B0B0B0C0C0C0D0D0D0E0E0E0FF2
:100B40000F0F101011111112121313141415151682
:100B5000161717181819191A1A1B1B1C1D1D1E1EF3
:100B60001F20202122222324242526262728292944
:100B70002A2B2C2D2D2E2F3031323233343536376F
:100B800038393A3B3C3D3E3F40414243444546476D
:100B900048494A4C4D4E4F50515354555658595A46
:100BA0005B5D5E5F616264656668696B6C6D6F70EA
:100BB00072737577787A7B7D7E8082838587888A59
:100BC0008C8E8F91939596989A9C9EA0A2A3A5A790
:100BD000A9ABADAFB1B3B5B7BABCBEC0C2C4C6C98C
:100BE000CBCDCFD1D4D6D8DBDDDFE2E4E7E9EBEE45
:100BF000F0F3F5F8FAFDFF0011241FBECFEFDAE0A5
:100C0000DEBFCDBF04B603FE27C08091B807909128
:100C1000B907A091BA07B091BB078730904BA740A6
:100C2000B04BD1F41092B8071092B9071092BA07DE
:100C30001092BB0714BE84B7877F84BF0FB6F894A9
:100C4000A895809160008861809360001092600098
:100C50000FBEE0E0F8E3099512E0A0E0B1E0EEE2BB
:100C6000F4E602C005900D92A230B107D9F727E053
:100C7000A2E0B2E001C01D92A83BB207E1F70E94DA
:100C8000480C0C9415320C9400008F929F92AF92F6
:100C9000BF92CF92DF92EF92FF920F931F93CF9369
:100CA000DF93CDB7DEB72A970FB6F894DEBF0FBE3D
:100CB000CDBFFC01D080118183819481892B39F0D3
:100CC0001F3F39F491E02FEFD21203C003C091E02F
:100CD00001C090E090FDC9C57F0185E0DE01169658
:100CE00001900D928A95E1F7D70112962C918E8191
:100CF0009F81222349F00E940420082F682F8E81B3
:100D00009F810E94752203C00E944922082FE12F73
:100D1000F0E0B8E00B9FE00DF11D1124A3E0EE0F11
:100D2000FF1FAA95E1F7ED0DF11DEE0FFF1FE15139
:100D3000FD4F059114916801F801E356FD45D70177
:100D400012968C91EC30F10508F0E6C0EA5AFF4F9C
:100D50000C94EC31882389F08091870285FD05C0D1
:100D600086EE0E94C72384E119C085EE0E946B23A2
:100D700086EE0E94C72384E61CC084E10E946B2398
:100D800084E60E946B23A1C28823E1F08091870250
:100D900085FD08C086EE0E94C72384E20E94C72317
:100DA00086EEEFCF85EE0E946B2386EE0E94C7236E
:100DB00087E20E94C72386EE0E946B2385EE0E9485
:100DC000C72383C284E20E946B2387E2DACF8823A1
:100DD00069F08091870285FD05C085EE0E94C723DA
:100DE00085E28AC086E2EBCF811105C085E20E94D0
:100DF0006B2386E2C6CF8091870285FD05C086EE13
:100E00000E94C72385E2CACF85EE0E946B2386EE3F
:100E10000E94C72386E2CDCF882389F08091870284
:100E200085FD05C085EE0E94C72384E265C085EE7E
:100E30000E946B2386EE0E94C72380E3BACF84E230
:100E40003BC0882359F08091870285FD05C085EE5F
:100E50000E94C72383E250C082E2B1CF83E20E94A6
:100E60006B2382E28ECF8823A1F08091870285FDDB
:100E70000BC085E30E94632485E3A1CF882361F042
:100E80008091870285FD21C28EE20E9463248EE25A
:100E900096CF85E30E946B238EE273CF882359F0AF
:100EA0008091870285FD05C085EE0E94C72387E2F9
:100EB00023C080E384CF87E20E946B2380E361CF6D
:100EC000882359F08091870285FD05C085EE0E9438
:100ED000C72381E211C080E272CF81E20E946B23BE
:100EE00080E24FCF882399F08091870285FD08C06A
:100EF00085EE0E94C72388E30E94C72385EE41CF79
:100F000085EE0E946B2382E30E94C72357CF88E3BC
:100F10000E946B2382E335CF882369F0C801825E8B
:100F20009C45059740F46EE1600F609308028CE0E9
:100F300090E00E94983117FF7AC0F70182818823E0
:100F400009F475C00E943B25869581708093050247
:100F500090910802913029F4882319F089E30E94C6
:100F6000632480918702809304021092870280910B
:100F70000802813071F048F0823081F08430A1F4B1
:100F800086EE0E94632488E10DC082EE0E94C72392
:100F90000BC088E193E00E94FB2906C082EE0E940C
:100FA000C72387E50E9463248FE39CE90197F1F74B
:100FB00000C000004801E89497F87CE0A72EB12C0F
:100FC000C4010A2C02C0969587950A94E2F78F70A7
:100FD00096EF980F963010F0805D01C0895A0E94FC
:100FE000362994E0A91AB108ACEFAA16AFEFBA06F9
:100FF00039F780910802813039F078F0823069F059
:10100000843089F488E20DC08CE20E9463248091D0
:101010000502882341F089E304C082EE0E946B231D
:1010200002C00E9463248091040280938702F7012A
:101030008281882309F43FC08091B802882329F176
:10104000C80190568115F0E29F0720F0905E81154F
:10105000904110F46801DD248091B702853060F47E
:10106000E82FF0E0EE0FFF1FE555FD4FD182C08263
:101070008F5F8093B70202C01092B8020E941D18C1
:101080009093B6028093B50220C109328DE518070E
:1010900091F481E08093B8020E941D189093B602EB
:1010A0008093B5021092B7028AE0EBEAF2E0DF012A
:1010B0001D928A95E9F7F70182818111ADC0809177
:1010C000870282720B3CBCE51B0709F494C030F523
:1010D000063CFCE51F0709F47AC058F4043C9CE583
:1010E000190709F46AC008F06DC0033C1C45D9F12A
:1010F0000CC1083CECE51E0709F473C008F46CC091
:10110000093C2CE5120709F471C00A3C1C4509F0A2
:10111000FCC049EB57E265EC77E276C0013DACE5F7
:101120001A0788F40F3CBCE51B0708F0CEC00D3C45
:10113000ECE51E0709F464C008F069C042E854E217
:1011400063E974E261C0073D2CE5120738F4023D03
:101150001C4508F0BAC00E944013B7C00E351D45AB
:1011600009F4B3C0D2C080919E0280FF20C08E7F60
:1011700080939E0260919E0270919F028091A002D6
:101180009091A1020E94772D0E947E2680913003CB
:10119000816080933003AFEFB0E7E2E0A150B04050
:1011A000E040E1F700C000000E9485268EC081600B
:1011B00080939E0261E086952CC041E55DE26AE580
:1011C0007DE222C04AE55DE261E57DE21DC049EEB7
:1011D00057E262EF77E218C042EF57E269EE77E23A
:1011E00013C041ED57E26DED77E20EC04DED57E2D1
:1011F00061ED77E209C045EC57E269EB77E204C0A4
:1012000043E954E262E874E20E9478265EC061E03D
:1012100081E00E941F2859C00B35FDE51F0709F426
:101220004EC058F401158CE51807C1F00F3D1C4560
:1012300009F06BC00E94101A48C00C35ADE51A07C2
:1012400009F43FC00D351D4509F05FC080910702CC
:1012500082FB882780F991E0892734C010928702A9
:101260000E943823EFEFF4E32CE0E150F0402040FF
:10127000E1F700C0000081E08093E00080E280930D
:10128000D8001092C9008FE19EE40197F1F700C0E9
:10129000000087E090EBDC018093B8079093B907DA
:1012A000A093BA07B093BB079CE088E10FB6F8940F
:1012B000A895809360000FBE90936000FFCF81E0FF
:1012C00001C080E00E94741F20C0809125038770B8
:1012D00009F4CBC2D70112968C91882309F4C5C2B8
:1012E00082E02A960FB6F894DEBF0FBECDBFDF9125
:1012F000CF911F910F91FF90EF90DF90CF90BF9013
:10130000AF909F908F900C94F022D70112968C9101
:1013100012970C9111961C91882349F0C8010E94E4
:101320000420D82E682FC8010E94752204C0C8016D
:101330000E944922D82EE12FF0E0B8E0DB9EE00DBC
:10134000F11D112433E0EE0FFF1F3A95E1F7E00F96
:10135000F11DEE0FFF1FE151FD4F859194910E9409
:1013600085188C01982EF701C280A580A2945FE0B9
:10137000A52280912503877099F0CC2089F0812FD8
:10138000807F803421F080E2800F883048F082E056
:101390000E94F022809125038770DD24D39481116F
:1013A000D12CB12EB2942FE0B2228B2D90E08C3054
:1013B000910508F01BC2FC01EE59FF4F0C94EC3173
:1013C000812F807F1F70882311F01295107FCC2011
:1013D000B9F0112309F4F5C180E2800F883010F0D4
:1013E000911006C080918702182B1093870205C0C8
:1013F00080912703182B109327030E94391FE1C106
:10140000802F0E946B23112309F4F0C1005E109518
:10141000083010F0911006C08091870218231093B5
:10142000870205C0809127031823109327030E9489
:10143000391FDCC1812F807F1F70803211F012951F
:10144000107F992021F0F1E09F1601F12EC0CC20F1
:10145000A1F080913002AA2071F021E0A2120BC00D
:10146000182B9091070292FDC1C1181709F4BEC153
:1014700010933002BBC1812B10C0AA2021F081E063
:10148000A81609F4B3C10E94331F21C0CC2041F03B
:1014900095E09A1508F4AAC1812F0E946123A6C184
:1014A000A4E0AA1508F4A2C112C0CC2019F0AA2009
:1014B00099F387C1AA2059F0093309F094C1BFEF0D
:1014C000E7EEF3E0B150E040F040E1F78AC1812F50
:1014D0000E9456238BC1812F86958695837019F0C3
:1014E000813059F083C1CC2019F0C801937002C03B
:1014F00080E090E00E9425257FC1CC2019F0C80132
:10150000937002C080E090E00E940F2575C1812F8A
:10151000837009F069C0C1106DC1902F92959695A6
:101520009770990F990F802F8F70882E912CA12C76
:10153000B12C092E04C0880C991CAA1CBB1C0A944F
:10154000D2F704FF12C04FE050E060E070E004C04A
:10155000440F551F661F771F9A95D2F7DB01CA010A
:1015600080959095A095B09503C080E090E0DC0157
:1015700016951695412F4370423019F1C8F4009129
:1015800028021091290220912A0230912B02413029
:1015900059F088299929AA29BB29BC01CD016023CA
:1015A0007123822393230AC0802A912AA22AB32A74
:1015B000BC01CD01682979298A299B290E942E2303
:1015C00019C188299929AA29BB29009128021091BB
:1015D000290220912A0230912B02BC01CD01602703
:1015E000712782279327EACFCC2019F0812F8170B1
:1015F00001C08695882309F4FDC0902F9295969599
:101600009770990F990F802F8F70882E912CA12C95
:10161000B12C092E04C0880C991CAA1CBB1C0A946E
:10162000D2F704FF12C04FE050E060E070E004C069
:10163000440F551F661F771F9A95D2F7DB01CA0129
:1016400080959095A095B09503C080E090E0DC0176
:1016500016951695412F43704230D9F068F50091E8
:101660002C0210912D0220912E0230912F02413038
:1016700059F088299929AA29BB29BC01CD016023E9
:101680007123822393231EC0802A912AA22AB32A7F
:1016900013C088299929AA29BB2900912C021091ED
:1016A0002D0220912E0230912F02BC01CD01602726
:1016B00071278227932706C0BC01CD0168297929AB
:1016C0008A299B290E94A02295C01F70CC2039F046
:1016D000812F0E940D23802F0E9461238BC0802FB9
:1016E0000E945623812F0E94CB2284C0802F22EF9C
:1016F000921629F1291538F090EF991659F0A1EFBB
:101700009A16C1F059C0B3EF9B1601F1E4EF9E1693
:10171000A1F152C0CC2049F0F4E0FA1508F466C0FB
:10172000812F8F710E94AA2261C025E02A1508F43A
:101730005DC0F6CFCC2029F0812F8F7130C0CC2036
:10174000D9F3812F8F710E94CB2250C0CC2079F029
:101750001F7181E090E0A0E0B0E0BC01CD0104C0C9
:10176000660F771F881F991F1A95D2F703C060E094
:1017700070E0CB010E94A02239C0CC2099F01F71EB
:10178000812F0E940D238091070282FD07C0A8E0EF
:101790001A9FC0011124836080932503812F0E942A
:1017A0000D2324C081E00E94F022B1E0BA15F0F4CC
:1017B00082E00E94F0221AC0CC2039F0AA2009F45D
:1017C000BBCF802F0E94C72311C0AA2009F4B9CF34
:1017D000893349F4EFEFF7EE23E0E150F040204089
:1017E000E1F700C00000802F0E946B2388EF8B0D73
:1017F000843010F40E943B25DD20B1F08091250358
:1018000080FD12C0D70112961C928595859585950D
:101810000E940D23C7010E944506809125038595EE
:10182000859585950E94CB2285E0F701DE01119612
:1018300001900D928A95E1F789819A810E9449224F
:10184000EA81F0E0B8E08B9FE00DF11D112483E008
:10185000EE0FFF1F8A95E1F78981E80FF11DEE0F6A
:10186000FF1FE151FD4F859194912A960FB6F89490
:10187000DEBF0FBECDBFDF91CF911F910F91FF90C3
:10188000EF90DF90CF90BF90AF909F908F90089592
:10189000CF93DF93CDB7DEB7E0970FB6F894DEBFF6
:1018A0000FBECDBF84B7877F84BF0FB6F894A895CD
:1018B00080916000886180936000109260000FBE8C
:1018C00090E080E80FB6F8948093610090936100F7
:1018D0000FBE85B7806885BF85B7806885BF89E200
:1018E00098E190930302809302020E9487160E945F
:1018F000A6168091E20084608093E2007894809143
:1019000094028823A1F01091E9001F709091EC00DF
:10191000892F817090FD80E8182B1092E90080914A
:10192000E80083FD0E9478131F701093E90082E0A5
:1019300084BD93E095BD9AEF97BD80936E001092A1
:1019400084071092850710928607109287070E94DD
:101950002E2D8093000180910001882321F01092A8
:1019600016018AE003C08AE0809316018093170174
:101970000E942E2D81110E94A22F80910001809142
:101980000001811102C094E001C090E09093150223
:1019900084E0891B8093140207E911E0FBE9EF2E34
:1019A000F1E0FF2ED8018D918D018F3F11F00E9443
:1019B0006E18E016F106B1F70FE911E0E7EAEE2E36
:1019C000E1E0FE2EF80181918F018F3F11F00E941E
:1019D0006E18E016F106B1F7ECE0F2E084E192E077
:1019E000A8E1B2E011921D928E179F07D9F780E00F
:1019F00090E00E949231893E9E4F11F00E94101A91
:101A000082E090E00E9484318093760284E090E04E
:101A10000E948431182F82E290E00E948431212FAD
:101A200030E0382B309307022093060283E090E0E9
:101A30000E948431682F70E080E090E00E942E23A5
:101A40008CE090E00E94843190E0A0E0B0E08093D0
:101A5000080290930902A0930A02B0930B020E941D
:101A60002E2D811102C00E94A52F82E08093710269
:101A700080E880936D030E94362E6DE070E08FE168
:101A800091E00E944F13892B09F043C080917102AD
:101A900063E070E081FD3AC08CE191E00E944F1359
:101AA000892BB9F56DE070E08CE091E00E944F1356
:101AB000892B79F50E941118DC01CB01805A9541E0
:101AC000AF4FBF4F8093780790937907A0937A0721
:101AD000B0937B07E0E7F3E080E094E0DF019C0156
:101AE0001D9221503040E1F7F0937707E09376079D
:101AF0008FEF9FEF90936F0380936E0381E080934D
:101B00007D0780937C071092720203C089E191E007
:101B1000C5CF8091160281113BC080E090E00E9409
:101B20009231893E9E4F21F00E94101A0E94892D09
:101B300088E090E00E948C3160939E0270939F0237
:101B40008093A0029093A1028091300383608093E0
:101B500030036E7F71F40E94892D88E090E00E942E
:101B60008C3160939E0270939F028093A0029093A9
:101B7000A1020E94642D0E947E2680919E0280FF19
:101B800004C060E086950E941F2881E080931602C1
:101B900080910001811106C085E380930C0186E6E7
:101BA00080930B0120910C01E22FE295EF70F0E0A1
:101BB00031A12F7081E090E0AC01022E01C0440FF2
:101BC0000A94EAF7542F5095352331A332A1432BC1
:101BD00042A340910B01A42FA295AF70B0E0919663
:101BE0003C9191974F70042E01C0880F0A94EAF738
:101BF000982F9095932391969C93919792969C9170
:101C00009297892B92968C93929780A190E002C034
:101C1000959587952A95E2F7817090962C9130E002
:101C200002C0359527954A95E2F720FD02C090E065
:101C300001C092E0892B809327029091000181E0FE
:101C4000982790932602891B8093170280919E0209
:101C5000816080939E0260E086950E941F2860E06C
:101C600082E00E941F280E945A2D0E945A2D0E9435
:101C70005A2D81E091E0909381078093800760E482
:101C8000C62E22242394312C80919402853009F0B1
:101C900046C000E112E180919402853009F039C01C
:101CA00080919402843019F11092880788E190E0C5
:101CB0000FB6F894A895809360000FBEC0926000A4
:101CC00083B7817F846083BF83B7816083BF78944B
:101CD000889583B78E7F83BF0FB6F894A8958091BF
:101CE0006000886180936000109260000FBE809158
:101CF0009302882309F4CFCF0E947B1AE8E1F2E037
:101D00008191811118C3A0E2B2E0AE17BF07C1F7FD
:101D1000C2CF109287020E9438230E943B250E9466
:101D20007B1AB82E81110E941118E7E7F2E0A8E1B2
:101D3000B2E000E010E0A02EDD9081918D2549F108
:101D4000E12CFF24F3949F2D9823F1F00E942E2D77
:101D5000882399F0EDA2AEA2DF2081E009F480E0B3
:101D60008FA30E941D188160782F99A788A74DA185
:101D70005EA16FA189A50E948C28F801E958FD4F4A
:101D80008081F826F0821AC0E394FF0C28E0E2126A
:101D9000DACF0F5F1F4F0830110569F68FEF8AA762
:101DA0008BA71CA60E941D188160782F9EA78DA767
:101DB0004AA55BA56CA58EA50E948C2880912F0357
:101DC000882309F46BC080912E03E0919E02E69572
:101DD000E81BE0932A03823061F4E695F0E0E45DCD
:101DE000FE4FE4910E2F10E05CE0E52E57E2F52E59
:101DF00006C000ED17E041E8E42E44E2F42E8091A5
:101E00002B03882361F010922B030E94FB279093F1
:101E100029038093280310922D0310922C030E9413
:101E2000FB27E0912803F09129039C012E1B3F0B17
:101E30002F3F3F4798F5209122022223B1F01092C4
:101E400022022091200230912102821B930B8F3FAE
:101E50009F4758F4205D3A48309321022093200296
:101E60008091300388608093300380902C039090A1
:101E70002D030E0F1F1F109329030093280388E2E0
:101E800093E0F701099580912C0390912D03892B04
:101E900029F4892819F081E080932202E091270239
:101EA0005E2F550F550F20910C01E22FE295EF7038
:101EB000F0E080A190E02F7002C0959587952A955B
:101EC000E2F78170992740910B01E42FE295EF70C2
:101ED000F0E020A130E04F7002C0359527954A957B
:101EE000E2F7F901E170FF2720FF02C0E2E0F0E035
:101EF000E82BF92BE52BE093270210912602EF70D7
:101F0000F0E0E955FE4F908180912502890F809382
:101F10002502843074F0E12FF0E0ED5DFD4F80810B
:101F20008F5F808360E0812F0E94322ADD24D3946A
:101F300001C0D12C809125028D3F6CF4E12FF0E09F
:101F4000ED5DFD4F80818150808361E0812F0E9493
:101F5000322ADD24D39480912502082E000C990B9F
:101F600064E070E00E94D83180932502D1100E9475
:101F70000E1A80917D07882309F4CCC180917302E9
:101F8000909174020E940218C29708F4C2C00E9485
:101F90001D18909374028093730280E793E09093EE
:101FA0007707809376070E942E2D882309F4B1C00D
:101FB00084E2E1E6F1E0DE01119601900D928A954E
:101FC000E1F740912C0250912D0260912E02709108
:101FD0002F028091280290912902A0912A02B091AB
:101FE0002B02842B952BA62BB72BAD0166277727C9
:101FF000411551056105710521F0DB01CA0110E1B0
:1020000001C010E0492F5A2F6B2F7727411551053A
:102010006105710519F0185FDB01CA01AC01BD0152
:1020200004E076956795579547950A95D1F7411540
:1020300051056105710519F01C5FDB01CA01AC0196
:10204000BD01F2E07695679557954795FA95D1F7DA
:10205000411551056105710519F01E5FDB01CA01CB
:10206000B695A79597958795892B8A2B8B2B09F089
:102070001F5F85E891E00E942713143050F481E03F
:1020800090E08C0F9D1FF9E01F9F800D911D112482
:1020900002C08DE891E00E942D2A8BE891E00E9419
:1020A0002D2A1091300280918702182B60E089E37D
:1020B00091E00E944F26812F827261E009F460E076
:1020C00087E391E00E944F2661E0812F817109F43E
:1020D00060E085E391E00E944F2661E0812F8474E7
:1020E00009F460E083E391E00E944F26187861E0F4
:1020F00009F460E081E391E00E944F2681E00E94B4
:102100008B2560E08FE291E00E944F2681E00E94E3
:102110008B2580917D07882309F4E1C020916E030F
:1021200030916F032115310509F4D9C080917202F5
:102130008111D5C0482E512C7101082E02C0EE0C21
:10214000FF1C0A94E2F7A9014E215F21452B11F4EF
:102150008F5FF0CF90917102920176E0220F331FD2
:102160007A95E1F790FD13C08295880F880F8074EF
:1021700080930F01220F232F221F330B31952093C1
:102180001201815C809310011092130112C056E07D
:10219000369527955A95E1F7220F220F220F2093AB
:1021A0000F0110921201295F2093100187E08093A4
:1021B000130124E630E047E050E06DE071E088E78D
:1021C0000E94ED2E892B09F08AC08091710280FD5A
:1021D00023C0C20146E0880F991F4A95E1F7AC0180
:1021E00040595C4F04E610E020E430E060E488E70A
:1021F0000E94142F892B09F072C00E946525E0947B
:10220000F09480916E0390916F03E822F922F0928E
:102210006F03E0926E0363C0E1E3F2E0DF012C2D77
:102220001D922A95E9F736E0440C551C3A95E1F7E2
:102230008FEB91E098AB8FA747EB51E0AFA5B8A922
:102240008D91B8ABAFA7FA019191AF018201090F4F
:10225000111D00591C4F90E08F5C9D4FFC0127E041
:10226000922E9F01281B390B722C01C0770C2A95E6
:10227000EAF7B801812CDB01AD90BD01A720292D23
:1022800028192770622E022E000C330BBA2D01C0C4
:10229000BB0F6A94EAF76B2E3195219531092770AF
:1022A000332701C0A6942A95EAF76A28A0806A28F5
:1022B0006082839428E08212DECF9A9431963FEFB9
:1022C0009312CFCF8FA598A9875C914009F0B6CF24
:1022D00004E610E020E430E041E352E087CF809153
:1022E0007C078823B9F00E9411180091780710919B
:1022F000790720917A0730917B07DC01CB01801BA5
:10230000910BA20BB30B8F3F9F4FAF4FBF4710F402
:102310000E944B25B11001C0D1100E9465250E947A
:102320003B2590917502891709F4AECC0E943B259C
:1023300080937502A9CC09BD19BD09B400FEFDCF7B
:102340008091D8008F7D8093D8008091E0008260DA
:102350008093E0008091E00081FDFCCF1092870225
:102360000E94382398CC2091E4003091E50095E656
:102370004091EC00842F817040FF23C08091E800E1
:1023800080FD1DC080919402882399F0853099F0DA
:102390008091EB0085FD11C04091E4005091E50073
:1023A0002417350729F3915011F09A01E1CF84E009
:1023B000089582E0089583E0089581E0089580E023
:1023C00008954091E80042FFDDCF0895EF92FF921B
:1023D0000F931F93CF93DF937C018B010E94B31166
:1023E000811119C0E70101151105A1F08091E800E4
:1023F00085FD0AC08091E8008E778093E8000E94F6
:10240000B311882381F307C089918093F1000150B3
:102410001109E9CF80E0DF91CF911F910F91FF90DB
:10242000EF9008958091960287FF11C08091E80097
:1024300082FD05C0809194028111F8CF11C0809176
:10244000E8008B770BC080919402882349F080913B
:10245000E80080FFF8CF8091E8008E778093E80055
:102460000895982F973068F59093E900981739F000
:102470007091EC002091ED005091F00003C0242FEA
:10248000762F50E021FD02C09F5FECCF3091EB0032
:102490003E7F3093EB003091ED003D7F3093ED00B7
:1024A0003091EB0031603093EB007093EC0020939F
:1024B000ED005093F0002091EE0027FDE5CF80E085
:1024C00008958F708093E90081E0089520919C0227
:1024D00030919D022617370748F06115710539F4D0
:1024E0002091E8002E772093E80001C0B901FC019B
:1024F00020E06115710579F1809194028823F1F152
:102500008530F1F18091E80083FD3CC08091E800C6
:1025100082FD2EC08091E80080FFEBCF2091F30078
:102520008091F20090E0922B6115710551F0883096
:10253000910538F421912093F100615071090196C1
:10254000F3CF21E0089709F020E08091E8008E7732
:102550008093E800CECF2111CFCF0AC080919402A2
:10256000882361F0853061F08091E80083FD0AC026
:102570008091E80082FFF2CF80E0089582E0089524
:1025800083E0089581E00895089580918902089577
:1025900090919402943031F5809383027093850278
:1025A0006093840282E08093E9008FEF9091E800CD
:1025B000815095FD06C095ED9A95F1F700008111C7
:1025C000F5CF8091E80085FF0DC040E050E063E06A
:1025D00070E083E892E00E94E6118091E8008E7737
:1025E0008093E8000895BC0184E00C94C812BC01FB
:1025F00083E00C94C812CF93DF9321E02093E9008D
:102600002FEF3091E800215035FD06C035ED3A95A9
:10261000F1F700002111F5CF2091E80025FF14C04B
:10262000EC0140E050E068E070E00E94E61180912B
:10263000E8008E778093E80088E0FE01AAE8B2E027
:1026400001900D928A95E1F7DF91CF9108950F9354
:102650001F93CF93DF93EC01FC0101900020E9F779
:102660008F0101501109C017D10728F460E089914A
:102670000E94BC25F8CFDF91CF911F910F91089553
:1026800080919E0280FF07C0869582588F778530A3
:1026900010F40C945A2D61E082E00C941F28EF9204
:1026A000FF920F931F93CF93DF93EC017B0164E6BE
:1026B00070E088E70E943C2E8C01EC0EFD1ECE15CA
:1026C000DF0561F017FD0AC0FE01849164E670E049
:1026D0000E94BD2E8C012196892B89F30E94412FE7
:1026E000C801DF91CF911F910F91FF90EF90089556
:1026F0001F93CF93DF93CDB7DEB7AA970FB6F894A9
:10270000DEBF0FBECDBFE6E9F2E08091F10081931C
:1027100022E0EE39F207C9F780919702833009F47D
:1027200060C030F4813071F0823009F49CC0B3C0D5
:102730008A3009F488C08B3009F46BC0893009F005
:10274000AAC020C080919602813A09F0A4C080916D
:10275000E800877F8093E80080919A0290919B0225
:10276000892B21F468E08AE892E003C060E080E011
:1027700090E070E00E9466128091E8008B77809371
:10278000E80089C080919602813209F084C080916E
:102790009A0290919B02029708F07DC08091E80018
:1027A000877F8093E8008091E80082FD05C08091DA
:1027B00094028111F8CF6FC02091F3008091F20054
:1027C00090E0922B029729F48091F1008B7F813069
:1027D00021F48091F100809389028091E8008B7749
:1027E00056C080919602813A09F055C080919A02B4
:1027F00090919B02892B09F04EC08091E800877F61
:102800008093E8008091E80080FFFCCF8091140164
:1028100039C0809196028132F1F580919A029091AF
:102820009B02892BC1F58091E800877F8093E800A7
:102830000E941212809198028093140110928702D4
:102840000E94382328C080919602813221F5809120
:10285000E800877F8093E8000E941212809199021D
:102860008093880218C080919602813AA1F48091E9
:10287000E800877F8093E8008091E80080FFFCCF2C
:10288000809188028093F1008091E8008E77809398
:10289000E8000E9412128091E80083FFCCC1809171
:1028A000960290919702492F50E04A30510508F066
:1028B000C2C1FA01E259FF4F0C94EC31803821F08B
:1028C000823809F0B8C108C08091920290919302B9
:1028D000992389F082600FC080919A028F708730AF
:1028E00008F0A9C18093E9008091EB0085FB88275F
:1028F00080F91092E9009091E800977F9093E800AA
:102900008093F1001092F10065C1282F2D7F09F00E
:1029100092C1882319F0823061F08DC180919802B4
:10292000813009F088C1933009F080E080939302F0
:102930002EC08091980281112AC080919A028F70D6
:102940002FEF280F263008F076C18093E900209100
:10295000EB0020FF1CC0933021F48091EB008062DB
:1029600014C09091EB0090619093EB0021E030E077
:10297000A90102C0440F551F8A95E2F74093EA006F
:102980001092EA008091EB0088608093EB00109237
:10299000E9008091E800877F20C181114CC110912E
:1029A00098021F778091E3008078812B8093E30069
:1029B0008091E800877F8093E8000E941212809146
:1029C000E80080FFFCCF8091E30080688093E30003
:1029D000111102C082E001C083E0809394022BC1F8
:1029E0008058823008F027C1809198029091990216
:1029F0008C3D53E0950779F583E08A838AE28983E9
:102A00004FB7F894DE01139620E03EE051E2E32F49
:102A1000F0E050935700E49120FF03C0E295EF707F
:102A20003F5FEF708E2F90E0EA3010F0C79601C044
:102A3000C0968D939D932F5F243149F74FBF8091AE
:102A4000E800877F8093E8006AE270E0CE0101969B
:102A50000E946612AEC040919A0250919B02292FAB
:102A6000332723303105A9F068F42130310509F40A
:102A7000F1C02230310509F0DEC08BE390E0E1EBDC
:102A8000F1E044C02132310521F12232310571F1EA
:102A9000D2C0992781309105A1F058F0029709F032
:102AA000CAC0EEEFF1E0E4918E2F90E0EEEFF1E09E
:102AB0002AC0EEE1F2E0E4918E2F90E0EEE1F2E048
:102AC00022C0ECE0F2E0E4918E2F90E0ECE0F2E046
:102AD0001AC04115510509F4C2C04130510509F031
:102AE000AAC089E090E0ECEDF1E010C0411551057D
:102AF00009F4BAC04130510509F09DC082E390E06D
:102B0000EFE3F1E003C0009709F495C02091E800DD
:102B1000277F2093E80020919C0230919D0282172C
:102B2000930708F49C0140E02115310589F180915B
:102B30009402882309F43DC08530D9F18091E800E2
:102B400083FD37C08091E80082FD2FC08091E800AE
:102B500080FFEACF4091F3008091F20090E0942B47
:102B60002115310559F08830910540F44491409386
:102B7000F1003196215031090196F2CF41E00897DA
:102B800009F040E08091E8008E778093E800CCCF98
:102B90004111CDCF0AC080919402882351F0853035
:102BA00041F08091E80083FD04C08091E80082FF3D
:102BB000F2CF8091E8008B778093E8003CC08038AA
:102BC000D1F58091E800877F8093E800809195029D
:102BD0008093F1008091E8008E778093E8000E9456
:102BE000121229C0811127C08091980290919902F8
:102BF0009927029704F58091E800877F8093E80089
:102C000010919802109395020E941212111106C0A1
:102C10008091E30087FD02C081E001C084E08093E1
:102C2000940242E061EC81E00E94311242E261ECE8
:102C300082E00E9431128091E80083FF1AC08091E7
:102C4000E800877F8093E8008091EB0080628093AA
:102C5000EB000FC082E190E0ECEEF1E057CF89E0AD
:102C600090E0E3ECF1E052CF80E490E0E1E7F1E0C6
:102C70004DCFAA960FB6F894DEBF0FBECDBFDF9141
:102C8000CF911F9108951F920F920FB60F921124AA
:102C90002F933F934F935F936F937F938F939F9364
:102CA000AF93BF93CF93DF93EF93FF93C091E9006E
:102CB000CF708091EC00D82FD17080FDD0E81092B9
:102CC000E9008091F000877F8093F00078940E9463
:102CD00078131092E9008091F00088608093F000F2
:102CE000CD2BCF70C093E900FF91EF91DF91CF9191
:102CF000BF91AF919F918F917F916F915F914F9114
:102D00003F912F910F900FBE0F901F901895E8EDF7
:102D1000F0E080818E7F80831092E2001092DA00D2
:102D20001092E100A0EEB0E08C9181608C938081E4
:102D30008F77808319BCA7EDB0E08C918E7F8C9348
:102D400080818F7E8083109286020895CF92DF92D9
:102D5000EF92FF920F931F93CF93DF93C8EDD0E0D4
:102D600088818F7E8883E7EDF0E0808181608083B9
:102D700084E082BF81E08093860288818E7F888391
:102D800002EE10E0F80110821092DA0081EEC82EF7
:102D9000D12CF601108288818F77888388818068A2
:102DA000888388818F7D888319BC10929402109249
:102DB0009502109293021092920290EEE92EF12C5D
:102DC000F70180818B7F808388818160888342E0E6
:102DD00060E080E00E943112F60180818E7F808366
:102DE000F801808181608083808188608083F70121
:102DF00080818E7F8083888180618883DF91CF91FD
:102E00001F910F91FF90EF90DF90CF9008951F9248
:102E10000F920FB60F9211242F933F934F935F930E
:102E20006F937F938F939F93AF93BF93EF93FF9392
:102E30008091E10082FF09C08091E20082FF05C01D
:102E40008091E1008B7F8093E1008091DA0080FF28
:102E50002AC08091D80080FF26C08091DA008E7F42
:102E60008093DA008091D90080FF18C080E189BD8D
:102E700082E189BD09B400FEFDCF81E08093940218
:102E80008091860281110FC00E9487160E94A616AB
:102E90008091E20084608093E20005C019BC10922A
:102EA0009402109286028091E10080FF17C0809109
:102EB000E20080FF13C08091E2008E7F8093E200E9
:102EC0008091E20080618093E2008091D80080626E
:102ED0008093D80019BC85E0809394028091E10032
:102EE00084FF2EC08091E20084FF2AC080E189BD6A
:102EF00082E189BD09B400FEFDCF8091D8008F7DAD
:102F00008093D8008091E1008F7E8093E1008091D2
:102F1000E2008F7E8093E2008091E20081608093E6
:102F2000E20080919502882311F084E007C080912F
:102F3000E30087FD02C081E001C083E0809394023A
:102F40008091E10083FF27C08091E20083FF23C0CE
:102F50008091E100877F8093E10082E0809394027A
:102F6000109295028091E1008E7F8093E100809124
:102F7000E2008E7F8093E2008091E2008061809386
:102F8000E20042E060E080E00E9431128091F000B7
:102F900088608093F000FF91EF91BF91AF919F9176
:102FA0008F917F916F915F914F913F912F910F90F2
:102FB0000FBE0F901F90189578941F920F920FB626
:102FC0000F9211248F939F93AF93BF9380917F02B1
:102FD00090918002A0918102B09182020196A11D80
:102FE000B11D80937F0290938002A0938102B093E1
:102FF0008202BF91AF919F918F910F900FBE0F9062
:103000001F9018959C014FB7F89480917F02909182
:103010008002A0918102B09182024FBF821B930B6C
:1030200008952FB7F89460917F027091800280918B
:103030008102909182022FBF08952FB7F89480915A
:103040007F0290918002A0918102B09182022FBFF5
:10305000089580E008959091060292FF0DC0282FF8
:103060002871283019F4877F846006C0282F2471C6
:10307000243011F48B7F886093FF0DC0282F2871B6
:10308000283119F4877E846106C0282F24712431E9
:1030900011F48B7E88612091070220FF0DC0382F2C
:1030A0003871383019F4877F816006C0382F31714C
:1030B000313011F48E7F886021FF0DC0282F2871D8
:1030C000283119F4877E816106C0282F21712131B2
:1030D00011F48E7E886194FD877E0895F894E82F20
:1030E000E295EF70F0E031A1282F2F7081E090E0A1
:1030F00001C0880F2A95EAF7982F9095932391A302
:1031000092A1892B82A378940895CF93DF9382387C
:10311000910569F1B0F48133910509F46FC048F469
:103120008932910509F465C08A32910509F46BC0B2
:103130008AC08533910509F457C089339105B9F0E8
:1031400082C0833E910571F138F4803E9105B1F063
:10315000823E910511F177C0863E9105B9F1873E17
:103160009105C9F1843E910509F06DC024C02091FC
:10317000060220FD53C021FD51C065C080910602AA
:1031800080FD46C08091070280FF48C08091060202
:1031900084FD3FC183EE90E03EC18091060282FF34
:1031A0003AC0F4CF8091060282FD35C080910702BB
:1031B00080FD34C0EBCF8091070281FF35C0809144
:1031C000060284FD26C187EE90E025C180910602AB
:1031D00083FF27C0F4CF8091060283FD22C0809137
:1031E000070281FD21C0EBCF8091060285FD1FC043
:1031F00021C08091060285FD1DC019C08091060284
:1032000086FD1BC01DC08091060286FD19C015C039
:1032100089E390E000C182EE90E0FDC080EE90E096
:10322000FAC086EE90E0F7C084EE90E0F4C089E248
:1032300090E0F1C085E390E0EEC08AE290E0EBC060
:1032400081E390E0E8C0811532E5930708F069C09A
:10325000811541E5940728F0982F8827816F906A9F
:10326000DAC0883E910568F5803E910508F0D3C02C
:10327000883A9105B8F4853A910548F0855AE82FC7
:10328000F0E0E953FE4F808190E09064C4C081304B
:10329000910509F4BBC008F4BCC08430910508F462
:1032A000B8C0B9C08F3B910508F0B3C0885AE82F69
:1032B000F0E0EE0FFF1FE653FE4F80819181946492
:1032C000AAC0811520E59207F0F09C0174E03695C4
:1032D00027957A95E1F7922F9370482F437021E05C
:1032E00030E002C0220F331F4A95E2F73C68392BC9
:1032F0008F70982F9695969540E2949FC001112467
:10330000822B932B88C0811530E4930718F09F70AF
:10331000906A81C09C013A9521153F4108F47BC019
:1033200078C0EC01C11586E5D807E8F5C11525E59B
:10333000D20748F08C2F0E942B188F7190E0982FA5
:103340008827906268C0C11534E5D30728F09C2F08
:103350008827846F906A5FC0AE01437055272C2F79
:1033600026952695C115D34578F481E090E002C0FA
:10337000880F991F4A95E2F740E2249F900111249B
:10338000822B932B9C6847C081E090E002C0880F9D
:10339000991F4A95E2F740E2249F90011124822B65
:1033A000932B9A6838C0C1152AE5D207F8F4C115E5
:1033B00039E5D30790F08C2F8F700E942B1894E082
:1033C000D695C7959A95E1F7CF70D0E0DC2FCC2742
:1033D000D0699E01282BC9011EC0C11548E5D4073C
:1033E000C0F09C2F8827806F906A15C0CE01905640
:1033F0008115904270F48D2F8F710E942B18282F09
:103400002F71CE0199279062922B05C081E090E048
:1034100002C080E090E0DF91CF9108950C941118E4
:1034200069EE7EEF80E090E00E94B63160E082E0DD
:1034300090E00E94983160E083E090E00E94983133
:10344000109228021092290210922A0210922B0246
:1034500060E084E090E00E94983160E082E290E0D9
:103460000E94983160E085E090E00E94983160E031
:1034700086E090E00E9498316FEF87E090E00E9434
:10348000983140E050E0BA0188E090E00E94AA3113
:1034900060E08DE090E00E94983140E050E0BA0199
:1034A00088E190E00E94AA3160E087E190E00E940C
:1034B000983140E050E0BA018CE190E00E94AA31DE
:1034C00060E070E080E290E00E94B63140E050E0C1
:1034D000BA0188E190E00E94AA3140E050E0BA01D0
:1034E0008FE090E00E94AA3140E050E0BA0183E111
:1034F00090E00C94AA319F92AF92BF92CF92DF924C
:10350000EF92FF920F931F93CF93DF93CDB7DEB768
:103510002C970FB6F894DEBF0FBECDBF9E012F5F74
:103520003F4F790188E0F90111928A95E9F707E99F
:1035300011E05901CC24C394D12CF80180818F3F34
:1035400009F447C0F894E82FE295EF70F0E021A16C
:103550008F70A60102C0440F551F8A95E2F7CA0179
:10356000922F982B91A392A18095892382A378947E
:1035700000C0EFE9F1E020E030E0912C41914F3FB5
:10358000B1F0A42FA295AF70B0E090968C9190E02E
:103590004F7002C0959587954A95E2F780FD07C068
:1035A0008C2D022E01C0880F0A94EAF701C080E03A
:1035B000982A2F5F3F4F2830310501F7F8018081AD
:1035C0008F3F11F00E946E18F0EAFA95F1F7F501BD
:1035D00090820F5F1F4FFFEFAF1ABF0A21E00B3938
:1035E000120709F0AACF48E050E0B7018CE092E062
:1035F0000E94FF318C01892B41F088E0F701ACE09B
:10360000B2E001900D928A95E1F7F0901502011554
:10361000110549F081E08093A5020E941D18909346
:10362000A4028093A3028091A5028823B1F0809127
:10363000A3029091A4020E940218059770F0ACE0DA
:10364000B2E0EF2DF0E0E85EFD4F8D91819332E026
:10365000A031B307D1F71092A5020115110509F0A9
:10366000D7C30E942E2DE0911502882309F41CC3B4
:1036700019861A861B861C860E2F10E0085E1D4FC9
:103680008091B707AE01435F5F4F7A018A3058F4EB
:103690004AEA5CE2BE01675F7F4FC8010E94ED2CE1
:1036A000882399F10AC08091A6029091A7020E94F6
:1036B0000218843F914060F73AC044E55CE2BE01E5
:1036C000675F7F4FC8010E94ED2C8823F1F049E825
:1036D0005AE2BE01675F7F4FC8010E94ED2C88232C
:1036E000A1F046E65BE2BE01675F7F4FC8010E9422
:1036F000ED2C882351F043E45BE2BE01675F7F4F0E
:10370000C8010E94ED2C811186C38091B7078F3FBD
:1037100019F08F5F8093B7078091B7078A3008F45C
:103720007CC30E941D189093A7028093A602E0918B
:103730001402F0E0E85EFD4FDE01199611921D9231
:10374000EA16FB06D9F701E08091AA02882371F0FE
:103750008091A8029091A9020E940218833E944091
:1037600028F080EE0E946B231092AA028091B8028A
:10377000882309F465C38091B702882309F460C3E4
:103780008091B5029091B6020E9402188139914051
:1037900008F456C31092B8028091AB029091AC022B
:1037A0000D97D9F48091AD029091AE02892BA9F4C6
:1037B0008091AF029091B002892B79F48091B1028F
:1037C0009091B202892B49F48091B3029091B40296
:1037D000892B19F484E30E9463248091AB029091B9
:1037E000AC020497D9F48091AD029091AE02892B7E
:1037F000A9F48091AF029091B002892B79F4809165
:10380000B1029091B202892B49F48091B302909158
:10381000B402892B19F484E30E9463248091AB02E3
:103820009091AC020897E1F48091AD029091AE02C4
:10383000892BB1F48091AF029091B002892B81F471
:103840008091B1029091B202892B51F48091B30220
:103850009091B402892B21F488E094E10E94FB2925
:103860008091AB029091AC024297D9F48091AD0265
:103870009091AE02892BA9F48091AF029091B00291
:10388000892B79F48091B1029091B202892B49F48D
:103890008091B3029091B402892B19F483E30E94C2
:1038A00063248091AB029091AC024897D9F4809147
:1038B000AD029091AE02892BA9F48091AF02909154
:1038C000B002892B79F48091B1029091B202892BD8
:1038D00049F48091B3029091B402892B19F48FE2DC
:1038E0000E9463248091AB029091AC024697D9F478
:1038F0008091AD029091AE02892BA9F48091AF0224
:103900009091B002892B79F48091B1029091B2022A
:10391000892B49F48091B3029091B402892B19F458
:103920008DE20E9463248091AB029091AC02439798
:1039300039F58091AD029091AE02892B09F5809105
:10394000AF029091B002892BD9F48091B10290918D
:10395000B202892BA9F48091B3029091B402892B11
:1039600079F480EE0E94C72381EE0E94C72384E28F
:103970000E94632481EE0E946B2380EE0E946B23E1
:103980008091AB029091AC02099739F58091AD021C
:103990009091AE02892B09F58091AF029091B0020F
:1039A000892BD9F48091B1029091B202892BA9F4AC
:1039B0008091B3029091B402892B79F480EE0E9439
:1039C000C72381EE0E94C72385E20E94632481EE13
:1039D0000E946B2380EE0E946B238091AB0290913A
:1039E000AC02C79709F58091AD029091AE02892B88
:1039F000D9F48091AF029091B002892BA9F4809103
:103A0000B1029091B202892B79F48091B302909126
:103A1000B402892B49F483EE0E94C7238EE40E94EE
:103A2000632483EE0E946B238091AB029091AC02E1
:103A3000C69709F58091AD029091AE02892BD9F419
:103A40008091AF029091B002892BA9F48091B102CC
:103A50009091B202892B79F48091B3029091B402D3
:103A6000892B49F483EE0E94C7238BE40E946324D0
:103A700083EE0E946B238091AB029091AC020C9775
:103A8000E1F48091AD029091AE02892BB1F4809166
:103A9000AF029091B002892B81F48091B102909194
:103AA000B202892B51F48091B3029091B402892B18
:103AB00021F48AEE92E00E949C298091AB029091C1
:103AC000AC020F97D9F48091AD029091AE02892B90
:103AD000A9F48091AF029091B002892B79F4809182
:103AE000B1029091B202892B49F48091B302909176
:103AF000B402892B19F483E00E94AA228091AB02C0
:103B00009091AC02409769F58091AD029091AE0220
:103B1000479739F58091AF029091B002892B09F552
:103B20008091B1029091B202892BD9F48091B302B5
:103B30009091B402892BA9F486EE92E00E949C2910
:103B400083E30E94632480EE92E00E949C298FE22E
:103B50000E9463248DE20E94632486ED92E00E941D
:103B60009C298091AB029091AC024097A1F5809185
:103B7000AD029091AE02469771F58091AF0290919F
:103B8000B002892B41F58091B1029091B202892B4C
:103B900011F58091B3029091B402892BE1F482ED8A
:103BA00092E00E949C2983E30E9463248CEC92E0C3
:103BB0000E949C298FE20E9463248DE20E9463246C
:103BC00081EC92E00E949C2983E30E9463248AEBAB
:103BD00092E00E949C298091AB029091AC024097A8
:103BE00069F58091AD029091AE02459739F58091CB
:103BF000AF029091B002892B09F58091B1029091AA
:103C0000B202892BD9F48091B3029091B402892B2E
:103C1000A9F48BEA92E00E949C298FE20E9463241F
:103C20008DE20E94632480EA92E00E949C2983E353
:103C30000E94632489E992E00E949C298091AB0252
:103C40009091AC02409709F0FBC08091AD02909139
:103C5000AE024A9709F0F4C08091AF029091B00291
:103C6000892B09F0EDC08091B1029091B202892BAD
:103C700009F0E6C08091B3029091B402892B09F05B
:103C8000DFC080E992E00E949C2983E30E946324C4
:103C900083E792E00E949C2983E30E94632482E2EE
:103CA00092E00E949C29CCC0F0E0E85EFD4FF894C1
:103CB00084E0A8E9B7E001900D928A95E1F764E00D
:103CC00070E088E997E00E946126809397077894D6
:103CD000F894E0912602F0E0ED5DFD4F8081898748
:103CE00080939D0761E070E0CE0109960E946126F5
:103CF00080939C077894F894C0909E07D0909F077B
:103D0000E090A007F090A1078091B9029091BA02CB
:103D1000A091BB02B091BC02C816D906EA06FB0608
:103D2000D1F0C092B902D092BA02E092BB02F092F6
:103D3000BC020E942E2D81110EC00E941118C61ABD
:103D4000D70AE80AF90AC0928407D0928507E09260
:103D50008607F09287077894F8948091A9078823C2
:103D600009F449C080FF24C09091A20780919E026F
:103D700090FF09C0816080939E0260E0892F869544
:103D80000E941F2815C08E7F80939E020E947E266F
:103D9000809130038160809330032FEF30E742E061
:103DA000215030404040E1F700C000000E948526CD
:103DB0008091A90781FF09C020E04091A50760918B
:103DC000A4078091A3070E9447278091A90782FF3B
:103DD00009C08091A807882319F00E94042802C016
:103DE0000E947E268091A90783FF03C081E0809313
:103DF0002B031092A9077894F8948091AA0788233E
:103E000019F00E94652502C00E944B25789418C0C5
:103E100001E010E015C01092B707E0911402F0E045
:103E2000E85EFD4FDE01199600E08D9190819817B4
:103E300011F0808301E03196AE15BF05B1F784CC57
:103E4000802F2C960FB6F894DEBF0FBECDBFDF914A
:103E5000CF911F910F91FF90EF90DF90CF90BF9087
:103E6000AF909F900895809130028111109230029E
:103E700008959091870280912703892B2091260332
:103E8000982F922B9093BD0280913002882389F065
:103E9000892B8093BD02EFEBF2E097E080E0915038
:103EA00029F021912223D9F38F5FF9CF81110E944C
:103EB000331FE0918007F0918107309731F0028045
:103EC000F381E02D8DEB92E00994089580E090E07D
:103ED0000E94252580E090E00E940F251092270384
:103EE000109226030C94391FCF93C0910702C2FB96
:103EF000992790F9981781F080FBC2F9C0930702C7
:103F00006091060284E090E00E9498316C2F82E27A
:103F100090E0CF910C949831CF9108958091240333
:103F20009091F302891719F08F5F8770FBCF089586
:103F30000F931F93CF93DF938091F20282958F703E
:103F400009F05DC08091EF02882309F458C0809188
:103F500024031091F3026091ED027091EE02C09182
:103F6000F002D091F10291E06F3F09F090E0292F2B
:103F700006E0811709F443C0209721F07F3F21F02C
:103F800030E003C031E001C0322F90E030FD34C09A
:103F9000089FF001099FF00D1124DF01AC50BD4FC7
:103FA00011963C911197371327C03C91361324C0CA
:103FB00012963C91129731111FC013964D915C914E
:103FC00014974C1B5D0B4F3A5105B0F48091F202EF
:103FD0008F7080618093F202E750FD4F80818F7077
:103FE000806180838DEE92E00E944506DF91CF9143
:103FF0001F910F910C948E1F01968770BACFDF919D
:10400000CF911F910F9108958F929F92AF92BF927F
:10401000EF92FF920F931F93CF93DF9380902C0228
:1040200090902D02A0902E02B0902F024091280275
:104030005091290260912A0270912B02842A952ABC
:10404000A62AB72ACFE1D0E0E92EF12C082F10E004
:10405000D501C4010C2E04C0B695A79597958795F8
:104060000A94D2F780FD04C0219790F780E01AC02F
:10407000FE0183E0EE0FFF1F8A95E1F7EE0DFF1DB5
:1040800093E0EE0FFF1F9A95E1F7E00FF11FEE0F9F
:10409000FF1FE151FD4F859194910E948518019772
:1040A00019F38C2FDF91CF911F910F91FF90EF901B
:1040B000BF90AF909F908F900895CF93DF93D82FAC
:1040C000C92F0E940420EC2FF0E098E0899FE00DBA
:1040D000F11D112483E0EE0FFF1F8A95E1F7ED0F2C
:1040E000F11DEE0FFF1FE151FD4F859194910E944C
:1040F0008518DF91CF910895FC01808191810E9404
:104100005D20292F2F70E92FE295EF704E2F50E0A0
:10411000FA013297EE30F105B8F4E858FF4F0C94ED
:10412000EC31803F99F018F4883E70F40FC0843F62
:1041300059F40CC0883E50F0813F31F407C0822F03
:10414000869586958695089580E0089581E0089586
:104150009F92AF92BF92CF92DF92EF92FF920F9316
:104160001F93CF93DF93CDB7DEB761970FB6F89467
:10417000DEBF0FBECDBF8C0185E0F801DE011D96CC
:1041800001900D928A95E1F7F801E2809091ED029D
:104190006091EE024091F0025091F10241155105FB
:1041A00031F06F3F31F481E09F3F19F403C081E0AB
:1041B00001C080E0F82FF1709F2E80FD1AC1F80138
:1041C00030812181C380D4808DEEA82E82E0B82E6C
:1041D000F090EF02F601E41BF50BFF2009F4C6C0D6
:1041E0008091F202EF3AF10508F091C0482F407F2C
:1041F00009F050C0621311C093130FC0FE2CE110E0
:104200000CC08F7080618093F202C5010E94450648
:104210008091F202F801858329C1CD2831F02F3F2A
:1042200031F481E03F3F19F403C081E001C080E038
:1042300080FD03C081E08E2502C080E090E0F82F71
:10424000F170FF2E80FF1CC0809124034091F30287
:1042500056E0841709F4E8C090E0589FF001599F98
:10426000F00D1124EC50FD4F6181261306C06081D2
:10427000631303C06281E61203C001968770E9CF21
:10428000FE2CEE2009F4F2C08091F202816080934E
:10429000F20249C0621306C0931304C0E11002C0C9
:1042A000F80186C0C8010E947C20882351F1EE20CD
:1042B00041F12091F202822F82958F7090E0029757
:1042C00074F08091ED029091EE0298878F831986A9
:1042D000DB86CA862C87CE0107960E94450686E0BB
:1042E000F801ADEEB2E001900D928A95E1F70E94DF
:1042F000981F0AC06217C9F0C8010E947C20811172
:104300001EC0C8010E944506FF24F394AFC0482F89
:10431000407F81F78DEE92E00E94450686E0F50130
:1043200011928A95E9F7F12CA1C09313E5CFE11022
:10433000E3CFF8018583C8010E94450654C0EE20F2
:1043400001F32091F202822F82958F7090E0029704
:1043500034F28091ED029091EE029A8389831B8260
:10436000DD82CC822E83CE010196B7CFEF3AF105E4
:10437000D0F5FE2CEE2029F2621327C0931325C03E
:104380002091F20220FD18C0822F82958F70482F55
:1043900050E04115510581F0F80125834F3051055A
:1043A00041F08F5F982F9295907F822F8F70892B8D
:1043B0008583C8010E94450686E0F801ADEEB2E0B3
:1043C00001900D928A95E1F751C0C8010E947C20AE
:1043D000811185CF8091F20281608093F202C80141
:1043E0000E94450643C086E0F50111928A95E9F7DF
:1043F0003DC0EE2009F485CFC8010E947C20F82E34
:10440000882309F47ECF86E0F801ADEEB2E001909A
:104410000D928A95E1F78091ED029091EE020E9453
:104420005D200E94981F22C03D872E878D859E8526
:104430000E945D20292F22952F70223028F49F7032
:1044400039F0811105C00BC0243028F49F7049F465
:10445000805E883020F0C8010E9445069F2CF92C10
:1044600005C0F8019581907F99F7F9CF8F2D61965E
:104470000FB6F894DEBF0FBECDBFDF91CF911F9175
:104480000F91FF90EF90DF90CF90BF90AF909F90F3
:10449000089528E0929F800D1124682F66956695F7
:1044A0006695982F977085E0689FB001112440E0D1
:1044B00050E080E0FB01E40FF51FEB53FD4F20813E
:1044C00030E0092E02C0369527950A94E2F7217054
:1044D0003327042E01C0220F0A94EAF7822B4F5F84
:1044E0005F4F4530510531F7089528E0929F800DC8
:1044F0001124E82FE695E695E695877051E001C016
:10450000550F8A95EAF785E0E89FF0011124EB53F7
:10451000FD4F20E030E070E04081CB01022E02C070
:10452000969587950A94E2F7817081958427852373
:10453000842781932F5F3F4F2530310569F7089518
:1045400060932C0270932D0280932E0290932F0281
:104550000C94661F0F931F9341E050E060E070E001
:1045600004C0440F551F661F771F8A95D2F78091AC
:104570002C0290912D02A0912E02B0912F028A015F
:104580009B01082719272A273B27C901B8011F913A
:104590000F910C94A0220F931F9341E050E060E034
:1045A00070E004C0440F551F661F771F8A95D2F72D
:1045B000409550956095709580912C0290912D02B8
:1045C000A0912E02B0912F028A019B01082319238A
:1045D0002A233B23C901B8011F910F910C94A022FB
:1045E000209125038095822380932503982F97702F
:1045F00041F430E0482F082E000C550B24173507E6
:1046000021F49091070292FF07C0859585958595C5
:104610000E94CB221092250308950F931F9341E02F
:1046200050E060E070E004C0440F551F661F771F24
:104630008A95D2F780912C0290912D02A0912E02A2
:10464000B0912F028A019B01082B192B2A2B3B2B9F
:10465000C901B8011F910F910C94A0226093280208
:104660007093290280932A0290932B020C94661F68
:1046700086E0EFEBF2E0DF011D928A95E9F70C94FA
:10468000661F882341F080959091270389238093AA
:1046900027030C94391F0895882339F0909127033C
:1046A000892B809327030C94391F0895882341F0A8
:1046B0008095909187028923809387020C94391FFB
:1046C0000895882339F090918702892B809387027F
:1046D0000C94391F0895882309F458C0682F823834
:1046E00069F40E943B2581FF51C069E38DEB92E0A4
:1046F0000E94F5240E94391F69E30EC0833891F4AB
:104700000E943B2580FF42C063E58DEB92E00E9452
:10471000F5240E94391F63E58DEB92E00E94E824A6
:104720000C94391F843869F40E943B2582FF2EC007
:1047300067E48DEB92E00E94F5240E94391F67E444
:10474000EBCF8CEF860F813A38F380E2860F88300A
:1047500070F4677081E090E001C0880F6A95EAF715
:10476000809590918702892380938702D9CF8BE52A
:10477000860F833020F480E090E00C942525685A61
:10478000673120F480E090E00C940F250895CF93DA
:10479000882309F496C0C82F8238B1F40E943B25C3
:1047A00081FD8FC069E38DEB92E00E94F5240E94A9
:1047B000391F2FEF81EE94E0215080409040E1F7C7
:1047C00000C0000069E317C08338E1F40E943B2574
:1047D00080FD77C063E58DEB92E00E94F5240E9496
:1047E000391F2FEF81EE94E0215080409040E1F797
:1047F00000C0000063E58DEB92E00E94E824CF91B9
:104800000C94391F8438B1F40E943B2582FD59C0B5
:1048100067E48DEB92E00E94F5240E94391F2FEF90
:1048200081EE94E0215080409040E1F700C000000C
:1048300067E4E1CF8CEF8C0F813A80F4EFEBF2E08C
:1048400085EC92E02191C217A1F18E179F07D1F755
:104850006C2F8DEB92E00E94F524D1CF80E28C0F7B
:10486000883068F4C77081E090E001C0880FCA9575
:10487000EAF790918702892B80938702C0CFEBE5FE
:10488000EC0FE33040F4F0E0E953FE4F808190E01C
:10489000CF910C942525C85AC73198F4EC2FF0E03D
:1048A000EE0FFF1FE653FE4F80819181CF910C9454
:1048B0000F256C2F8DEB92E00E94E8240E94391F97
:1048C000C7CFCF9108951F93CF93DF93182F8933CC
:1048D00019F0C0E0D0E002C0C0E5D0E0812F0E9416
:1048E000C723209741F08FE99FE00197F1F700C0BF
:1048F00000002197F6CF812FDF91CF911F910C946B
:104900006B2308958091A202882319F0815080932F
:10491000A20260919E0270919F028091A0029091EC
:10492000A1020C94772D8091A202833018F48F5F3E
:104930008093A20260919E0270919F028091A002DA
:104940009091A1020C94772D1F920F920FB60F92A7
:1049500011248F939F93AF93BF9380918807811108
:1049600013C080917F0290918002A0918102B0914A
:1049700082024196A11DB11D80937F029093800217
:10498000A0938102B0938202BF91AF919F918F91CA
:104990000F900FBE0F901F9018950F931F930E94BA
:1049A0002E2D882321F01F910F910C9411180E9435
:1049B0001118009184071091850720918607309186
:1049C0008707600F711F821F931F1F910F9108951A
:1049D0009C012A5F3F4FFC014281461301C01282B5
:1049E000019682179307B9F708959C01FC0132964E
:1049F0009FEF80E04191461789F09F3F19F44111E4
:104A000001C0982F8F5F8630A9F79F3F39F0F901D9
:104A1000E90FF11D97FDFA9562830895089520919D
:104A20008207309183072817390771F09093830725
:104A300080938207E0918007F0918107309721F001
:104A40000084F185E02D0994089520917E0730912E
:104A50007F072817390771F090937F0780937E07AF
:104A6000E0918007F0918107309721F00680F7816F
:104A7000E02D099408950E942E2D882351F0E09195
:104A80008007F0918107309721F00190F081E02DAF
:104A9000099480E0089580917D0790917C07882398
:104AA00089F0992369F062E070E085E49AE00E9461
:104AB0004F13892B19F080917C07089510927C0781
:104AC00090917C0781E08927089580917D07882354
:104AD000F9F00E941118DC01CB01805A9541AF4FCB
:104AE000BF4F8093780790937907A0937A07B0938C
:104AF0007B0780917C0781110BC062E070E083E44A
:104B00009AE00E944F13892B19F481E080937C076F
:104B100080917C070895CF93E82F209176073091FC
:104B200077072057334040916D03642F70E0C9012F
:104B30000E946731481B842FEE2359F066E00E94E3
:104B4000CC31C82FC150B0F060E080E20E94BC259B
:104B5000F9CFA901480F511D4115544018F080E0CC
:104B600020E030E0280F311D20593C4F309377076B
:104B700020937607CF910895CF93DF938A3011F475
:104B800081E003C08D3029F480E0DF91CF910C9457
:104B90008B25C62F682F809176079091770726E0A6
:104BA000FC01A0E7B7E001900D922A95E1F7603E85
:104BB00030F026E0FC0111922A95E9F70AC0F6E0F0
:104BC0006F9FB00111246D5F7A4F46E050E00E9464
:104BD0007B31C11137C0C0917607D091770746E08D
:104BE00050E0BE0180E797E00E94FF31892BC9F1B8
:104BF0009E0120573340A90186E0569547958A9536
:104C0000E1F781E090E0BC0102C0660F771F4A9592
:104C1000E2F740916E0350916F03462B572B2B5FA9
:104C20003F4F66E0369527956A95E1F702C0880FF9
:104C3000991F2A95E2F7842B952B90936F0380930D
:104C40006E030FC0E0917607F09177079F012A5F0E
:104C50003F4F2E173F0709F4BECF80818095819387
:104C6000F8CF9E012A56334040916D03642F70E0C7
:104C7000C9010E946731481B463010F4240F311DD2
:104C8000211584E0380710F020E030E020593C4F37
:104C90003093770720937607DF91CF9108951F9384
:104CA000CF93DF93EC01162FFE018491882329F026
:104CB000612F0E94BC252196F7CFDF91CF911F91E4
:104CC0000895FC01680F791F8FEF91E3E617F7074E
:104CD00071F02191822728E030E087FF03C0880F20
:104CE000892701C0880F21503109B9F7EFCF089506
:104CF000882311F0FA0101C0FB010994EEE2F3E010
:104D000011828281846082830895CF92DF92EF9234
:104D10000F931F93CF93DF93CDB7DEB7EC970FB60A
:104D2000F894DEBF0FBECDBF6091170180919E0247
:104D300080FF0AC0EFEEF4E0AE014F5F5F4F8E01DF
:104D4000035C1F4FCA0114C0809118019091190192
:104D5000891780F7E82FF0E09F01220F331FE20F41
:104D6000F31FEF5CFC4F1182108212828F5FF0CF35
:104D7000249130E0D901AA0FBB1F2A0F3B1FD90194
:104D8000AF5CBC4FCD90DD90EC90DA01CD92DD921E
:104D9000ED92AD013196A017B10751F720911601A0
:104DA000FC01B3E02B9FE00DF11D1124539A8BB150
:104DB000877F9BB198602FB7F894AF0133E0639F72
:104DC000400D511D1124E417F50789F0319168E079
:104DD0009BB9000000C037FF8BB9330F000000C043
:104DE00000C000C08BB900C06A9591F7ECCF2FBF0F
:104DF0008FE594E00197F1F700C00000EC960FB644
:104E0000F894DEBF0FBECDBFDF91CF911F910F9100
:104E1000EF90DF90CF900895FF920F931F93CF9361
:104E2000DF93EC01F12C0FEF10E060911A01F61600
:104E3000F0F4809118012F2D30E0280F311DC901A9
:104E4000880F991F280F391F2F5C3C4F70E0C80155
:104E50000E94D831962F8C814091A1026091A002CE
:104E6000F99E800D11240E94A02DF394DECF0E94A4
:104E700085269A818C8190FF02C08F5F01C081508E
:104E80008C83DF91CF911F910F91FF900895EF9246
:104E9000FF920F931F93CF93DF9300D01F92CDB754
:104EA000DEB7182FF62E042FE22E80919E0280FF8F
:104EB00056C0E82FE695F0E0E850FE4F90819093C1
:104EC0002E038E7F823021F59E012F5F3F4F812F71
:104ED0000E94A02D80919E0280FF1EC02B813981EF
:104EE0004A818091180190911901891770F4E82F77
:104EF000F0E0BF01660F771FE60FF71FEF5CFC4F76
:104F00004183308322838F5FF0CF0E94852604C0C7
:104F1000923011F410919F0280919F02181308C0E3
:104F20008091A002F81204C08091A102081729F014
:104F30008091300382608093300310939F02F0923F
:104F4000A0020093A102EE2051F060919E027091A8
:104F50009F028091A0029091A1020E94772D0F9054
:104F60000F900F90DF91CF911F910F91FF90EF90D5
:104F70000895EEE9F2E0438121E1421B08F440E0AC
:104F800021E0628181810C944727EEE9F2E04381C0
:104F900021E1420F08F44FEF21E0628181810C94FE
:104FA0004727EEE9F2E0628121E1621B08F460E04C
:104FB00021E0438181810C944727EEE9F2E0628190
:104FC00021E1620F08F46FEF21E0438181810C94AD
:104FD0004727EEE9F2E0818121E043816281885038
:104FE0000C944727EEE9F2E0818121E04381628160
:104FF000885F0C9447270E942E2D81110C941D1858
:105000000E94CD24CB01089560919E02669570E0C8
:1050100041E050E085E191E00E94F231892B19F4E2
:1050200081E080932F030E94FB27909329038093B4
:105030002803809130038460809330030895909119
:105040009E0290FF3BC09170811102C0926006C029
:10505000883010F09E6002C0880F982B90939E02BB
:1050600080913003816080933003662351F060911A
:105070009E0270919F028091A0029091A1020E94D5
:10508000772D60919E02669570E041E050E085E1E9
:1050900091E00E94F231892B19F00E947E2602C015
:1050A0000E94042881E080932B0320E04091A1021C
:1050B0006091A00280919F020C94472708959C0163
:1050C0003A9521153F4130F5BC0166277270AC015D
:1050D000442754709C012227387094FF0FC090FF22
:1050E00002C080E101C080E0672B09F08062452B9F
:1050F00009F08064232B79F080680895892F8170EE
:10510000672B09F08260452B09F08460232B19F08E
:105110008860089580E008951F93CF93DF93CDB703
:10512000DEB767970FB6F894DEBF0FBECDBF4B8BCF
:105130005C8B6D8B7E8B8F8B61111092270386E0C9
:105140009E01235F3F4FD901E82F1D92EA95E9F7B1
:1051500095E0FE017396D90101900D929A95E1F7C1
:105160009C894E895F897B897D879E876F87598B54
:10517000488BF901DE01179601900D928A95E1F7AF
:10518000CE0107960E94A82081113EC086E0FE0154
:105190003796DE01119601900D928A95E1F7FF8115
:1051A000E8856A857B856115710531F0EF3F31F443
:1051B00081E0FF3F19F403C081E001C080E080FD81
:1051C00023C02091F30230E0C9010196877099272E
:1051D0004091240350E08417950779F1F983EA831D
:1051E0007D836C8396E0929FD001939FB00D112434
:1051F000AC50BD4FFE01319601900D929A95E1F7AA
:105200008093F3020E948E1F16E0809124039091F8
:10521000F302891709F1189FC00111248C509D4F8A
:105220000E94A8208823C1F08091240390E0019679
:105230008770992780932403E8CF109287020E94F9
:1052400038231092F30210922403EDEEF2E086E090
:10525000DF011D928A95E9F767960FB6F894DEBFD5
:105260000FBECDBFDF91CF911F910895DF92EF92D6
:10527000FF920F931F93CF93DF93E82FF0E0E9584D
:10528000F54FD490282F26952695269530E0F901E4
:10529000E959F54F0491877010E0082E02C015956A
:1052A00007950A94E2F701701127F901E95AF54FC1
:1052B000E490F12C082E02C0F594E7940A94E2F7EA
:1052C00091E0E922FF24F901E95BF54FC491D0E0B8
:1052D00002C0D595C7958A95E2F7C170DD27011503
:1052E000110519F081EE0E94C723E114F10419F0B1
:1052F00086EE0E94C7238D2D0E946324EF2819F0AB
:1053000086EE0E946B23012B19F081EE0E946B2325
:10531000CD2B51F08CE2DF91CF911F910F91FF9037
:10532000EF90DF900C946324DF91CF911F910F9148
:10533000FF90EF90DF900895FF920F931F93CF930C
:10534000DF938C018AE0F82EF8018491882309F418
:105350004CC0813009F042C0E8012196FE018491E1
:10536000813031F42196FE0184910E94632439C07A
:10537000823039F4E8012296FE0184910E94C7230D
:1053800030C0833039F4E8012296FE0184910E94F6
:105390006B2327C0843029F5E8012296FE01249171
:1053A00080E090E030E0205331092A30310560F48C
:1053B000F89EA001F99E500D1124C901840F951F7C
:1053C0002196FE012491EECF009759F0EFE9FFE01E
:1053D0003197F1F700C000000197F6CF0E943629FF
:1053E000E8018E010F5F1F4FAFCFDF91CF911F916B
:1053F0000F91FF9008950F931F93CF93DF93EC01CC
:105400008C01005E11090830110510F0009729F495
:105410000E945F280E94612304C00E945F280E94AE
:105420004C238C2F0E94C7238C2F0E946B23CE010C
:105430000830110510F0CD2B41F40E945F28DF9158
:10544000CF911F910F910C9456230E945F28DF91FA
:10545000CF911F910F910C9441230E94271381E05B
:105460000C948B25CF93C62F40912C0250912D0286
:1054700060912E0270912F0281111EC041155105BD
:105480006105710531F0769567955795479540FD13
:105490000DC084EECC2321F00E94632489EA03C06E
:1054A0000E9463248AEA0E94632430C0CC2311F056
:1054B0008DEBF9CF8EEBF7CF4115510561057105E5
:1054C00031F0769567955795479540FD06C0CC23FA
:1054D00011F08BE4E8CF8EE4E6CF8091AA0281112F
:1054E00006C081E08093AA0280EE0E94C7230E943A
:1054F0001D189093A9028093A802CC2319F08BE287
:1055000092E002C08BE290E00E94FB2980E0CF9104
:105510000895CF93DF9300D000D0CDB7DEB7409190
:10552000AB075091AC076091AD077091AE072FB7F4
:10553000F89480917F0290918002A0918102B091B5
:1055400082022FBF841B950BA60BB70B84369105E7
:10555000A105B10580F10E94CD24DC01CB010296AA
:10556000A11DB11D89839A83AB83BC8380914601C1
:10557000909147018956984F4091450150E0453040
:10558000510510F044E050E0BE016F5F7F4F0E9474
:105590000C3284E090E00E94AF30892B11F080E063
:1055A0000BC00E9411186093AB077093AC078093F7
:1055B000AD079093AE0781E00F900F900F900F9082
:1055C000DF91CF9108958F929F92AF92BF92CF9229
:1055D000DF92EF92FF920F931F93CF93DF93FB0124
:1055E00080809180A280B3809FB7F894C0907F02A2
:1055F000D0908002E0908102F09082029FBFC81894
:10560000D908EA08FB08F4E6CF16D104E104F10456
:1056100010F4442351F17B01C82F880FDD0B0115D5
:105620001105A9F08AE08C9FF0018D9FF00D1124E7
:10563000E55EFE4F838194818956984F428150E008
:105640000417150708F4A801B9010E940C32CE0115
:105650000E94AF30892B11F080E008C00E94111821
:10566000F701608371838283938381E0DF91CF911F
:105670001F910F91FF90EF90DF90CF90BF90AF9070
:105680009F908F9008950F931F93CF93DF931F9256
:10569000CDB7DEB780917C0789832091AA0730E0DF
:1056A00090E041E02817390709F440E001E010E0FC
:1056B0009E012F5F3F4F63EB77E086E00E94E32A75
:1056C0000F90DF91CF911F910F9108950F931F932A
:1056D000CF93DF93CDB7DEB728970FB6F894DEBF30
:1056E0000FBECDBF85E0EEE9F2E0DE01119601903C
:1056F0000D928A95E1F780912E0390912F03A0914E
:1057000030038E839F83A88741E08885811101C083
:1057100040E008E010E09E012F5F3F4F6FEA77E026
:1057200085E00E94E32A81111092300328960FB67B
:10573000F894DEBF0FBECDBFDF91CF911F910F91C7
:1057400008957F928F929F92AF92BF92CF92DF92F5
:10575000EF92FF920F931F93CF93DF931F92CDB7DA
:10576000DEB7762E4A0159016801082F880F110B08
:10577000C8010E94AF30892B09F07EC08AE0809F6B
:10578000F001819FF00D1124E55EFE4F458150E050
:105790004115510511F041E050E08AE0809FF00191
:1057A000819FF00D1124E55EFE4F66817781695679
:1057B000784FCE0101960E940C32F4014081518154
:1057C000628173812FB7F89480917F02909180025B
:1057D000A0918102B09182022FBF841B950BA60B72
:1057E000B70B84369105A105B10540F4B701C60198
:1057F0000E9461269981891709F440C0072D770C12
:10580000110BC8010E94AF30892B09F5E114F10496
:1058100001F18AE0809FF001819FF00D1124E55E87
:10582000FE4F458150E0E416F50608F4A7018AE032
:10583000809FF001819FF00D1124E55EFE4F66818F
:1058400077816956784FC5010E940C3202C010E082
:1058500001C011E0B701C6010E94612691E02981D3
:10586000281390E0192381F00E941118F40160833D
:1058700071838283938308C010E001C011E0A70107
:10588000B601C5010E940C32812F0F90DF91CF919C
:105890001F910F91FF90EF90DF90CF90BF90AF904E
:1058A0009F908F907F900895CF92DF92EF92FF921A
:1058B0000F931F93CF93DF931F92CDB7DEB7EE24E4
:1058C000E394F12C0DE917E09E012F5F3F4F43E970
:1058D00057E063E082E00E94A12BC82E882379F173
:1058E000D09017028D2D90E09C012D5D3D4F7901E8
:1058F0001981F9018081181B012F80E010165CF4DA
:105900000150F70180818F5F808360E08D2D0E94C0
:10591000322A81E0F3CF912F17FD90E0191B11235C
:1059200059F01F5FF70180818150808361E08D2DE8
:105930000E94322A81E0F3CF81110E940E1A8C2D31
:105940000F90DF91CF911F910F91FF90EF90DF901B
:10595000CF900895CF92DF92EF92FF920F931F9313
:10596000CF93DF9300D000D0CDB7DEB76B0184E0DA
:10597000E82EF12C08E917E09E012F5F3F4F4FE81A
:1059800057E061E080E00E94A12B882361F049810B
:105990005A816B817C8140938B0750938C07609375
:1059A0008D0770938E0740918B0750918C07609103
:1059B0008D0770918E07F601408351836283738354
:1059C0000F900F900F900F90DF91CF911F910F913B
:1059D000FF90EF90DF90CF900895AF92BF92CF925B
:1059E000DF92EF92FF920F931F93CF93DF937C018F
:1059F0005B016A018091B7078A3018F001E010E07E
:105A000002C00AE010E0C1E0D0E0F894B501C7019F
:105A1000F60109957894811115C021960C171D0780
:105A200094F0CC9F9001CD9F300D300D112480E07B
:105A300090E045E34A95F1F700000196821793073D
:105A4000C1F7E3CF81E0DF91CF911F910F91FF90DC
:105A5000EF90DF90CF90BF90AF90089580918A072C
:105A6000811118C088EC9091E30097FD0AC0EFE324
:105A7000FCE93197F1F700C000008150A1F782E006
:105A800001C081E080938A07823021F40E9487164A
:105A90001092940281E090918A07913009F080E0A1
:105AA000089580919E028695815009F487E061E017
:105AB0000C941F2880919E0286958F5F883008F095
:105AC00081E061E00C941F2880919E02282F26958A
:105AD00030E02115310519F48170826005C028304D
