:100000000C94BC030C9403040C9403040C94472D2F
:100010000C9403040C9403040C9403040C94030444
:100020000C9403040C9403040C9473120C94BF10EE
:100030000C94F3110C9403040C9403040C94030427
:100040000C9403040C9403040C9403040C94030414
:100050000C9403040C94A6110C9403040C94030454
:100060000C9403040C9403040C9403040C940304F4
:100070000C9403040C9403040C9403040C940304E4
:100080000C9403040C9403040C9403040C940304D4
:100090000C9403040C9403040C9403040C940304C4
:1000A0000C9403040C9403040C940304AF04B405EF
:1000B0005505CC04F1040105B405B4051B05330551
:1000C0004705670590057C058E098E09C609C60996
:1000D000A40BA40BA40BA40B190AF70A080B080B1A
:1000E000B404B4055505CC04F1040105B405B40508
:1000F0001B0533054705670590057C05C504B40558
:100100005505CC04F1040105B405B4051B05330500
:100110004705670590057C05F20E190F9710190F1A
:100120009710610F840F971061107410B91AB91AE3
:10013000CC1ACC1AC21ACC1ACC1ACC1AB91AB91ABF
:10014000C71ACC1ACC1AC71A05010906A10105075E
:1001500019E029E71500250195087501810295012F
:10016000750881010507190029FF150026FF009574
:100170000675088100050819012905950575019185
:1001800002950175039101C009022200010100A03E
:10019000FA09040000010301010009211101000115
:1001A0002240000705810308000A12010002000036
:1001B00000081D8D9D9D0100010200010C034B00F4
:1001C0007900720069006100000010037300700084
:1001D0006C00690074004B00420000000403090435
:1001E0000A0A2D2D0A0A7374C3B6726D65722D63E7
:1001F0006F6E73756C74696E670A44722E20506559
:10020000746572205374C3B6726D65720A0A2B341A
:100210003920313733203234203138203531350A16
:100220006D61696C4073746F65726D65722D636F7B
:100230006E73756C74696E672E64650A7777772EB6
:1002400073746F65726D65722D636F6E73756C7408
:10025000696E672E64650A0A00467265756E646C85
:1002600069636865204772C3BCC39F650A506574A3
:100270006572205374C3B6726D657200536368C3B0
:10028000B66E65204772C3BCC39F650A506574652E
:1002900072205374C3B6726D657200536368C3B63F
:1002A0006E65204772C3BCC39F650A506574657252
:1002B00000000000000500130009001A00140002ED
:1002C00051000000000700170016001500005763DA
:1002D0005D296105570A00045706001B001D0065D3
:1002E0000029610557E2002B00A800000000000073
:1002F00000000000000D000F0003571C006C5D6D36
:100300005D000000001000110001570C000B006E92
:100310005D28612A720E000257695D6A5D6B5D039C
:100320005328612A72E4006F5D2C00000000000079
:100330000000000000665D24002500260001000189
:100340000000000000675D1E001F00200027006401
:100350000001000100685D2100220023000100016E
:100360000001000100010001000100000000000088
:1003700000000000001F024A0052004D000000650E
:100380005D000000003202500051004F000000707C
:100390005D01004C002D02380030001E02000000FC
:1003A0000001004C000100010001000000000000FD
:1003B0000000000000430040004100420001000135
:1003C000000000000044003A003B003C0001000136
:1003D000000100010045003D003E003F000100011A
:1003E0000001000100010001000100000000000008
:1003F00000000000000100010001000100010001F7
:1004000000000000000100010001000100010001E6
:1004100000010001000100010001000100010001D4
:1004200000010001000100010001000000000000C7
:1004300000000000000100010001000100010001B6
:1004400000000000000100010001000100010001A6
:100450000001000100010001000100010001000194
:100460000001000100010001000100000000000087
:100470000000000000010001000100010001000176
:100480000000000000C35CC85CC65CCA5CC45C01C0
:1004900000010001000100C95CC75CCB5CC55C01C8
:1004A0000001000100010001000100000000000047
:1004B0000000047F3F1F643214643214783C1E1E17
:1004C000140A052223252628292A2C2D2F303233E1
:1004D0003536383A3B3D3E4042434547494A4C4E0B
:1004E0005051535557595A5C5E6062646668696B37
:1004F0006D6F71737577797B7D7F81838587898A3D
:100500008C8E90929496989A9C9E9FA1A3A5A7A842
:10051000AAACAEAFB1B3B4B6B8B9BBBCBEBFC1C272
:10052000C3C5C6C7C9CACBCCCDCED0D1D2D2D3D405
:10053000D5D6D7D7D8D9D9DADADBDBDBDCDCDCDC23
:10054000DCDDDDDDDDDCDCDCDCDCDBDBDBDADAD9F1
:10055000D9D8D7D7D6D5D4D3D2D2D1D0CECDCCCB73
:10056000CAC9C7C6C5C3C2C1BFBEBCBBB9B8B6B491
:10057000B3B1AFAEACAAA8A7A5A3A19F9E9C9A9821
:10058000969492908E8C8A89878583817F7D7B79F2
:10059000777573716F6D6B6968666462605E5C5AD3
:1005A0005957555351504E4C4A4947454342403E96
:1005B0003D3B3A3836353332302F2D2C2A29282628
:1005C00025232200000000000000000000000000C1
:1005D000000000000000000000000000000000001B
:1005E000000000000000007E0F00D4FFFFFFC700E6
:1005F00000007800000000000000002A2B28000006
:1006000000000000000000000000000000002900C1
:100610000000002C1E3420212224342627252E36CB
:100620002D3738271E1F2021222324252633333639
:100630002E37381F0405060708090A0B0C0D0E0F8C
:10064000101112131415161718191A1B1C1D2F310F
:1006500030232D350405060708090A0B0C0D0E0F73
:10066000101112131415161718191A1B1C1D2F31EF
:1006700030354C00010101010101010101020202BA
:10068000020202020202030303030303030304043E
:100690000404040404050505050506060606060708
:1006A0000707070708080808090909090A0A0A0BC1
:1006B0000B0B0C0C0C0D0D0D0E0E0E0F0F0F101062
:1006C00011111112121313141415151616171718E9
:1006D0001819191A1A1B1B1C1D1D1E1E1F20202154
:1006E0002222232424252626272829292A2B2C2D9B
:1006F0002D2E2F30313232333435363738393A3BBC
:100700003C3D3E3F404142434445464748494A4CB0
:100710004D4E4F50515354555658595A5B5D5E5F7C
:10072000616264656668696B6C6D6F707273757712
:10073000787A7B7D7E8082838587888A8C8E8F9174
:10074000939596989A9C9EA0A2A3A5A7A9ABADAF9E
:10075000B1B3B5B7BABCBEC0C2C4C6C9CBCDCFD188
:10076000D4D6D8DBDDDFE2E4E7E9EBEEF0F3F5F831
:10077000FAFDFFFFAA7F554011241FBECFEFDAE03C
:10078000DEBFCDBF04B603FE27C08091A1039091C8
:10079000A203A091A303B091A4038730904BA7407C
:1007A000B04BD1F41092A1031092A2031092A303B4
:1007B0001092A40314BE84B7877F84BF0FB6F89449
:1007C000A89580916000886180936000109260001D
:1007D0000FBEE0E0F8E3099512E0A0E0B1E0ECE93B
:1007E000FFE502C005900D92A034B107D9F723E0D0
:1007F000A0E4B2E001C01D92A13AB207E1F70E9465
:10080000F41F0C94CC2F0C9400007F928F929F9237
:10081000AF92BF92CF92DF92EF92FF920F931F930E
:10082000CF93DF93CDB7DEB72A970FB6F894DEBF2C
:100830000FBECDBFFC01D080118183819481892BB3
:1008400039F01F3F39F491E00FEFD01203C003C01D
:1008500091E001C090E090FF02C00C94BD0C7F01BC
:1008600085E0DE01169601900D928A95E1F7D70199
:1008700012962C918E819F81222349F00E942C1A7E
:10088000082F682F8E819F810E949D1C03C00E94AB
:10089000711C082FE12FF0E0B8E00B9FE00DF11D77
:1008A0001124A3E0EE0FFF1FAA95E1F7ED0DF11D56
:1008B000EE0FFF1FEF54FD4F059114915801F70102
:1008C0008281882309F483C7809101018F3F09F455
:1008D00044C1E2E7CE2EE1E0DE2E812C912C77247C
:1008E000739480910101082E000C990B88159905CD
:1008F0005CF1D60116968C9116978823F1F0199623
:100900008D919C911A978017910739F480919D03DE
:1009100090919E038017910781F0F60177861487E6
:1009200003878189811103C0C6010E942D26C6015B
:1009300006960E944E2610929F03FFEF8F1A9F0A81
:1009400026E1C20ED11CCDCFF801E356FD45EE30B5
:10095000F10508F009C1EA5AFF4F0C94662FD70140
:1009600012968C91882389F08091A00385FD05C0A3
:1009700086EE0E94F51D84E11BC085EE0E947C1D61
:1009800086EE0E94F51D84E61EC084E10E947C1D57
:1009900084E60E947C1D44C4F70182818823E1F033
:1009A0008091A00385FD08C086EE0E94F51D84E2BB
:1009B0000E94F51D86EEEDCF85EE0E947C1D86EE31
:1009C0000E94F51D87E20E94F51D86EE0E947C1DA7
:1009D00085EE0E94F51D24C484E20E947C1D87E2FE
:1009E000D8CFD70112968C91882379F08091A003FB
:1009F00085FD05C085EE0E94F51D85E29EC086E25C
:100A0000E8CFF7018281811105C085E20E947C1D3B
:100A100086E2BFCF8091A00385FD05C086EE0E94CF
:100A2000F51D85E2C5CF85EE0E947C1D86EE0E94F5
:100A3000F51D86E2C8CFD70112968C91882389F0E4
:100A40008091A00385FD05C085EE0E94F51D84E21E
:100A500074C085EE0E947C1D86EE0E94F51D80E329
:100A6000B2CF84E245C0F7018281882359F080919A
:100A7000A00385FD05C085EE0E94F51D83E25DC0E3
:100A800082E2A7CF83E20E947C1D82E282CFD7015F
:100A900012968C918823B1F08091A00385FD0DC042
:100AA00085E30E94771E85E394CFF7018281882336
:100AB00061F08091A00385FDB3C38EE20E94771E92
:100AC0008EE287CF85E30E947C1D8EE262CFD70144
:100AD00012968C91882359F08091A00385FD05C062
:100AE00085EE0E94F51D87E228C080E372CF87E281
:100AF0000E947C1D80E34DCFF7018281882359F04D
:100B00008091A00385FD05C085EE0E94F51D81E260
:100B100014C080E25ECF81E20E947C1D80E239CF6A
:100B2000D70112968C91882399F08091A00385FDBE
:100B300008C085EE0E94F51D88E30E94F51D85EE34
:100B400028CF85EE0E947C1D82E30E94F51D40CFD8
:100B500088E30E947C1D82E31CCFF801E356FD452B
:100B6000EE30F10508F42FC6C80197558F3F910567
:100B700011F008F053C020910101022E000C330B3C
:100B80002817390714F480930101F701228136E117
:100B9000389F4001399F900C1124C4018E589E4FFC
:100BA0006C01DC0150962C935097928116968C9193
:100BB0001697992341F11A961C930E9319978F5FFC
:100BC00016968C930E94E711F6019687858780918F
:100BD0006F02878390919F038091A003892B808768
:100BE0000190F081E02DC40188589E4F309731F07C
:100BF000D60154966D917C915597099510939E035B
:100C000000939D030BC0882349F0F6018189882356
:100C100029F0C40188589E4F0E944E26D701129693
:100C20008C91882369F0C801825E9C45059740F449
:100C30006EE1600F609323038CE090E00E94DA2E57
:100C400017FF7EC0F7018281882309F479C00E94D2
:100C500063128695817080934302909123039130B3
:100C600029F4882319F089E30E94771E8091A0035C
:100C7000809342021092A00380912303813071F08F
:100C800048F08230A1F08430C1F486EE0E94771ED5
:100C900088E111C082EE0E94F51D0FC088E193E04B
:100CA0000E94732988E193E00E94592906C082EED0
:100CB0000E94F51D87E50E94771E8FE39CE901974E
:100CC000F1F700C000004801E89497F87CE0C72ED7
:100CD000D12CC4010C2C02C0969587950A94E2F79A
:100CE0008F7096EF980F963010F0805D01C0895A92
:100CF0000E94942894E0C91AD108ACEFCA16AFEF4D
:100D0000DA0639F780912303813039F078F08230A8
:100D100069F0843089F488E20DC08CE20E94771E6D
:100D200080914302882341F089E304C082EE0E944F
:100D30007C1D02C00E94771E809142028093A00316
:100D4000F7018281882309F441C0809189028823B8
:100D500029F1C80190568115F0E29F0720F0905EBE
:100D60008115904110F45801BB2480918802853090
:100D700060F4E82FF0E0EE0FFF1FE458FD4FB18262
:100D8000A0828F5F8093880202C0109289020E9425
:100D9000E711909387028093860242C209323DE5B3
:100DA000130709F056C181E0809389020E94E71180
:100DB0009093870280938602109288028AE0ECE783
:100DC000F2E0DF011D928A95E9F716C0043F2CE599
:100DD000120709F442C108F06DC1093D8CE51807FE
:100DE00009F45CC10A3D9CE5190709F45DC1083DA1
:100DF000ACE51A0709F449C1F7018281882309F497
:100E00008FC110929C030230FCE51F0708F471C1EA
:100E100006312CE5120730F0C8018B5F9C4509971D
:100E200008F067C10E94F615909322038093210376
:100E300000313CE5130709F4C3C008F041C0083095
:100E40009CE5190709F49AC0F0F40430BCE51B07CF
:100E500009F487C068F40230FCE51F0709F477C085
:100E600003301C4509F0E5C080912103826076C003
:100E700006303CE5130709F46EC008F07BC0809192
:100E8000210388606BC00C309CE5190709F485C00C
:100E900068F40A30BCE51B0709F474C008F079C097
:100EA0000E94471D80912103806858C00E30FCE5E8
:100EB0001F0709F476C008F07FC0809121038BC022
:100EC0000C3F3CE5130709F44FC018F503319CE5CE
:100ED000190709F47DC078F40131BCE51B0709F45A
:100EE00073C002311C4509F0A4C00E94471D8091C7
:100EF00021038F7733C00531FCE51F0709F472C069
:100F000008F486C00B3F1C4509F093C08091220372
:100F10003EC001158DE5180709F45FC058F40E3F77
:100F2000ACE51A0709F444C008F43FC080912203DD
:100F300082602DC00230EDE51E0709F475C008F48B
:100F40005DC003301D4509F074C060E06EC0809143
:100F50002103816003C0809121038061809321037C
:100F600068C08091210311C0809122038260809328
:100F700022035FC0809121038062F0CF8091210322
:100F80008064ECCF8091210388608460E7CF81602A
:100F9000EECF809121038E7FE1CF809121038D7F61
:100FA000DDCF80912103877FD9CF8091220318C0A4
:100FB000809122038D7FDBCF809121038F7ECECF66
:100FC000809121038F7DCACF809121038F7BC6CF73
:100FD00080912103877F8B7FC1CF809122038D7FFA
:100FE0008E7FC5CF8091210382FB222720F991E0DB
:100FF000922790FB82F990FB83F9B0CF8091220376
:10100000982F909591708E7F892B90FB81F9AFCFAF
:101010000E94471D8091210387FB222720F991E040
:10102000922790FB87F99ACF61E08EE090E00E94D2
:10103000DA2E609121031091220384E090E00E9457
:10104000DA2E612F82E290E00E94DA2E0E94471D84
:10105000E7C0043FBCE51B0731F406E221EE40EE99
:1010600064EF7CE517C0053FECE51E0708F0BAC346
:10107000093DFCE51F0791F00A3D2CE51207A1F0A0
:10108000083D3CE5130709F0BCCE06E221EE41EE37
:1010900068ED7CE5C7010E949926C2C007E225EEF3
:1010A00045EE69ED7CE5F6CF08E221E045EE6AED1C
:1010B0007CE5F0CF063FBCE51B0731F406E221EEEC
:1010C00042EE66EF7CE5E6CF063FECE51E0730F426
:1010D00007E225EE44EE65EF7CE5DCCF073FFCE55B
:1010E0001F0709F089CE07E225EE46EE67EF7CE5A3
:1010F000D1CF06312CE5120709F040C08091A00342
:101100008A7A91E009F490E090934402882311F0E8
:1011100065E301C069E286E692E00E9449120EC0D2
:101120000631BCE51B0769F480914402882309F469
:1011300066C365E386E692E00E943C120E947F1639
:101140006FC08091A00382720D3C3CE5130709F447
:10115000F4C308F04DC0073CACE51A0709F4D9C345
:1011600008F05EC3043CECE51E0709F4C8C308F0B0
:1011700048C3033C2CE5120709F497C3D701129624
:101180008C91882309F46CC00B35BDE51B0751F128
:1011900058F40115FCE51F07B9F00F3D1C4509F097
:1011A0005FC00E9407163CC00C353DE51307E1F017
:1011B0000D351D4509F054C08091220382FB88271C
:1011C00080F991E0892711C00E94471D9FEFA4E399
:1011D000BCE09150A040B040E1F700C000000E9488
:1011E00082111EC081E001C080E00E94AC1638C0B0
:1011F000023D8CE5180709F4B0C308F435C3053D7A
:101200002CE5120709F4AFC308F442C3063DACE570
:101210001A0709F4ADC30E35BDE51B0709F0AECFC3
:101220008091F302877009F4A8C3F70182818823B3
:1012300009F4A3C382E02A960FB6F894DEBF0FBE6E
:10124000CDBFDF91CF911F910F91FF90EF90DF9075
:10125000CF90BF90AF909F908F907F900C94FB1C8D
:10126000D70112968C9112970C9111961C9188239C
:1012700049F0C8010E942C1AD82E682FC8010E947C
:101280009D1C04C0C8010E94711CD82EE12FF0E003
:1012900018E0D19EE00DF11D112433E0EE0FFF1F89
:1012A0003A95E1F7E00FF11DEE0FFF1FEF54FD4FF0
:1012B000859194910E947D148C01982ED7011296ED
:1012C000AC9012971596CC90C2945FE0C5228091A5
:1012D000F302877099F0AA2089F0812F807F8034F3
:1012E00021F080E2800F883048F082E00E94FB1CF1
:1012F0008091F3028770DD24D3948111D12CB12E1B
:10130000B2942FE0B2228B2D90E08C30910508F042
:101310001BC2FC01EC59FF4F0C94662F812F807F7C
:101320001F70882311F01295107FAA20B9F01123A5
:1013300009F4F5C180E2800F883010F0911006C0EA
:101340008091A003182B1093A00305C080919F03E8
:10135000182B10939F030E947F16E1C1802F0E94DB
:101360007C1D112309F4F0C1005E083010F09110CB
:1013700004C0812F0E94781606C0109580919F03AB
:10138000182310939F030E947F16DEC1812F807F58
:101390001F70803211F01295107F992021F0B1E07A
:1013A0009B1611F130C0AA20B1F0CC2081F0E1E011
:1013B000CE120DC08091220382FDC6C180916F02C2
:1013C000182B181709F4C0C110936F02BDC180918A
:1013D0006F02812B10C0CC2021F0F1E0CF1609F470
:1013E000B3C10E94721621C0AA2041F005E00C157D
:1013F00008F4AAC1812F0E94721DA6C124E02C15F9
:1014000008F4A2C112C0AA2019F0CC2099F387C118
:10141000CC2059F0093309F094C13FEF87EE93E0F7
:10142000315080409040E1F78AC1812F0E946B1DAE
:101430008BC1812F837009F069C0A11089C1902FE1
:10144000929596959770990F990F802F8F70882E8F
:10145000912CA12CB12C092E04C0880C991CAA1C1B
:10146000BB1C0A94D2F704FF12C04FE050E060E0CA
:1014700070E004C0440F551F661F771F9A95D2F77E
:10148000DB01CA0180959095A095B09503C080E0DE
:1014900090E0DC0116951695412F4370423019F10A
:1014A000C8F4009170021091710220917202309183
:1014B0007302413059F088299929AA29BB29BC0116
:1014C000CD0160237123822393230AC0802A912AAD
:1014D000A22AB32ABC01CD01682979298A299B292E
:1014E0000E94391D35C188299929AA29BB29009153
:1014F0007002109171022091720230917302BC014E
:10150000CD016027712782279327EACFAA2019F0FF
:10151000812F817001C08695882309F419C1902F0D
:10152000929596959770990F990F802F8F70882EAE
:10153000912CA12CB12C092E04C0880C991CAA1C3A
:10154000BB1C0A94D2F704FF12C04FE050E060E0E9
:1015500070E004C0440F551F661F771F9A95D2F79D
:10156000DB01CA0180959095A095B09503C080E0FD
:1015700090E0DC0116951695412F43704230D9F06A
:1015800068F500911D0310911E0320911F033091F7
:101590002003413059F088299929AA29BB29BC0187
:1015A000CD0160237123822393231EC0802A912AB8
:1015B000A22AB32A13C088299929AA29BB290091F4
:1015C0001D0310911E0320911F0330912003BC01C5
:1015D000CD01602771278227932706C0BC01CD016A
:1015E000682979298A299B290E94C81CB1C01F70CB
:1015F000AA2039F0812F0E94181D802F0E94721D91
:10160000A7C0802F0E946B1D812F0E94D61CA0C0F6
:10161000802FA2EF9A1609F440C0A91538F0B0EF58
:101620009B1661F0E1EF9E1699F174C0F3EF9F16DF
:10163000D9F124EF921609F44EC06CC0AA2019F11A
:1016400034E03C1508F480C01F7181E090E0A0E018
:10165000B0E0AC01BD0104C0440F551F661F771FE9
:101660001A95D2F780911D0390911E03A0911F033C
:10167000B09120038A019B01082719272A273B27BD
:10168000C901B80125C025E02C1508F45DC0DCCFE8
:10169000AA2029F0812F8F7130C0AA20D9F3812F81
:1016A0008F710E94D61C50C0AA2079F01F7181E072
:1016B00090E0A0E0B0E0BC01CD0104C0660F771F50
:1016C000881F991F1A95D2F703C060E070E0CB0124
:1016D0000E94C81C39C0AA2099F01F71812F0E9456
:1016E000181D8091220382FD07C038E0139FC001BE
:1016F000112483608093F302812F0E94181D24C05F
:1017000081E00E94FB1C81E08C15F0F482E00E94D5
:10171000FB1C1AC0AA2039F0CC2009F4BBCF802FC3
:101720000E94F51D11C0CC2009F4B9CF893349F4CA
:101730009FEFA7EEB3E09150A040B040E1F700C0AA
:101740000000802F0E947C1D88EF8B0D843010F4E8
:101750000E946312DD20A9F08091F30280FD11C088
:10176000F70112828595859585950E94181DC70100
:101770000E9405048091F3028595859585950E94C8
:10178000D61C85E0F701DE01119601900D928A9535
:10179000E1F789819A810E94711CEA81F0E008E0FA
:1017A000809FE00DF11D112483E0EE0FFF1F8A954D
:1017B000E1F78981E80FF11DEE0FFF1FEF54FD4F98
:1017C00085919491DAC0E059FF4F0C94662FF8018F
:1017D000E356FD45EE30F10508F0C6C9E258FF4F6B
:1017E0000C94662F063F8CE5180709F467CC08F4C3
:1017F0006FCC073FACE51A0709F475CC02CB69E260
:1018000099CC053C3CE5130709F47EC0063C9CE5F9
:10181000190709F0B3CC4FE35CE268E47CE291C0C5
:101820000A3CACE51A0709F47EC078F4083CECE504
:101830001E0709F473C0093CFCE51F0709F09ECCA4
:1018400043E35CE267E27CE27CC00B3C2CE51207E0
:1018500009F46EC00C3C3CE5130709F08FCC49E756
:101860005AE26AE87AE26DC00F3CACE51A0709F467
:101870006EC008F469C0003DECE51E0709F46AC0BB
:10188000013DFCE51F0709F079CC6EE089E06DC0F1
:10189000033D8CE5180709F463C0043D9CE5190776
:1018A00009F06CCC61E088E165C08091950380FF10
:1018B00020C08E7F8093950360919503709196036D
:1018C00080919703909198030E94672A0E943B277A
:1018D00080915503816080935503EFEFF0E702E0BC
:1018E000E150F0400040E1F700C000000E94E6290E
:1018F00097CC81608093950361E086953BC041E978
:101900005CE26AE97CE21DC04AE95CE261E97CE2F2
:1019100018C048E45CE26FE37CE213C047E25CE29B
:1019200063E37CE20EC04FE05CE26BE17CE209C065
:101930004BE15CE26FE07CE204C04AE85AE269E70E
:101940007AE20E9435276CCC61E081E013C065E04B
:1019500082E00BC068E086E008C064E18FE005C06B
:1019600067E185E102C062E289E10E94232758CC49
:1019700061E083E20E94512C53CC2A960FB6F89472
:10198000DEBF0FBECDBFDF91CF911F910F91FF90B2
:10199000EF90DF90CF90BF90AF909F908F907F900F
:1019A0000895982F973068F59093E900981739F0CB
:1019B0005091EC002091ED004091F00003C0562FB3
:1019C00040E022E021FD02C09F5FECCF3091EB00B0
:1019D0003E7F3093EB003091ED003D7F3093ED0082
:1019E0003091EB0031603093EB005093EC0020938A
:1019F000ED004093F0002091EE0027FDE5CF80E060
:101A000008958F708093E90081E008952091E400AB
:101A10003091E50095E64091EC00842F817040FF05
:101A200023C08091E80080FD1DC080915C02882366
:101A300099F0853099F08091EB0085FD11C04091BF
:101A4000E4005091E5002417350729F3915011F077
:101A50009A01E1CF84E0089582E0089583E008953B
:101A600081E0089580E008954091E80042FFDDCFD5
:101A700008950F931F93CF93DF938C010E94060D5F
:101A8000811118C0E80108E010E08091E80085FDB0
:101A90000AC08091E8008E778093E8000E94060DCE
:101AA000882399F307C089918093F10001501109AF
:101AB00061F780E0DF91CF911F910F9108958091A0
:101AC0005E0287FF11C08091E80082FD05C0809111
:101AD0005C028111F8CF11C08091E8008B770BC0B8
:101AE00080915C02882349F08091E80080FFF8CF64
:101AF0008091E8008E778093E80008952091640239
:101B0000309165022617370748F06115710539F4E1
:101B10002091E8002E772093E80001C0B901FC0174
:101B200020E06115710579F180915C028823F1F163
:101B30008530F1F18091E80083FD3CC08091E800A0
:101B400082FD2EC08091E80080FFEBCF2091F30052
:101B50008091F20090E0922B6115710551F0883070
:101B6000910538F421912093F1006150710901969B
:101B7000F3CF21E0089709F020E08091E8008E770C
:101B80008093E800CECF2111CFCF0AC080915C02B4
:101B9000882361F0853061F08091E80083FD0AC000
:101BA0008091E80082FFF2CF80E0089582E00895FE
:101BB00083E0089581E0089508950895089580913F
:101BC00051020895CF93DF9321E02093E9002FEF96
:101BD0003091E800215035FD06C035ED3A95F1F71A
:101BE00000002111F5CF2091E80025FF14C0EC0181
:101BF00040E050E068E070E00E94390D8091E8001C
:101C00008E778093E80088E0FE01A2E5B2E00190C3
:101C10000D928A95E1F7DF91CF9108951F93CF93AD
:101C2000DF93CDB7DEB7AA970FB6F894DEBF0FBE2D
:101C3000CDBFEEE5F2E08091F100819322E0E6363F
:101C4000F207C9F780915F02833009F460C030F475
:101C5000813071F0823009F49AC0B1C08A3009F441
:101C600086C08B3009F46BC0893009F0A8C020C051
:101C700080915E02813A09F0A2C08091E800877FDE
:101C80008093E8008091620290916302892B21F495
:101C900068E082E592E003C060E080E090E070E000
:101CA0000E947E0D8091E8008B778093E80087C0CA
:101CB00080915E02813209F082C08091620290912F
:101CC0006302892B09F07BC08091E800877F8093B5
:101CD000E8008091E80082FD05C080915C028111DE
:101CE000F8CF6DC02091F3008091F20090E0922B2C
:101CF000029729F48091F1008B7F813021F480914B
:101D0000F100809351028091E8008B7754C080915C
:101D10005E02813A09F053C08091620290916302A1
:101D2000892B09F04CC08091E800877F8093E80000
:101D30008091E80080FFFCCF8091000137C0809146
:101D40005E028132E1F58091620290916302892BFB
:101D5000B1F58091E800877F8093E8000E945F0DD5
:101D600080916002809300010E94471D28C08091ED
:101D70005E02813221F58091E800877F8093E80040
:101D80000E945F0D809161028093500218C0809183
:101D90005E02813AA1F48091E800877F8093E80099
:101DA0008091E80080FFFCCF809150028093F10089
:101DB0008091E8008E778093E8000E945F0D80910B
:101DC000E80083FFB4C180915E0290915F02492FC9
:101DD00050E04A30510508F0AAC1FA01E457FF4F1C
:101DE0000C94662F803821F0823809F0A0C108C019
:101DF00080915A0290915B02992389F082600FC012
:101E0000809162028F70873008F091C18093E90061
:101E10008091EB0085FB882780F91092E900909172
:101E2000E800977F9093E8008093F1001092F10012
:101E300053C1282F2D7F09F07AC1882319F08230F1
:101E400061F075C180916002813009F070C19330FA
:101E500009F080E080935B022EC0809160028111C6
:101E60002AC0809162028F702FEF280F263008F071
:101E70005EC18093E9002091EB0020FF1CC09330ED
:101E800021F48091EB00806214C09091EB0090618E
:101E90009093EB0021E030E0A90102C0440F551FF0
:101EA0008A95E2F74093EA001092EA008091EB00F5
:101EB00088608093EB001092E9008091E800877FB2
:101EC0000EC1811134C1109160021F778091E3002F
:101ED0008078812B8093E3008091E800877F809356
:101EE000E8000E945F0D8091E80080FFFCCF8091A8
:101EF000E30080688093E300111102C082E001C01A
:101F000083E080935C0213C18058823008F00FC1D7
:101F100080916002909161028C3D53E0950779F5C4
:101F200083E08A838AE289834FB7F894DE011396AF
:101F300020E03EE051E2E32FF0E050935700E491BF
:101F400020FF03C0E295EF703F5FEF708E2F90E0AF
:101F5000EA3010F0C79601C0C0968D939D932F5F15
:101F6000243149F74FBF8091E800877F8093E800D4
:101F70006AE270E0CE0101960E947E0D9CC0409105
:101F8000620250916302292F332723303105A9F0D3
:101F900068F42130310509F4D9C02230310509F047
:101FA000C6C082E290E0E8E8F1E032C021323105BB
:101FB00021F12232310529F1BAC0992781309105EA
:101FC000A1F058F0029709F0B2C0ECEBF1E0E49117
:101FD0008E2F90E0ECEBF1E018C0ECEDF1E0E49135
:101FE0008E2F90E0ECEDF1E010C0EAECF1E0E4912E
:101FF0008E2F90E0EAECF1E008C0452B09F4ABC06D
:1020000096C0452B09F4ACC092C0009709F48FC06C
:102010002091E800277F2093E8002091640230910E
:1020200065028217930708F49C0140E021153105F1
:1020300089F180915C02882309F43DC08530D9F193
:102040008091E80083FD37C08091E80082FD2FC0B9
:102050008091E80080FFEACF4091F3008091F20088
:1020600090E0942B2115310559F08830910540F40A
:1020700044914093F1003196215031090196F2CFFD
:1020800041E0089709F040E08091E8008E77809366
:10209000E800CCCF4111CDCF0AC080915C028823EB
:1020A00051F0853041F08091E80083FD04C08091BB
:1020B000E80082FFF2CF8091E8008B778093E80000
:1020C00036C08038A1F58091E800877F8093E800D2
:1020D00080915D028093F1008091E8008E7780937B
:1020E000E8000E945F0D23C0811121C08091600231
:1020F0009091610299270297D4F48091E800877F3C
:102100008093E8001091600210935D020E945F0DC1
:10211000111106C08091E30087FD02C081E001C07B
:1021200084E080935C0261EC81E00E94D10C80919C
:10213000E80083FF1AC08091E800877F8093E80061
:102140008091EB0080628093EB000FC082E190E011
:10215000EAEAF1E05DCF89E090E0EAE9F1E058CF0A
:1021600080E490E0E8E4F1E053CFAA960FB6F8944B
:10217000DEBF0FBECDBFDF91CF911F9108951F929B
:102180000F920FB60F9211242F933F934F935F93AB
:102190006F937F938F939F93AF93BF93CF93DF936F
:1021A000EF93FF93C091E900CF708091EC00D82F9E
:1021B000D17080FDD0E81092E9008091F000877F17
:1021C0008093F00078940E940E0E1092E9008091A6
:1021D000F00088608093F000CD2BCF70C093E900B1
:1021E000FF91EF91DF91CF91BF91AF919F918F912F
:1021F0007F916F915F914F913F912F910F900FBE03
:102200000F901F901895E8EDF0E080818E7F80831D
:102210001092E2001092DA001092E100A0EEB0E01D
:102220008C9181608C9380818F77808319BCA7ED1E
:10223000B0E08C918E7F8C9380818F7E8083109212
:102240004F020895CF92DF92EF92FF920F931F9368
:10225000CF93DF93C8EDD0E088818F7E8883E7ED50
:10226000F0E080818160808384E082BF81E08093A0
:102270004F0288818E7F888302EE10E0F801108281
:102280001092DA0081EEC82ED12CF60110828881DE
:102290008F77888388818068888388818F7D888311
:1022A00019BC10925C0210925D0210925B021092B7
:1022B0005A0290EEE92EF12CF70180818B7F80830A
:1022C00088818160888360E080E00E94D10CF60103
:1022D00080818E7F8083F80180818160808380810E
:1022E00088608083F70180818E7F80838881806110
:1022F0008883DF91CF911F910F91FF90EF90DF9036
:10230000CF90089581E08093E00080E28093D80030
:102310001092C9008FE19EE40197F1F700C0000020
:1023200087E090EBDC018093A1039093A203A0933C
:10233000A303B093A4039CE088E10FB6F894A8959A
:10234000809360000FBE90936000FFCF78941F923F
:102350000F920FB60F9211248F939F93AF93BF9359
:1023600080914B0290914C02A0914D02B0914E028F
:102370000196A11DB11D80934B0290934C02A09336
:102380004D02B0934E02BF91AF919F918F910F90EC
:102390000FBE0F901F9018959C014FB7F894809135
:1023A0004B0290914C02A0914D02B0914E024FBF52
:1023B000821B930B08952FB7F89460914B02709194
:1023C0004C0280914D0290914E022FBF08952FB77D
:1023D000F89480914B0290914C02A0914D02B091E3
:1023E0004E022FBF08951F920F920FB60F92112425
:1023F0008F939F93AF93BF9380914B0290914C0228
:10240000A0914D02B0914E024196A11DB11D809345
:102410004B0290934C02A0934D02B0934E02BF9199
:10242000AF919F918F910F900FBE0F901F901895B5
:102430000F931F930E944314882321F01F910F9143
:102440000C94DB110E94DB110091470210914802AD
:102450002091490230914A02600F711F821F931F21
:102460001F910F9108950E94431481110C94E7115C
:102470000E941812CB0108959C012A5F3F4FFC0176
:102480004281461301C01282019682179307B9F761
:1024900008959C01FC0132969FEF80E04191461720
:1024A00089F09F3F19F4411101C0982F8F5F86304A
:1024B000A9F79F3F39F0F901E90FF11D97FDFA9552
:1024C0006283089508950E944314882351F0E09197
:1024D0004502F0914602309721F00190F081E02D05
:1024E000099480E008951F920F920FB60F92112465
:1024F0002F933F934F935F936F937F938F939F930C
:10250000AF93BF93EF93FF938091E10082FF09C0E7
:102510008091E20082FF05C08091E1008B7F809373
:10252000E1008091DA0080FF2AC08091D80080FF0E
:1025300026C08091DA008E7F8093DA008091D900E6
:1025400080FF18C080E189BD82E189BD09B400FE29
:10255000FDCF81E080935C0280914F0281110FC01A
:102560000E9403110E9422118091E20084608093F6
:10257000E20005C019BC10925C0210924F028091DB
:10258000E10080FF17C08091E20080FF13C08091BE
:10259000E2008E7F8093E2008091E2008061809370
:1025A000E2008091D80080628093D80019BC85E059
:1025B00080935C028091E10084FF32C08091E20050
:1025C00084FF2EC080E189BD82E189BD09B400FE8F
:1025D000FDCF8091D8008F7D8093D8008091E1005D
:1025E0008F7E8093E1008091E2008F7E8093E200F5
:1025F0008091E20081608093E20080915D028823F7
:1026000011F084E007C08091E30087FD02C081E003
:1026100001C083E080935C020E94471D0E94631208
:102620008091E10083FF26C08091E20083FF22C0F9
:102630008091E100877F8093E10082E080935C02DB
:1026400010925D028091E1008E7F8093E100809185
:10265000E2008E7F8093E2008091E20080618093AF
:10266000E20060E080E00E94D10C8091F000886080
:102670008093F000FF91EF91BF91AF919F918F9167
:102680007F916F915F914F913F912F910F900FBE6E
:102690000F901F90189580E008959091210392FF6C
:1026A0000DC0282F2871283019F4877F846006C058
:1026B000282F2471243011F48B7F886093FF0DC084
:1026C000282F2871283119F4877E846106C0282FAD
:1026D0002471243111F48B7E88612091220320FF24
:1026E0000DC0382F3871383019F4877F816006C0EB
:1026F000382F3171313011F48E7F886021FF0DC089
:10270000282F2871283119F4877E816106C0282F6F
:102710002171213111F48E7E886194FD877E0895A8
:102720007F928F929F92AF92BF92CF92DF92EF9261
:10273000FF920F931F93CF93DF931F92CDB7DEB716
:10274000762E4A0159016801082F880F110BC80124
:102750000E940E2E892B09F07EC08AE0809FF00136
:10276000819FF00D1124EE5FFE4F458150E0411531
:10277000510511F041E050E08AE0809FF001819F17
:10278000F00D1124EE5FFE4F668177816B5F7C4F09
:10279000CE0101960E94C32FF401408151816281D4
:1027A00073812FB7F89480914B0290914C02A091C5
:1027B0004D02B0914E022FBF841B950BA60BB70B99
:1027C00084369105A105B10540F4B701C6010E9408
:1027D0000C279981891709F440C0072D770C110B3C
:1027E000C8010E940E2E892B09F5E114F10401F1B4
:1027F0008AE0809FF001819FF00D1124EE5FFE4F73
:10280000458150E0E416F50608F4A7018AE0809FB0
:10281000F001819FF00D1124EE5FFE4F66817781FC
:102820006B5F7C4FC5010E94C32F02C010E001C046
:1028300011E0B701C6010E940C2791E029812813FD
:1028400090E0192381F00E94DB11F4016083718311
:102850008283938308C010E001C011E0A701B60194
:10286000C5010E94C32F812F0F90DF91CF911F913F
:102870000F91FF90EF90DF90CF90BF90AF909F901F
:102880008F907F90089580918E02811118C088ECFE
:102890009091E30097FD0AC0EFE3FCE93197F1F76F
:1028A00000C000008150A1F782E001C081E0809368
:1028B0008E02823021F40E94031110925C0281E0AA
:1028C00090918E02913009F080E00895F894E82FFD
:1028D000E295EF70F0E031A1282F2F7081E090E0B9
:1028E00001C0880F2A95EAF7982F9095932391A31A
:1028F00092A1892B82A378940895CF93DF93823895
:10290000910569F1B0F48133910509F46FC048F481
:102910008932910509F465C08A32910509F46BC0CA
:102920006FC08533910509F457C089339105B9F01B
:1029300067C0833E910571F138F4803E9105B1F096
:10294000823E910511F15CC0863E9105B9F1873E4A
:102950009105C9F1843E910509F052C024C020912F
:10296000210320FD2AC121FD28C14AC080912103F5
:1029700080FD1DC18091220380FF1FC18091210332
:1029800084FD12C183EE90E02CC18091210382FF6F
:1029900011C1F4CF8091210382FD0CC180912203EB
:1029A00080FD0BC1EBCF8091220381FF0CC1809190
:1029B000210384FDF9C087EE90E013C180912103CB
:1029C00083FFFEC0F4CF8091210383FDF9C0809185
:1029D000220381FDF8C0EBCF8091210385FDF6C075
:1029E000F8C08091210385FDF4C0F0C080912103DF
:1029F00086FDF2C0F4C08091210386FDF0C0ECC0DA
:102A0000811523E59207A8F5811532E5930708F0B3
:102A100099C0811540E29407D0F4811521E0920716
:102A200008F0DFC0853A910550F48430910508F034
:102A3000D8C0019709F0B8C081E090E0D2C09C01F5
:102A4000205E31092830310508F0AEC0CAC08115BA
:102A500031E5930708F071C0811540E5940708F04F
:102A60004EC0811520E4920708F49EC09F70906AC2
:102A7000B8C0EC01811536E59307F0F4811545E502
:102A8000940708F078C0C11584E5D80708F06EC037
:102A90009E012370332781E090E002C0880F991FC8
:102AA0002A95E2F7C695C69520E2C29FE00111245F
:102AB0008C2B9D2B9A6895C081152AE5920778F496
:102AC000811539E5930708F05EC0811548E5940744
:102AD00008F46AC0982F8827806F906A82C0905649
:102AE0008115904208F060C08D2F8F710E944D13A8
:102AF000282F2F71CE0199279062922B72C09C01D2
:102B000074E0369527957A95E1F7922F9370482FC8
:102B1000437021E030E002C0220F331F4A95E2F7F4
:102B20003C68392B8F70982F9695969540E2949F2C
:102B3000C0011124822B932B54C0982F8827816FBA
:102B4000906A4FC0AC014370552721E030E002C0CD
:102B5000220F331F4A95E2F78695869540E2849FBF
:102B6000C0011124822B932B9C683BC09C2F88278B
:102B7000846F906A36C00E944D138F7190E0982F39
:102B8000882790622EC08F700E944D1394E0D695D6
:102B9000C7959A95E1F7CF70D0E0DC2FCC27D069AC
:102BA0009E01282BC9011DC080E090E01AC089E376
:102BB00090E017C082EE90E014C080EE90E011C06B
:102BC00086EE90E00EC084EE90E00BC089E290E0CB
:102BD00008C085E390E005C08AE290E002C081E38E
:102BE00090E0DF91CF9108950C94DB11CF9384E0B6
:102BF00090E00E94C62EC82F82E290E00E94C62E6E
:102C00002C2F30E0A901582BCA01CF91089569EE0D
:102C10007EEF80E090E00E94F82E60E082E090E09D
:102C20000E94DA2E60E083E090E00E94DA2E10929B
:102C3000700210927102109272021092730260E0A0
:102C400084E090E00E94DA2E60E082E290E00E9450
:102C5000DA2E60E085E090E00E94DA2E60E086E007
:102C600090E00E94DA2E6FEF87E090E00E94DA2E6B
:102C700040E050E0BA0188E090E00E94EC2E60E075
:102C80008DE090E00E94DA2E40E050E0BA0188E149
:102C900090E00E94EC2E60E087E190E00E94DA2E46
:102CA00040E050E0BA018CE190E00E94EC2E60E040
:102CB00070E080E290E00E94F82E40E050E0BA011F
:102CC00088E190E00E94EC2E40E050E0BA018FE0F5
:102CD00090E00E94EC2E40E050E0BA0183E190E0E9
:102CE0000C94EC2E80916F02811110926F02089566
:102CF00080959091A00389238093A00308959091DB
:102D0000A00380919F03892B20916E02982F922B14
:102D10009093660280916F02882389F0892B8093BB
:102D20006602E8E6F2E097E080E0915029F0219118
:102D30002223D9F38F5FF9CF81110E947216E0919F
:102D40004502F0914602309731F00280F381E02D88
:102D500086E692E009940895CF93C0912203C2FBC6
:102D6000992790F9981781F080FBC2F9C09322034C
:102D70006091210384E090E00E94DA2E6C2F82E2C1
:102D800090E0CF910C94DA2ECF9108958F929F927C
:102D9000AF92BF92CF92DF92EF92FF920F931F9369
:102DA000CF93DF93CDB7DEB72C970FB6F894DEBF85
:102DB0000FBECDBF9E012F5F3F4F790188E0F90123
:102DC00011928A95E9F70AEF11E05901CC24C394D6
:102DD000D12CF80180818F3F09F447C0F894E82F87
:102DE000E295EF70F0E021A18F70A60102C0440FC0
:102DF000551F8A95E2F7CA01922F982B91A392A1B1
:102E00008095892382A3789400C0E2E0F2E020E07C
:102E100030E0912C41914F3FB1F0A42FA295AF70BB
:102E2000B0E090968C9190E04F7002C09595879598
:102E30004A95E2F780FD07C08C2D022E01C0880F55
:102E40000A94EAF701C080E0982A2F5F3F4F2830AC
:102E5000310501F7F80180818F3F11F00E9466145F
:102E6000F0EAFA95F1F7F50190820F5F1F4FFFEF3F
:102E7000AF1ABF0A21E00E3F120709F0AACF48E0BF
:102E800050E0B70187E293E00E94B62F8C01892BB6
:102E900041F088E0F701A7E2B3E001900D928A9536
:102EA000E1F7F09030030115110549F081E08093BE
:102EB00076020E94E71190937502809374028091CC
:102EC00076028823B9F080917402909175020E9475
:102ED000CC11059778F0A7E2B3E0EF2DF0E0ED5CC0
:102EE000FC4F8BE293E02D9121938A179B07D9F732
:102EF000109276020115110509F022C20E944314B6
:102F0000E0913003882309F472C119861A861B8662
:102F10001C860E2F10E00D5C1C4F80911C03AE012F
:102F2000435F5F4F7A018A3058F441EB5FE1BE01A5
:102F3000675F7F4FC8010E941823882361F10AC090
:102F400080917702909178020E94CC11843F914049
:102F500060F732C04BE55FE1BE01675F7F4FC8019C
:102F60000E9418238823B9F041E05FE1BE01675F4A
:102F70007F4FC8010E941823882369F045E95EE16C
:102F8000BE01675F7F4FC8010E941823882319F094
:102F900010921C0319C080911C038F3F19F08F5FA2
:102FA00080931C0380911C038A3070F00E94E7110B
:102FB0009093780280937702E0912F03F0E0ED5C2C
:102FC000FC4FDE01199614C0E0912F03F0E0ED5C98
:102FD000FC4FDE011996D12C8D919081981719F034
:102FE0008083DD24D3943196AE15BF05A9F707C0C1
:102FF00011921D92EA16FB06D9F7DD24D394809135
:1030000001018F3F49F1C12C96E1B92E1BC0BE9C36
:10301000F001BF9CF00D1124EE58FE4F828893887A
:103020008114910419F48FEA882E912CBE9C8001A2
:10303000BF9C100D11240E581E4FF801868181117E
:1030400010C0C394EC2CF12C80910101082E000CCF
:10305000990B8E159F05DCF680917B02882339F150
:1030600018C0858596850E94CC118816990648F768
:10307000F8018189811103C0C8010E942D26BE9CE0
:10308000C001BF9C900D112488589E4F0E944E266F
:10309000D8CF8091790290917A020E94CC11833E20
:1030A000944028F080EE0E947C1D10927B0280915B
:1030B0008902882309F499C080918802882309F441
:1030C00094C080918602909187020E94CC118D322B
:1030D000914008F48AC01092890280917C029091FC
:1030E0007D024097E1F480917E0290917F024797A4
:1030F000B1F48091800290918102892B81F48091BA
:10310000820290918302892B51F4809184029091E4
:103110008502892B21F48BE992E00E94FA288091A4
:103120007C0290917D024097E1F480917E02909123
:103130007F024697B1F48091800290918102892BA1
:1031400081F48091820290918302892B51F48091C5
:10315000840290918502892B21F48CE792E00E94F1
:10316000FA2880917C0290917D024097E1F4809151
:103170007E0290917F024597B1F4809180029091F8
:103180008102892B81F48091820290918302892BA4
:1031900051F48091840290918502892B21F489E574
:1031A00092E00E94FA2880917C0290917D024097E3
:1031B000E1F480917E0290917F020497B1F48091B6
:1031C000800290918102892B81F4809182029091FA
:1031D0008302892B51F48091840290918502892B7E
:1031E00021F480EE91E00E94FA280D2DABC0F0E0B2
:1031F000ED5CFC4FF89484E0A6E0B3E001900D9202
:103200008A95E1F764E070E086E093E00E940C2785
:10321000809305037894F894E0914103F0E0E25C38
:10322000FC4F8081898780930B0361E070E0CE01C1
:1032300009960E940C2780930A037894F894C09012
:103240000C03D0900D03E0900E03F0900F038091DB
:103250008A0290918B02A0918C02B0918D02C816C7
:10326000D906EA06FB06D1F0C0928A02D0928B0200
:10327000E0928C02F0928D020E94431481110EC0E4
:103280000E94DB11C61AD70AE80AF90AC09247025F
:10329000D0924802E0924902F0924A027894F8945F
:1032A00080911703882309F449C080FF24C09091BE
:1032B00010038091950390FF09C08160809395036E
:1032C00060E0892F86950E94512C15C08E7F8093D7
:1032D00095030E943B27809155038160809355039D
:1032E0003FEF40E752E0315040405040E1F700C02E
:1032F00000000E94E6298091170381FF09C020E0A9
:103300004091130360911203809111030E94662B78
:103310008091170382FF09C080911603882319F05A
:103320000E94422702C00E943B278091170383FF1F
:1033300003C081E08093500310921703789402C079
:1033400001E010E0802F2C960FB6F894DEBF0FBE80
:10335000CDBFDF91CF911F910F91FF90EF90DF9044
:10336000CF90BF90AF909F908F9008958091F20280
:103370009091C102891719F08F5F8770FBCF089574
:103380000F931F93CF93DF938091C00282958F702C
:1033900009F05DC08091BD02882309F458C0809176
:1033A000F2021091C1026091BB027091BC02C09107
:1033B000BE02D091BF0291E06F3F09F090E0292F4B
:1033C00006E0811709F443C0209721F07F3F21F0E8
:1033D00030E003C031E001C0322F90E030FD34C056
:1033E000089FF001099FF00D1124DF01AE53BD4F7E
:1033F00011963C911197371327C03C91361324C086
:1034000012963C91129731111FC013964D915C9109
:1034100014974C1B5D0B4F3A5105B0F48091C002DC
:103420008F7080618093C002E953FD4F80818F705F
:10343000806180838BEB92E00E940504DF91CF9145
:103440001F910F910C94B61901968770BACFDF9136
:10345000CF911F910F9108958F929F92AF92BF923B
:10346000EF92FF920F931F93CF93DF9380901D03F2
:1034700090901E03A0901F03B09020034091700213
:10348000509171026091720270917302842A952AA0
:10349000A62AB72ACFE1D0E0E92EF12C082F10E0C0
:1034A000D501C4010C2E04C0B695A79597958795B4
:1034B0000A94D2F780FD04C0219790F780E01AC0EB
:1034C000FE0183E0EE0FFF1F8A95E1F7EE0DFF1D71
:1034D00093E0EE0FFF1F9A95E1F7E00FF11FEE0F5B
:1034E000FF1FEF54FD4F859194910E947D14019729
:1034F00019F38C2FDF91CF911F910F91FF90EF90D7
:10350000BF90AF909F908F900895CF93DF93D82F67
:10351000C92F0E942C1AEC2FF0E098E0899FE00D53
:10352000F11D112483E0EE0FFF1F8A95E1F7ED0FE7
:10353000F11DEE0FFF1FEF54FD4F859194910E94F6
:103540007D14DF91CF910895FC01808191810E94CB
:10355000851A292F2F70E92FE295EF704E2F50E03A
:10356000FA013297EE30F105B8F4EA56FF4F0C94A9
:10357000662F803F99F018F4883E70F40FC0843FA6
:1035800059F40CC0883E50F0813F31F407C0822FBF
:10359000869586958695089580E0089581E0089542
:1035A0009F92AF92BF92CF92DF92EF92FF920F93D2
:1035B0001F93CF93DF93CDB7DEB761970FB6F89423
:1035C000DEBF0FBECDBF8C0185E0F801DE011D9688
:1035D00001900D928A95E1F7F801E2809091BB028B
:1035E0006091BC024091BE025091BF02411551054D
:1035F00031F06F3F31F481E09F3F19F403C081E067
:1036000001C080E0F82FF1709F2E80FD1AC1F801F3
:1036100030812181C380D4808BEBA82E82E0B82E2C
:10362000F090BD02F601E41BF50BFF2009F4C6C0C3
:103630008091C002EF3AF10508F091C0482F407F19
:1036400009F050C0621311C093130FC0FE2CE1109B
:103650000CC08F7080618093C002C5010E94050478
:103660008091C002F801858329C1CD2831F02F3F18
:1036700031F481E03F3F19F403C081E001C080E0F4
:1036800080FD03C081E08E2502C080E090E0F82F2D
:10369000F170FF2E80FF1CC08091F2024091C102A8
:1036A00056E0841709F4E8C090E0589FF001599F54
:1036B000F00D1124EE53FD4F6181261306C0608189
:1036C000631303C06281E61203C001968770E9CFDD
:1036D000FE2CEE2009F4F2C08091C002816080933C
:1036E000C00249C0621306C0931304C0E11002C0B7
:1036F000F80186C0C8010E94A41A882351F1EE2067
:1037000041F12091C002822F82958F7090E0029744
:1037100074F08091BB029091BC0298878F831986C8
:10372000DB86CA862C87CE0107960E94050486E0B8
:10373000F801ABEBB2E001900D928A95E1F70E949F
:10374000C0190AC06217C9F0C8010E94A41A8111E9
:103750001EC0C8010E940504FF24F394AFC0482F87
:10376000407F81F78BEB92E00E94050486E0F50133
:1037700011928A95E9F7F12CA1C09313E5CFE110DE
:10378000E3CFF8018583C8010E94050454C0EE20F0
:1037900001F32091C002822F82958F7090E00297F2
:1037A00034F28091BB029091BC029A8389831B8280
:1037B000DD82CC822E83CE010196B7CFEF3AF105A0
:1037C000D0F5FE2CEE2029F2621327C0931325C0FA
:1037D0002091C00220FD18C0822F82958F70482F43
:1037E00050E04115510581F0F80125834F30510516
:1037F00041F08F5F982F9295907F822F8F70892B49
:103800008583C8010E94050486E0F801ABEBB2E0B5
:1038100001900D928A95E1F751C0C8010E94A41A47
:10382000811185CF8091C00281608093C002C80160
:103830000E94050443C086E0F50111928A95E9F7DC
:103840003DC0EE2009F485CFC8010E94A41AF82ECD
:10385000882309F47ECF86E0F801ABEBB2E001905B
:103860000D928A95E1F78091BB029091BC020E9473
:10387000851A0E94C01922C03D872E878D859E859E
:103880000E94851A292F22952F70223028F49F70CC
:1038900039F0811105C00BC0243028F49F7049F421
:1038A000805E883020F0C8010E9405049F2CF92C0E
:1038B00005C0F8019581907F99F7F9CF8F2D61961A
:1038C0000FB6F894DEBF0FBECDBFDF91CF911F9131
:1038D0000F91FF90EF90DF90CF90BF90AF909F90AF
:1038E000089528E0929F800D1124682F66956695B3
:1038F0006695982F977085E0689FB001112440E08D
:1039000050E080E0FB01E40FF51FED56FD4F2081F4
:1039100030E0092E02C0369527950A94E2F721700F
:103920003327042E01C0220F0A94EAF7822B4F5F3F
:103930005F4F4530510531F7089528E0929F800D83
:103940001124E82FE695E695E695877051E001C0D1
:10395000550F8A95EAF785E0E89FF0011124ED56AE
:10396000FD4F20E030E070E04081CB01022E02C02C
:10397000969587950A94E2F781708195842785232F
:10398000842781932F5F3F4F2530310569F70895D4
:1039900060931D0370931E0380931F039093200375
:1039A00010929F0310926E020C947F160F931F9338
:1039B00041E050E060E070E004C0440F551F661F16
:1039C000771F8A95D2F740955095609570958091B4
:1039D0001D0390911E03A0911F03B09120038A0143
:1039E0009B01082319232A233B23C901B8011F91F6
:1039F0000F910C94C81C2091F30280958223809330
:103A0000F302982F977041F430E0482F082E000CF5
:103A1000550B2417350721F49091220392FF07C01C
:103A20008595859585950E94D61C1092F302089580
:103A30000F931F9341E050E060E070E004C0440F3A
:103A4000551F661F771F8A95D2F780911D039091AD
:103A50001E03A0911F03B09120038A019B01082B34
:103A6000192B2A2B3B2BC901B8011F910F910C94E4
:103A7000C81C6093700270937102809372029093DD
:103A8000730210929F0310926E020C947F16109294
:103A9000A00386E0E8E6F2E0DF011D928A95E9F7EF
:103AA00010929F0310926E020C947F16882341F0AF
:103AB000809590919F03892380939F030C947F1698
:103AC0000895882339F090919F03892B80939F0359
:103AD0000C947F160895882321F00E9478160C9488
:103AE0007F160895882339F09091A003892B809345
:103AF000A0030C947F160895882309F475C0682FDD
:103B0000823869F40E94631281FF6EC069E386E621
:103B100092E00E9449120E947F1669E30EC083382A
:103B200091F40E94631280FF5FC063E586E692E035
:103B30000E9449120E947F1663E586E692E00E9489
:103B40003C120C947F16843869F40E94631282FF41
:103B50004BC067E486E692E00E9449120E947F16FD
:103B600067E4EBCF8CEF860F813A38F380E2860F63
:103B7000883048F4677081E001C0880F6A95EAF7E1
:103B80000E947816DECF8BE5860F8330A0F48091FB
:103B90008F0290919002892B39F11092900210922D
:103BA0008F02E0914502F09146023097E9F00680DD
:103BB000F781E02D16C0685A6731B0F48091910208
:103BC00090919202892B81F01092920210929102B0
:103BD000E0914502F0914602309731F00084F18582
:103BE000E02D80E090E009940895CF93882309F4B4
:103BF0007CC0C82F8238B1F40E94631281FD75C069
:103C000069E386E692E00E9449120E947F162FEF38
:103C100081EE94E0215080409040E1F700C0000028
:103C200069E317C08338D1F40E94631280FD5DC040
:103C300063E586E692E00E9449120E947F162FEF0C
:103C400081EE94E0215080409040E1F700C00000F8
:103C500063E586E692E00E943C123CC08438B1F4F1
:103C60000E94631282FD41C067E486E692E00E94F2
:103C700049120E947F162FEF81EE94E02150804080
:103C80009040E1F700C0000067E4E3CF8CEF8C0FB9
:103C9000813A80F4E8E6F2E08EE692E02191C217E4
:103CA000E1F08E179F07D1F76C2F86E692E00E9415
:103CB000491210C080E28C0F8830B8F4C77081E0E0
:103CC00090E001C0880FCA95EAF79091A003892B74
:103CD0008093A003CF910C947F166C2F86E692E020
:103CE0000E943C120E947F16DFCFCF9108951F9350
:103CF000CF93DF93182F893319F0C0E0D0E002C0D2
:103D0000C0E5D0E0812F0E94F51D209741F08FE99A
:103D10009FE00197F1F700C000002197F6CF812FB7
:103D2000DF91CF911F910C947C1DCF93DF93CDB782
:103D3000DEB728970FB6F894DEBF0FBECDBF85E083
:103D4000E5E9F3E0DE01119601900D928A95E1F725
:103D50008091530390915403A09155038E839F83C8
:103D6000A8872885409118035091190360911A0380
:103D700070911B033FB7F89480914B0290914C02D5
:103D8000A0914D02B0914E023FBF841B950BA60B34
:103D9000B70B84369105A105B10510F4222329F152
:103DA00080913701909138018B5F9C4F4091360193
:103DB00050E04930510510F048E050E0BE016F5F1F
:103DC0007F4F0E94C32F85E090E00E940E2E892B2A
:103DD00011F080E00DC00E94DB1160931803709316
:103DE000190380931A0390931B031092550381E0EB
:103DF00028960FB6F894DEBF0FBECDBFDF91CF91EE
:103E00000895CF93DF9300D000D0CDB7DEB74091B7
:103E100001035091020360910303709104032FB7D3
:103E2000F89480914B0290914C02A0914D02B09178
:103E30004E022FBF841B950BA60BB70B8436910542
:103E4000A105B10580F10E941812DC01CB01029698
:103E5000A11DB11D89839A83AB83BC8380912D0101
:103E600090912E018B5F9C4F40912C0150E045308A
:103E7000510510F044E050E0BE016F5F7F4F0E949B
:103E8000C32F84E090E00E940E2E892B11F080E079
:103E90000BC00E94DB1160930103709302038093B7
:103EA00003039093040381E00F900F900F900F9005
:103EB000DF91CF910895CF92DF92EF92FF920F930F
:103EC0001F93CF93DF931F92CDB7DEB7EE24E39419
:103ED000F12C0BE013E09E012F5F3F4F4DEF52E0BE
:103EE00063E082E00E949013C82E882379F1D0907D
:103EF00032038D2D90E09C01225C3C4F79011981A9
:103F0000F9018081181B012F80E010165CF401502C
:103F1000F70180818F5F808360E08D2D0E948C2966
:103F200081E0F3CF912F17FD90E0191B112359F079
:103F30001F5FF70180818150808361E08D2D0E9499
:103F40008C2981E0F3CF81110E94F4158C2D0F9004
:103F5000DF91CF911F910F91FF90EF90DF90CF9065
:103F60000895CF92DF92EF92FF920F931F93CF931A
:103F7000DF9300D000D0CDB7DEB76B0184E0E82E30
:103F8000F12C06E013E09E012F5F3F4F49EF52E016
:103F900061E080E00E949013882361F049815A819A
:103FA0006B817C814093F5025093F6026093F70297
:103FB0007093F8024091F5025091F6026091F70279
:103FC0007091F802F60140835183628373830F90EE
:103FD0000F900F900F90DF91CF911F910F91FF9055
:103FE000EF90DF90CF900895CF93DF93CDB7DEB7FA
:103FF0002A970FB6F894DEBF0FBECDBF84B7877F78
:1040000084BF0FB6F894A895809160008861809372
:104010006000109260000FBE90E080E80FB6F89448
:1040200080936100909361000FBE85B7806885BF63
:1040300085B7806885BF8BE493E1909341028093BC
:1040400040020E9403110E9422118091E2008460CC
:104050008093E200789480915C028823A1F0109113
:10406000E9001F709091EC00892F817090FD80E82D
:10407000182B1092E9008091E80083FD0E940E0E3B
:104080001F701093E90082E084BD93E095BD9AEF24
:1040900097BD80936E0010924702109248021092D2
:1040A000490210924A020E94431480933E0180917B
:1040B0003E01882321F010926D018AE003C08AE05E
:1040C00080936D0180936E010E94431481110E94C0
:1040D000012D80913E0180913E01811102C094E04A
:1040E00001C090E09093300384E0891B80932F03FC
:1040F0000AEF11E0BEEFEB2EB1E0FB2EF80181914B
:104100008F018F3F11F00E946614E016F106B1F79F
:1041100002E012E0AAE0EA2EA2E0FA2EF801819174
:104120008F018F3F11F00E946614E016F106B1F77F
:10413000E7E2F3E08FE293E0A3E3B3E011921D9294
:104140008E179F07D9F780E090E00E94D42E893E19
:104150009E4F11F00E94071682E090E00E94C62E4A
:10416000809344030E94F6159093220380932103C9
:104170000E94C6168FE39CE90197F1F700C000008A
:104180000E94C6168091330380FF08C06FEF7FEF57
:1041900080E090E00E94F82E0E94821183E090E07F
:1041A0000E94C62E682F70E080E090E00E94391DCA
:1041B0008CE090E00E94C62E90E0A0E0B0E08093FA
:1041C000230390932403A0932503B09326030E9416
:1041D0004314811102C00E94042D8091310381118A
:1041E0003BC080E090E00E94D42E893E9E4F21F09B
:1041F0000E9407160E949B2A88E090E00E94CE2E23
:10420000609395037093960380939703909398031C
:10421000809155038360809355036E7F71F40E94F3
:104220009B2A88E090E00E94CE2E609395037093C5
:10423000960380939703909398030E944D2A0E94BF
:104240003B278091950380FF04C060E086950E9423
:10425000512C81E08093310380913E01811106C091
:1042600085E380934A0186E68093490120914A01C3
:10427000A22FA295AF70B0E091963C9191972F70CC
:1042800081E090E0AC01022E01C0440F0A94EAF7ED
:10429000542F5095352391963C93919792963C914B
:1042A0009297432B92964C93929740914901E42F19
:1042B000E295EF70F0E031A14F70042E01C0880F3D
:1042C0000A94EAF7982F9095932391A392A1892BB2
:1042D00082A390968C9190E002C0959587952A953F
:1042E000E2F7817020A130E002C0359527954A950C
:1042F000E2F720FD02C090E001C092E0892B80939C
:10430000420390913E0181E0982790934103891BDD
:10431000809332038FE391E09093460280934502AD
:10432000F1EBEF2EF4E0FF2E0E94C61681110E94E1
:10433000DB11E5E4F3E0A3E3B3E000E010E0A02E3E
:10434000BD9081918B2549F1C12CDD24D3949D2D05
:104350009823F1F00E944314882399F0C982AA821D
:10436000BD2081E009F480E08B830E94E711816029
:10437000782F9D838C8349815A816B818D810E9426
:10438000EC27F801EB5BFC4F8081D826D0821AC065
:10439000C394DD0C28E0C212DACF0F5F1F4F083044
:1043A000110569F68FEF8E838F8318860E94E711BF
:1043B0008160782F9A8789874E815F8168858A8599
:1043C0000E94EC2780915403882309F4BCC080919B
:1043D0005303E0919503E695E81BE0934F03823089
:1043E00059F4F0E0E154FB4FE4910E2F10E0E9E1C5
:1043F000CE2EE6E2DE2E58C0863059F4F0E0E454CA
:10440000FB4FE4910E2F10E079E0C72E76E2D72E15
:104410004BC0893061F4E695F0E0E754FB4FE4913E
:104420000E2F10E06BE8C62E65E2D62E3DC08F3011
:1044300061F4E695F0E0EA54FB4FE4910E2F10E0B2
:104440005CEEC52E54E2D52E2FC0853159F4F0E034
:10445000ED54FB4FE4910E2F10E043E6C42E44E2EE
:10446000D42E22C0883199F0833241F4F7010591AE
:10447000149139ECC32E35E2D32E16C0843271F478
:1044800004EF11E02BE8C22E23E2D22E0DC008E289
:1044900010E09DECC92E93E2D92E06C000ED17E086
:1044A00089E5C82E83E2D82E80915003882361F0DD
:1044B000109250030E94331290934E0380934D0349
:1044C00010925203109251030E943312E0914D0357
:1044D000F0914E039C012E1B3F0B2F3F3F4798F559
:1044E00020913D032223B1F010923D0320913B0324
:1044F00030913C03821B930B8F3F9F4758F4205D04
:104500003A4830933C0320933B03809155038860E5
:1045100080935503A0905103B09052030E0F1F1FBC
:1045200010934E0300934D038DE493E0F60109953B
:104530008091510390915203892B29F4AB2819F0F3
:1045400081E080933D03E09142035E2F550F550FAC
:1045500020914A01E22FE295EF70F0E080A190E017
:104560002F7002C0959587952A95E2F7817099275B
:1045700040914901E42FE295EF70F0E020A130E096
:104580004F7002C0359527954A95E2F7F901E17021
:10459000FF2720FF02C0E2E0F0E0E82BF92BE52B3B
:1045A000E093420310914103EF70F0E0E65FFD4FAE
:1045B000908180914003890F8093400384306CF098
:1045C000E12FF0E0E25CFC4F80818F5F808360E050
:1045D000812F0E948C2921E001C020E080914003BE
:1045E0008D3F64F4E12FF0E0E25CFC4F808181506C
:1045F000808361E0812F0E948C2921E0809140031B
:10460000082E000C990B64E070E00E94302F80931C
:10461000400321110E94F4150E94631290914303FC
:10462000891709F481CE0E946312809343037CCEE4
:10463000AF92BF92CF92DF92EF92FF920F931F93B0
:10464000CF93DF937C015B016A0180911C038A3068
:1046500018F001E010E002C00AE010E0C1E0D0E094
:10466000F894B501C701F60109957894811115C038
:1046700021960C171D0794F0CC9F9001CD9F300D13
:10468000300D112480E090E045E34A95F1F70000F9
:10469000019682179307C1F7E3CF81E0DF91CF91B5
:1046A0001F910F91FF90EF90DF90CF90BF90AF9050
:1046B00008950895FC018081813021F4FB018081FF
:1046C000918105C0823029F4FB01828193810C9491
:1046D00059290895FC018081813021F4FB018081FA
:1046E000918105C0823029F4FB01828193810C9471
:1046F00073290895CF93DF93FC012081223041F488
:10470000FB01EC01828193810E94732981E08B87F8
:10471000DF91CF9108950F931F93CF93DF93EC0117
:1047200000E010E080917101282F30E0021713079C
:104730003CF590916F019801290F311DA901440F9B
:10474000551F240F351F275A3C4F869590E04C810A
:10475000081719071CF4442349F002C0411106C090
:1047600040919803473918F046E901C040E0609154
:104770009703809196030E94B32A0F5F1F4FD2CFF9
:104780000E94E6298C8190E00196817099278C83A4
:10479000DF91CF911F910F9108958F929F92AF92C9
:1047A000BF92CF92DF92EF92FF920F931F93CF931E
:1047B000DF938C01FC014481C42FD0E09E01DE0117
:1047C0000E94742F9B01AC010E948A2F6B017C0117
:1047D000E0E2F0E0EC1BFD0BA5E5B0E09B01AC01D5
:1047E0000E948A2F4B015C019F01DF010E946C2F08
:1047F0009B01AC010E94952F9B01AC012C0D3D1D2E
:104800004E1D5F1DC501B4010E94442FC22FD22F3F
:104810002A3228F4F3E02F9F900111240DC025E5E2
:1048200030E02C1B3109C901880F991F280F391F4F
:1048300037FF02C02F5F3F4F35952795C22FC09598
:10484000F12C85E5E82EED1A80917101F816E0F45F
:10485000F1FC02C08E2D01C08D2F90916F012F2D84
:1048600030E0290F311DA901440F551F240F351FBA
:10487000275A3C4F4C2FC73908F046E960919703FF
:104880000E94B32AF394E0CF0E94E629F8018481C4
:10489000811102C091E003C0803219F49FEF909320
:1048A0006C0190916C01890FF8018483DF91CF91A5
:1048B0001F910F91FF90EF90DF90CF90BF90AF903E
:1048C0009F908F9008951F93CF93DF93EC018C817D
:1048D000811109C081E08C831092570392E090937C
:1048E0006B0180936A0180916F019091700189172B
:1048F00070F4E82FF0E09F01220F331FE20FF31F47
:10490000E75AFC4F1182108212828F5FF0CF10E0C5
:10491000609171011617D8F5E12FF0E070E0CF013A
:104920000E94302F20916F01820F20915703022E99
:10493000000C330B90E0E217F307E4F020916B01D9
:10494000022E000C330B2E173F07A4F09C01220F00
:10495000331F820F931F9C01275A3C4F40919803AD
:10496000473908F046E960919703809196030E94C9
:10497000B32A0BC0FC01EE0FFF1F8E0F9F1FFC011F
:10498000E75AFC4F1182108212821F5FC1CF0E9432
:10499000E62980916A0120915703280F209357033D
:1049A00090916B01980F90936B0119165CF4022E95
:1049B000000C330B4091710150E041505109241714
:1049C000350734F0819580936A01813009F41C82A7
:1049D000DF91CF911F9108957F928F929F92AF9216
:1049E000BF92CF92DF92EF92FF920F931F93CF93DC
:1049F000DF93EC018A8180FF03C0BB24BA9402C01C
:104A0000BB24B3948C8181110DC081E0B81206C023
:104A10008091710181508093560302C01092560319
:104A200081E08C83A12C44E1742E80907101A81444
:104A300008F044C080916F01CA2CD12C8601080F68
:104A4000111DC801880F991F080F191F075A1C4F05
:104A5000F80111821082128234E0E32EF12C912CA5
:104A600080915603890D85312CF0672D0E940E2F01
:104A7000892F02C087FD880D082E000C990BC816DF
:104A8000D906A9F4809198038E9DA0018F9D500DA9
:104A900011245595479555954795473908F046E9AE
:104AA000980160919703809196030E94B32A9B0C12
:104AB000F1E0EF1AF108A1F6A394B7CF0E94E6291E
:104AC0008091560391E0B9120EC0811107C0809108
:104AD00071018150809356031C820FC081508093D6
:104AE0005603BC820AC090E001966091710170E0AB
:104AF0000E94302F809356038C83DF91CF911F91BA
:104B00000F91FF90EF90DF90CF90BF90AF909F906C
:104B10008F907F900895FF920F931F93CF93DF9311
:104B2000EC01F12C0FEF10E060917101F61608F521
:104B300080916F012F2D30E0280F311DC901880FA2
:104B4000991F280F391F275A3C4F40919803473926
:104B500008F046E970E0C8010E94302F962F8C8142
:104B600060919703F99E800D11240E94B32AF3945B
:104B7000DBCF0E94E6299A818C8190FF02C08F5F73
:104B800001C081508C83DF91CF911F910F91FF90D5
:104B900008950F931F93CF93DF9300D01F92CDB74B
:104BA000DEB78C018091580381110AC09E012F5FEE
:104BB0003F4F46E96FEF0E94B32A8A8180935803E2
:104BC000F8018481813051F028F0823061F4409105
:104BD00058030AC08091580340E007C06091580311
:104BE00040E080E003C040E080E060E00E94322AC4
:104BF000F801848190E0019663E070E00E94302F1C
:104C000084830F900F900F90DF91CF911F910F91A0
:104C10000895CF93DF93EC01E5E9F3E043816281EE
:104C20008C810E94492B8C818F5F8C83DF91CF9187
:104C30000895CF93DF93EC01EC81F0E0ED53FB4F4F
:104C40004491E5E9F3E0628181810E94492B8C81E6
:104C50008F5F8C83DF91CF910895CF93DF93EC0129
:104C600081E0898B9091A0038F81892B8093A00391
:104C700090919F038885892B80939F030E947F16C4
:104C8000EA81FB81CE010696309729F06C897D89F7
:104C9000DF91CF910994DF91CF910895EF92FF9228
:104CA0000F931F93CF93DF93FC01228521113AC00C
:104CB000EC01E380F480F7E5FF1A26E12E9DC001A8
:104CC0002F9D900D1124DC01AE58BE4F1496ED912E
:104CD000FC91159788589E4F309729F054966D9106
:104CE0007C915597099586E18E9D80018F9D100DD1
:104CF00011240E581E4FF80187810E947816F80182
:104D00008085809590919F03892380939F030E94C3
:104D10007F16188219861B861E821D8210929E03A2
:104D200010929D03DF91CF911F910F91FF90EF9013
:104D300008950F931F93CF93DF93C42FD22FFC01BD
:104D400082818823C9F040939C030E94E7119093CD
:104D50009B0380939A0380E28C0F883008F057C041
:104D6000C77081E001C0880FCA95EAF7DF91CF9143
:104D70001F910F910C94721D80919C03481330C0B9
:104D800080919A0390919B030E94CC118F3A9105D8
:104D900038F510E21D0FCD17B9F080E28C0F883086
:104DA00040F4C77081E001C0880FCA95EAF70E94FD
:104DB0006B1D183028F581E09D2F977001C0880F7A
:104DC0009A95EAF70E94721D802F0E94771E183074
:104DD000F0F4D77081E001C0880FDA95EAF70AC0D5
:104DE00080E28C0F883098F4C77081E001C0880F92
:104DF000CA95EAF7DF91CF911F910F910C946B1D2B
:104E0000802FDF91CF911F910F910C94771EDF912E
:104E1000CF911F910F910895FC01680F791F8FEFBB
:104E200091E3E617F70771F02191822728E030E03F
:104E300087FF03C0880F892701C0880F21503109DF
:104E4000B9F7EFCF08959091950390FF04C0969520
:104E5000981740F003C0811105C090E0961710F438
:104E60000C949A2C61E00C94512C882311F0FA01D7
:104E700001C0FB010994E3E5F3E0118282818460C3
:104E80008283089560919503669570E04BE050E051
:104E90008FE591E00E94A92F892B19F481E080937E
:104EA00054030E94331290934E0380934D038091DC
:104EB000550384608093550308959C013A9521150C
:104EC0003F4130F5BC0166277270AC014427547035
:104ED0009C012227387094FF0FC090FF02C080E130
:104EE00001C080E0672B09F08062452B09F08064E7
:104EF000232B79F080680895892F8170672B09F042
:104F00008260452B09F08460232B19F08860089596
:104F100080E008958091F7018430A1F040F4823060
:104F200089F0833091F481E00E94D61C0EC0853058
:104F300019F0863039F009C081E00E94D61C82EE5B
:104F40000E947C1D8CE20E947C1D1092F701089546
:104F5000FC018081813041F48185811119C08285F5
:104F60008823B1F083E01DC0823041F48185811136
:104F700011C08285811110C084E013C0833071F4A8
:104F8000818581110DC08285882351F088E009C098
:104F900082E007C086E005C085E003C081E001C073
:104FA00087E08093F701843089F028F4823089F01B
:104FB000833049F00895853019F0863039F008952E
:104FC00082EE0E94F51D81E00C94181D8CE20E9477
:104FD000771E8CE20C94F51D1F93CF93DF93CDB712
:104FE000DEB767970FB6F894DEBF0FBECDBF4B8B11
:104FF0005C8B6D8B7E8B8F8B611110929F0386E093
:105000009E01235F3F4FD901E82F1D92EA95E9F7F2
:1050100095E0FE017396D90101900D929A95E1F702
:105020009C894E895F897B897D879E876F87598B95
:10503000488BF901DE01179601900D928A95E1F7F0
:10504000CE0107960E94D01A81113EC086E0FE0173
:105050003796DE01119601900D928A95E1F7FF8156
:10506000E8856A857B856115710531F0EF3F31F484
:1050700081E0FF3F19F403C081E001C080E080FDC2
:1050800023C02091C10230E0C901019687709927A1
:105090004091F20250E08417950779F1F983EA8391
:1050A0007D836C8396E0929FD001939FB00D112475
:1050B000AE53BD4FFE01319601900D929A95E1F7E6
:1050C0008093C1020E94B61916E08091F20290917D
:1050D000C1028917F9F0189FC00111248E539D4F0A
:1050E0000E94D01A8823B1F08091F20290E00196DC
:1050F000877099278093F202E8CF0E94471D109293
:10510000C1021092F202EBEBF2E086E0DF011D92A9
:105110008A95E9F767960FB6F894DEBF0FBECDBF4C
:10512000DF91CF911F910895DF92EF92FF920F933D
:105130001F93CF93DF93E82FF0E0ED50FA4FD49018
:10514000282F26952695269530E0F901ED51FA4F46
:105150000491877010E0082E02C0159507950A94F7
:10516000E2F701701127F901ED52FA4FE490F12CAA
:10517000082E02C0F594E7940A94E2F791E0E92240
:10518000FF24F901ED53FA4FC491D0E002C0D59548
:10519000C7958A95E2F7C170DD270115110519F051
:1051A00081EE0E94F51DE114F10419F086EE0E94D3
:1051B000F51D8D2D0E94771EEF2819F086EE0E94B6
:1051C0007C1D012B19F081EE0E947C1DCD2B51F02E
:1051D0008CE2DF91CF911F910F91FF90EF90DF90C4
:1051E0000C94771EDF91CF911F910F91FF90EF905C
:1051F000DF900895FF920F931F93CF93DF938C015D
:105200008AE0F82EF8018491882309F44CC081309B
:1052100009F042C0E8012196FE018491813031F409
:105220002196FE0184910E94771E39C0823039F4A4
:10523000E8012296FE0184910E94F51D30C0833062
:1052400039F4E8012296FE0184910E947C1D27C05A
:10525000843029F5E8012296FE01249180E090E057
:1052600030E0205331092A30310560F4F89EA00166
:10527000F99E500D1124C901840F951F2196FE013E
:105280002491EECF009759F0EFE9FFE03197F1F765
:1052900000C000000197F6CF0E949428E8018E011B
:1052A0000F5F1F4FAFCFDF91CF911F910F91FF90F5
:1052B0000895CF93DF93EC010E947C1DCE01805EA8
:1052C0009109089710F0209739F4CE010E945D27CC
:1052D000DF91CF910C946B1DCE010E945D27DF9171
:1052E000CF910C94561DCF93DF93EC01805E910912
:1052F000089710F0209731F4CE010E945D270E949C
:10530000721D05C0CE010E945D270E94611D8C2F79
:10531000DF91CF910C94F51DCF93C62F40911D03C3
:1053200050911E0360911F0370912003811119C0D9
:10533000411551056105710531F0769567955795D1
:10534000479540FD08C0CC2311F089EA01C08AEAE4
:105350000E94771E38C0CC2311F08DEBF9CF8EEB75
:10536000F7CF411551056105710531F076956795C7
:105370005795479540FD06C0CC2311F08EE4E8CF49
:105380008BE4E6CF80917B02811106C081E080939F
:105390007B0280EE0E94F51D0E94E71190937A0235
:1053A00080937902CC2339F08BE290E00E9473293C
:1053B0008BE290E006C08BE292E00E9473298BE2C0
:1053C00092E00E94592980E0CF91089530916E01BA
:1053D0008091950380FF16C0E0916D0163E0E69F28
:1053E000F0011124E75AFC4F539A8BB1877F9BB190
:1053F00098602FB7F894AF0163E0369F400D511DC0
:10540000112414C080916F0190917001891720F7C9
:10541000E82FF0E0AF01440F551FE40FF51FE75AE6
:10542000FC4F1182108212828F5FF0CFE417F507D4
:1054300089F0319168E09BB9000000C037FF8BB95B
:10544000330F000000C000C000C08BB900C06A95D7
:1054500091F7ECCF2FBF8FE594E00197F1F700C0F3
:10546000000008959091950390FF16C090916F01F0
:1054700020917001921770F4E92FF0E0DF01AA0F7C
:10548000BB1FEA0FFB1FE75AFC4F818360834283F7
:105490009F5FF0CF0C94E629089580919503282F03
:1054A000269530E02115310519F48170826005C020
:1054B0002532310524F081708864809395038091B2
:1054C0009803873918F086E9809398030895CF925E
:1054D000DF92EF92FF926B017C010E944D2AB7018F
:1054E000A60188E090E0FF90EF90DF90CF900C94C1
:1054F000EC2E80919903882319F0815080939903B1
:105500006091950370919603809197039091980311
:105510000C94672A80919903833018F48F5F8093ED
:1055200099036091950370919603809197039091F0
:1055300098030C94672AE5E9F3E083E08083118205
:105540008FEF828386E983831482A3E5B3E012960A
:105550008C911297836012968C9360817181828105
:1055600093810C94672AAF92BF92CF92DF92EF9211
:10557000FF920F931F93CF93DF93E82EF62EE9014E
:10558000E42FF0E0611106C0ED58F94FE4914E2F81
:105590002E2F71C0062F10E0ED58F94F4491F42FD3
:1055A000C42ED12C26E0829FC00111242FEF30E0C1
:1055B000B9010E941C2F5BEA5603C001579F900D52
:1055C00011248E0D911D8E0D911D582F550F580FC2
:1055D000D901A01BB10BAC9DC001AD9D900DBC9D30
:1055E000900D1124E92FF59ED0011124AB2FBB277C
:1055F0007901EA1AFB0AEC9CD001ED9CB00DFC9CF1
:10560000B00D11245901A51AB108A09E7001A19EE8
:10561000F00CB09EF00C1124EF2CFF242E193F0942
:105620002C9D80012D9D100D3C9D100D1124212FCE
:105630006230710591F048F461157105E1F0613057
:105640007105B9F4242F4B2F16C06430710569F031
:1056500040F06630710579F00CC0242F492FE12FFE
:105660000AC0492FEF2F2B2F06C0292FE42F412FDF
:1056700002C0292FEB2F49832883EA83DF91CF9142
:105680001F910F91FF90EF90DF90CF90BF90AF9060
:105690000895CF93DF9300D01F92CDB7DEB79091DE
:1056A000950390FF0DC0473908F046E99E012F5F32
:1056B0003F4F0E94B32A4B8169818A810E94322A1E
:1056C0000F900F900F90DF91CF910895AF92BF92FE
:1056D000CF92DF92EF92FF920F931F93CF93DF93BE
:1056E00000D01F92CDB7DEB7082FF62E142FE22E72
:1056F0009091950390FF85C0E92FE695AE2FB0E01D
:10570000A65EBD4F8C91809353039E7F923081F4AF
:10571000473908F046E99E012F5F3F4F6F2D802FDC
:105720000E94B32A4B8169818A810E94322A46C035
:10573000823019F41091980341C0863019F4009119
:1057400096033CC08930D9F38931C1F5E9518E2FD8
:105750008170D82EE695F0E0ED58F84FA590B49002
:10576000C12CBB2460917101C61630F52C2D30E0A0
:10577000A29EC001A39E900DB29E900D112470E0D8
:105780000E941C2F802FD11002C0860F01C0861BE3
:1057900090916F01290F311DA901440F551F240F4E
:1057A000351F275A3C4F412F173908F046E96F2D16
:1057B0000E94B32AC394D6CF0E94E6298091960313
:1057C000081308C080919703F81204C080919803D1
:1057D000181729F080915503826080935503009338
:1057E0009603F092970310939803EE2051F0609186
:1057F00095037091960380919703909198030E946E
:10580000672A0F900F900F90DF91CF911F910F910A
:10581000FF90EF90DF90CF90BF90AF900895E5E9B3
:10582000F3E0438128E0421B08F440E021E062817C
:1058300081810C94662BE5E9F3E0438128E0420F77
:1058400008F44FEF21E0628181810C94662BE5E939
:10585000F3E0628128E0621B08F460E021E043810C
:1058600081810C94662BE5E9F3E0628128E0620F08
:1058700008F46FEF21E0438181810C94662BE5E908
:10588000F3E0818121E04381628188500C94662B92
:10589000E5E9F3E0818121E043816281885F0C9436
:1058A000662B9091950390FF3BC09170811102C0CF
:1058B000926006C0853210F0986402C0880F982B61
:1058C00090939503809155038160809355036623DF
:1058D00051F0609195037091960380919703909198
:1058E00098030E94672A60919503669570E04BE0EB
:1058F00050E08FE591E00E94A92F892B19F00E94BA
:105900003B2702C00E94422781E08093500320E0A1
:105910004091980360919703809196030C94662BB5
:105920000895809195038695815009F484E261E0A1
:105930000C94512C8091950386958F5F853208F0E9
:1059400081E061E00C94512C8EE14A9B02C08150B1
:10595000E1F74A9BFECF08955A9880E28A95F1F7C5
:105960005A9A0895FC012AE02A95F1F728E090E080
:1059700080E031E040E14A95F1F7880F4A9B02C090
:105980008160932700C0000040E14A95F1F7215063
:1059900089F720E12A95F1F729B100C0000030E134
:1059A0003A95F1F722FB222720F992272081920FC6
:1059B00090830895EF92FF920F931F93CF93DF93FD
:1059C0001F92CDB7DEB719828C017C01E60EF11C67
:1059D0000E151F0551F00E94A42CCE0101960E94C5
:1059E000B22CF80181938F01F3CF81E0998191115D
:1059F00080E00F90DF91CF911F910F91FF90EF907A
:105A00000895529A5A9A089552985A9AEA9AE9E64B
:105A1000F0E080818F7C80830895615091E001C027
:105A2000990F6A95EAF720E031E0992361F0492F58
:105A3000482319F05A9A232701C05A9840E24A9500
:105A4000F1F79695F2CF222311F05A9A01C05A9895
:105A500080E28A95F1F75A980895FF920F931F9369
:105A6000CF93DF93EC018C01060F111DC017D107F6
:105A700041F0F9900E94AC2C68E08F2D0E940D2D12
:105A8000F5CFDF91CF911F910F91FF9008951F9255
:105A90000F920FB60F921124EF92FF920F931F9364
:105AA0002F933F934F935F936F937F938F939F9326
:105AB000AF93BF93EF93FF93CF93DF931F92CDB735
:105AC000DEB719820E94A42CCE0101960E94B22C4E
:105AD000A82FA695A695A6959A2F969595702A2FEC
