:100000000C94BC030C9403040C9403040C94AA2DCC
:100010000C9403040C9403040C9403040C94030444
:100020000C9403040C9403040C94E2180C942E1703
:100030000C9462180C9403040C9403040C940304B1
:100040000C9403040C9403040C9403040C94030414
:100050000C9403040C9415180C9403040C940304DE
:100060000C9403040C9403040C9403040C940304F4
:100070000C9403040C9403040C9403040C940304E4
:100080000C9403040C9403040C9403040C940304D4
:100090000C9403040C9403040C9403040C940304C4
:1000A0000C9403040C9403040C940304AF04B405EF
:1000B0005505CC04F1040105B405B4051B05330551
:1000C0004705670590057C058C098C09C409C4099E
:1000D000860B860B860B860B170AF50A060B060B9A
:1000E000B404B4055505CC04F1040105B405B40508
:1000F0001B0533054705670590057C05C504B40558
:100100005505CC04F1040105B405B4051B05330500
:100110004705670590057C05611588150617881544
:100120000617D015F3150617D016E316BD1ABD1A1B
:10013000D01AD01AC61AD01AD01AD01ABD1ABD1A9F
:10014000CB1AD01AD01ACB1A0A0A2D2D0A0A7374A8
:10015000C3B6726D65722D636F6E73756C74696E64
:10016000670A44722E205065746572205374C3B6BA
:10017000726D65720A0A2B343920313733203234DC
:10018000203138203531350A6D61696C4073746FE8
:1001900065726D65722D636F6E73756C74696E67D1
:1001A0002E64650A7777772E73746F65726D65724A
:1001B0002D636F6E73756C74696E672E64650A0AC1
:1001C00000467265756E646C69636865204772C32A
:1001D000BCC39F650A5065746572205374C3B672C0
:1001E0006D657200536368C3B66E65204772C3BC09
:1001F000C39F650A5065746572205374C3B6726DEF
:10020000657200536368C3B66E65204772C3BCC392
:100210009F650A50657465720005010906A1010514
:100220000719E029E7150025019508750181029558
:1002300001750881010507190029FF150026FF0037
:1002400095067508810005081901290595057501B0
:100250009102950175039101C0090222000101007C
:10026000A0FA0904000001030101000921110100A5
:10027000012240000705810308000A120100020064
:100280000000081D8D9D9D0100010200010C034B23
:1002900000790072006900610000001003730070B3
:1002A000006C00690074004B004200000004030968
:1002B00004000000000500130009001A00140002E9
:1002C00054000000000700170016001500005763D7
:1002D0005D2B6105570A00045706001B001D0065D1
:1002E000002B610557E2002900A800000000000073
:1002F00000000000000D000F0003571C006C5D6D36
:100300005D000000001000110001570C000B006E92
:100310005D06572A720E000257695D6A5D6B5D29A2
:100320005D06572A72E4006F5D2C0000000000009B
:100330000000000000665D24002500260001000189
:100340000000000000675D1E001F00200027006401
:100350000001000100685D2100220023000100016E
:100360000001000100010001000100000000000088
:1003700000000000001F024A0052004D000000650E
:100380005D000000003202500051004F000000707C
:100390005D01004C002D02380030001E02310001CA
:1003A0000001004C000100010001000000000000FD
:1003B0000000000000430040004100420001000135
:1003C000000000000044003A003B003C0001000136
:1003D000000100010045003D003E003F000100011A
:1003E0000001000100010001000100000000000008
:1003F00000000000000100010001000100010001F7
:1004000000000000000100010001000100010001E6
:1004100000010001000100010001000100010001D4
:1004200000010001000100010001000000000000C7
:1004300000000000000100010001000100010001B6
:1004400000000000000100010001000100010001A6
:100450000001000100010001000100010001000194
:100460000001000100010001000100000000000087
:100470000000000000010001000100010001000176
:100480000000000000C35CC85CC65CCA5CC45C01C0
:1004900000010001000100C95CC75CCB5CC55C01C8
:1004A0000001000100010001000100000000000047
:1004B0000000047F3F1F643214643214783C1E1E17
:1004C000140A052223252628292A2C2D2F303233E1
:1004D0003536383A3B3D3E4042434547494A4C4E0B
:1004E0005051535557595A5C5E6062646668696B37
:1004F0006D6F71737577797B7D7F81838587898A3D
:100500008C8E90929496989A9C9E9FA1A3A5A7A842
:10051000AAACAEAFB1B3B4B6B8B9BBBCBEBFC1C272
:10052000C3C5C6C7C9CACBCCCDCED0D1D2D2D3D405
:10053000D5D6D7D7D8D9D9DADADBDBDBDCDCDCDC23
:10054000DCDDDDDDDDDCDCDCDCDCDBDBDBDADAD9F1
:10055000D9D8D7D7D6D5D4D3D2D2D1D0CECDCCCB73
:10056000CAC9C7C6C5C3C2C1BFBEBCBBB9B8B6B491
:10057000B3B1AFAEACAAA8A7A5A3A19F9E9C9A9821
:10058000969492908E8C8A89878583817F7D7B79F2
:10059000777573716F6D6B6968666462605E5C5AD3
:1005A0005957555351504E4C4A4947454342403E96
:1005B0003D3B3A3836353332302F2D2C2A29282628
:1005C00025232200000000000000000000000000C1
:1005D000000000000000000000000000000000001B
:1005E000000000000000007E0F00D4FFFFFFC700E6
:1005F00000007800000000000000002A2B28000006
:1006000000000000000000000000000000002900C1
:100610000000002C1E3420212224342627252E36CB
:100620002D3738271E1F2021222324252633333639
:100630002E37381F0405060708090A0B0C0D0E0F8C
:10064000101112131415161718191A1B1C1D2F310F
:1006500030232D350405060708090A0B0C0D0E0F73
:10066000101112131415161718191A1B1C1D2F31EF
:1006700030354C00010101010101010101020202BA
:10068000020202020202030303030303030304043E
:100690000404040404050505050506060606060708
:1006A0000707070708080808090909090A0A0A0BC1
:1006B0000B0B0C0C0C0D0D0D0E0E0E0F0F0F101062
:1006C00011111112121313141415151616171718E9
:1006D0001819191A1A1B1B1C1D1D1E1E1F20202154
:1006E0002222232424252626272829292A2B2C2D9B
:1006F0002D2E2F30313232333435363738393A3BBC
:100700003C3D3E3F404142434445464748494A4CB0
:100710004D4E4F50515354555658595A5B5D5E5F7C
:10072000616264656668696B6C6D6F707273757712
:10073000787A7B7D7E8082838587888A8C8E8F9174
:10074000939596989A9C9EA0A2A3A5A7A9ABADAF9E
:10075000B1B3B5B7BABCBEC0C2C4C6C9CBCDCFD188
:10076000D4D6D8DBDDDFE2E4E7E9EBEEF0F3F5F831
:10077000FAFDFFFFAA7F554011241FBECFEFDAE03C
:10078000DEBFCDBF04B603FE27C08091B9039091B0
:10079000BA03A091BB03B091BC038730904BA74034
:1007A000B04BD1F41092B9031092BA031092BB036C
:1007B0001092BC0314BE84B7877F84BF0FB6F89431
:1007C000A89580916000886180936000109260001D
:1007D0000FBEE0E0F8E3099512E0A0E0B1E0E2E648
:1007E000F0E602C005900D92A835B107D9F723E0D5
:1007F000A8E5B2E001C01D92A93BB207E1F70E9453
:1008000019200C942F300C9400007F928F929F92AD
:10081000AF92BF92CF92DF92EF92FF920F931F930E
:10082000CF93DF93CDB7DEB72A970FB6F894DEBF2C
:100830000FBECDBFFC01D080118183819481892BB3
:1008400039F01F3F39F491E02FEFD21203C003C0FB
:1008500091E001C090E090FF02C00C94A00C7F01D9
:1008600085E0DE01169601900D928A95E1F7D70199
:1008700012962C918E819F81222349F00E94301A7A
:10088000082F682F8E819F810E94A11C03C00E94A7
:10089000751C082FE12FF0E0B8E00B9FE00DF11D73
:1008A0001124A3E0EE0FFF1FAA95E1F7ED0DF11D56
:1008B000EE0FFF1FEF54FD4F059114915801F70102
:1008C0008281882309F466C7809100018F3F09F473
:1008D00044C1E2E7CE2EE1E0DE2E812C912C77247C
:1008E000739480910001082E000C990B88159905CE
:1008F0005CF1D60116968C9116978823F1F0199623
:100900008D919C911A978017910739F48091B503C6
:100910009091B6038017910781F0F60177861487CE
:1009200003878189811103C0C6010E945226C60136
:1009300006960E9473261092B703FFEF8F1A9F0A44
:1009400026E1C20ED11CCDCFF801E356FD45EE30B5
:10095000F10508F009C1EA5AFF4F0C94C92FD701DD
:1009600012968C91882389F08091B80385FD05C08B
:1009700086EE0E941A1E84E11BC085EE0E94A11D16
:1009800086EE0E941A1E84E61EC084E10E94A11D0C
:1009900084E60E94A11D44C4F70182818823E1F00E
:1009A0008091B80385FD08C086EE0E941A1E84E27D
:1009B0000E941A1E86EEEDCF85EE0E94A11D86EEE6
:1009C0000E941A1E87E20E941A1E86EE0E94A11D36
:1009D00085EE0E941A1E24C484E20E94A11D87E2B3
:1009E000D8CFD70112968C91882379F08091B803E3
:1009F00085FD05C085EE0E941A1E85E29EC086E236
:100A0000E8CFF7018281811105C085E20E94A11D16
:100A100086E2BFCF8091B80385FD05C086EE0E94B7
:100A20001A1E85E2C5CF85EE0E94A11D86EE0E94AA
:100A30001A1E86E2C8CFD70112968C91882389F0BE
:100A40008091B80385FD05C085EE0E941A1E84E2E0
:100A500074C085EE0E94A11D86EE0E941A1E80E3DE
:100A6000B2CF84E245C0F7018281882359F080919A
:100A7000B80385FD05C085EE0E941A1E83E25DC0A5
:100A800082E2A7CF83E20E94A11D82E282CFD7013A
:100A900012968C918823B1F08091B80385FD0DC02A
:100AA00085E30E949C1E85E394CFF7018281882311
:100AB00061F08091B80385FDB3C38EE20E949C1E55
:100AC0008EE287CF85E30E94A11D8EE262CFD7011F
:100AD00012968C91882359F08091B80385FD05C04A
:100AE00085EE0E941A1E87E228C080E372CF87E25B
:100AF0000E94A11D80E34DCFF7018281882359F028
:100B00008091B80385FD05C085EE0E941A1E81E222
:100B100014C080E25ECF81E20E94A11D80E239CF45
:100B2000D70112968C91882399F08091B80385FDA6
:100B300008C085EE0E941A1E88E30E941A1E85EEE8
:100B400028CF85EE0E94A11D82E30E941A1E40CF8D
:100B500088E30E94A11D82E31CCFF801E356FD4506
:100B6000EE30F10508F412C6C80197558F3F910584
:100B700011F008F053C020910001022E000C330B3D
:100B80002817390714F480930001F701228136E118
:100B9000389F4001399F900C1124C4018E589E4FFC
:100BA0006C01DC0150962C935097928116968C9193
:100BB0001697992341F11A961C930E9319978F5FFC
:100BC00016968C930E945618F60196878587809119
:100BD000660287839091B7038091B803892B808741
:100BE0000190F081E02DC40188589E4F309731F07C
:100BF000D60154966D917C91559709951093B60343
:100C00000093B5030BC0882349F0F601818988233E
:100C100029F0C40188589E4F0E947326D70112966E
:100C20008C91882369F0C801825E9C45059740F449
:100C30006EE1600F60933B038CE090E00E943D2FDB
:100C400017FF7EC0F7018281882309F479C00E94D2
:100C5000D2188695817080935B0290913B0391300E
:100C600029F4882319F089E30E949C1E8091B8031F
:100C700080935A021092B80380913B03813071F047
:100C800048F08230A1F08430C1F486EE0E949C1EB0
:100C900088E111C082EE0E941A1E0FC088E193E025
:100CA0000E94D62988E193E00E94BC2906C082EE0A
:100CB0000E941A1E87E50E949C1E8FE39CE9019703
:100CC000F1F700C000004801E89497F87CE0C72ED7
:100CD000D12CC4010C2C02C0969587950A94E2F79A
:100CE0008F7096EF980F963010F0805D01C0895A92
:100CF0000E94F72894E0C91AD108ACEFCA16AFEFEA
:100D0000DA0639F780913B03813039F078F0823090
:100D100069F0843089F488E20DC08CE20E949C1E48
:100D200080915B02882341F089E304C082EE0E9437
:100D3000A11D02C00E949C1E80915A028093B8039C
:100D4000F7018281882309F441C0809180028823C1
:100D500029F1C80190568115F0E29F0720F0905EBE
:100D60008115904110F45801BB2480917F02853099
:100D700060F4E82FF0E0EE0FFF1FED58FD4FB18259
:100D8000A0828F5F80937F0202C0109280020E9437
:100D9000561890937E0280937D0242C209328DE5FF
:100DA000180709F056C181E0809380020E9456180E
:100DB00090937E0280937D0210927F028AE0E3E7A7
:100DC000F2E0DF011D928A95E9F716C0043FECE5D9
:100DD0001E0709F442C108F06DC1093D2CE5120758
:100DE00009F45CC10A3D8CE5180709F45DC1083DB2
:100DF0009CE5190709F449C1F7018281882309F4A8
:100E00008FC11092B4030230FCE51F0708F471C1D2
:100E100006312CE5120730F0C8018B5F9C4509971D
:100E200008F067C10E945F0F90933A0380933903E3
:100E300000318CE5180709F4C3C008F041C0083040
:100E4000ACE51A0709F49AC0F0F40430ECE51E078B
:100E500009F487C068F402302CE5120709F477C062
:100E600003301C4509F0E5C080913903826076C0EB
:100E700006309CE5190709F46EC008F07BC080912C
:100E8000390388606BC00C30BCE51B0709F485C0D2
:100E900068F40A30FCE51F0709F474C008F079C053
:100EA0000E946C1D80913903806858C00E308CE51B
:100EB000180709F476C008F07FC0809139038BC011
:100EC0000C3FACE51A0709F44FC018F50331ECE507
:100ED0001E0709F47DC078F401312CE5120709F4EE
:100EE00073C002311C4509F0A4C00E946C1D8091A2
:100EF00039038F7733C005319CE5190709F472C0B7
:100F000008F486C00B3F1C4509F093C080913A035A
:100F10003EC00115EDE51E0709F45FC058F40E3F11
:100F20002CE5120709F444C008F43FC080913A034D
:100F300082602DC002309DE5190709F475C008F4E0
:100F40005DC003301D4509F074C060E06EC0809143
:100F50003903816003C08091390380618093390334
:100F600068C08091390311C080913A0382608093F8
:100F70003A035FC0809139038062F0CF80913903DA
:100F80008064ECCF8091390388608460E7CF816012
:100F9000EECF809139038E7FE1CF809139038D7F31
:100FA000DDCF80913903877FD9CF80913A0318C074
:100FB00080913A038D7FDBCF809139038F7ECECF36
:100FC000809139038F7DCACF809139038F7BC6CF43
:100FD00080913903877F8B7FC1CF80913A038D7FCA
:100FE0008E7FC5CF8091390382FB222720F991E0C3
:100FF000922790FB82F990FB83F9B0CF80913A035E
:10100000982F909591708E7F892B90FB81F9AFCFAF
:101010000E946C1D8091390387FB222720F991E003
:10102000922790FB87F99ACF61E08EE090E00E94D2
:101030003D2F6091390310913A0384E090E00E94C3
:101040003D2F612F82E290E00E943D2F0E946C1D97
:10105000E7C0043FBCE51B0731F406E221EE40EE99
:1010600064EF7CE517C0053FECE51E0708F09DC363
:10107000093DFCE51F0791F00A3D2CE51207A1F0A0
:10108000083D8CE5180709F0BCCE06E221EE41EEE2
:1010900068ED7CE5C7010E94BE26C2C007E225EECE
:1010A00045EE69ED7CE5F6CF08E221E045EE6AED1C
:1010B0007CE5F0CF063FACE51A0731F406E221EEFD
:1010C00042EE66EF7CE5E6CF063FBCE51B0730F459
:1010D00007E225EE44EE65EF7CE5DCCF073FECE56B
:1010E0001E0709F089CE07E225EE46EE67EF7CE5A4
:1010F000D1CF0631FCE51F0709F040C08091B8034D
:101100008A7A91E009F490E090935C02882311F0D0
:1011100065E301C069E28DE592E00E94B8180EC057
:101120000631ECE51E0769F480915C02882309F41E
:1011300049C365E38DE592E00E94AB180E94E80F79
:101140006FC08091B80382720D3CECE51E0709F474
:10115000D7C308F04DC0073C2CE5120709F4BCC307
:1011600008F041C3043CACE51A0709F4ABC308F02E
:101170002BC3033CECE51E0709F47AC3D701129692
:101180008C91882309F46DC00B35BDE51B0751F127
:1011900058F40115FCE51F07B9F00F3D1C4509F097
:1011A00060C00E94700F3CC00C358DE51807E1F05F
:1011B0000D351D4509F055C080913A0382FB882703
:1011C00080F991E0892711C00E946C1DAFEFB4E354
:1011D000ECE0A150B040E040E1F700C000000E9408
:1011E000F1171EC081E001C080E00E94151039C0D7
:1011F000023D8CE5180709F493C308F418C3053DB4
:101200002CE5120709F492C308F425C3063DBCE59A
:101210001B0709F490C30E35EDE51E0709F0AECFAC
:1012200080910B03877009F48BC3D70112968C91C0
:10123000882309F485C382E02A960FB6F894DEBFAE
:101240000FBECDBFDF91CF911F910F91FF90EF9017
:10125000DF90CF90BF90AF909F908F907F900C9435
:10126000201DD70112968C9112970C9111961C910A
:10127000882349F0C8010E94301AD82E682FC8016F
:101280000E94A11C04C0C8010E94751CD82EE12F29
:10129000F0E0B8E0DB9EE00DF11D112433E0EE0F2D
:1012A000FF1F3A95E1F7E00FF11DEE0FFF1FEF541E
:1012B000FD4F859194910E94E60D8C01982EF701C7
:1012C000A280C580C2945FE0C52280910B03877025
:1012D00099F0AA2089F0812F807F803421F080E26C
:1012E000800F883048F082E00E94201D80910B031F
:1012F0008770DD24D3948111D12CB12EB2942FE0CC
:10130000B2228B2D90E08C30910508F0FFC1FC01DA
:10131000EC59FF4F0C94C92F812F807F1F708823B9
:1013200011F01295107FAA20B9F0112309F4D9C148
:1013300080E2800F883010F0911006C08091B803D1
:10134000182B1093B80305C08091B703182B109386
:10135000B7030E94E80FC5C1802F0E94A11D112371
:1013600009F4D4C1005E083010F0911004C0812F40
:101370000E94E10F06C010958091B70318231093C7
:10138000B7030E94E80FC2C1812F807F1F70803297
:1013900011F01295107F992021F0F1E09F1611F1C4
:1013A00030C0AA20B1F0CC2081F021E0C2120DC0E3
:1013B00080913A0382FDAAC180916602182B18170A
:1013C00009F4A4C110936602A1C180916602812B29
:1013D00010C0CC2021F081E0C81609F497C10E940A
:1013E000DB0F21C0AA2041F095E09C1508F48EC1C6
:1013F000812F0E94971D8AC1A4E0AC1508F486C114
:1014000012C0AA2019F0CC2099F36BC1CC2059F05E
:10141000093309F078C1BFEFE7EEF3E0B150E040E7
:10142000F040E1F76EC1812F0E94901D6FC1812FA6
:10143000837009F069C0A1106DC1902F92959695A7
:101440009770990F990F802F8F70882E912CA12C57
:10145000B12C092E04C0880C991CAA1CBB1C0A9430
:10146000D2F704FF12C04FE050E060E070E004C02B
:10147000440F551F661F771F9A95D2F7DB01CA01EB
:1014800080959095A095B09503C080E090E0DC0138
:1014900016951695412F4370423019F1C8F400910A
:1014A0006702109168022091690230916A0241300E
:1014B00059F088299929AA29BB29BC01CD016023AB
:1014C0007123822393230AC0802A912AA22AB32A55
:1014D000BC01CD01682979298A299B290E945E1DBA
:1014E00019C188299929AA29BB290091670210915D
:1014F00068022091690230916A02BC01CD01602727
:10150000712782279327EACFAA2019F0812F8170B3
:1015100001C08695882309F4FDC0902F9295969579
:101520009770990F990F802F8F70882E912CA12C76
:10153000B12C092E04C0880C991CAA1CBB1C0A944F
:10154000D2F704FF12C04FE050E060E070E004C04A
:10155000440F551F661F771F9A95D2F7DB01CA010A
:1015600080959095A095B09503C080E090E0DC0157
:1015700016951695412F43704230D9F068F50091C9
:1015800035031091360320913703309138034130F1
:1015900059F088299929AA29BB29BC01CD016023CA
:1015A0007123822393231EC0802A912AA22AB32A60
:1015B00013C088299929AA29BB29009135031091C4
:1015C00036032091370330913803BC01CD016027E9
:1015D00071278227932706C0BC01CD01682979298C
:1015E0008A299B290E94CC1C95C01F70AA2039F023
:1015F000812F0E943D1D802F0E94971D8BC0802F40
:101600000E94901D812F0E94FB1C84C0802F22EF1E
:10161000921629F1291538F090EF991659F0A1EF9B
:101620009A16C1F059C0B3EF9B1601F1E4EF9E1674
:10163000A1F152C0AA2049F0F4E0FC1508F466C0FC
:10164000812F8F710E94DA1C61C025E02C1508F4EF
:101650005DC0F6CFAA2029F0812F8F7130C0AA205B
:10166000D9F3812F8F710E94FB1C50C0AA2079F002
:101670001F7181E090E0A0E0B0E0BC01CD0104C0AA
:10168000660F771F881F991F1A95D2F703C060E075
:1016900070E0CB010E94CC1C39C0AA2099F01F71C8
:1016A000812F0E943D1D80913A0382FD07C0A8E072
:1016B0001A9FC0011124836080930B03812F0E9425
:1016C0003D1D24C081E00E94201DB1E0BC15F0F456
:1016D00082E00E94201D1AC0AA2039F0CC2009F413
:1016E000BBCF802F0E941A1E11C0CC2009F4B9CFA5
:1016F000893349F4EFEFF7EE23E0E150F04020406A
:10170000E1F700C00000802F0E94A11D88EF8B0D23
:10171000843010F40E94D218DD20B1F080910B03C8
:1017200080FD12C0D70112961C92859585958595EE
:101730000E943D1DC7010E94050480910B03859501
:10174000859585950E94FB1C85E0F701DE011196C9
:1017500001900D928A95E1F789819A810E94751C0A
:10176000EA81F0E0B8E08B9FE00DF11D112483E0E9
:10177000EE0FFF1F8A95E1F78981E80FF11DEE0F4B
:10178000FF1FEF54FD4F85919491DAC0E059FF4F50
:101790000C94C92FF801E356FD45EE30F10508F031
:1017A000E3C9E258FF4F0C94C92F063F9CE5190787
:1017B00009F484CC08F48CCC073FBCE51B0709F482
:1017C00092CC1FCB69E2B6CC053CFCE51F0709F4BF
:1017D0007EC0063C2CE5120709F0D0CC42EA5CE260
:1017E0006BEA7CE291C00A3C9CE5190709F47EC0D3
:1017F00078F4083CBCE51B0709F473C0093CECE530
:101800001E0709F0BBCC46E95CE26AE87CE27CC0DA
:101810000B3CFCE51F0709F46EC00C3C2CE51207DD
:1018200009F0ACCC4CED5AE26DEE7AE26DC00F3CA3
:10183000ACE51A0709F46EC008F469C0003DECE598
:101840001E0709F46AC0013DFCE51F0709F096CCAC
:101850006EE089E06DC0033D9CE5190709F463C0A3
:10186000043DACE51A0709F089CC61E088E165C068
:101870008091AD0380FF20C08E7F8093AD03609187
:10188000AD037091AE038091AF039091B0030E94BD
:10189000CA2A0E94602780916D03816080936D0346
:1018A000FFEF20E782E0F15020408040E1F700C0E8
:1018B00000000E94492AB4CC81608093AD0361E0AE
:1018C00086953BC044EF5CE26DEF7CE21DC04DEFBE
:1018D0005CE264EF7CE218C04BEA5CE262EA7CE224
:1018E00013C04AE85CE266E97CE20EC042E75CE2D3
:1018F0006EE77CE209C04EE75CE262E77CE204C08E
:101900004DEE5AE26CED7AE20E945A2789CC61E0F2
:1019100081E013C065E082E00BC068E086E008C0AB
:1019200064E18FE005C067E185E102C062E289E120
:101930000E94482775CC61E083E20E94B42C70CCF1
:101940002A960FB6F894DEBF0FBECDBFDF91CF91C0
:101950001F910F91FF90EF90DF90CF90BF90AF90CD
:101960009F908F907F90089580E008959091390323
:1019700092FF0DC0282F2871283019F4877F8460CA
:1019800006C0282F2471243011F48B7F886093FFC8
:101990000DC0282F2871283119F4877E846106C074
:1019A000282F2471243111F48B7E886120913A0311
:1019B00020FF0DC0382F3871383019F4877F8160CF
:1019C00006C0382F3171313011F48E7F886021FFCD
:1019D0000DC0282F2871283119F4877E816106C037
:1019E000282F2171213111F48E7E886194FD877E2C
:1019F00008957F928F929F92AF92BF92CF92DF9283
:101A0000EF92FF920F931F93CF93DF931F92CDB767
:101A1000DEB7762E4A0159016801082F880F110B95
:101A2000C8010E94712E892B09F07EC08AE0809F38
:101A3000F001819FF00D1124EE5FFE4F458150E0D3
:101A40004115510511F041E050E08AE0809FF0011E
:101A5000819FF00D1124EE5FFE4F66817781635EFA
:101A60007C4FCE0101960E942630F40140815181C5
:101A7000628173812FB7F89480918C0290918D02CE
:101A8000A0918E02B0918F022FBF841B950BA60BE5
:101A9000B70B84369105A105B10540F4B701C60125
:101AA0000E9431279981891709F440C0072D770CCE
:101AB000110BC8010E94712E892B09F5E114F10464
:101AC00001F18AE0809FF001819FF00D1124EE5F0B
:101AD000FE4F458150E0E416F50608F4A7018AE0C0
:101AE000809FF001819FF00D1124EE5FFE4F668113
:101AF0007781635E7C4FC5010E94263002C010E0F2
:101B000001C011E0B701C6010E94312791E029818F
:101B1000281390E0192381F00E944A18F401608391
:101B200071838283938308C010E001C011E0A70194
:101B3000B601C5010E942630812F0F90DF91CF9111
:101B40001F910F91FF90EF90DF90CF90BF90AF90DB
:101B50009F908F907F90089580918502811118C089
:101B600088EC9091E30097FD0AC0EFE3FCE9319720
:101B7000F1F700C000008150A1F782E001C081E0D0
:101B800080938502823021F40E94721710929D0288
:101B900081E090918502913009F080E00895F894F9
:101BA000E82FE295EF70F0E031A1282F2F7081E04F
:101BB00090E001C0880F2A95EAF7982F909593231B
:101BC00091A392A1892B82A378940895CF93DF9358
:101BD0008238910569F1B0F48133910509F46FC041
:101BE00048F48932910509F465C08A32910509F4F7
:101BF0006BC06FC08533910509F457C089339105D7
:101C0000B9F067C0833E910571F138F4803E9105CB
:101C1000B1F0823E910511F15CC0863E9105B9F1AB
:101C2000873E9105C9F1843E910509F052C024C058
:101C30002091390320FD2AC121FD28C14AC080918D
:101C4000390380FD1DC180913A0380FF1FC180913F
:101C5000390384FD12C183EE90E02CC180913903D9
:101C600082FF11C1F4CF8091390382FD0CC18091B4
:101C70003A0380FD0BC1EBCF80913A0381FF0CC189
:101C80008091390384FDF9C087EE90E013C1809103
:101C9000390383FFFEC0F4CF8091390383FDF9C07F
:101CA00080913A0381FDF8C0EBCF8091390385FD27
:101CB000F6C0F8C08091390385FDF4C0F0C0809172
:101CC000390386FDF2C0F4C08091390386FDF0C06F
:101CD000ECC0811523E59207A8F5811532E593073D
:101CE00008F099C0811540E29407D0F4811521E0F5
:101CF000920708F0DFC0853A910550F484309105D1
:101D000008F0D8C0019709F0B8C081E090E0D2C0D7
:101D10009C01205E31092830310508F0AEC0CAC0F0
:101D2000811531E5930708F071C0811540E59407EE
:101D300008F04EC0811520E4920708F49EC09F7001
:101D4000906AB8C0EC01811536E59307F0F481156F
:101D500045E5940708F078C0C11584E5D80708F078
:101D60006EC09E012370332781E090E002C0880F8F
:101D7000991F2A95E2F7C695C69520E2C29FE00119
:101D800011248C2B9D2B9A6895C081152AE592070A
:101D900078F4811539E5930708F05EC0811548E5B0
:101DA000940708F46AC0982F8827806F906A82C0D1
:101DB00090568115904208F060C08D2F8F710E945F
:101DC000B60C282F2F71CE0199279062922B72C0EA
:101DD0009C0174E0369527957A95E1F7922F9370E0
:101DE000482F437021E030E002C0220F331F4A9594
:101DF000E2F73C68392B8F70982F9695969540E2C4
:101E0000949FC0011124822B932B54C0982F8827B4
:101E1000816F906A4FC0AC014370552721E030E0DC
:101E200002C0220F331F4A95E2F78695869540E25D
:101E3000849FC0011124822B932B9C683BC09C2F54
:101E40008827846F906A36C00E94B60C8F7190E02C
:101E5000982F882790622EC08F700E94B60C94E055
:101E6000D695C7959A95E1F7CF70D0E0DC2FCC27B7
:101E7000D0699E01282BC9011DC080E090E01AC0E6
:101E800089E390E017C082EE90E014C080EE90E00D
:101E900011C086EE90E00EC084EE90E00BC089E2A7
:101EA00090E008C085E390E005C08AE290E002C0BF
:101EB00081E390E0DF91CF9108950C944A18CF937D
:101EC00084E090E00E94292FC82F82E290E00E94D7
:101ED000292F2C2F30E0A901582BCA01CF9108954A
:101EE00069EE7EEF80E090E00E945B2F60E082E090
:101EF00090E00E943D2F60E083E090E00E943D2F43
:101F000010926702109268021092690210926A029F
:101F100060E084E090E00E943D2F60E082E290E08B
:101F20000E943D2F60E085E090E00E943D2F60E040
:101F300086E090E00E943D2F6FEF87E090E00E94E6
:101F40003D2F40E050E0BA0188E090E00E944F2F22
:101F500060E08DE090E00E943D2F40E050E0BA014B
:101F600088E190E00E944F2F60E087E190E00E94BE
:101F70003D2F40E050E0BA018CE190E00E944F2FED
:101F800060E070E080E290E00E945B2F40E050E073
:101F9000BA0188E190E00E944F2F40E050E0BA0182
:101FA0008FE090E00E944F2F40E050E0BA0183E1C3
:101FB00090E00C944F2F809166028111109266027E
:101FC000089580959091B80389238093B80308956C
:101FD0009091B8038091B703892B20916502982FC7
:101FE000922B90935D0280916602882389F0892B61
:101FF00080935D02EFE5F2E097E080E0915029F0F8
:1020000021912223D9F38F5FF9CF81110E94DB0F39
:10201000E0918602F0918702309731F00280F381DF
:10202000E02D8DE592E009940895CF93C0913A0395
:10203000C2FB992790F9981781F080FBC2F9C093F1
:102040003A036091390384E090E00E943D2F6C2FA9
:1020500082E290E0CF910C943D2FCF9108958F9222
:102060009F92AF92BF92CF92DF92EF92FF920F9327
:102070001F93CF93DF93CDB7DEB72C970FB6F894AD
:10208000DEBF0FBECDBF9E012F5F3F4F790188E0BD
:10209000F90111928A95E9F702E112E05901CC2485
:1020A000C394D12CF80180818F3F09F447C0F89484
:1020B000E82FE295EF70F0E021A18F70A60102C039
:1020C000440F551F8A95E2F7CA01922F982B91A3CE
:1020D00092A18095892382A3789400C0EAE1F2E07E
:1020E00020E030E0912C41914F3FB1F0A42FA29518
:1020F000AF70B0E090968C9190E04F7002C09595D3
:1021000087954A95E2F780FD07C08C2D022E01C00D
:10211000880F0A94EAF701C080E0982A2F5F3F4FAA
:102120002830310501F7F80180818F3F11F00E94BE
:10213000CF0DF0EAFA95F1F7F50190820F5F1F4F8E
:10214000FFEFAF1ABF0A22E00631120709F0AACF4B
:1021500048E050E0B7018FE393E00E9419308C0112
:10216000892B41F088E0F701AFE3B3E001900D92D5
:102170008A95E1F7F09048030115110549F081E0D7
:1021800080936D020E94561890936C0280936B02AC
:1021900080916D028823B9F080916B0290916C025E
:1021A0000E943B18059778F0AFE3B3E0EF2DF0E025
:1021B000E55BFC4F83E493E02D9121938A179B0705
:1021C000D9F710926D020115110509F043C20E9462
:1021D000AC0DE0914803882309F493C119861A864F
:1021E0001B861C860E2F10E0055B1C4F809134036C
:1021F000AE01435F5F4F7A018A3058F446ED5FE1EC
:10220000BE01675F7F4FC8010E943D23882361F1B3
:102210000AC080916E0290916F020E943B18843F29
:10222000914060F732C040E85FE1BE01675F7F4FD9
:10223000C8010E943D238823B9F046E25FE1BE0158
:10224000675F7F4FC8010E943D23882369F04AEBF6
:102250005EE1BE01675F7F4FC8010E943D23882376
:1022600019F01092340319C0809134038F3F19F094
:102270008F5F80933403809134038A3070F00E9422
:10228000561890936F0280936E02E0914703F0E03E
:10229000E55BFC4FDE01199614C0E0914703F0E0C6
:1022A000E55BFC4FDE011996D12C8D91908198173A
:1022B00019F08083DD24D3943196AE15BF05A9F7BC
:1022C00007C011921D92EA16FB06D9F7DD24D394BC
:1022D000809100018F3F49F1C12C96E1B92E1BC0BE
:1022E000BE9CF001BF9CF00D1124EE58FE4F828879
:1022F00093888114910419F48FEA882E912CBE9C46
:102300008001BF9C100D11240E581E4FF8018681CC
:10231000811110C0C394EC2CF12C80910001082E87
:10232000000C990B8E159F05DCF6809172028823B4
:1023300039F118C0858596850E943B188816990644
:1023400048F7F8018189811103C0C8010E94522613
:10235000BE9CC001BF9C900D112488589E4F0E94C6
:102360007326D8CF80917002909171020E943B1821
:10237000833E944028F080EE0E94A11D10927202CC
:1023800080918002882309F4BAC080917F0288235B
:1023900009F4B5C080917D0290917E020E943B18A5
:1023A0008D32914008F4ABC010928002809173028C
:1023B000909174020F97D9F48091750290917602F2
:1023C000892BA9F48091770290917802892B79F476
:1023D0008091790290917A02892B49F480917B0255
:1023E00090917C02892B19F483E00E94DA1C809181
:1023F0007302909174024097E1F48091750290917C
:1024000076024797B1F48091770290917802892BF8
:1024100081F48091790290917A02892B51F4809114
:102420007B0290917C02892B21F483E092E00E9450
:102430005D2980917302909174024097E1F480913C
:102440007502909176024697B1F48091770290914F
:102450007802892B81F48091790290917A02892BFC
:1024600051F480917B0290917C02892B21F484EEBF
:1024700091E00E945D2980917302909174024097CF
:10248000E1F480917502909176024597B1F48091C4
:10249000770290917802892B81F480917902909152
:1024A0007A02892B51F480917B0290917C02892BD6
:1024B00021F481EC91E00E945D298091730290915A
:1024C00074024097E1F4809175029091760204972E
:1024D000B1F48091770290917802892B81F48091F8
:1024E000790290917A02892B51F480917B0290912C
:1024F0007C02892B21F488E491E00E945D290D2D56
:10250000ABC0F0E0E55BFC4FF89484E0AEE1B3E0F3
:1025100001900D928A95E1F764E070E08EE193E01E
:102520000E94312780931D037894F894E091590319
:10253000F0E0EA5AFC4F808189878093230361E0B1
:1025400070E0CE0109960E9431278093220378948F
:10255000F894C0902403D0902503E0902603F090D7
:1025600027038091810290918202A0918302B09111
:102570008402C816D906EA06FB06D1F0C092810291
:10258000D0928202E0928302F09284020E94AC0D0B
:1025900081110EC00E944A18C61AD70AE80AF90A21
:1025A000C0928802D0928902E0928A02F0928B0255
:1025B0007894F89480912F03882309F449C080FF10
:1025C00024C0909128038091AD0390FF09C08160E1
:1025D0008093AD0360E0892F86950E94B42C15C0CE
:1025E0008E7F8093AD030E94602780916D03816090
:1025F00080936D033FEF40E752E031504040504040
:10260000E1F700C000000E94492A80912F0381FF5A
:1026100009C020E040912B0360912A038091290397
:102620000E94C92B80912F0382FF09C080912E0345
:10263000882319F00E94672702C00E9460278091BA
:102640002F0383FF03C081E08093680310922F0360
:10265000789402C001E010E0802F2C960FB6F89419
:10266000DEBF0FBECDBFDF91CF911F910F91FF90C5
:10267000EF90DF90CF90BF90AF909F908F90089594
:10268000982F973068F59093E900981739F050919A
:10269000EC002091ED004091F00003C0562F40E087
:1026A00022E021FD02C09F5FECCF3091EB003E7F26
:1026B0003093EB003091ED003D7F3093ED00309191
:1026C000EB0031603093EB005093EC002093ED0071
:1026D0004093F0002091EE0027FDE5CF80E00895C3
:1026E0008F708093E90081E008952091E40030919B
:1026F000E50095E64091EC00842F817040FF23C0F7
:102700008091E80080FD1DC080919D02882399F092
:10271000853099F08091EB0085FD11C04091E40077
:102720005091E5002417350729F3915011F09A01D3
:10273000E1CF84E0089582E0089583E0089581E088
:10274000089580E008954091E80042FFDDCF0895AC
:102750000F931F93CF93DF938C010E947513811108
:1027600018C0E80108E010E08091E80085FD0AC08B
:102770008091E8008E778093E8000E94751388238B
:1027800099F307C089918093F1000150110961F715
:1027900080E0DF91CF911F910F91089580919F026A
:1027A00087FF11C08091E80082FD05C080919D02E5
:1027B0008111F8CF11C08091E8008B770BC0809118
:1027C0009D02882349F08091E80080FFF8CF809136
:1027D000E8008E778093E80008952091A50230915B
:1027E000A6022617370748F06115710539F42091C4
:1027F000E8002E772093E80001C0B901FC0120E039
:102800006115710579F180919D028823F1F1853080
:10281000F1F18091E80083FD3CC08091E80082FDE9
:102820002EC08091E80080FFEBCF2091F3008091D3
:10283000F20090E0922B6115710551F088309105FE
:1028400038F421912093F100615071090196F3CF82
:1028500021E0089709F020E08091E8008E778093CE
:10286000E800CECF2111CFCF0AC080919D028823EE
:1028700061F0853061F08091E80083FD0AC08091AD
:10288000E80082FFF2CF80E0089582E0089583E0BF
:10289000089581E008950895089508958091920221
:1028A0000895CF93DF9321E02093E9002FEF30913B
:1028B000E800215035FD06C035ED3A95F1F70000EE
:1028C0002111F5CF2091E80025FF14C0EC0140E074
:1028D00050E068E070E00E94A8138091E8008E77D5
:1028E0008093E80088E0FE01A3E9B2E001900D9238
:1028F0008A95E1F7DF91CF9108951F93CF93DF93EE
:10290000CDB7DEB7AA970FB6F894DEBF0FBECDBF26
:10291000EFE9F2E08091F100819322E0E73AF207DB
:10292000C9F78091A002833009F460C030F481308F
:1029300071F0823009F49AC0B1C08A3009F486C0BF
:102940008B3009F46BC0893009F0A8C020C0809199
:102950009F02813A09F0A2C08091E800877F8093AE
:10296000E8008091A3029091A402892B21F468E0F1
:1029700083E992E003C060E080E090E070E00E94B4
:10298000ED138091E8008B778093E80087C08091F9
:102990009F02813209F082C08091A3029091A4022B
:1029A000892B09F07BC08091E800877F8093E80045
:1029B0008091E80082FD05C080919D028111F8CFD1
:1029C0006DC02091F3008091F20090E0922B02976D
:1029D00029F48091F1008B7F813021F48091F10006
:1029E000809392028091E8008B7754C080919F027F
:1029F000813A09F053C08091A3029091A402892BDF
:102A000009F04CC08091E800877F8093E8008091B6
:102A1000E80080FFFCCF8091010137C080919F02C8
:102A20008132E1F58091A3029091A402892BB1F546
:102A30008091E800877F8093E8000E94CE13809108
:102A4000A102809301010E946C1D28C080919F0209
:102A5000813221F58091E800877F8093E8000E9411
:102A6000CE138091A2028093910218C080919F02A0
:102A7000813AA1F48091E800877F8093E8008091FB
:102A8000E80080FFFCCF809191028093F10080915B
:102A9000E8008E778093E8000E94CE138091E800D2
:102AA00083FFB4C180919F029091A002492F50E012
:102AB0004A30510508F0AAC1FA01E457FF4F0C94BF
:102AC000C92F803821F0823809F0A0C108C0809158
:102AD0009B0290919C02992389F082600FC08091A3
:102AE000A3028F70873008F091C18093E900809134
:102AF000EB0085FB882780F91092E9009091E800AF
:102B0000977F9093E8008093F1001092F10053C1F9
:102B1000282F2D7F09F07AC1882319F0823061F0C7
:102B200075C18091A102813009F070C1933009F024
:102B300080E080939C022EC08091A10281112AC066
:102B40008091A3028F702FEF280F263008F05EC10E
:102B50008093E9002091EB0020FF1CC0933021F40A
:102B60008091EB00806214C09091EB009061909393
:102B7000EB0021E030E0A90102C0440F551F8A9507
:102B8000E2F74093EA001092EA008091EB0088603F
:102B90008093EB001092E9008091E800877F0EC1DE
:102BA000811134C11091A1021F778091E3008078D8
:102BB000812B8093E3008091E800877F8093E80079
:102BC0000E94CE138091E80080FFFCCF8091E3004B
:102BD00080688093E300111102C082E001C083E0AD
:102BE00080939D0213C18058823008F00FC18091FC
:102BF000A1029091A2028C3D53E0950779F583E004
:102C00008A838AE289834FB7F894DE01139620E025
:102C10003EE051E2E32FF0E050935700E49120FFB3
:102C200003C0E295EF703F5FEF708E2F90E0EA30C7
:102C300010F0C79601C0C0968D939D932F5F2431ED
:102C400049F74FBF8091E800877F8093E8006AE2F0
:102C500070E0CE0101960E94ED139CC04091A3024A
:102C60005091A402292F332723303105A9F068F4AD
:102C70002130310509F4D9C02230310509F0C6C030
:102C800082E290E0E9E5F2E032C02132310521F143
:102C90002232310529F1BAC0992781309105A1F07E
:102CA00058F0029709F0B2C0EDE8F2E0E4918E2FFF
:102CB00090E0EDE8F2E018C0EDEAF2E0E4918E2F4A
:102CC00090E0EDEAF2E010C0EBE9F2E0E4918E2F43
:102CD00090E0EBE9F2E008C0452B09F4ABC096C0E8
:102CE000452B09F4ACC092C0009709F48FC0209125
:102CF000E800277F2093E8002091A5023091A602EA
:102D00008217930708F49C0140E02115310589F1F1
:102D100080919D02882309F43DC08530D9F18091CE
:102D2000E80083FD37C08091E80082FD2FC08091CC
:102D3000E80080FFEACF4091F3008091F20090E03C
:102D4000942B2115310559F08830910540F44491B8
:102D50004093F1003196215031090196F2CF41E0C4
:102D6000089709F040E08091E8008E778093E800B2
:102D7000CCCF4111CDCF0AC080919D02882351F064
:102D8000853041F08091E80083FD04C08091E80027
:102D900082FFF2CF8091E8008B778093E80036C005
:102DA0008038A1F58091E800877F8093E8008091CA
:102DB0009E028093F1008091E8008E778093E80076
:102DC0000E94CE1323C0811121C08091A102909155
:102DD000A20299270297D4F48091E800877F80931C
:102DE000E8001091A10210939E020E94CE131111CF
:102DF00006C08091E30087FD02C081E001C084E04D
:102E000080939D0261EC81E00E9440138091E80074
:102E100083FF1AC08091E800877F8093E80080914B
:102E2000EB0080628093EB000FC082E190E0EBE763
:102E3000F2E05DCF89E090E0EBE6F2E058CF80E48D
:102E400090E0E9E1F2E053CFAA960FB6F894DEBF26
:102E50000FBECDBFDF91CF911F9108951F920F92AA
:102E60000FB60F9211242F933F934F935F936F935D
:102E70007F938F939F93AF93BF93CF93DF93EF9302
:102E8000FF93C091E900CF708091EC00D82FD170F2
:102E900080FDD0E81092E9008091F000877F809358
:102EA000F00078940E947D141092E9008091F00067
:102EB00088608093F000CD2BCF70C093E900FF9124
:102EC000EF91DF91CF91BF91AF919F918F917F91C2
:102ED0006F915F914F913F912F910F900FBE0F9087
:102EE0001F901895E8EDF0E080818E7F808310922E
:102EF000E2001092DA001092E100A0EEB0E08C91B6
:102F000081608C9380818F77808319BCA7EDB0E0BE
:102F10008C918E7F8C9380818F7E80831092900223
:102F20000895CF92DF92EF92FF920F931F93CF936A
:102F3000DF93C8EDD0E088818F7E8883E7EDF0E0F5
:102F400080818160808384E082BF81E080939002F1
:102F500088818E7F888302EE10E0F8011082109243
:102F6000DA0081EEC82ED12CF601108288818F778D
:102F7000888388818068888388818F7D888319BC55
:102F800010929D0210929E0210929C0210929B023F
:102F900090EEE92EF12CF70180818B7F8083888170
:102FA0008160888360E080E00E944013F6018081A8
:102FB0008E7F8083F801808181608083808188603A
:102FC0008083F70180818E7F808388818061888300
:102FD000DF91CF911F910F91FF90EF90DF90CF90F5
:102FE000089581E08093E00080E28093D800109201
:102FF000C9008FE19EE40197F1F700C0000087E06F
:1030000090EBDC018093B9039093BA03A093BB03C8
:10301000B093BC039CE088E10FB6F894A895809328
:1030200060000FBE90936000FFCF78941F920F92C4
:103030000FB60F9211248F939F93AF93BF938091FC
:103040008C0290918D02A0918E02B0918F02019618
:10305000A11DB11D80938C0290938D02A0938E02CE
:10306000B0938F02BF91AF919F918F910F900FBE40
:103070000F901F9018959C014FB7F89480918C0287
:1030800090918D02A0918E02B0918F024FBF821B52
:10309000930B08952FB7F89460918C0270918D0274
:1030A00080918E0290918F022FBF08952FB7F894D0
:1030B00080918C0290918D02A0918E02B0918F022E
:1030C0002FBF08951F920F920FB60F9211248F9366
:1030D0009F93AF93BF9380918C0290918D02A091AA
:1030E0008E02B0918F024196A11DB11D80938C027A
:1030F00090938D02A0938E02B0938F02BF91AF91F7
:103100009F918F910F900FBE0F901F9018950F9366
:103110001F930E94AC0D882321F01F910F910C94F6
:103120004A180E944A180091880210918902209141
:103130008A0230918B02600F711F821F931F1F91B3
:103140000F9108950E94AC0D81110C9456180E94A5
:103150008718CB0108959C012A5F3F4FFC014281F3
:10316000461301C01282019682179307B9F708959A
:103170009C01FC0132969FEF80E04191461789F057
:103180009F3F19F4411101C0982F8F5F8630A9F736
:103190009F3F39F0F901E90FF11D97FDFA95628320
:1031A000089508950E94AC0D882351F0E0918602A5
:1031B000F0918702309721F00190F081E02D099481
:1031C00080E008951F920F920FB60F9211242F9353
:1031D0003F934F935F936F937F938F939F93AF939F
:1031E000BF93EF93FF938091E10082FF09C080912C
:1031F000E20082FF05C08091E1008B7F8093E100B7
:103200008091DA0080FF2AC08091D80080FF26C01C
:103210008091DA008E7F8093DA008091D90080FF60
:1032200018C080E189BD82E189BD09B400FEFDCFEF
:1032300081E080939D028091900281110FC00E94D5
:1032400072170E9491178091E20084608093E200DF
:1032500005C019BC10929D02109290028091E1006D
:1032600080FF17C08091E20080FF13C08091E200D0
:103270008E7F8093E2008091E20080618093E20083
:103280008091D80080628093D80019BC85E080933B
:103290009D028091E10084FF32C08091E20084FFB2
:1032A0002EC080E189BD82E189BD09B400FEFDCF59
:1032B0008091D8008F7D8093D8008091E1008F7E2F
:1032C0008093E1008091E2008F7E8093E200809104
:1032D000E20081608093E20080919E02882311F0D9
:1032E00084E007C08091E30087FD02C081E001C057
:1032F00083E080939D020E946C1D0E94D2188091F1
:10330000E10083FF26C08091E20083FF22C080910C
:10331000E100877F8093E10082E080939D0210921C
:103320009E028091E1008E7F8093E1008091E20017
:103330008E7F8093E2008091E20080618093E200C2
:1033400060E080E00E9440138091F00088608093EC
:10335000F000FF91EF91BF91AF919F918F917F917D
:103360006F915F914F913F912F910F900FBE0F90F2
:103370001F90189580910A039091D902891719F02E
:103380008F5F8770FBCF08950F931F93CF93DF93C9
:103390008091D80282958F7009F05DC08091D5022E
:1033A000882309F458C080910A031091D9026091D2
:1033B000D3027091D402C091D602D091D70291E08D
:1033C0006F3F09F090E0292F06E0811709F443C010
:1033D000209721F07F3F21F030E003C031E001C0B1
:1033E000322F90E030FD34C0089FF001099FF00DAE
:1033F0001124DF01A652BD4F11963C91119737134E
:1034000027C03C91361324C012963C91129731117B
:103410001FC013964D915C9114974C1B5D0B4F3A56
:103420005105B0F48091D8028F7080618093D802EA
:10343000E152FD4F80818F708061808383ED92E047
:103440000E940504DF91CF911F910F910C94BA193E
:1034500001968770BACFDF91CF911F910F91089598
:103460008F929F92AF92BF92EF92FF920F931F9312
:10347000CF93DF938090350390903603A09037036D
:10348000B0903803409167025091680260916902E0
:1034900070916A02842A952AA62AB72ACFE1D0E041
:1034A000E92EF12C082F10E0D501C4010C2E04C028
:1034B000B695A795979587950A94D2F780FD04C095
:1034C000219790F780E01AC0FE0183E0EE0FFF1F06
:1034D0008A95E1F7EE0DFF1D93E0EE0FFF1F9A9521
:1034E000E1F7E00FF11FEE0FFF1FEF54FD4F859145
:1034F00094910E94E60D019719F38C2FDF91CF91E3
:103500001F910F91FF90EF90BF90AF909F908F9081
:103510000895CF93DF93D82FC92F0E94301AEC2F34
:10352000F0E098E0899FE00DF11D112483E0EE0F9B
:10353000FF1F8A95E1F7ED0FF11DEE0FFF1FEF540E
:10354000FD4F859194910E94E60DDF91CF910895F2
:10355000FC01808191810E94891A292F2F70E92F07
:10356000E295EF704E2F50E0FA013297EE30F10500
:10357000B8F4EA56FF4F0C94C92F803F99F018F425
:10358000883E70F40FC0843F59F40CC0883E50F060
:10359000813F31F407C0822F8695869586950895E0
:1035A00080E0089581E008959F92AF92BF92CF92FC
:1035B000DF92EF92FF920F931F93CF93DF93CDB7DC
:1035C000DEB761970FB6F894DEBF0FBECDBF8C019A
:1035D00085E0F801DE011D9601900D928A95E1F7D4
:1035E000F801E2809091D3026091D4024091D6021A
:1035F0005091D7024115510531F06F3F31F481E010
:103600009F3F19F403C081E001C080E0F82FF17002
:103610009F2E80FD1AC1F80130812181C380D480A2
:1036200083EDA82E82E0B82EF090D502F601E41BBF
:10363000F50BFF2009F4C6C08091D802EF3AF105DE
:1036400008F091C0482F407F09F050C0621311C0AC
:1036500093130FC0FE2CE1100CC08F70806180931B
:10366000D802C5010E9405048091D802F801858323
:1036700029C1CD2831F02F3F31F481E03F3F19F4CB
:1036800003C081E001C080E080FD03C081E08E25A1
:1036900002C080E090E0F82FF170FF2E80FF1CC088
:1036A00080910A034091D90256E0841709F4E8C0DA
:1036B00090E0589FF001599FF00D1124E652FD4F04
:1036C0006181261306C06081631303C06281E61224
:1036D00003C001968770E9CFFE2CEE2009F4F2C0FA
:1036E0008091D80281608093D80249C0621306C0DD
:1036F000931304C0E11002C0F80186C0C8010E9403
:10370000A81A882351F1EE2041F12091D802822F8E
:1037100082958F7090E0029774F08091D30290911F
:10372000D40298878F831986DB86CA862C87CE01C0
:1037300007960E94050486E0F801A3EDB2E001902F
:103740000D928A95E1F70E94C4190AC06217C9F068
:10375000C8010E94A81A81111EC0C8010E94050458
:10376000FF24F394AFC0482F407F81F783ED92E0B0
:103770000E94050486E0F50111928A95E9F7F12C83
:10378000A1C09313E5CFE110E3CFF8018583C80111
:103790000E94050454C0EE2001F32091D802822F2C
:1037A00082958F7090E0029734F28091D3029091CD
:1037B000D4029A8389831B82DD82CC822E83CE0140
:1037C0000196B7CFEF3AF105D0F5FE2CEE2029F2A5
:1037D000621327C0931325C02091D80220FD18C082
:1037E000822F82958F70482F50E04115510581F04E
:1037F000F80125834F30510541F08F5F982F929546
:10380000907F822F8F70892B8583C8010E940504C9
:1038100086E0F801A3EDB2E001900D928A95E1F700
:1038200051C0C8010E94A81A811185CF8091D80289
:1038300081608093D802C8010E94050443C086E0DD
:10384000F50111928A95E9F73DC0EE2009F485CF84
:10385000C8010E94A81AF82E882309F47ECF86E0BA
:10386000F801A3EDB2E001900D928A95E1F7809105
:10387000D3029091D4020E94891A0E94C41922C0D6
:103880003D872E878D859E850E94891A292F229536
:103890002F70223028F49F7039F0811105C00BC0C1
:1038A000243028F49F7049F4805E883020F0C801ED
:1038B0000E9405049F2CF92C05C0F8019581907F8A
:1038C00099F7F9CF8F2D61960FB6F894DEBF0FBE32
:1038D000CDBFDF91CF911F910F91FF90EF90DF90BF
:1038E000CF90BF90AF909F90089528E0929F800D59
:1038F0001124682F669566956695982F977085E0D8
:10390000689FB001112440E050E080E0FB01E40F2B
:10391000F51FE555FD4F208130E0092E02C0369598
:1039200027950A94E2F721703327042E01C0220F55
:103930000A94EAF7822B4F5F5F4F4530510531F70C
:10394000089528E0929F800D1124E82FE695E695D2
:10395000E695877051E001C0550F8A95EAF785E03A
:10396000E89FF0011124E555FD4F20E030E070E0C4
:103970004081CB01022E02C0969587950A94E2F70A
:103980008170819584278523842781932F5F3F4F02
:103990002530310569F70895609335037093360338
:1039A00080933703909338031092B7031092650207
:1039B0000C94E80F0F931F9341E050E060E070E03B
:1039C00004C0440F551F661F771F8A95D2F7809158
:1039D000350390913603A0913703B09138038A01E3
:1039E0009B01082719272A273B27C901B8011F91E6
:1039F0000F910C94CC1C0F931F9341E050E060E0BA
:103A000070E004C0440F551F661F771F8A95D2F7D8
:103A1000409550956095709580913503909136034F
:103A2000A0913703B09138038A019B010823192321
:103A30002A233B23C901B8011F910F910C94CC1C80
:103A400020910B038095822380930B03982F97700E
:103A500041F430E0482F082E000C550B2417350791
:103A600021F490913A0392FF07C08595859585953D
:103A70000E94FB1C10920B0308950F931F9341E0CB
:103A800050E060E070E004C0440F551F661F771FD0
:103A90008A95D2F78091350390913603A091370330
:103AA000B09138038A019B01082B192B2A2B3B2B41
:103AB000C901B8011F910F910C94CC1C609367024F
:103AC000709368028093690290936A021092B70320
:103AD000109265020C94E80F1092B80386E0EFE5AF
:103AE000F2E0DF011D928A95E9F71092B703109278
:103AF00065020C94E80F882341F080959091B703FC
:103B000089238093B7030C94E80F0895882339F034
:103B10009091B703892B8093B7030C94E80F089515
:103B2000882321F00E94E10F0C94E80F0895882368
:103B300039F09091B803892B8093B8030C94E80F67
:103B40000895882309F475C0682F823869F40E94AB
:103B5000D21881FF6EC069E38DE592E00E94B8182B
:103B60000E94E80F69E30EC0833891F40E94D218D6
:103B700080FF5FC063E58DE592E00E94B8180E9467
:103B8000E80F63E58DE592E00E94AB180C94E80F16
:103B9000843869F40E94D21882FF4BC067E48DE537
:103BA00092E00E94B8180E94E80F67E4EBCF8CEF18
:103BB000860F813A38F380E2860F883048F46770C8
:103BC00081E001C0880F6A95EAF70E94E10FDECF1D
:103BD0008BE5860F8330A0F48091A7029091A80214
:103BE000892B39F11092A8021092A702E091860267
:103BF000F09187023097E9F00680F781E02D16C03A
:103C0000685A6731B0F48091A9029091AA02892B79
:103C100081F01092AA021092A902E0918602F0911E
:103C20008702309731F00084F185E02D80E090E04C
:103C300009940895CF93882309F47CC0C82F823853
:103C4000B1F40E94D21881FD75C069E38DE592E060
:103C50000E94B8180E94E80F2FEF81EE94E02150E7
:103C600080409040E1F700C0000069E317C083384E
:103C7000D1F40E94D21880FD5DC063E58DE592E02D
:103C80000E94B8180E94E80F2FEF81EE94E02150B7
:103C900080409040E1F700C0000063E58DE592E0D0
:103CA0000E94AB183CC08438B1F40E94D21882FD47
:103CB00041C067E48DE592E00E94B8180E94E80FC9
:103CC0002FEF81EE94E0215080409040E1F700C05A
:103CD000000067E4E3CF8CEF8C0F813A80F4EFE5CE
:103CE000F2E085E692E02191C217E1F08E179F077E
:103CF000D1F76C2F8DE592E00E94B81810C080E2D9
:103D00008C0F8830B8F4C77081E090E001C0880F54
:103D1000CA95EAF79091B803892B8093B803CF91A5
:103D20000C94E80F6C2F8DE592E00E94AB180E9476
:103D3000E80FDFCFCF9108951F93CF93DF93182F14
:103D4000893319F0C0E0D0E002C0C0E5D0E0812F97
:103D50000E941A1E209741F08FE99FE00197F1F72A
:103D600000C000002197F6CF812FDF91CF911F91E6
:103D70000C94A11DCF93DF93CDB7DEB728970FB674
:103D8000F894DEBF0FBECDBF85E0EDEAF3E0DE01C3
:103D9000119601900D928A95E1F780916B039091B5
:103DA0006C03A0916D038E839F83A8872885409123
:103DB00030035091310360913203709133033FB768
:103DC000F89480918C0290918D02A0918E02B09116
:103DD0008F023FBF841B950BA60BB70B8436910552
:103DE000A105B10510F4222329F1809137019091AA
:103DF0003801835E9C4F4091360150E049305105B7
:103E000010F048E050E0BE016F5F7F4F0E94263007
:103E100085E090E00E94712E892B11F080E00DC0AA
:103E20000E944A18609330037093310380933203E9
:103E30009093330310926D0381E028960FB6F894A7
:103E4000DEBF0FBECDBFDF91CF910895CF93DF933B
:103E500000D000D0CDB7DEB74091190350911A03BE
:103E600060911B0370911C032FB7F89480918C0212
:103E700090918D02A0918E02B0918F022FBF841B72
:103E8000950BA60BB70B84369105A105B10580F102
:103E90000E948718DC01CB010296A11DB11D898308
:103EA0009A83AB83BC8380912D0190912E01835E18
:103EB0009C4F40912C0150E04530510510F044E0FA
:103EC00050E0BE016F5F7F4F0E94263084E090E09B
:103ED0000E94712E892B11F080E00BC00E944A18BD
:103EE0006093190370931A0380931B0390931C0330
:103EF00081E00F900F900F900F90DF91CF91089578
:103F0000CF92DF92EF92FF920F931F93CF93DF93A5
:103F10001F92CDB7DEB7EE24E394F12C03E213E059
:103F20009E012F5F3F4F45E153E063E082E00E9436
:103F3000F90CC82E882379F1D0904A038D2D90E09A
:103F40009C012A5A3C4F79011981F9018081181B83
:103F5000012F80E010165CF40150F70180818F5F23
:103F6000808360E08D2D0E94EF2981E0F3CF912FB7
:103F700017FD90E0191B112359F01F5FF701808195
:103F80008150808361E08D2D0E94EF2981E0F3CF85
:103F900081110E945D0F8C2D0F90DF91CF911F91A9
:103FA0000F91FF90EF90DF90CF900895CF92DF9226
:103FB000EF92FF920F931F93CF93DF9300D000D027
:103FC000CDB7DEB76B0184E0E82EF12C0EE113E0F3
:103FD0009E012F5F3F4F41E153E061E080E00E948E
:103FE000F90C882361F049815A816B817C8140936F
:103FF0000D0350930E0360930F03709310034091D1
:104000000D0350910E0360910F0370911003F601A0
:1040100040835183628373830F900F900F900F90B2
:10402000DF91CF911F910F91FF90EF90DF90CF9094
:104030000895CF93DF93CDB7DEB72A970FB6F894E4
:10404000DEBF0FBECDBF84B7877F84BF0FB6F894A5
:10405000A895809160008861809360001092600054
:104060000FBE90E080E80FB6F894809361009093C3
:1040700061000FBE85B7806885BF85B7806885BF42
:1040800084EB9CE090935902809358020E9472172F
:104090000E9491178091E20084608093E2007894FE
:1040A00080919D028823A1F01091E9001F709091EA
:1040B000EC00892F817090FD80E8182B1092E900A8
:1040C0008091E80083FD0E947D141F701093E90029
:1040D00082E084BD93E095BD9AEF97BD80936E001A
:1040E000109288021092890210928A0210928B021A
:1040F0000E94AC0D80933E0180913E01882321F007
:1041000010926D018AE003C08AE080936D01809374
:104110006E010E94AC0D81110E94642D80913E01C0
:1041200080913E01811102C094E001C090E0909323
:10413000480384E0891B8093470302E112E0B6E163
:10414000EB2EB2E0FB2EF80181918F018F3F11F031
:104150000E94CF0DE016F106B1F70AE112E0A2E2EB
:10416000EA2EA2E0FA2EF80181918F018F3F11F023
:104170000E94CF0DE016F106B1F7EFE3F3E087E41C
:1041800093E0ABE4B3E011921D928E179F07D9F72D
:1041900080E090E00E94372F893E9E4F11F00E94F0
:1041A000700F82E090E00E94292F80935C030E94B0
:1041B0005F0F90933A03809339030E942F108FE38F
:1041C0009CE90197F1F700C000000E942F10809138
:1041D0004B0380FF08C06FEF7FEF80E090E00E940C
:1041E0005B2F0E94F11783E090E00E94292F682F37
:1041F00070E080E090E00E945E1D8CE090E00E9404
:10420000292F90E0A0E0B0E080933B0390933C0323
:10421000A0933D03B0933E030E94AC0D811102C0F8
:104220000E94672D8091490381113BC080E090E09E
:104230000E94372F893E9E4F21F00E94700F0E94EE
:10424000FE2A88E090E00E94312F6093AD037093C6
:10425000AE038093AF039093B00380916D038360AE
:1042600080936D036E7F71F40E94FE2A88E090E0D7
:104270000E94312F6093AD037093AE038093AF0320
:104280009093B0030E94B02A0E9460278091AD03F2
:1042900080FF04C060E086950E94B42C81E080938A
:1042A000490380913E01811106C085E380934A0154
:1042B00086E68093490120914A01A22FA295AF7012
:1042C000B0E091963C9191972F7081E090E0AC0125
:1042D000022E01C0440F0A94EAF7542F509535235B
:1042E00091963C93919792963C919297432B9296FC
:1042F0004C93929740914901E42FE295EF70F0E0E2
:1043000031A14F70042E01C0880F0A94EAF7982F4C
:104310009095932391A392A1892B82A390968C913F
:1043200090E002C0959587952A95E2F7817020A1CB
:1043300030E002C0359527954A95E2F720FD02C08E
:1043400090E001C092E0892B80935A0390913E0146
:1043500081E0982790935903891B80934A038FE348
:1043600091E09093870280938602F1EBEF2EF4E0C8
:10437000FF2E0E942F1081110E944A18EDE5F3E0F4
:10438000ABE4B3E000E010E0A02EBD9081918B255E
:1043900049F1C12CDD24D3949D2D9823F1F00E9486
:1043A000AC0D882399F0C982AA82BD2081E009F46E
:1043B00080E08B830E9456188160782F9D838C83C8
:1043C00049815A816B818D810E944F28F801E35AFF
:1043D000FC4F8081D826D0821AC0C394DD0C28E01F
:1043E000C212DACF0F5F1F4F0830110569F68FEF49
:1043F0008E838F8318860E9456188160782F9A8743
:1044000089874E815F8168858A850E944F288091C7
:104410006C03882309F4BCC080916B03E091AD0369
:10442000E695E81BE0936703823059F4F0E0E1542D
:10443000FB4FE4910E2F10E0EEE3CE2EE6E2DE2EEF
:1044400058C0863059F4F0E0E454FB4FE4910E2F4D
:1044500010E07EE2C72E76E2D72E4BC0893061F4A1
:10446000E695F0E0E754FB4FE4910E2F10E060EB8F
:10447000C62E65E2D62E3DC08F3061F4E695F0E0A1
:10448000EA54FB4FE4910E2F10E051E1C52E55E2A6
:10449000D52E2FC0853159F4F0E0ED54FB4FE49157
:1044A0000E2F10E048E8C42E44E2D42E22C08831FA
:1044B00099F0833241F4F701059114913EEEC32E39
:1044C00035E2D32E16C0843271F404EF11E020EBF4
:1044D000C22E23E2D22E0DC008E210E092EFC92EC8
:1044E00093E2D92E06C000ED17E08EE7C82E83E2D6
:1044F000D82E80916803882361F0109268030E948F
:10450000A218909366038093650310926A03109239
:1045100069030E94A218E0916503F09166039C0173
:104520002E1B3F0B2F3F3F4798F520915503222329
:10453000B1F0109255032091530330915403821B24
:10454000930B8F3F9F4758F4205D3A4830935403B4
:104550002093530380916D03886080936D03A09036
:104560006903B0906A030E0F1F1F10936603009338
:10457000650385E693E0F6010995809169039091C2
:104580006A03892B29F4AB2819F081E08093550345
:10459000E0915A035E2F550F550F20914A01E22FEB
:1045A000E295EF70F0E080A190E02F7002C0959549
:1045B00087952A95E2F78170992740914901E42F68
:1045C000E295EF70F0E020A130E04F7002C0359529
:1045D00027954A95E2F7F901E170FF2720FF02C015
:1045E000E2E0F0E0E82BF92BE52BE0935A03109181
:1045F0005903EF70F0E0EE5DFD4F9081809158031C
:10460000890F8093580384306CF0E12FF0E0EA5A70
:10461000FC4F80818F5F808360E0812F0E94EF29B3
:1046200021E001C020E0809158038D3F64F4E12F28
:10463000F0E0EA5AFC4F80818150808361E0812F55
:104640000E94EF2921E080915803082E000C990B5D
:1046500064E070E00E94932F8093580321110E9420
:104660005D0F0E94D21890915B03891709F481CEE7
:104670000E94D21880935B037CCEAF92BF92CF9200
:10468000DF92EF92FF920F931F93CF93DF937C0102
:104690005B016A01809134038A3018F001E010E078
:1046A00002C00AE010E0C1E0D0E0F894B501C70113
:1046B000F60109957894811115C021960C171D07F4
:1046C00094F0CC9F9001CD9F300D300D112480E0EF
:1046D00090E045E34A95F1F70000019682179307B1
:1046E000C1F7E3CF81E0DF91CF911F910F91FF9050
:1046F000EF90DF90CF90BF90AF9008950895FC01A8
:104700008081813021F4FB018081918105C082305C
:1047100029F4FB01828193810C94BC290895FC014A
:104720008081813021F4FB018081918105C082303C
:1047300029F4FB01828193810C94D6290895CF93AB
:10474000DF93FC012081223041F4FB01EC018281E6
:1047500093810E94D62981E08B87DF91CF910895C4
:104760000F931F93CF93DF93EC0100E010E0809153
:104770007101282F30E0021713073CF590916F016B
:104780009801290F311DA901440F551F240F351F12
:104790002F583C4F869590E04C81081719071CF460
:1047A000442349F002C0411106C04091B00347398B
:1047B00018F046E901C040E06091AF038091AE037C
:1047C0000E94162B0F5F1F4FD2CF0E94492A8C8167
:1047D00090E00196817099278C83DF91CF911F9192
:1047E0000F9108958F929F92AF92BF92CF92DF92D6
:1047F000EF92FF920F931F93CF93DF938C01FC01F5
:104800004481C42FD0E09E01DE010E94D72F9B017E
:10481000AC010E94ED2F6B017C01E0E2F0E0EC1BAB
:10482000FD0BA5E5B0E09B01AC010E94ED2F4B0113
:104830005C019F01DF010E94CF2F9B01AC010E9410
:10484000F82F9B01AC012C0D3D1D4E1D5F1DC501B8
:10485000B4010E94A72FC22FD22F2A3228F4F3E0EE
:104860002F9F900111240DC025E530E02C1B31094C
:10487000C901880F991F280F391F37FF02C02F5F0A
:104880003F4F35952795C22FC095F12C85E5E82E31
:10489000ED1A80917101F816E0F4F1FC02C08E2D42
:1048A00001C08D2F90916F012F2D30E0290F311D08
:1048B000A901440F551F240F351F2F583C4F4C2F73
:1048C000C73908F046E96091AF030E94162BF394B4
:1048D000E0CF0E94492AF8018481811102C091E051
:1048E00003C0803219F49FEF90936C0190916C019A
:1048F000890FF8018483DF91CF911F910F91FF9071
:10490000EF90DF90CF90BF90AF909F908F900895E1
:104910001F93CF93DF93EC018C81811109C081E05B
:104920008C8310926F0392E090936B0180936A01E5
:1049300080916F0190917001891770F4E82FF0E079
:104940009F01220F331FE20FF31FEF58FC4F11821C
:10495000108212828F5FF0CF10E060917101161704
:10496000D8F5E12FF0E070E0CF010E94932F209165
:104970006F01820F20916F03022E000C330B90E029
:10498000E217F307E4F020916B01022E000C330BC9
:104990002E173F07A4F09C01220F331F820F931F95
:1049A0009C012F583C4F4091B003473908F046E92D
:1049B0006091AF038091AE030E94162B0BC0FC01E7
:1049C000EE0FFF1F8E0F9F1FFC01EF58FC4F11824F
:1049D000108212821F5FC1CF0E94492A80916A0112
:1049E00020916F03280F20936F0390916B01980F14
:1049F00090936B0119165CF4022E000C330B40915E
:104A0000710150E0415051092417350734F0819568
:104A100080936A01813009F41C82DF91CF911F914C
:104A200008957F928F929F92AF92BF92CF92DF9222
:104A3000EF92FF920F931F93CF93DF93EC018A8144
:104A400080FF03C0BB24BA9402C0BB24B3948C8102
:104A500081110DC081E0B81206C0809171018150B2
:104A600080936E0302C010926E0381E08C83A12CB0
:104A700044E1742E80907101A81408F044C0809124
:104A80006F01CA2CD12C8601080F111DC801880F97
:104A9000991F080F191F0F581C4FF801118210821F
:104AA000128234E0E32EF12C912C80916E03890D5B
:104AB00085312CF0672D0E94712F892F02C087FD50
:104AC000880D082E000C990BC816D906A9F4809100
:104AD000B0038E9DA0018F9D500D112455954795D3
:104AE00055954795473908F046E998016091AF031D
:104AF0008091AE030E94162B9B0CF1E0EF1AF10897
:104B0000A1F6A394B7CF0E94492A80916E0391E049
:104B1000B9120EC0811107C080917101815080933C
:104B20006E031C820FC0815080936E03BC820AC04A
:104B300090E001966091710170E00E94932F809344
:104B40006E038C83DF91CF911F910F91FF90EF90B7
:104B5000DF90CF90BF90AF909F908F907F900895FF
:104B6000FF920F931F93CF93DF93EC01F12C0FEF84
:104B700010E060917101F61608F580916F012F2DFC
:104B800030E0280F311DC901880F991F280F391FE8
:104B90002F583C4F4091B003473908F046E970E088
:104BA000C8010E94932F962F8C816091AF03F99ECC
:104BB000800D11240E94162BF394DBCF0E94492A0A
:104BC0009A818C8190FF02C08F5F01C081508C83DD
:104BD000DF91CF911F910F91FF9008950F931F9335
:104BE000CF93DF9300D01F92CDB7DEB78C018091B9
:104BF000700381110AC09E012F5F3F4F46E96FEF9E
:104C00000E94162B8A8180937003F8018481813081
:104C100051F028F0823061F4409170030AC0809115
:104C2000700340E007C06091700340E080E003C083
:104C300040E080E060E00E94952AF801848190E0E5
:104C4000019663E070E00E94932F84830F900F9091
:104C50000F90DF91CF911F910F910895CF93DF9324
:104C6000EC01EDEAF3E0438162818C810E94AC2B80
:104C70008C818F5F8C83DF91CF910895CF93DF93E9
:104C8000EC01EC81F0E0ED53FB4F4491EDEAF3E0F1
:104C9000628181810E94AC2B8C818F5F8C83DF913C
:104CA000CF910895CF93DF93EC0181E0898B9091B0
:104CB000B8038F81892B8093B8039091B7038885BF
:104CC000892B8093B7030E94E80FEA81FB81CE0114
:104CD0000696309729F06C897D89DF91CF910994F0
:104CE000DF91CF910895EF92FF920F931F93CF938F
:104CF000DF93FC01228521113AC0EC01E380F480AE
:104D0000F7E5FF1A26E12E9DC0012F9D900D11247D
:104D1000DC01AE58BE4F1496ED91FC911597885862
:104D20009E4F309729F054966D917C915597099537
:104D300086E18E9D80018F9D100D11240E581E4F0F
:104D4000F80187810E94E10FF8018085809590919C
:104D5000B70389238093B7030E94E80F188219864E
:104D60001B861E821D821092B6031092B503DF913E
:104D7000CF911F910F91FF90EF9008950F931F9384
:104D8000CF93DF93C42FD22FFC0182818823C9F0F7
:104D90004093B4030E9456189093B3038093B203D8
:104DA00080E28C0F883008F057C0C77081E001C0E6
:104DB000880FCA95EAF7DF91CF911F910F910C945C
:104DC000971D8091B403481330C08091B203909135
:104DD000B3030E943B188F3A910538F510E21D0F7E
:104DE000CD17B9F080E28C0F883040F4C77081E0B5
:104DF00001C0880FCA95EAF70E94901D183028F567
:104E000081E09D2F977001C0880F9A95EAF70E9464
:104E1000971D802F0E949C1E1830F0F4D77081E0FF
:104E200001C0880FDA95EAF70AC080E28C0F88305B
:104E300098F4C77081E001C0880FCA95EAF7DF9146
:104E4000CF911F910F910C94901D802FDF91CF91E6
:104E50001F910F910C949C1EDF91CF911F910F9188
:104E60000895FC01680F791F8FEF91E3E617F707AC
:104E700071F02191822728E030E087FF03C0880F7E
:104E8000892701C0880F21503109B9F7EFCF089564
:104E90009091AD0390FF04C09695981740F003C021
:104EA000811105C090E0961710F40C94FD2C61E080
:104EB0000C94B42C882311F0FA0101C0FB01099471
:104EC000EBE6F3E011828281846082830895609131
:104ED000AD03669570E04BE050E08FE591E00E94F5
:104EE0000C30892B19F481E080936C030E94A21886
:104EF000909366038093650380916D038460809333
:104F00006D0308959C013A9521153F4130F5BC0190
:104F100066277270AC01442754709C0122273870B8
:104F200094FF0FC090FF02C080E101C080E0672BBA
:104F300009F08062452B09F08064232B79F08068AA
:104F40000895892F8170672B09F08260452B09F045
:104F50008460232B19F08860089580E00895FC0197
:104F60008081813041F48185811119C08285882337
:104F7000B1F083E00895823041F48185811111C040
:104F80008285811110C084E00895833071F4818599
:104F900081110DC08285882351F088E0089582E058
:104FA000089586E0089585E0089581E0089587E0FA
:104FB000089580910F02833071F020F4823099F4CB
:104FC00088E20FC0853049F0883069F480EE0E9495
:104FD000A11D82EE06C080EE04C080EE0E94A11DDD
:104FE00081EE0E94A11D10920F0208950E94AF272A
:104FF00080930F02833059F018F4823031F0089515
:10500000853039F0883051F0089588E20BC080EE89
:1050100009C080EE0E941A1E81EE04C080EE0E943C
:105020001A1E82EE0C941A1E80910D028430A1F09B
:1050300040F4823089F0833091F481E00E94FB1CBF
:105040000EC0853019F0863039F009C081E00E9429
:10505000FB1C82EE0E94A11D8CE20E94A11D1092F9
:105060000D0208950E94AF2780930D02843089F0CD
:1050700028F4823089F0833049F00895853019F0A2
:10508000863039F0089582EE0E941A1E81E00C9459
:105090003D1D8CE20E949C1E8CE20C941A1E1F93F4
:1050A000CF93DF93CDB7DEB767970FB6F894DEBF27
:1050B0000FBECDBF4B8B5C8B6D8B7E8B8F8B61114D
:1050C0001092B70386E09E01235F3F4FD901E82F7E
:1050D0001D92EA95E9F795E0FE017396D9010190DA
:1050E0000D929A95E1F79C894E895F897B897D872E
:1050F0009E876F87598B488BF901DE0117960190C7
:105100000D928A95E1F7CE0107960E94D41A81117B
:105110003EC086E0FE013796DE01119601900D92A9
:105120008A95E1F7FF81E8856A857B8561157105C0
:1051300031F0EF3F31F481E0FF3F19F403C081E02B
:1051400001C080E080FD23C02091D90230E0C90178
:1051500001968770992740910A0350E084179507BC
:1051600079F1F983EA837D836C8396E0929FD00185
:10517000939FB00D1124A652BD4FFE0131960190B0
:105180000D929A95E1F78093D9020E94BA1916E020
:1051900080910A039091D9028917F9F0189FC001F4
:1051A000112486529D4F0E94D41A8823B1F0809119
:1051B0000A0390E001968770992780930A03E8CF4D
:1051C0000E946C1D1092D90210920A03E3EDF2E0E6
:1051D00086E0DF011D928A95E9F767960FB6F8948D
:1051E000DEBF0FBECDBFDF91CF911F910895DF923B
:1051F000EF92FF920F931F93CF93DF93E82FF0E08E
:10520000ED50FA4FD490282F26952695269530E01C
:10521000F901ED51FA4F0491877010E0082E02C099
:10522000159507950A94E2F701701127F901ED52DF
:10523000FA4FE490F12C082E02C0F594E7940A94FA
:10524000E2F791E0E922FF24F901ED53FA4FC4910E
:10525000D0E002C0D595C7958A95E2F7C170DD27E9
:105260000115110519F081EE0E941A1EE114F104D6
:1052700019F086EE0E941A1E8D2D0E949C1EEF28AA
:1052800019F086EE0E94A11D012B19F081EE0E94FB
:10529000A11DCD2B51F08CE2DF91CF911F910F9189
:1052A000FF90EF90DF900C949C1EDF91CF911F91A7
:1052B0000F91FF90EF90DF900895FF920F931F934F
:1052C000CF93DF938C018AE0F82EF8018491882334
:1052D00009F44CC0813009F042C0E8012196FE017A
:1052E0008491813031F42196FE0184910E949C1EAC
:1052F00039C0823039F4E8012296FE0184910E947F
:105300001A1E30C0833039F4E8012296FE018491E0
:105310000E94A11D27C0843029F5E8012296FE01D4
:10532000249180E090E030E0205331092A303105AB
:1053300060F4F89EA001F99E500D1124C901840F5C
:10534000951F2196FE012491EECF009759F0EFE9C9
:10535000FFE03197F1F700C000000197F6CF0E94FF
:10536000F728E8018E010F5F1F4FAFCFDF91CF917C
:105370001F910F91FF900895CF93DF93EC010E944E
:10538000A11DCE01805E9109089710F0209739F495
:10539000CE010E948227DF91CF910C94901DCE0107
:1053A0000E948227DF91CF910C947B1DCF93DF93D6
:1053B000EC01805E9109089710F0209731F4CE013E
:1053C0000E9482270E94971D05C0CE010E9482275D
:1053D0000E94861D8C2FDF91CF910C941A1ECF93C3
:1053E000C62F409135035091360360913703709179
:1053F0003803811119C0411551056105710531F05E
:10540000769567955795479540FD08C0CC2311F0D8
:1054100089EA01C08AEA0E949C1E38C0CC2311F0A0
:105420008DEBF9CF8EEBF7CF411551056105710575
:1054300031F0769567955795479540FD06C0CC238A
:1054400011F08EE4E8CF8BE4E6CF809172028111F7
:1054500006C081E08093720280EE0E941A1E0E94B4
:1054600056189093710280937002CC2339F08BE22E
:1054700090E00E94D6298BE290E006C08BE292E099
:105480000E94D6298BE292E00E94BC2980E0CF9155
:10549000089530916E018091AD0380FF16C0E091B8
:1054A0006D0163E0E69FF0011124EF58FC4F539A21
:1054B0008BB1877F9BB198602FB7F894AF0163E001
:1054C000369F400D511D112414C080916F019091A1
:1054D0007001891720F7E82FF0E0AF01440F551F46
:1054E000E40FF51FEF58FC4F1182108212828F5F7C
:1054F000F0CFE417F50789F0319168E09BB900001F
:1055000000C037FF8BB9330F000000C000C000C0DF
:105510008BB900C06A9591F7ECCF2FBF8FE594E06F
:105520000197F1F700C0000008959091AD0390FF3E
:1055300016C090916F0120917001921770F4E92FBD
:10554000F0E0DF01AA0FBB1FEA0FFB1FEF58FC4F73
:105550008183608342839F5FF0CF0C94492A089532
:105560008091AD03282F269530E02115310519F4DF
:105570008170826005C02532310524F08170886415
:105580008093AD038091B003873918F086E980934A
:10559000B0030895CF92DF92EF92FF926B017C01EE
:1055A0000E94B02AB701A60188E090E0FF90EF903A
:1055B000DF90CF900C944F2F8091B103882319F086
:1055C00081508093B1036091AD037091AE038091DF
:1055D000AF039091B0030C94CA2A8091B103833039
:1055E00018F48F5F8093B1036091AD037091AE03A7
:1055F0008091AF039091B0030C94CA2AEDEAF3E0D6
:1056000083E0808311828FEF828386E98383148213
:10561000ABE6B3E012968C911297836012968C934E
:1056200060817181828193810C94CA2AAF92BF926A
:10563000CF92DF92EF92FF920F931F93CF93DF935E
:10564000E82EF62EE901E42FF0E0611106C0ED58D6
:10565000F94FE4914E2F2E2F71C0062F10E0ED5818
:10566000F94F4491F42FC42ED12C26E0829FC00123
:1056700011242FEF30E0B9010E947F2F5BEA56031F
:10568000C001579F900D11248E0D911D8E0D911DFF
:10569000582F550F580FD901A01BB10BAC9DC0015D
:1056A000AD9D900DBC9D900D1124E92FF59ED0016C
:1056B0001124AB2FBB277901EA1AFB0AEC9CD0011D
:1056C000ED9CB00DFC9CB00D11245901A51AB10838
:1056D000A09E7001A19EF00CB09EF00C1124EF2C46
:1056E000FF242E193F092C9D80012D9D100D3C9DFE
:1056F000100D1124212F6230710591F048F46115CD
:105700007105E1F061307105B9F4242F4B2F16C0FB
:105710006430710569F040F06630710579F00CC0B5
:10572000242F492FE12F0AC0492FEF2F2B2F06C01E
:10573000292FE42F412F02C0292FEB2F49832883E3
:10574000EA83DF91CF911F910F91FF90EF90DF904F
:10575000CF90BF90AF900895CF93DF9300D01F926A
:10576000CDB7DEB79091AD0390FF0DC0473908F07B
:1057700046E99E012F5F3F4F0E94162B4B816981A6
:105780008A810E94952A0F900F900F90DF91CF9100
:105790000895AF92BF92CF92DF92EF92FF920F9354
:1057A0001F93CF93DF9300D01F92CDB7DEB7082FA2
:1057B000F62E142FE22E9091AD0390FF85C0E92FB5
:1057C000E695AE2FB0E0AE5CBD4F8C9180936B033D
:1057D0009E7F923081F4473908F046E99E012F5FA1
:1057E0003F4F6F2D802F0E94162B4B8169818A813C
:1057F0000E94952A46C0823019F41091B00341C02E
:10580000863019F40091AE033CC08930D9F3893158
:10581000C1F5E9518E2F8170D82EE695F0E0ED5854
:10582000F84FA590B490C12CBB2460917101C616AD
:1058300030F52C2D30E0A29EC001A39E900DB29EAB
:10584000900D112470E00E947F2F802FD11002C094
:10585000860F01C0861B90916F01290F311DA90190
:10586000440F551F240F351F2F583C4F412F173918
:1058700008F046E96F2D0E94162BC394D6CF0E94E4
:10588000492A8091AE03081308C08091AF03F81233
:1058900004C08091B003181729F080916D038260D5
:1058A00080936D030093AE03F092AF031093B003A7
:1058B000EE2051F06091AD037091AE038091AF0383
:1058C0009091B0030E94CA2A0F900F900F90DF9121
:1058D000CF911F910F91FF90EF90DF90CF90BF90ED
:1058E000AF900895EDEAF3E0438128E0421B08F40D
:1058F00040E021E0628181810C94C92BEDEAF3E064
:10590000438128E0420F08F44FEF21E0628181815A
:105910000C94C92BEDEAF3E0628128E0621B08F4E5
:1059200060E021E0438181810C94C92BEDEAF3E032
:10593000628128E0620F08F46FEF21E043818181EA
:105940000C94C92BEDEAF3E0818121E0438162816F
:1059500088500C94C92BEDEAF3E0818121E043816A
:105960006281885F0C94C92B9091AD0390FF3BC07E
:105970009170811102C0926006C0853210F0986467
:1059800002C0880F982B9093AD0380916D038160C6
:1059900080936D03662351F06091AD037091AE0367
:1059A0008091AF039091B0030E94CA2A6091AD0329
:1059B000669570E04BE050E08FE591E00E940C307E
:1059C000892B19F00E94602702C00E94672781E09E
:1059D0008093680320E04091B0036091AF03809111
:1059E000AE030C94C92B08958091AD038695815028
:1059F00009F484E261E00C94B42C8091AD038695A7
:105A00008F5F853208F081E061E00C94B42C8EE168
:105A10004A9B02C08150E1F74A9BFECF08955A98F5
:105A200080E28A95F1F75A9A0895FC012AE02A95B6
:105A3000F1F728E090E080E031E040E14A95F1F7AD
:105A4000880F4A9B02C08160932700C0000040E19C
:105A50004A95F1F7215089F720E12A95F1F729B10C
:105A600000C0000030E13A95F1F722FB222720F92F
:105A700092272081920F90830895EF92FF920F93C7
:105A80001F93CF93DF931F92CDB7DEB719828C019E
:105A90007C01E60EF11C0E151F0551F00E94072D2A
:105AA000CE0101960E94152DF80181938F01F3CF4D
:105AB00081E09981911180E00F90DF91CF911F914A
:105AC0000F91FF90EF900895529A5A9A0895529824
:105AD0005A9AEA9AE9E6F0E080818F7C8083089503
