:100000000C94C2030C9409040C9409040C94D52B91
:100010000C9409040C9409040C9409040C9409042C
:100020000C9409040C9409040C94B41A0C94F0195F
:100030000C94D8210C9409040C9409040C94090420
:100040000C9409040C9409040C9409040C940904FC
:100050000C9409040C94891B0C9409040C94090455
:100060000C9409040C9409040C9409040C940904DC
:100070000C9409040C9409040C9409040C940904CC
:100080000C9409040C9409040C9409040C940904BC
:100090000C9409040C9409040C9409040C940904AC
:1000A0000C9409040C9409040C940904700452057E
:1000B00004058A04AD04BA04D204E704F904140563
:1000C00038052605E107E1071B081B086C08F7093E
:1000D000F709F70988086609770977099C0D9C0DCF
:1000E000AF0DAF0DA50DAF0DAF0DAF0D9C0D9C0D60
:1000F000AA0DAF0DAF0DAA0D0B183218C819321882
:10010000C8197A189D18C8198C199F190000000089
:100110000500130009001A0014000254000000003A
:1001200007001700160015000400635D0000145955
:100130000A00190006001B001D00E3002B612C4182
:10014000E2002900A80000000000000000000000FC
:100150000D000F0018001C006A5D6B5D00000000C0
:100160001000110008000C000B006C5D280200005C
:100170000E00120037003600695D295D28612A7281
:10018000E4006D5D2C000000000000000000000095
:10019000665D24002500260001000100000000002B
:1001A000675D1E001F0020002700640001000100A1
:1001B000685D210022002300010001000100010010
:1001C000010001000100000000000000000000002C
:1001D0001F024A0052004D000000655D0000000053
:1001E0003202500051004F0000006E5D01004C00D3
:1001F0002D02380030001E022D14010001004C00B9
:1002000001000100010000000000000000000000EB
:1002100043004000410042000100010000000000D6
:1002200044003A003B003C000100010001000100D5
:1002300045003D003E003F000100010001000100BB
:1002400001000100010000000000000000000000AB
:100250000100010001000100010001000000000098
:100260000100010001000100010001000100010086
:100270000100010001000100010001000100010076
:10028000010001000100000000000000000000006B
:100290000100010001000100010001000000000058
:1002A0000100010001000100010001000100010046
:1002B0000100010001000100010001000100010036
:1002C000010001000100000000000000000000002B
:1002D0000100010001000100010001000000000018
:1002E0000100010001000100010001000100010006
:1002F000C35CC85CC65CCA5CC45C01000100010050
:1003000001000100010000000000000000047F3F28
:100310001F643214643214783C1E1E140A05050151
:100320000980A101850319012AB700150126B7002C
:10033000950175108100C0050C0901A10185041902
:10034000012AA002150126A002950175108100C0A6
:1003500005010906A101050719E029E71500250196
:10036000950875018102950175088101050719003D
:1003700029FF150026FF009506750881000508195C
:10038000012905950575019102950175039101C03B
:1003900009023B00020100A0FA0904000001030168
:1003A0000100092111010001224000070581030815
:1003B000000A0904010001030000000921110100E5
:1003C000012232000705820320000A120100020008
:1003D0000000081D8D9D9D0100010200010C034BD2
:1003E0000079007200690061000000100373007062
:1003F000006C00690074004B004200000004030917
:1004000004726D65720A0A2B343920313733203279
:1004100034203138203531350A6D61696C40737490
:100420006F65726D65722D636F6E73756C74696E36
:10043000672E64650A7777772E73746F65726D65C2
:10044000722D636F6E73756C74696E672E64650AC6
:100450000A00726D65722D636F6E73756C74696ED0
:10046000670A44722E205065746572205374000A26
:100470000A2D2D0A0A737400726D65720A0A0065EE
:100480000A506574657220537400467265756E6417
:100490006C6963686520477200726D65720A0A00B4
:1004A000650A5065746572205374006E652047724A
:1004B0000053636800650A50657465720A0A006E2D
:1004C0006520477200536368002D2D3E2000FFAA6F
:1004D0007F55402223252628292A2C2D2F303233E0
:1004E0003536383A3B3D3E4042434547494A4C4EFB
:1004F0005051535557595A5C5E6062646668696B27
:100500006D6F71737577797B7D7F81838587898A2C
:100510008C8E90929496989A9C9E9FA1A3A5A7A832
:10052000AAACAEAFB1B3B4B6B8B9BBBCBEBFC1C262
:10053000C3C5C6C7C9CACBCCCDCED0D1D2D2D3D4F5
:10054000D5D6D7D7D8D9D9DADADBDBDBDCDCDCDC13
:10055000DCDDDDDDDDDCDCDCDCDCDBDBDBDADAD9E1
:10056000D9D8D7D7D6D5D4D3D2D2D1D0CECDCCCB63
:10057000CAC9C7C6C5C3C2C1BFBEBCBBB9B8B6B481
:10058000B3B1AFAEACAAA8A7A5A3A19F9E9C9A9811
:10059000969492908E8C8A89878583817F7D7B79E2
:1005A000777573716F6D6B6968666462605E5C5AC3
:1005B0005957555351504E4C4A4947454342403E86
:1005C0003D3B3A3836353332302F2D2C2A29282618
:1005D00025232200000000000000000000000000B1
:1005E00000000000000000000000000100003800D2
:1005F00000007800000000F68700ECFEFFFF870196
:1006000000000000000000000000002A2B2800006D
:1006100000000000000000000000000000002900B1
:100620000000002C1E1F32212223322526303036B6
:10063000383724271E1F20212223242526373664FD
:1006400027642D140405060708090A0B0C0D0E0F6C
:10065000101112131415161718191A1B1D1C252D0D
:100660002635382E0405060708090A0B0C0D0E0F57
:10067000101112131415161718191A1B1D1C2464B7
:1006800027304C00010101010101010101020202B8
:10069000020202020202030303030303030304042E
:1006A00004040404040505050505060606060607F8
:1006B0000707070708080808090909090A0A0A0BB1
:1006C0000B0B0C0C0C0D0D0D0E0E0E0F0F0F101052
:1006D00011111112121313141415151616171718D9
:1006E0001819191A1A1B1B1C1D1D1E1E1F20202144
:1006F0002222232424252626272829292A2B2C2D8B
:100700002D2E2F30313232333435363738393A3BAB
:100710003C3D3E3F404142434445464748494A4CA0
:100720004D4E4F50515354555658595A5B5D5E5F6C
:10073000616264656668696B6C6D6F707273757702
:10074000787A7B7D7E8082838587888A8C8E8F9164
:10075000939596989A9C9EA0A2A3A5A7A9ABADAF8E
:10076000B1B3B5B7BABCBEC0C2C4C6C9CBCDCFD178
:10077000D4D6D8DBDDDFE2E4E7E9EBEEF0F3F5F821
:10078000FAFDFF0011241FBECFEFDAE0DEBFCDBFC0
:1007900004B603FE27C08091350390913603A091E3
:1007A0003703B09138038730904BA740B04BD1F45A
:1007B00010923503109236031092370310923803CB
:1007C00014BE84B7877F84BF0FB6F894A895809134
:1007D0006000886180936000109260000FBEE0E0CE
:1007E000F8E3099511E0A0E0B1E0E8EBFCE502C018
:1007F00005900D92A63DB107D9F723E0A6EDB1E033
:1008000001C01D92A533B207E1F70E94F3110C94C9
:100810005A2E0C9400008F929F92AF92BF92CF926B
:10082000DF92EF92FF920F931F93CF93DF93CDB799
:10083000DEB72A970FB6F894DEBF0FBECDBFFC011E
:10084000D080118183819481892B39F01F3F39F445
:1008500091E02FEFD21203C003C091E001C090E0FD
:1008600090FD03C67F0185E0DE01169601900D9292
:100870008A95E1F7D70112962C918E819F812223D0
:1008800049F00E940F0D082F682F8E819F810E94D2
:10089000800F03C00E94540F082FE12FF0E0B8E052
:1008A0000B9FE00DF11D1124A3E0EE0FFF1FAA9591
:1008B000E1F7ED0DF11DEE0FFF1FE45FFE4F059117
:1008C00014916801F801E356FD45D70112968C9109
:1008D000EC30F10508F0E6C0EA5AFF4F0C94F42D15
:1008E000882389F08091AB0285FD05C086EE0E94C9
:1008F000962A84E119C085EE0E943A2A86EE0E946B
:10090000962A84E61CC084E10E943A2A84E60E946A
:100910003A2ADDC28823E1F08091AB0285FD08C050
:1009200086EE0E94962A84E20E94962A86EEEFCFF7
:1009300085EE0E943A2A86EE0E94962A87E20E945D
:10094000962A86EE0E943A2A85EE0E94962ABFC217
:1009500084E20E943A2A87E2DACF882369F0809104
:10096000AB0285FD05C085EE0E94962A85E28AC00D
:1009700086E2EBCF811105C085E20E943A2A86E229
:10098000C6CF8091AB0285FD05C086EE0E94962AF7
:1009900085E2CACF85EE0E943A2A86EE0E94962A08
:1009A00086E2CDCF882389F08091AB0285FD05C01A
:1009B00085EE0E94962A84E265C085EE0E943A2A5E
:1009C00086EE0E94962A80E3BACF84E23BC0882359
:1009D00059F08091AB0285FD05C085EE0E94962AF4
:1009E00083E250C082E2B1CF83E20E943A2A82E2DF
:1009F0008ECF8823A1F08091AB0285FD0BC085E3EB
:100A00000E94761085E3A1CF882361F08091AB022C
:100A100085FD5DC28EE20E9476108EE296CF85E360
:100A20000E943A2A8EE273CF882359F08091AB025C
:100A300085FD05C085EE0E94962A87E223C080E3EB
:100A400084CF87E20E943A2A80E361CF882359F05D
:100A50008091AB0285FD05C085EE0E94962A81E259
:100A600011C080E272CF81E20E943A2A80E24FCF29
:100A7000882399F08091AB0285FD08C085EE0E9425
:100A8000962A88E30E94962A85EE41CF85EE0E9441
:100A90003A2A82E30E94962A57CF88E30E943A2A94
:100AA00082E335CF882369F0C801825E9C450597B3
:100AB00040F46EE1600F609379028CE090E00E9458
:100AC000682D17FF7AC0F7018281882309F475C069
:100AD0000E947822869581708093D9019091790245
:100AE000913029F4882319F089E30E9476108091CF
:100AF000AB028093D8011092AB02809179028130D1
:100B000071F048F0823081F08430A1F486EE0E94CA
:100B1000761088E10DC082EE0E94962A0BC088E113
:100B200093E00E94032806C082EE0E94962A87E581
:100B30000E9476108FE39CE90197F1F700C0000056
:100B40004801E89497F87CE0A72EB12CC4010A2C48
:100B500002C0969587950A94E2F78F7096EF980FEA
:100B6000963010F0805D01C0895A0E943E2794E0C3
:100B7000A91AB108ACEFAA16AFEFBA0639F78091FF
:100B80007902813039F078F0823069F0843089F46C
:100B900088E20DC08CE20E9476108091D9018823F2
:100BA00041F089E304C082EE0E943A2A02C00E940A
:100BB00076108091D8018093AB02F701828188235F
:100BC00009F43FC08091D702882329F1C8019056CB
:100BD0008115F0E29F0720F0905E8115904110F49E
:100BE0006801DD248091D602853060F4E82FF0E0C2
:100BF000EE0FFF1FE653FD4FD182C0828F5F8093BF
:100C0000D60202C01092D7020E94CA1B9093D5024E
:100C10008093D4025CC109328DE5180791F481E01C
:100C20008093D7020E94CA1B9093D5028093D4026E
:100C30001092D6028AE0EAECF2E0DF011D928A957A
:100C4000E9F7D70112968C918111E8C08091AB022F
:100C500082720D3CBCE51B0709F4C0C008F041C01E
:100C6000073CFCE51F0709F4A5C0C8F4043C9CE55B
:100C7000190709F495C028F4033C1C4509F466C023
:100C800045C1053CECE51E0709F48FC0063C1C4538
:100C900009F03CC14CEB58E265EC78E2A3C00A3C99
:100CA0002CE5120709F490C070F4083CACE51A0773
:100CB00009F485C0093C1C4509F028C140EB58E205
:100CC00064EA78E28FC00B3CECE51E0709F481C0B2
:100CD0000C3C1C4509F01AC14AEF58E26BE079E27E
:100CE00081C0023D2CE5120709F488C098F40F3C3E
:100CF0009CE5190709F47CC008F477C0003DBCE509
:100D00001B0709F478C0013D1C4509F0FFC06EE0E7
:100D100089E07CC0053DFCE51F0709F475C060F45F
:100D2000033D8CE5180709F46CC0043D1C4509F02F
:100D3000EDC061E088E16FC0063DACE51A0709F43B
:100D400068C00E351D4509F4C2C0E0C0809125037E
:100D500080FF20C08E7F80932503609125037091D2
:100D6000260380912703909128030E94E8280E947F
:100D7000B7228091E50281608093E502EFEFF0E712
:100D800022E0E150F0402040E1F700C000000E9466
:100D9000D9229DC081608093250361E086953BC088
:100DA00047E25AE260E37AE21DC040E35AE267E2BA
:100DB0007AE218C045EC58E26CEB78E213C044EAE2
:100DC00058E260EB78E20EC04CE858E268E978E25D
:100DD00009C048E958E26CE878E204C04BE059E207
:100DE0006AEF78E20E94B12272C061E081E013C034
:100DF00065E082E00BC068E086E008C064E18FE057
:100E000005C067E185E102C062E289E10E949F229C
:100E10005EC061E083E20E94E72959C00B358DE591
:100E2000180709F44EC058F40115ACE51A07C1F0D3
:100E30000F3D1C4509F06AC00E94D30B48C00C3519
:100E4000EDE51E0709F43FC00D351D4509F05EC0F4
:100E50008091780282FB882780F991E0892734C04D
:100E60001092AB020E9443102FEF84E39CE02150CC
:100E700080409040E1F700C0000081E08093E000F6
:100E800080E28093D8001092C900AFE1BEE41197D0
:100E9000F1F700C0000087E090EBDC0180933503A0
:100EA00090933603A0933703B09338039CE088E116
:100EB0000FB6F894A895809360000FBE90936000E1
:100EC000FFCF81E001C080E00E947F0C1FC08091B5
:100ED0004202877009F4C9C2F7018281882309F4AC
:100EE000C4C282E02A960FB6F894DEBF0FBECDBF13
:100EF000DF91CF911F910F91FF90EF90DF90CF90F6
:100F0000BF90AF909F908F900C94FB0FF701828160
:100F100000811181882349F0C8010E940F0DD82E4D
:100F2000682FC8010E94800F04C0C8010E94540F9E
:100F3000D82EE12FF0E028E0D29EE00DF11D112423
:100F400033E0EE0FFF1F3A95E1F7E00FF11DEE0FD2
:100F5000FF1FE45FFE4F859194910E94480A8C0127
:100F6000982ED7011296CC9012971596AC90A29419
:100F70005FE0A52280914202877099F0CC2089F031
:100F8000812F807F803421F080E2800F883048F00C
:100F900082E00E94FB0F809142028770DD24D3948F
:100FA0008111D12CB12EB2942FE0B2228B2D90E082
:100FB0008C30910508F01BC2FC01EE59FF4F0C94D8
:100FC000F42D812F807F1F70882311F01295107FE0
:100FD000CC20B9F0112309F4F5C180E2800F8830EC
:100FE00010F0911006C08091AB02182B1093AB0249
:100FF00005C080914402182B109344020E94440CB7
:10100000E1C1802F0E943A2A112309F4F0C1005E49
:101010001095083010F0911006C08091AB02182393
:101020001093AB0205C08091440218231093440230
:101030000E94440CDCC1812F807F1F70803211F030
:101040001295107F992021F0B1E09B1601F12EC07E
:10105000CC20A1F080914502AA2071F0E1E0AE120F
:101060000BC0182B9091780292FDC1C1181709F49A
:10107000BEC110934502BBC1812B10C0AA2021F034
:10108000F1E0AF1609F4B3C10E943E0C21C0CC20A0
:1010900041F025E02A1508F4AAC1812F0E946C10A6
:1010A000A6C184E08A1508F4A2C112C0CC2019F0B0
:1010B000AA2099F387C1AA2059F0093309F094C1F5
:1010C0009FEFA7EEB3E09150A040B040E1F78AC196
:1010D000812F0E9461108BC1812F86958695837028
:1010E00019F0813059F083C1CC2019F0C8019370F8
:1010F00002C080E090E00E9462227FC1CC2019F003
:10110000C801937002C080E090E00E944C2275C13B
:10111000812F837009F069C0C1106DC1902F929525
:1011200096959770990F990F802F8F70882E912C1C
:10113000A12CB12C092E04C0880C991CAA1CBB1C24
:101140000A94D2F704FF12C04FE050E060E070E074
:1011500004C0440F551F661F771F9A95D2F7DB0115
:10116000CA0180959095A095B09503C080E090E06D
:10117000DC0116951695412F4370423019F1C8F4E1
:101180000091460210914702209148023091490295
:10119000413059F088299929AA29BB29BC01CD01E0
:1011A00060237123822393230AC0802A912AA22AD2
:1011B000B32ABC01CD01682979298A299B290E947B
:1011C000391019C188299929AA29BB2900914602F9
:1011D000109147022091480230914902BC01CD0193
:1011E0006027712782279327EACFCC2019F0812F1F
:1011F000817001C08695882309F4FDC0902F9295D7
:1012000096959770990F990F802F8F70882E912C3B
:10121000A12CB12C092E04C0880C991CAA1CBB1C43
:101220000A94D2F704FF12C04FE050E060E070E093
:1012300004C0440F551F661F771F9A95D2F7DB0134
:10124000CA0180959095A095B09503C080E090E08C
:10125000DC0116951695412F43704230D9F068F5A0
:101260000091730210917402209175023091760200
:10127000413059F088299929AA29BB29BC01CD01FF
:1012800060237123822393231EC0802A912AA22ADD
:10129000B32A13C088299929AA29BB29009173026E
:1012A000109174022091750230917602BC01CD013B
:1012B000602771278227932706C0BC01CD016829CA
:1012C00079298A299B290E94AB0F95C01F70CC20D9
:1012D00039F0812F0E941810802F0E946C108BC053
:1012E000802F0E946110812F0E94D60F84C0802F12
:1012F000E2EF9E1629F1E91538F0F0EF9F1659F04C
:1013000021EF9216C1F059C093EF991601F1A4EFA5
:101310009A16A1F152C0CC2049F0B4E0BA1508F4F5
:1013200066C0812F8F710E94B50F61C0E5E0EA159C
:1013300008F45DC0F6CFCC2029F0812F8F7130C02A
:10134000CC20D9F3812F8F710E94D60F50C0CC20B2
:1013500079F01F7181E090E0A0E0B0E0BC01CD0128
:1013600004C0660F771F881F991F1A95D2F703C014
:1013700060E070E0CB010E94AB0F39C0CC2099F047
:101380001F71812F0E9418108091780282FD07C082
:10139000F8E01F9FC0011124836080934202812FD7
:1013A0000E94181024C081E00E94FB0F21E02A1542
:1013B000F0F482E00E94FB0F1AC0CC2039F0AA2082
:1013C00009F4BBCF802F0E94962A11C0AA2009F4ED
:1013D000B9CF893349F48FEF97EEA3E08150904065
:1013E000A040E1F700C00000802F0E943A2A88EF59
:1013F0008B0D843010F40E947822DD20A9F08091BA
:10140000420280FD11C0F701128285958595859570
:101410000E941810C7010E940B048091420285951A
:10142000859585950E94D60F85E0F701DE0111961E
:1014300001900D928A95E1F789819A810E94540F5B
:10144000EA81F0E028E0829FE00DF11D112483E0A5
:10145000EE0FFF1F8A95E1F78981E80FF11DEE0F6E
:10146000FF1FE45FFE4F859194912A960FB6F89482
:10147000DEBF0FBECDBFDF91CF911F910F91FF90C7
:10148000EF90DF90CF90BF90AF909F908F90089596
:10149000CF93DF938238910569F1B0F481339105E0
:1014A00009F46FC048F48932910509F465C08A32A5
:1014B000910509F46BC08AC08533910509F457C0C2
:1014C00089339105B9F082C0833E910571F138F4FA
:1014D000803E9105B1F0823E910511F177C0863EC4
:1014E0009105B9F1873E9105C9F1843E910509F056
:1014F0006DC024C02091770220FD53C021FD51C052
:1015000065C08091770280FD46C08091780280FF9F
:1015100048C08091770284FD3FC183EE90E03EC1D8
:101520008091770282FF3AC0F4CF8091770282FDEA
:1015300035C08091780280FD34C0EBCF8091780275
:1015400081FF35C08091770284FD26C187EE90E04F
:1015500025C18091770283FF27C0F4CF8091770265
:1015600083FD22C08091780281FD21C0EBCF809164
:10157000770285FD1FC021C08091770285FD1DC0C7
:1015800019C08091770286FD1BC01DC08091770233
:1015900086FD19C015C089E390E000C182EE90E09D
:1015A000FDC080EE90E0FAC086EE90E0F7C084EED9
:1015B00090E0F4C089E290E0F1C085E390E0EEC0F5
:1015C0008AE290E0EBC081E390E0E8C0811532E56B
:1015D000930708F069C0811541E5940728F0982F1A
:1015E0008827816F906ADAC0883E910568F5803E51
:1015F000910508F0D3C0883A9105B8F4853A910571
:1016000048F0855AE82FF0E0E35AFE4F808190E0E1
:101610009064C4C08130910509F4BBC008F4BCC01B
:101620008430910508F4B8C0B9C08F3B910508F02B
:10163000B3C0885AE82FF0E0EE0FFF1FE05AFE4FCC
:10164000808191819464AAC0811520E59207F0F011
:101650009C0174E0369527957A95E1F7922F937067
:10166000482F437021E030E002C0220F331F4A951B
:10167000E2F73C68392B8F70982F9695969540E24B
:10168000949FC0011124822B932B88C0811530E4D4
:10169000930718F09F70906A81C09C013A952115BC
:1016A0003F4108F47BC078C0EC01C11586E5D8073E
:1016B000E8F5C11525E5D20748F08C2F0E94C51C1E
:1016C0008F7190E0982F8827906268C0C11534E52B
:1016D000D30728F09C2F8827846F906A5FC0AE01E3
:1016E000437055272C2F26952695C115D34578F4A0
:1016F00081E090E002C0880F991F4A95E2F740E22E
:10170000249F90011124822B932B9C6847C081E079
:1017100090E002C0880F991F4A95E2F740E2249FAB
:1017200090011124822B932B9A6838C0C1152AE5A9
:10173000D207F8F4C11539E5D30790F08C2F8F70DC
:101740000E94C51C94E0D695C7959A95E1F7CF7095
:10175000D0E0DC2FCC27D0699E01282BC9011EC008
:10176000C11548E5D407C0F09C2F8827806F906A88
:1017700015C0CE0190568115904270F48D2F8F7157
:101780000E94C51C282F2F71CE0199279062922BA1
:1017900005C081E090E002C080E090E0DF91CF9151
:1017A00008950C94BE1B69EE7EEF80E090E00E94ED
:1017B000862D60E082E090E00E94682D60E083E08A
:1017C00090E00E94682D10924602109247021092FB
:1017D00048021092490260E084E090E00E94682D87
:1017E00060E082E290E00E94682D60E085E090E099
:1017F0000E94682D60E086E090E00E94682D6FEF07
:1018000087E090E00E94682D40E050E0BA0188E057
:1018100090E00E947A2D60E08DE090E00E94682DBB
:1018200040E050E0BA0188E190E00E947A2D60E04B
:1018300087E190E00E94682D40E050E0BA018CE121
:1018400090E00E947A2D60E070E080E290E00E94DB
:10185000862D40E050E0BA0188E190E00E947A2DA8
:1018600040E050E0BA018FE090E00E947A2D40E025
:1018700050E0BA0183E190E00C947A2D809145020A
:1018800081111092450208959091AB02809144021B
:10189000892B20914302982F922B9093DA0180910B
:1018A0004502882389F0892B8093DA01ECEDF1E081
:1018B00097E080E0915029F021912223D9F38F5FA6
:1018C000F9CF81110E943E0CE0912C03F0912D0381
:1018D000309731F00280F381E02D8AED91E0099498
:1018E000089580E090E00E94622280E090E00E94F3
:1018F0004C2210924402109243020C94440CCF9359
:10190000C0917802C2FB992790F9981781F080FB6B
:10191000C2F9C09378026091770284E090E00E945F
:10192000682D6C2F82E290E0CF910C94682DCF91BE
:1019300008958091410290911002891719F08F5FEC
:101940008770FBCF08950F931F93CF93DF93809100
:101950000F0282958F7009F05DC080910C02882380
:1019600009F458C0809141021091100260910A025E
:1019700070910B02C0910D02D0910E0291E06F3F69
:1019800009F090E0292F06E0811709F443C0209761
:1019900021F07F3F21F030E003C031E001C0322F61
:1019A00090E030FD34C0089FF001099FF00D112434
:1019B000DF01AF5EBD4F11963C911197371327C0E1
:1019C0003C91361324C012963C91129731111FC0DE
:1019D00013964D915C9114974C1B5D0B4F3A51053A
:1019E000B0F480910F028F70806180930F02EA5EE5
:1019F000FD4F80818F70806180838AE092E00E9439
:101A00000B04DF91CF911F910F910C94990C0196CB
:101A10008770BACFDF91CF911F910F9108958F9268
:101A20009F92AF92BF92EF92FF920F931F93CF932B
:101A3000DF938090730290907402A0907502B09032
:101A4000760240914602509147026091480270919F
:101A50004902842A952AA62AB72ACFE1D0E0E92EA6
:101A6000F12C082F10E0D501C4010C2E04C0B6954E
:101A7000A795979587950A94D2F780FD04C0219782
:101A800090F780E01AC0FE0183E0EE0FFF1F8A95F9
:101A9000E1F7EE0DFF1D93E0EE0FFF1F9A95E1F7C2
:101AA000E00FF11FEE0FFF1FE45FFE4F8591949151
:101AB0000E94480A019719F38C2FDF91CF911F9153
:101AC0000F91FF90EF90BF90AF909F908F900895EF
:101AD000CF93DF93D82FC92F0E940F0DEC2FF0E08A
:101AE00098E0899FE00DF11D112483E0EE0FFF1FA8
:101AF0008A95E1F7ED0FF11DEE0FFF1FE45FFE4F3A
:101B0000859194910E94480ADF91CF910895FC013C
:101B1000808191810E94680D292F2F70E92FE29515
:101B2000EF704E2F50E0FA013297EE30F105B8F425
:101B3000E259FF4F0C94F42D803F99F018F4883E41
:101B400070F40FC0843F59F40CC0883E50F0813FC0
:101B500031F407C0822F869586958695089580E09A
:101B6000089581E008959F92AF92BF92CF92DF9245
:101B7000EF92FF920F931F93CF93DF93CDB7DEB712
:101B800061970FB6F894DEBF0FBECDBF8C0185E024
:101B9000F801DE011D9601900D928A95E1F7F8019A
:101BA000E28090910A0260910B0240910D025091E7
:101BB0000E024115510531F06F3F31F481E09F3F36
:101BC00019F403C081E001C080E0F82FF1709F2E6E
:101BD00080FD1AC1F80130812181C380D4808AE060
:101BE000A82E82E0B82EF0900C02F601E41BF50B53
:101BF000FF2009F4C6C080910F02EF3AF10508F00A
:101C000091C0482F407F09F050C0621311C0931358
:101C10000FC0FE2CE1100CC08F70806180930F020A
:101C2000C5010E940B0480910F02F801858329C130
:101C3000CD2831F02F3F31F481E03F3F19F403C04C
:101C400081E001C080E080FD03C081E08E2502C0FC
:101C500080E090E0F82FF170FF2E80FF1CC0809193
:101C600041024091100256E0841709F4E8C090E068
:101C7000589FF001599FF00D1124EF5EFD4F6181D7
:101C8000261306C06081631303C06281E61203C09D
:101C900001968770E9CFFE2CEE2009F4F2C0809106
:101CA0000F02816080930F0249C0621306C0931334
:101CB00004C0E11002C0F80186C0C8010E94870D6F
:101CC000882351F1EE2041F120910F02822F82955D
:101CD0008F7090E0029774F080910A0290910B024D
:101CE00098878F831986DB86CA862C87CE01079654
:101CF0000E940B0486E0F801AAE0B2E001900D9288
:101D00008A95E1F70E94A30C0AC06217C9F0C801C6
:101D10000E94870D81111EC0C8010E940B04FF2480
:101D2000F394AFC0482F407F81F78AE092E00E9491
:101D30000B0486E0F50111928A95E9F7F12CA1C018
:101D40009313E5CFE110E3CFF8018583C8010E942A
:101D50000B0454C0EE2001F320910F02822F8295D4
:101D60008F7090E0029734F280910A0290910B02FA
:101D70009A8389831B82DD82CC822E83CE010196D9
:101D8000B7CFEF3AF105D0F5FE2CEE2029F2621321
:101D900027C0931325C020910F0220FD18C0822F69
:101DA00082958F70482F50E04115510581F0F80160
:101DB00025834F30510541F08F5F982F9295907F8A
:101DC000822F8F70892B8583C8010E940B0486E0C7
:101DD000F801AAE0B2E001900D928A95E1F751C0B6
:101DE000C8010E94870D811185CF80910F0281600B
:101DF00080930F02C8010E940B0443C086E0F501E6
:101E000011928A95E9F73DC0EE2009F485CFC8010B
:101E10000E94870DF82E882309F47ECF86E0F80112
:101E2000AAE0B2E001900D928A95E1F780910A0252
:101E300090910B020E94680D0E94A30C22C03D8766
:101E40002E878D859E850E94680D292F22952F70E3
:101E5000223028F49F7039F0811105C00BC0243066
:101E600028F49F7049F4805E883020F0C8010E94F9
:101E70000B049F2CF92C05C0F8019581907F99F7F0
:101E8000F9CF8F2D61960FB6F894DEBF0FBECDBF90
:101E9000DF91CF911F910F91FF90EF90DF90CF9046
:101EA000BF90AF909F90089528E0929F800D1124DD
:101EB000682F669566956695982F977085E0689F60
:101EC000B001112440E050E080E0FB01E40FF51F79
:101ED000EE51FE4F208130E0092E02C03695279545
:101EE0000A94E2F721703327042E01C0220F0A94CE
:101EF000EAF7822B4F5F5F4F4530510531F7089568
:101F000028E0929F800D1124E82FE695E695E6954E
:101F1000877051E001C0550F8A95EAF785E0E89F88
:101F2000F0011124EE51FE4F20E030E070E04081DE
:101F3000CB01022E02C0969587950A94E2F7817034
:101F4000819584278523842781932F5F3F4F2530F8
:101F5000310569F70895609373027093740280935A
:101F60007502909376020C94710C0F931F9341E0CD
:101F700050E060E070E004C0440F551F661F771FFB
:101F80008A95D2F78091730290917402A0917502A4
:101F9000B09176028A019B01082719272A273B273F
:101FA000C901B8011F910F910C94AB0F0F931F93B0
:101FB00041E050E060E070E004C0440F551F661F30
:101FC000771F8A95D2F740955095609570958091CE
:101FD000730290917402A0917502B09176028A0109
:101FE0009B01082319232A233B23C901B8011F9110
:101FF0000F910C94AB0F2091420280958223809325
:102000004202982F977041F430E0482F082E000CC0
:10201000550B2417350721F49091780292FF07C0E1
:102020008595859585950E94D60F10924202089558
:102030000F931F9341E050E060E070E004C0440F54
:10204000551F661F771F8A95D2F780917302909172
:102050007402A0917502B09176028A019B01082B4F
:10206000192B2A2B3B2BC901B8011F910F910C94FE
:10207000AB0F60934602709347028093480290939F
:1020800049020C94710C86E0ECEDF1E0DF011D9249
:102090008A95E9F70C94710C882341F08095909112
:1020A00044028923809344020C94440C08958823AD
:1020B00039F090914402892B809344020C94440C93
:1020C0000895882341F080959091AB0289238093F5
:1020D000AB020C94440C0895882339F09091AB0224
:1020E000892B8093AB020C94440C08951F93CF93DB
:1020F000DF93182F893319F0C0E0D0E002C0C0E5AB
:10210000D0E0812F0E94962A209741F08FE99FE02E
:102110000197F1F700C000002197F6CF812FDF91E2
:10212000CF911F910C943A2ACF93DF93CDB7DEB7AE
:1021300028970FB6F894DEBF0FBECDBF85E0E5E26D
:10214000F3E0DE01119601900D928A95E1F78091FE
:10215000E3029091E402A091E5028E839F83A88719
:10216000288540916E0250916F02609170027091CB
:1021700071023FB7F8948091A3029091A402A091BC
:10218000A502B091A6023FBF841B950BA60BB70B0F
:1021900084369105A105B10510F4222329F180911F
:1021A000350190913601855A9D4F4091340150E0A0
:1021B0004930510510F048E050E0BE016F5F7F4F9D
:1021C0000E94512E85E090E00E949C2C892B11F0FA
:1021D00080E00DC00E94BE1B60936E0270936F0280
:1021E00080937002909371021092E50281E028962C
:1021F0000FB6F894DEBF0FBECDBFDF91CF9108952B
:10220000CF93DF9300D000D0CDB7DEB74091570217
:10221000509158026091590270915A022FB7F89468
:102220008091A3029091A402A091A502B091A60270
:102230002FBF841B950BA60BB70B84369105A10508
:10224000B10580F10E940122DC01CB010296A11DA3
:10225000B11D89839A83AB83BC8380912B019091BC
:102260002C01855A9D4F40912A0150E0453051057F
:1022700010F044E050E0BE016F5F7F4F0E94512E8E
:1022800084E090E00E949C2C892B11F080E00BC030
:102290000E94BE1B609357027093580280935902AC
:1022A00090935A0281E00F900F900F900F90DF9162
:1022B000CF910895CF92DF92EF92FF920F931F93E9
:1022C000CF93DF931F92CDB7DEB7EE24E394F12CCA
:1022D00001E612E09E012F5F3F4F43E552E063E0CD
:1022E00082E00E94D81BC82E882379F1D090880202
:1022F0008D2D90E09C012C563D4F79011981F901FB
:102300008081181B012F80E010165CF40150F7014A
:1023100080818F5F808360E08D2D0E94352881E071
:10232000F3CF912F17FD90E0191B112359F01F5F78
:10233000F70180818150808361E08D2D0E943528D6
:1023400081E0F3CF81110E94D10B8C2D0F90DF9192
:10235000CF911F910F91FF90EF90DF90CF90089554
:10236000CF92DF92EF92FF920F931F93CF93DF9361
:1023700000D000D0CDB7DEB76B0184E0E82EF12CA1
:102380000CE512E09E012F5F3F4F4FE452E061E009
:1023900080E00E94D81B882361F049815A816B81BB
:1023A0007C8140934B0250934C0260934D0270939A
:1023B0004E0240914B0250914C0260914D0270913F
:1023C0004E02F60140835183628373830F900F9016
:1023D0000F900F90DF91CF911F910F91FF90EF9091
:1023E000DF90CF900895CF93DF93CDB7DEB72A97D4
:1023F0000FB6F894DEBF0FBECDBF84B7877F84BF12
:102400000FB6F894A8958091600088618093600071
:10241000109260000FBE90E080E80FB6F8948093B1
:102420006100909361000FBE85B7806885BF85B756
:10243000806885BF86ED9BE19093D7018093D6019C
:102440000E94341A0E94531A8091E20084608093A3
:10245000E20078948091B8028823A1F01091E900FD
:102460001F709091EC00892F817090FD80E8182BEF
:102470001092E9008091E80083FD0E9425171F70EB
:102480001093E90082E084BD93E095BD9AEF97BD7B
:1024900080936E0010923003109231031092320339
:1024A000109233030E948B1C80933C0180913C016D
:1024B000882321F0109258018AE003C08AE08093BB
:1024C0005801809359010E948B1C81110E948F2B0F
:1024D00080913C0180913C01811102C094E001C0D7
:1024E00090E09093860284E0891B8093850200E946
:1024F00011E094E9E92E91E0F92EF80181918F0124
:102500008F3F11F00E94AE1CE016F106B1F708E90A
:1025100011E080EAE82E81E0F82EF80181918F0128
:102520008F3F11F00E94AE1CE016F106B1F7EDE707
:10253000F2E085E892E0A9E8B2E011921D928E17D0
:102540009F07D9F780E090E00E94622D893E9E4F60
:1025500011F00E94D30B82E090E00E94542D8093F2
:102560009A0284E090E00E94542D182F82E290E0BD
:102570000E94542D212F30E0382B30937802209385
:10258000770283E090E00E94542D682F70E080E095
:1025900090E00E9439108CE090E00E94542D90E071
:1025A000A0E0B0E08093790290937A02A0937B023E
:1025B000B0937C020E948B1C811102C00E94922B5E
:1025C0008091870281113BC080E090E00E94622DE3
:1025D000893E9E4F21F00E94D30B0E941C2988E067
:1025E00090E00E945C2D60932503709326038093F6
:1025F0002703909328038091E50283608093E5028E
:102600006E7F71F40E941C2988E090E00E945C2D8E
:1026100060932503709326038093270390932803E8
:102620000E94CE280E94B7228091250380FF04C01B
:1026300060E086950E94E72981E08093870280917F
:102640003C01811106C085E38093480186E68093B2
:10265000470120914801E22FE295EF70F0E031A1AF
:102660002F7081E090E0AC01022E01C0440F0A946B
:10267000EAF7542F5095352331A332A1432B42A3BF
:1026800040914701A42FA295AF70B0E091963C9184
:1026900091974F70042E01C0880F0A94EAF7982F83
:1026A0009095932391969C93919792969C91929753
:1026B000892B92968C93929780A190E002C0959579
:1026C00087952A95E2F7817090962C9130E002C0B0
:1026D000359527954A95E2F720FD02C090E001C0AC
:1026E00092E0892B8093980290913C0181E0982799
:1026F00090939702891B809388028DE391E09093D9
:102700002D0380932C03F8E1EF2EF12CA0E46A2E28
:10271000B1E9CB2EB2E0DB2E10E1712E8091B80230
:10272000853009F040C012E18091B802853009F08F
:1027300034C08091B802843009F1109234030FB68E
:10274000F894A895E09260000FBE6092600083B795
:10275000817F846083BF83B7816083BF78948895CD
:1027600083B78E7F83BF0FB6F894A89580916000E1
:10277000886180936000109260000FBE8091B70264
:10278000882391F20E94081DE9E8F2E0819181110D
:102790008FC1CE16DF06D1F7C7CF1092AB020E94D1
:1027A00043100E9478220E94081D81110E94BE1BC6
:1027B000EBE9F2E0A9E8B2E000E010E0802E9D90A5
:1027C0008191892549F1A12CBB24B394982F9B2199
:1027D000F1F00E948B1C882399F0A9828A829B20A9
:1027E00081E009F480E08B830E94CA1B8160782F0E
:1027F0009D838C8349815A816B818D810E949426AF
:10280000F801E556FD4F8081B826B0821AC0A39426
:10281000BB0C48E0A412DACF0F5F1F4F0830110540
:1028200069F68FEF8E838F8318860E94CA1B8160A2
:10283000782F9A8789874E815F8168858A850E9473
:1028400094268091E402882309F4BDC08091E302BC
:10285000E0912503E695E81BE093DF02823059F40E
:10286000F0E0E65EFC4FE4910E2F10E0E4ECAE2EBB
:10287000E1E2BE2E59C0863059F4F0E0E95EFC4F2B
:10288000E4910E2F10E074EBA72E71E2B72E4CC02E
:10289000893061F4E695F0E0EC5EFC4FE4910E2F98
:1028A00010E065E2A62E65E2B62E3EC08F3061F4E0
:1028B000E695F0E0EF5EFC4FE4910E2F10E056E855
:1028C000A52E54E2B52E30C0853159F4F0E0E25F18
:1028D000FC4FE4910E2F10E04DEFA42E43E2B42EF6
:1028E00023C08831A1F0833249F4ECE0F3E0059194
:1028F00014913EE7A32E35E2B32E16C0843271F454
:1029000004EF11E025E2A22E23E2B22E0DC008E270
:1029100010E097E6A92E93E2B92E06C000ED17E06D
:1029200083EBA82E81E2B82E8091E002882361F02B
:102930001092E0020E941C229093DE028093DD023E
:102940001092E2021092E1020E941C22E091DD024C
:10295000F091DE029C012E1B3F0B2F3F3F4798F565
:10296000209193022223B1F01092930220919102C0
:1029700030919202821B930B8F3F9F4758F4205D4A
:102980003A4830939202209391028091E502886048
:102990008093E5028090E1029090E2020E0F1F1FEB
:1029A0001093DE020093DD028DED92E0F5010995B2
:1029B0008091E1029091E202892B29F4892819F093
:1029C00081E080939302E09198025E2F550F550F9E
:1029D00020914801E22FE295EF70F0E080A190E0B5
:1029E0002F7002C0959587952A95E2F781709927F7
:1029F00040914701E42FE295EF70F0E020A130E034
:102A00004F7002C0359527954A95E2F7F901E170BC
:102A1000FF2720FF02C0E2E0F0E0E82BF92BE52BD6
:102A2000E093980210919702EF70F0E0E056FE4FAD
:102A3000908180919602890F8093960284306CF089
:102A4000E12FF0E0EC56FD4F80818F5F808360E0E6
:102A5000812F0E94352821E001C020E0809196025C
:102A60008D3F64F4E12FF0E0EC56FD4F8081815002
:102A7000808361E0812F0E94352821E080919602B9
:102A8000082E000C990B64E070E00E94BE2D80932C
:102A9000960221110E94D10B0E94782290919902F6
:102AA000891709F43BCE0E9478228093990236CE92
:102AB00079BC19BD09B400FEFDCF8091D8008F7D8F
:102AC0008093D8008091E00082608093E000809144
:102AD000E00081FDFCCF1092AB020E94431024CE97
:102AE000AF92BF92CF92DF92EF92FF920F931F931C
:102AF000CF93DF937C015B016A01809172028A307F
:102B000018F001E010E002C00AE010E0C1E0D0E0FF
:102B1000F894B501C701F60109957894811115C0A3
:102B200021960C171D0794F0CC9F9001CD9F300D7E
:102B3000300D112480E090E045E34A95F1F7000064
:102B4000019682179307C1F7E3CF81E0DF91CF9120
:102B50001F910F91FF90EF90DF90CF90BF90AF90BB
:102B600008952091E4003091E50095E64091EC0055
:102B7000842F817040FF23C08091E80080FD1DC03C
:102B80008091B802882399F0853099F08091EB000C
:102B900085FD11C04091E4005091E50024173507F0
:102BA00029F3915011F09A01E1CF84E0089582E079
:102BB000089583E0089581E0089580E008954091AC
:102BC000E80042FFDDCF0895EF92FF920F931F932D
:102BD000CF93DF937C018B010E94B115811119C045
:102BE000E70101151105A1F08091E80085FD0AC0FB
:102BF0008091E8008E778093E8000E94B1158823C9
:102C000081F307C089918093F10001501109E9CF48
:102C100080E0DF91CF911F910F91FF90EF90089589
:102C20008091BA0287FF11C08091E80082FD05C043
:102C30008091B8028111F8CF11C08091E8008B77A4
:102C40000BC08091B802882349F08091E80080FF92
:102C5000F8CF8091E8008E778093E8000895982F50
:102C6000973068F59093E900981739F07091EC006F
:102C70002091ED005091F00003C0242F762F50E0FA
:102C800021FD02C09F5FECCF3091EB003E7F30937F
:102C9000EB003091ED003D7F3093ED003091EB0083
:102CA00031603093EB007093EC002093ED00509373
:102CB000F0002091EE0027FDE5CF80E008958F70B1
:102CC0008093E90081E008952091C0023091C10213
:102CD0002617370748F06115710539F42091E8008F
:102CE0002E772093E80001C0B901FC0120E06115B6
:102CF000710579F18091B8028823F1F18530F1F105
:102D00008091E80083FD3CC08091E80082FD2EC0E8
:102D10008091E80080FFEBCF2091F3008091F200DA
:102D200090E0922B6115710551F08830910538F4CF
:102D300021912093F100615071090196F3CF21E0B8
:102D4000089709F020E08091E8008E778093E800F2
:102D5000CECF2111CFCF0AC08091B802882361F075
:102D6000853061F08091E80083FD0AC08091E80021
:102D700082FFF2CF80E0089582E0089583E0089515
:102D800081E0089508958091AD0208959091B80270
:102D9000943031F58093A7027093A9026093A80242
:102DA00082E08093E9008FEF9091E800815095FDDB
:102DB00006C095ED9A95F1F700008111F5CF80914D
:102DC000E80085FF0DC040E050E063E070E087EA76
:102DD00092E00E94E4158091E8008E778093E800ED
:102DE0000895BC0184E00C94C616BC0183E00C94E9
:102DF000C616CF93DF9321E02093E9002FEF3091A7
:102E0000E800215035FD06C035ED3A95F1F7000098
:102E10002111F5CF2091E80025FF14C0EC0140E01E
:102E200050E068E070E00E94E4158091E8008E7741
:102E30008093E80088E0FE01AEEAB2E001900D92D6
:102E40008A95E1F7DF91CF9108951F93CF93DF9398
:102E5000CDB7DEB7AA970FB6F894DEBF0FBECDBFD1
:102E6000EAEBF2E08091F100819322E0E23CF2078C
:102E7000C9F78091BB02833009F460C030F481301F
:102E800071F0823009F49CC0B3C08A3009F488C064
:102E90008B3009F46BC0893009F0AAC020C0809142
:102EA000BA02813A09F0A4C08091E800877F80933C
:102EB000E8008091BE029091BF02892B21F468E066
:102EC0008EEA92E003C060E080E090E070E00E9453
:102ED00064168091E8008B778093E80089C0809128
:102EE000BA02813209F084C08091BE029091BF0283
:102EF000029708F07DC08091E800877F8093E8000A
:102F00008091E80082FD05C08091B8028111F8CF60
:102F10006FC02091F3008091F20090E0922B029715
:102F200029F48091F1008B7F813021F48091F100B0
:102F30008093AD028091E8008B7756C08091BA02F1
:102F4000813A09F055C08091BE029091BF02892B51
:102F500009F04EC08091E800877F8093E80080915F
:102F6000E80080FFFCCF8091490139C08091BA020E
:102F70008132F1F58091BE029091BF02892BC1F59B
:102F80008091E800877F8093E8000E94101680916E
:102F9000BC02809349011092AB020E94431028C0EA
:102FA0008091BA02813221F58091E800877F809379
:102FB000E8000E9410168091BD028093AC0218C0F8
:102FC0008091BA02813AA1F48091E800877F8093D2
:102FD000E8008091E80080FFFCCF8091AC028093F4
:102FE000F1008091E8008E778093E8000E9410162F
:102FF0008091E80083FFCCC18091BA029091BB021E
:10300000492F50E04A30510508F0C2C1FA01E45896
:10301000FF4F0C94F42D803821F0823809F0B8C1AC
:1030200008C08091B6029091B702992389F082601E
:103030000FC08091BE028F70873008F0A9C18093C5
:10304000E9008091EB0085FB882780F91092E90068
:103050009091E800977F9093E8008093F1001092A0
:10306000F10065C1282F2D7F09F092C1882319F046
:10307000823061F08DC18091BC02813009F088C13D
:10308000933009F080E08093B7022EC08091BC029B
:1030900081112AC08091BE028F702FEF280F263039
:1030A00008F076C18093E9002091EB0020FF1CC05E
:1030B000933021F48091EB00806214C09091EB007A
:1030C00090619093EB0021E030E0A90102C0440F31
:1030D000551F8A95E2F74093EA001092EA0080912A
:1030E000EB0088608093EB001092E9008091E8008B
:1030F000877F20C181114CC11091BC021F77809144
:10310000E3008078812B8093E3008091E800877F43
:103110008093E8000E9410168091E80080FFFCCFA9
:103120008091E30080688093E300111102C082E087
:1031300001C083E08093B8022BC18058823008F030
:1031400027C18091BC029091BD028C3D53E0950750
:1031500079F583E08A838AE289834FB7F894DE01A8
:10316000139620E03EE051E2E32FF0E05093570049
:10317000E49120FF03C0E295EF703F5FEF708E2F68
:1031800090E0EA3010F0C79601C0C0968D939D93F1
:103190002F5F243149F74FBF8091E800877F8093EC
:1031A000E8006AE270E0CE0101960E946416AEC0AB
:1031B0004091BE025091BF02292F332723303105A1
:1031C000A9F068F42130310509F4F1C0223031054D
:1031D00009F0DEC08BE390E0E0E9F3E044C0213287
:1031E000310521F12232310571F1D2C099278130A8
:1031F0009105A1F058F0029709F0CAC0EDEDF3E097
:10320000E4918E2F90E0EDEDF3E02AC0EDEFF3E0D6
:10321000E4918E2F90E0EDEFF3E022C0EBEEF3E0CF
:10322000E4918E2F90E0EBEEF3E01AC041155105CA
:1032300009F4C2C04130510509F0AAC089E090E00C
:10324000EBEBF3E010C04115510509F4BAC0413071
:10325000510509F09DC082E390E0EEE1F3E003C088
:10326000009709F495C02091E800277F2093E8009B
:103270002091C0023091C1028217930708F49C018B
:1032800040E02115310589F18091B802882309F4C5
:103290003DC08530D9F18091E80083FD37C0809131
:1032A000E80082FD2FC08091E80080FFEACF4091C6
:1032B000F3008091F20090E0942B2115310559F034
:1032C0008830910540F444914093F10031962150AB
:1032D00031090196F2CF41E0089709F040E0809172
:1032E000E8008E778093E800CCCF4111CDCF0AC0A3
:1032F0008091B802882351F0853041F08091E80038
:1033000083FD04C08091E80082FFF2CF8091E80045
:103310008B778093E8003CC08038D1F58091E8003D
:10332000877F8093E8008091B9028093F1008091BB
:10333000E8008E778093E8000E94101629C0811162
:1033400027C08091BC029091BD029927029704F595
:103350008091E800877F8093E8001091BC02109371
:10336000B9020E941016111106C08091E30087FD7A
:1033700002C081E001C084E08093B80242E061ECC9
:1033800081E00E942F1642E261EC82E00E942F163B
:103390008091E80083FF1AC08091E800877F8093C6
:1033A000E8008091EB0080628093EB000FC082E127
:1033B00090E0EBECF3E057CF89E090E0E2EAF3E055
:1033C00052CF80E490E0E0E5F3E04DCFAA960FB64F
:1033D000F894DEBF0FBECDBFDF91CF911F9108954E
:1033E0001F920F920FB60F9211242F933F934F937A
:1033F0005F936F937F938F939F93AF93BF93CF937D
:10340000DF93EF93FF93C091E900CF708091EC00C0
:10341000D82FD17080FDD0E81092E9008091F000A3
:10342000877F8093F00078940E9425171092E9001E
:103430008091F00088608093F000CD2BCF70C09316
:10344000E900FF91EF91DF91CF91BF91AF919F91F3
:103450008F917F916F915F914F913F912F910F903D
:103460000FBE0F901F901895E8EDF0E080818E7FE1
:1034700080831092E2001092DA001092E100A0EE38
:10348000B0E08C9181608C9380818F77808319BCB0
:10349000A7EDB0E08C918E7F8C9380818F7E8083AE
:1034A0001092AA020895CF92DF92EF92FF920F93AB
:1034B0001F93CF93DF93C8EDD0E088818F7E888300
:1034C000E7EDF0E080818160808384E082BF81E06D
:1034D0008093AA0288818E7F888302EE10E0F80133
:1034E00010821092DA0081EEC82ED12CF6011082E3
:1034F00088818F77888388818068888388818F7DA1
:10350000888319BC1092B8021092B9021092B702C7
:103510001092B60290EEE92EF12CF70180818B7F9C
:10352000808388818160888342E060E080E00E943F
:103530002F16F60180818E7F8083F8018081816063
:103540008083808188608083F70180818E7F808383
:10355000888180618883DF91CF911F910F91FF90C7
:10356000EF90DF90CF9008951F920F920FB60F92B9
:1035700011242F933F934F935F936F937F938F9378
:103580009F93AF93BF93EF93FF938091E10082FFEE
:1035900009C08091E20082FF05C08091E1008B7F2D
:1035A0008093E1008091DA0080FF2AC08091D800EA
:1035B00080FF26C08091DA008E7F8093DA008091B0
:1035C000D90080FF18C080E189BD82E189BD09B4BE
:1035D00000FEFDCF81E08093B8028091AA028111A4
:1035E0000FC00E94341A0E94531A8091E200846036
:1035F0008093E20005C019BC1092B8021092AA0292
:103600008091E10080FF17C08091E20080FF13C02D
:103610008091E2008E7F8093E2008091E2008061E1
:103620008093E2008091D80080628093D80019BC1A
:1036300085E08093B8028091E10084FF2EC08091E4
:10364000E20084FF2AC080E189BD82E189BD09B41E
:1036500000FEFDCF8091D8008F7D8093D8008091AF
:10366000E1008F7E8093E1008091E2008F7E809365
:10367000E2008091E20081608093E2008091B902D3
:10368000882311F084E007C08091E30087FD02C029
:1036900081E001C083E08093B8028091E10083FF64
:1036A00027C08091E20083FF23C08091E100877FE3
:1036B0008093E10082E08093B8021092B902809179
:1036C000E1008E7F8093E1008091E2008E7F809305
:1036D000E2008091E20080618093E20042E060E0DD
:1036E00080E00E942F168091F00088608093F000A7
:1036F000FF91EF91BF91AF919F918F917F916F91CA
:103700005F914F913F912F910F900FBE0F901F909F
:10371000189578941F920F920FB60F9211248F93E1
:103720009F93AF93BF938091A3029091A402A09125
:10373000A502B091A6020196A11DB11D8093A3021E
:103740009093A402A093A502B093A602BF91AF915B
:103750009F918F910F900FBE0F901F9018959C0115
:103760004FB7F8948091A3029091A402A091A50272
:10377000B091A6024FBF821B930B08952FB7F89408
:103780006091A3027091A4028091A5029091A6027B
:103790002FBF08952FB7F8948091A3029091A402AF
:1037A000A091A502B091A6022FBF089580E00895D0
:1037B0007F928F929F92AF92BF92CF92DF92EF92C1
:1037C000FF920F931F93CF93DF931F92CDB7DEB776
:1037D000762E4A0159016801082F880F110BC80184
:1037E0000E949C2C892B09F07EC08AE0809FF0010A
:1037F000819FF00D1124E050FF4F458150E04115AD
:10380000510511F041E050E08AE0809FF001819F76
:10381000F00D1124E050FF4F66817781655A7D4F8E
:10382000CE0101960E94512EF401408151816281A6
:1038300073812FB7F8948091A3029091A402A09174
:10384000A502B091A6022FBF841B950BA60BB70B48
:1038500084369105A105B10540F4B701C6010E9467
:1038600088229981891709F440C0072D770C110B24
:10387000C8010E949C2C892B09F5E114F10401F187
:103880008AE0809FF001819FF00D1124E050FF4FEE
:10389000458150E0E416F50608F4A7018AE0809F10
:1038A000F001819FF00D1124E050FF4F6681778178
:1038B000655A7D4FC5010E94512E02C010E001C023
:1038C00011E0B701C6010E94882291E029812813E6
:1038D00090E0192381F00E94BE1BF4016083718384
:1038E0008283938308C010E001C011E0A701B601F4
:1038F000C5010E94512E812F0F90DF91CF911F9112
:103900000F91FF90EF90DF90CF90BF90AF909F907E
:103910008F907F9008958091DC02811118C088EC0F
:103920009091E30097FD0AC0EFE3FCE93197F1F7CE
:1039300000C000008150A1F782E001C081E08093C7
:10394000DC02823021F40E94341A1092B80281E025
:103950009091DC02913009F080E00895F894E82F0E
:10396000E295EF70F0E031A1282F2F7081E090E018
:1039700001C0880F2A95EAF7982F9095932391A379
:1039800092A1892B82A3789408959091770292FF57
:103990000DC0282F2871283019F4877F846006C055
:1039A000282F2471243011F48B7F886093FF0DC081
:1039B000282F2871283119F4877E846106C0282FAA
:1039C0002471243111F48B7E88612091780220FFCC
:1039D0000DC0382F3871383019F4877F816006C0E8
:1039E000382F3171313011F48E7F886021FF0DC086
:1039F000282F2871283119F4877E816106C0282F6D
:103A00002171213111F48E7E886194FD877E0895A5
:103A10007F928F929F92AF92BF92CF92DF92EF925E
:103A2000FF920F931F93CF93DF93CDB7DEB72C9701
:103A30000FB6F894DEBF0FBECDBF9E012F5F3F4F84
:103A4000790188E0D9011D928A95E9F700E911E032
:103A5000690184E9882E81E0982EAA24A394B12CD0
:103A6000F80180818F3F09F448C0F894E82FE2956F
:103A7000EF70F0E021A18F70A50102C0440F551F27
:103A80008A95E2F7CA01922F982B91A392A1809573
:103A9000892382A3789400C0E8E9F1E020E030E0D7
:103AA000712C81918F3FB9F0A82FA295AF70B0E033
:103AB00090964C9150E08F70DA0102C0B595A795B1
:103AC0008A95E2F7A0FD07C08A2D022E01C0880F5B
:103AD0000A94EAF701C080E0782A2F5F3F4F283030
:103AE0003105F9F6F80180818F3F11F00E94AE1C7C
:103AF000F0EAFA95F1F7D6017C920F5F1F4FBFEF06
:103B0000CB1ADB0A8016910609F0AACF48E050E0F4
:103B1000B7018DE792E00E94442E8C01892B41F081
:103B200088E0F701ADE7B2E001900D928A95E1F7E8
:103B3000F09086020115110549F081E08093C402DE
:103B40000E94CA1B9093C3028093C2028091C40258
:103B50008823B9F08091C2029091C3020E94AF1BEA
:103B6000059778F0ADE7B2E0EF2DF0E0E757FD4FB5
:103B700081E892E02D9121938A179B07D9F7109243
:103B8000C4020115110509F0D7C30E948B1CE091F6
:103B90008602882309F427C319861A861B861C8689
:103BA0000E2F10E007571D4F80917202FE013D96C7
:103BB0007F018A3058F440EB51E1BE01675F7F4FCF
:103BC000C8010E947015882361F10AC08091C50266
:103BD0009091C6020E94AF1B843F914060F732C0B3
:103BE0004AE551E1BE01675F7F4FC8010E94701531
:103BF0008823B9F040E051E1BE01675F7F4FC80103
:103C00000E947015882369F044E950E1BE01675FA6
:103C10007F4FC8010E947015882319F0109272021C
:103C200019C0809172028F3F19F08F5F80937202EA
:103C3000809172028A3070F00E94CA1B9093C60273
:103C40008093C502E0918502F0E0E757FD4FDE0169
:103C5000199613C0E0918502F0E0E757FD4FDE01B1
:103C6000199600E08D919081981711F0808301E002
:103C70003196AE15BF05B1F706C011921D92EA1636
:103C8000FB06D9F701E08091C902882371F0809189
:103C9000C7029091C8020E94AF1B833E944028F057
:103CA00080EE0E943A2A1092C9028091D70288239E
:103CB00009F444C38091D602882309F43FC380915C
:103CC000D4029091D5020E94AF1B8139914008F433
:103CD00035C31092D7028091CA029091CB020D9702
:103CE000D9F48091CC029091CD02892BA9F48091D6
:103CF000CE029091CF02892B79F48091D0029091DD
:103D0000D102892B49F48091D2029091D302892B60
:103D100019F484E30E9476108091CA029091CB023C
:103D20000497D9F48091CC029091CD02892BA9F40B
:103D30008091CE029091CF02892B79F48091D002AC
:103D40009091D102892B49F48091D2029091D302B3
:103D5000892B19F484E30E9476108091CA02909115
:103D6000CB020897E1F48091CC029091CD02892B8F
:103D7000B1F48091CE029091CF02892B81F4809191
:103D8000D0029091D102892B51F48091D20290916E
:103D9000D302892B21F488E094E10E9403288091CA
:103DA000CA029091CB024297D9F48091CC029091B3
:103DB000CD02892BA9F48091CE029091CF02892B5C
:103DC00079F48091D0029091D102892B49F48091AD
:103DD000D2029091D302892B19F483E30E947610CA
:103DE0008091CA029091CB024897D9F48091CC027D
:103DF0009091CD02892BA9F48091CE029091CF02AF
:103E0000892B79F48091D0029091D102892B49F4C9
:103E10008091D2029091D302892B19F48FE20E94F3
:103E200076108091CA029091CB024697D9F4809186
:103E3000CC029091CD02892BA9F48091CE02909171
:103E4000CF02892B79F48091D0029091D102892BF5
:103E500049F48091D2029091D302892B19F48DE21A
:103E60000E9476108091CA029091CB02439739F557
:103E70008091CC029091CD02892B09F58091CE02E0
:103E80009091CF02892BD9F48091D0029091D102E8
:103E9000892BA9F48091D2029091D302892B79F4D5
:103EA00080EE0E94962A81EE0E94962A84E20E9469
:103EB000761081EE0E943A2A80EE0E943A2A809182
:103EC000CA029091CB02099739F58091CC0290916A
:103ED000CD02892B09F58091CE029091CF02892BDA
:103EE000D9F48091D0029091D102892BA9F48091CC
:103EF000D2029091D302892B79F480EE0E94962A07
:103F000081EE0E94962A85E20E94761081EE0E9440
:103F10003A2A80EE0E943A2A8091CA029091CB02FE
:103F2000C79709F58091CC029091CD02892BD9F4E5
:103F30008091CE029091CF02892BA9F48091D0027A
:103F40009091D102892B79F48091D2029091D30281
:103F5000892B49F483EE0E94962A8EE40E94761003
:103F600083EE0E943A2A8091CA029091CB02C697B2
:103F700009F58091CC029091CD02892BD9F48091E2
:103F8000CE029091CF02892BA9F48091D00290911A
:103F9000D102892B79F48091D2029091D302892B9E
:103FA00049F483EE0E94962A8BE40E94761083EEF9
:103FB0000E943A2A8091CA029091CB020C97E1F4B8
:103FC0008091CC029091CD02892BB1F48091CE02E8
:103FD0009091CF02892B81F48091D0029091D102EF
:103FE000892B51F48091D2029091D302892B21F434
:103FF00089EC94E00E94A4278091CA029091CB02A0
:104000000F97D9F48091CC029091CD02892BA9F41D
:104010008091CE029091CF02892B79F48091D002C9
:104020009091D102892B49F48091D2029091D302D0
:10403000892B19F483E00E94B50F8091CA029091F8
:10404000CB02409769F58091CC029091CD024797C1
:1040500039F58091CE029091CF02892B09F580919C
:10406000D0029091D102892BD9F48091D202909103
:10407000D302892BA9F485EC94E00E94A42783E362
:104080000E9476108FEB94E00E94A4278FE20E949A
:1040900076108DE20E94761085EB94E00E94A427B2
:1040A0008091CA029091CB024097A1F58091CC02F9
:1040B0009091CD02469771F58091CE029091CF02FA
:1040C000892B41F58091D0029091D102892B11F575
:1040D0008091D2029091D302892BE1F481EB94E09C
:1040E0000E94A42783E30E9476108BEA94E00E944A
:1040F000A4278FE20E9476108DE20E94761080EA5B
:1041000094E00E94A42783E30E94761089E994E05A
:104110000E94A4278091CA029091CB02409769F532
:104120008091CC029091CD02459739F58091CE02D5
:104130009091CF02892B09F58091D0029091D10204
:10414000892BD9F48091D2029091D302892BA9F4C2
:104150008AE894E00E94A4278FE20E9476108DE204
:104160000E9476108FE794E00E94A42783E30E94C8
:10417000761088E794E00E94A4278091CA0290916B
:10418000CB02409709F0DAC08091CC029091CD0229
:104190004A9709F0D3C08091CE029091CF02892B2B
:1041A00009F0CCC08091D0029091D102892B09F006
:1041B000C5C08091D2029091D302892B09F0BEC074
:1041C0008FE694E00E94A42783E30E94761082E5A4
:1041D00094E00E94A42783E30E94761081E094E09B
:1041E0000E94A427ABC0F0E0E757FD4FF89484E0AD
:1041F000ACE5B2E001900D928A95E1F764E070E0E1
:104200008CE592E00E94882280935B027894F89477
:10421000E0919702F0E0EC56FD4F80818987809312
:10422000610261E070E0CE0109960E9488228093CD
:1042300060027894F894C0906202D0906302E0909B
:104240006402F09065028091D8029091D902A09109
:10425000DA02B091DB02C816D906EA06FB06D1F0F5
:10426000C092D802D092D902E092DA02F092DB0238
:104270000E948B1C81110EC00E94BE1BC61AD70A59
:10428000E80AF90AC0923003D0923103E092320377
:10429000F09233037894F89480916D02882309F4A6
:1042A00049C080FF24C0909166028091250390FF51
:1042B00009C081608093250360E0892F86950E9464
:1042C000E72915C08E7F809325030E94B722809135
:1042D000E50281608093E5024FEF50E782E04150B4
:1042E00050408040E1F700C000000E94D922809138
:1042F0006D0281FF09C020E040916902609168026F
:10430000809167020E94BE2580916D0282FF09C0E4
:1043100080916C02882319F00E94BE2202C00E9484
:10432000B72280916D0283FF03C081E08093E00299
:1043300010926D02789402C001E010E0802F2C965C
:104340000FB6F894DEBF0FBECDBFDF91CF911F91A6
:104350000F91FF90EF90DF90CF90BF90AF909F9024
:104360008F907F9008950895CF93DF93EC01E5E25D
:10437000F3E0438162818C810E94CA298C818F5F26
:104380008C83DF91CF910895CF93DF93EC01EC8183
:10439000F0E0ED52FB4F4491E5E2F3E06281818170
:1043A0000E94CA298C818F5F8C83DF91CF91089501
:1043B0001F920F920FB60F9211248F939F93AF937A
:1043C000BF9380913403811113C08091A302909117
:1043D000A402A091A502B091A6024196A11DB11D13
:1043E0008093A3029093A402A093A502B093A60287
:1043F000BF91AF919F918F910F900FBE0F901F9023
:1044000018950F931F930E948B1C882321F01F91F6
:104410000F910C94BE1B0E94BE1B009130031091A3
:1044200031032091320330913303600F711F821FDB
:10443000931F1F910F9108950E948B1C81110C9462
:10444000CA1B0E940122CB0108959C012A5F3F4FA5
:10445000FC014281461301C0128201968217930724
:10446000B9F708959C01FC0132969FEF80E04191DD
:10447000461789F09F3F19F4411101C0982F8F5FB3
:104480008630A9F79F3F39F0F901E90FF11D97FD3B
:10449000FA9562830895089520912E0330912F0399
:1044A0002817390771F090932F0380932E03E09122
:1044B0002C03F0912D03309721F00084F185E02D3D
:1044C0000994089520912A0330912B032817390766
:1044D00071F090932B0380932A03E0912C03F091C9
:1044E0002D03309721F00680F781E02D099408957F
:1044F0000E948B1C882351F0E0912C03F0912D0336
:10450000309721F00190F081E02D099480E008952A
:10451000FC01680F791F8FEF91E3E617F70771F041
:104520002191822728E030E087FF03C0880F892788
:1045300001C0880F21503109B9F7EFCF089590914C
:10454000250390FF04C09695981740F003C0811191
:1045500005C090E0961710F40C94302A61E00C949A
:10456000E729882311F0FA0101C0FB010994E3EE69
:10457000F2E0118282818460828308956091250334
:10458000669570E04BE050E08AE491E00E94372E9F
:10459000892B19F481E08093E4020E941C229093FD
:1045A000DE028093DD028091E50284608093E50263
:1045B0000895309159018091250380FF16C0E09144
:1045C000580163E0E69FF0011124E751FD4F539A33
:1045D0008BB1877F9BB198602FB7F894AF0163E0F0
:1045E000369F400D511D112414C080915A019091A5
:1045F0005B01891720F7E82FF0E0AF01440F551F4A
:10460000E40FF51FE751FD4F1182108212828F5F78
:10461000F0CFE417F50789F0319168E09BB900000D
:1046200000C037FF8BB9330F000000C000C000C0CE
:104630008BB900C06A9591F7ECCF2FBF8FE594E05E
:104640000197F1F700C0000008950F931F93CF93D7
:10465000DF93EC0100E010E080915C01282F30E056
:10466000021713073CF590915A019801290F311D4B
:10467000A901440F551F240F351F27513D4F869523
:1046800090E04C81081719071CF4442349F002C03C
:10469000411106C040912803473918F046E901C08E
:1046A00040E060912703809126030E9434290F5F28
:1046B0001F4FD2CF0E94D9228C8190E00196817049
:1046C00099278C83DF91CF911F910F9108958F923D
:1046D0009F92AF92BF92CF92DF92EF92FF920F9391
:1046E0001F93CF93DF938C01FC014481C42FD0E052
:1046F0009E01DE010E94022E9B01AC010E94182E39
:104700006B017C01E0E2F0E0EC1BFD0BA5E5B0E005
:104710009B01AC010E94182E4B015C019F01DF013F
:104720000E94FA2D9B01AC010E94232E9B01AC013B
:104730002C0D3D1D4E1D5F1DC501B4010E94D22DE3
:10474000C22FD22F2A3228F4F3E02F9F9001112498
:104750000DC025E530E02C1B3109C901880F991FD8
:10476000280F391F37FF02C02F5F3F4F3595279520
:10477000C22FC095F12C85E5E82EED1A80915C01E1
:10478000F816E0F4F1FC02C08E2D01C08D2F90913F
:104790005A012F2D30E0290F311DA901440F551F5B
:1047A000240F351F27513D4F4C2FC73908F046E9DC
:1047B000609127030E943429F394E0CF0E94D9220C
:1047C000F8018481811102C091E003C0803219F4A4
:1047D0009FEF9093570190915701890FF8018483BF
:1047E000DF91CF911F910F91FF90EF90DF90CF90CD
:1047F000BF90AF909F908F9008951F93CF93DF93BA
:10480000EC018C81811109C081E08C831092E70258
:1048100092E0909356018093550180915A019091B6
:104820005B01891770F4E82FF0E09F01220F331F1E
:10483000E20FF31FE751FD4F1182108212828F5F4A
:10484000F0CF10E060915C011617D8F5E12FF0E091
:1048500070E0CF010E94BE2D20915A01820F20915D
:10486000E702022E000C330B90E0E217F307E4F0AE
:1048700020915601022E000C330B2E173F07A4F097
:104880009C01220F331F820F931F9C0127513D4F24
:1048900040912803473908F046E960912703809149
:1048A00026030E9434290BC0FC01EE0FFF1F8E0F60
:1048B0009F1FFC01E751FD4F1182108212821F5F82
:1048C000C1CF0E94D922809155012091E702280F83
:1048D0002093E70290915601980F90935601191674
:1048E0005CF4022E000C330B40915C0150E041500F
:1048F00051092417350734F0819580935501813093
:1049000009F41C82DF91CF911F9108957F928F92BD
:104910009F92AF92BF92CF92DF92EF92FF920F934E
:104920001F93CF93DF93EC018A8180FF03C0BB24E8
:10493000BA9402C0BB24B3948C8181110DC081E074
:10494000B81206C080915C0181508093E60202C0DB
:104950001092E60281E08C83A12C44E1742E8090B9
:104960005C01A81408F044C080915A01CA2CD12CD3
:104970008601080F111DC801880F991F080F191F04
:1049800007511D4FF80111821082128234E0E32E8C
:10499000F12C912C8091E602890D85312CF0672D48
:1049A0000E949C2D892F02C087FD880D082E000CC7
:1049B000990BC816D906A9F4809128038E9DA001F1
:1049C0008F9D500D1124559547955595479547391D
:1049D00008F046E9980160912703809126030E9420
:1049E00034299B0CF1E0EF1AF108A1F6A394B7CF9C
:1049F0000E94D9228091E60291E0B9120EC0811185
:104A000007C080915C0181508093E6021C820FC038
:104A100081508093E602BC820AC090E001966091CA
:104A20005C0170E00E94BE2D8093E6028C83DF91D2
:104A3000CF911F910F91FF90EF90DF90CF90BF909B
:104A4000AF909F908F907F900895FF920F931F9348
:104A5000CF93DF93EC01F12C0FEF10E060915C013C
:104A6000F61608F580915A012F2D30E0280F311DE0
:104A7000C901880F991F280F391F27513D4F4091B9
:104A80002803473908F046E970E0C8010E94BE2DAE
:104A9000962F8C8160912703F99E800D11240E942E
:104AA0003429F394DBCF0E94D9229A818C8190FF24
:104AB00002C08F5F01C081508C83DF91CF911F9125
:104AC0000F91FF9008959091250390FF16C090914B
:104AD0005A0120915B01921770F4E92FF0E0DF0199
:104AE000AA0FBB1FEA0FFB1FE751FD4F81836083B5
:104AF00042839F5FF0CF0C94D92208950F931F93A8
:104B0000CF93DF9300D01F92CDB7DEB78C01809199
:104B1000E80281110AC09E012F5F3F4F46E96FEF07
:104B20000E9434298A818093E802F80184818130CF
:104B300051F028F0823061F44091E8020AC080917F
:104B4000E80240E007C06091E80240E080E003C076
:104B500040E080E060E00E946325F801848190E0FD
:104B6000019663E070E00E94BE2D84830F900F9049
:104B70000F90DF91CF911F910F910895AF92BF9247
:104B8000CF92DF92EF92FF920F931F93CF93DF9319
:104B900000D01F92CDB7DEB7082FF62E142FE22ECD
:104BA0009091250390FF85C0E92FE695AE2FB0E0E8
:104BB000A055BE4F8C918093E3029E7F923081F48A
:104BC000473908F046E99E012F5F3F4F6F2D802F38
:104BD0000E9434294B8169818A810E94632546C0E5
:104BE000823019F41091280341C0863019F40091E5
:104BF00026033CC08930D9F38931C1F5E9518E2FA4
:104C00008170D82EE695F0E0E253FB4FA590B4906A
:104C1000C12CBB2460915C01C61630F52C2D30E010
:104C2000A29EC001A39E900DB29E900D112470E033
:104C30000E94AA2D802FD11002C0860F01C0861BB2
:104C400090915A01290F311DA901440F551F240FBE
:104C5000351F27513D4F412F173908F046E96F2D79
:104C60000E943429C394D6CF0E94D9228091260372
:104C7000081308C080912703F81204C0809128030C
:104C8000181729F08091E50282608093E502009375
:104C90002603F092270310932803EE2051F0609131
:104CA00025037091260380912703909128030E9489
:104CB000E8280F900F900F90DF91CF911F910F91E7
:104CC000FF90EF90DF90CF90BF90AF9008959C0140
:104CD0003A9521153F4130F5BC0166277270AC0151
:104CE000442754709C012227387094FF0FC090FF16
:104CF00002C080E101C080E0672B09F08062452B93
:104D000009F08064232B79F080680895892F8170E1
:104D1000672B09F08260452B09F08460232B19F082
:104D20008860089580E008951F93CF93DF93CDB7F7
:104D3000DEB767970FB6F894DEBF0FBECDBF4B8BC3
:104D40005C8B6D8B7E8B8F8B61111092440286E0A1
:104D50009E01235F3F4FD901E82F1D92EA95E9F7A5
:104D600095E0FE017396D90101900D929A95E1F7B5
:104D70009C894E895F897B897D879E876F87598B48
:104D8000488BF901DE01179601900D928A95E1F7A3
:104D9000CE0107960E94B30D81113EC086E0FE0150
:104DA0003796DE01119601900D928A95E1F7FF8109
:104DB000E8856A857B856115710531F0EF3F31F437
:104DC00081E0FF3F19F403C081E001C080E080FD75
:104DD00023C02091100230E0C90101968770992705
:104DE0004091410250E08417950779F1F983EA83F5
:104DF0007D836C8396E0929FD001939FB00D112428
:104E0000AF5EBD4FFE01319601900D929A95E1F78C
:104E1000809310020E94990C16E0809141029091BB
:104E20001002891709F1189FC00111248F5E9D4F50
:104E30000E94B30D8823C1F08091410290E0019659
:104E40008770992780934102E8CF1092AB020E94AD
:104E500043101092100210924102EAE0F2E086E064
:104E6000DF011D928A95E9F767960FB6F894DEBFC9
:104E70000FBECDBFDF91CF911F910895DF92EF92CA
:104E8000FF920F931F93CF93DF93E82FF0E0ED5F36
:104E9000F94FD490282F26952695269530E0F901D4
:104EA000ED50FA4F0491877010E0082E02C015955E
:104EB00007950A94E2F701701127F901ED51FA4FB5
:104EC000E490F12C082E02C0F594E7940A94E2F7DE
:104ED00091E0E922FF24F901ED52FA4FC491D0E0AC
:104EE00002C0D595C7958A95E2F7C170DD270115F7
:104EF000110519F081EE0E94962AE114F10419F0CF
:104F000086EE0E94962A8D2D0E947610EF2819F0C9
:104F100086EE0E943A2A012B19F081EE0E943A2A6D
:104F2000CD2B51F08CE2DF91CF911F910F91FF902B
:104F3000EF90DF900C947610DF91CF911F910F913D
:104F4000FF90EF90DF900895FF920F931F93CF9300
:104F5000DF938C018AE0F82EF8018491882309F40C
:104F60004CC0813009F042C0E8012196FE018491D5
:104F7000813031F42196FE0184910E94761039C06F
:104F8000823039F4E8012296FE0184910E94962A2B
:104F900030C0833039F4E8012296FE0184910E94EA
:104FA0003A2A27C0843029F5E8012296FE0124918F
:104FB00080E090E030E0205331092A30310560F480
:104FC000F89EA001F99E500D1124C901840F951F70
:104FD0002196FE012491EECF009759F0EFE9FFE012
:104FE0003197F1F700C000000197F6CF0E943E27ED
:104FF000E8018E010F5F1F4FAFCFDF91CF911F915F
:105000000F91FF9008950F931F93CF93DF93EC01BF
:105010008C01005E11090830110510F0009729F489
:105020000E9467260E946C1004C00E9467260E949E
:1050300057108C2F0E94962A8C2F0E943A2ACE015C
:105040000830110510F0CD2B41F40E946726DF9146
:10505000CF911F910F910C9461100E946726DF91F0
:10506000CF911F910F910C944C10CF93C62F40916C
:1050700073025091740260917502709176028111F1
:105080001EC0411551056105710531F07695679592
:105090005795479540FD0DC084EECC2321F00E942A
:1050A000761089EA03C00E9476108AEA0E94761080
:1050B00030C0CC2311F08DEBF9CF8EEBF7CF41153B
:1050C00051056105710531F07695679557954795BE
:1050D00040FD06C0CC2311F08BE4E8CF8EE4E6CF90
:1050E0008091C902811106C081E08093C90280EEDF
:1050F0000E94962A0E94CA1B9093C8028093C702FE
:10510000CC2319F08BE292E002C08BE290E00E9487
:10511000032880E0CF910895E5E2F3E0438128E0A1
:10512000421B08F440E021E0628181810C94BE259D
:10513000E5E2F3E0438128E0420F08F44FEF21E07D
:10514000628181810C94BE25E5E2F3E0628128E072
:10515000621B08F460E021E0438181810C94BE254C
:10516000E5E2F3E0628128E0620F08F46FEF21E0EE
:10517000438181810C94BE25E5E2F3E0818121E049
:105180004381628188500C94BE25E5E2F3E0818181
:1051900021E043816281885F0C94BE2580912503C4
:1051A000282F269530E02115310519F48170826091
:1051B00005C02532310524F0817088648093250371
:1051C00080912803873918F086E980932803089591
:1051D000CF92DF92EF92FF926B017C010E94CE286A
:1051E000B701A60188E090E0FF90EF90DF90CF90AC
:1051F0000C947A2D80912903882319F08150809393
:1052000029036091250370912603809127039091D3
:1052100028030C94E82880912903833018F48F5FC9
:1052200080932903609125037091260380912703C1
:10523000909128030C94E828E5E2F3E083E0808372
:1052400011828FEF828386E983831482A3EEB2E01A
:1052500012968C911297836012968C936081718163
:10526000828193810C94E828AF92BF92CF92DF9213
:10527000EF92FF920F931F93CF93DF93E82EF62EBA
:10528000E901E42FF0E0611106C0ED57F94FE49118
:105290004E2F2E2F71C0062F10E0ED57F94F44917D
:1052A000F42FC42ED12C26E0829FC00111242FEFB1
:1052B00030E0B9010E94AA2D5BEA5603C001579F56
:1052C000900D11248E0D911D8E0D911D582F550F8F
:1052D000580FD901A01BB10BAC9DC001AD9D900D25
:1052E000BC9D900D1124E92FF59ED0011124AB2F08
:1052F000BB277901EA1AFB0AEC9CD001ED9CB00DAA
:10530000FC9CB00D11245901A51AB108A09E700192
:10531000A19EF00CB09EF00C1124EF2CFF242E194E
:105320003F092C9D80012D9D100D3C9D100D1124D9
:10533000212F6230710591F048F461157105E1F09B
:1053400061307105B9F4242F4B2F16C064307105FC
:1053500069F040F06630710579F00CC0242F492FB8
:10536000E12F0AC0492FEF2F2B2F06C0292FE42F42
:10537000412F02C0292FEB2F49832883EA83DF9135
:10538000CF911F910F91FF90EF90DF90CF90BF9042
:10539000AF900895CF93DF9300D01F92CDB7DEB7C3
:1053A0009091250390FF0DC0473908F046E99E0112
:1053B0002F5F3F4F0E9434294B8169818A810E946F
:1053C00063250F900F900F90DF91CF9108959091EA
:1053D000250390FF3BC09170811102C0926006C00E
:1053E000853210F0986402C0880F982B90932503A3
:1053F0008091E50281608093E502662351F060911F
:1054000025037091260380912703909128030E9421
:10541000E82860912503669570E04BE050E08AE44F
:1054200091E00E94372E892B19F00E94B72202C00A
:105430000E94BE2281E08093E00220E04091280398
:1054400060912703809126030C94BE2508958091D6
:1054500025038695815009F484E261E00C94E729E4
:105460008091250386958F5F853208F081E061E0A9
:105470000C94E729882309F458C0682F823869F40E
:105480000E94782281FF51C069E38AED91E00E9479
:1054900032220E94440C69E30EC0833891F40E94CA
:1054A000782280FF42C063E58AED91E00E943222BB
:1054B0000E94440C63E58AED91E00E9425220C9441
:1054C000440C843869F40E94782282FF2EC067E47D
:1054D0008AED91E00E9432220E94440C67E4EBCFF7
:1054E0008CEF860F813A38F380E2860F883070F4B3
:1054F000677081E090E001C0880F6A95EAF78095B7
:105500009091AB0289238093AB02D9CF8BE5860FB4
:10551000833020F480E090E00C946222685A673176
:1055200020F480E090E00C944C220895CF938823DF
:1055300009F496C0C82F8238B1F40E94782281FD08
:105540008FC069E38AED91E00E9432220E94440CF0
:105550002FEF81EE94E0215080409040E1F700C0B1
:10556000000069E317C08338E1F40E94782280FDCF
:1055700077C063E58AED91E00E9432220E94440CDC
:105580002FEF81EE94E0215080409040E1F700C081
:10559000000063E58AED91E00E942522CF910C94F2
:1055A000440C8438B1F40E94782282FD59C067E42B
:1055B0008AED91E00E9432220E94440C2FEF81EE8E
:1055C00094E0215080409040E1F700C0000067E483
:1055D000E1CF8CEF8C0F813A80F4ECEDF1E082EEBC
:1055E00091E02191C217A1F18E179F07D1F76C2F7F
:1055F0008AED91E00E943222D1CF80E28C0F883078
:1056000068F4C77081E090E001C0880FCA95EAF79E
:105610009091AB02892B8093AB02C0CFEBE5EC0FEE
:10562000E33040F4F0E0E35AFE4F808190E0CF9108
:105630000C946222C85AC73198F4EC2FF0E0EE0FB8
:10564000FF1FE05AFE4F80819181CF910C944C2234
:105650006C2F8AED91E00E9425220E94440CC7CF56
:10566000CF9108958EE14A9B02C08150E1F74A9B99
:10567000FECF08955A9880E28A95F1F75A9A0895D4
:10568000FC012AE02A95F1F728E090E080E031E083
:1056900040E14A95F1F7880F4A9B02C08160932749
:1056A00000C0000040E14A95F1F7215089F720E160
:1056B0002A95F1F729B100C0000030E13A95F1F7E1
:1056C00022FB222720F992272081920F90830895B0
:1056D000EF92FF920F931F93CF93DF931F92CDB75B
:1056E000DEB719828C017C01E60EF11C0E151F0538
:1056F00051F00E94322BCE0101960E94402BF801FE
:1057000081938F01F3CF81E09981911180E00F9017
:10571000DF91CF911F910F91FF90EF900895529AD2
:105720005A9A089552985A9AEA9AE9E6F0E08081E6
:105730008F7C80830895615091E001C0990F6A9534
:10574000EAF720E031E0992361F0492F482319F06E
:105750005A9A232701C05A9840E24A95F1F7969544
:10576000F2CF222311F05A9A01C05A9880E28A950A
:10577000F1F75A980895FF920F931F93CF93DF93F9
:10578000EC018C01060F111DC017D10741F0F990F3
:105790000E943A2B68E08F2D0E949B2BF5CFDF9162
:1057A000CF911F910F91FF9008951F920F920FB606
:1057B0000F921124EF92FF920F931F932F933F9319
:1057C0004F935F936F937F938F939F93AF93BF9309
:1057D000EF93FF93CF93DF931F92CDB7DEB719827C
:1057E0000E94322BCE0101960E94402BA82FA69535
:1057F000A695A6959A2F969595702A2F2570920FAB
:10580000292F237096959695920F877089137CC0E7
:105810008981811179C0A73008F076C080E18A952E
:10582000F1F75A9A529AB2E0BA95F1F700C05A9835
:10583000EA2EF12CEAE0AE9FD0011124A050BF4F18
:105840001896ED91FC9119973097B1F060918E0107
:1058500070918F0116962D913C911797260F371F47
:1058600013968D919C911497680F791F15964C9102
:10587000159712968C9109958AE08E9DF0018F9D67
:10588000F00D1124E050FF4F6581662351F08091A7
:105890008E0190918F0126813781820F931F0E9484
:1058A000BB2B0E943A2BF0E1FA95F1F75A985298E7
:1058B0005A9A80E18A95F1F78AE08E9D80018F9D4A
:1058C000100D112400501F4FD80112966C911297A1
:1058D000662399F080918E0190918F0113962D91FE
:1058E0003C911497820F931F0E94682BD801ED9171
:1058F000FC91811105C082E004C0D801ED91FC91BA
:1059000088E080830E94322B0F90DF91CF91FF912E
:10591000EF91BF91AF919F918F917F916F915F9127
:105920004F913F912F911F910F91FF90EF900F900A
:105930000FBE0F901F9018950F931F93CF93DF9377
:10594000873091050CF0A9C02AE0289FF001299F1B
:10595000F00D1124E050FF4F20813181232B09F4F9
:105960009CC0EC01F894529A5A9885E08A95F1F718
:1059700000008C2F869585709C2F9570890F982F2D
:105980009370869586958E0123E0000F111F2A954E
:10599000E1F7890F082B0E943A2BA4E0AA95F1F7B2
:1059A00000C068E0802F0E949B2BB0E1BA95F1F710
:1059B00052985A9A4A9902C000C0FCCF87E090E002
:1059C0004A9B17C0019799F4529A5A9A8AE08C9F81
:1059D000F0018D9FF00D1124E050FF4F0190F081F8
:1059E000E02D81E08083789481E090E058C000C091
:1059F000E7CF8AE08C9F80018D9F100D112400500D
:105A00001F4FF80165816623B9F080918E01909156
:105A10008F0126813781820F931F0E94682B81118D
:105A20000BC0529A5A9AD801ED91FC9182E0808382
:105A3000789482E090E033C00E94322BB0E2BA95B5
:105A4000F1F75A98529AE0E1EA95F1F78AE08C9FD3
:105A5000F0018D9FF00D1124E050FF4F628166230D
:105A600051F080918E0190918F0123813481820FBA
:105A7000931F0E94BB2B0E943A2B8AE08C9FF0015F
:105A80008D9FF00D1124E050FF4F0190F081E02D2B
:105A90001082789480E090E002C084E090E0DF9192
:105AA000CF911F910F910895F999FECF92BD81BDBD
:105AB000F89A992780B50895A6E1B0E044E050E057
:105AC0000C948E2DA8E1B0E042E050E00C948E2DB5
:105AD000262FF999FECF92BD81BDF89A019700B4A7
