:100000000C94F2050C9439060C9439060C946A2F62
:100010000C9439060C9439060C9439060C94390664
:100020000C9439060C9439060C945D240C94992395
:100030000C94A1270C9439060C9439060C943906BB
:100040000C9439060C9439060C9439060C94390634
:100050000C9439060C9454270C9439060C943906E8
:100060000C9439060C9439060C9439060C94390614
:100070000C9439060C9439060C9439060C94390604
:100080000C9439060C9439060C9439060C943906F4
:100090000C9439060C9439060C9439060C943906E4
:1000A0000C9439060C9439060C943906800B800B9D
:1000B000BA0BBA0B0B0C960D960D960D270C050D71
:1000C000160D160DE11DE11DF41DF41DEA1DF41DB4
:1000D000F41DF41DE11DE11DEF1DF41DF41DEF1DC8
:1000E000B321DA217B23DA217B23262249227B23B9
:1000F0003E234D237267626C696768745F6765743D
:100100005F737065656428293A2025640A00726768
:10011000626C696768745F6765745F76616C2829D3
:100120003A2025640A007267626C696768745F67C9
:1001300065745F73617428293A2025640A00726728
:10014000626C696768745F6765745F6875652829A4
:100150003A2025640A007267626C696768745F6799
:1001600065745F6D6F646528293A2025640A007202
:1001700067626C696768745F69735F656E61626C02
:10018000656428293A2025640A004C696768746907
:100190006E67206F6E2F6F66660A00556E69636F1B
:1001A000646520696E707574206D6F646520736579
:1001B0007420746F3A2025750A007267626C696753
:1001C00068742064697361626C65205B45455052B8
:1001D0004F4D5D3A207267626C696768745F636F48
:1001E0006E6669672E656E61626C65203D202575BF
:1001F0000A007267626C6967687420656E61626C80
:1002000065205B454550524F4D5D3A207267626CE8
:10021000696768745F636F6E6669672E656E616299
:100220006C65203D2025750A007267626C696768FD
:100230007420746F67676C65205B454550524F4D65
:100240005D3A207267626C696768745F636F6E669F
:1002500069672E656E61626C65203D2025750A0018
:1002600044454255473A2064697361626C65642E67
:100270000A0044454255473A20656E61626C6564E8
:100280002E0A00556E69636F646520696E7075741F
:10029000206D6F646520696E697420746F3A202543
:1002A000750A007267626C696768745F636F6E6677
:1002B00069672E7370656564203D2025640A0072AD
:1002C00067626C696768745F636F6E6669672E76D4
:1002D000616C203D2025640A007267626C69676862
:1002E000745F636F6E6669672E736174203D2025AD
:1002F000640A007267626C696768745F636F6E6638
:1003000069672E687565203D2025640A007267685C
:100310006C696768745F636F6E6669672E6D6F6482
:1003200065203D2025640A007267626C6967687405
:100330005F636F6E6669672E656E61626C65203DF6
:100340002025640A007267626C696768745F636F76
:100350006E66696720454550524F4D3A0A007267F4
:10036000626C696768745F696E6974207267626C39
:10037000696768745F636F6E6669672E6D6F646529
:10038000203D20302E2057726974652064656661B7
:10039000756C742076616C75657320746F204545AB
:1003A00050524F4D2E0A007267626C696768745F25
:1003B000696E6974206565636F6E6669672069732D
:1003C000206E6F7420656E61626C65642E0A007227
:1003D00067626C696768745F696E697420737461C1
:1003E0007274210A007267626C696768745F696E73
:1003F00069742063616C6C65642E0A007267626CBC
:100400006967687420656E61626C65205B4E4F455C
:100410004550524F4D5D3A207267626C696768744F
:100420005F636F6E6669672E656E61626C65203D05
:100430002025750A004B6579626F617264207374C0
:100440006172742E0A000A0025303862003A2000DA
:1004500025303258000A722F632030313233343560
:1004600036370A007267626C6967687420616E696A
:100470006D6174696F6E207469636B207265706F53
:10048000727420746F20736C6176650A0064321494
:100490000A0025303258006B6579626F6172645FC3
:1004A0007365745F6C65643A20005B735D00546132
:1004B0007267657420636F6E6E65637465640D0AA0
:1004C0000054617267657420646973636F6E6E6552
:1004D000637465642C207468726F74746C696E67E1
:1004E00020636F6E6E656374696F6E2061747465EE
:1004F0006D7074730D0A00726D65720A0A2B3439BF
:1005000020313733203234203138203531350A6DEF
:1005100061696C4073746F65726D65722D636F6E87
:1005200073756C74696E672E64650A7777772E73BE
:10053000746F65726D65722D636F6E73756C74691F
:100540006E672E64650A0A00726D65722D636F6EA8
:1005500073756C74696E670A44722E2050657465F9
:1005600072205374000A0A2D2D0A0A737400726DEA
:1005700065720A0A00650A5065746572205374003A
:10058000467265756E646C696368652047720072B7
:100590006D65720A0A00650A5065746572205374AD
:1005A000006E652047720053636800650A506574E9
:1005B00065720A0A006E6520477200536368002D59
:1005C0002D3E20007267626C6967687420646973ED
:1005D00061626C65205B4E4F454550524F4D5D3A10
:1005E000207267626C696768745F636F6E666967C3
:1005F0002E656E61626C65203D2025750A0046619E
:10060000696C656420746F20657865637574652016
:1006100025730A00000000000500130009001A00FD
:100620001400025400000000070017001600150017
:100630000400635D000014590A00190006001B0045
:100640001D00E3002B612C41E2002900A8000000FE
:1006500000000000000000000D000F0018001C004A
:100660006A5D6B5D000000001000110008000C00C6
:100670000B006C5D280200000E00120037003600EF
:10068000695D295D28612A72E4006D5D2C0000001F
:100690000000000000000000665D24002500260028
:1006A0000100010000000000675D1E001F00200027
:1006B0002700640001000100685D21002200230082
:1006C0000100010001000100010001000100000023
:1006D00000000000000000001F024A0052004D0010
:1006E0000000655D000000003202500051004F0024
:1006F00000006E5D01004C002D02380030001E022B
:100700002D14010001004C00010001000100000057
:1007100000000000000000004300400041004200D3
:10072000010001000000000044003A003B003C00D2
:10073000010001000100010045003D003E003F00B6
:1007400001000100010001000100010001000000A2
:100750000000000000000000010001000100010095
:100760000100010000000000010001000100010083
:100770000100010001000100010001000100010071
:100780000100010001000100010001000100000062
:100790000000000000000000010001000100010055
:1007A0000100010000000000010001000100010043
:1007B0000100010001000100010001000100010031
:1007C0000100010001000100010001000100000022
:1007D0000000000000000000010001000100010015
:1007E0000100010000000000010001000100010003
:1007F0000100010001000100C35CC85CC65CCA5C6A
:10080000C45C0100010001000100010001000000C2
:10081000000000004F6E6573686F743A2061637466
:100820006976653A2025640A000A0025303258208E
:10083000006B6579626F6172645F7265706F72746C
:100840003A20000631FF0974A1010975150026FF41
:10085000009520750881020976150026FF00952075
:1008600075089102C005010980A101850319012ABB
:10087000B700150126B700950175108100C0050C61
:100880000901A101850419012AA002150126A0026F
:10089000950175108100C005010906A10105071920
:1008A000E029E7150025019508750181029501757C
:1008B0000881010507190029FF150026FF0095068C
:1008C0007508810005081901290595057501910232
:1008D000950175039101C05B435D005B445D005B66
:1008E000535D005B575D005B525D0009025B0003D6
:1008F0000100A0FA0904000001030101000921110F
:100900000100012240000705810308000A090401D3
:10091000000103000000092111010001223200073B
:1009200005820320000A09040200020300000009F6
:100930002111010001222200070583032000010785
:1009400005030320000112010002000000081D8DB4
:100950009D9D0100010200010C034B007900720013
:100960006900610000001003730070006C006900F2
:1009700074004B0042000000040309047267626CBB
:10098000696768742073657420687376205B4E4FC6
:10099000454550524F4D5D3A2025752C25752C2527
:1009A000750A007267626C696768742073657420E9
:1009B000687376205B454550524F4D5D3A20257552
:1009C0002C25752C25750A007267626C696768743E
:1009D0002074696D657220656E61626C65642E0AB3
:1009E000007267626C696768742074696D65722053
:1009F00064697361626C652E0A00000000000000EB
:100A000000000000000000000000000000000000E6
:100A10000000010000380000007800000000F687A8
:100A200000ECFEFFFF870100000000000000000056
:100A300000002A2B28000000000000000000000039
:100A4000000000000029000000002C1E1F3221229F
:100A500023322526303036383724271E1F20212206
:100A60002324252637366427642D14040506070839
:100A7000090A0B0C0D0E0F1011121314151617186E
:100A8000191A1B1D1C252D2635382E0405060708AE
:100A9000090A0B0C0D0E0F1011121314151617184E
:100AA000191A1B1D1C246427304C0001010101018F
:100AB0000101010102020202020202020203030317
:100AC00003030303030404040404040405050505E7
:100AD00005060606060607070707070808080809A7
:100AE0000909090A0A0A0B0B0B0C0C0C0D0D0D0E53
:100AF0000E0E0F0F0F1010111111121213131414E8
:100B0000151516161717181819191A1A1B1B1C1D5C
:100B10001D1E1E1F202021222223242425262627B5
:100B20002829292A2B2C2D2D2E2F303132323334E7
:100B300035363738393A3B3C3D3E3F4041424344ED
:100B400045464748494A4C4D4E4F505153545556CF
:100B500058595A5B5D5E5F616264656668696B6C7B
:100B60006D6F7072737577787A7B7D7E80828385F6
:100B700087888A8C8E8F91939596989A9C9EA0A236
:100B8000A3A5A7A9ABADAFB1B3B5B7BABCBEC0C240
:100B9000C4C6C9CBCDCFD1D4D6D8DBDDDFE2E4E704
:100BA000E9EBEEF0F3F5F8FAFDFF7267626C696746
:100BB0006874206D6F6465205B4E4F454550524F01
:100BC0004D5D3A2025750A007267626C696768742A
:100BD000206D6F6465205B454550524F4D5D3A2056
:100BE00025750A0011241FBECFEFDAE0DEBFCDBFAE
:100BF00004B603FE27C08091430390914403A09163
:100C00004503B09146038730904BA740B04BD1F4D9
:100C1000109243031092440310924503109246032E
:100C200014BE84B7877F84BF0FB6F894A8958091CF
:100C30006000886180936000109260000FBEE0E069
:100C4000F8E3099511E0A0E0B1E0E0E2F3E602C0CC
:100C500005900D92A43EB107D9F723E0A4EEB1E0D0
:100C600001C01D92A334B207E1F70E94AD0E0C94AF
:100C70008E310C940000FF93EF93E091E401F0912A
:100C8000E501309709F00995EF91FF910895FC0176
:100C90008591803011F0EFDFFBCF0895FF27E0E270
:100CA00030E247FF0CC0419597FF09C0EDE2609527
:100CB000709580959095611D711D811D911D27FF77
:100CC00002C0219530E350E2AA27660F771F881FE4
:100CD000991FAA1FA41710F0A41B63955A95A9F792
:100CE000AA3008F0A95FA05DAF93F3956115710577
:100CF0008105910541F7ED3211F4EF93F395F21769
:100D000018F43F93F395FBCF8F91B5DFFA95E1F798
:100D10000895E991F9918591803021F0853219F09B
:100D2000AADFF9CF089520E0E89455915532C1F338
:100D3000503311F4689455915A3348F4505390F35A
:100D4000220F022E220F220F200D250FF4CF0EF4BA
:100D5000219589919991533619F3533729F15335D8
:100D600059F1BC0188279927E8945C3621F48991D0
:100D7000999168945591543639F446EF7EF077FF97
:100D80000DC08FEF9FEF0AC055374AE039F0583554
:100D900040E121F0523642E009F00895FF93EF93CD
:100DA0007DDFEF91FF91B7CFFF93EF93FC0181912E
:100DB0008030B9F360DFFBCFFF93EF9368DFF1CFB3
:100DC000DF93CF93CDB7DEB72596A3DFCF91DF9129
:100DD00008958F929F92AF92BF92CF92DF92EF923F
:100DE000FF920F931F93CF93DF93CDB7DEB72A9770
:100DF0000FB6F894DEBF0FBECDBFFC01D0801181CD
:100E000083819481892B39F01F3F39F491E02FEFD2
:100E1000D21203C003C091E001C090E090FDC4C6AF
:100E20007F0185E0DE01169601900D928A95E1F72B
:100E3000D70112962C918E819F81222349F00E9426
:100E4000541D082F682F8E819F810E94C51F03C0EB
:100E50000E94991F082FE12FF0E0B8E00B9FE00DF2
:100E6000F11D1124A3E0EE0FFF1FAA95E1F7ED0D90
:100E7000F11DEE0FFF1FEC5EF94F05911491680113
:100E80000836EDE51E0709F48BC0E8F405362DE5BC
:100E9000120709F4D2C050F4033C9CE5190709F489
:100EA0001CC10336ADE51A0779F16AC1F7018281E9
:100EB0000636FDE51F0709F443C007362DE5120786
:100EC00009F461C05DC1D70112968C910B36BDE566
:100ED0001B0709F4A7C058F40936FDE51F0709F4FC
:100EE0007AC00A362DE5120709F48AC049C10D36C9
:100EF0009DE5190709F4D7C008F4B1C00E36BDE569
:100F00001B0709F4BEC03CC1F7018281882389F028
:100F10008091CE0285FD05C086EE0E94872C84E17B
:100F200019C085EE0E942B2C86EE0E94872C84E649
:100F30001CC084E10E942B2C84E60E942B2C63C3EE
:100F40008823E1F08091CE0285FD08C086EE0E94E4
:100F5000872C84E20E94872C86EEEFCF85EE0E94DC
:100F60002B2C86EE0E94872C87E20E94872C86EE2F
:100F70000E942B2C85EE0E94872C45C384E20E94A0
:100F80002B2C87E2DACF882381F08091CE0285FD79
:100F900005C085EE0E94872C85E28FC086E2EBCFEC
:100FA000D70112968C91811105C085E20E942B2CED
:100FB00086E2C3CF8091CE0285FD05C086EE0E94F9
:100FC000872C85E2C7CF85EE0E942B2C86EE0E94EF
:100FD000872C86E2CACF882389F08091CE0285FDD6
:100FE00005C085EE0E94872C84E267C085EE0E94D2
:100FF0002B2C86EE0E94872C80E3B7CF84E23DC085
:10100000882359F08091CE0285FD05C085EE0E94AF
:10101000872C83E252C082E2AECF83E20E942B2C67
:1010200082E28BCF8823B1F08091CE0285FD0DC086
:1010300085E30E94232D85E39ECFF70182818823DB
:1010400061F08091CE0285FDDEC28EE20E94232DEA
:101050008EE291CF85E30E942B2C8EE26ECF882307
:1010600059F08091CE0285FD05C085EE0E94872C47
:1010700087E223C080E37FCF87E20E942B2C80E3AE
:101080005CCF882359F08091CE0285FD05C085EEA6
:101090000E94872C81E211C080E26DCF81E20E9424
:1010A0002B2C80E24ACF882399F08091CE0285FDD7
:1010B00008C085EE0E94872C88E30E94872C85EE6D
:1010C0003CCF85EE0E942B2C82E30E94872C52CFCE
:1010D00088E30E942B2C82E330CF8AE891E09F9333
:1010E0008F930E94E0068091E50281701F928F939A
:1010F0008FE691E09F938F930E94E0068091E50236
:101100000F900F900F900F900F900F9080FF02C0E4
:10111000869501C080E01F928F9386E591E09F93B2
:101120008F930E94E0068091E6021F928F938EE3D8
:1011300091E09F938F930E94E0068091E7021F92B7
:101140008F9386E291E09F938F930E94E0068091B7
:10115000E8021F928F938EE091E09F938F930E94FD
:10116000E0068091E9021F928F9384EF90E09F93B5
:101170008F930E94E0060FB6F894DEBF0FBECDBF7E
:10118000D70112968C918823F9F0C801825E9C45A4
:101190000597D0F46EE1600F60930A028CE090E056
:1011A0000E94FD308091F00280FF0EC080910A0203
:1011B0001F928F938BE991E09F938F930E94E0069B
:1011C0000F900F900F900F9017FF7BC0D7011296D2
:1011D0008C91882309F475C00E94412886958170FE
:1011E0008093E70190910A02913029F4882319F045
:1011F00089E30E94232D8091CE028093E601109214
:10120000CE0280910A02813071F048F0823081F084
:101210008430A1F486EE0E94232D88E10DC082EE79
:101220000E94872C0BC088E193E00E94782B06C0B7
:1012300082EE0E94872C87E50E94232DEFE3FCE9D4
:101240003197F1F700C000004801E89497F87CE07E
:10125000A72EB12CC4010A2C02C0969587950A943A
:10126000E2F78F7096EF980F963010F0805D01C016
:10127000895A0E94B32AF4E0AF1AB1082CEFA216E3
:101280002FEFB20639F780910A02813039F078F0F9
:10129000823069F0843089F488E20DC08CE20E94CB
:1012A000232D8091E701882341F089E304C082EE79
:1012B0000E942B2C02C00E94232D8091E601809376
:1012C000CE02D70112968C91882309F43FC08091F9
:1012D0004802882329F1C80190568115B0E29B0786
:1012E00020F0905E8115904110F46801DD2480911A
:1012F0004702853060F4E82FF0E0EE0FFF1FE55C59
:10130000FD4FD182C0828F5F8093470202C010924E
:1013100048020E949527909346028093450273C12C
:101320000932FDE51F0791F481E0809348020E9495
:1013300095279093460280934502109247028AE0D7
:10134000EBE3F2E0DF011D928A95E9F7F701828174
:101350008111E7C08091CE0282720B3CBCE51B0775
:1013600009F4CEC030F5063CFCE51F0709F4B4C013
:1013700058F4043C9CE5190709F4A4C008F0A7C080
:10138000033C1C45D9F15EC1083CECE51E0709F49D
:10139000ADC008F4A6C0093C2CE5120709F4ABC0A7
:1013A0000A3C1C4509F04EC141E45DE26DE47DE27A
:1013B000B0C0013DACE51A0788F40F3CBCE51B0743
:1013C00008F021C10D3CECE51E0709F49EC008F0B1
:1013D000A3C04DE456E26EE576E29BC0073D2CE5E6
:1013E000120738F4023D1C4508F00DC10E949120FF
:1013F0000AC10E351D4509F406C124C18091F002D1
:1014000080FF10C08091E502809581701F928F93BC
:1014100089E292E09F938F930E94E0060F900F90D5
:101420000F900F908091E50280FF33C08E7F8093F4
:10143000E5026091E5027091E6028091E7029091E9
:10144000E8020E94962D8091F00280FF0FC08091EB
:10145000E50281701F928F938AEB91E09F938F93A7
:101460000E94E0060F900F900F900F900E946E2840
:101470008091F30281608093F302AFEFB0E7E2E086
:10148000A150B040E040E1F700C000000E94A92850
:10149000BAC081608093E5028091F00280FF0DC0A8
:1014A0001F9281E08F9382EF91E09F938F930E9430
:1014B000E0060F900F900F900F908091E50261E091
:1014C00086952CC047E05EE260E17EE222C040E10A
:1014D0005EE267E07EE21DC041E75DE26AE77DE231
:1014E00018C04AE75DE261E77DE213C049E55DE2CD
:1014F00065E67DE20EC045E65DE269E57DE209C094
:101500004DE45DE261E47DE204C04EE556E26DE447
:1015100076E20E94682877C061E081E00E94A82DF1
:1015200072C00F3DFCE51F0709F45EC048F40115C9
:101530008CE51807A9F001301C4509F442C082C0AF
:101540000C35ADE51A0709F45AC00D35BDE51B078A
:1015500009F44DC00B351D4509F074C081E050C041
:101560001092CE020E948820FFEF24E38CE0F1501D
:1015700020408040E1F700C0000081E08093E0005F
:1015800080E28093D8001092C900AFE1BEE41197C9
:10159000F1F700C0000087E090EBDC01809343038B
:1015A00090934403A0934503B09346039CE088E1E5
:1015B0000FB6F894A895809360000FBE90936000DA
:1015C000FFCF8091F002982F9095917090FB80F959
:1015D0008093F002992319F082E792E002C080E63E
:1015E00092E00E9447060FC00E94C91B0CC0809168
:1015F000090282FB882780F991E0892701C080E0F9
:101600000E94B21C1FC08091C302877009F4CCC233
:10161000F7018281882309F4C7C282E02A960FB6B7
:10162000F894DEBF0FBECDBFDF91CF911F910F9118
:10163000FF90EF90DF90CF90BF90AF909F908F90F2
:101640000C944020D70112968C9112970C91119610
:101650001C91882349F0C8010E94541DD82E682F80
:10166000C8010E94C51F04C0C8010E94991FD82E3E
:10167000E12FF0E028E0D29EE00DF11D112433E0CF
:10168000EE0FFF1F3A95E1F7E00FF11DEE0FFF1F80
:10169000EC5EF94F859194910E943E1A8C01982E30
:1016A000D7011296CC9012971596AC90A2945FE059
:1016B000A5228091C302877099F0CC2089F0812FF8
:1016C000807F803421F080E2800F883048F082E013
:1016D0000E9440208091C3028770DD24D394811141
:1016E000D12CB12EB2942FE0B2228B2D90E08C3011
:1016F000910508F01BC2FC01EA5AFF4F0C946531BA
:10170000812F807F1F70882311F01295107FCC20CD
:10171000B9F0112309F4F5C180E2800F883010F090
:10172000911006C08091CE02182B1093CE0205C0F6
:101730008091C502182B1093C5020E943A1CE1C18A
:10174000802F0E942B2C112309F4F0C1005E10950C
:10175000083010F0911006C08091CE02182310932B
:10176000CE0205C08091C50218231093C5020E94C5
:101770003A1CDCC1812F807F1F70803211F01295DE
:10178000107F992021F0B1E09B1601F12EC0CC20F2
:10179000A1F08091C602AA2071F0E1E0AE120BC068
:1017A000182B9091090292FDC1C1181709F4BEC10E
:1017B0001093C602BBC1812B10C0AA2021F0F1E01A
:1017C000AF1609F4B3C10E94341C21C0CC2041F0F3
:1017D00025E02A1508F4AAC1812F0E94212CA6C158
:1017E00084E08A1508F4A2C112C0CC2019F0AA2006
:1017F00099F387C1AA2059F0093309F094C19FEFEA
:10180000A7EEB3E09150A040B040E1F78AC1812F2C
:101810000E94162C8BC1812F86958695837019F0B6
:10182000813059F083C1CC2019F0C801937002C0F7
:1018300080E090E00E942B287FC1CC2019F0C801E5
:10184000937002C080E090E00E94152875C1812F3E
:10185000837009F069C0C1106DC1902F9295969563
:101860009770990F990F802F8F70882E912CA12C33
:10187000B12C092E04C0880C991CAA1CBB1C0A940C
:10188000D2F704FF12C04FE050E060E070E004C007
:10189000440F551F661F771F9A95D2F7DB01CA01C7
:1018A00080959095A095B09503C080E090E0DC0114
:1018B00016951695412F4370423019F1C8F40091E6
:1018C000C7021091C8022091C9023091CA0241306A
:1018D00059F088299929AA29BB29BC01CD01602387
:1018E0007123822393230AC0802A912AA22AB32A31
:1018F000BC01CD01682979298A299B290E947E2073
:1019000019C188299929AA29BB290091C7021091D8
:10191000C8022091C9023091CA02BC01CD016027E2
:10192000712782279327EACFCC2019F0812F81706D
:1019300001C08695882309F4FDC0902F9295969555
:101940009770990F990F802F8F70882E912CA12C52
:10195000B12C092E04C0880C991CAA1CBB1C0A942B
:10196000D2F704FF12C04FE050E060E070E004C026
:10197000440F551F661F771F9A95D2F7DB01CA01E6
:1019800080959095A095B09503C080E090E0DC0133
:1019900016951695412F43704230D9F068F50091A5
:1019A0000402109105022091060230910702413095
:1019B00059F088299929AA29BB29BC01CD016023A6
:1019C0007123822393231EC0802A912AA22AB32A3C
:1019D00013C088299929AA29BB29009104021091D2
:1019E00005022091060230910702BC01CD0160275B
:1019F00071278227932706C0BC01CD016829792968
:101A00008A299B290E94F01F95C01F70CC2039F0B5
:101A1000812F0E945D20802F0E94212C8BC0802F5F
:101A20000E94162C812F0E941B2084C0802FE2EF81
:101A30009E1629F1E91538F0F0EF9F1659F021EFC5
:101A40009216C1F059C093EF991601F1A4EF9A16BE
:101A5000A1F152C0CC2049F0B4E0BA1508F466C038
:101A6000812F8F710E94FA1F61C0E5E0EA1508F42A
:101A70005DC0F6CFCC2029F0812F8F7130C0CC20F3
:101A8000D9F3812F8F710E941B2050C0CC2079F098
:101A90001F7181E090E0A0E0B0E0BC01CD0104C086
:101AA000660F771F881F991F1A95D2F703C060E051
:101AB00070E0CB010E94F01F39C0CC2099F01F715B
:101AC000812F0E945D208091090282FD07C0F8E00D
:101AD0001F9FC001112483608093C302812F0E9445
:101AE0005D2024C081E00E94402021E02A15F0F40E
:101AF00082E00E9440201AC0CC2039F0AA2009F4CC
:101B0000BBCF802F0E94872C11C0AA2009F4B9CF27
:101B1000893349F48FEF97EEA3E081509040A040C5
:101B2000E1F700C00000802F0E942B2C88EF8B0D66
:101B3000843010F40E944128DD20A9F08091C30276
:101B400080FD11C0F70112828595859585950E94CB
:101B50005D20C7010E94E9068091C30285958595A5
:101B600085950E941B2085E0F701DE01119601900A
:101B70000D928A95E1F789819A810E94991FEA81E5
:101B8000F0E028E0829FE00DF11D112483E0EE0FCC
:101B9000FF1F8A95E1F78981E80FF11DEE0FFF1F06
:101BA000EC5EF94F859194912A960FB6F894DEBFBA
:101BB0000FBECDBFDF91CF911F910F91FF90EF909E
:101BC000DF90CF90BF90AF909F908F900895CF936C
:101BD000DF93CDB7DEB728970FB6F894DEBF0FBE00
:101BE000CDBF85E0E5EEF2E0DE01119601900D92A9
:101BF0008A95E1F78091F1029091F202A091F302AF
:101C00008E839F83A887288540910002509101020E
:101C100060910202709103023FB7F89480913B03F8
:101C200090913C03A0913D03B0913E033FBF841BC4
:101C3000950BA60BB70B84369105A105B10510F4E1
:101C4000222329F1809135019091360183519E4FD5
:101C50004091340150E04930510510F048E050E027
:101C6000BE016F5F7F4F0E94853185E090E00E944A
:101C70003130892B11F080E00DC00E9489276093DC
:101C8000000270930102809302029093030210926B
:101C9000F30281E028960FB6F894DEBF0FBECDBFE9
:101CA000DF91CF910895CF93DF9300D000D0CDB7CF
:101CB000DEB74091E9015091EA016091EB0170912A
:101CC000EC012FB7F89480913B0390913C03A091D5
:101CD0003D03B0913E032FBF841B950BA60BB70BA2
:101CE00084369105A105B10580F10E94CA27DC0167
:101CF000CB010296A11DB11D89839A83AB83BC835E
:101D000080912B0190912C0183519E4F40912A018B
:101D100050E04530510510F044E050E0BE016F5FE7
:101D20007F4F0E94853184E090E00E943130892B02
:101D300011F080E00BC00E9489276093E901709345
:101D4000EA018093EB019093EC0181E00F900F90FA
:101D50000F900F90DF91CF910895CF93DF93CDB780
:101D6000DEB72D970FB6F894DEBF0FBECDBF84B798
:101D7000877F84BF0FB6F894A89580916000886132
:101D800080936000109260000FBE90E080E80FB674
:101D9000F89480936100909361000FBE85B78068CE
:101DA00085BF85B7806885BF8BE895E29093E50194
:101DB0008093E4010E94DD230E94FC238091E200D5
:101DC00084608093E20078948091DB028823A1F004
:101DD0001091E9001F709091EC00892F817090FDA7
:101DE00080E8182B1092E9008091E80083FD0E94A2
:101DF000CC201F701093E90082E084BD93E095BD74
:101E00009AEF97BD80936E001092360310923703BD
:101E100010923803109239030E94ED1480933C0114
:101E200080913C01882321F010924B018AE003C08D
:101E30008AE080934B0180934C010E94ED14811144
:101E40000E94242F80913C0180913C01811102C0AD
:101E500094E001C090E09093170284E0891B809386
:101E6000160202E511E0A6E5EA2EA1E0FA2EF8013D
:101E700081918F018F3F11F00E941015E016F1063D
:101E8000B1F70AE511E0F2E6EF2EF1E0FF2EF801DE
:101E900081918F018F3F11F00E941015E016F1061D
:101EA000B1F7EEE0F2E086E192E0AAE1B2E0119251
:101EB0001D928E179F07D9F780E090E00E94F730BF
:101EC000893E9E4F11F00E94C91B82E090E00E9463
:101ED000E9308093F00284E090E00E94E930182F0E
:101EE00082E290E00E94E930212F30E0382B3093DD
:101EF00009022093080283E090E00E94E930682FF5
:101F000070E080E090E00E947E208CE090E00E94F3
:101F1000E93090E0A0E0B0E080930A0290930B02D9
:101F2000A0930C02B0930D028091F00280FF0EC0CE
:101F300080910A021F928F9383E892E09F938F9380
:101F40000E94E0060F900F900F900F900E94ED14EA
:101F5000811102C00E94272F809118028111EAC0CE
:101F60008091F00280FF08C085EE93E09F938F93ED
:101F70000E94E0060F900F908091F00280FF08C051
:101F80008FEC93E09F938F930E94E0060F900F9049
:101F900080E090E00E94F730893E9E4F81F0809172
:101FA000F00280FF08C087EA93E09F938F930E941E
:101FB000E0060F900F900E94C91B0E941A2E88E025
:101FC00090E00E94F1306093E5027093E602809306
:101FD000E7029093E8028091F30283608093F3021A
:101FE0006E7FD1F48091F00280FF08C08EE593E00F
:101FF0009F938F930E94E0060F900F900E941A2EDD
:1020000088E090E00E94F1306093E5027093E60270
:102010008093E7029093E8020E94832D8091F00262
:1020200080FF08C085E493E09F938F930E94E006B1
:102030000F900F908091F00280FF0FC08091E50219
:1020400081701F928F9388E293E09F938F930E94F9
:10205000E0060F900F900F900F908091F00280FF9C
:102060000FC08091E50286951F928F938DE093E0DB
:102070009F938F930E94E0060F900F900F900F9008
:102080008091F00280FF0EC08091E6021F928F9334
:1020900083EF92E09F938F930E94E0060F900F9042
:1020A0000F900F908091F00280FF0EC08091E702A8
:1020B0001F928F9389ED92E09F938F930E94E00689
:1020C0000F900F900F900F908091F00280FF0EC044
:1020D0008091E8021F928F938FEB92E09F938F93F2
:1020E0000E94E0060F900F900F900F908091F002E9
:1020F00080FF0EC08091E9021F928F9383EA92E0E5
:102100009F938F930E94E0060F900F900F900F9077
:102110001092F2028091F30284608093F302809126
:10212000E50280FF04C060E086950E94A82D81E052
:102130008093180280913C01811106C085E3809351
:10214000480186E68093470120914801E22FE295FD
:10215000EF70F0E031A12F7081E090E0AC01022E31
:1021600001C0440F0A94EAF7542F5095352331A348
:1021700032A1432B42A340914701A42FA295AF70F7
:10218000B0E091963C9191974F70042E01C0880F5A
:102190000A94EAF7982F9095932391969C939197A0
:1021A00092969C919297892B92968C93929780A16C
:1021B00090E002C0959587952A95E2F781709096F8
:1021C0002C9130E002C0359527954A95E2F720FD25
:1021D00002C090E001C092E0892B80932902809197
:1021E0003C0191E0892780932802492F481B4093A6
:1021F00019028091E50281608093E5028091F002EE
:1022000080FF0CC01F929F938CEF93E09F938F935E
:102210000E94E0060F900F900F900F908091E502C2
:1022200060E086950E94A82D20E04FEF6FEF8FEBC6
:102230000E94302960E081E00E94A82D8DE391E0AA
:10224000909333038093320385E394E00E94470622
:1022500062E2262E62E0362E70E5472E74E0572E9D
:10226000E8E46E2EE4E07E2E8091DB02853009F0FA
:102270004AC08AEA94E00E94470650E4F52E00E145
:1022800012E18091DB02853009F037C08091DB02DA
:10229000843019F110923A0388E190E00FB6F89477
:1022A000A895809360000FBEF092600083B7817F95
:1022B000846083BF83B7816083BF7894889583B738
:1022C0008E7F83BF0FB6F894A895809160008861D7
:1022D00080936000109260000FBE8091DA02882324
:1022E00009F4CFCF0E942715EAE1F2E08191811134
:1022F000B5C12E163F06D1F7C4CF1092CE020E9470
:1023000088200E9441280E94271581110E94892758
:102310003BE2A32E32E0B32E4AE1C42E42E0D42E9B
:1023200000E010E00D87F60121916F012C87F50187
:1023300081915F0128272B87211116C00F5F1F4F46
:102340000830110579F78FEF8E838F8318860E94EE
:1023500095278160782F9A8789874E815F8168856C
:102360008A850E94F72960C08091F00281FD04C037
:10237000E12CFF24F39436C085E594E00E944706E3
:102380002AE1822E22E0922EE12CF12CFF92EF9294
:102390005F924F920E94E0068DE494E00E9447060F
:1023A000F40181914F010E94A12A1F928F937F9285
:1023B0006F920E94E00686E494E00E944706FFEFD9
:1023C000EF1AFF0A0FB6F894DEBF0FBECDBF58E07C
:1023D000E516F104D9F6CCCFE394FF0C98E0E916AA
:1023E00009F4ACCF8B858F21B9F30E94ED148823BB
:1023F000A9F0E9828D858A839C859F2181E009F47B
:1024000080E08B830E9495278160782F9D838C8349
:1024100049815A816B818D810E94F729F801E55D20
:10242000FD4F8081F826F0828091F202882309F422
:102430007DC08091F102E091E502E695E81BE09312
:10244000EC02823061F4E695F0E0E357FB4FE49153
:102450000E2F10E095EFE92E98E2F92E06C000ED60
:1024600017E086E8E82E85E2F82E8091ED028823B9
:1024700061F01092ED020E94E5279093EB028093A9
:10248000EA021092EF021092EE020E94E5272091DC
:10249000EA023091EB02FC01E21BF30B9F012F3F9C
:1024A0003F4708F043C020912402222311F11092EB
:1024B00024022091220230912302821B930B8F3F32
:1024C0009F47B8F4205D3A483093230220932202BC
:1024D0008091F00280FF08C084E694E09F938F9380
:1024E0000E94E0060F900F908091F3028860809325
:1024F000F302C090EE02D090EF02E091EA02F09178
:10250000EB020E0F1F1F1093EB020093EA028AEEFC
:1025100092E0F70109958091EE029091EF02892BEC
:1025200029F4CD2819F081E080932402E09129025A
:102530005E2F550F550F20914801E22FE295EF7065
:10254000F0E080A190E02F7002C0959587952A95C4
:10255000E2F78170992740914701E42FE295EF70EF
:10256000F0E020A130E04F7002C0359527954A95E4
:10257000E2F7F901E170FF2720FF02C0E2E0F0E09E
:10258000E82BF92BE52BE093290210912802EF703C
:10259000F0E0EE59FE4F908180912702890F8093E1
:1025A000270284306CF0E12FF0E0EB5DFD4F80817D
:1025B0008F5F808360E0812F0E94AA2B21E001C001
:1025C00020E0809127028D3F64F4E12FF0E0EB5D85
:1025D000FD4F80818150808361E0812F0E94AA2B72
:1025E00021E080912702082E000C990B64E070E036
:1025F0000E9451318093270221110E94C71B0E9423
:10260000412890912A02891709F42ECE0E94412870
:10261000182F80932A028091F00282FF25CE80FF3E
:1026200004C087E994E00E9447068091F00280FF91
:102630000CC01F921F9382E994E09F938F930E9496
:10264000E0060F900F900F900F908091F00280FFA6
:102650000BCE80E994E00E94470606CE09BD19BD65
:1026600009B400FEFDCF8091D8008F7D8093D80003
:102670008091E00082608093E0008091E00081FD25
:10268000FCCF1092CE020E948820FBCD7F928F92C9
:102690009F92AF92BF92CF92DF92EF92FF920F93F1
:1026A0001F93CF93DF931F92CDB7DEB7762E4A01EB
:1026B00059016801082F880F110BC8010E943130A1
:1026C000892B09F07EC08AE0809FF001819FF00D88
:1026D0001124E050FF4F458150E04115510511F0A4
:1026E00041E050E08AE0809FF001819FF00D1124CD
:1026F000E050FF4F6681778163517E4FCE01019696
:102700000E948531F40140815181628173812FB72C
:10271000F89480913B0390913C03A0913D03B091CC
:102720003E032FBF841B950BA60BB70B8436910578
:10273000A105B10540F4B701C6010E945128998155
:10274000891709F440C0072D770C110BC8010E94AE
:102750003130892B09F5E114F10401F18AE0809F01
:10276000F001819FF00D1124E050FF4F458150E0B2
:10277000E416F50608F4A7018AE0809FF001819F26
:10278000F00D1124E050FF4F6681778163517E4F39
:10279000C5010E94853102C010E001C011E0B701FF
:1027A000C6010E94512891E02981281390E0192345
:1027B00081F00E948927F40160837183828393836F
:1027C00008C010E001C011E0A701B601C5010E94D8
:1027D0008531812F0F90DF91CF911F910F91FF9045
:1027E000EF90DF90CF90BF90AF909F908F907F90B1
:1027F0000895CF92DF92EF92FF920F931F93CF93A2
:10280000DF931F92CDB7DEB7EE24E394F12C03EFF4
:1028100011E09E012F5F3F4F47E552E063E082E009
:102820000E944613C82E882379F1D09019028D2D6D
:1028300090E09C012B5D3D4F79011981F901808168
:10284000181B012F80E010165CF40150F701808105
:102850008F5F808360E08D2D0E94AA2B81E0F3CFF3
:10286000912F17FD90E0191B112359F01F5FF701FD
:1028700080818150808361E08D2D0E94AA2B81E0B0
:10288000F3CF81110E94C71B8C2D0F90DF91CF9148
:102890001F910F91FF90EF90DF90CF900895CF920E
:1028A000DF92EF92FF920F931F93CF93DF9300D0AD
:1028B00000D0CDB7DEB76B0184E0E82EF12C0EEE30
:1028C00011E09E012F5F3F4F43E552E061E080E061
:1028D0000E944613882361F049815A816B817C8173
:1028E00040934F02509350026093510270935202F2
:1028F00040914F02509150026091510270915202EA
:10290000F60140835183628373830F900F900F9081
:102910000F90DF91CF911F910F91FF90EF90DF907B
:10292000CF9008958F929F92AF92BF92CF92DF92F5
:10293000EF92FF920F931F93CF93DF937C015B0184
:10294000942E852E690180914E028A3018F001E0A4
:1029500010E002C00AE010E0C1E0D0E0F894B50158
:10296000C701F60109957894811129C021960C17A9
:102970001D078CF0CC9F9001CD9F300D300D1124A0
:1029800080E090E045E34A95F1F7000001962817B2
:102990003907C1F7E3CF9091F002892F817090FF42
:1029A0000FC08F929F928EEF95E09F938F930E941E
:1029B000E0060F900F900F900F9080E001C081E033
:1029C000DF91CF911F910F91FF90EF90DF90CF900B
:1029D000BF90AF909F908F90089580914D0281118C
:1029E00018C088EC9091E30097FD0AC0EFE3FCE982
:1029F0003197F1F700C000008150A1F782E001C0DB
:102A000081E080934D02823021F40E94DD231092F8
:102A1000DB0281E090914D02913009F080E0089551
:102A2000F894E82FE295EF70F0E031A1282F2F7095
:102A300081E090E001C0880F2A95EAF7982F9095E1
:102A4000932391A392A1892B82A3789408957F92D6
:102A50008F929F92AF92BF92CF92DF92EF92FF92AE
:102A60000F931F93CF93DF93CDB7DEB72C970FB69D
:102A7000F894DEBF0FBECDBFAE014F5F5F4F7A014E
:102A800088E0DA011D928A95E9F702E511E06A0112
:102A900086E5882E81E0982EAA24A394B12CF80113
:102AA00080818F3F09F448C0F894E82FE295EF70D9
:102AB000F0E021A18F70A50102C0440F551F8A9537
:102AC000E2F7CA01922F982B91A392A180958923B6
:102AD00082A3789400C0EAE5F1E020E030E0712CB8
:102AE00081918F3FB9F0A82FA295AF70B0E090967A
:102AF0004C9150E08F70DA0102C0B595A7958A9588
:102B0000E2F7A0FD07C08A2D022E01C0880F0A94AB
:102B1000EAF701C080E0782A2F5F3F4F2830310567
:102B2000F9F6F80180818F3F11F00E941015F0EA4C
:102B3000FA95F1F7D6017C920F5F1F4FBFEFCB1ACA
:102B4000DB0A8016910609F0AACF48E050E0B701F1
:102B50008EE092E00E9478318C01892B41F088E070
:102B6000F701AEE0B2E001900D928A95E1F7F090A6
:102B700017020115110549F081E0809335020E948A
:102B800095279093340280933302809135028823F5
:102B9000B9F080913302909134020E947A27059710
:102BA00078F0AEE0B2E0EF2DF0E0E65EFD4F82E1BE
:102BB00092E02D9121938A179B07D9F71092350245
:102BC0000115110509F00FC10E94ED14E0911702E3
:102BD000882309F44FC019861A861B861C860E2F7F
:102BE00010E0065E1D4FD0904E02FE013D967F0123
:102BF000F9E0FD1570F02FE434E142E751E0BE0149
:102C0000675F7F4FC8010E949214882309F40EC1A8
:102C10000AC080913602909137020E947A27843F41
:102C2000914048F71CC129EF33E14FE751E0BE0165
:102C3000675F7F4FC8010E949214882309F4F6C091
:102C400023E53EE047E851E0BE01675F7F4FC801E2
:102C50000E949214882309F4E9C027EE3DE042E97E
:102C600051E0BE01675F7F4FC8010E94921481113D
:102C7000BDC0DCC0F0E0E65EFD4FF89484E0AEEE4F
:102C8000B1E001900D928A95E1F764E070E08EEE7C
:102C900091E00E9451288093ED017894F894E0919E
:102CA0002802F0E0EB5DFD4F808189878093F3017E
:102CB00061E070E0CE0109960E9451288093F201F4
:102CC0007894F894C090F401D090F501E090F6016A
:102CD000F090F7018091490290914A02A0914B0235
:102CE000B0914C02C816D906EA06FB06D1F0C09294
:102CF0004902D0924A02E0924B02F0924C020E94AA
:102D0000ED1481110EC00E948927C61AD70AE80A5D
:102D1000F90AC0923603D0923703E0923803F0925A
:102D200039037894F8948091FF01882309F459C0FD
:102D300080FF34C09091F8018091E50290FF09C0B6
:102D400081608093E50260E0892F86950E94A82D1E
:102D500025C08E7F8093E5028091F00280FF0CC039
:102D60001F921F9284EC95E09F938F930E94E00640
:102D70000F900F900F900F900E946E288091F30299
:102D800081608093F3028FEF90E7A2E08150904042
:102D9000A040E1F700C000000E94A9288091FF0137
:102DA00081FF09C020E04091FB016091FA01809110
:102DB000F9010E9430298091FF0182FF09C08091B2
:102DC000FE01882319F00E94822802C00E946E280A
:102DD0008091FF0183FF03C081E08093ED02109298
:102DE000FF017894F3C201E010E0F0C2B9E0BD1534
:102DF00040F48091F00280FF04C08EEA94E00E94CB
:102E0000470610924E02E0911602F0E0E65EFD4F9A
:102E1000DE01199600E08D919081981711F0808362
:102E200001E03196EA16FB06B1F726C080914E020A
:102E30008F3F19F08F5F80934E0280914E028A304F
:102E400010F30E9495279093370280933602809169
:102E5000F00280FF04C081EC94E00E944706A0913C
:102E60001602B0E0A65EBD4FFE0139961D9211928A
:102E7000EE16FF06D9F701E080913A02882371F03F
:102E800080913802909139020E947A27833E9440C3
:102E900028F080EE0E942B2C10923A02809148027A
:102EA000882309F493C280914702882309F48EC2D3
:102EB00080914502909146020E947A278139914083
:102EC00008F484C21092480280913B0290913C0227
:102ED0000D97D9F480913D0290913E02892BA9F47F
:102EE00080913F0290914002892B79F480914102B8
:102EF00090914202892B49F48091430290914402BF
:102F0000892B19F484E30E94232D80913B02909138
:102F10003C020497D9F480913D0290913E02892BA6
:102F2000A9F480913F0290914002892B79F480911D
:102F3000410290914202892B49F480914302909181
:102F40004402892B19F484E30E94232D80913B02D3
:102F500090913C020897E1F480913D0290913E02ED
:102F6000892BB1F480913F0290914002892B81F42A
:102F70008091410290914202892B51F48091430249
:102F800090914402892B21F488E094E10E94782BEF
:102F900080913B0290913C024297D9F480913D028E
:102FA00090913E02892BA9F480913F0290914002BA
:102FB000892B79F48091410290914202892B49F446
:102FC0008091430290914402892B19F483E30E947B
:102FD000232D80913B0290913C024897D9F4809137
:102FE0003D0290913E02892BA9F480913F0290917D
:102FF0004002892B79F48091410290914202892B01
:1030000049F48091430290914402892B19F48FE294
:103010000E94232D80913B0290913C024697D9F467
:1030200080913D0290913E02892BA9F480913F024C
:1030300090914002892B79F4809141029091420253
:10304000892B49F48091430290914402892B19F411
:103050008DE20E94232D80913B0290913C02439788
:1030600039F580913D0290913E02892B09F58091BE
:103070003F0290914002892BD9F4809141029091B6
:103080004202892BA9F48091430290914402892B3A
:1030900079F480EE0E94872C81EE0E94872C84E2D6
:1030A0000E94232D81EE0E942B2C80EE0E942B2C5F
:1030B00080913B0290913C02099739F580913D0245
:1030C00090913E02892B09F580913F029091400238
:1030D000892BD9F48091410290914202892BA9F465
:1030E0008091430290914402892B79F480EE0E94F2
:1030F000872C81EE0E94872C85E20E94232D81EE91
:103100000E942B2C80EE0E942B2C80913B029091F0
:103110003C02C79709F580913D0290913E02892BB0
:10312000D9F480913F0290914002892BA9F48091BB
:10313000410290914202892B79F48091430290914F
:103140004402892B49F483EE0E94872C8EE40E946E
:10315000232D83EE0E942B2C80913B0290913C0208
:10316000C69709F580913D0290913E02892BD9F4D2
:1031700080913F0290914002892BA9F480914102F5
:1031800090914202892B79F48091430290914402FC
:10319000892B49F483EE0E94872C8BE40E94232D17
:1031A00083EE0E942B2C80913B0290913C020C9765
:1031B000E1F480913D0290913E02892BB1F480911F
:1031C0003F0290914002892B81F4809141029091BD
:1031D0004202892B51F48091430290914402892B41
:1031E00021F48FEB95E00E94192B80913B02909186
:1031F0003C020F97D9F480913D0290913E02892BB9
:10320000A9F480913F0290914002892B79F480913A
:10321000410290914202892B49F48091430290919E
:103220004402892B19F483E00E94FA1F80913B022B
:1032300090913C02409769F580913D0290913E0249
:10324000479739F580913F0290914002892B09F50B
:103250008091410290914202892BD9F480914302DE
:1032600090914402892BA9F48BEB95E00E94192BD5
:1032700083E30E94232D85EB95E00E94192B8FE2BA
:103280000E94232D8DE20E94232D8BEA95E00E945F
:10329000192B80913B0290913C024097A1F58091BF
:1032A0003D0290913E02469771F580913F029091C8
:1032B0004002892B41F58091410290914202892B75
:1032C00011F58091430290914402892BE1F487EA41
:1032D00095E00E94192B83E30E94232D81EA95E05B
:1032E0000E94192B8FE20E94232D8DE20E94232D34
:1032F00086E995E00E94192B83E30E94232D8FE835
:1033000095E00E94192B80913B0290913C024097DE
:1033100069F580913D0290913E02459739F5809183
:103320003F0290914002892B09F5809141029091D2
:103330004202892BD9F48091430290914402892B57
:10334000A9F480E895E00E94192B8FE20E94232DBA
:103350008DE20E94232D85E795E00E94192B83E3DF
:103360000E94232D8EE695E00E94192B80913B024E
:1033700090913C02409751F580913D0290913E0220
:103380004A9721F580913F0290914002892BF1F4F8
:103390008091410290914202892BC1F480914302B5
:1033A00090914402892B91F485E695E00E94192BB7
:1033B00083E30E94232D88E495E00E94192B83E388
:1033C0000E94232D87EF94E00E94192B802F2C96CA
:1033D0000FB6F894DEBF0FBECDBFDF91CF911F9126
:1033E0000F91FF90EF90DF90CF90BF90AF909F90A4
:1033F0008F907F9008959091080292FF0DC0282F22
:103400002871283019F4877F846006C0282F247122
:10341000243011F48B7F886093FF0DC0282F287112
:10342000283119F4877E846106C0282F2471243145
:1034300011F48B7E88612091090220FF0DC0382F86
:103440003871383019F4877F816006C0382F3171A8
:10345000313011F48E7F886021FF0DC0282F287134
:10346000283119F4877E816106C0282F217121310E
:1034700011F48E7E886194FD877E0895CF93DF934B
:103480008238910569F1B0F48133910509F46FC078
:1034900048F48932910509F465C08A32910509F42E
:1034A0006BC08AC08533910509F457C089339105F3
:1034B000B9F082C0833E910571F138F4803E9105E8
:1034C000B1F0823E910511F177C0863E9105B9F1C8
:1034D000873E9105C9F1843E910509F06DC024C075
:1034E0002091080220FD53C021FD51C065C080918C
:1034F000080280FD46C08091090280FF48C080918B
:10350000080284FD3FC183EE90E03EC18091080235
:1035100082FF3AC0F4CF8091080282FD35C08091CD
:10352000090280FD34C0EBCF8091090281FF35C0D4
:103530008091080284FD26C187EE90E025C180912C
:10354000080283FF27C0F4CF8091080283FD22C0C8
:103550008091090281FD21C0EBCF8091080285FD99
:103560001FC021C08091080285FD1DC019C0809137
:10357000080286FD1BC01DC08091080286FD19C08F
:1035800015C089E390E000C182EE90E0FDC080EEBE
:1035900090E0FAC086EE90E0F7C084EE90E0F4C0D0
:1035A00089E290E0F1C085E390E0EEC08AE290E02D
:1035B000EBC081E390E0E8C0811532E5930708F0A5
:1035C00069C0811541E5940728F0982F8827816FFD
:1035D000906ADAC0883E910568F5803E910508F052
:1035E000D3C0883A9105B8F4853A910548F0855AD8
:1035F000E82FF0E0E556FE4F808190E09064C4C073
:103600008130910509F4BBC008F4BCC08430910539
:1036100008F4B8C0B9C08F3B910508F0B3C0885A10
:10362000E82FF0E0EE0FFF1FE256FE4F8081918100
:103630009464AAC0811520E59207F0F09C0174E023
:10364000369527957A95E1F7922F9370482F43701E
:1036500021E030E002C0220F331F4A95E2F73C68B8
:10366000392B8F70982F9695969540E2949FC001C4
:103670001124822B932B88C0811530E4930718F016
:103680009F70906A81C09C013A9521153F4108F4D2
:103690007BC078C0EC01C11586E5D807E8F5C115F7
:1036A00025E5D20748F08C2F0E94FB198F7190E01E
:1036B000982F8827906268C0C11534E5D30728F099
:1036C0009C2F8827846F906A5FC0AE014370552796
:1036D0002C2F26952695C115D34578F481E090E0EE
:1036E00002C0880F991F4A95E2F740E2249F90019B
:1036F0001124822B932B9C6847C081E090E002C08C
:10370000880F991F4A95E2F740E2249F9001112407
:10371000822B932B9A6838C0C1152AE5D207F8F49A
:10372000C11539E5D30790F08C2F8F700E94FB19DB
:1037300094E0D695C7959A95E1F7CF70D0E0DC2F4D
:10374000CC27D0699E01282BC9011EC0C11548E5B0
:10375000D407C0F09C2F8827806F906A15C0CE01D7
:1037600090568115904270F48D2F8F710E94FB1935
:10377000282F2F71CE0199279062922B05C081E0EE
:1037800090E002C080E090E0DF91CF9108950C942A
:10379000892769EE7EEF80E090E00E941B3160E0B7
:1037A00082E090E00E94FD3060E083E090E00E94C3
:1037B000FD301092C7021092C8021092C9021092F6
:1037C000CA0260E084E090E00E94FD3060E082E2A6
:1037D00090E00E94FD3060E085E090E00E94FD30C6
:1037E00060E086E090E00E94FD306FEF87E090E0BF
:1037F0000E94FD3040E050E0BA0188E090E00E9475
:103800000F3160E08DE090E00E94FD3040E050E03C
:10381000BA0188E190E00E940F3160E087E190E01A
:103820000E94FD3040E050E0BA018CE190E00E943F
:103830000F3160E070E080E290E00E941B3140E0D8
:1038400050E0BA0188E190E00E940F3140E050E082
:10385000BA018FE090E00E940F3140E050E0BA01E1
:1038600083E190E00C940F318091C6028111109297
:10387000C6020895EF92FF920F931F93CF939091FA
:10388000CE028091C502892B2091C402982F922BE1
:1038900090935B028091C602882389F0892B8093E4
:1038A0005B02EDE5F2E097E080E0915029F0219194
:1038B0002223D9F38F5FF9CF81110E94341CE0914C
:1038C0003203F09133033097C9F10280F381E02D88
:1038D0008BE592E009958091F00282FF2FC080FF76
:1038E00004C081E398E00E9447060BE512E0C8E0BF
:1038F0008BE2E82E88E0F82E8091F00280FF0CC069
:10390000F80180811F928F93FF92EF920E94E00650
:103910000F900F900F900F90C1500F5F1F4FC1116C
:10392000EBCF8091F00280FF09C089E298E0CF914F
:103930001F910F91FF90EF900C944706CF911F912C
:103940000F91FF90EF90089580E090E00E942B2867
:1039500080E090E00E9415281092C5021092C402E7
:103960000C943A1CCF93DF93C0910902C2FB9927B4
:1039700090F9981701F1D82F80FBC2F9C093090282
:103980006091080284E090E00E94FD306C2F82E29A
:1039900090E00E94FD308091F00280FF0CC01F92E9
:1039A000DF9384E198E09F938F930E94E0060F904D
:1039B0000F900F900F90DF91CF9108958091C202E8
:1039C00090919102891719F08F5F8770FBCF08954E
:1039D0000F931F93CF93DF938091900282958F7006
:1039E00009F05DC080918D02882309F458C0809150
:1039F000C2021091910260918B0270918C02C09171
:103A00008E02D0918F0291E06F3F09F090E0292F54
:103A100006E0811709F443C0209721F07F3F21F091
:103A200030E003C031E001C0322F90E030FD34C0FF
:103A3000089FF001099FF00D1124DF01AE56BD4F24
:103A400011963C911197371327C03C91361324C02F
:103A500012963C91129731111FC013964D915C91B3
:103A600014974C1B5D0B4F3A5105B0F480919002B6
:103A70008F70806180939002E956FD4F80818F7036
:103A8000806180838BE892E00E94E906DF91CF910C
:103A90001F910F910C94DE1C01968770BACFDF91B5
:103AA000CF911F910F9108958F929F92AF92BF92E5
:103AB000EF92FF920F931F93CF93DF9380900402B6
:103AC00090900502A0900602B09007024091C702B4
:103AD0005091C8026091C9027091CA02842A952A45
:103AE000A62AB72ACFE1D0E0E92EF12C082F10E06A
:103AF000D501C4010C2E04C0B695A795979587955E
:103B00000A94D2F780FD04C0219790F780E01AC094
:103B1000FE0183E0EE0FFF1F8A95E1F7EE0DFF1D1A
:103B200093E0EE0FFF1F9A95E1F7E00FF11FEE0F04
:103B3000FF1FEC5EF94F859194910E943E1A019708
:103B400019F38C2FDF91CF911F910F91FF90EF9080
:103B5000BF90AF909F908F900895CF93DF93D82F11
:103B6000C92F0E94541DEC2FF0E098E0899FE00DD2
:103B7000F11D112483E0EE0FFF1F8A95E1F7ED0F91
:103B8000F11DEE0FFF1FEC5EF94F859194910E949D
:103B90003E1ADF91CF910895FC01808191810E94AE
:103BA000AD1D292F2F70E92FE295EF704E2F50E0B9
:103BB000FA013297EE30F105B8F4EE59FF4F0C944C
:103BC0006531803F99F018F4883E70F40FC0843F4F
:103BD00059F40CC0883E50F0813F31F407C0822F69
:103BE000869586958695089580E0089581E00895EC
:103BF0009F92AF92BF92CF92DF92EF92FF920F937C
:103C00001F93CF93DF93CDB7DEB761970FB6F894CC
:103C1000DEBF0FBECDBF8C0185E0F801DE011D9631
:103C200001900D928A95E1F7F801E28090918B0264
:103C300060918C0240918E0250918F024115510586
:103C400031F06F3F31F481E09F3F19F403C081E010
:103C500001C080E0F82FF1709F2E80FD1AC1F8019D
:103C600030812181C380D4808BE8A82E82E0B82ED9
:103C7000F0908D02F601E41BF50BFF2009F4C6C09D
:103C800080919002EF3AF10508F091C0482F407FF3
:103C900009F050C0621311C093130FC0FE2CE11045
:103CA0000CC08F70806180939002C5010E94E9066C
:103CB00080919002F801858329C1CD2831F02F3FF2
:103CC00031F481E03F3F19F403C081E001C080E09E
:103CD00080FD03C081E08E2502C080E090E0F82FD7
:103CE000F170FF2E80FF1CC08091C20240919102B2
:103CF00056E0841709F4E8C090E0589FF001599FFE
:103D0000F00D1124EE56FD4F6181261306C060812F
:103D1000631303C06281E61203C001968770E9CF86
:103D2000FE2CEE2009F4F2C0809190028160809315
:103D3000900249C0621306C0931304C0E11002C090
:103D4000F80186C0C8010E94CC1D882351F1EE20E5
:103D500041F120919002822F82958F7090E002971E
:103D600074F080918B0290918C0298878F831986D2
:103D7000DB86CA862C87CE0107960E94E90686E07C
:103D8000F801ABE8B2E001900D928A95E1F70E944C
:103D9000E81C0AC06217C9F0C8010E94CC1D81113D
:103DA0001EC0C8010E94E906FF24F394AFC0482F4B
:103DB000407F81F78BE892E00E94E90686E0F501FA
:103DC00011928A95E9F7F12CA1C09313E5CFE11088
:103DD000E3CFF8018583C8010E94E90654C0EE20B4
:103DE00001F320919002822F82958F7090E00297CC
:103DF00034F280918B0290918C029A8389831B828A
:103E0000DD82CC822E83CE010196B7CFEF3AF10549
:103E1000D0F5FE2CEE2029F2621327C0931325C0A3
:103E20002091900220FD18C0822F82958F70482F1C
:103E300050E04115510581F0F80125834F305105BF
:103E400041F08F5F982F9295907F822F8F70892BF2
:103E50008583C8010E94E90686E0F801ABE8B2E07C
:103E600001900D928A95E1F751C0C8010E94CC1DC6
:103E7000811185CF80919002816080939002C8016A
:103E80000E94E90643C086E0F50111928A95E9F7A0
:103E90003DC0EE2009F485CFC8010E94CC1DF82E4C
:103EA000882309F47ECF86E0F801ABE8B2E0019008
:103EB0000D928A95E1F780918B0290918C020E947D
:103EC000AD1D0E94E81C22C03D872E878D859E85F2
:103ED0000E94AD1D292F22952F70223028F49F704B
:103EE00039F0811105C00BC0243028F49F7049F4CB
:103EF000805E883020F0C8010E94E9069F2CF92CD2
:103F000005C0F8019581907F99F7F9CF8F2D6196C3
:103F10000FB6F894DEBF0FBECDBFDF91CF911F91DA
:103F20000F91FF90EF90DF90CF90BF90AF909F9058
:103F3000089528E0929F800D1124682F669566955C
:103F40006695982F977085E0689FB001112440E036
:103F500050E080E0FB01E40FF51FED59FD4F20819B
:103F600030E0092E02C0369527950A94E2F72170B9
:103F70003327042E01C0220F0A94EAF7822B4F5FE9
:103F80005F4F4530510531F7089528E0929F800D2D
:103F90001124E82FE695E695E695877051E001C07B
:103FA000550F8A95EAF785E0E89FF0011124ED5955
:103FB000FD4F20E030E070E04081CB01022E02C0D6
:103FC000969587950A94E2F78170819584278523D9
:103FD000842781932F5F3F4F2530310569F708957E
:103FE0006093040270930502809306029093070287
:103FF0000C94A41C0F931F9341E050E060E070E02C
:1040000004C0440F551F661F771F8A95D2F7809111
:10401000040290910502A0910602B09107028A0164
:104020009B01082719272A273B27C901B8011F919F
:104030000F910C94F01F0F931F9341E050E060E04C
:1040400070E004C0440F551F661F771F8A95D2F792
:10405000409550956095709580910402909105026D
:10406000A0910602B09107028A019B01082319233F
:104070002A233B23C901B8011F910F910C94F01F13
:104080002091C302809582238093C302982F97705A
:1040900041F430E0482F082E000C550B241735074B
:1040A00021F49091090292FF07C085958595859529
:1040B0000E941B201092C30208950F931F9341E0AA
:1040C00050E060E070E004C0440F551F661F771F8A
:1040D0008A95D2F78091040290910502A091060280
:1040E000B09107028A019B01082B192B2A2B3B2B2D
:1040F000C901B8011F910F910C94F01F6093C70282
:104100007093C8028093C9029093CA020C94A41CB5
:1041100086E0EDE5F2E0DF011D928A95E9F70C9467
:10412000A41C8091E50280FF07C0869582588F7796
:10413000853010F40C94102E61E082E00C94A82DD0
:10414000EF92FF920F931F93CF93DF937C018B012C
:104150000E946F26811119C0E70101151105A1F018
:104160008091E80085FD0AC08091E8008E778093F9
:10417000E8000E946F26882381F307C0899180930D
:10418000F10001501109E9CF80E0DF91CF911F913B
:104190000F91FF90EF9008951F93CF93DF93CDB7CA
:1041A000DEB7AA970FB6F894DEBF0FBECDBFEDED18
:1041B000F2E085EE92E02091F10021938E179F07A7
:1041C000D1F78091DE02833009F460C030F4813091
:1041D00071F0823009F49CC0B3C08A3009F488C001
:1041E0008B3009F46BC0893009F0AAC020C08091DF
:1041F000DD02813A09F0A4C08091E800877F8093B6
:10420000E8008091E1029091E202892B21F468E0BC
:1042100081ED92E003C060E080E090E070E00E94F9
:10422000F6268091E8008B778093E80089C0809122
:10423000DD02813209F084C08091E1029091E202B6
:10424000029708F07DC08091E800877F8093E800A6
:104250008091E80082FD05C08091DB028111F8CFDA
:104260006FC02091F3008091F20090E0922B0297B2
:1042700029F48091F1008B7F813021F48091F1004D
:104280008093D0028091E8008B7756C08091DD0248
:10429000813A09F055C08091E1029091E202892BA8
:1042A00009F04EC08091E800877F8093E8008091FC
:1042B000E80080FFFCCF8091490139C08091DD0288
:1042C0008132F1F58091E1029091E202892BC1F5F2
:1042D0008091E800877F8093E8000E94A226809169
:1042E000DF02809349011092CE020E94882028C0EC
:1042F0008091DD02813221F58091E800877F8093F3
:10430000E8000E94A2268091E0028093CF0218C0AC
:104310008091DD02813AA1F48091E800877F80934B
:10432000E8008091E80080FFFCCF8091CF0280936D
:10433000F1008091E8008E778093E8000E94A22629
:104340008091E80083FFD7C18091DD029091DE0269
:10435000492F50E04A30510508F0CDC1FA01E0592B
:10436000FF4F0C946531803821F0823809F0C3C1C9
:1043700008C08091D9029091DA02992389F0826075
:104380000FC08091E1028F70873008F0B4C1809334
:10439000E9008091EB0085FB882780F91092E90005
:1043A0009091E800977F9093E8008093F10010923D
:1043B000F1006FC1282F2D7F09F09DC1882319F0CE
:1043C000823061F098C18091DF02813009F093C1A1
:1043D000933009F080E08093DA022EC08091DF02F2
:1043E00081112AC08091E1028F702FEF280F2630B3
:1043F00008F081C18093E9002091EB0020FF1CC0F0
:10440000933021F48091EB00806214C09091EB0016
:1044100090619093EB0021E030E0A90102C0440FCD
:10442000551F8A95E2F74093EA001092EA008091C6
:10443000EB0088608093EB001092E9008091E80027
:10444000877F8093E8000E94A22655C1811153C145
:104450001091DF021F778091E3008078812B809399
:10446000E3008091E800877F8093E8000E94A22605
:104470008091E80080FFFCCF8091E300806880930A
:10448000E300111102C082E001C083E08093DB02EF
:1044900032C18058823008F02EC12091DF02309165
:1044A000E0022C3D53E0350779F583E08A838AE208
:1044B00089834FB7F894DE01139620E03EE051E285
:1044C000E32FF0E050935700E49120FF03C0E29502
:1044D000EF703F5FEF708E2F90E0EA3010F0C796DC
:1044E00001C0C0968D939D932F5F243149F74FBF34
:1044F0008091E800877F8093E8006AE270E0CE0157
:1045000001960E94F626B4C08091E1029091E202E9
:10451000432F552743305105A9F068F44130510528
:1045200009F4F8C04230510509F0E5C08BE590E090
:10453000EBEEF8E04BC04132510529F14232510512
:1045400089F1D9C0C901992781309105A1F058F0AE
:10455000029709F0D0C0E8E5F9E0E4918E2F90E0F1
:10456000E8E5F9E030C0E8E7F9E0E4918E2F90E06B
:10457000E8E7F9E028C0E6E6F9E0E4918E2F90E064
:10458000E6E6F9E020C08330910508F0B4C0880F5A
:10459000991FFC01EB52FE4F0190F081E02D89E064
:1045A00090E014C08330910508F0A5C0FC01EE0F27
:1045B000FF1FE153FE4F0190F081E02DDC01A45379
:1045C000BE4F8C9190E0009709F495C02091E800CF
:1045D000277F2093E8002091E3023091E40228171E
:1045E000390708F4C90140E0009789F12091DB0206
:1045F000222309F43DC02530D9F12091E80023FDA4
:1046000037C02091E80022FD2FC02091E80020FF54
:10461000EBCF4091F3002091F20030E0342B009773
:1046200059F02830310540F444914093F10031961F
:1046300001972F5F3F4FF3CF41E02830310509F05C
:1046400040E02091E8002E772093E800CDCF411183
:10465000CDCF0AC08091DB02882351F0853041F034
:104660008091E80083FD04C08091E80082FFF2CFD2
:104670008091E8008B778093E8003DC08038D9F5C1
:104680008091E800877F8093E8008091DC0280932E
:10469000F1008091E8008E77D4CE81112CC08091FA
:1046A000DF029091E002992702972CF58091E800B3
:1046B000877F8093E8001091DF021093DC020E9454
:1046C000A226111106C08091E30087FD02C081E09F
:1046D00001C084E08093DB0242E061EC81E00E9453
:1046E000C12642E261EC82E00E94C12642E261EC16
:1046F00083E00E94C1268091E80083FF10C0809172
:10470000E800877F8093E8008091EB0080628093CF
:10471000EB0005C082E190E0E6E4F9E057CFAA960D
:104720000FB6F894DEBF0FBECDBFDF91CF911F91C2
:1047300008951F920F920FB60F9211242F933F935B
:104740004F935F936F937F938F939F93AF93BF9399
:10475000CF93DF93EF93FF93C091E900CF708091E7
:10476000EC00D82FD17080FDD0E81092E900809144
:10477000F000877F8093F00078940E94CC20109204
:10478000E9008091F00088608093F000CD2BCF701D
:10479000C093E900FF91EF91DF91CF91BF91AF916D
:1047A0009F918F917F916F915F914F913F912F9149
:1047B0000F900FBE0F901F901895E8EDF0E08081EC
:1047C0008E7F80831092E2001092DA001092E10056
:1047D000A0EEB0E08C9181608C9380818F77808394
:1047E00019BCA7EDB0E08C918E7F8C9380818F7E79
:1047F00080831092CD020895CF92DF92EF92FF92C4
:104800000F931F93CF93DF93C8EDD0E088818F7E05
:104810008883E7EDF0E080818160808384E082BF5F
:1048200081E08093CD0288818E7F888302EE10E044
:10483000F80110821092DA0081EEC82ED12CF60118
:10484000108288818F7788838881806888838881B7
:104850008F7D888319BC1092DB021092DC021092CB
:10486000DA021092D90290EEE92EF12CF701808144
:104870008B7F808388818160888342E060E080E074
:104880000E94C126F60180818E7F8083F80180819D
:1048900081608083808188608083F70180818E7F42
:1048A0008083888180618883DF91CF911F910F91F0
:1048B000FF90EF90DF90CF9008951F920F920FB668
:1048C0000F9211242F933F934F935F936F937F9396
:1048D0008F939F93AF93BF93EF93FF938091E100EA
:1048E00082FF49C08091E20082FF45C08091E100D3
:1048F0008B7F8093E1002091CC022F5F822F62E3B7
:104900000E943131992319F02093CC0234C01092C7
:10491000CC028091CB02882371F18091DB0284303C
:1049200041F58091E9008F702091EC00922F9170F9
:1049300020FD90E8892B93E09093E9009091EB00A3
:1049400090FF14C09091EE0097FF10C09091E80086
:1049500095FF03C01092F100F9CF9091E80090FF0D
:1049600005C09091E8009E779093E8008F70809347
:10497000E9001092CB028091DA0080FF32C0809172
:10498000D80080FF2EC08091DA008E7F8093DA00FD
:104990008091D90080FF1CC080E189BD82E189BD82
:1049A00009B400FEFDCF81E08093DB0287ED98E043
:1049B0000E9447068091CD02811113C00E94DD2321
:1049C0000E94FC238091E20084608093E20009C091
:1049D00019BC1092DB028BED98E00E944706109202
:1049E000CD028091E10080FF1BC08091E20080FF3A
:1049F00017C08091E2008E7F8093E2008091E200F8
:104A000080618093E2008091D80080628093D8001A
:104A100019BC85E08093DB028FED98E00E94470689
:104A20008091E10084FF32C08091E20084FF2EC0BB
:104A300080E189BD82E189BD09B400FEFDCF80918E
:104A4000D8008F7D8093D8008091E1008F7E809385
:104A5000E1008091E2008F7E8093E2008091E2008D
:104A600081608093E2008091DC02882311F084E071
:104A700007C08091E30087FD02C081E001C083E0B0
:104A80008093DB0283EE98E00E9447068091E1006C
:104A900083FF2BC08091E20083FF27C08091E1005B
:104AA000877F8093E10082E08093DB021092DC023A
:104AB0008091E1008E7F8093E1008091E2008E7F03
:104AC0008093E2008091E20080618093E20042E006
:104AD00060E080E00E94C1268091F00088608093B1
:104AE000F00087EE98E00E944706FF91EF91BF919A
:104AF000AF919F918F917F916F915F914F913F9176
:104B00002F910F900FBE0F901F9018950895089544
:104B10008091D00208959FB7F8941092CB029FBF66
:104B20009091DB02943009F057C09091E9009F709A
:104B30003091EC00232F217030FD20E8922B23E0F0
:104B40002093E9002091EB0020FF43C02091EE006C
:104B500027FF3FC020914203222321F02091E8004B
:104B600025FF37C01092420326E03091E80035FD62
:104B700015C03091DB02343061F53091EB0035FD2A
:104B800028C0215021F481E08093420322C0EFE944
:104B9000FFE03197F1F700C00000E7CF8093F1000C
:104BA0008091E80085FD0AC08091E80080FFFCCF7D
:104BB0008091E8008E778093E80006C08FB7F89464
:104BC00021E02093CB028FBF9F709093E90080E09B
:104BD00008959F709093E9008FEF08959091DB0204
:104BE000943031F580933F03709341036093400309
:104BF00082E08093E9008FEF9091E800815095FD6D
:104C000006C095ED9A95F1F700008111F5CF8091DE
:104C1000E80085FF0DC040E050E063E070E08FE306
:104C200093E00E94A0208091E8008E778093E800B6
:104C30000895BC0184E00C94EE25BC0183E00C9443
:104C4000EE25CF93DF9321E02093E9002FEF309101
:104C5000E800215035FD06C035ED3A95F1F700002A
:104C60002111F5CF2091E80025FF14C0EC0140E0B0
:104C700050E068E070E00E94A0208091E8008E770C
:104C80008093E80088E0FE01A1EDB2E001900D9272
:104C90008A95E1F7DF91CF9108958091E902882309
:104CA00019F081508093E9026091E5027091E6026B
:104CB0008091E7029091E8020C94962D8091E90290
:104CC000833018F48F5F8093E9026091E502709160
:104CD000E6028091E7029091E8020C94962D2091D3
:104CE000E4003091E50095E64091EC00842F81705E
:104CF00040FF23C08091E80080FD1DC08091DB0251
:104D0000882399F0853099F08091EB0085FD11C0E2
:104D10004091E4005091E5002417350729F39150A4
:104D200011F09A01E1CF84E0089582E0089583E0D4
:104D3000089581E0089580E008954091E80042FFE1
:104D4000DDCF08958091DD0287FF11C08091E800DA
:104D500082FD05C08091DB028111F8CF11C08091E6
:104D6000E8008B770BC08091DB02882349F08091AB
:104D7000E80080FFF8CF8091E8008E778093E8000C
:104D80000895982F973068F59093E900981739F0B7
:104D90007091EC002091ED005091F00003C0242FA1
:104DA000762F50E021FD02C09F5FECCF3091EB00E9
:104DB0003E7F3093EB003091ED003D7F3093ED006E
:104DC0003091EB0031603093EB007093EC00209356
:104DD000ED005093F0002091EE0027FDE5CF80E03C
:104DE00008958F708093E90081E008952091E30297
:104DF0003091E4022617370748F06115710539F440
:104E00002091E8002E772093E80001C0B901FC0151
:104E100020E06115710579F18091DB028823F1F1C1
:104E20008530F1F18091E80083FD3CC08091E8007D
:104E300082FD2EC08091E80080FFEBCF2091F3002F
:104E40008091F20090E0922B6115710551F088304D
:104E5000910538F421912093F10061507109019678
:104E6000F3CF21E0089709F020E08091E8008E77E9
:104E70008093E800CECF2111CFCF0AC08091DB0212
:104E8000882361F0853061F08091E80083FD0AC0DD
:104E90008091E80082FFF2CF80E0089582E00895DB
:104EA00083E0089581E0089578941F920F920FB6E1
:104EB0000F9211248F939F93AF93BF9380913B03E5
:104EC00090913C03A0913D03B0913E030196A11D3A
:104ED000B11D80933B0390933C03A0933D03B0939B
:104EE0003E03BF91AF919F918F910F900FBE0F9096
:104EF0001F9018959C014FB7F89480913B039091B7
:104F00003C03A0913D03B0913E034FBF821B930B26
:104F100008952FB7F89460913B0370913C03809102
:104F20003D0390913E032FBF08952FB7F8948091D1
:104F30003B0390913C03A0913D03B0913E032FBFF2
:104F400008951F920F920FB60F9211248F939F9383
:104F5000AF93BF9380913A03811113C080913B03BB
:104F600090913C03A0913D03B0913E034196A11D59
:104F7000B11D80933B0390933C03A0933D03B093FA
:104F80003E03BF91AF919F918F910F900FBE0F90F5
:104F90001F9018950F931F930E94ED14882321F002
:104FA0001F910F910C9489270E9489270091360345
:104FB000109137032091380330913903600F711F2E
:104FC000821F931F1F910F9108950E94ED1481116C
:104FD0000C9495270E94CA27CB0108959C012A5F53
:104FE0003F4FFC014281461301C012820196821795
:104FF0009307B9F708959C01FC0132969FEF80E07A
:105000004191461789F09F3F19F4411101C0982F33
:105010008F5F8630A9F79F3F39F0F901E90FF11D45
:1050200097FDFA9562830895089520913403309195
:1050300035032817390771F09093350380933403B3
:10504000E0913203F0913303309721F00084F18531
:10505000E02D0994089520913003309131032817F1
:10506000390771F09093310380933003E09132035C
:10507000F0913303309721F00680F781E02D0994F9
:1050800008950E94ED14882351F0E0913203F091CD
:105090003303309721F00190F081E02D099480E0F6
:1050A0000895FC01680F791F8FEF91E3E617F7076A
:1050B00071F02191822728E030E087FF03C0880F3C
:1050C000892701C0880F21503109B9F7EFCF089522
:1050D000882311F0FA0101C0FB0109941092F20239
:1050E0008091F30284608093F3028091F00280FF4C
:1050F00008C081EE99E09F938F930E94E0060F9085
:105100000F9008956091E502669570E041E050E0EF
:105110008AE491E00E946B31892B19F481E080933D
:10512000F2020E94E5279093EB028093EA028091BD
:10513000F30284608093F3028091F00280FF08C044
:1051400088EC99E09F938F930E94E0060F900F9058
:10515000089530914C018091E50280FF16C0E091E6
:105160004B0163E0E69FF0011124EC50FD4F539A90
:105170008BB1877F9BB198602FB7F894AF0163E044
:10518000369F400D511D112414C080914D01909106
:105190004E01891720F7E82FF0E0AF01440F551FAB
:1051A000E40FF51FEC50FD4F1182108212828F5FC9
:1051B000F0CFE417F50789F0319168E09BB9000062
:1051C00000C037FF8BB9330F000000C000C000C023
:1051D0008BB900C06A9591F7ECCF2FBF8FE594E0B3
:1051E0000197F1F700C000000895FF920F931F93FD
:1051F000CF93DF93EC01F12C0FEF10E060914F01A2
:10520000F616F0F480914D012F2D30E0280F311D5E
:10521000C901880F991F280F391F2C503D4F70E08E
:10522000C8010E945131962F8C814091E802609113
:10523000E702F99E800D11240E94312EF394DECFF7
:105240000E94A9289A818C8190FF02C08F5F01C0C3
:1052500081508C83DF91CF911F910F91FF90089522
:10526000EF92FF920F931F93CF93DF9300D01F9283
:10527000CDB7DEB7182F062FF42EE22E8091E5026F
:1052800080FF7EC0E82FE695F0E0E552FE4F90816A
:105290009093F1028E7F823021F59E012F5F3F4F68
:1052A000812F0E94312E8091E50280FF1EC02B814C
:1052B00039814A8180914D0190914E01891770F496
:1052C000E82FF0E0BF01660F771FE60FF71FEC50E5
:1052D000FD4F4183308322838F5FF0CF0E94A92846
:1052E00004C0923011F41091E6028091E602181386
:1052F00008C08091E702081304C08091E802F81604
:1053000029F08091F30282608093F3021093E60209
:105310000093E702F092E802EE20E9F06091E502E6
:105320007091E6028091E7029091E8020E94962D2A
:105330008091F00280FF24C08091E8021F928F9339
:105340008091E7021F928F938091E6021F928F93C4
:1053500083EA99E00CC08091F00280FF11C01F9297
:10536000FF921F920F931F921F938CE799E09F93D8
:105370008F930E94E0060FB6F894DEBF0FBECDBF3C
:105380000F900F900F90DF91CF911F910F91FF9091
:10539000EF9008959C013A9521153F4130F5BC01ED
:1053A00066277270AC01442754709C012227387024
:1053B00094FF0FC090FF02C080E101C080E0672B26
:1053C00009F08062452B09F08064232B79F0806816
:1053D0000895892F8170672B09F08260452B09F0B1
:1053E0008460232B19F08860089580E008951F934E
:1053F000CF93DF93CDB7DEB767970FB6F894DEBFD4
:105400000FBECDBF4B8B5C8B6D8B7E8B8F8B6111F9
:105410001092C50286E09E01235F3F4FD901E82F1D
:105420001D92EA95E9F795E0FE017396D901019086
:105430000D929A95E1F79C894E895F897B897D87DA
:105440009E876F87598B488BF901DE011796019073
:105450000D928A95E1F7CE0107960E94F81D811101
:105460003EC086E0FE013796DE01119601900D9256
:105470008A95E1F7FF81E8856A857B85611571056D
:1054800031F0EF3F31F481E0FF3F19F403C081E0D8
:1054900001C080E080FD23C02091910230E0C9016D
:1054A0000196877099274091C20250E084179507B2
:1054B00079F1F983EA837D836C8396E0929FD00132
:1054C000939FB00D1124AE56BD4FFE013196019051
:1054D0000D929A95E1F7809391020E94DE1C16E0EE
:1054E0008091C20290919102891709F1189FC00121
:1054F00011248E569D4F0E94F81D8823C1F0809183
:10550000C20290E00196877099278093C202E8CF8B
:105510001092CE020E948820109291021092C20234
:10552000EBE8F2E086E0DF011D928A95E9F76796E5
:105530000FB6F894DEBF0FBECDBFDF91CF911F91A4
:1055400008958295982F937344E0949F90011124BD
:105550008C7C86958695282B822F8575880F2A7AD4
:105560002695822B0895DF92EF92FF920F931F935F
:10557000CF93DF93E82FF0E0E65DF54FD490282F2E
:1055800026952695269530E0F901E65EF54F0491C3
:10559000877010E0082E02C0159507950A94E2F76F
:1055A00001701127F901E65FF54FE490F12C082E08
:1055B00002C0F594E7940A94E2F791E0E922FF240F
:1055C000F901E650F64FC491D0E002C0D595C795D9
:1055D0008A95E2F7C170DD270115110519F081EEFA
:1055E0000E94872CE114F10419F086EE0E94872CAA
:1055F0008D2D0E94232DEF2819F086EE0E942B2C72
:10560000012B19F081EE0E942B2CCD2B51F08CE256
:10561000DF91CF911F910F91FF90EF90DF900C944D
:10562000232DDF91CF911F910F91FF90EF90DF908D
:105630000895FF920F931F93CF93DF938C018AE01D
:10564000F82EF8018491882309F44CC0813009F0C8
:1056500042C0E8012196FE018491813031F4219607
:10566000FE0184910E94232D39C0823039F4E80173
:105670002296FE0184910E94872C30C0833039F439
:10568000E8012296FE0184910E942B2C27C08430D1
:1056900029F5E8012296FE01249180E090E030E0B7
:1056A000205331092A30310560F4F89EA001F99E9B
:1056B000500D1124C901840F951F2196FE012491DC
:1056C000EECF009759F0EFE9FFE03197F1F700C016
:1056D00000000197F6CF0E94B32AE8018E010F5F08
:1056E0001F4FAFCFDF91CF911F910F91FF90089582
:1056F0000F931F93CF93DF93EC018C01005E110990
:105700000830110510F0009729F40E94CA290E9460
:10571000212C04C00E94CA290E940C2C8C2F0E94AC
:10572000872C8C2F0E942B2CCE010830110510F0F5
:10573000CD2B41F40E94CA29DF91CF911F910F9187
:105740000C94162C0E94CA29DF91CF911F910F91C2
:105750000C94012CCF93C62F409104025091050266
:10576000609106027091070281111EC0411551051A
:105770006105710531F0769567955795479540FD20
:105780000DC084EECC2321F00E94232D89EA03C0B2
:105790000E94232D8AEA0E94232D30C0CC2311F0D1
:1057A0008DEBF9CF8EEBF7CF4115510561057105F2
:1057B00031F0769567955795479540FD06C0CC2307
:1057C00011F08BE4E8CF8EE4E6CF80913A028111AC
:1057D00006C081E080933A0280EE0E94872C0E94EE
:1057E00095279093390280933802CC2319F08BE2ED
:1057F00092E002C08BE290E00E94782B80E0CF9193
:105800000895882341F080959091C5028923809363
:10581000C5020C943A1C0895882339F09091C50272
:10582000892B8093C5020C943A1C0895882341F07B
:1058300080959091CE0289238093CE020C943A1CDD
:105840000895882339F09091CE02892B8093CE025F
:105850000C943A1C0895882309F458C0682F8238A4
:1058600069F40E94412881FF51C069E38BE592E011
:105870000E94FB270E943A1C69E30EC0833891F412
:105880000E94412880FF42C063E58BE592E00E94C0
:10589000FB270E943A1C63E58BE592E00E94EE270D
:1058A0000C943A1C843869F40E94412882FF2EC06F
:1058B00067E48BE592E00E94FB270E943A1C67E4B4
:1058C000EBCF8CEF860F813A38F380E2860F883079
:1058D00070F4677081E090E001C0880F6A95EAF784
:1058E00080959091CE0289238093CE02D9CF8BE50B
:1058F000860F833020F480E090E00C942B28685AC7
:10590000673120F480E090E00C9415280895CF933F
:10591000882309F496C0C82F8238B1F40E94412828
:1059200081FD8FC069E38BE592E00E94FB270E9416
:105930003A1C2FEF81EE94E0215080409040E1F737
:1059400000C0000069E317C08338E1F40E944128D9
:1059500080FD77C063E58BE592E00E94FB270E9403
:105960003A1C2FEF81EE94E0215080409040E1F707
:1059700000C0000063E58BE592E00E94EE27CF9126
:105980000C943A1C8438B1F40E94412882FD59C01D
:1059900067E48BE592E00E94FB270E943A1C2FEF00
:1059A00081EE94E0215080409040E1F700C000007B
:1059B00067E4E1CF8CEF8C0F813A80F4EDE5F2E003
:1059C00083E692E02191C217A1F18E179F07D1F7CC
:1059D0006C2F8BE592E00E94FB27D1CF80E28C0FE9
:1059E000883068F4C77081E090E001C0880FCA95E4
:1059F000EAF79091CE02892B8093CE02C0CFEBE5DF
:105A0000EC0FE33040F4F0E0E556FE4F808190E08B
:105A1000CF910C942B28C85AC73198F4EC2FF0E0A2
:105A2000EE0FFF1FE256FE4F80819181CF910C94C3
:105A300015286C2F8BE592E00E94EE270E943A1CFD
:105A4000C7CFCF9108951F93CF93DF93182F89333A
:105A500019F0C0E0D0E002C0C0E5D0E0812F0E9484
:105A6000872C209741F08FE99FE00197F1F700C064
:105A700000002197F6CF812FDF91CF911F910C94D9
:105A80002B2CE5EEF2E0438121E1421B08F440E0DB
:105A900021E0628181810C943029E5EEF2E04381BE
:105AA00021E1420F08F44FEF21E0628181810C94E3
:105AB0003029E5EEF2E0628121E1621B08F460E04A
:105AC00021E0438181810C943029E5EEF2E062818E
:105AD00021E1620F08F46FEF21E0438181810C9492
