:100000000C94B6030C94FD030C94FD030C94052E84
:100010000C94FD030C94FD030C94FD030C94FD0360
:100020000C94FD030C94FD030C94EB170C9428170F
:100030000C9430190C94FD030C94FD030C94FD03F7
:100040000C94FD030C94FD030C94FD030C94FD0330
:100050000C94FD030C94E3180C94FD030C94FD0325
:100060000C94FD030C94FD030C94FD030C94FD0310
:100070000C94FD030C94FD030C94FD030C94FD0300
:100080000C94FD030C94FD030C94FD030C94FD03F0
:100090000C94FD030C94FD030C94FD030C94FD03E0
:1000A0000C94FD030C94FD030C94FD03A904AE0510
:1000B0004F05C604EB04FB0415052D05410561053C
:1000C0008A05760586098609BE09BE09800B800B64
:1000D000800B800B110AEF0A000B000BAE04AE057B
:1000E0004F05C604EB04FB0415052D05410561050C
:1000F0008A057605BF04AE054F05C604EB04FB0474
:1001000015052D05410561058A0576055B158215E6
:10011000001782150017CA15ED150017CA16DD164F
:10012000DC1FDC1FEF1FEF1FE51FEF1FEF1FEF1F8F
:10013000DC1FDC1FEA1FEF1FEF1FEA1F0A0A2D2D2D
:100140000A0A7374C3B6726D65722D636F6E737530
:100150006C74696E670A44722E2050657465722053
:100160005374C3B6726D65720A0A2B343920313765
:1001700033203234203138203531350A6D61696CD5
:100180004073746F65726D65722D636F6E73756CFD
:1001900074696E672E64650A7777772E73746F655E
:1001A000726D65722D636F6E73756C74696E672EF8
:1001B00064650A0A00467265756E646C69636865F9
:1001C000204772C3BCC39F650A5065746572205393
:1001D00074C3B6726D657200536368C3B66E6520F2
:1001E0004772C3BCC39F650A50657465722053741F
:1001F000C3B6726D657200536368C3B66E652047FF
:1002000072C3BCC39F650A5065746572000501091D
:1002100006A101050719E029E715002501950875D4
:100220000181029501750881010507190029FF1553
:100230000026FF00950675088100050819012905AB
:10024000950575019102950175039101C00902227E
:1002500000010100A0FA09040000010301010009E6
:1002600021110100012240000705810308000A1244
:10027000010002000000081D8D9D9D01000102008B
:10028000010C034B0079007200690061000000104E
:1002900003730070006C00690074004B00420000A2
:1002A000000403090400047F3F1F64321464321405
:1002B000783C1E1E140A050000000005001300090A
:1002C000001A001400025400000000070017001676
:1002D0000015000057635D000014590A000457061A
:1002E000001B001D00E3002B612C41E2002900A847
:1002F00000000000000000000000000D000F0003DF
:10030000571C006A5D6B5D000000001000110001C9
:10031000570C000B006C5D000000000E0002573708
:10032000003600695D295D28612A72E4006D5D2C4C
:100330000000000000000000000000665D240025B1
:100340000026000100010000000000675D1E001F84
:100350000020002700640001000100685D210022E8
:100360000023000100010001000100010001000163
:1003700000000000000000000000001F024A0052C0
:10038000004D000000655D00000000320250005189
:10039000004F0000006E5D01004C002D023800305F
:1003A000001E023100010001004C000100010001AB
:1003B0000000000000000000000000430040004179
:1003C000004200010001000000000044003A003B30
:1003D000003C00010001000100010045003D003E1D
:1003E000003F0001000100010001000100010001C7
:1003F00000000000000000000000000100010001FA
:1004000000010001000100000000000100010001E6
:1004100000010001000100010001000100010001D4
:1004200000010001000100010001000100010001C4
:1004300000000000000000000000000100010001B9
:1004400000010001000100000000000100010001A6
:100450000001000100010001000100010001000194
:100460000001000100010001000100010001000184
:100470000000000000000000000000010001000179
:100480000001000100010000000000C35CC85CC660
:100490005CCA5CC45C0100010001000100C95CC7CA
:1004A0005CCB5CC55C0100010001000100010001A2
:1004B000000000000000002223252628292A2C2DD8
:1004C0002F3032333536383A3B3D3E404243454784
:1004D000494A4C4E5051535557595A5C5E606264BC
:1004E0006668696B6D6F71737577797B7D7F8183CA
:1004F0008587898A8C8E90929496989A9C9E9FA1CB
:10050000A3A5A7A8AAACAEAFB1B3B4B6B8B9BBBCEB
:10051000BEBFC1C2C3C5C6C7C9CACBCCCDCED0D160
:10052000D2D2D3D4D5D6D7D7D8D9D9DADADBDBDB58
:10053000DCDCDCDCDCDDDDDDDDDCDCDCDCDCDBDBF9
:10054000DBDADAD9D9D8D7D7D6D5D4D3D2D2D1D04D
:10055000CECDCCCBCAC9C7C6C5C3C2C1BFBEBCBB4A
:10056000B9B8B6B4B3B1AFAEACAAA8A7A5A3A19FC2
:100570009E9C9A98969492908E8C8A898785838186
:100580007F7D7B79777573716F6D6B696866646267
:10059000605E5C5A5957555351504E4C4A49474535
:1005A0004342403E3D3B3A3836353332302F2D2CD6
:1005B0002A29282625232200000000000000000030
:1005C000000000000000000000000000000000002B
:1005D00000000000000000000000007E0F00D4FFBB
:1005E000FFFFC70000007800000000000000002AA4
:1005F0002B280000000000000000000000000000A8
:10060000000029000000002C1E3420212224342662
:1006100027252E362D3738271E1F2021222324255B
:10062000263333362E37381F0405060708090A0B10
:100630000C0D0E0F101112131415161718191A1B82
:100640001C1D2F3130232D350405060708090A0B20
:100650000C0D0E0F101112131415161718191A1B62
:100660001C1D2F3130354C00010101010101010138
:100670000102020202020202020203030303030355
:100680000303040404040404040505050505060623
:1006900006060607070707070808080809090909E1
:1006A0000A0A0A0B0B0B0C0C0C0D0D0D0E0E0E0F87
:1006B0000F0F101011111112121313141415151617
:1006C000161717181819191A1A1B1B1C1D1D1E1E88
:1006D0001F202021222223242425262627282929D9
:1006E0002A2B2C2D2D2E2F30313232333435363704
:1006F00038393A3B3C3D3E3F404142434445464702
:1007000048494A4C4D4E4F50515354555658595ADA
:100710005B5D5E5F616264656668696B6C6D6F707E
:1007200072737577787A7B7D7E8082838587888AED
:100730008C8E8F91939596989A9C9EA0A2A3A5A724
:10074000A9ABADAFB1B3B5B7BABCBEC0C2C4C6C920
:10075000CBCDCFD1D4D6D8DBDDDFE2E4E7E9EBEED9
:10076000F0F3F5F8FAFDFFFFAA7F554011241FBEF4
:10077000CFEFDAE0DEBFCDBF04B603FE27C0809125
:10078000BA039091BB03A091BC03B091BD03873025
:10079000904BA740B04BD1F41092BA031092BB0318
:1007A0001092BC031092BD0314BE84B7877F84BF30
:1007B0000FB6F894A89580916000886180936000DE
:1007C000109260000FBEE0E0F8E3099512E0A0E0AF
:1007D000B1E0E8E1F1E602C005900D92A835B1075D
:1007E000D9F723E0A8E5B2E001C01D92AA3BB20709
:1007F000E1F70E94131B0C948A300C9400007F9246
:100800008F929F92AF92BF92CF92DF92EF92FF9220
:100810000F931F93CF93DF93CDB7DEB72A970FB611
:10082000F894DEBF0FBECDBFFC01D0801181838163
:100830009481892B39F01F3F39F491E02FEFD212C8
:1008400003C003C091E001C090E090FF02C00C948F
:100850009A0C7F0185E0DE01169601900D928A9533
:10086000E1F7D70112962C918E819F81222349F0C6
:100870000E944F1F082F682F8E819F810E94C021E8
:1008800003C00E949421082FE12FF0E0B8E00B9FF5
:10089000E00DF11D1124A3E0EE0FFF1FAA95E1F773
:1008A000ED0DF11DEE0FFF1FE954FD4F0591149161
:1008B0005801F7018281882309F466C780910001FD
:1008C0008F3F09F444C1E2E7CE2EE1E0DE2E812C19
:1008D000912C7724739480910001082E000C990BC1
:1008E000881599055CF1D60116968C911697882388
:1008F000F1F019968D919C911A978017910739F410
:100900008091B6039091B7038017910781F0F601AB
:100910007786148703878189811103C0C6010E94ED
:10092000AD26C60106960E94CE261092B803FFEFB0
:100930008F1A9F0A26E1C20ED11CCDCFF801E356D3
:10094000FD45EC30F10508F009C1EA5AFF4F0C945F
:100950002430D70112968C91882389F08091B903B5
:1009600085FD05C086EE0E94392384E11BC085EE1B
:100970000E94C02286EE0E94392384E61EC084E1D4
:100980000E94C02284E60E94C02244C4F7018281F2
:100990008823E1F08091B90385FD08C086EE0E94AE
:1009A000392384E20E94392386EEEDCF85EE0E9442
:1009B000C02286EE0E94392387E20E94392386EE08
:1009C0000E94C02285EE0E94392324C484E20E9442
:1009D000C02287E2D8CFD70112968C91882379F074
:1009E0008091B90385FD05C085EE0E94392385E21B
:1009F0009EC086E2E8CFF7018281811105C085E2C1
:100A00000E94C02286E2BFCF8091B90385FD05C058
:100A100086EE0E94392385E2C5CF85EE0E94C02272
:100A200086EE0E94392386E2C8CFD70112968C91B8
:100A3000882389F08091B90385FD05C085EE0E9469
:100A4000392384E274C085EE0E94C02286EE0E94A3
:100A5000392380E3B2CF84E245C0F7018281882345
:100A600059F08091B90385FD05C085EE0E943923B8
:100A700083E25DC082E2A7CF83E20E94C02282E2CD
:100A800082CFD70112968C918823B1F08091B9035F
:100A900085FD0DC085E30E94BB2385E394CFF7015C
:100AA0008281882361F08091B90385FDB3C38EE212
:100AB0000E94BB238EE287CF85E30E94C0228EE294
:100AC00062CFD70112968C91882359F08091B90397
:100AD00085FD05C085EE0E94392387E228C080E3AA
:100AE00072CF87E20E94C02280E34DCFF70182815E
:100AF000882359F08091B90385FD05C085EE0E94D9
:100B0000392381E214C080E25ECF81E20E94C022DC
:100B100080E239CFD70112968C91882399F0809189
:100B2000B90385FD08C085EE0E94392388E30E9441
:100B3000392385EE28CF85EE0E94C02282E30E94F1
:100B4000392340CF88E30E94C02282E31CCFF80102
:100B5000E356FD45EC30F10508F412C6C80197557F
:100B60008F3F910511F008F053C020910001022E33
:100B7000000C330B2817390714F480930001F70198
:100B8000228136E1389F4001399F900C1124C40125
:100B90008E589E4F6C01DC0150962C935097928199
:100BA00016968C911697992341F11A961C930E93E1
:100BB00019978F5F16968C930E942419F6019687D9
:100BC00085878091660287839091B8038091B903ED
:100BD000892B80870190F081E02DC40188589E4FB9
:100BE000309731F0D60154966D917C9155970995C7
:100BF0001093B7030093B6030BC0882349F0F601A6
:100C00008189882329F0C40188589E4F0E94CE26EE
:100C1000D70112968C91882369F0C801825E9C45A9
:100C2000059740F46EE1600F6093D7028CE090E08E
:100C30000E94982F17FF7EC0F7018281882309F454
:100C400079C00E94A4198695817080935B0290916F
:100C5000D702913029F4882319F089E30E94BB233D
:100C60008091B90380935A021092B9038091D70200
:100C7000813071F048F08230A1F08430C1F486EE0A
:100C80000E94BB2388E111C082EE0E9439230FC06D
:100C900088E193E00E94312A88E193E00E94172ABC
:100CA00006C082EE0E94392387E50E94BB238FE3B2
:100CB0009CE90197F1F700C000004801E89497F81B
:100CC0007CE0C72ED12CC4010C2C02C096958795D0
:100CD0000A94E2F78F7096EF980F963010F0805DCF
:100CE00001C0895A0E94522994E0C91AD108ACEF78
:100CF000CA16AFEFDA0639F78091D702813039F0A2
:100D000078F0823069F0843089F488E20DC08CE29A
:100D10000E94BB2380915B02882341F089E304C0D9
:100D200082EE0E94C02202C00E94BB2380915A0220
:100D30008093B903F7018281882309F441C080912F
:100D40008002882329F1C80190568115F0E29F079F
:100D500020F0905E8115904110F45801BB248091E1
:100D60007F02853060F4E82FF0E0EE0FFF1FED58B2
:100D7000FD4FB182A0828F5F80937F0202C01092EC
:100D800080020E94241990937E0280937D0242C2C9
:100D900009328DE5180709F056C181E08093800281
:100DA0000E94241990937E0280937D0210927F020C
:100DB0008AE0E3E7F2E0DF011D928A95E9F716C0C9
:100DC000043FECE51E0709F442C108F06DC1093D7E
:100DD0002CE5120709F45CC10A3D8CE5180709F4FB
:100DE0005DC1083D9CE5190709F449C1F7018281FD
:100DF000882309F48FC11092B5030230FCE51F0768
:100E000008F471C106312CE5120730F0C8018B5F80
:100E10009C45099708F067C10E94590F9093D6022C
:100E20008093D50200318CE5180709F4C3C008F09F
:100E300041C00830ACE51A0709F49AC0F0F4043058
:100E4000ECE51E0709F487C068F402302CE51207B0
:100E500009F477C003301C4509F0E5C08091D50244
:100E6000826076C006309CE5190709F46EC008F070
:100E70007BC08091D50288606BC00C30BCE51B073D
:100E800009F485C068F40A30FCE51F0709F474C052
:100E900008F079C00E948B228091D502806858C0EA
:100EA0000E308CE5180709F476C008F07FC08091F9
:100EB000D5028BC00C3FACE51A0709F44FC018F5FA
:100EC0000331ECE51E0709F47DC078F401312CE50F
:100ED000120709F473C002311C4509F0A4C00E9436
:100EE0008B228091D5028F7733C005319CE519079D
:100EF00009F472C008F486C00B3F1C4509F093C08A
:100F00008091D6023EC00115EDE51E0709F45FC0D1
:100F100058F40E3F2CE5120709F444C008F43FC012
:100F20008091D60282602DC002309DE5190709F438
:100F300075C008F45DC003301D4509F074C060E061
:100F40006EC08091D502816003C08091D50280611E
:100F50008093D50268C08091D50211C08091D602DD
:100F600082608093D6025FC08091D5028062F0CF0C
:100F70008091D5028064ECCF8091D5028860846036
:100F8000E7CF8160EECF8091D5028E7FE1CF809157
:100F9000D5028D7FDDCF8091D502877FD9CF80911B
:100FA000D60218C08091D6028D7FDBCF8091D5020A
:100FB0008F7ECECF8091D5028F7DCACF8091D50212
:100FC0008F7BC6CF8091D502877F8B7FC1CF8091E9
:100FD000D6028D7F8E7FC5CF8091D50282FB2227DE
:100FE00020F991E0922790FB82F990FB83F9B0CF32
:100FF0008091D602982F909591708E7F892B90FBCF
:1010000081F9AFCF0E948B228091D50287FB2227E6
:1010100020F991E0922790FB87F99ACF61E08EE06A
:1010200090E00E94982F6091D5021091D60284E042
:1010300090E00E94982F612F82E290E00E94982F0A
:101040000E948B22E7C0043FBCE51B0731F406E297
:1010500021EE40EE64EF7CE517C0053FECE51E078E
:1010600008F09DC3093DFCE51F0791F00A3D2CE502
:101070001207A1F0083D8CE5180709F0BCCE06E286
:1010800021EE41EE68ED7CE5C7010E941927C2C040
:1010900007E225EE45EE69ED7CE5F6CF08E221E0BA
:1010A00045EE6AED7CE5F0CF063FACE51A0731F47A
:1010B00006E221EE42EE66EF7CE5E6CF063FBCE5B8
:1010C0001B0730F407E225EE44EE65EF7CE5DCCF4C
:1010D000073FECE51E0709F089CE07E225EE46EE54
:1010E00067EF7CE5D1CF0631FCE51F0709F040C072
:1010F0008091B9038A7A91E009F490E090935C02C0
:10110000882311F065E301C069E28DE592E00E9459
:101110008A190EC00631ECE51E0769F480915C0265
:10112000882309F449C365E38DE592E00E947D19A7
:101130000E94E20F6FC08091B90382720D3CECE512
:101140001E0709F4D7C308F04DC0073C2CE5120771
:1011500009F4BCC308F041C3043CACE51A0709F428
:10116000ABC308F02BC3033CECE51E0709F47AC3BC
:10117000D70112968C91882309F46DC00B35BDE51B
:101180001B0751F158F40115FCE51F07B9F00F3D9D
:101190001C4509F060C00E946A0F3CC00C358DE50B
:1011A0001807E1F00D351D4509F055C08091D602B4
:1011B00082FB882780F991E0892711C00E948B2249
:1011C000AFEFB4E3ECE0A150B040E040E1F700C085
:1011D00000000E94BF181EC081E001C080E00E9494
:1011E0000F1039C0023D8CE5180709F493C308F4C9
:1011F00018C3053D2CE5120709F492C308F425C372
:10120000063DBCE51B0709F490C30E35EDE51E074E
:1012100009F0AECF80916503877009F48BC3D701C5
:1012200012968C91882309F485C382E02A960FB622
:10123000F894DEBF0FBECDBFDF91CF911F910F910C
:10124000FF90EF90DF90CF90BF90AF909F908F90E6
:101250007F900C943F22D70112968C9112970C919B
:1012600011961C91882349F0C8010E944F1FD82E67
:10127000682FC8010E94C02104C0C8010E949421A7
:10128000D82EE12FF0E0B8E0DB9EE00DF11D112437
:1012900033E0EE0FFF1F3A95E1F7E00FF11DEE0F7F
:1012A000FF1FE954FD4F859194910E94E00D8C0140
:1012B000982EF701A280C580C2945FE0C52280917C
:1012C0006503877099F0AA2089F0812F807F803490
:1012D00021F080E2800F883048F082E00E943F22B7
:1012E000809165038770DD24D3948111D12CB12EB8
:1012F000B2942FE0B2228B2D90E08C30910508F053
:10130000FFC1FC01EE59FF4F0C942430812F807FE8
:101310001F70882311F01295107FAA20B9F01123B5
:1013200009F4D9C180E2800F883010F0911006C016
:101330008091B903182B1093B90305C08091B803AD
:10134000182B1093B8030E94E20FC5C1802F0E9492
:10135000C022112309F4D4C1005E083010F09110AE
:1013600004C0812F0E94DB0F06C010958091B80346
:1013700018231093B8030E94E20FC2C1812F807F0F
:101380001F70803211F01295107F992021F0F1E04A
:101390009F1611F130C0AA20B1F0CC2081F021E0DD
:1013A000C2120DC08091D60282FDAAC18091660250
:1013B000182B181709F4A4C110936602A1C18091DB
:1013C0006602812B10C0CC2021F081E0C81609F400
:1013D00097C10E94D50F21C0AA2041F095E09C152D
:1013E00008F48EC1812F0E94B6228AC1A4E0AC15F8
:1013F00008F486C112C0AA2019F0CC2099F36BC161
:10140000CC2059F0093309F078C1BFEFE7EEF3E0E3
:10141000B150E040F040E1F76EC1812F0E94AF2251
:101420006FC1812F837009F069C0A1106DC1902F29
:10143000929596959770990F990F802F8F70882E9F
:10144000912CA12CB12C092E04C0880C991CAA1C2B
:10145000BB1C0A94D2F704FF12C04FE050E060E0DA
:1014600070E004C0440F551F661F771F9A95D2F78E
:10147000DB01CA0180959095A095B09503C080E0EE
:1014800090E0DC0116951695412F4370423019F11A
:10149000C8F40091670210916802209169023091AE
:1014A0006A02413059F088299929AA29BB29BC012F
:1014B000CD0160237123822393230AC0802A912ABD
:1014C000A22AB32ABC01CD01682979298A299B293E
:1014D0000E947D2219C188299929AA29BB29009136
:1014E0006702109168022091690230916A02BC0182
:1014F000CD016027712782279327EACFAA2019F010
:10150000812F817001C08695882309F4FDC0902F3A
:10151000929596959770990F990F802F8F70882EBE
:10152000912CA12CB12C092E04C0880C991CAA1C4A
:10153000BB1C0A94D2F704FF12C04FE050E060E0F9
:1015400070E004C0440F551F661F771F9A95D2F7AD
:10155000DB01CA0180959095A095B09503C080E00D
:1015600090E0DC0116951695412F43704230D9F07A
:1015700068F50091D1021091D2022091D3023091EE
:10158000D402413059F088299929AA29BB29BC01E4
:10159000CD0160237123822393231EC0802A912AC8
:1015A000A22AB32A13C088299929AA29BB29009104
:1015B000D1021091D2022091D3023091D402BC0109
:1015C000CD01602771278227932706C0BC01CD017A
:1015D000682979298A299B290E94EB2195C01F70CF
:1015E000AA2039F0812F0E945C22802F0E94B6220F
:1015F0008BC0802F0E94AF22812F0E941A2284C0AC
:10160000802F22EF921629F1291538F090EF9916C4
:1016100059F0A1EF9A16C1F059C0B3EF9B1601F132
:10162000E4EF9E16A1F152C0AA2049F0F4E0FC15A7
:1016300008F466C0812F8F710E94F92161C025E0F6
:101640002C1508F45DC0F6CFAA2029F0812F8F71E8
:1016500030C0AA20D9F3812F8F710E941A2250C066
:10166000AA2079F01F7181E090E0A0E0B0E0BC0119
:10167000CD0104C0660F771F881F991F1A95D2F7F6
:1016800003C060E070E0CB010E94EB2139C0AA20CA
:1016900099F01F71812F0E945C228091D60282FDF9
:1016A00007C0A8E01A9FC0011124836080936503DE
:1016B000812F0E945C2224C081E00E943F22B1E081
:1016C000BC15F0F482E00E943F221AC0AA2039F033
:1016D000CC2009F4BBCF802F0E94392311C0CC202D
:1016E00009F4B9CF893349F4EFEFF7EE23E0E15085
:1016F000F0402040E1F700C00000802F0E94C0228F
:1017000088EF8B0D843010F40E94A419DD20B1F015
:101710008091650380FD12C0D70112961C928595B9
:10172000859585950E945C22C7010E94FF038091E8
:1017300065038595859585950E941A2285E0F701B8
:10174000DE01119601900D928A95E1F789819A81C7
:101750000E949421EA81F0E0B8E08B9FE00DF11D3A
:10176000112483E0EE0FFF1F8A95E1F78981E80FCE
:10177000F11DEE0FFF1FE954FD4F85919491DAC0E2
:10178000E259FF4F0C942430F801E356FD45EC304C
:10179000F10508F0E3C9E658FF4F0C942430063FEA
:1017A0009CE5190709F484CC08F48CCC073FBCE510
:1017B0001B0709F492CC1FCB69E2B6CC053CFCE5D3
:1017C0001F0709F47EC0063C2CE5120709F0D0CCB7
:1017D0004DEF5CE266E07DE291C00A3C9CE51907B2
:1017E00009F47EC078F4083CBCE51B0709F473C01B
:1017F000093CECE51E0709F0BBCC41EF5CE265EE6D
:101800007CE27CC00B3CFCE51F0709F46EC00C3C7D
:101810002CE5120709F0ACCC47E35BE268E47BE21D
:101820006DC00F3CACE51A0709F46EC008F469C03E
:10183000003DECE51E0709F46AC0013DFCE51F0709
:1018400009F096CC6EE089E06DC0033D9CE5190778
:1018500009F463C0043DACE51A0709F089CC61E0E6
:1018600088E165C08091AE0380FF20C08E7F8093A9
:10187000AE036091AE037091AF038091B00390917D
:10188000B1030E94252B0E94BB2780916E038160CB
:1018900080936E03FFEF20E782E0F150204080400C
:1018A000E1F700C000000E94A42AB4CC81608093BC
:1018B000AE0361E086953BC04FE45DE268E57DE202
:1018C0001DC048E55DE26FE47DE218C046E05DE2E0
:1018D0006DEF7CE213C045EE5CE261EF7CE20EC08E
:1018E0004DEC5CE269ED7CE209C049ED5CE26DEC37
:1018F0007CE204C048E45BE267E37BE20E94B52738
:1019000089CC61E081E013C065E082E00BC068E053
:1019100086E008C064E18FE005C067E185E102C0B0
:1019200062E289E10E94A32775CC61E083E20E9414
:101930000F2D70CC2A960FB6F894DEBF0FBECDBF28
:10194000DF91CF911F910F91FF90EF90DF90CF909B
:10195000BF90AF909F908F907F90089580E0089502
:101960009091D50292FF0DC0282F2871283019F4CC
:10197000877F846006C0282F2471243011F48B7F68
:10198000886093FF0DC0282F2871283119F4877EB5
:10199000846106C0282F2471243111F48B7E886164
:1019A0002091D60220FF0DC0382F3871383019F43D
:1019B000877F816006C0382F3171313011F48E7FFE
:1019C000886021FF0DC0282F2871283119F4877EE7
:1019D000816106C0282F2171213111F48E7E88612A
:1019E00094FD877E08957F928F929F92AF92BF92CF
:1019F000CF92DF92EF92FF920F931F93CF93DF93DB
:101A00001F92CDB7DEB7762E4A0159016801082F23
:101A1000880F110BC8010E94CC2E892B09F07EC0C3
:101A20008AE0809FF001819FF00D1124EE5FFE4F50
:101A3000458150E04115510511F041E050E08AE048
:101A4000809FF001819FF00D1124EE5FFE4F6681B3
:101A5000778167547D4FCE0101960E948130F40159
:101A600040815181628173812FB7F89480918D02FA
:101A700090918E02A0918F02B09190022FBF841B93
:101A8000950BA60BB70B84369105A105B10540F463
:101A9000B701C6010E948C279981891709F440C0BB
:101AA000072D770C110BC8010E94CC2E892B09F54C
:101AB000E114F10401F18AE0809FF001819FF00DB3
:101AC0001124EE5FFE4F458150E0E416F50608F460
:101AD000A7018AE0809FF001819FF00D1124EE5F45
:101AE000FE4F6681778167547D4FC5010E9481302A
:101AF00002C010E001C011E0B701C6010E948C27AE
:101B000091E02981281390E0192381F00E9418198F
:101B1000F401608371838283938308C010E001C065
:101B200011E0A701B601C5010E948130812F0F90FD
:101B3000DF91CF911F910F91FF90EF90DF90CF90A9
:101B4000BF90AF909F908F907F9008958091850275
:101B5000811118C08091D80080618093D8008AE1FB
:101B60008A95F1F700C08091D90080FD02C082E023
:101B700001C081E080938502823021F40E946C17BD
:101B800010929E0281E090918502913009F080E0F0
:101B90000895F894E82FE295EF70F0E031A1282F36
:101BA0002F7081E090E001C0880F2A95EAF7982F06
:101BB0009095932391A392A1892B82A37894089561
:101BC000CF93DF938238910569F1B0F481339105A9
:101BD00009F46FC048F48932910509F465C08A326E
:101BE000910509F46BC06FC08533910509F457C0A6
:101BF00089339105B9F067C0833E910571F138F4DE
:101C0000803E9105B1F0823E910511F15CC0863EA7
:101C10009105B9F1873E9105C9F1843E910509F01E
:101C200052C024C02091D50220FD2AC121FD28C127
:101C30004AC08091D50280FD1DC18091D60280FFEF
:101C40001FC18091D50284FD12C183EE90E02CC1AA
:101C50008091D50282FF11C1F4CF8091D50282FD1F
:101C60000CC18091D60280FD0BC1EBCF8091D602D2
:101C700081FF0CC18091D50284FDF9C087EE90E010
:101C800013C18091D50283FFFEC0F4CF8091D502AD
:101C900083FDF9C08091D60281FDF8C0EBCF809121
:101CA000D50285FDF6C0F8C08091D50285FDF4C04F
:101CB000F0C08091D50286FDF2C0F4C08091D502BB
:101CC00086FDF0C0ECC0811523E59207A8F58115CB
:101CD00032E5930708F099C0811540E29407D0F4EB
:101CE000811521E0920708F0DFC0853A910550F494
:101CF0008430910508F0D8C0019709F0B8C081E0A0
:101D000090E0D2C09C01205E31092830310508F0F6
:101D1000AEC0CAC0811531E5930708F071C08115C6
:101D200040E5940708F04EC0811520E4920708F4BE
:101D30009EC09F70906AB8C0EC01811536E593078C
:101D4000F0F4811545E5940708F078C0C11584E5E5
:101D5000D80708F06EC09E012370332781E090E021
:101D600002C0880F991F2A95E2F7C695C69520E212
:101D7000C29FE00111248C2B9D2B9A6895C0811580
:101D80002AE5920778F4811539E5930708F05EC0DB
:101D9000811548E5940708F46AC0982F8827806F5A
:101DA000906A82C090568115904208F060C08D2FD5
:101DB0008F710E94B00C282F2F71CE01992790624D
:101DC000922B72C09C0174E0369527957A95E1F7C5
:101DD000922F9370482F437021E030E002C0220F11
:101DE000331F4A95E2F73C68392B8F70982F9695F0
:101DF000969540E2949FC0011124822B932B54C0EE
:101E0000982F8827816F906A4FC0AC014370552787
:101E100021E030E002C0220F331F4A95E2F7869599
:101E2000869540E2849FC0011124822B932B9C68ED
:101E30003BC09C2F8827846F906A36C00E94B00CEC
:101E40008F7190E0982F882790622EC08F700E942B
:101E5000B00C94E0D695C7959A95E1F7CF70D0E095
:101E6000DC2FCC27D0699E01282BC9011DC080E042
:101E700090E01AC089E390E017C082EE90E014C0B1
:101E800080EE90E011C086EE90E00EC084EE90E00F
:101E90000BC089E290E008C085E390E005C08AE2CB
:101EA00090E002C081E390E0DF91CF9108950C941F
:101EB0001819CF9384E090E00E94842FC82F82E20B
:101EC00090E00E94842F2C2F30E0A901582BCA01EA
:101ED000CF91089569EE7EEF80E090E00E94B62FEA
:101EE00060E082E090E00E94982F60E083E090E064
:101EF0000E94982F10926702109268021092690255
:101F000010926A0260E084E090E00E94982F60E006
:101F100082E290E00E94982F60E085E090E00E94CD
:101F2000982F60E086E090E00E94982F6FEF87E0A6
:101F300090E00E94982F40E050E0BA0188E090E0E5
:101F40000E94AA2F60E08DE090E00E94982F40E070
:101F500050E0BA0188E190E00E94AA2F60E087E19A
:101F600090E00E94982F40E050E0BA018CE190E0B0
:101F70000E94AA2F60E070E080E290E00E94B62FFD
:101F800040E050E0BA0188E190E00E94AA2F40E0D2
:101F900050E0BA018FE090E00E94AA2F40E050E0AC
:101FA000BA0183E190E00C94AA2F8091660281111E
:101FB00010926602089580959091B90389238093C9
:101FC000B90308959091B9038091B803892B2091AA
:101FD0006502982F922B90935D0280916602882370
:101FE00089F0892B80935D02EFE5F2E097E080E0D5
:101FF000915029F021912223D9F38F5FF9CF8111DC
:102000000E94D50FE0918602F0918702309731F05F
:102010000280F381E02D8DE592E009940895CF933D
:10202000C091D602C2FB992790F9981781F080FBE6
:10203000C2F9C093D6026091D50284E090E00E947C
:10204000982F6C2F82E290E0CF910C94982FCF9133
:1020500008958F929F92AF92BF92CF92DF92EF92AC
:10206000FF920F931F93CF93DF93CDB7DEB72C97DB
:102070000FB6F894DEBF0FBECDBF9E012F5F3F4F5E
:10208000790188E0F90111928A95E9F702E112E0FD
:102090005901CC24C394D12CF80180818F3F09F4DD
:1020A00047C0F894E82FE295EF70F0E021A18F701F
:1020B000A60102C0440F551F8A95E2F7CA01922F6C
:1020C000982B91A392A18095892382A3789400C034
:1020D000EAE1F2E020E030E0912C41914F3FB1F095
:1020E000A42FA295AF70B0E090968C9190E04F70C5
:1020F00002C0959587954A95E2F780FD07C08C2D23
:10210000022E01C0880F0A94EAF701C080E0982AE5
:102110002F5F3F4F2830310501F7F80180818F3F55
:1021200011F00E94C90DF0EAFA95F1F7F5019082DD
:102130000F5F1F4FFFEFAF1ABF0A22E006311207F1
:1021400009F0AACF48E050E0B7018BED92E00E9481
:1021500074308C01892B41F088E0F701ABEDB2E0DF
:1021600001900D928A95E1F7F090E40201151105B6
:1021700049F081E080936D020E94241990936C02D3
:1021800080936B0280916D028823B9F080916B027D
:1021900090916C020E940919059778F0ABEDB2E0BE
:1021A000EF2DF0E0E951FD4F8FED92E02D9121935D
:1021B0008A179B07D9F710926D020115110509F0D6
:1021C00043C20E94A60DE091E402882309F493C162
:1021D00019861A861B861C860E2F10E009511D4F8A
:1021E0008091D002AE01435F5F4F7A018A3058F48C
:1021F00040ED5AE1BE01675F7F4FC8010E94981E03
:10220000882361F10AC080916E0290916F020E9452
:102210000919843F914060F732C04AE75AE1BE0194
:10222000675F7F4FC8010E94981E8823B9F040E283
:102230005AE1BE01675F7F4FC8010E94981E882344
:1022400069F044EB59E1BE01675F7F4FC8010E940E
:10225000981E882319F01092D00219C08091D002E4
:102260008F3F19F08F5F8093D0028091D0028A3027
:1022700070F00E94241990936F0280936E02E09197
:10228000E302F0E0E951FD4FDE01199614C0E09140
:10229000E302F0E0E951FD4FDE011996D12C8D915A
:1022A0009081981719F08083DD24D3943196AE1570
:1022B000BF05A9F707C011921D92EA16FB06D9F7D0
:1022C000DD24D394809100018F3F49F1C12C96E128
:1022D000B92E1BC0BE9CF001BF9CF00D1124EE581E
:1022E000FE4F828893888114910419F48FEA882E16
:1022F000912CBE9C8001BF9C100D11240E581E4FC6
:10230000F8018681811110C0C394EC2CF12C8091CE
:102310000001082E000C990B8E159F05DCF68091AC
:102320007202882339F118C0858596850E940919A3
:102330008816990648F7F8018189811103C0C80100
:102340000E94AD26BE9CC001BF9C900D11248858F0
:102350009E4F0E94CE26D8CF80917002909171023C
:102360000E940919833E944028F080EE0E94C0220A
:102370001092720280918002882309F4BAC0809181
:102380007F02882309F4B5C080917D0290917E027E
:102390000E9409198D32914008F4ABC0109280025E
:1023A00080917302909174020F97D9F48091750215
:1023B00090917602892BA9F480917702909178020E
:1023C000892B79F48091790290917A02892B49F4D2
:1023D00080917B0290917C02892B19F483E00E940A
:1023E000F92180917302909174024097E1F48091F9
:1023F0007502909176024797B1F48091770290919F
:102400007802892B81F48091790290917A02892B4C
:1024100051F480917B0290917C02892B21F487EF0B
:1024200091E00E94B82980917302909174024097C4
:10243000E1F480917502909176024697B1F4809113
:10244000770290917802892B81F4809179029091A2
:102450007A02892B51F480917B0290917C02892B26
:1024600021F488ED91E00E94B82980917302909147
:1024700074024097E1F4809175029091760245973D
:10248000B1F48091770290917802892B81F4809148
:10249000790290917A02892B51F480917B0290917C
:1024A0007C02892B21F485EB91E00E94B829809170
:1024B0007302909174024097E1F4809175029091BB
:1024C00076020497B1F48091770290917802892B7B
:1024D00081F48091790290917A02892B51F4809154
:1024E0007B0290917C02892B21F48CE391E00E9485
:1024F000B8290D2DABC0F0E0E951FD4FF89484E010
:10250000AAEBB2E001900D928A95E1F764E070E0E9
:102510008AEB92E00E948C278093B9027894F89419
:10252000E091F502F0E0EE50FD4F808189878093C5
:10253000BF0261E070E0CE0109960E948C27809373
:10254000BE027894F894C090C002D090C102E0908E
:10255000C202F090C3028091810290918202A09108
:102560008302B0918402C816D906EA06FB06D1F0B0
:10257000C0928102D0928202E0928302F0928402A1
:102580000E94A60D81110EC00E941819C61AD70A02
:10259000E80AF90AC0928802D0928902E0928A027F
:1025A000F0928B027894F8948091CB02882309F4FE
:1025B00049C080FF24C09091C4028091AE0390FF77
:1025C00009C081608093AE0360E0892F86950E94E8
:1025D0000F2D15C08E7F8093AE030E94BB27809184
:1025E0006E03816080936E033FEF40E752E031500D
:1025F00040405040E1F700C000000E94A42A8091B2
:10260000CB0281FF09C020E04091C7026091C60261
:102610008091C5020E94242C8091CB0282FF09C0C8
:102620008091CA02882319F00E94C22702C00E942A
:10263000BB278091CB0283FF03C081E080936903B5
:102640001092CB02789402C001E010E0802F2C960B
:102650000FB6F894DEBF0FBECDBFDF91CF911F91B3
:102660000F91FF90EF90DF90CF90BF90AF909F9031
:102670008F900895982F973068F59093E9009817F8
:1026800039F05091EC002091ED004091F00003C032
:10269000562F40E022E021FD02C09F5FECCF309139
:1026A000EB003E7F3093EB003091ED003D7F3093A7
:1026B000ED003091EB0031603093EB005093EC0073
:1026C0002093ED004093F0002091EE0027FDE5CF30
:1026D00080E008958F708093E90081E00895209153
:1026E000E4003091E50095E64091EC00842F817084
:1026F00040FF23C08091E80080FD1DC080919E02B4
:10270000882399F0853099F08091EB0085FD11C008
:102710004091E4005091E5002417350729F39150CA
:1027200011F09A01E1CF84E0089582E0089583E0FA
:10273000089581E0089580E008954091E80042FF07
:10274000DDCF08950F931F93CF93DF938C010E94E9
:102750006F13811118C0E80108E010E08091E800D3
:1027600085FD0AC08091E8008E778093E8000E9482
:102770006F13882399F307C089918093F10001506A
:10278000110961F780E0DF91CF911F910F910895BA
:102790008091A00287FF11C08091E80082FD05C0F2
:1027A00080919E028111F8CF11C08091E8008B7753
:1027B0000BC080919E02882349F08091E80080FF41
:1027C000F8CF8091E8008E778093E80008952091FB
:1027D000A6023091A7022617370748F06115710548
:1027E00039F42091E8002E772093E80001C0B90168
:1027F000FC0120E06115710579F180919E0288232A
:10280000F1F18530F1F18091E80083FD3CC08091C9
:10281000E80082FD2EC08091E80080FFEBCF209180
:10282000F3008091F20090E0922B6115710551F058
:102830008830910538F421912093F100615071099D
:102840000196F3CF21E0089709F020E08091E8009D
:102850008E778093E800CECF2111CFCF0AC0809130
:102860009E02882361F0853061F08091E80083FD4D
:102870000AC08091E80082FFF2CF80E0089582E0F4
:10288000089583E0089581E00895089508950895D6
:10289000809193020895CF93DF9321E02093E90084
:1028A0002FEF3091E800215035FD06C035ED3A9507
:1028B000F1F700002111F5CF2091E80025FF14C0A9
:1028C000EC0140E050E068E070E00E94A2138091CB
:1028D000E8008E778093E80088E0FE01A4E9B2E08A
:1028E00001900D928A95E1F7DF91CF9108951F93A2
:1028F000CF93DF93CDB7DEB7AA970FB6F894DEBFBC
:102900000FBECDBFE0EAF2E08091F100819322E0BA
:10291000E83AF207C9F78091A102833009F460C058
:1029200030F4813071F0823009F49AC0B1C08A303D
:1029300009F486C08B3009F46BC0893009F0A8C057
:1029400020C08091A002813A09F0A2C08091E800E5
:10295000877F8093E8008091A4029091A502892B43
:1029600021F468E084E992E003C060E080E090E058
:1029700070E00E94E7138091E8008B778093E80075
:1029800087C08091A002813209F082C08091A402A8
:102990009091A502892B09F07BC08091E800877F88
:1029A0008093E8008091E80082FD05C080919E023E
:1029B0008111F8CF6DC02091F3008091F20090E07A
:1029C000922B029729F48091F1008B7F813021F4C2
:1029D0008091F100809393028091E8008B7754C03E
:1029E0008091A002813A09F053C08091A402909195
:1029F000A502892B09F04CC08091E800877F809365
:102A0000E8008091E80080FFFCCF8091010137C091
:102A10008091A0028132E1F58091A4029091A502FB
:102A2000892BB1F58091E800877F8093E8000E94B0
:102A3000C8138091A202809301010E948B2228C0BA
:102A40008091A002813221F58091E800877F8093F8
:102A5000E8000E94C8138091A3028093920218C0DC
:102A60008091A002813AA1F48091E800877F809351
:102A7000E8008091E80080FFFCCF80919202809373
:102A8000F1008091E8008E778093E8000E94C813DF
:102A90008091E80083FFB4C18091A0029091A102CF
:102AA000492F50E04A30510508F0AAC1FA01EA570F
:102AB000FF4F0C942430803821F0823809F0A0C1F7
:102AC00008C080919C0290919D02992389F08260B8
:102AD0000FC08091A4028F70873008F091C180935D
:102AE000E9008091EB0085FB882780F91092E900CE
:102AF0009091E800977F9093E8008093F100109206
:102B0000F10053C1282F2D7F09F07AC1882319F0D5
:102B1000823061F075C18091A202813009F070C1EC
:102B2000933009F080E080939D022EC08091A20234
:102B300081112AC08091A4028F702FEF280F2630B8
:102B400008F05EC18093E9002091EB0020FF1CC0DB
:102B5000933021F48091EB00806214C09091EB00DF
:102B600090619093EB0021E030E0A90102C0440F96
:102B7000551F8A95E2F74093EA001092EA0080918F
:102B8000EB0088608093EB001092E9008091E800F0
:102B9000877F0EC1811134C11091A2021F778091ED
:102BA000E3008078812B8093E3008091E800877FA9
:102BB0008093E8000E94C8138091E80080FFFCCF5A
:102BC0008091E30080688093E300111102C082E0ED
:102BD00001C083E080939E0213C18058823008F0C8
:102BE0000FC18091A2029091A3028C3D53E0950702
:102BF00079F583E08A838AE289834FB7F894DE010E
:102C0000139620E03EE051E2E32FF0E050935700AE
:102C1000E49120FF03C0E295EF703F5FEF708E2FCD
:102C200090E0EA3010F0C79601C0C0968D939D9356
:102C30002F5F243149F74FBF8091E800877F809351
:102C4000E8006AE270E0CE0101960E94E7139CC0A2
:102C50004091A4025091A502292F3327233031053A
:102C6000A9F068F42130310509F4D9C022303105CA
:102C700009F0C6C082E290E0EDE4F2E032C0213219
:102C8000310521F12232310529F1BAC0992781306D
:102C90009105A1F058F0029709F0B2C0E1E8F2E026
:102CA000E4918E2F90E0E1E8F2E018C0E1EAF2E072
:102CB000E4918E2F90E0E1EAF2E010C0EFE8F2E05C
:102CC000E4918E2F90E0EFE8F2E008C0452B09F484
:102CD000ABC096C0452B09F4ACC092C0009709F474
:102CE0008FC02091E800277F2093E8002091A60262
:102CF0003091A7028217930708F49C0140E0211548
:102D0000310589F180919E02882309F43DC0853008
:102D1000D9F18091E80083FD37C08091E80082FD01
:102D20002FC08091E80080FFEACF4091F3008091AE
:102D3000F20090E0942B2115310559F0883091056F
:102D400040F444914093F1003196215031090196AD
:102D5000F2CF41E0089709F040E08091E8008E77DB
:102D60008093E800CCCF4111CDCF0AC080919E0264
:102D7000882351F0853041F08091E80083FD04C044
:102D80008091E80082FFF2CF8091E8008B778093FA
:102D9000E80036C08038A1F58091E800877F8093F5
:102DA000E80080919F028093F1008091E8008E7787
:102DB0008093E8000E94C81323C0811121C0809134
:102DC000A2029091A30299270297D4F48091E8007F
:102DD000877F8093E8001091A20210939F020E94C7
:102DE000C813111106C08091E30087FD02C081E085
:102DF00001C084E080939E0261EC81E00E943A135E
:102E00008091E80083FF1AC08091E800877F80935B
:102E1000E8008091EB0080628093EB000FC082E1BC
:102E200090E0EFE6F2E05DCF89E090E0EFE5F2E0E0
:102E300058CF80E490E0EDE0F2E053CFAA960FB6D1
:102E4000F894DEBF0FBECDBFDF91CF911F910895E3
:102E50001F920F920FB60F9211242F933F934F930F
:102E60005F936F937F938F939F93AF93BF93CF9312
:102E7000DF93EF93FF93C091E900CF708091EC0056
:102E8000D82FD17080FDD0E81092E9008091F00039
:102E9000877F8093F00078940E9477141092E90065
:102EA0008091F00088608093F000CD2BCF70C093AC
:102EB000E900FF91EF91DF91CF91BF91AF919F9189
:102EC0008F917F916F915F914F913F912F910F90D3
:102ED0000FBE0F901F901895E8EDF0E080818E7F77
:102EE00080831092E2001092DA001092E100A0EECE
:102EF000B0E08C9181608C9380818F77808319BC46
:102F0000A7EDB0E08C918E7F8C9380818F7E808343
:102F1000109291020895CF92DF92EF92FF920F9359
:102F20001F93CF93DF93C8EDD0E088818F7E888395
:102F3000E7EDF0E080818160808384E082BF81E002
:102F40008093910288818E7F888302EE10E0F801E1
:102F500010821092DA0081EEC82ED12CF601108278
:102F600088818F77888388818068888388818F7D36
:102F7000888319BC10929E0210929F0210929D02AB
:102F800010929C0290EEE92EF12CF70180818B7F4C
:102F9000808388818160888360E080E00E943A13AA
:102FA000F60180818E7F8083F8018081816080833B
:102FB000808188608083F70180818E7F8083888113
:102FC00080618883DF91CF911F910F91FF90EF90E7
:102FD000DF90CF9008951F920F920FB60F92112499
:102FE0002F933F934F935F936F937F938F939F9311
:102FF000AF93BF93EF93FF938091E10082FF09C0ED
:103000008091E20082FF05C08091E1008B7F809378
:10301000E1008091DA0080FF2AC08091D80080FF13
:1030200026C08091DA008E7F8093DA008091D900EB
:1030300080FF18C080E189BD82E189BD09B400FE2E
:10304000FDCF81E080939E028091910281110FC09B
:103050000E946C170E948B178091E200846080931D
:10306000E20005C019BC10929E021092910280915C
:10307000E10080FF17C08091E20080FF13C08091C3
:10308000E2008E7F8093E2008091E2008061809375
:10309000E2008091D80080628093D80019BC85E05E
:1030A00080939E028091E10084FF2EC08091E20017
:1030B00084FF2AC080E189BD82E189BD09B400FE98
:1030C000FDCF8091D8008F7D8093D8008091E10062
:1030D0008F7E8093E1008091E2008F7E8093E200FA
:1030E0008091E20081608093E20080919F028823BA
:1030F00011F084E007C08091E30087FD02C081E009
:1031000001C083E080939E028091E10083FF26C08E
:103110008091E20083FF22C08091E100877F80934D
:10312000E10082E080939E0210929F028091E10074
:103130008E7F8093E1008091E2008E7F8093E20099
:103140008091E20080618093E20060E080E00E9474
:103150003A138091F00088608093F000FF91EF9126
:10316000BF91AF919F918F917F916F915F914F919F
:103170003F912F910F900FBE0F901F90189581E0F7
:103180008093E00080E28093D8001092C9008FE124
:103190009EE40197F1F700C0000087E090EBDC01AE
:1031A0008093BA039093BB03A093BC03B093BD0379
:1031B0009CE088E10FB6F894A895809360000FBE5C
:1031C00090936000FFCF78941F920F920FB60F92EA
:1031D00011248F939F93AF93BF9380918D02909111
:1031E0008E02A0918F02B09190020196A11DB11D97
:1031F00080938D0290938E02A0938F02B0939002E1
:10320000BF91AF919F918F910F900FBE0F901F9024
:1032100018959C014FB7F89480918D0290918E0281
:10322000A0918F02B09190024FBF821B930B089523
:103230002FB7F89460918D0270918E0280918F0269
:10324000909190022FBF08952FB7F89480918D022E
:1032500090918E02A0918F02B09190022FBF08959D
:103260001F920F920FB60F9211248F939F93AF93DB
:10327000BF9380918C02811113C080918D02909137
:103280008E02A0918F02B09190024196A11DB11DB6
:1032900080938D0290938E02A0938F02B093900240
:1032A000BF91AF919F918F910F900FBE0F901F9084
:1032B00018950F931F930E94A60D882321F01F914C
:1032C0000F910C9418190E941819009188021091FE
:1032D000890220918A0230918B02600F711F821F38
:1032E000931F1F910F9108950E94A60D81110C94B8
:1032F00024190E945919CB0108959C012A5F3F4F60
:10330000FC014281461301C0128201968217930785
:10331000B9F708959C01FC0132969FEF80E041913E
:10332000461789F09F3F19F4411101C0982F8F5F14
:103330008630A9F79F3F39F0F901E90FF11D97FD9C
:10334000FA956283089508950E94A60D882351F08E
:10335000E0918602F0918702309721F00190F08190
:10336000E02D099480E00895CF93DF93CDB7DEB7C9
:1033700028970FB6F894DEBF0FBECDBF85E0EEEA0A
:10338000F3E0DE01119601900D928A95E1F78091AC
:103390006C0390916D03A0916E038E839F83A88729
:1033A00028854091CC025091CD026091CE0270915F
:1033B000CF023FB7F89480918D0290918E02A09138
:1033C0008F02B09190023FBF841B950BA60BB70BE9
:1033D00084369105A105B10510F4222329F18091CD
:1033E00037019091380187549D4F4091360150E04C
:1033F0004930510510F048E050E0BE016F5F7F4F4B
:103400000E94813085E090E00E94CC2E892B11F043
:1034100080E00DC00E9418196093CC027093CD0219
:103420008093CE029093CF0210926E0381E0289693
:103430000FB6F894DEBF0FBECDBFDF91CF910895D8
:10344000CF93DF9300D000D0CDB7DEB74091B50267
:103450005091B6026091B7027091B8022FB7F894FC
:1034600080918D0290918E02A0918F02B091900276
:103470002FBF841B950BA60BB70B84369105A105B6
:10348000B10580F10E945919DC01CB010296A11D02
:10349000B11D89839A83AB83BC8380912D01909168
:1034A0002E0187549D4F40912C0150E0453051052D
:1034B00010F044E050E0BE016F5F7F4F0E9481300A
:1034C00084E090E00E94CC2E892B11F080E00BC0AC
:1034D0000E9418196093B5027093B6028093B702E8
:1034E0009093B80281E00F900F900F900F90DF91B2
:1034F000CF910895CF92DF92EF92FF920F931F9397
:10350000CF93DF931F92CDB7DEB7EE24E394F12C77
:103510000FEB12E09E012F5F3F4F41EB52E063E063
:1035200082E00E94F30CC82E882379F1D090E60245
:103530008D2D90E09C012E503D4F79011981F901AC
:103540008081181B012F80E010165CF40150F701F8
:1035500080818F5F808360E08D2D0E944A2A81E008
:10356000F3CF912F17FD90E0191B112359F01F5F26
:10357000F70180818150808361E08D2D0E944A2A6D
:1035800081E0F3CF81110E94570F8C2D0F90DF91B6
:10359000CF911F910F91FF90EF90DF90CF90089502
:1035A000CF92DF92EF92FF920F931F93CF93DF930F
:1035B00000D000D0CDB7DEB76B0184E0E82EF12C4F
:1035C0000AEB12E09E012F5F3F4F4DEA52E061E0AF
:1035D00080E00E94F30C882361F049815A816B815D
:1035E0007C814093A9025093AA026093AB0270932E
:1035F000AC024091A9025091AA026091AB02709175
:10360000AC02F60140835183628373830F900F9065
:103610000F900F90DF91CF911F910F91FF90EF903E
:10362000DF90CF900895CF93DF93CDB7DEB72A9781
:103630000FB6F894DEBF0FBECDBF84B7877F84BFBF
:103640000FB6F894A895809160008861809360001F
:10365000109260000FBE90E080E80FB6F89480935F
:103660006100909361000FBE85B7806885BF85B704
:10367000806885BF8EEA9CE090935902809358023F
:103680000E946C170E948B178091E20084608093E7
:10369000E200789480919E028823A1F01091E900C5
:1036A0001F709091EC00892F817090FD80E8182B9D
:1036B0001092E9008091E80083FD0E9477141F704A
:1036C0001093E90082E084BD93E095BD9AEF97BD29
:1036D00080936E00109288021092890210928A02E2
:1036E00010928B020E94A60D80933E0180913E01B4
:1036F000882321F010926D018AE003C08AE0809354
:103700006D0180936E010E94A60D81110E94BF2D54
:1037100080913E0180913E01811102C094E001C080
:1037200090E09093E40284E0891B8093E30202E13D
:1037300012E096E1E92E92E0F92EF80181918F01D5
:103740008F3F11F00E94C90DE016F106B1F70AE1B2
:1037500012E082E2E82E82E0F82EF80181918F01DA
:103760008F3F11F00E94C90DE016F106B1F7EBEDA5
:10377000F2E083EE92E0A7EEB2E011921D928E1776
:103780009F07D9F780E090E00E94922F893E9E4FDC
:1037900011F00E946A0F82E090E00E94842F8093D3
:1037A000F8020E94590F9093D6028093D5020E948E
:1037B00029108FE39CE90197F1F700C000000E94F7
:1037C00029108091E70280FF08C06FEF7FEF80E053
:1037D00090E00E94B62F0E94BF1883E090E00E9404
:1037E000842F682F70E080E090E00E947D228CE0C2
:1037F00090E00E94842F90E0A0E0B0E08093D70298
:103800009093D802A093D902B093DA020E94A60D39
:10381000811102C00E94C22D8091E50281113BC03E
:1038200080E090E00E94922F893E9E4F21F00E94FE
:103830006A0F0E94592B88E090E00E948C2F6093C1
:10384000AE037093AF038093B0039093B103809164
:103850006E03836080936E036E7F71F40E94592B18
:1038600088E090E00E948C2F6093AE037093AF03CA
:103870008093B0039093B1030E940B2B0E94BB274F
:103880008091AE0380FF04C060E086950E940F2DFA
:1038900081E08093E50280913E01811106C085E3BD
:1038A00080934A0186E68093490120914A01E22FE4
:1038B000E295EF70F0E031A12F7081E090E0AC0173
:1038C000022E01C0440F0A94EAF7542F5095352375
:1038D00031A332A1432B42A340914901A42FA295C9
:1038E000AF70B0E091963C9191974F70042E01C05B
:1038F000880F0A94EAF7982F9095932391969C93BA
:10390000919792969C919297892B92968C939297ED
:1039100080A190E002C0959587952A95E2F7817085
:1039200090962C9130E002C0359527954A95E2F7A4
:1039300020FD02C090E001C092E0892B8093F60246
:1039400090913E0181E098279093F502891B809326
:10395000E6028FE391E09093870280938602F8E17C
:10396000EF2EF12CA0E46A2EBFEECB2EB2E0DB2EC0
:1039700010E1712E80919E02853009F03EC012E167
:1039800080919E02853009F034C080919E0284307F
:1039900009F110928C020FB6F894A895E09260009D
:1039A0000FBE6092600083B7817F846083BF83B75E
:1039B000816083BF7894889583B78E7F83BF0FB66D
:1039C000F894A895809160008861809360001092BF
:1039D00060000FBE80919D02882391F20E94291001
:1039E000E7EEF2E0819181118DC1CE16DF06D1F7AD
:1039F000C7CF0E948B220E94A4190E942910811116
:103A00000E941819E9EFF2E0A7EEB2E000E010E042
:103A1000802E9D908191892549F1A12CBB24B394DE
:103A2000982F9B21F1F00E94A60D882399F0A9827E
:103A30008A829B2081E009F480E08B830E94241914
:103A40008160782F9D838C8349815A816B818D8120
:103A50000E94AA28F801E750FD4F8081B826B08265
:103A60001AC0A394BB0C28E0A212DACF0F5F1F4F3D
:103A70000830110569F68FEF8E838F8318860E94B8
:103A800024198160782F9A8789874E815F816885A4
:103A90008A850E94AA2880916D03882309F4BDC0FD
:103AA00080916C03E091AE03E695E81BE093680318
:103AB000823059F4F0E0ED54FD4FE4910E2F10E008
:103AC000E9E9AE2EE6E2BE2E59C0863059F4F0E0A8
:103AD000E055FD4FE4910E2F10E079E8A72E76E235
:103AE000B72E4CC0893061F4E695F0E0E355FD4F08
:103AF000E4910E2F10E06BE0A62E66E2B62E3EC0DB
:103B00008F3061F4E695F0E0E655FD4FE4910E2F1D
:103B100010E05CE6A52E55E2B52E30C0853159F493
:103B2000F0E0E955FD4FE4910E2F10E043EEA42E96
:103B300044E2B42E23C08831A1F0833249F4E5EA8F
:103B4000F2E00591149139E4A32E36E2B32E16C0AB
:103B5000843271F404EF11E02BE0A22E24E2B22EA5
:103B60000DC008E210E09DE4A92E94E2B92E06C033
:103B700000ED17E089EDA82E83E2B82E809169034D
:103B8000882361F0109269030E947419909367036F
:103B90008093660310926B0310926A030E9474195B
:103BA000E0916603F09167039C012E1B3F0B2F3FB2
:103BB0003F4798F52091F1022223B1F01092F102D3
:103BC0002091EF023091F002821B930B8F3F9F47B1
:103BD00058F4205D3A483093F0022093EF02809130
:103BE0006E03886080936E0380906A0390906B03ED
:103BF0000E0F1F1F109367030093660386E693E082
:103C0000F501099580916A0390916B03892B29F442
:103C1000892819F081E08093F102E091F6025E2F8D
:103C2000550F550F20914A01E22FE295EF70F0E019
:103C300080A190E02F7002C0959587952A95E2F7B4
:103C40008170992740914901E42FE295EF70F0E0EF
:103C500020A130E04F7002C0359527954A95E2F7D4
:103C6000F901E170FF2720FF02C0E2E0F0E0E82B5D
:103C7000F92BE52BE093F6021091F502EF70F0E0DE
:103C8000EE5DFD4F90818091F402890F8093F402E4
:103C900084306CF0E12FF0E0EE50FD4F80818F5FBB
:103CA000808360E0812F0E944A2A21E001C020E049
:103CB0008091F4028D3F64F4E12FF0E0EE50FD4F6F
:103CC00080818150808361E0812F0E944A2A21E017
:103CD0008091F402082E000C990B64E070E00E94C1
:103CE000EE2F8093F40221110E94570F0E94A41915
:103CF0009091F702891709F43DCE0E94A419809390
:103D0000F70238CE79BC19BD09B400FEFDCF809111
:103D1000D8008F7D8093D8008091E00082608093EE
:103D2000E0008091E00081FDFCCF0E948B2228CE34
:103D3000AF92BF92CF92DF92EF92FF920F931F93B9
:103D4000CF93DF937C015B016A018091D0028A30BE
:103D500018F001E010E002C00AE010E0C1E0D0E09D
:103D6000F894B501C701F60109957894811115C041
:103D700021960C171D0794F0CC9F9001CD9F300D1C
:103D8000300D112480E090E045E34A95F1F7000002
:103D9000019682179307C1F7E3CF81E0DF91CF91BE
:103DA0001F910F91FF90EF90DF90CF90BF90AF9059
:103DB00008958091640390913303891719F08F5F00
:103DC0008770FBCF08950F931F93CF93DF9380915C
:103DD000320382958F7009F05DC080912F03882394
:103DE00009F458C0809164031091330360912D034E
:103DF00070912E03C0913003D091310391E06F3F59
:103E000009F090E0292F06E0811709F443C02097BC
:103E100021F07F3F21F030E003C031E001C0322FBC
:103E200090E030FD34C0089FF001099FF00D11248F
:103E3000DF01AC5CBC4F11963C911197371327C042
:103E40003C91361324C012963C91129731111FC039
:103E500013964D915C9114974C1B5D0B4F3A510595
:103E6000B0F4809132038F70806180933203E75CFD
:103E7000FC4F80818F70806180838DE293E00E948F
:103E8000FF03DF91CF911F910F910C94D91E0196E2
:103E90008770BACFDF91CF911F910F9108958F92C4
:103EA0009F92AF92BF92EF92FF920F931F93CF9387
:103EB000DF938090D1029090D202A090D302B09074
:103EC000D40240916702509168026091690270913A
:103ED0006A02842A952AA62AB72ACFE1D0E0E92EE1
:103EE000F12C082F10E0D501C4010C2E04C0B695AA
:103EF000A795979587950A94D2F780FD04C02197DE
:103F000090F780E01AC0FE0183E0EE0FFF1F8A9554
:103F1000E1F7EE0DFF1D93E0EE0FFF1F9A95E1F71D
:103F2000E00FF11FEE0FFF1FE954FD4F85919491B3
:103F30000E94E00D019719F38C2FDF91CF911F9113
:103F40000F91FF90EF90BF90AF909F908F9008954A
:103F5000CF93DF93D82FC92F0E944F1FEC2FF0E093
:103F600098E0899FE00DF11D112483E0EE0FFF1F03
:103F70008A95E1F7ED0FF11DEE0FFF1FE954FD4F9C
:103F8000859194910E94E00DDF91CF910895FC01FD
:103F9000808191810E94A81F292F2F70E92FE2951F
:103FA000EF704E2F50E0FA013297EE30F105B8F481
:103FB000E057FF4F0C942430803F99F018F4883E6E
:103FC00070F40FC0843F59F40CC0883E50F0813F1C
:103FD00031F407C0822F869586958695089580E0F6
:103FE000089581E008959F92AF92BF92CF92DF92A1
:103FF000EF92FF920F931F93CF93DF93CDB7DEB76E
:1040000061970FB6F894DEBF0FBECDBF8C0185E07F
:10401000F801DE011D9601900D928A95E1F7F801F5
:10402000E28090912D0360912E03409130035091D6
:1040300031034115510531F06F3F31F481E09F3F6D
:1040400019F403C081E001C080E0F82FF1709F2EC9
:1040500080FD1AC1F80130812181C380D4808DE2B6
:10406000A82E83E0B82EF0902F03F601E41BF50B89
:10407000FF2009F4C6C080913203EF3AF10508F041
:1040800091C0482F407F09F050C0621311C09313B4
:104090000FC0FE2CE1100CC08F7080618093320342
:1040A000C5010E94FF0380913203F801858329C175
:1040B000CD2831F02F3F31F481E03F3F19F403C0A8
:1040C00081E001C080E080FD03C081E08E2502C058
:1040D00080E090E0F82FF170FF2E80FF1CC08091EF
:1040E00064034091330356E0841709F4E8C090E07C
:1040F000589FF001599FF00D1124EC5CFC4F618139
:10410000261306C06081631303C06281E61203C0F8
:1041100001968770E9CFFE2CEE2009F4F2C0809161
:10412000320381608093320349C0621306C0931347
:1041300004C0E11002C0F80186C0C8010E94C71F78
:10414000882351F1EE2041F120913203822F829594
:104150008F7090E0029774F080912D0390912E0360
:1041600098878F831986DB86CA862C87CE010796AF
:104170000E94FF0386E0F801ADE2B3E001900D92EA
:104180008A95E1F70E94E31E0AC06217C9F0C801D0
:104190000E94C71F81111EC0C8010E94FF03FF2497
:1041A000F394AFC0482F407F81F78DE293E00E94E7
:1041B000FF0386E0F50111928A95E9F7F12CA1C081
:1041C0009313E5CFE110E3CFF8018583C8010E9486
:1041D000FF0354C0EE2001F320913203822F829519
:1041E0008F7090E0029734F280912D0390912E030E
:1041F0009A8389831B82DD82CC822E83CE01019635
:10420000B7CFEF3AF105D0F5FE2CEE2029F262137C
:1042100027C0931325C02091320320FD18C0822FA0
:1042200082958F70482F50E04115510581F0F801BB
:1042300025834F30510541F08F5F982F9295907FE5
:10424000822F8F70892B8583C8010E94FF0386E02F
:10425000F801ADE2B3E001900D928A95E1F751C00B
:10426000C8010E94C71F811185CF809132038160F0
:1042700080933203C8010E94FF0343C086E0F5012A
:1042800011928A95E9F73DC0EE2009F485CFC80167
:104290000E94C71FF82E882309F47ECF86E0F8011C
:1042A000ADE2B3E001900D928A95E1F780912D0384
:1042B00090912E030E94A81F0E94E31E22C03D87FA
:1042C0002E878D859E850E94A81F292F22952F70ED
:1042D000223028F49F7039F0811105C00BC02430C2
:1042E00028F49F7049F4805E883020F0C8010E9455
:1042F000FF039F2CF92C05C0F8019581907F99F759
:10430000F9CF8F2D61960FB6F894DEBF0FBECDBFEB
:10431000DF91CF911F910F91FF90EF90DF90CF90A1
:10432000BF90AF909F90089528E0929F800D112438
:10433000682F669566956695982F977085E0689FBB
:10434000B001112440E050E080E0FB01E40FF51FD4
:10435000EB5FFC4F208130E0092E02C03695279597
:104360000A94E2F721703327042E01C0220F0A9429
:10437000EAF7822B4F5F5F4F4530510531F70895C3
:1043800028E0929F800D1124E82FE695E695E695AA
:10439000877051E001C0550F8A95EAF785E0E89FE4
:1043A000F0011124EB5FFC4F20E030E070E0408131
:1043B000CB01022E02C0969587950A94E2F7817090
:1043C000819584278523842781932F5F3F4F253054
:1043D000310569F708956093D1027093D2028093FA
:1043E000D3029093D4021092B803109265020C94F9
:1043F000E20F0F931F9341E050E060E070E004C0D3
:10440000440F551F661F771F8A95D2F78091D102FE
:104410009091D202A091D302B091D4028A019B0163
:10442000082719272A273B27C901B8011F910F9197
:104430000C94EB210F931F9341E050E060E070E09B
:1044400004C0440F551F661F771F8A95D2F7409509
:104450005095609570958091D1029091D202A09173
:10446000D302B091D4028A019B01082319232A2385
:104470003B23C901B8011F910F910C94EB212091AE
:1044800065038095822380936503982F977041F48C
:1044900030E0482F082E000C550B2417350721F467
:1044A0009091D60292FF07C08595859585950E94CB
:1044B0001A221092650308950F931F9341E050E074
:1044C00060E070E004C0440F551F661F771F8A9597
:1044D000D2F78091D1029091D202A091D302B091F3
:1044E000D4028A019B01082B192B2A2B3B2BC901D3
:1044F000B8011F910F910C94EB21609367027093A8
:1045000068028093690290936A021092B803109235
:1045100065020C94E20F1092B90386E0EFE5F2E039
:10452000DF011D928A95E9F71092B8031092650297
:104530000C94E20F882341F080959091B803892371
:104540008093B8030C94E20F0895882339F090917A
:10455000B803892B8093B8030C94E20F0895882345
:1045600021F00E94DB0F0C94E20F0895882339F0AC
:104570009091B903892B8093B9030C94E20F0895AD
:10458000882309F475C0682F823869F40E94A41941
:1045900081FF6EC069E38DE592E00E948A190E9456
:1045A000E20F69E30EC0833891F40E94A41980FFE2
:1045B0005FC063E58DE592E00E948A190E94E20FD8
:1045C00063E58DE592E00E947D190C94E20F84383A
:1045D00069F40E94A41982FF4BC067E48DE592E064
:1045E0000E948A190E94E20F67E4EBCF8CEF860FDE
:1045F000813A38F380E2860F883048F4677081E0B2
:1046000001C0880F6A95EAF70E94DB0FDECF8BE5C9
:10461000860F8330A0F48091010390910203892BCF
:1046200039F11092020310920103E0918602F09199
:1046300087023097E9F00680F781E02D16C0685AAE
:104640006731B0F48091030390910403892B81F0CA
:104650001092040310920303E0918602F091870206
:10466000309731F00084F185E02D80E090E00994EE
:104670000895CF93882309F47CC0C82F8238B1F401
:104680000E94A41981FD75C069E38DE592E00E9446
:104690008A190E94E20F2FEF81EE94E021508040B2
:1046A0009040E1F700C0000069E317C08338D1F4FF
:1046B0000E94A41980FD5DC063E58DE592E00E9433
:1046C0008A190E94E20F2FEF81EE94E02150804082
:1046D0009040E1F700C0000063E58DE592E00E94A4
:1046E0007D193CC08438B1F40E94A41982FD41C0F8
:1046F00067E48DE592E00E948A190E94E20F2FEF95
:1047000081EE94E0215080409040E1F700C000002D
:1047100067E4E3CF8CEF8C0F813A80F4EFE5F2E0B1
:1047200085E692E02191C217E1F08E179F07D1F73D
:104730006C2F8DE592E00E948A1910C080E28C0FE8
:104740008830B8F4C77081E090E001C0880FCA9546
:10475000EAF79091B903892B8093B903CF910C9418
:10476000E20F6C2F8DE592E00E947D190E94E20F0E
:10477000DFCFCF9108951F93CF93DF93182F893305
:1047800019F0C0E0D0E002C0C0E5D0E0812F0E9467
:104790003923209741F08FE99FE00197F1F700C09E
:1047A00000002197F6CF812FDF91CF911F910C94BC
:1047B000C0220895FC018081813021F4FB018081B9
:1047C000918105C0823029F4FB01828193810C9490
:1047D000172A0895FC018081813021F4FB0180813A
:1047E000918105C0823029F4FB01828193810C9470
:1047F000312A0895CF93DF93FC012081223041F4C8
:10480000FB01EC01828193810E94312A81E08B8738
:10481000DF91CF9108950F931F93CF93DF93EC0116
:1048200000E010E080917101282F30E0021713079B
:104830003CF590916F019801290F311DA901440F9A
:10484000551F240F351F2E583C4F869590E04C8104
:10485000081719071CF4442349F002C0411106C08F
:104860004091B103473918F046E901C040E060913A
:10487000B0038091AF030E94712B0F5F1F4FD2CF07
:104880000E94A42A8C8190E00196817099278C83E4
:10489000DF91CF911F910F9108958F929F92AF92C8
:1048A000BF92CF92DF92EF92FF920F931F93CF931D
:1048B000DF938C01FC014481C42FD0E09E01DE0116
:1048C0000E9432309B01AC010E9448306B017C0198
:1048D000E0E2F0E0EC1BFD0BA5E5B0E09B01AC01D4
:1048E0000E9448304B015C019F01DF010E942A3089
:1048F0009B01AC010E9453309B01AC012C0D3D1D6E
:104900004E1D5F1DC501B4010E940230C22FD22F7F
:104910002A3228F4F3E02F9F900111240DC025E5E1
:1049200030E02C1B3109C901880F991F280F391F4E
:1049300037FF02C02F5F3F4F35952795C22FC09597
:10494000F12C85E5E82EED1A80917101F816E0F45E
:10495000F1FC02C08E2D01C08D2F90916F012F2D83
:1049600030E0290F311DA901440F551F240F351FB9
:104970002E583C4F4C2FC73908F046E96091B003E0
:104980000E94712BF394E0CF0E94A42AF801848145
:10499000811102C091E003C0803219F49FEF90931F
:1049A0006C0190916C01890FF8018483DF91CF91A4
:1049B0001F910F91FF90EF90DF90CF90BF90AF903D
:1049C0009F908F9008951F93CF93DF93EC018C817C
:1049D000811109C081E08C831092700392E0909362
:1049E0006B0180936A0180916F019091700189172A
:1049F00070F4E82FF0E09F01220F331FE20FF31F46
:104A0000EE58FC4F1182108212828F5FF0CF10E0BF
:104A1000609171011617D8F5E12FF0E070E0CF0139
:104A20000E94EE2F20916F01820F20917003022EC1
:104A3000000C330B90E0E217F307E4F020916B01D8
:104A4000022E000C330B2E173F07A4F09C01220FFF
:104A5000331F820F931F9C012E583C4F4091B1038E
:104A6000473908F046E96091B0038091AF030E9496
:104A7000712B0BC0FC01EE0FFF1F8E0F9F1FFC015F
:104A8000EE58FC4F1182108212821F5FC1CF0E942C
:104A9000A42A80916A0120917003280F209370034B
:104AA00090916B01980F90936B0119165CF4022E94
:104AB000000C330B4091710150E041505109241713
:104AC000350734F0819580936A01813009F41C82A6
:104AD000DF91CF911F9108957F928F929F92AF9215
:104AE000BF92CF92DF92EF92FF920F931F93CF93DB
:104AF000DF93EC018A8180FF03C0BB24BA9402C01B
:104B0000BB24B3948C8181110DC081E0B81206C022
:104B100080917101815080936F0302C010926F03E6
:104B200081E08C83A12C44E1742E80907101A81443
:104B300008F044C080916F01CA2CD12C8601080F67
:104B4000111DC801880F991F080F191F0E581C4FFF
:104B5000F80111821082128234E0E32EF12C912CA4
:104B600080916F03890D85312CF0672D0E94CC2F29
:104B7000892F02C087FD880D082E000C990BC816DE
:104B8000D906A9F48091B1038E9DA0018F9D500D8F
:104B900011245595479555954795473908F046E9AD
:104BA00098016091B0038091AF030E94712B9B0C20
:104BB000F1E0EF1AF108A1F6A394B7CF0E94A42A5E
:104BC00080916F0391E0B9120EC0811107C08091EE
:104BD0007101815080936F031C820FC081508093BC
:104BE0006F03BC820AC090E001966091710170E091
:104BF0000E94EE2F80936F038C83DF91CF911F91E2
:104C00000F91FF90EF90DF90CF90BF90AF909F906B
:104C10008F907F900895FF920F931F93CF93DF9310
:104C2000EC01F12C0FEF10E060917101F61608F520
:104C300080916F012F2D30E0280F311DC901880FA1
:104C4000991F280F391F2E583C4F4091B103473907
:104C500008F046E970E0C8010E94EE2F962F8C8183
:104C60006091B003F99E800D11240E94712BF39482
:104C7000DBCF0E94A42A9A818C8190FF02C08F5FB3
:104C800001C081508C83DF91CF911F910F91FF90D4
:104C900008950F931F93CF93DF9300D01F92CDB74A
:104CA000DEB78C018091710381110AC09E012F5FD4
:104CB0003F4F46E96FEF0E94712B8A818093710309
:104CC000F8018481813051F028F0823061F4409104
:104CD00071030AC08091710340E007C060917103C5
:104CE00040E080E003C040E080E060E00E94F02A05
:104CF000F801848190E0019663E070E00E94EE2F5D
:104D000084830F900F900F90DF91CF911F910F919F
:104D10000895CF93DF93EC01EEEAF3E043816281E3
:104D20008C810E94072C8C818F5F8C83DF91CF91C7
:104D30000895CF93DF93EC01EC81F0E0E954FB4F51
:104D40004491EEEAF3E0628181810E94072C8C811C
:104D50008F5F8C83DF91CF910895CF93DF93EC0128
:104D600081E0898B9091B9038F81892B8093B9035E
:104D70009091B8038885892B8093B8030E94E20F35
:104D8000EA81FB81CE010696309729F06C897D89F6
:104D9000DF91CF910994DF91CF910895EF92FF9227
:104DA0000F931F93CF93DF93FC01228521113AC00B
:104DB000EC01E380F480F7E5FF1A26E12E9DC001A7
:104DC0002F9D900D1124DC01AE58BE4F1496ED912D
:104DD000FC91159788589E4F309729F054966D9105
:104DE0007C915597099586E18E9D80018F9D100DD0
:104DF00011240E581E4FF80187810E94DB0FF80125
:104E0000808580959091B80389238093B8030E9490
:104E1000E20F188219861B861E821D821092B7032C
:104E20001092B603DF91CF911F910F91FF90EF90F9
:104E300008950F931F93CF93DF93C42FD22FFC01BC
:104E400082818823C9F04093B5030E94241990936E
:104E5000B4038093B30380E28C0F883008F057C00E
:104E6000C77081E001C0880FCA95EAF7DF91CF9142
:104E70001F910F910C94B6228091B503481330C056
:104E80008091B3039091B4030E9409198F3A910560
:104E900038F510E21D0FCD17B9F080E28C0F883085
:104EA00040F4C77081E001C0880FCA95EAF70E94FC
:104EB000AF22183028F581E09D2F977001C0880F30
:104EC0009A95EAF70E94B622802F0E94BB231830E1
:104ED000F0F4D77081E001C0880FDA95EAF70AC0D4
:104EE00080E28C0F883098F4C77081E001C0880F91
:104EF000CA95EAF7DF91CF911F910F910C94AF22E1
:104F0000802FDF91CF911F910F910C94BB23DF91E4
:104F1000CF911F910F910895FC01680F791F8FEFBA
:104F200091E3E617F70771F02191822728E030E03E
:104F300087FF03C0880F892701C0880F21503109DE
:104F4000B9F7EFCF08959091AE0390FF04C0969506
:104F5000981740F003C0811105C090E0961710F437
:104F60000C94582D61E00C940F2D882311F0FA0158
:104F700001C0FB010994ECE6F3E0118282818460B8
:104F8000828308956091AE03669570E04BE050E037
:104F90008FE591E00E946730892B19F481E08093BE
:104FA0006D030E9474199093670380936603809148
:104FB0006E03846080936E0308959C013A952115D9
:104FC0003F4130F5BC0166277270AC014427547034
:104FD0009C012227387094FF0FC090FF02C080E12F
:104FE00001C080E0672B09F08062452B09F08064E6
:104FF000232B79F080680895892F8170672B09F041
:105000008260452B09F08460232B19F08860089595
:1050100080E00895FC018081813041F48185811117
:1050200019C082858823B1F083E00895823041F46D
:105030008185811111C08285811110C084E008959D
:10504000833071F4818581110DC08285882351F0F0
:1050500088E0089582E0089586E0089585E0089547
:1050600081E0089587E0089580910F02833071F008
:1050700020F4823099F488E20FC0853049F08830FE
:1050800069F480EE0E94C02282EE06C080EE04C069
:1050900080EE0E94C02281EE0E94C02210920F0278
:1050A00008950E940A2880930F02833059F018F463
:1050B000823031F00895853039F0883051F008950C
:1050C00088E20BC080EE09C080EE0E94392381EE99
:1050D00004C080EE0E94392382EE0C943923809123
:1050E0000D028430A1F040F4823089F0833091F4D5
:1050F00081E00E941A220EC0853019F0863039F006
:1051000009C081E00E941A2282EE0E94C0228CE235
:105110000E94C02210920D0208950E940A288093D6
:105120000D02843089F028F4823089F0833049F010
:105130000895853019F0863039F0089582EE0E9486
:10514000392381E00C945C228CE20E94BB238CE228
:105150000C9439231F93CF93DF93CDB7DEB76797B6
:105160000FB6F894DEBF0FBECDBF4B8B5C8B6D8B43
:105170007E8B8F8B61111092B80386E09E01235FB6
:105180003F4FD901E82F1D92EA95E9F795E0FE011E
:105190007396D90101900D929A95E1F79C894E89F9
:1051A0005F897B897D879E876F87598B488BF90143
:1051B000DE01179601900D928A95E1F7CE010796D0
:1051C0000E94F31F81113EC086E0FE013796DE018A
:1051D000119601900D928A95E1F7FF81E8856A8525
:1051E0007B856115710531F0EF3F31F481E0FF3FC0
:1051F00019F403C081E001C080E080FD23C020914C
:10520000330330E0C9010196877099274091640308
:1052100050E08417950779F1F983EA837D836C83E5
:1052200096E0929FD001939FB00D1124AC5CBC4FCF
:10523000FE01319601900D929A95E1F78093330328
:105240000E94D91E16E08091640390913303891760
:10525000F9F0189FC00111248C5C9C4F0E94F31F31
:105260008823B1F08091640390E0019687709927BC
:1052700080936403E8CF0E948B2210923303109234
:105280006403EDE2F3E086E0DF011D928A95E9F721
:1052900067960FB6F894DEBF0FBECDBFDF91CF91FA
:1052A0001F910895DF92EF92FF920F931F93CF9378
:1052B000DF93E82FF0E0E951FA4FD490282F26959C
:1052C0002695269530E0F901E952FA4F049187704E
:1052D00010E0082E02C0159507950A94E2F70170B8
:1052E0001127F901E953FA4FE490F12C082E02C07E
:1052F000F594E7940A94E2F791E0E922FF24F9019A
:10530000E954FA4FC491D0E002C0D595C7958A956B
:10531000E2F7C170DD270115110519F081EE0E9439
:105320003923E114F10419F086EE0E9439238D2D02
:105330000E94BB23EF2819F086EE0E94C022012BA9
:1053400019F081EE0E94C022CD2B51F08CE2DF914A
:10535000CF911F910F91FF90EF90DF900C94BB23A2
:10536000DF91CF911F910F91FF90EF90DF90089503
:10537000FF920F931F93CF93DF938C018AE0F82E57
:10538000F8018491882309F44CC0813009F042C0AF
:10539000E8012196FE018491813031F42196FE01CD
:1053A00084910E94BB2339C0823039F4E8012296EF
:1053B000FE0184910E94392330C0833039F4E80122
:1053C0002296FE0184910E94C02227C0843029F5D4
:1053D000E8012296FE01249180E090E030E0205325
:1053E00031092A30310560F4F89EA001F99E500D74
:1053F0001124C901840F951F2196FE012491EECF3F
:10540000009759F0EFE9FFE03197F1F700C0000095
:105410000197F6CF0E945229E8018E010F5F1F4FBE
:10542000AFCFDF91CF911F910F91FF900895CF9350
:10543000DF93EC010E94C022CE01805E91090897A3
:1054400010F0209739F4CE010E94DD27DF91CF9133
:105450000C94AF22CE010E94DD27DF91CF910C94F6
:105460009A22CF93DF93EC01805E9109089710F0A8
:10547000209731F4CE010E94DD270E94B62205C09C
:10548000CE010E94DD270E94A5228C2FDF91CF91B3
:105490000C943923CF93C62F4091D1025091D20260
:1054A0006091D3027091D402811119C04115510548
:1054B0006105710531F0769567955795479540FDE3
:1054C00008C0CC2311F089EA01C08AEA0E94BB23FC
:1054D00038C0CC2311F08DEBF9CF8EEBF7CF41150F
:1054E00051056105710531F076956795579547959A
:1054F00040FD06C0CC2311F08EE4E8CF8BE4E6CF6C
:1055000080917202811106C081E08093720280EE68
:105510000E9439230E942419909371028093700293
:10552000CC2339F08BE290E00E94312A8BE290E0AC
:1055300006C08BE292E00E94312A8BE292E00E9448
:10554000172A80E0CF91089530916E018091AE03CB
:1055500080FF16C0E0916D0163E0E69FF001112429
:10556000EE58FC4F539A8BB1877F9BB198602FB751
:10557000F894AF0163E0369F400D511D112414C013
:1055800080916F0190917001891720F7E82FF0E06A
:10559000AF01440F551FE40FF51FEE58FC4F118269
:1055A000108212828F5FF0CFE417F50789F03191F6
:1055B00068E09BB9000000C037FF8BB9330F0000D3
:1055C00000C000C000C08BB900C06A9591F7ECCF55
:1055D0002FBF8FE594E00197F1F700C00000089518
:1055E0009091AE0390FF16C090916F0120917001D1
:1055F000921770F4E92FF0E0DF01AA0FBB1FEA0F4A
:10560000FB1FEE58FC4F8183608342839F5FF0CF86
:105610000C94A42A08958091AE03282F269530E09B
:105620002115310519F48170826005C025323105DC
:1056300024F0817088648093AE038091B103873930
:1056400018F086E98093B1030895CF92DF92EF922C
:10565000FF926B017C010E940B2BB701A60188E031
:1056600090E0FF90EF90DF90CF900C94AA2F809164
:10567000B203882319F081508093B2036091AE0386
:105680007091AF038091B0039091B1030C94252BDE
:105690008091B203833018F48F5F8093B2036091DE
:1056A000AE037091AF038091B0039091B1030C945D
:1056B000252BEEEAF3E083E0808311828FEF828373
:1056C00086E983831482ACE6B3E012968C9112973C
:1056D000836012968C9360817181828193810C9496
:1056E000252BAF92BF92CF92DF92EF92FF920F9352
:1056F0001F93CF93DF93E82EF62EE901E42FF0E01D
:10570000611106C0E959F94FE4914E2F2E2F71C057
:10571000062F10E0E959F94F4491F42FC42ED12CF3
:1057200026E0829FC00111242FEF30E0B9010E94D2
:10573000DA2F5BEA5603C001579F900D11248E0D9E
:10574000911D8E0D911D582F550F580FD901A01B7B
:10575000B10BAC9DC001AD9D900DBC9D900D112471
:10576000E92FF59ED0011124AB2FBB277901EA1A4E
:10577000FB0AEC9CD001ED9CB00DFC9CB00D1124FB
:105780005901A51AB108A09E7001A19EF00CB09E0F
:10579000F00C1124EF2CFF242E193F092C9D8001C1
:1057A0002D9D100D3C9D100D1124212F623071058F
:1057B00091F048F461157105E1F061307105B9F4BB
:1057C000242F4B2F16C06430710569F040F066300D
:1057D000710579F00CC0242F492FE12F0AC0492F01
:1057E000EF2F2B2F06C0292FE42F412F02C0292F86
:1057F000EB2F49832883EA83DF91CF911F910F918B
:10580000FF90EF90DF90CF90BF90AF900895CF932F
:10581000DF9300D01F92CDB7DEB79091AE0390FF1B
:105820000DC0473908F046E99E012F5F3F4F0E94A7
:10583000712B4B8169818A810E94F02A0F900F9011
:105840000F90DF91CF910895AF92BF92CF92DF92E8
:10585000EF92FF920F931F93CF93DF9300D01F928D
:10586000CDB7DEB7082FF62E142FE22E9091AE039F
:1058700090FF85C0E92FE695AE2FB0E0AE5CBD4F3E
:105880008C9180936C039E7F923081F4473908F0AD
:1058900046E99E012F5F3F4F6F2D802F0E94712B95
:1058A0004B8169818A810E94F02A46C0823019F4B6
:1058B0001091B10341C0863019F40091AF033CC090
:1058C0008930D9F38931C1F5E9518E2F8170D82EF5
:1058D000E695F0E0E959F84FA590B490C12CBB24AF
:1058E00060917101C61630F52C2D30E0A29EC001EA
:1058F000A39E900DB29E900D112470E00E94DA2FAD
:10590000802FD11002C0860F01C0861B90916F01BD
:10591000290F311DA901440F551F240F351F2E5883
:105920003C4F412F173908F046E96F2D0E94712B2B
:10593000C394D6CF0E94A42A8091AF03081308C055
:105940008091B003F81204C08091B103181729F0B8
:1059500080916E03826080936E030093AF03F09298
:10596000B0031093B103EE2051F06091AE0370913B
:10597000AF038091B0039091B1030E94252B0F904B
:105980000F900F90DF91CF911F910F91FF90EF90AB
:10599000DF90CF90BF90AF900895EEEAF3E043819F
:1059A00028E0421B08F440E021E0628181810C94F0
:1059B000242CEEEAF3E0438128E0420F08F44FEF95
:1059C00021E0628181810C94242CEEEAF3E0628173
:1059D00028E0621B08F460E021E0438181810C949F
:1059E000242CEEEAF3E0628128E0620F08F46FEF06
:1059F00021E0438181810C94242CEEEAF3E0818143
:105A000021E04381628188500C94242CEEEAF3E07B
:105A1000818121E043816281885F0C94242C9091E4
:105A2000AE0390FF3BC09170811102C0926006C02E
:105A3000853210F0986402C0880F982B9093AE03C3
:105A400080916E03816080936E03662351F06091B4
:105A5000AE037091AF038091B0039091B1030E94A7
:105A6000252B6091AE03669570E04BE050E08FE52A
:105A700091E00E946730892B19F00E94BB2702C079
:105A80000E94C22781E08093690320E04091B10326
:105A90006091B0038091AF030C94242C0895809101
:105AA000AE038695815009F484E261E00C940F2DD9
:105AB0008091AE0386958F5F853208F081E061E0CA
:105AC0000C940F2D8EE14A9B02C08150E1F74A9B56
:105AD000FECF08955A9880E28A95F1F75A9A089570
