:100000000C94B2030C94F9030C94F9030C94492E4C
:100010000C94F9030C94F9030C94F9030C94F90370
:100020000C94F9030C94F9030C94A2160C94DF15AC
:100030000C94E7170C94F9030C94F9030C94F9034E
:100040000C94F9030C94F9030C94F9030C94F90340
:100050000C94F9030C949A170C94F9030C94F9037B
:100060000C94F9030C94F9030C94F9030C94F90320
:100070000C94F9030C94F9030C94F9030C94F90310
:100080000C94F9030C94F9030C94F9030C94F90300
:100090000C94F9030C94F9030C94F9030C94F903F0
:1000A0000C94F9030C94F9030C94F903A504AA0524
:1000B0004B05C204E704F704110529053D055D055C
:1000C0008605720582098209BA09BA097C0B7C0B84
:1000D0007C0B7C0B0D0AEB0AFC0AFC0AAA04AA059D
:1000E0004B05C204E704F704110529053D055D052C
:1000F00086057205BB04AA054B05C204E704F70494
:10010000110529053D055D0586057205F40DF40D03
:10011000070E070EFD0D070E070E070EF40DF40D6A
:10012000020E070E070E020E12143914B7153914F9
:10013000B7158114A414B71581159415000000009B
:100140000500130009001A0014000254000000000A
:1001500007001700160015000057635D00001459D2
:100160000A00045706001B001D00E3002B612C4110
:10017000E2002900A80000000000000000000000CC
:100180000D000F0003571C006A5D6B5D000000004E
:100190001000110001570C000B006C5D28020000DC
:1001A0000E00025737003600695D295D28612A720A
:1001B000E4006D5D2C000000000000000000000065
:1001C000665D2400250026000100010000000000FB
:1001D000675D1E001F002000270064000100010071
:1001E000685D2100220023000100010001000100E0
:1001F00001000100010000000000000000000000FC
:100200001F024A0052004D000000655D0000000022
:100210003202500051004F0000006E5D01004C00A2
:100220002D02380030001E023100010001004C0098
:1002300001000100010000000000000000000000BB
:1002400043004000410042000100010000000000A6
:1002500044003A003B003C000100010001000100A5
:1002600045003D003E003F0001000100010001008B
:10027000010001000100000000000000000000007B
:100280000100010001000100010001000000000068
:100290000100010001000100010001000100010056
:1002A0000100010001000100010001000100010046
:1002B000010001000100000000000000000000003B
:1002C0000100010001000100010001000000000028
:1002D0000100010001000100010001000100010016
:1002E0000100010001000100010001000100010006
:1002F00001000100010000000000000000000000FB
:1003000001000100010001000100010000000000E7
:10031000C35CC85CC65CCA5CC45C0100010001002F
:100320000100C95CC75CCB5CC55C01000100010039
:1003300001000100010000000000000005010906A5
:10034000A101050719E029E71500250195087501A8
:1003500081029501750881010507190029FF150023
:1003600026FF0095067508810005081901290595E5
:100370000575019102950175039101C009022200E2
:10038000010100A0FA090400000103010100092194
:10039000110100012240000705810308000A120133
:1003A0000002000000081D8D9D9D0100010200015A
:1003B0000C034B007900720069006100000010031B
:1003C000730070006C00690074004B004200000074
:1003D0000403090400047F3F1F643214643214785C
:1003E0003C1E1E140A05726D65720A0A2B343920F0
:1003F000313733203234203138203531350A6D61C0
:10040000696C4073746F65726D65722D636F6E7386
:10041000756C74696E672E64650A7777772E7374CE
:100420006F65726D65722D636F6E73756C74696E36
:10043000672E64650A0A00726D65722D636F6E73B4
:10044000756C74696E670A44722E2050657465720B
:10045000205374000A0A2D2D0A0A737400726D6508
:10046000720A0A00650A506574657220537400466A
:100470007265756E646C6963686520477200726DA1
:1004800065720A0A00650A5065746572205374002B
:100490006E652047720053636800650A5065746595
:1004A000720A0A006E6520477200536368002223B7
:1004B000252628292A2C2D2F3032333536383A3B41
:1004C0003D3E4042434547494A4C4E505153555793
:1004D000595A5C5E6062646668696B6D6F717375B2
:1004E00077797B7D7F81838587898A8C8E909294B2
:1004F00096989A9C9E9FA1A3A5A7A8AAACAEAFB1BF
:10050000B3B4B6B8B9BBBCBEBFC1C2C3C5C6C7C908
:10051000CACBCCCDCED0D1D2D2D3D4D5D6D7D7D8C2
:10052000D9D9DADADBDBDBDCDCDCDCDCDDDDDDDD14
:10053000DCDCDCDCDCDBDBDBDADAD9D9D8D7D7D61C
:10054000D5D4D3D2D2D1D0CECDCCCBCAC9C7C6C5D3
:10055000C3C2C1BFBEBCBBB9B8B6B4B3B1AFAEAC19
:10056000AAA8A7A5A3A19F9E9C9A98969492908EC4
:100570008C8A89878583817F7D7B79777573716F9D
:100580006D6B6968666462605E5C5A595755535179
:10059000504E4C4A4947454342403E3D3B3A38362F
:1005A000353332302F2D2C2A2928262523220000EE
:1005B000000000000000000000000000000000003B
:1005C000000000000000010000380000007800007A
:1005D0000000F68700ECFEFFFF870100000000002E
:1005E0000000000000002A2B28000000000000008E
:1005F00000000000000000000029000000002C1E88
:100600001F32212223322526303036383724271E48
:100610001F2021222324252637366427642D140425
:1006200005060708090A0B0C0D0E0F101112131402
:1006300015161718191A1B1D1C252D2635382E04C2
:1006400005060708090A0B0C0D0E0F1011121314E2
:1006500015161718191A1B1D1C246427304C00018D
:100660000101010101010101020202020202020272
:100670000203030303030303030404040404040444
:100680000505050505060606060607070707070808
:10069000080808090909090A0A0A0B0B0B0C0C0CBB
:1006A0000D0D0D0E0E0E0F0F0F1010111111121255
:1006B00013131414151516161717181819191A1AD2
:1006C0001B1B1C1D1D1E1E1F202021222223242433
:1006D000252626272829292A2B2C2D2D2E2F30316F
:1006E0003232333435363738393A3B3C3D3E3F4081
:1006F0004142434445464748494A4C4D4E4F50516C
:100700005354555658595A5B5D5E5F616264656625
:1007100068696B6C6D6F7072737577787A7B7D7EAC
:100720008082838587888A8C8E8F91939596989AFC
:100730009C9EA0A2A3A5A7A9ABADAFB1B3B5B7BA14
:10074000BCBEC0C2C4C6C9CBCDCFD1D4D6D8DBDDE8
:10075000DFE2E4E7E9EBEEF0F3F5F8FAFDFFFFAADC
:100760007F55400011241FBECFEFDAE0DEBFCDBFC2
:1007700004B603FE27C08091BA039091BB03A091F9
:10078000BC03B091BD038730904BA740B04BD1F470
:100790001092BA031092BB031092BC031092BD03D7
:1007A00014BE84B7877F84BF0FB6F894A895809154
:1007B0006000886180936000109260000FBEE0E0EE
:1007C000F8E3099512E0A0E0B1E0E0EAF1E602C04A
:1007D00005900D92A835B107D9F723E0A8E5B2E05E
:1007E00001C01D92AA3BB207E1F70E94CA190C94FE
:1007F000CE300C9400007F928F929F92AF92BF9266
:10080000CF92DF92EF92FF920F931F93CF93DF93DC
:10081000CDB7DEB72A970FB6F894DEBF0FBECDBFB7
:10082000FC01D080118183819481892B39F01F3F95
:1008300039F491E02FEFD21203C003C091E001C060
:1008400090E090FF02C00C94960C7F0185E0DE01E1
:10085000169601900D928A95E1F7D70112962C9188
:100860008E819F81222349F00E94670D082F682FF7
:100870008E819F810E94D80F03C00E94AC0F082F69
:10088000E12FF0E0B8E00B9FE00DF11D1124A3E093
:10089000EE0FFF1FAA95E1F7ED0DF11DEE0FFF1F03
:1008A000E45CFE4F059114915801F7018281882381
:1008B00009F466C780914A018F3F09F444C1E2E719
:1008C000CE2EE1E0DE2E812C912C77247394809142
:1008D0004A01082E000C990B881599055CF1D60188
:1008E00016968C9116978823F1F019968D919C910C
:1008F0001A978017910739F48091B6039091B70346
:100900008017910781F0F601778614870387818924
:10091000811103C0C6010E94F126C60106960E94FD
:1009200012271092B803FFEF8F1A9F0A26E1C20E1A
:10093000D11CCDCFF801E356FD45EC30F10508F0B0
:1009400009C1EA5AFF4F0C946830D70112968C9176
:10095000882389F08091B90385FD05C086EE0E9449
:10096000511184E11BC085EE0E94D81086EE0E94D2
:10097000511184E61EC084E10E94D81084E60E94D2
:10098000D81044C4F70182818823E1F08091B90333
:1009900085FD08C086EE0E94511184E20E9451112B
:1009A00086EEEDCF85EE0E94D81086EE0E945111A2
:1009B00087E20E94511186EE0E94D81085EE0E94B7
:1009C000511124C484E20E94D81087E2D8CFD70105
:1009D00012968C91882379F08091B90385FD05C02A
:1009E00085EE0E94511185E29EC086E2E8CFF701B4
:1009F0008281811105C085E20E94D81086E2BFCFB6
:100A00008091B90385FD05C086EE0E94511185E2F3
:100A1000C5CF85EE0E94D81086EE0E94511186E265
:100A2000C8CFD70112968C91882389F08091B903A1
:100A300085FD05C085EE0E94511184E274C085EEEB
:100A40000E94D81086EE0E94511180E3B2CF84E25A
:100A500045C0F7018281882359F08091B90385FD53
:100A600005C085EE0E94511183E25DC082E2A7CFEE
:100A700083E20E94D81082E282CFD70112968C9135
:100A80008823B1F08091B90385FD0DC085E30E94F4
:100A9000D31185E394CFF7018281882361F080919F
:100AA000B90385FDB3C38EE20E94D3118EE287CFD6
:100AB00085E30E94D8108EE262CFD70112968C9106
:100AC000882359F08091B90385FD05C085EE0E9409
:100AD000511187E228C080E372CF87E20E94D810CC
:100AE00080E34DCFF7018281882359F08091B903CB
:100AF00085FD05C085EE0E94511181E214C080E29F
:100B00005ECF81E20E94D81080E239CFD7011296E1
:100B10008C91882399F08091B90385FD08C085EEFA
:100B20000E94511188E30E94511185EE28CF85EE75
:100B30000E94D81082E30E94511140CF88E30E94A6
:100B4000D81082E31CCFF801E356FD45EC30F105E7
:100B500008F412C6C80197558F3F910511F008F0AF
:100B600053C020914A01022E000C330B281739077D
:100B700014F480934A01F701228136E1389F400145
:100B8000399F900C1124C4018E589E4F6C01DC01DA
:100B900050962C935097928116968C911697992384
:100BA00041F11A961C930E9319978F5F16968C93AA
:100BB0000E94DB17F601968785878091460387831D
:100BC0009091B8038091B903892B80870190F081BF
:100BD000E02DC40188589E4F309731F0D6015496CD
:100BE0006D917C91559709951093B7030093B603C7
:100BF0000BC0882349F0F6018189882329F0C401BC
:100C000088589E4F0E941227D70112968C918823F4
:100C100069F0C801825E9C45059740F46EE1600F63
:100C200060931C038CE090E00E94DC2F17FF7EC0D5
:100C3000F7018281882309F479C00E945B188695A8
:100C4000817080935B0290911C03913029F488237A
:100C500019F089E30E94D3118091B90380935A025D
:100C60001092B90380911C03813071F048F08230FA
:100C7000A1F08430C1F486EE0E94D31188E111C046
:100C800082EE0E9451110FC088E193E00E94752A04
:100C900088E193E00E945B2A06C082EE0E94511117
:100CA00087E50E94D3118FE39CE90197F1F700C01B
:100CB00000004801E89497F87CE0C72ED12CC401CD
:100CC0000C2C02C0969587950A94E2F78F7096EFE8
:100CD000980F963010F0805D01C0895A0E949629C5
:100CE00094E0C91AD108ACEFCA16AFEFDA0639F7AB
:100CF00080911C03813039F078F0823069F08430C3
:100D000089F488E20DC08CE20E94D31180915B02CD
:100D1000882341F089E304C082EE0E94D81002C00B
:100D20000E94D31180915A028093B903F701828106
:100D3000882309F441C080916003882329F1C80108
:100D400090568115F0E29F0720F0905E811590414A
:100D500010F45801BB2480915F03853060F4E82FC4
:100D6000F0E0EE0FFF1FED5AFC4FB182A0828F5FC3
:100D700080935F0302C0109260030E94DB17909380
:100D80005E0380935D0342C209328DE5180709F0C6
:100D900056C181E0809360030E94DB1790935E034D
:100DA00080935D0310925F038AE0E3E5F3E0DF01E7
:100DB0001D928A95E9F716C0043FECE51E0709F479
:100DC00042C108F06DC1093D2CE5120709F45CC170
:100DD0000A3D8CE5180709F45DC1083D9CE519073B
:100DE00009F449C1F7018281882309F48FC1109267
:100DF000B5030230FCE51F0708F471C106312CE58C
:100E0000120730F0C8018B5F9C45099708F067C155
:100E10000E943B2090931B0380931A0300318CE5C2
:100E2000180709F4C3C008F041C00830ACE51A0740
:100E300009F49AC0F0F40430ECE51E0709F487C009
:100E400068F402302CE5120709F477C003301C4522
:100E500009F0E5C080911A03826076C006309CE5F7
:100E6000190709F46EC008F07BC080911A038860EE
:100E70006BC00C30BCE51B0709F485C068F40A3070
:100E8000FCE51F0709F474C008F079C00E94A310A4
:100E900080911A03806858C00E308CE5180709F459
:100EA00076C008F07FC080911A038BC00C3FACE580
:100EB0001A0709F44FC018F50331ECE51E0709F4D1
:100EC0007DC078F401312CE5120709F473C00231BA
:100ED0001C4509F0A4C00E94A31080911A038F77CB
:100EE00033C005319CE5190709F472C008F486C0C7
:100EF0000B3F1C4509F093C080911B033EC00115B8
:100F0000EDE51E0709F45FC058F40E3F2CE512070B
:100F100009F444C008F43FC080911B0382602DC0D7
:100F200002309DE5190709F475C008F45DC003306F
:100F30001D4509F074C060E06EC080911A038160A5
:100F400003C080911A03806180931A0368C0809166
:100F50001A0311C080911B03826080931B035FC042
:100F600080911A038062F0CF80911A038064ECCFE5
:100F700080911A0388608460E7CF8160EECF809112
:100F80001A038E7FE1CF80911A038D7FDDCF809190
:100F90001A03877FD9CF80911B0318C080911B0350
:100FA0008D7FDBCF80911A038F7ECECF80911A0385
:100FB0008F7DCACF80911A038F7BC6CF80911A0391
:100FC000877F8B7FC1CF80911B038D7F8E7FC5CFA5
:100FD00080911A0382FB222720F991E0922790FB4F
:100FE00082F990FB83F9B0CF80911B03982F9095E5
:100FF00091708E7F892B90FB81F9AFCF0E94A31057
:1010000080911A0387FB222720F991E0922790FB19
:1010100087F99ACF61E08EE090E00E94DC2F60912A
:101020001A0310911B0384E090E00E94DC2F612FD3
:1010300082E290E00E94DC2F0E94A310E7C0043FF0
:10104000BCE51B0731F406E221EE40EE64EF7CE5DF
:1010500017C0053FECE51E0708F09DC3093DFCE500
:101060001F0791F00A3D2CE51207A1F0083D8CE521
:10107000180709F0BCCE06E221EE41EE68ED7CE5F2
:10108000C7010E945D27C2C007E225EE45EE69ED6B
:101090007CE5F6CF08E221E045EE6AED7CE5F0CF95
:1010A000063FACE51A0731F406E221EE42EE66EFA8
:1010B0007CE5E6CF063FBCE51B0730F407E225EEF2
:1010C00044EE65EF7CE5DCCF073FECE51E0709F059
:1010D00089CE07E225EE46EE67EF7CE5D1CF0631FB
:1010E000FCE51F0709F040C08091B9038A7A91E0BE
:1010F00009F490E090935C02882311F065E301C04D
:1011000069E28DE592E00E9441180EC00631ECE5DF
:101110001E0769F480915C02882309F449C365E3E2
:101120008DE592E00E9434180E94AA0C6FC0809155
:10113000B90382720D3CECE51E0709F4D7C308F031
:101140004DC0073C2CE5120709F4BCC308F041C3AD
:10115000043CACE51A0709F4ABC308F02BC3033C0D
:10116000ECE51E0709F47AC3D70112968C91882307
:1011700009F46DC00B35BDE51B0751F158F401159D
:10118000FCE51F07B9F00F3D1C4509F060C00E9447
:101190004C203CC00C358DE51807E1F00D351D45A0
:1011A00009F055C080911B0382FB882780F991E0EC
:1011B000892711C00E94A310AFEFB4E3ECE0A15067
:1011C000B040E040E1F700C000000E9476171EC06A
:1011D00081E001C080E00E94D70C39C0023D8CE55F
:1011E000180709F493C308F418C3053D2CE512074A
:1011F00009F492C308F425C3063DBCE51B0709F4B6
:1012000090C30E35EDE51E0709F0AECF8091C902FF
:10121000877009F48BC3D70112968C91882309F447
:1012200085C382E02A960FB6F894DEBF0FBECDBF0D
:10123000DF91CF911F910F91FF90EF90DF90CF90B2
:10124000BF90AF909F908F907F900C945710D701D4
:1012500012968C9112970C9111961C91882349F04B
:10126000C8010E94670DD82E682FC8010E94D80FB0
:1012700004C0C8010E94AC0FD82EE12FF0E0B8E006
:10128000DB9EE00DF11D112433E0EE0FFF1F3A95B8
:10129000E1F7E00FF11DEE0FFF1FE45CFE4F8591BB
:1012A00094910E94C21E8C01982EF701A280C580E5
:1012B000C2945FE0C5228091C902877099F0AA208C
:1012C00089F0812F807F803421F080E2800F883088
:1012D00048F082E00E9457108091C9028770DD2497
:1012E000D3948111D12CB12EB2942FE0B2228B2D48
:1012F00090E08C30910508F0FFC1FC01EE59FF4FE2
:101300000C946830812F807F1F70882311F0129514
:10131000107FAA20B9F0112309F4D9C180E2800F0F
:10132000883010F0911006C08091B903182B1093EB
:10133000B90305C08091B803182B1093B8030E941D
:10134000AA0CC5C1802F0E94D810112309F4D4C162
:10135000005E083010F0911004C0812F0E94BD2063
:1013600006C010958091B80318231093B8030E940B
:10137000AA0CC2C1812F807F1F70803211F012959C
:10138000107F992021F0F1E09F1611F130C0AA20C2
:10139000B1F0CC2081F021E0C2120DC080911B037E
:1013A00082FDAAC180914603182B181709F4A4C125
:1013B00010934603A1C180914603812B10C0CC201D
:1013C00021F081E0C81609F497C10E94B72021C01E
:1013D000AA2041F095E09C1508F48EC1812F0E944F
:1013E000CE108AC1A4E0AC1508F486C112C0AA20B0
:1013F00019F0CC2099F36BC1CC2059F0093309F0D6
:1014000078C1BFEFE7EEF3E0B150E040F040E1F724
:101410006EC1812F0E94C7106FC1812F837009F0A8
:1014200069C0A1106DC1902F929596959770990FF4
:10143000990F802F8F70882E912CA12CB12C092E02
:1014400004C0880C991CAA1CBB1C0A94D2F704FF88
:1014500012C04FE050E060E070E004C0440F551F40
:10146000661F771F9A95D2F7DB01CA018095909588
:10147000A095B09503C080E090E0DC01169516952C
:10148000412F4370423019F1C8F400914703109185
:1014900048032091490330914A03413059F088298B
:1014A0009929AA29BB29BC01CD016023712382237C
:1014B00093230AC0802A912AA22AB32ABC01CD0113
:1014C000682979298A299B290E94951019C18829A0
:1014D0009929AA29BB29009147031091480320911B
:1014E000490330914A03BC01CD016027712782274F
:1014F0009327EACFAA2019F0812F817001C0869529
:10150000882309F4FDC0902F929596959770990FB6
:10151000990F802F8F70882E912CA12CB12C092E21
:1015200004C0880C991CAA1CBB1C0A94D2F704FFA7
:1015300012C04FE050E060E070E004C0440F551F5F
:10154000661F771F9A95D2F7DB01CA0180959095A7
:10155000A095B09503C080E090E0DC01169516954B
:10156000412F43704230D9F068F500911603109175
:1015700017032091180330911903413059F088293D
:101580009929AA29BB29BC01CD016023712382239B
:1015900093231EC0802A912AA22AB32A13C0882925
:1015A0009929AA29BB2900911603109117032091AC
:1015B000180330911903BC01CD01602771278227E0
:1015C000932706C0BC01CD01682979298A299B2966
:1015D0000E94031095C01F70AA2039F0812F0E942D
:1015E0007410802F0E94CE108BC0802F0E94C710D5
:1015F000812F0E94321084C0802F22EF921629F191
:10160000291538F090EF991659F0A1EF9A16C1F00C
:1016100059C0B3EF9B1601F1E4EF9E16A1F152C041
:10162000AA2049F0F4E0FC1508F466C0812F8F7100
:101630000E94111061C025E02C1508F45DC0F6CFA2
:10164000AA2029F0812F8F7130C0AA20D9F3812FD1
:101650008F710E94321050C0AA2079F01F7181E072
:1016600090E0A0E0B0E0BC01CD0104C0660F771FA0
:10167000881F991F1A95D2F703C060E070E0CB0174
:101680000E94031039C0AA2099F01F71812F0E9477
:10169000741080911B0382FD07C0A8E01A9FC0014F
:1016A000112483608093C902812F0E94741024C08A
:1016B00081E00E945710B1E0BC15F0F482E00E9476
:1016C00057101AC0AA2039F0CC2009F4BBCF802FC4
:1016D0000E94511111C0CC2009F4B9CF893349F4CB
:1016E000EFEFF7EE23E0E150F0402040E1F700C0DB
:1016F0000000802F0E94D81088EF8B0D843010F4EA
:101700000E945B18DD20B1F08091C90280FD12C0FB
:10171000D70112961C928595859585950E94741027
:10172000C7010E94FB038091C90285958595859527
:101730000E94321085E0F701DE01119601900D92B2
:101740008A95E1F789819A810E94AC0FEA81F0E0E5
:10175000B8E08B9FE00DF11D112483E0EE0FFF1F19
:101760008A95E1F78981E80FF11DEE0FFF1FE45C18
:10177000FE4F85919491DAC0E259FF4F0C94683086
:10178000F801E356FD45EC30F10508F0E3C9E658F1
:10179000FF4F0C946830063F9CE5190709F484CC90
:1017A00008F48CCC073FBCE51B0709F492CC1FCB97
:1017B00069E2B6CC053CFCE51F0709F47EC0063C97
:1017C0002CE5120709F0D0CC41E45DE26AE47DE249
:1017D00091C00A3C9CE5190709F47EC078F4083CE6
:1017E000BCE51B0709F473C0093CECE51E0709F0D2
:1017F000BBCC45E35DE269E27DE27CC00B3CFCE5ED
:101800001F0709F46EC00C3C2CE5120709F0ACCCA4
:101810004BE75BE26CE87BE26DC00F3CACE51A077E
:1018200009F46EC008F469C0003DECE51E0709F438
:101830006AC0013DFCE51F0709F096CC6EE089E027
:101840006DC0033D9CE5190709F463C0043DACE598
:101850001A0709F089CC61E088E165C08091AE0388
:1018600080FF20C08E7F8093AE036091AE037091A5
:10187000AF038091B0039091B1030E94692B0E9445
:10188000FF2780916E03816080936E03FFEF20E756
:1018900082E0F15020408040E1F700C000000E944B
:1018A000E82AB4CC81608093AE0361E086953BC0AA
:1018B00043E95DE26CE97DE21DC04CE95DE263E96C
:1018C0007DE218C04AE45DE261E47DE213C049E2D2
:1018D0005DE265E37DE20EC041E15DE26DE17DE246
:1018E00009C04DE15DE261E17DE204C04CE85BE2EC
:1018F0006BE77BE20E94F92789CC61E081E013C0AD
:1019000065E082E00BC068E086E008C064E18FE03B
:1019100005C067E185E102C062E289E10E94E72734
:1019200075CC61E083E20E94532D70CC2A960FB6ED
:10193000F894DEBF0FBECDBFDF91CF911F910F9105
:10194000FF90EF90DF90CF90BF90AF909F908F90DF
:101950007F9008959091B9038091B803892B2091CD
:10196000CA02982F922B90935D02809146038823A0
:1019700089F0892B80935D02EFE5F2E097E080E04B
:10198000915029F021912223D9F38F5FF9CF811152
:101990000E94B720E091CB02F091CC02309731F059
:1019A0000280F381E02D8DE592E009940895CF93B4
:1019B000C0911B03C2FB992790F9981781F080FB17
:1019C000C2F9C0931B0360911A0384E090E00E9467
:1019D000DC2F6C2F82E290E0CF910C94DC2FCF9122
:1019E00008958091C80290919702891719F08F5F2E
:1019F0008770FBCF08950F931F93CF93DF93809150
:101A0000960282958F7009F05DC0809193028823C1
:101A100009F458C08091C802109197026091910218
:101A200070919202C0919402D091950291E06F3F23
:101A300009F090E0292F06E0811709F443C02097B0
:101A400021F07F3F21F030E003C031E001C0322FB0
:101A500090E030FD34C0089FF001099FF00D112483
:101A6000DF01A856BD4F11963C911197371327C03F
:101A70003C91361324C012963C91129731111FC02D
:101A800013964D915C9114974C1B5D0B4F3A510589
:101A9000B0F4809196028F70806180939602E35635
:101AA000FD4F80818F708061808381E992E00E9488
:101AB000FB03DF91CF911F910F910C94F10C0196D4
:101AC0008770BACFDF91CF911F910F9108958F92B8
:101AD0009F92AF92BF92EF92FF920F931F93CF937B
:101AE000DF938090160390901703A0901803B09096
:101AF0001903409147035091480360914903709145
:101B00004A03842A952AA62AB72ACFE1D0E0E92EF3
:101B1000F12C082F10E0D501C4010C2E04C0B6959D
:101B2000A795979587950A94D2F780FD04C02197D1
:101B300090F780E01AC0FE0183E0EE0FFF1F8A9548
:101B4000E1F7EE0DFF1D93E0EE0FFF1F9A95E1F711
:101B5000E00FF11FEE0FFF1FE45CFE4F85919491A3
:101B60000E94C21E019719F38C2FDF91CF911F9114
:101B70000F91FF90EF90BF90AF909F908F9008953E
:101B8000CF93DF93D82FC92F0E94670DEC2FF0E081
:101B900098E0899FE00DF11D112483E0EE0FFF1FF7
:101BA0008A95E1F7ED0FF11DEE0FFF1FE45CFE4F8C
:101BB000859194910E94C21EDF91CF910895FC01FE
:101BC000808191810E94C00D292F2F70E92FE2950D
:101BD000EF704E2F50E0FA013297EE30F105B8F475
:101BE000EA57FF4F0C946830803F99F018F4883E14
:101BF00070F40FC0843F59F40CC0883E50F0813F10
:101C000031F407C0822F869586958695089580E0E9
:101C1000089581E008959F92AF92BF92CF92DF9294
:101C2000EF92FF920F931F93CF93DF93CDB7DEB761
:101C300061970FB6F894DEBF0FBECDBF8C0185E073
:101C4000F801DE011D9601900D928A95E1F7F801E9
:101C5000E2809091910260919202409194025091A1
:101C600095024115510531F06F3F31F481E09F3FFE
:101C700019F403C081E001C080E0F82FF1709F2EBD
:101C800080FD1AC1F80130812181C380D48081E9AF
:101C9000A82E82E0B82EF0909302F601E41BF50B1B
:101CA000FF2009F4C6C080919602EF3AF10508F0D2
:101CB00091C0482F407F09F050C0621311C09313A8
:101CC0000FC0FE2CE1100CC08F70806180939602D3
:101CD000C5010E94FB0380919602F801858329C10A
:101CE000CD2831F02F3F31F481E03F3F19F403C09C
:101CF00081E001C080E080FD03C081E08E2502C04C
:101D000080E090E0F82FF170FF2E80FF1CC08091E2
:101D1000C8024091970256E0841709F4E8C090E0A9
:101D2000589FF001599FF00D1124E856FD4F618135
:101D3000261306C06081631303C06281E61203C0EC
:101D400001968770E9CFFE2CEE2009F4F2C0809155
:101D5000960281608093960249C0621306C0931375
:101D600004C0E11002C0F80186C0C8010E94DF0D66
:101D7000882351F1EE2041F120919602822F829525
:101D80008F7090E0029774F080919102909192028E
:101D900098878F831986DB86CA862C87CE010796A3
:101DA0000E94FB0386E0F801A1E9B2E001900D92E8
:101DB0008A95E1F70E94FB0C0AC06217C9F0C801BE
:101DC0000E94DF0D81111EC0C8010E94FB03FF2489
:101DD000F394AFC0482F407F81F781E992E00E94E1
:101DE000FB0386E0F50111928A95E9F7F12CA1C079
:101DF0009313E5CFE110E3CFF8018583C8010E947A
:101E0000FB0354C0EE2001F320919602822F8295AD
:101E10008F7090E0029734F280919102909192023B
:101E20009A8389831B82DD82CC822E83CE01019628
:101E3000B7CFEF3AF105D0F5FE2CEE2029F2621370
:101E400027C0931325C02091960220FD18C0822F31
:101E500082958F70482F50E04115510581F0F801AF
:101E600025834F30510541F08F5F982F9295907FD9
:101E7000822F8F70892B8583C8010E94FB0386E027
:101E8000F801A1E9B2E001900D928A95E1F751C005
:101E9000C8010E94DF0D811185CF8091960281607B
:101EA00080939602C8010E94FB0343C086E0F501BF
:101EB00011928A95E9F73DC0EE2009F485CFC8015B
:101EC0000E94DF0DF82E882309F47ECF86E0F8010A
:101ED000A1E9B2E001900D928A95E1F7809191021B
:101EE000909192020E94C00D0E94FB0C22C03D877F
:101EF0002E878D859E850E94C00D292F22952F70DB
:101F0000223028F49F7039F0811105C00BC02430B5
:101F100028F49F7049F4805E883020F0C8010E9448
:101F2000FB039F2CF92C05C0F8019581907F99F750
:101F3000F9CF8F2D61960FB6F894DEBF0FBECDBFDF
:101F4000DF91CF911F910F91FF90EF90DF90CF9095
:101F5000BF90AF909F90089528E0929F800D11242C
:101F6000682F669566956695982F977085E0689FAF
:101F7000B001112440E050E080E0FB01E40FF51FC8
:101F8000E759FD4F208130E0092E02C03695279594
:101F90000A94E2F721703327042E01C0220F0A941D
:101FA000EAF7822B4F5F5F4F4530510531F70895B7
:101FB00028E0929F800D1124E82FE695E695E6959E
:101FC000877051E001C0550F8A95EAF785E0E89FD8
:101FD000F0011124E759FD4F20E030E070E040812E
:101FE000CB01022E02C0969587950A94E2F7817084
:101FF000819584278523842781932F5F3F4F253048
:10200000310569F708956093160370931703809361
:102010001803909319031092B8031092CA020C94FB
:10202000AA0C0F931F9341E050E060E070E004C001
:10203000440F551F661F771F8A95D2F780911603AC
:1020400090911703A0911803B09119038A019B0185
:10205000082719272A273B27C901B8011F910F918B
:102060000C9403100F931F9341E050E060E070E088
:1020700004C0440F551F661F771F8A95D2F74095FD
:102080005095609570958091160390911703A091DB
:102090001803B09119038A019B01082319232A23ED
:1020A0003B23C901B8011F910F910C94031020919B
:1020B000C902809582238093C902982F977041F4BA
:1020C00030E0482F082E000C550B2417350721F45B
:1020D00090911B0392FF07C08595859585950E9479
:1020E00032101092C90208950F931F9341E050E0FF
:1020F00060E070E004C0440F551F661F771F8A958B
:10210000D2F78091160390911703A0911803B09114
:1021100019038A019B01082B192B2A2B3B2BC90180
:10212000B8011F910F910C940310609347037093B3
:1021300048038093490390934A031092B803109286
:10214000CA020C94AA0C1092B90386E0EFE5F2E003
:10215000DF011D928A95E9F71092B8031092CA0226
:102160000C94AA0C882341F080959091B8038923A0
:102170008093B8030C94AA0C0895882339F09091A9
:10218000B803892B8093B8030C94AA0C0895882374
:1021900021F00E94BD200C94AA0C0895882339F0E8
:1021A0009091B903892B8093B9030C94AA0C0895DC
:1021B000882309F475C0682F823869F40E945B187F
:1021C00081FF6EC069E38DE592E00E9441180E9494
:1021D000AA0C69E30EC0833891F40E945B1880FF5B
:1021E0005FC063E58DE592E00E9441180E94AA0C51
:1021F00063E58DE592E00E9434180C94AA0C8438B3
:1022000069F40E945B1882FF4BC067E48DE592E0A1
:102210000E9441180E94AA0C67E4EBCF8CEF860F56
:10222000813A38F380E2860F883048F4677081E0A5
:1022300001C0880F6A95EAF70E94BD20DECF8BE5CA
:10224000860F8330A0F48091650290916602892BFD
:1022500039F11092660210926502E091CB02F09182
:10226000CC023097E9F00680F781E02D16C0685A5D
:102270006731B0F48091670290916802892B81F0F8
:102280001092680210926702E091CB02F091CC02AA
:10229000309731F00084F185E02D80E090E00994E2
:1022A0000895CF93882309F47CC0C82F8238B1F4F5
:1022B0000E945B1881FD75C069E38DE592E00E9484
:1022C00041180E94AA0C2FEF81EE94E0215080402B
:1022D0009040E1F700C0000069E317C08338D1F4F3
:1022E0000E945B1880FD5DC063E58DE592E00E9471
:1022F00041180E94AA0C2FEF81EE94E021508040FB
:102300009040E1F700C0000063E58DE592E00E9497
:1023100034183CC08438B1F40E945B1882FD41C07F
:1023200067E48DE592E00E9441180E94AA0C2FEF0D
:1023300081EE94E0215080409040E1F700C0000021
:1023400067E4E3CF8CEF8C0F813A80F4EFE5F2E0A5
:1023500085E692E02191C217E1F08E179F07D1F731
:102360006C2F8DE592E00E94411810C080E28C0F26
:102370008830B8F4C77081E090E001C0880FCA953A
:10238000EAF79091B903892B8093B903CF910C940C
:10239000AA0C6C2F8DE592E00E9434180E94AA0CC2
:1023A000DFCFCF9108951F93CF93DF93182F8933F9
:1023B00019F0C0E0D0E002C0C0E5D0E0812F0E945B
:1023C0005111209741F08FE99FE00197F1F700C08C
:1023D00000002197F6CF812FDF91CF911F910C94B0
:1023E000D810982F973068F59093E900981739F036
:1023F0005091EC002091ED004091F00003C0562F69
:1024000040E022E021FD02C09F5FECCF3091EB0065
:102410003E7F3093EB003091ED003D7F3093ED0037
:102420003091EB0031603093EB005093EC0020933F
:10243000ED004093F0002091EE0027FDE5CF80E015
:1024400008958F708093E90081E008952091E40061
:102450003091E50095E64091EC00842F817040FFBB
:1024600023C08091E80080FD1DC08091E302882395
:1024700099F0853099F08091EB0085FD11C0409175
:10248000E4005091E5002417350729F3915011F02D
:102490009A01E1CF84E0089582E0089583E00895F1
:1024A00081E0089580E008954091E80042FFDDCF8B
:1024B00008950F931F93CF93DF938C010E942612F0
:1024C000811118C0E80108E010E08091E80085FD66
:1024D0000AC08091E8008E778093E8000E9426125F
:1024E000882399F307C089918093F1000150110965
:1024F00061F780E0DF91CF911F910F910895809156
:10250000E50287FF11C08091E80082FD05C080913F
:10251000E3028111F8CF11C08091E8008B770BC0E6
:102520008091E302882349F08091E80080FFF8CF92
:102530008091E8008E778093E80008952091EB0267
:102540003091EC022617370748F06115710539F410
:102550002091E8002E772093E80001C0B901FC012A
:1025600020E06115710579F18091E3028823F1F192
:102570008530F1F18091E80083FD3CC08091E80056
:1025800082FD2EC08091E80080FFEBCF2091F30008
:102590008091F20090E0922B6115710551F0883026
:1025A000910538F421912093F10061507109019651
:1025B000F3CF21E0089709F020E08091E8008E77C2
:1025C0008093E800CECF2111CFCF0AC08091E302E3
:1025D000882361F0853061F08091E80083FD0AC0B6
:1025E0008091E80082FFF2CF80E0089582E00895B4
:1025F00083E0089581E008950895089508958091F5
:10260000D8020895CF93DF9321E02093E9002FEFC4
:102610003091E800215035FD06C035ED3A95F1F7CF
:1026200000002111F5CF2091E80025FF14C0EC0136
:1026300040E050E068E070E00E9459128091E800AC
:102640008E778093E80088E0FE01A9EDB2E001906A
:102650000D928A95E1F7DF91CF9108951F93CF9363
:10266000DF93CDB7DEB7AA970FB6F894DEBF0FBEE3
:10267000CDBFE5EEF2E08091F100819322E0ED3EE6
:10268000F207C9F78091E602833009F460C030F4A4
:10269000813071F0823009F49AC0B1C08A3009F4F7
:1026A00086C08B3009F46BC0893009F0A8C020C007
:1026B0008091E502813A09F0A2C08091E800877F0D
:1026C0008093E8008091E9029091EA02892B21F43D
:1026D00068E089ED92E003C060E080E090E070E0A7
:1026E0000E949E128091E8008B778093E80087C05B
:1026F0008091E502813209F082C08091E9029091D7
:10270000EA02892B09F07BC08091E800877F8093E3
:10271000E8008091E80082FD05C08091E30281110C
:10272000F8CF6DC02091F3008091F20090E0922BE1
:10273000029729F48091F1008B7F813021F4809100
:10274000F1008093D8028091E8008B7754C080918B
:10275000E502813A09F053C08091E9029091EA02C2
:10276000892B09F04CC08091E800877F8093E800B6
:102770008091E80080FFFCCF8091000137C08091FC
:10278000E5028132E1F58091E9029091EA02892B1C
:10279000B1F58091E800877F8093E8000E947F1266
:1027A0008091E702809300010E94A31028C08091CD
:1027B000E502813221F58091E800877F8093E8006F
:1027C0000E947F128091E8028093D70218C0809106
:1027D000E502813AA1F48091E800877F8093E800C8
:1027E0008091E80080FFFCCF8091D7028093F100B8
:1027F0008091E8008E778093E8000E947F1280919C
:10280000E80083FFB4C18091E5029091E602492F70
:1028100050E04A30510508F0AAC1FA01EC56FF4FCA
:102820000C946830803821F0823809F0A0C108C0CB
:102830008091E1029091E202992389F082600FC0B9
:102840008091E9028F70873008F091C18093E90090
:102850008091EB0085FB882780F91092E900909128
:10286000E800977F9093E8008093F1001092F100C8
:1028700053C1282F2D7F09F07AC1882319F08230A7
:1028800061F075C18091E702813009F070C1933029
:1028900009F080E08093E2022EC08091E70281116E
:1028A0002AC08091E9028F702FEF280F263008F0A0
:1028B0005EC18093E9002091EB0020FF1CC09330A3
:1028C00021F48091EB00806214C09091EB00906144
:1028D0009093EB0021E030E0A90102C0440F551FA6
:1028E0008A95E2F74093EA001092EA008091EB00AB
:1028F00088608093EB001092E9008091E800877F68
:102900000EC1811134C11091E7021F778091E3005D
:102910008078812B8093E3008091E800877F80930B
:10292000E8000E947F128091E80080FFFCCF809138
:10293000E30080688093E300111102C082E001C0CF
:1029400083E08093E30213C18058823008F00FC106
:102950008091E7029091E8028C3D53E0950779F56C
:1029600083E08A838AE289834FB7F894DE01139665
:1029700020E03EE051E2E32FF0E050935700E49175
:1029800020FF03C0E295EF703F5FEF708E2F90E065
:10299000EA3010F0C79601C0C0968D939D932F5FCB
:1029A000243149F74FBF8091E800877F8093E8008A
:1029B0006AE270E0CE0101960E949E129CC0409196
:1029C000E9025091EA02292F332723303105A9F07B
:1029D00068F42130310509F4D9C02230310509F0FD
:1029E000C6C082E290E0ECE7F3E032C0213231056C
:1029F00021F12232310529F1BAC0992781309105A0
:102A0000A1F058F0029709F0B2C0E0EBF3E0E491D6
:102A10008E2F90E0E0EBF3E018C0E0EDF3E0E491FE
:102A20008E2F90E0E0EDF3E010C0EEEBF3E0E491E8
:102A30008E2F90E0EEEBF3E008C0452B09F4ABC01D
:102A400096C0452B09F4ACC092C0009709F48FC022
:102A50002091E800277F2093E8002091EB0230913D
:102A6000EC028217930708F49C0140E02115310520
:102A700089F18091E302882309F43DC08530D9F1C2
:102A80008091E80083FD37C08091E80082FD2FC06F
:102A90008091E80080FFEACF4091F3008091F2003E
:102AA00090E0942B2115310559F08830910540F4C0
:102AB00044914093F1003196215031090196F2CFB3
:102AC00041E0089709F040E08091E8008E7780931C
:102AD000E800CCCF4111CDCF0AC08091E30288231A
:102AE00051F0853041F08091E80083FD04C0809171
:102AF000E80082FFF2CF8091E8008B778093E800B6
:102B000036C08038A1F58091E800877F8093E80087
:102B10008091E4028093F1008091E8008E778093A9
:102B2000E8000E947F1223C0811121C08091E7023A
:102B30009091E80299270297D4F48091E800877F6A
:102B40008093E8001091E7021093E4020E947F1244
:102B5000111106C08091E30087FD02C081E001C031
:102B600084E08093E30261EC81E00E94F1118091A6
:102B7000E80083FF1AC08091E800877F8093E80017
:102B80008091EB0080628093EB000FC082E190E0C7
:102B9000EEE9F3E05DCF89E090E0EEE8F3E058CFB6
:102BA00080E490E0ECE3F3E053CFAA960FB6F894FC
:102BB000DEBF0FBECDBFDF91CF911F9108951F9251
:102BC0000F920FB60F9211242F933F934F935F9361
:102BD0006F937F938F939F93AF93BF93CF93DF9325
:102BE000EF93FF93C091E900CF708091EC00D82F54
:102BF000D17080FDD0E81092E9008091F000877FCD
:102C00008093F00078940E942E131092E900809136
:102C1000F00088608093F000CD2BCF70C093E90066
:102C2000FF91EF91DF91CF91BF91AF919F918F91E4
:102C30007F916F915F914F913F912F910F900FBEB8
:102C40000F901F901895E8EDF0E080818E7F8083D3
:102C50001092E2001092DA001092E100A0EEB0E0D3
:102C60008C9181608C9380818F77808319BCA7EDD4
:102C7000B0E08C918E7F8C9380818F7E80831092C8
:102C8000D6020895CF92DF92EF92FF920F931F9397
:102C9000CF93DF93C8EDD0E088818F7E8883E7ED06
:102CA000F0E080818160808384E082BF81E0809356
:102CB000D60288818E7F888302EE10E0F8011082B0
:102CC0001092DA0081EEC82ED12CF6011082888194
:102CD0008F77888388818068888388818F7D8883C7
:102CE00019BC1092E3021092E4021092E2021092D8
:102CF000E10290EEE92EF12CF70180818B7F808339
:102D000088818160888360E080E00E94F111F60193
:102D100080818E7F8083F8018081816080838081C3
:102D200088608083F70180818E7F808388818061C5
:102D30008883DF91CF911F910F91FF90EF90DF90EB
:102D4000CF9008951F920F920FB60F9211242F93D8
:102D50003F934F935F936F937F938F939F93AF9323
:102D6000BF93EF93FF938091E10082FF09C08091B0
:102D7000E20082FF05C08091E1008B7F8093E1003B
:102D80008091DA0080FF2AC08091D80080FF26C0A1
:102D90008091DA008E7F8093DA008091D90080FFE5
:102DA00018C080E189BD82E189BD09B400FEFDCF74
:102DB00081E08093E3028091D60281110FC00E94CE
:102DC00023160E9442168091E20084608093E20004
:102DD00005C019BC1092E3021092D6028091E10066
:102DE00080FF17C08091E20080FF13C08091E20055
:102DF0008E7F8093E2008091E20080618093E20008
:102E00008091D80080628093D80019BC85E08093BF
:102E1000E3028091E10084FF2EC08091E20084FFF4
:102E20002AC080E189BD82E189BD09B400FEFDCFE1
:102E30008091D8008F7D8093D8008091E1008F7EB3
:102E40008093E1008091E2008F7E8093E200809188
:102E5000E20081608093E2008091E402882311F017
:102E600084E007C08091E30087FD02C081E001C0DB
:102E700083E08093E3028091E10083FF26C080918C
:102E8000E20083FF22C08091E100877F8093E10010
:102E900082E08093E3021092E4028091E1008E7F51
:102EA0008093E1008091E2008E7F8093E200809128
:102EB000E20080618093E20060E080E00E94F11116
:102EC0008091F00088608093F000FF91EF91BF91B6
:102ED000AF919F918F917F916F915F914F913F91B2
:102EE0002F910F900FBE0F901F90189581E0809347
:102EF000E00080E28093D8001092C9008FE19EE448
:102F00000197F1F700C0000087E090EBDC018093AF
:102F1000BA039093BB03A093BC03B093BD039CE0A2
:102F200088E10FB6F894A895809360000FBE909347
:102F30006000FFCF78941F920F920FB60F9211246A
:102F40008F939F93AF93BF938091D2029091D302BE
:102F5000A091D402B091D5020196A11DB11D80931C
:102F6000D2029093D302A093D402B093D502BF9122
:102F7000AF919F918F910F900FBE0F901F9018955A
:102F80009C014FB7F8948091D2029091D302A09106
:102F9000D402B091D5024FBF821B930B08952FB777
:102FA000F8946091D2027091D3028091D4029091F2
:102FB000D5022FBF08952FB7F8948091D202909137
:102FC000D302A091D402B091D5022FBF08951F92D1
:102FD0000F920FB60F9211248F939F93AF93BF93CD
:102FE0008091D102811113C08091D2029091D302BD
:102FF000A091D402B091D5024196A11DB11D80933C
:10300000D2029093D302A093D402B093D502BF9181
:10301000AF919F918F910F900FBE0F901F901895B9
:103020000F931F930E94881E882321F01F910F91F8
:103030000C94CF170E94CF170091CD021091CE02B1
:103040002091CF023091D002600F711F821F931F19
:103050001F910F9108950E94881E81110C94DB1717
:103060000E941018CB0108959C012A5F3F4FFC017C
:103070004281461301C01282019682179307B9F765
:1030800008959C01FC0132969FEF80E04191461724
:1030900089F09F3F19F4411101C0982F8F5F86304E
:1030A000A9F79F3F39F0F901E90FF11D97FDFA9556
:1030B0006283089508950E94881E882351F0E0914C
:1030C000CB02F091CC02309721F00190F081E02DFD
:1030D000099480E00895CF93DF93CDB7DEB72897AA
:1030E0000FB6F894DEBF0FBECDBF85E0EEEAF3E089
:1030F000DE01119601900D928A95E1F780916C03A3
:1031000090916D03A0916E038E839F83A88728857D
:1031100040911103509112036091130370911403B5
:103120003FB7F8948091D2029091D302A091D4023B
:10313000B091D5023FBF841B950BA60BB70B84360D
:103140009105A105B10510F4222329F180913601E2
:103150009091370182509D4F4091350150E04930A8
:10316000510510F048E050E0BE016F5F7F4F0E94B4
:10317000C53085E090E00E94102F892B11F080E08F
:103180000DC00E94CF1760931103709312038093B8
:1031900013039093140310926E0381E028960FB6E8
:1031A000F894DEBF0FBECDBFDF91CF910895CF93CE
:1031B000DF9300D000D0CDB7DEB74091FA02509136
:1031C000FB026091FC027091FD022FB7F894809190
:1031D000D2029091D302A091D402B091D5022FBF18
:1031E000841B950BA60BB70B84369105A105B10581
:1031F00080F10E941018DC01CB010296A11DB11DC7
:1032000089839A83AB83BC8380912C0190912D019B
:1032100082509D4F40912B0150E04530510510F0F8
:1032200044E050E0BE016F5F7F4F0E94C53084E0F4
:1032300090E00E94102F892B11F080E00BC00E94BB
:10324000CF176093FA027093FB028093FC02909375
:10325000FD0281E00F900F900F900F90DF91CF91C2
:103260000895CF92DF92EF92FF920F931F93CF9327
:10327000DF931F92CDB7DEB7EE24E394F12C04E088
:1032800013E09E012F5F3F4F46EF52E063E082E084
:103290000E94D51DC82E882379F1D0902B038D2D47
:1032A00090E09C01295C3C4F79011981F9018081F2
:1032B000181B012F80E010165CF40150F70180818B
:1032C0008F5F808360E08D2D0E948E2A81E0F3CF96
:1032D000912F17FD90E0191B112359F01F5FF70183
:1032E00080818150808361E08D2D0E948E2A81E053
:1032F000F3CF81110E9439208C2D0F90DF91CF9157
:103300001F910F91FF90EF90DF90CF900895CF9293
:10331000DF92EF92FF920F931F93CF93DF9300D032
:1033200000D0CDB7DEB76B0184E0E82EF12C0FEFB3
:1033300012E09E012F5F3F4F42EF52E061E080E0DC
:103340000E94D51D882361F049815A816B817C815F
:103350004093EE025093EF026093F0027093F102FB
:103360004091EE025091EF026091F0027091F102F3
:10337000F60140835183628373830F900F900F9007
:103380000F90DF91CF911F910F91FF90EF90DF9001
:10339000CF900895CF93DF93CDB7DEB72A970FB6BE
:1033A000F894DEBF0FBECDBF84B7877F84BF0FB652
:1033B000F894A895809160008861809360001092D5
:1033C00060000FBE90E080E80FB6F8948093610033
:1033D000909361000FBE85B7806885BF85B7806810
:1033E00085BF80E99DE190935902809358020E9425
:1033F00023160E9442168091E20084608093E200CE
:1034000078948091E3028823A1F01091E9001F7065
:103410009091EC00892F817090FD80E8182B10921C
:10342000E9008091E80083FD0E942E131F70109325
:10343000E90082E084BD93E095BD9AEF97BD80934B
:103440006E001092CD021092CE021092CF02109216
:10345000D0020E94881E80933D0180913D01882307
:1034600021F010926D018AE003C08AE080936D0123
:1034700080936E010E94881E81110E94032E80910C
:103480003D0180913D01811102C094E001C090E0B6
:103490009093290384E0891B8093280302E112E0C2
:1034A00096E1E92E92E0F92EF80181918F018F3F8C
:1034B00011F00E94AB1EE016F106B1F70AE112E02E
:1034C00082E2E82E82E0F82EF80181918F018F3F91
:1034D00011F00E94AB1EE016F106B1F7E0E2F3E056
:1034E00088E293E0ACE2B3E011921D928E179F0741
:1034F000D9F780E090E00E94D62F893E9E4F11F0D0
:103500000E944C2082E090E00E94C82F80933D03EF
:103510000E943B2090931B0380931A030E94C420B7
:103520008FE39CE90197F1F700C000000E94C420DE
:1035300080912C0380FF08C06FEF7FEF80E090E068
:103540000E94FA2F0E94761783E090E00E94C82F15
:10355000682F70E080E090E00E9495108CE090E091
:103560000E94C82F90E0A0E0B0E080931C039093ED
:103570001D03A0931E03B0931F030E94881E811198
:1035800002C00E94062E80912A0381113BC080E078
:1035900090E00E94D62F893E9E4F21F00E944C2041
:1035A0000E949D2B88E090E00E94D02F6093AE0394
:1035B0007093AF038093B0039093B10380916E0337
:1035C000836080936E036E7F71F40E949D2B88E070
:1035D00090E00E94D02F6093AE037093AF0380936E
:1035E000B0039093B1030E944F2B0E94FF2780915C
:1035F000AE0380FF04C060E086950E94532D81E0F9
:1036000080932A0380913D01811106C085E3809358
:10361000490186E68093480120914901E22FE29515
:10362000EF70F0E031A12F7081E090E0AC01022E4C
:1036300001C0440F0A94EAF7542F5095352331A363
:1036400032A1432B42A340914801A42FA295AF7011
:10365000B0E091963C9191974F70042E01C0880F75
:103660000A94EAF7982F9095932391969C939197BB
:1036700092969C919297892B92968C93929780A187
:1036800090E002C0959587952A95E2F78170909613
:103690002C9130E002C0359527954A95E2F720FD40
:1036A00002C090E001C092E0892B80933B0390918F
:1036B0003D0181E0982790933A03891B80932B0367
:1036C0008EE391E09093CC028093CB02F8E1EF2E51
:1036D000F12CA0E46A2EB4E3CB2EB3E0DB2E10E194
:1036E000712E8091E302853009F03EC012E1809195
:1036F000E302853009F034C08091E302843009F19F
:103700001092D1020FB6F894A895E09260000FBE17
:103710006092600083B7817F846083BF83B78160DC
:1037200083BF7894889583B78E7F83BF0FB6F89454
:10373000A89580916000886180936000109260007D
:103740000FBE8091E202882391F20E94C420ECE235
:10375000F3E0819181118DC1CE16DF06D1F7C7CF7D
:103760000E94A3100E945B180E94C42081110E9435
:10377000CF17EEE3F3E0ACE2B3E000E010E0802E20
:103780009D908191892549F1A12CBB24B394982F58
:103790009B21F1F00E94881E882399F0A9828A82D9
:1037A0009B2081E009F480E08B830E94DB1781601D
:1037B000782F9D838C8349815A816B818D810E94F2
:1037C000EE28F801E25CFC4F8081B826B0821AC076
:1037D000A394BB0C28E0A212DACF0F5F1F4F083072
:1037E000110569F68FEF8E838F8318860E94DB1791
:1037F0008160782F9A8789874E815F8168858A8565
:103800000E94EE2880916D03882309F4BDC0809149
:103810006C03E091AE03E695E81BE0936803823009
:1038200059F4F0E0EE51FC4FE4910E2F10E0EDED75
:10383000AE2EE6E2BE2E59C0863059F4F0E0E152D9
:10384000FC4FE4910E2F10E07DECA72E76E2B72E10
:103850004CC0893061F4E695F0E0E452FC4FE4910D
:103860000E2F10E06FE4A62E66E2B62E3EC08F301B
:1038700061F4E695F0E0E752FC4FE4910E2F10E082
:1038800050EBA52E55E2B52E30C0853159F4F0E04D
:10389000EA52FC4FE4910E2F10E047E2A42E45E2DD
:1038A000B42E23C08831A1F0833249F4E4EDF3E073
:1038B000059114913DE8A32E36E2B32E16C0843252
:1038C00071F404EF11E02FE4A22E24E2B22E0DC019
:1038D00008E210E091E9A92E94E2B92E06C000EDAD
:1038E00017E08DE1A82E84E2B82E80916903882329
:1038F00061F0109269030E942B18909367038093E4
:10390000660310926B0310926A030E942B18E091D9
:103910006603F09167039C012E1B3F0B2F3F3F472F
:1039200098F5209136032223B1F0109236032091AE
:10393000340330913503821B930B8F3F9F4758F41C
:10394000205D3A48309335032093340380916E0311
:10395000886080936E0380906A0390906B030E0FD3
:103960001F1F109367030093660386E693E0F5013B
:10397000099580916A0390916B03892B29F489281A
:1039800019F081E080933603E0913B035E2F550FE1
:10399000550F20914901E22FE295EF70F0E080A1F0
:1039A00090E02F7002C0959587952A95E2F7817077
:1039B000992740914801E42FE295EF70F0E020A1B3
:1039C00030E04F7002C0359527954A95E2F7F9012E
:1039D000E170FF2720FF02C0E2E0F0E0E82BF92BC6
:1039E000E52BE0933B0310913A03EF70F0E0EE5DBE
:1039F000FD4F908180913903890F80933903843082
:103A00006CF0E12FF0E0E95CFC4F80818F5F8083F8
:103A100060E0812F0E948E2A21E001C020E0809189
:103A200039038D3F64F4E12FF0E0E95CFC4F8081C5
:103A30008150808361E0812F0E948E2A21E0809155
:103A40003903082E000C990B64E070E00E943230BC
:103A50008093390321110E9439200E945B189091B4
:103A60003C03891709F43DCE0E945B1880933C0308
:103A700038CE79BC19BD09B400FEFDCF8091D800C5
:103A80008F7D8093D8008091E00082608093E00079
:103A90008091E00081FDFCCF0E94A31028CEAF9260
:103AA000BF92CF92DF92EF92FF920F931F93CF932B
:103AB000DF937C015B016A01809115038A3018F065
:103AC00001E010E002C00AE010E0C1E0D0E0F894AC
:103AD000B501C701F60109957894811115C02196A9
:103AE0000C171D0794F0CC9F9001CD9F300D300D29
:103AF000112480E090E045E34A95F1F7000001963B
:103B000082179307C1F7E3CF81E0DF91CF911F9137
:103B10000F91FF90EF90DF90CF90BF90AF900895FE
:103B200080E0089590911A0392FF0DC0282F28710C
:103B3000283019F4877F846006C0282F2471243030
:103B400011F48B7F886093FF0DC0282F28712831D6
:103B500019F4877E846106C0282F2471243111F462
:103B60008B7E886120911B0320FF0DC0382F387198
:103B7000383019F4877F816006C0382F31713130B9
:103B800011F48E7F886021FF0DC0282F2871283105
:103B900019F4877E816106C0282F2171213111F42B
:103BA0008E7E886194FD877E08957F928F929F928A
:103BB000AF92BF92CF92DF92EF92FF920F931F933B
:103BC000CF93DF931F92CDB7DEB7762E4A0159010E
:103BD0006801082F880F110BC8010E94102F892B34
:103BE00009F07EC08AE0809FF001819FF00D1124D2
:103BF000EF5FFE4F458150E04115510511F041E066
:103C000050E08AE0809FF001819FF00D1124EF5F6A
:103C1000FE4F6681778162507D4FCE0101960E94F2
:103C2000C530F40140815181628173812FB7F894CE
:103C30008091D2029091D302A091D402B091D5028A
:103C40002FBF841B950BA60BB70B84369105A105DE
:103C5000B10540F4B701C6010E94D02799818917A8
:103C600009F440C0072D770C110BC8010E94102FDA
:103C7000892B09F5E114F10401F18AE0809FF0013C
:103C8000819FF00D1124EF5FFE4F458150E0E41657
:103C9000F50608F4A7018AE0809FF001819FF00DEE
:103CA0001124EF5FFE4F6681778162507D4FC50121
:103CB0000E94C53002C010E001C011E0B701C6018A
:103CC0000E94D02791E02981281390E0192381F0E8
:103CD0000E94CF17F401608371838283938308C0AD
:103CE00010E001C011E0A701B601C5010E94C53076
:103CF000812F0F90DF91CF911F910F91FF90EF9047
:103D0000DF90CF90BF90AF909F908F907F9008955D
:103D100080916503811118C088EC9091E30097FDB4
:103D20000AC0EFE3FCE93197F1F700C000008150D1
:103D3000A1F782E001C081E080936503823021F425
:103D40000E9423161092E30281E090916503913066
:103D500009F080E00895F894E82FE295EF70F0E024
:103D600031A1282F2F7081E090E001C0880F2A95A3
:103D7000EAF7982F9095932391A392A1892B82A380
:103D800078940895CF93DF938238910569F1B0F468
:103D90008133910509F46FC048F48932910509F423
:103DA00065C08A32910509F46BC06FC085339105F7
:103DB00009F457C089339105B9F067C0833E910576
:103DC00071F138F4803E9105B1F0823E910511F118
:103DD0005CC0863E9105B9F1873E9105C9F1843EEC
:103DE000910509F052C024C020911A0320FD2AC178
:103DF00021FD28C14AC080911A0380FD1DC1809118
:103E00001B0380FF1FC180911A0384FD12C183EE42
:103E100090E02CC180911A0382FF11C1F4CF8091F0
:103E20001A0382FD0CC180911B0380FD0BC1EBCFF7
:103E300080911B0381FF0CC180911A0384FDF9C09E
:103E400087EE90E013C180911A0383FFFEC0F4CF88
:103E500080911A0383FDF9C080911B0381FDF8C096
:103E6000EBCF80911A0385FDF6C0F8C080911A034C
:103E700085FDF4C0F0C080911A0386FDF2C0F4C045
:103E800080911A0386FDF0C0ECC0811523E59207EE
:103E9000A8F5811532E5930708F099C0811540E235
:103EA0009407D0F4811521E0920708F0DFC0853A2D
:103EB000910550F48430910508F0D8C0019709F0BD
:103EC000B8C081E090E0D2C09C01205E310928306A
:103ED000310508F0AEC0CAC0811531E5930708F07E
:103EE00071C0811540E5940708F04EC0811520E4AB
:103EF000920708F49EC09F70906AB8C0EC018115CB
:103F000036E59307F0F4811545E5940708F078C08D
:103F1000C11584E5D80708F06EC09E0123703327D1
:103F200081E090E002C0880F991F2A95E2F7C695BC
:103F3000C69520E2C29FE00111248C2B9D2B9A682C
:103F400095C081152AE5920778F4811539E5930724
:103F500008F05EC0811548E5940708F46AC0982F00
:103F60008827806F906A82C090568115904208F031
:103F700060C08D2F8F710E94921D282F2F71CE014E
:103F800099279062922B72C09C0174E03695279518
:103F90007A95E1F7922F9370482F437021E030E03B
:103FA00002C0220F331F4A95E2F73C68392B8F700D
:103FB000982F9695969540E2949FC0011124822BEC
:103FC000932B54C0982F8827816F906A4FC0AC0103
:103FD0004370552721E030E002C0220F331F4A957D
:103FE000E2F78695869540E2849FC0011124822BDA
:103FF000932B9C683BC09C2F8827846F906A36C0A7
:104000000E94921D8F7190E0982F882790622EC099
:104010008F700E94921D94E0D695C7959A95E1F70E
:10402000CF70D0E0DC2FCC27D0699E01282BC901AE
:104030001DC080E090E01AC089E390E017C082EED6
:1040400090E014C080EE90E011C086EE90E00EC0CB
:1040500084EE90E00BC089E290E008C085E390E038
:1040600005C08AE290E002C081E390E0DF91CF9149
:1040700008950C94CF17CF9384E090E00E94C82F4E
:10408000C82F82E290E00E94C82F2C2F30E0A901B7
:10409000582BCA01CF91089569EE7EEF80E090E041
:1040A0000E94FA2F60E082E090E00E94DC2F60E046
:1040B00083E090E00E94DC2F1092470310924803A7
:1040C0001092490310924A0360E084E090E00E945D
:1040D000DC2F60E082E290E00E94DC2F60E085E06F
:1040E00090E00E94DC2F60E086E090E00E94DC2FF0
:1040F0006FEF87E090E00E94DC2F40E050E0BA01D3
:1041000088E090E00E94EE2F60E08DE090E00E9459
:10411000DC2F40E050E0BA0188E190E00E94EE2FF1
:1041200060E087E190E00E94DC2F40E050E0BA01BF
:104130008CE190E00E94EE2F60E070E080E290E081
:104140000E94FA2F40E050E0BA0188E190E00E941E
:10415000EE2F40E050E0BA018FE090E00E94EE2F99
:1041600040E050E0BA0183E190E00C94EE2F8091A2
:104170004603811110924603089580959091B903EA
:1041800089238093B90308958F929F92AF92BF9233
:10419000CF92DF92EF92FF920F931F93CF93DF9313
:1041A000CDB7DEB72C970FB6F894DEBF0FBECDBFEC
:1041B0009E012F5F3F4F790188E0F90111928A95A6
:1041C000E9F702E112E05901CC24C394D12CF801A3
:1041D00080818F3F09F447C0F894E82FE295EF7093
:1041E000F0E021A18F70A60102C0440F551F8A95EF
:1041F000E2F7CA01922F982B91A392A1809589236F
:1042000082A3789400C0EAE1F2E020E030E0912C53
:1042100041914F3FB1F0A42FA295AF70B0E09096BE
:104220008C9190E04F7002C0959587954A95E2F782
:1042300080FD07C08C2D022E01C0880F0A94EAF77A
:1042400001C080E0982A2F5F3F4F2830310501F7E9
:10425000F80180818F3F11F00E94AB1EF0EAFA95C1
:10426000F1F7F50190820F5F1F4FFFEFAF1ABF0A02
:1042700022E00631120709F0AACF48E050E0B7016A
:1042800080E293E00E94B8308C01892B41F088E0F5
:10429000F701A0E2B3E001900D928A95E1F7F0906A
:1042A00029030115110549F081E080934D030E9417
:1042B000DB1790934C0380934B0380914D0388232D
:1042C000B9F080914B0390914C030E94C017059761
:1042D00078F0A0E2B3E0EF2DF0E0E45DFC4F84E283
:1042E00093E02D9121938A179B07D9F710924D03E4
:1042F0000115110509F08BC20E94881EE091290367
:10430000882309F4DBC119861A861B861C860E2FAA
:1043100010E0045D1C4F80911503AE01435F5F4FB9
:104320007A018A3058F447E859E1BE01675F7F4F50
:10433000C8010E944F1D882361F10AC080914E037D
:1043400090914F030E94C017843F914060F732C0A4
:1043500041E359E1BE01675F7F4FC8010E944F1DD5
:104360008823B9F047ED58E1BE01675F7F4FC80170
:104370000E944F1D882369F04BE658E1BE01675F3C
:104380007F4FC8010E944F1D882319F0109215031A
:1043900019C0809115038F3F19F08F5F809315032B
:1043A000809115038A3070F00E94DB1790934F03C1
:1043B00080934E03E0912803F0E0E45DFC4FDE01C2
:1043C000199614C0E0912803F0E0E45DFC4FDE0193
:1043D0001996D12C8D919081981719F08083DD2446
:1043E000D3943196AE15BF05A9F707C011921D925F
:1043F000EA16FB06D9F7DD24D39480914A018F3F5A
:1044000049F1C12C96E1B92E1BC0BE9CF001BF9CA6
:10441000F00D1124EE58FE4F828893888114910488
:1044200019F48FEA882E912CBE9C8001BF9C100D40
:1044300011240E581E4FF8018681811110C0C394BB
:10444000EC2CF12C80914A01082E000C990B8E1552
:104450009F05DCF680915203882339F118C08585C9
:1044600096850E94C0178816990648F7F801818939
:10447000811103C0C8010E94F126BE9CC001BF9CEF
:10448000900D112488589E4F0E941227D8CF8091FA
:104490005003909151030E94C017833E944028F02E
:1044A00080EE0E94D81010925203809160038823FE
:1044B00009F402C180915F03882309F4FDC0809153
:1044C0005D0390915E030E94C017853F914008F400
:1044D000F3C01092600380915303909154030F979F
:1044E000D9F48091550390915603892BA9F48091BA
:1044F000570390915803892B79F480915903909137
:104500005A03892B49F480915B0390915C03892BBA
:1045100019F483E00E941110809153039091540389
:10452000409769F58091550390915603479739F567
:104530008091570390915803892B09F58091590375
:1045400090915A03892BD9F480915B0390915C037D
:10455000892BA9F48AEA94E00E94FC2983E30E9453
:10456000D31184EA94E00E94FC298FE20E94D311C7
:104570008DE20E94D3118AE994E00E94FC29809187
:104580005303909154034097A1F580915503909166
:104590005603469771F58091570390915803892BE4
:1045A00041F58091590390915A03892B11F580911F
:1045B0005B0390915C03892BE1F486E994E00E940F
:1045C000FC2983E30E94D31180E994E00E94FC2936
:1045D0008FE20E94D3118DE20E94D31185E894E00E
:1045E0000E94FC2983E30E94D3118EE794E00E948D
:1045F000FC298091530390915403409769F5809171
:10460000550390915603459739F580915703909142
:104610005803892B09F58091590390915A03892BEE
:10462000D9F480915B0390915C03892BA9F48FE608
:1046300094E00E94FC298FE20E94D3118DE20E9437
:10464000D31184E694E00E94FC2983E30E94D311F5
:104650008DE594E00E94FC298091530390915403CE
:10466000409751F580915503909156034A9721F553
:104670008091570390915803892BF1F4809159034D
:1046800090915A03892BC1F480915B0390915C0354
:10469000892B91F484E594E00E94FC2983E30E9435
:1046A000D31187E394E00E94FC2983E30E94D31195
:1046B00086EE93E00E94FC290D2DABC0F0E0E45D96
:1046C000FC4FF89484E0AFEFB2E001900D928A9530
:1046D000E1F764E070E08FEF92E00E94D0278093D2
:1046E000FE027894F894E0913A03F0E0E95CFC4F24
:1046F000808189878093040361E070E0CE01099690
:104700000E94D027809303037894F894C090050307
:10471000D0900603E0900703F090080380916103B6
:1047200090916203A0916303B0916403C816D90607
:10473000EA06FB06D1F0C0926103D0926203E092D8
:104740006303F09264030E94881E81110EC00E94D0
:10475000CF17C61AD70AE80AF90AC092CD02D0923A
:10476000CE02E092CF02F092D0027894F894809139
:104770001003882309F449C080FF24C090910903E5
:104780008091AE0390FF09C081608093AE0360E02A
:10479000892F86950E94532D15C08E7F8093AE037E
:1047A0000E94FF2780916E03816080936E033FEF2C
:1047B00040E752E0315040405040E1F700C0000077
:1047C0000E94E82A8091100381FF09C020E04091F7
:1047D0000C0360910B0380910A030E94682C809166
:1047E000100382FF09C080910F03882319F00E94F3
:1047F000062802C00E94FF278091100383FF03C098
:1048000081E08093690310921003789402C001E064
:1048100010E0802F2C960FB6F894DEBF0FBECDBFF0
:10482000DF91CF911F910F91FF90EF90DF90CF908C
:10483000BF90AF909F908F9008950895FC01808164
:10484000813021F4FB018081918105C0823029F4FF
:10485000FB01828193810C945B2A0895FC01808185
:10486000813021F4FB018081918105C0823029F4DF
:10487000FB01828193810C94752A0895CF93DF9375
:10488000FC012081223041F4FB01EC018281938103
:104890000E94752A81E08B87DF91CF9108950F9355
:1048A0001F93CF93DF93EC0100E010E08091710142
:1048B000282F30E0021713073CF590916F01980103
:1048C000290F311DA901440F551F240F351F2E58E4
:1048D0003C4F869590E04C81081719071CF444233F
:1048E00049F002C0411106C04091B103473918F0A8
:1048F00046E901C040E06091B0038091AF030E949F
:10490000B52B0F5F1F4FD2CF0E94E82A8C8190E019
:104910000196817099278C83DF91CF911F910F9120
:1049200008958F929F92AF92BF92CF92DF92EF92B3
:10493000FF920F931F93CF93DF938C01FC0144816F
:10494000C42FD0E09E01DE010E9476309B01AC01B5
:104950000E948C306B017C01E0E2F0E0EC1BFD0B6F
:10496000A5E5B0E09B01AC010E948C304B015C01DD
:104970009F01DF010E946E309B01AC010E949730C5
:104980009B01AC012C0D3D1D4E1D5F1DC501B401E9
:104990000E944630C22FD22F2A3228F4F3E02F9FF4
:1049A000900111240DC025E530E02C1B3109C9010F
:1049B000880F991F280F391F37FF02C02F5F3F4F05
:1049C00035952795C22FC095F12C85E5E82EED1A77
:1049D00080917101F816E0F4F1FC02C08E2D01C047
:1049E0008D2F90916F012F2D30E0290F311DA901DE
:1049F000440F551F240F351F2E583C4F4C2FC739DD
:104A000008F046E96091B0030E94B52BF394E0CF23
:104A10000E94E82AF8018481811102C091E003C05C
:104A2000803219F49FEF90936C0190916C01890F83
:104A3000F8018483DF91CF911F910F91FF90EF9048
:104A4000DF90CF90BF90AF909F908F9008951F936D
:104A5000CF93DF93EC018C81811109C081E08C83BD
:104A60001092700392E090936B0180936A018091A1
:104A70006F0190917001891770F4E82FF0E09F01A9
:104A8000220F331FE20FF31FEE58FC4F11821082EA
:104A900012828F5FF0CF10E0609171011617D8F588
:104AA000E12FF0E070E0CF010E94323020916F01E1
:104AB000820F20917003022E000C330B90E0E2175E
:104AC000F307E4F020916B01022E000C330B2E173C
:104AD0003F07A4F09C01220F331F820F931F9C01FC
:104AE0002E583C4F4091B103473908F046E9609198
:104AF000B0038091AF030E94B52B0BC0FC01EE0FF9
:104B0000FF1F8E0F9F1FFC01EE58FC4F1182108279
:104B100012821F5FC1CF0E94E82A80916A01209112
:104B20007003280F2093700390916B01980F90935E
:104B30006B0119165CF4022E000C330B40917101CD
:104B400050E0415051092417350734F08195809386
:104B50006A01813009F41C82DF91CF911F91089581
:104B60007F928F929F92AF92BF92CF92DF92EF92FD
:104B7000FF920F931F93CF93DF93EC018A8180FF05
:104B800003C0BB24BA9402C0BB24B3948C818111AE
:104B90000DC081E0B81206C08091710181508093F0
:104BA0006F0302C010926F0381E08C83A12C44E15B
:104BB000742E80907101A81408F044C080916F0198
:104BC000CA2CD12C8601080F111DC801880F991F0E
:104BD000080F191F0E581C4FF80111821082128203
:104BE00034E0E32EF12C912C80916F03890D8531F7
:104BF0002CF0672D0E941030892F02C087FD880D90
:104C0000082E000C990BC816D906A9F48091B1039F
:104C10008E9DA0018F9D500D11245595479555955A
:104C20004795473908F046E998016091B0038091B3
:104C3000AF030E94B52B9B0CF1E0EF1AF108A1F62F
:104C4000A394B7CF0E94E82A80916F0391E0B91234
:104C50000EC0811107C080917101815080936F0354
:104C60001C820FC0815080936F03BC820AC090E009
:104C700001966091710170E00E94323080936F0361
:104C80008C83DF91CF911F910F91FF90EF90DF9078
:104C9000CF90BF90AF909F908F907F900895FF929C
:104CA0000F931F93CF93DF93EC01F12C0FEF10E0E4
:104CB00060917101F61608F580916F012F2D30E09B
:104CC000280F311DC901880F991F280F391F2E5831
:104CD0003C4F4091B103473908F046E970E0C80104
:104CE0000E943230962F8C816091B003F99E800D26
:104CF00011240E94B52BF394DBCF0E94E82A9A81FD
:104D00008C8190FF02C08F5F01C081508C83DF9146
:104D1000CF911F910F91FF9008950F931F93CF9301
:104D2000DF9300D01F92CDB7DEB78C018091710365
:104D300081110AC09E012F5F3F4F46E96FEF0E942D
:104D4000B52B8A8180937103F8018481813051F001
:104D500028F0823061F4409171030AC080917103A0
:104D600040E007C06091710340E080E003C040E094
:104D700080E060E00E94342BF801848190E001968D
:104D800063E070E00E94323084830F900F900F90A8
:104D9000DF91CF911F910F910895CF93DF93EC0195
:104DA000EEEAF3E0438162818C810E944B2C8C817E
:104DB0008F5F8C83DF91CF910895CF93DF93EC01C8
:104DC000EC81F0E0E255FB4F4491EEEAF3E06281C2
:104DD00081810E944B2C8C818F5F8C83DF91CF91DE
:104DE0000895CF93DF93EC0181E0898B9091B90313
:104DF0008F81892B8093B9039091B8038885892B83
:104E00008093B8030E94AA0CEA81FB81CE0106962A
:104E1000309729F06C897D89DF91CF910994DF91DA
:104E2000CF910895EF92FF920F931F93CF93DF934B
:104E3000FC01228521113AC0EC01E380F480F7E502
:104E4000FF1A26E12E9DC0012F9D900D1124DC013B
:104E5000AE58BE4F1496ED91FC91159788589E4F11
:104E6000309729F054966D917C915597099586E17C
:104E70008E9D80018F9D100D11240E581E4FF8013C
:104E800087810E94BD20F801808580959091B803AC
:104E900089238093B8030E94AA0C188219861B8666
:104EA0001E821D821092B7031092B603DF91CF913C
:104EB0001F910F91FF90EF9008950F931F93CF9341
:104EC000DF93C42FD22FFC0182818823C9F0409345
:104ED000B5030E94DB179093B4038093B30380E281
:104EE0008C0F883008F057C0C77081E001C0880F70
:104EF000CA95EAF7DF91CF911F910F910C94CE10D4
:104F00008091B503481330C08091B3039091B403EE
:104F10000E94C0178F3A910538F510E21D0FCD178A
:104F2000B9F080E28C0F883040F4C77081E001C096
:104F3000880FCA95EAF70E94C710183028F581E05B
:104F40009D2F977001C0880F9A95EAF70E94CE10A6
:104F5000802F0E94D3111830F0F4D77081E001C087
:104F6000880FDA95EAF70AC080E28C0F883098F44F
:104F7000C77081E001C0880FCA95EAF7DF91CF9131
:104F80001F910F910C94C710802FDF91CF911F912B
:104F90000F910C94D311DF91CF911F910F91089530
:104FA000FC01680F791F8FEF91E3E617F70771F0A7
:104FB0002191822728E030E087FF03C0880F8927EE
:104FC00001C0880F21503109B9F7EFCF08959091B2
:104FD000AE0390FF04C09695981740F003C081116E
:104FE00005C090E0961710F40C949C2D61E00C9491
:104FF000532D882311F0FA0101C0FB010994ECE65E
:10500000F3E0118282818460828308956091AE030F
:10501000669570E04BE050E08FE591E00E94AB3088
:10502000892B19F481E080936D030E942B189093D3
:1050300067038093660380916E03846080936E03A0
:1050400008959C013A9521153F4130F5BC01662732
:105050007270AC01442754709C012227387094FF71
:105060000FC090FF02C080E101C080E0672B09F013
:105070008062452B09F08064232B79F080680895C5
:10508000892F8170672B09F08260452B09F08460BD
:10509000232B19F08860089580E00895FC01808139
:1050A000813041F48185811119C082858823B1F056
:1050B00083E00895823041F48185811111C0828599
:1050C000811110C084E00895833071F481858111CD
:1050D0000DC08285882351F088E0089582E008950C
:1050E00086E0089585E0089581E0089587E00895B9
:1050F00080910F02833071F020F4823099F488E2BD
:105100000FC0853049F0883069F480EE0E94D810D5
:1051100082EE06C080EE04C080EE0E94D81081EEC0
:105120000E94D81010920F0208950E944E2880937A
:105130000F02833059F018F4823031F00895853031
:1051400039F0883051F0089588E20BC080EE09C034
:1051500080EE0E94511181EE04C080EE0E94511138
:1051600082EE0C94511180910D028430A1F040F434
:10517000823089F0833091F481E00E9432100EC0B9
:10518000853019F0863039F009C081E00E94321074
:1051900082EE0E94D8108CE20E94D81010920D026C
:1051A00008950E944E2880930D02843089F028F4DF
:1051B000823089F0833049F00895853019F08630C7
:1051C00039F0089582EE0E94511181E00C94741020
:1051D0008CE20E94D3118CE20C9451111F93CF9357
:1051E000DF93CDB7DEB767970FB6F894DEBF0FBE7B
:1051F000CDBF4B8B5C8B6D8B7E8B8F8B6111109237
:10520000B80386E09E01235F3F4FD901E82F1D922E
:10521000EA95E9F795E0FE017396D90101900D92A8
:105220009A95E1F79C894E895F897B897D879E8766
:105230006F87598B488BF901DE01179601900D920B
:105240008A95E1F7CE0107960E940B0E81113EC0B0
:1052500086E0FE013796DE01119601900D928A9547
:10526000E1F7FF81E8856A857B856115710531F07D
:10527000EF3F31F481E0FF3F19F403C081E001C04A
:1052800080E080FD23C02091970230E0C9010196A3
:10529000877099274091C80250E08417950779F1EB
:1052A000F983EA837D836C8396E0929FD001939F7C
:1052B000B00D1124A856BD4FFE01319601900D92FC
:1052C0009A95E1F7809397020E94F10C16E0809185
:1052D000C802909197028917F9F0189FC001112414
:1052E00088569D4F0E940B0E8823B1F08091C80212
:1052F00090E00196877099278093C802E8CF0E94BA
:10530000A310109297021092C802E1E9F2E086E041
:10531000DF011D928A95E9F767960FB6F894DEBF14
:105320000FBECDBFDF91CF911F910895DF92EF9215
:10533000FF920F931F93CF93DF93E82FF0E0E25299
:10534000FA4FD490282F26952695269530E0F9011E
:10535000E253FA4F0491877010E0082E02C01595B1
:1053600007950A94E2F701701127F901E254FA4F08
:10537000E490F12C082E02C0F594E7940A94E2F729
:1053800091E0E922FF24F901E255FA4FC491D0E0FF
:1053900002C0D595C7958A95E2F7C170DD27011542
:1053A000110519F081EE0E945111E114F10419F078
:1053B00086EE0E9451118D2D0E94D311EF2819F015
:1053C00086EE0E94D810012B19F081EE0E94D810B1
:1053D000CD2B51F08CE2DF91CF911F910F91FF9077
:1053E000EF90DF900C94D311DF91CF911F910F912B
:1053F000FF90EF90DF900895FF920F931F93CF934C
:10540000DF938C018AE0F82EF8018491882309F457
:105410004CC0813009F042C0E8012196FE01849120
:10542000813031F42196FE0184910E94D31139C05C
:10543000823039F4E8012296FE0184910E945111D4
:1054400030C0833039F4E8012296FE0184910E9435
:10545000D81027C0843029F5E8012296FE01249156
:1054600080E090E030E0205331092A30310560F4CB
:10547000F89EA001F99E500D1124C901840F951FBB
:105480002196FE012491EECF009759F0EFE9FFE05D
:105490003197F1F700C000000197F6CF0E949629DE
:1054A000E8018E010F5F1F4FAFCFDF91CF911F91AA
:1054B0000F91FF900895CF93DF93EC010E94D810D5
:1054C000CE01805E9109089710F0209739F4CE0143
:1054D0000E942128DF91CF910C94C710CE010E9429
:1054E0002128DF91CF910C94B210CF93DF93EC0180
:1054F000805E9109089710F0209731F4CE010E9448
:1055000021280E94CE1005C0CE010E9421280E94B1
:10551000BD108C2FDF91CF910C945111CF93C62FDA
:10552000409116035091170360911803709119036D
:10553000811119C0411551056105710531F076954C
:1055400067955795479540FD08C0CC2311F089EA2F
:1055500001C08AEA0E94D31138C0CC2311F08DEB30
:10556000F9CF8EEBF7CF411551056105710531F08B
:10557000769567955795479540FD06C0CC2311F069
:105580008EE4E8CF8BE4E6CF80915203811106C010
:1055900081E08093520380EE0E9451110E94DB173C
:1055A0009093510380935003CC2339F08BE290E029
:1055B0000E94752A8BE290E006C08BE292E00E9486
:1055C000752A8BE292E00E945B2A80E0CF910895D9
:1055D00030916E018091AE0380FF16C0E0916D01A5
:1055E00063E0E69FF0011124EE58FC4F539A8BB113
:1055F000877F9BB198602FB7F894AF0163E0369F27
:10560000400D511D112414C080916F0190917001C3
:10561000891720F7E82FF0E0AF01440F551FE40F82
:10562000F51FEE58FC4F1182108212828F5FF0CF6F
:10563000E417F50789F0319168E09BB9000000C0DC
:1056400037FF8BB9330F000000C000C000C08BB91A
:1056500000C06A9591F7ECCF2FBF8FE594E00197DA
:10566000F1F700C0000008959091AE0390FF16C0BE
:1056700090916F0120917001921770F4E92FF0E082
:10568000DF01AA0FBB1FEA0FFB1FEE58FC4F8183FF
:10569000608342839F5FF0CF0C94E82A0895809145
:1056A000AE03282F269530E02115310519F48170BD
:1056B000826005C02532310524F0817088648093B2
:1056C000AE038091B103873918F086E98093B10366
:1056D0000895CF92DF92EF92FF926B017C010E94BE
:1056E0004F2BB701A60188E090E0FF90EF90DF908C
:1056F000CF900C94EE2F8091B203882319F0815043
:105700008093B2036091AE037091AF038091B003B8
:105710009091B1030C94692B8091B203833018F4FB
:105720008F5F8093B2036091AE037091AF0380915D
:10573000B0039091B1030C94692BEEEAF3E083E09F
:10574000808311828FEF828386E983831482ACE6A3
:10575000B3E012968C911297836012968C936081BD
:105760007181828193810C94692BAF92BF92CF9209
:10577000DF92EF92FF920F931F93CF93DF93E82E68
:10578000F62EE901E42FF0E0611106C0E25AF94F6C
:10579000E4914E2F2E2F71C0062F10E0E25AF94FE0
:1057A0004491F42FC42ED12C26E0829FC0011124F5
:1057B0002FEF30E0B9010E941E305BEA5603C001B2
:1057C000579F900D11248E0D911D8E0D911D582FF8
:1057D000550F580FD901A01BB10BAC9DC001AD9D59
:1057E000900DBC9D900D1124E92FF59ED001112440
:1057F000AB2FBB277901EA1AFB0AEC9CD001ED9C88
:10580000B00DFC9CB00D11245901A51AB108A09E41
:105810007001A19EF00CB09EF00C1124EF2CFF241F
:105820002E193F092C9D80012D9D100D3C9D100DC2
:105830001124212F6230710591F048F46115710532
:10584000E1F061307105B9F4242F4B2F16C064309C
:10585000710569F040F06630710579F00CC0242FB5
:10586000492FE12F0AC0492FEF2F2B2F06C0292FD8
:10587000E42F412F02C0292FEB2F49832883EA838D
:10588000DF91CF911F910F91FF90EF90DF90CF901C
:10589000BF90AF900895CF93DF9300D01F92CDB704
:1058A000DEB79091AE0390FF0DC0473908F046E98E
:1058B0009E012F5F3F4F0E94B52B4B8169818A81EA
:1058C0000E94342B0F900F900F90DF91CF9108958D
:1058D000AF92BF92CF92DF92EF92FF920F931F93FE
:1058E000CF93DF9300D01F92CDB7DEB7082FF62EEF
:1058F000142FE22E9091AE0390FF85C0E92FE6951C
:10590000AE2FB0E0AE5CBD4F8C9180936C039E7F58
:10591000923081F4473908F046E99E012F5F3F4FEE
:105920006F2D802F0E94B52B4B8169818A810E9447
:10593000342B46C0823019F41091B10341C0863037
:1059400019F40091AF033CC08930D9F38931C1F516
:10595000E9518E2F8170D82EE695F0E0E25AF84F8B
:10596000A590B490C12CBB2460917101C61630F58E
:105970002C2D30E0A29EC001A39E900DB29E900DF2
:10598000112470E00E941E30802FD11002C0860FBB
:1059900001C0861B90916F01290F311DA901440F91
:1059A000551F240F351F2E583C4F412F173908F033
:1059B00046E96F2D0E94B52BC394D6CF0E94E82AEA
:1059C0008091AF03081308C08091B003F81204C09F
:1059D0008091B103181729F080916E038260809343
:1059E0006E030093AF03F092B0031093B103EE2067
:1059F00051F06091AE037091AF038091B00390912C
:105A0000B1030E94692B0F900F900F90DF91CF91FF
:105A10001F910F91FF90EF90DF90CF90BF90AF90CC
:105A20000895EEEAF3E0438128E0421B08F440E0E9
:105A300021E0628181810C94682CEEEAF3E04381DD
:105A400028E0420F08F44FEF21E0628181810C943D
:105A5000682CEEEAF3E0628128E0621B08F460E063
:105A600021E0438181810C94682CEEEAF3E06281AD
:105A700028E0620F08F46FEF21E0438181810C94EC
:105A8000682CEEEAF3E0818121E043816281885055
:105A90000C94682CEEEAF3E0818121E0438162817D
:105AA000885F0C94682C9091AE0390FF3BC091707E
:105AB000811102C0926006C0853210F0986402C065
:105AC000880F982B9093AE0380916E038160809332
:105AD0006E03662351F06091AE037091AF03809125
