:100000000C947A090C94C1090C94C1090C9416350E
:100010000C94C1090C94C1090C94C1090C94C10938
:100020000C94C1090C94C1090C94CF250C940B2598
:100030000C9478280C94C1090C94C1090C94C10942
:100040000C94C1090C94C1090C94C1090C94C10908
:100050000C94C1090C940F280C94C1090C94C1098B
:100060000C94C1090C94C1090C94C1090C94C109E8
:100070000C94C1090C94C1090C94C1090C94C109D8
:100080000C94C1090C94C1090C94C1090C94C109C8
:100090000C94C1090C94C1090C94C1090C94C109B8
:1000A0000C94C1090C94C1090C94C109370A350B91
:1000B000DD0A540A790A890AA30ABB0ACF0AEF0AA1
:1000C000180B040B6B0D6B0DA50DA50DE50D8C0F1D
:1000D0008C0F8C0F010EDF0EF00EF00E370A470B5F
:1000E000DD0A540A790A890AA30ABB0ACF0AEF0A71
:1000F000180B040B471E471E5A1E5A1E501E5A1E2E
:100100005A1E5A1E471E471E551E5A1E5A1E551E5F
:1001100026234D23E3244D23E3249523B823E3240E
:10012000A724BA2400DA1281FFD9F1DB20A4A62E7D
:10013000AF00A0C000A1C800AED580A83FD300404A
:100140008D142000643214726D65720A0A2B3439E2
:1001500020313733203234203138203531350A6DA3
:1001600061696C4073746F65726D65722D636F6E3B
:1001700073756C74696E672E64650A7777772E7372
:10018000746F65726D65722D636F6E73756C7469D3
:100190006E672E64650A0A00726D65722D636F6E5C
:1001A00073756C74696E670A44722E2050657465AD
:1001B00072205374000A0A2D2D0A0A737400726D9E
:1001C00065720A0A00650A506574657220537400EE
:1001D000467265756E646C6963686520477200726B
:1001E0006D65720A0A00650A506574657220537461
:1001F000006E652047720053636800650A5065749D
:1002000065720A0A006E6520477200536368002D0C
:100210002D3E2000000000000500130009001A0018
:10022000140002540000000007001700160015001B
:100230000400635D000014590A00190006001B0049
:100240001D00E3002B612C41E2002900A800000002
:1002500000000000000000000D000F0018001C004E
:100260006A5D6B5D000000001000110008000C00CA
:100270000B006C5D280200000E00120037003600F3
:10028000695D295D28612A72E4006D5D2C00000023
:100290000000000000000000665D2400250026002C
:1002A0000100010000000000675D1E001F0020002B
:1002B0002700640001000100685D21002200230086
:1002C0000100010001000100010001000100000027
:1002D00000000000000000001F024A0052004D0014
:1002E0000000655D000000003202500051004F0028
:1002F00000006E5D01004C002D02380030001E022F
:100300002D14010001004C0001000100010000005B
:1003100000000000000000004300400041004200D7
:10032000010001000000000044003A003B003C00D6
:10033000010001000100010045003D003E003F00BA
:1003400001000100010001000100010001000000A6
:100350000000000000000000010001000100010099
:100360000100010000000000010001000100010087
:100370000100010001000100010001000100010075
:100380000100010001000100010001000100000066
:100390000000000005010980A101850319012AB7A9
:1003A00000150126B700950175108100C0050C09E4
:1003B00001A101850419012AA002150126A00295B8
:1003C0000175108100C005010906A101050719E0AA
:1003D00029E7150025019508750181029501750829
:1003E00081010507190029FF150026FF00950675F4
:1003F00008810005081901290595057501910295E7
:100400000175039101C009023B00020100A0FA0935
:100410000400000103010100092111010001224033
:10042000000705810308000A090401000103000018
:10043000000921110100012232000705820320007A
:100440000A12010002000000081D8D9D9D0100019F
:100450000200010C034B007900720069006100008A
:10046000001003730070006C00690074004B0042C0
:100470000000000403090400010209080704030541
:10048000060001020908070403050607087F08079C
:10049000003E5B4F5B3E003E6B4F6B3E001C3E7C64
:1004A0003E1C00183C7E3C18001C577D571C001C4D
:1004B0005E7F5E1C0000183C180000FFE7C3E7FFEA
:1004C00000001824180000FFE7DBE7FF0030483A7F
:1004D000060E00262979292600407F0505070040E1
:1004E0007F05253F005A3CE73C5A007F3E1C1C0814
:1004F00000081C1C3E7F0014227F2214005F5F0056
:100500005F5F0006097F017F00006689956A0060D1
:10051000606060600094A2FFA2940008047E04085A
:100520000010207E20100008082A1C0800081C2A41
:100530000808001E10101010000C1E0C1E0C0030BD
:10054000383E383000060E3E0E0600000000000067
:100550000000005F000000000700070000147F1487
:100560007F1400242A7F2A120023130864620036B5
:100570004956205000000807030000001C224100DB
:10058000000041221C00002A1C7F1C2A0008083E93
:100590000808000080703000000808080808000003
:1005A00000606000002010080402003E5149453EF2
:1005B0000000427F400000724949494600214149FC
:1005C0004D33001814127F10002745454539003C73
:1005D0004A49493100412111090700364949493644
:1005E00000464949291E0000001400000000403464
:1005F0000000000008142241001414141414000018
:1006000041221408000201590906003E415D594E7D
:10061000007C1211127C007F49494936003E41415D
:100620004122007F4141413E007F49494941007FCD
:1006300009090901003E41415173007F0808087F04
:100640000000417F4100002040413F01007F08142D
:100650002241007F40404040007F021C027F007F1B
:100660000408107F003E4141413E007F0909090610
:10067000003E4151215E007F091929460026494963
:1006800049320003017F0103003F4040403F001F0B
:100690002040201F003F4038403F0063140814638F
:1006A000000304780403006159494D4300007F4171
:1006B000414100020408102000004141417F000434
:1006C00002010204004040404040000003070800CF
:1006D000002054547840007F284444380038444473
:1006E000442800384444287F0038545454180000EB
:1006F000087E09020018A4A49C78007F08040478EE
:100700000000447D4000002040403D00007F102854
:1007100044000000417F4000007C04780478007CA5
:100720000804047800384444443800FC1824241891
:100730000018242418FC007C0804040800485454C1
:1007400054240004043F4424003C4040207C001C0E
:100750002040201C003C4030403C004428102844ED
:10076000004C9090907C004464544C440000083647
:100770004100000000770000000041360800000240
:1007800001020402003C2623263C00000000000079
:1007900000404040F0F8F8FF38FFF8F83FF8F8FF65
:1007A00038FFF8F8F040404000000000000080C032
:1007B000C0C0800000C0C08000000080C0C000C079
:1007C000C0000080C0C00000000000C0C0C0C0C0A9
:1007D00000C0C00000000000000000000000000099
:1007E0000000000000000000000000000000000009
:1007F00000000000000000000000000000000000F9
:1008000000000000000000000000C0F0F8FC3E1EE8
:1008100006010000007F4141417F007F4141417F4F
:10082000000080C0E07E5B4F5BFEC00000C000DCCB
:10083000D7DEDEDED7DC00C00000000000000000D4
:1008400000000000000000000000000000000000A8
:1008500000494949FFFFFFFFE0DFBFBF00BFBFDF27
:10086000E0FFFFFFFF49494900000000001F3F6013
:1008700060E0BF1F007F7F071E381E077F7F007F5D
:100880007F0E1F3B716000000000007F7F0C0C0C8E
:10089000007E7E007F7E0303007F7E03037E7E0357
:1008A000037F7E000F3E703C063C703E0F00327BA3
:1008B00049493F7E007F7E0303001E3F69696F2622
:1008C00000000000000000000000030F1F3F3C7804
:1008D00070600000007F4141417F007F4141417FC6
:1008E00000307B7F7830202030787F3B0003000F82
:1008F0007F0F0F0F7F0F00030000000000000000BB
:1009000000000000000000000000000000000000E7
:1009100000010101070F0F7F0F7F0F0F7E0F0F7F69
:100920000F7F0F0F07010101000000000000000011
:1009300000000101000000000000000000000000B5
:1009400000000000000000000000000000000000A7
:100950000000000000000000000000000000000097
:100960000000000000000000000000000000000087
:100970000000000000000000000000000000000077
:100980000000000000000000000000000000000067
:100990000000000000000000000000000000000057
:1009A0000000000000000000000000000000000047
:1009B0000000000000000000000000000000000037
:1009C000000000000000000000000000AF00AE00CA
:1009D000007E7E183C6642000C1C70701C0C00747B
:1009E0007414147C68007C7C0070782C247C7C005F
:1009F00000000000000000000000000000000000F7
:100A00000000000000000000008040402020202066
:100A10001010101010080804040408304080000072
:100A200000000000000000000000000000000000C6
:100A300000000000000000000000000000000000B6
:100A40000000000000000000000000008080800026
:100A5000000000C06030180C84C66223331191710D
:100A6000F1719111332362C6840C183060C000000C
:100A70000000000000000000000000000000000076
:100A8000186482020202020201000000008080005D
:100A900000000000000000008000303000C0C1C134
:100AA000C204081020408000000080808080404008
:100AB000404020202020101010100808080808C40A
:100AC00004C404C402C202C201010101000000000A
:100AD00000FC0F0100F80E1F6D8C9494A4A6F9E0A1
:100AE000FFE0F9A6A494948C6D1F0EF800010FFC92
:100AF000000000000000000000000000000000C036
:100B0000380403000000000000000C0C0C0D010074
:100B100040A0212212111111090808080804040834
:100B2000081010101010110F01010000000000004B
:100B3000000000000000000000000000AAAAFFFF63
:100B4000C3BF7F037FBFC3FFFFAAAA00000000004E
:100B5000001F78C0000F387CDB9814141232CF03CA
:100B6000FF03CF3212141498DB7C380F00C0781FBB
:100B700010101010080808080804040404040203F4
:100B8000020201010101010102020404080808082F
:100B90000807000000000000000000000000000046
:100BA0000000000000000000000000000000000045
:100BB0000000000000000000000000000282871F0B
:100BC000079F071C079F079F070282000000002065
:100BD000101010110B0E0C1810312362664444479C
:100BE000474744446662233110180C060301000095
:100BF00000000000000000000000000000000000F5
:100C000000000000000000000000000000000000E4
:100C100000000000000000000000000000000000D4
:100C200000000000000000000000000000000000C4
:100C30000000000000000000000000000708081786
:100C4000000F0102010F000F02050800007E7E1850
:100C50003C6642000C1C70701C0C00747414147CF4
:100C600068007C7C0070782C247C7C0000000000F4
:100C70000000000000000000000000000000808074
:100C800000000000008040402020202010101010A4
:100C90000804020101020C30408000000000000046
:100CA00000F8F8F8F8000000000080800000000064
:100CB0000000000000000000000000000000000034
:100CC000000000000000000080808000000000C0E4
:100CD0006030180C84C6622333119171F171911147
:100CE000332362C6840C183060C00000000000008E
:100CF0000000000000000000000000001EE10000F5
:100D0000010102028180800000808000000000005C
:100D100000000000800030300000010102040810D3
:100D2000204387070100B8BCBE9F5F5F4F4C202067
:100D30002020101010100808080808C404C404C4B7
:100D400002C202C2010101010000000000FC0F010B
:100D500000F80E1F6D8C9494A4A6F9E0FFE0F9A6AC
:100D6000A494948C6D1F0EF800010FFC000000008D
:100D7000000000000000000000000080700C030074
:100D800000180605989984437C4141404020212267
:100D9000121111110908080808040408081010109D
:100DA0001010110F013D7CFCFCFCFCFC3C0C000015
:100DB0000000000000000000AAAAFFFFC3BF7F03DD
:100DC0007FBFC3FFFFAAAA0000000000001F78C079
:100DD000000F387CDB9814141232CF03FF03CF329C
:100DE00012141498DB7C380F00C0783F10101010DC
:100DF00008080808080404040404020302020101AC
:100E000001010101000000000000000000000000DE
:100E100000000000000000000000000000000000D2
:100E200000000000000000000103030000000000BB
:100E300000000000000000000282871F079F071CBF
:100E4000079F079F0702820000000020101010116A
:100E50000B0E0C1810312362664444474747444444
:100E60006662233110180C06030100000000000028
:100E70000000000000000000000000000000000072
:100E80000000000000000000000000000000000062
:100E90000000000000000000000000000000000052
:100EA0000000000000000000000000000000000042
:100EB000000000000000000007080817000F0102F2
:100EC000010F000F02050800007E7E183C664200FC
:100ED0000C1C70701C0C00747414147C68007C7CF6
:100EE0000070782C247C7C000000000000000000D2
:100EF00000000000000000000000808000000000F2
:100F00000080404020202020101010100804020112
:100F100001020C30408000000000000000000000D2
:100F200000000000000000000000000000000000C1
:100F300000000000000000000000000000000000B1
:100F40000000000080808000000000C06030180CAD
:100F500084C6622333119171F1719111332362C6FA
:100F6000840C183060C00000000000000000000089
:100F700000000000000000001EE10000010102026C
:100F80000100000000808000000000000000000060
:100F900080003030000001E11A06093135018A7CF9
:100FA00000008080808040404040202020201010A1
:100FB00010100808080808C404C404C402C202C20D
:100FC000010101010000000000FC0F0100F80E1FEC
:100FD0006D8C9494A4A6F9E0FFE0F9A6A494948CF7
:100FE0006D1F0EF800010FFC000000000000000063
:100FF0000000000000000080700C030000000000F2
:10100000000000000001010040A021221211111176
:101010000908080808040404040404020202010187
:1010200001010000000000000000000000000000BE
:1010300000000000AAAAFFFFC3BF7F037FBFC3FF5A
:10104000FFAAAA0000000000001F78C0000F387C33
:10105000DB9814141232CF03FF03CF32121414980A
:10106000DB7C380F00C0781F10101010080808082B
:1010700008040404040402037A7A7979797939310D
:101080000202040408080888888780000000000025
:101090000000000000000000000000000000000050
:1010A0000000000000000000000000000000000040
:1010B000000000000282871F079F071C079F079FF1
:1010C0000702820000000020101010110B0E0C18F7
:1010D00010312362664444474747444466622331E3
:1010E00010180C06030100000000000000000000C2
:1010F00000000000000000000000000030787CFECE
:10110000FF3F0700000000FFFF7F7F3F3E1C1800ED
:1011100000000000000000000000000000000000CF
:1011200000000000000000000000000000000000BF
:101130000000000007080817000F0102010F000F50
:101140000205080000000000000000000000000090
:101150000000000000000000000000010000380056
:1011600000007800000000F68700ECFEFFFF87011A
:1011700000000000000000000000002A2B280000F2
:101180000000000000000000000000000000290036
:101190000000002C1E1F322122233225263030363B
:1011A000383724271E1F2021222324252637366482
:1011B00027642D140405060708090A0B0C0D0E0FF1
:1011C000101112131415161718191A1B1D1C252D92
:1011D0002635382E0405060708090A0B0C0D0E0FDC
:1011E000101112131415161718191A1B1D1C24643C
:1011F00027304C000101010101010101010202023D
:1012000002020202020203030303030303030404B2
:10121000040404040405050505050606060606077C
:101220000707070708080808090909090A0A0A0B35
:101230000B0B0C0C0C0D0D0D0E0E0E0F0F0F1010D6
:10124000111111121213131414151516161717185D
:101250001819191A1A1B1B1C1D1D1E1E1F202021C8
:101260002222232424252626272829292A2B2C2D0F
:101270002D2E2F30313232333435363738393A3B30
:101280003C3D3E3F404142434445464748494A4C25
:101290004D4E4F50515354555658595A5B5D5E5FF1
:1012A000616264656668696B6C6D6F707273757787
:1012B000787A7B7D7E8082838587888A8C8E8F91E9
:1012C000939596989A9C9EA0A2A3A5A7A9ABADAF13
:1012D000B1B3B5B7BABCBEC0C2C4C6C9CBCDCFD1FD
:1012E000D4D6D8DBDDDFE2E4E7E9EBEEF0F3F5F8A6
:1012F000FAFDFF0011241FBECFEFDAE0DEBFCDBF45
:1013000004B603FE27C08091010890910208A091C5
:101310000308B09104088730904BA740B04BD1F43C
:10132000109201081092020810920308109204080B
:1013300014BE84B7877F84BF0FB6F894A8958091B8
:101340006000886180936000109260000FBEE0E052
:10135000F8E3099512E0A0E0B1E0EAE8FEE602C099
:1013600005900D92A632B107D9F728E0A6E2B2E0C7
:1013700001C01D92A130B207E1F70E9405100C9444
:1013800043370C9400008F929F92AF92BF92CF92FE
:10139000DF92EF92FF920F931F93CF93DF93CDB71E
:1013A000DEB72A970FB6F894DEBF0FBECDBFFC01A3
:1013B000D080118183819481892B39F01F3F39F4CA
:1013C00091E00FEFD01203C003C091E001C090E0A4
:1013D00090FD08C67F0185E0DE01169601900D9212
:1013E0008A95E1F7D70112962C918E819F81222355
:1013F00049F00E94BA1D082F682F8E819F810E949C
:101400002B2003C00E94FF1F082FE12FF0E0B8E05F
:101410000B9FE00DF11D1124A3E0EE0FFF1FAA9515
:10142000E1F7ED0DF11DEE0FFF1FEC5EFD4F059195
:1014300014915801F7018281980123563D456901B5
:10144000882309F4C6C50E9460286093280270931F
:10145000290280932A0290932B023CE0C316D10408
:1014600008F003C1F601EA5AFF4F0C941A37D7016E
:1014700012968C91882389F08091340385FD05C0F4
:1014800086EE0E94C83284E11BC085EE0E940021D6
:1014900086EE0E94C83284E61EC084E10E940021CC
:1014A00084E60E94002177C5F70182818823E1F05C
:1014B0008091340385FD08C086EE0E94C83284E224
:1014C0000E94C83286EEEDCF85EE0E94002186EEA6
:1014D0000E94C83287E20E94C83286EE0E94002134
:1014E00085EE0E94C83257C584E20E94002187E23F
:1014F000D8CFD70112968C91882379F0809134034C
:1015000085FD05C085EE0E94C83285E29EC086E258
:10151000E8CFF7018281811105C085E20E94002198
:1015200086E2BFCF8091340385FD05C086EE0E9420
:10153000C83285E2C5CF85EE0E94002186EE0E946A
:10154000C83286E2C8CFD70112968C91882389F0E1
:101550008091340385FD05C085EE0E94C83284E287
:1015600074C085EE0E94002186EE0E94C83280E39E
:10157000B2CF84E245C0F7018281882359F080917F
:10158000340385FD05C085EE0E94C83283E25DC04C
:1015900082E2A7CF83E20E94002182E282CFD701BC
:1015A00012968C918823B1F08091340385FD0DC093
:1015B00085E30E945C2185E394CFF7018281882333
:1015C00061F08091340385FDE6C48EE20E945C21C7
:1015D0008EE287CF85E30E9400218EE262CFD701A1
:1015E00012968C91882359F08091340385FD05C0B3
:1015F00085EE0E94C83287E228C080E372CF87E27E
:101600000E94002180E34DCFF7018281882359F0A9
:101610008091340385FD05C085EE0E94C83281E2C9
:1016200014C080E25ECF81E20E94002180E239CFC7
:10163000D70112968C91882399F08091340385FD0F
:1016400008C085EE0E94C83288E30E94C83285EE49
:1016500028CF85EE0E94002182E30E94C83240CF4D
:1016600088E30E94002182E31CCFD70112968C915F
:10167000882369F0C801825E9C45059740F46EE1BD
:10168000600F609330028CE090E00E94C63617FF36
:101690007AC0F7018281882309F475C00E94182955
:1016A0008695817080932D0290913002913029F4BB
:1016B000882319F089E30E945C2180913403809390
:1016C0002C021092340380913002813071F048F086
:1016D000823081F08430A1F486EE0E945C2188E1A2
:1016E0000DC082EE0E94C8320BC088E193E00E94D8
:1016F000572D06C082EE0E94C83287E50E945C2109
:101700008FE39CE90197F1F700C000004801E894DD
:1017100097F87CE0C72ED12CC4010C2C02C0969502
:1017200087950A94E2F78F7096EF980F963010F035
:10173000805D01C0895A0E94922C94E0C91AD10898
:10174000ACEFCA16AFEFDA0639F78091300281307C
:1017500039F078F0823069F0843089F488E20DC085
:101760008CE20E945C2180912D02882341F089E364
:1017700004C082EE0E94002102C00E945C21809180
:101780002C0280933403F7018281882309F43FC03F
:101790008091C402882329F1C80190568115F0E296
:1017A0009F0720F0905E8115904110F45801BB24F2
:1017B0008091C302853060F4E82FF0E0EE0FFF1F48
:1017C000E954FD4FB182A0828F5F8093C30202C0B3
:1017D0001092C4020E946C289093C2028093C102AE
:1017E000DAC309323DE5130791F481E08093C40226
:1017F0000E946C289093C2028093C1021092C3028F
:101800008AE0E7EBF2E0DF011D928A95E9F7F70144
:1018100082818111ADC08091340382720B3CBCE5A2
:101820001B0709F494C030F5063CFCE51F0709F4DA
:101830007AC058F4043C3CE5130709F46AC008F088
:101840006DC0033C1C45D9F1EBC0083CBCE51B074F
:1018500009F473C008F46CC0093CFCE51F0709F4E7
:1018600071C00A3C1C4509F0DBC041E651E36DE65E
:1018700071E376C0013D3CE5130788F40F3C9CE51D
:10188000190708F088C30D3CACE51A0709F464C0D9
:1018900008F069C048E057E269E177E261C0073DBE
:1018A000ECE51E0738F4023D1C4508F074C30E94A5
:1018B000DC2171C30E351D4509F46DC3B1C08091A3
:1018C0004B0380FF20C08E7F80934B0360914B03BE
:1018D00070914C0380914D0390914E030E94B6315C
:1018E0000E94652A80915D07816080935D073FEFCC
:1018F00080E792E0315080409040E1F700C0000066
:101900000E94872A48C3816080934B0361E08695DB
:101910002CC045EB52E36EEB72E322C04EEB52E378
:1019200065EB72E31DC041E951E36AE971E318C058
:101930004AE951E361E971E313C049E751E365E81E
:1019400071E30EC045E851E369E771E309C04DE674
:1019500051E361E671E304C049E157E268E077E2F0
:101960000E945F2A18C361E081E00E94753213C3B0
:101970000B35ADE51A0709F44EC058F40115ECE536
:101980001E07C1F00F3D1C4509F04AC00E94741C9F
:1019900002C30C352DE5120709F43FC00D351D4576
:1019A00009F03EC080912F0282FB882780F991E0E8
:1019B000892734C0109234030E94CD208FEF94E326
:1019C000ACE081509040A040E1F700C0000081E011
:1019D0008093E00080E28093D8001092C900EFE18C
:1019E000FEE43197F1F700C0000087E090EBDC01E6
:1019F0008093010890930208A0930308B093040811
:101A00009CE088E10FB6F894A895809360000FBE23
:101A100090936000FFCF81E001C080E00E942A1D0A
:101A2000D70112968C9112970C9111961C918823D4
:101A300049F0C8010E94BA1DD82E682FC8010E9423
:101A40002B2004C0C8010E94FF1FD82EE12FF0E018
:101A5000B8E0DB9EE00DF11D112433E0EE0FFF1F17
:101A60003A95E1F7E00FF11DEE0FFF1FEC5EFD4F21
:101A7000859194910E940D168C01982EF701C280D9
:101A8000B580B2945FE0B52280913103877099F000
:101A9000CC2089F0812F807F803421F080E2800F7C
:101AA000883048F082E00E94852080913103877061
:101AB000DD24D3948111D12CA12EA2942FE0A22257
:101AC0008A2D90E08C30910508F026C2FC01EE5979
:101AD000FF4F0C941A37812F807F1F70882311F0DD
:101AE0001295107FCC20B9F0112309F400C280E2D6
:101AF000800F883010F0911006C080913403182BAD
:101B00001093340305C08091F307182B1093F3074B
:101B10000E94EF1CECC1802F0E940021112309F4C8
:101B2000FBC1005E1095083010F0911006C0809146
:101B3000340318231093340305C08091F30718234E
:101B40001093F3070E94EF1CE7C1812F807F1F7065
:101B5000803211F01295107F802F992021F0F1E052
:101B60009F16C9F027C0CC2069F080916002B110A7
:101B700002C0812B17C001E0812BB01213C00E945C
:101B8000E51CCAC1BB2021F021E0B21609F4C4C192
:101B90000E94DF1C16C0CC2041F035E03B1508F454
:101BA000BBC1812F0E94F620B7C184E08B1508F4D9
:101BB000B3C107C0CC2019F0BB2099F398C1B11074
:101BC0009DC1812F0E94EB20A7C1812F869586950C
:101BD000837019F0813059F09FC1CC2019F0C801F1
:101BE000937002C080E090E00E9402299BC1CC204B
:101BF00019F0C801937002C080E090E00E94EC28C8
:101C000091C1812F837009F069C0C11089C1902FE3
:101C1000929596959770990F990F802F8F70882EB7
:101C2000912CA12CB12C092E04C0880C991CAA1C43
:101C3000BB1C0A94D2F704FF12C04FE050E060E0F2
:101C400070E004C0440F551F661F771F9A95D2F7A6
:101C5000DB01CA0180959095A095B09503C080E006
:101C600090E0DC0116951695412F4370423019F132
:101C7000C8F4009158021091590220915A023091F3
:101C80005B02413059F088299929AA29BB29BC0156
:101C9000CD0160237123822393230AC0802A912AD5
:101CA000A22AB32ABC01CD01682979298A299B2956
:101CB0000E94C32035C188299929AA29BB290091EE
:101CC00058021091590220915A0230915B02BC01D6
:101CD000CD016027712782279327EACFCC2019F006
:101CE000812F817001C08695882309F419C1902F36
:101CF000929596959770990F990F802F8F70882ED7
:101D0000912CA12CB12C092E04C0880C991CAA1C62
:101D1000BB1C0A94D2F704FF12C04FE050E060E011
:101D200070E004C0440F551F661F771F9A95D2F7C5
:101D3000DB01CA0180959095A095B09503C080E025
:101D400090E0DC0116951695412F43704230D9F092
:101D500068F500915C0210915D0220915E02309165
:101D60005F02413059F088299929AA29BB29BC0171
:101D7000CD0160237123822393231EC0802A912AE0
:101D8000A22AB32A13C088299929AA29BB2900911C
:101D90005C0210915D0220915E0230915F02BC01F5
:101DA000CD01602771278227932706C0BC01CD0192
:101DB000682979298A299B290E945620B1C01F7061
:101DC000CC2039F0812F0E94A220802F0E94F62083
:101DD000A7C0802F0E94EB20812F0E946020A0C00E
:101DE000802FE2EF9E1609F440C0E91538F0F0EFBD
:101DF0009F1661F021EF921699F174C033EF93169C
:101E0000D9F194EF991609F44EC06CC0CC2019F1A9
:101E1000A4E0AB1508F480C01F7181E090E0A0E061
:101E2000B0E0AC01BD0104C0440F551F661F771F11
:101E30001A95D2F780915C0290915D02A0915E02AA
:101E4000B0915F028A019B01082719272A273B27A7
:101E5000C901B80125C025E02B1508F45DC0DCCF11
:101E6000CC2029F0812F8F7130C0CC20D9F3812F65
:101E70008F710E94602050C0CC2079F01F7181E0EA
:101E800090E0A0E0B0E0BC01CD0104C0660F771F78
:101E9000881F991F1A95D2F703C060E070E0CB014C
:101EA0000E94562039C0CC2099F01F71812F0E94CA
:101EB000A22080912F0282FD07C038E0139FC0014D
:101EC0001124836080933103812F0E94A22024C0BB
:101ED00081E00E94852081E08B15F0F482E00E9471
:101EE00085201AC0CC2039F0BB2009F4BBCF802F4D
:101EF0000E94C83211C0BB2009F4B9CF893349F41C
:101F00009FEFA7EEB3E09150A040B040E1F700C0D2
:101F10000000802F0E94002188EF8A0D843010F489
:101F20000E941829DD20A9F08091310380FD11C0A5
:101F3000F70112828595859585950E94A220C7019B
:101F40000E94C309809131038595859585950E94EE
:101F5000602085E0F701DE01119601900D928A95CF
:101F6000E1F789819A810E94FF1FEA81F0E008E091
:101F7000809FE00DF11D112483E0EE0FFF1F8A9575
:101F8000E1F78981E80FF11DEE0FFF1FEC5EFD4FB9
:101F90008591949127C080913103877019F1D70101
:101FA00012968C918823F1F082E02A960FB6F8946D
:101FB000DEBF0FBECDBFDF91CF911F910F91FF907C
:101FC000EF90DF90CF90BF90AF909F908F900C9448
:101FD00085202C30310508F05ACBF901E259FF4F2A
:101FE0000C941A372A960FB6F894DEBF0FBECDBFF9
:101FF000DF91CF911F910F91FF90EF90DF90CF90E5
:10200000BF90AF909F908F900895CF93DF93CDB7FF
:10201000DEB72C970FB6F894DEBF0FBECDBF84B7E6
:10202000877F84BF0FB6F894A8958091600088617F
:1020300080936000109260000FBE90E080E80FB6C1
:10204000F89480936100909361000FBE85B780681B
:1020500085BF85B7806885BF81EB95E190932702A6
:10206000809326020E944F250E946E258091E200F7
:1020700084608093E2007894809141038823A1F0EA
:102080001091E9001F709091EC00892F817090FDF4
:1020900080E8182B1092E9008091E80083FD0E94EF
:1020A00040221F701093E90082E084BD93E095BD4B
:1020B0009AEF97BD80936E001092AC071092AD0717
:1020C0001092AE071092AF070E943E31809300013C
:1020D00080910001882321F0109216018AE003C04C
:1020E0008AE080931601809317010E943E3181118E
:1020F0000E94D0348091000180910001811102C0C2
:1021000094E001C090E090933D0284E0891B8093AD
:102110003C020FE911E0F3EAEF2EF1E0FF2ED801C7
:102120008D918D018F3F11F00E94F615E016F1069A
:10213000B1F707EA11E0EFEAEE2EE1E0FE2EF8013A
:1021400081918F018F3F11F00E94F615E016F10684
:10215000B1F7E4E3F2E08CE392E0A0E4B2E01192A4
:102160001D928E179F07D9F780E090E00E94C0363D
:10217000893E9E4F11F00E94741C82E090E00E9404
:10218000B2368093A60284E090E00E94B236182F07
:1021900082E290E00E94B236212F30E0382B30935B
:1021A0002F0220932E0283E090E00E94B236682F27
:1021B00070E080E090E00E94C3208CE090E00E94FC
:1021C000B23690E0A0E0B0E080933002909331020C
:1021D000A0933202B09333020E943E31811102C0BB
:1021E0000E94D33482E08093A10280E88093500360
:1021F0000E9464336DE070E087E391E00E94EB2180
:10220000892B09F043C08091A10263E070E081FD59
:102210003AC084E391E00E94EB21892BB9F56DE08F
:1022200070E084E291E00E94EB21892B79F50E9415
:102230006028DC01CB01805A9541AF4FBF4F80939E
:10224000A0079093A107A093A207B093A307E3E58B
:10225000F3E080E094E0DF019C011D9221503040CA
:10226000E1F7F0935407E09353078FEF9FEF9093BC
:1022700052038093510381E08093A5078093A407C4
:102280001092A20203C081E391E0C5CF80913E028B
:1022900081113BC080E090E00E94C036893E9E4F95
:1022A00021F00E94741C0E94C83188E090E00E94D6
:1022B000BA3660934B0370934C0380934D03909315
:1022C0004E0380915D07836080935D076E7F71F49C
:1022D0000E94C83188E090E00E94BA3660934B03B8
:1022E00070934C0380934D0390934E030E94A3314F
:1022F0000E94652A80914B0380FF04C060E08695B0
:102300000E94753281E080933E028091000181112C
:1023100006C085E380930C0186E680930B01209133
:102320000C01E22FE295EF70F0E031A12F7081E017
:1023300090E0AC01022E01C0440F0A94EAF7542F3A
:102340005095352331A332A1432B42A340910B0179
:10235000A42FA295AF70B0E091963C9191974F70E9
:10236000042E01C0880F0A94EAF7982F90959323C2
:1023700091969C93919792969C919297892B929685
:102380008C93929780A190E002C0959587952A95AD
:10239000E2F7817090962C9130E002C03595279538
:1023A0004A95E2F720FD02C090E001C092E0892B3F
:1023B00080934F029091000181E0982790934E0204
:1023C000891B80933F0280914B03816080934B0374
:1023D00060E086950E94753260E082E00E9475326E
:1023E0000E94BE320E94BE320E94BE3281E091E065
:1023F0009093A9078093A80760E4C62E2224239413
:10240000312C80914103853009F046C000E112E192
:1024100080914103853009F039C0809141038430B7
:1024200019F11092B00788E190E00FB6F894A895E2
:10243000809360000FBEC092600083B7817F84608C
:1024400083BF83B7816083BF7894889583B78E7F7D
:1024500083BF0FB6F894A89580916000886180933F
:102460006000109260000FBE80914003882309F441
:10247000CFCF0E949817E0E4F2E08191811159C317
:10248000A8E4B2E0AE17BF07C1F7C2CF1092340381
:102490000E94CD200E9418290E949817B82E811101
:1024A0000E946028E7EAF2E0A0E4B2E000E010E079
:1024B000A02EDD9081918D2549F1E12CFF24F3942C
:1024C0009F2D9823F1F00E943E31882399F0E982F4
:1024D000AA82DF2081E009F480E08B830E946C28CF
:1024E0008160782F9D838C8349815A816B818D8196
:1024F0000E94E82BF801E955FD4F8081F826F08213
:102500001AC0E394FF0C28E0E212DACF0F5F1F4FEE
:102510000830110569F68FEF8E838F8318860E942D
:102520006C288160782F9A8789874E815F816885C2
:102530008A850E94E82B80915C07882309F46BC090
:1025400080915B07E0914B03E695E81BE09357070A
:10255000823061F4E695F0E0EC5BFE4FE4910E2FE3
:1025600010E05EE0E52E5BE2F52E06C000ED17E020
:1025700044EAE42E46E2F42E80915807882361F065
:10258000109258070E94BC289093560780935507D5
:1025900010925A07109259070E94BC28E0915507E3
:1025A000F09156079C012E1B3F0B2F3F3F4798F59C
:1025B00020914A022223B1F010924A02209148024F
:1025C00030914902821B930B8F3F9F4758F4205D47
:1025D0003A48309349022093480280915D07886011
:1025E00080935D078090590790905A070E0F1F1F28
:1025F000109356070093550785E597E0F701099575
:102600008091590790915A07892B29F4892819F04C
:1026100081E080934A02E0914F025E2F550F550FE3
:1026200020910C01E22FE295EF70F0E080A190E0A4
:102630002F7002C0959587952A95E2F781709927AA
:1026400040910B01E42FE295EF70F0E020A130E023
:102650004F7002C0359527954A95E2F7F901E17070
:10266000FF2720FF02C0E2E0F0E0E82BF92BE52B8A
:10267000E0934F0210914E02EF70F0E0E155FE4FF3
:10268000908180914D02890F80934D02843074F0C7
:10269000E12FF0E0E55BFD4F80818F5F808360E09C
:1026A000812F0E94CE2DDD24D39401C0D12C8091A6
:1026B0004D028D3F6CF4E12FF0E0E55BFD4F808132
:1026C0008150808361E0812F0E94CE2DDD24D39440
:1026D00080914D02082E000C990B64E070E00E947E
:1026E000063780934D02D1100E9496178091A5075E
:1026F000882309F40DC28091A3029091A4020E9444
:102700005128C29708F403C10E946C289093A40238
:102710008093A30280E00E94CA210E943E31882358
:1027200009F457C00E94892D882331F16091540229
:102730007091550280915602909157020E9435285F
:10274000693C71058105910560F00E9460286093E5
:1027500054027093550280935602909357020E9440
:102760009C2D0E94602860935002709351028093C8
:10277000520290935302CBC060915002709151026B
:1027800080915202909153020E94352861367A4E10
:102790008105910508F0BBC060915402709155020B
:1027A00080915602909157020E943528693C71052C
:1027B0008105910508F4ABC00E9460286093540223
:1027C0007093550280935602909357020E949C2D5D
:1027D0009EC040915C0250915D0260915E027091DA
:1027E0005F028091580290915902A0915A02B091D3
:1027F0005B02842B952BA62BB72BAD016627772781
:10280000411551056105710521F0DB01CA0110E197
:1028100001C010E0492F5A2F6B2F77274115510522
:102820006105710519F0185FDB01CA01AC01BD013A
:1028300004E076956795579547950A95D1F7411528
:1028400051056105710519F01C5FDB01CA01AC017E
:10285000BD01F2E07695679557954795FA95D1F7C2
:10286000411551056105710519F01E5FDB01CA01B3
:10287000B695A79597958795892B8A2B8B2B09F071
:102880001F5F82E00E94CA2160E08FE791E00E9412
:102890002C2A133038F429E0129FC00111248154EE
:1028A0009E4F02C087E891E00E94C82D85E891E024
:1028B0000E94C82D1091600280913403182B60E0B3
:1028C00081E991E00E942C2A812F827261E009F453
:1028D00060E087E991E00E942C2A61E0812F8171FC
:1028E00009F460E089E991E00E942C2A61E0812FDF
:1028F000847409F460E08BE991E00E942C2A187836
:1029000061E009F460E08DE991E00E942C2A809159
:10291000A507882309F4E1C02091510330915203A7
:102920002115310509F4D9C08091A2028111D5C0C9
:10293000482E512C7101082E02C0EE0CFF1C0A9487
:10294000E2F7A9014E215F21452B11F48F5FF0CFF3
:102950009091A102920176E0220F331F7A95E1F760
:1029600090FD13C08295880F880F807480930F01AB
:10297000220F232F221F330B319520931201815CEC
:10298000809310011092130112C056E036952795DE
:102990005A95E1F7220F220F220F20930F01109278
:1029A0001201295F2093100187E08093130124E630
:1029B00030E047E050E06DE071E088E70E941B34B2
:1029C000892B09F08AC08091A10280FD23C0C20139
:1029D00046E0880F991F4A95E1F7AC014D5A5C4FCC
:1029E00004E610E020E430E060E488E70E9442342E
:1029F000892B09F072C00E944229E094F0948091E2
:102A0000510390915203E822F922F0925203E0928E
:102A1000510363C0E1E6F2E0DF012C2D1D922A95FF
:102A2000E9F736E0440C551C3A95E1F782EE91E067
:102A30009C878B874AED51E0AB85BC858D91BC8727
:102A4000AB87FA019191AF018201090F111D0D5A57
:102A50001C4F90E08F599D4FFC0127E0922E9F0163
:102A6000281B390B722C01C0770C2A95EAF7B801A4
:102A7000812CDB01AD90BD01A720292D28192770DD
:102A8000622E022E000C330BBA2D01C0BB0F6A94CC
:102A9000EAF76B2E3195219531092770332701C054
:102AA000A6942A95EAF76A28A0806A28608283940F
:102AB00028E08212DECF9A9431963FEF9312CFCF67
:102AC0008B859C858A5E914009F0B6CF04E610E0C4
:102AD00020E430E041E652E087CF8091A4078823CC
:102AE000B9F00E9460280091A0071091A1072091E1
:102AF000A2073091A307DC01CB01801B910BA20B35
:102B0000B30B8F3F9F4FAF4FBF4710F40E94282950
:102B1000B11001C0D1100E9442290E941829909141
:102B2000A502891709F46DCC0E9418298093A5028B
:102B300068CC09BD19BD09B400FEFDCF8091D80055
:102B40008F7D8093D8008091E00082608093E000C8
:102B50008091E00081FDFCCF109234030E94CD20D3
:102B600057CC80E0089590912E0292FF0DC0282F3F
:102B70002871283019F4877F846006C0282F2471BB
:102B8000243011F48B7F886093FF0DC0282F2871AB
:102B9000283119F4877E846106C0282F24712431DE
:102BA00011F48B7E886120912F0220FF0DC0382FF9
:102BB0003871383019F4877F816006C0382F317141
:102BC000313011F48E7F886021FF0DC0282F2871CD
:102BD000283119F4877E816106C0282F21712131A7
:102BE00011F48E7E886194FD877E0895F894E82F15
:102BF000E295EF70F0E031A1282F2F7081E090E096
:102C000001C0880F2A95EAF7982F9095932391A3F6
:102C100092A1892B82A378940895CF93DF93823871
:102C2000910569F1B0F48133910509F46FC048F45E
:102C30008932910509F465C08A32910509F46BC0A7
:102C40008AC08533910509F457C089339105B9F0DD
:102C500082C0833E910571F138F4803E9105B1F058
:102C6000823E910511F177C0863E9105B9F1873E0C
:102C70009105C9F1843E910509F06DC024C02091F1
:102C80002E0220FD53C021FD51C065C080912E024F
:102C900080FD46C080912F0280FF48C080912E02A7
:102CA00084FD3FC183EE90E03EC180912E0282FF01
:102CB0003AC0F4CF80912E0282FD35C080912F0260
:102CC00080FD34C0EBCF80912F0281FF35C0809111
:102CD0002E0284FD26C187EE90E025C180912E0250
:102CE00083FF27C0F4CF80912E0283FD22C0809104
:102CF0002F0281FD21C0EBCF80912E0285FD1FC0E8
:102D000021C080912E0285FD1DC019C080912E0228
:102D100086FD1BC01DC080912E0286FD19C015C006
:102D200089E390E000C182EE90E0FDC080EE90E08B
:102D3000FAC086EE90E0F7C084EE90E0F4C089E23D
:102D400090E0F1C085E390E0EEC08AE290E0EBC055
:102D500081E390E0E8C0811532E5930708F069C08F
:102D6000811541E5940728F0982F8827816F906A94
:102D7000DAC0883E910568F5803E910508F0D3C021
:102D8000883A9105B8F4853A910548F0855AE82FBC
:102D9000F0E0E651FE4F808190E09064C4C0813045
:102DA000910509F4BBC008F4BCC08430910508F457
:102DB000B8C0B9C08F3B910508F0B3C0885AE82F5E
:102DC000F0E0EE0FFF1FE351FE4F8081918194648C
:102DD000AAC0811520E59207F0F09C0174E03695B9
:102DE00027957A95E1F7922F9370482F437021E051
:102DF00030E002C0220F331F4A95E2F73C68392BBE
:102E00008F70982F9695969540E2949FC00111245B
:102E1000822B932B88C0811530E4930718F09F70A4
:102E2000906A81C09C013A9521153F4108F47BC00E
:102E300078C0EC01C11586E5D807E8F5C11525E590
:102E4000D20748F08C2F0E94B3158F7190E0982F15
:102E50008827906268C0C11534E5D30728F09C2FFD
:102E60008827846F906A5FC0AE01437055272C2F6E
:102E700026952695C115D34578F481E090E002C0EF
:102E8000880F991F4A95E2F740E2249F9001112490
:102E9000822B932B9C6847C081E090E002C0880F92
:102EA000991F4A95E2F740E2249F90011124822B5A
:102EB000932B9A6838C0C1152AE5D207F8F4C115DA
:102EC00039E5D30790F08C2F8F700E94B31594E0F2
:102ED000D695C7959A95E1F7CF70D0E0DC2FCC2737
:102EE000D0699E01282BC9011EC0C11548E5D40731
:102EF000C0F09C2F8827806F906A15C0CE01905635
:102F00008115904270F48D2F8F710E94B315282F78
:102F10002F71CE0199279062922B05C081E090E03D
:102F200002C080E090E0DF91CF9108950C9460287A
:102F30009F92AF92BF92CF92DF92EF92FF920F9348
:102F40001F93CF93DF93CDB7DEB72C970FB6F894CE
:102F5000DEBF0FBECDBF9E012F5F3F4F790188E0DE
:102F6000F90111928A95E9F70FE911E05901CC2492
:102F7000C394D12CF80180818F3F09F447C0F894A5
:102F8000E82FE295EF70F0E021A18F70A60102C05A
:102F9000440F551F8A95E2F7CA01922F982B91A3EF
:102FA00092A18095892382A3789400C0E7EAF1E09A
:102FB00020E030E0912C41914F3FB1F0A42FA29539
:102FC000AF70B0E090968C9190E04F7002C09595F4
:102FD00087954A95E2F780FD07C08C2D022E01C02F
:102FE000880F0A94EAF701C080E0982A2F5F3F4FCC
:102FF0002830310501F7F80180818F3F11F00E94E0
:10300000F615F0EAFA95F1F7F50190820F5F1F4F80
:10301000FFEFAF1ABF0A21E0033A120709F0AACF67
:1030200048E050E0B70184E392E00E942D378C0124
:10303000892B41F088E0F701A4E3B2E001900D9202
:103040008A95E1F7F0903D020115110549F081E004
:103050008093B1020E946C289093B0028093AF02DB
:103060008091B1028823B1F08091AF029091B002BB
:103070000E945128059770F0A4E3B2E0EF2DF0E034
:10308000E05CFD4F8D91819332E0A833B307D1F717
:103090001092B1020115110509F0FBC30E943E31E7
:1030A000E0913D02882309F410C319861A861B8615
:1030B0001C860E2F10E0005C1D4F80910008AE01B1
:1030C000435F5F4F7A018A3060F44AEB50E3BE0100
:1030D000675F7F4FC8010E94FD30882309F447C015
:1030E0000AC08091B2029091B3020E945128843F9D
:1030F000914058F74EC044E650E3BE01675F7F4FF2
:10310000C8010E94FD30882391F144ED5EE2BE01CA
:10311000675F7F4FC8010E94FD30882341F147EB74
:103120005FE2BE01675F7F4FC8010E94FD308823C8
:10313000F1F047E75EE2BE01675F7F4FC8010E9482
:10314000FD308823A1F04CE75FE2BE01675F7F4F4F
:10315000C8010E94FD30882351F049E55FE2BE01BD
:10316000675F7F4FC8010E94FD30811195C3809138
:1031700000088F3F19F08F5F80930008809100084E
:103180008A3008F48BC30E946C289093B30280931A
:10319000B202E0913C02F0E0E05CFD4FDE011996E6
:1031A00011921D92EA16FB06D9F701E08091B60252
:1031B000882371F08091B4029091B5020E94512849
:1031C000833E944028F080EE0E9400211092B602C7
:1031D0008091C402882309F474C38091C3028823B8
:1031E00009F46FC38091C1029091C2020E945128DC
:1031F0008139914008F465C31092C4028091B702EE
:103200009091B8020D97D9F48091B9029091BA02C9
:10321000892BA9F48091BB029091BC02892B79F48F
:103220008091BD029091BE02892B49F48091BF022A
:103230009091C002892B19F484E30E945C21809153
:10324000B7029091B8020497D9F48091B902909195
:10325000BA02892BA9F48091BB029091BC02892B00
:1032600079F48091BD029091BE02892B49F480913E
:10327000BF029091C002892B19F484E30E945C2163
:103280008091B7029091B8020897E1F48091B90259
:103290009091BA02892BB1F48091BB029091BC024B
:1032A000892B81F48091BD029091BE02892B51F44B
:1032B0008091BF029091C002892B21F488E094E1B3
:1032C0000E94572D8091B7029091B8024297D9F48D
:1032D0008091B9029091BA02892BA9F48091BB0226
:1032E0009091BC02892B79F48091BD029091BE022D
:1032F000892B49F48091BF029091C002892B19F467
:1033000083E30E945C218091B7029091B8024897B4
:10331000D9F48091B9029091BA02892BA9F48091D5
:10332000BB029091BC02892B79F48091BD029091EF
:10333000BE02892B49F48091BF029091C002892B73
:1033400019F48FE20E945C218091B7029091B8023B
:103350004697D9F48091B9029091BA02892BA9F4C9
:103360008091BB029091BC02892B79F48091BD02BF
:103370009091BE02892B49F48091BF029091C002C6
:10338000892B19F48DE20E945C218091B702909103
:10339000B802439739F58091B9029091BA02892B0E
:1033A00009F58091BB029091BC02892BD9F48091E0
:1033B000BD029091BE02892BA9F48091BF02909129
:1033C000C002892B79F480EE0E94C83281EE0E94FF
:1033D000C83284E20E945C2181EE0E94002180EECE
:1033E0000E9400218091B7029091B802099739F5A7
:1033F0008091B9029091BA02892B09F58091BB02A4
:103400009091BC02892BD9F48091BD029091BE02AB
:10341000892BA9F48091BF029091C002892B79F485
:1034200080EE0E94C83281EE0E94C83285E20E947E
:103430005C2181EE0E94002180EE0E94002180919B
:10344000B7029091B802C79709F58091B90290919F
:10345000BA02892BD9F48091BB029091BC02892BCE
:10346000A9F48091BD029091BE02892B79F48091DC
:10347000BF029091C002892B49F483EE0E94C832AA
:103480008EE40E945C2183EE0E9400218091B702AD
:103490009091B802C69709F58091B9029091BA024D
:1034A000892BD9F48091BB029091BC02892BA9F49D
:1034B0008091BD029091BE02892B79F48091BF0268
:1034C0009091C002892B49F483EE0E94C8328BE4AC
:1034D0000E945C2183EE0E9400218091B7029091AE
:1034E000B8020C97E1F48091B9029091BA02892B4D
:1034F000B1F48091BB029091BC02892B81F4809140
:10350000BD029091BE02892B51F48091BF0290912F
:10351000C002892B21F48FE092E00E94F82C809168
:10352000B7029091B802409769F58091B9029091E5
:10353000BA02479739F58091BB029091BC02892B62
:1035400009F58091BD029091BE02892BD9F480913A
:10355000BF029091C002892BA9F48BE092E00E94F7
:10356000F82C83E30E945C2185E092E00E94F82C15
:103570008FE20E945C218DE20E945C218BEF91E042
:103580000E94F82C8091B7029091B8024097A1F563
:103590008091B9029091BA02469771F58091BB0271
:1035A0009091BC02892B41F58091BD029091BE02A1
:1035B000892B11F58091BF029091C002892BE1F413
:1035C00087EF91E00E94F82C83E30E945C2181EF59
:1035D00091E00E94F82C8FE20E945C218DE20E9413
:1035E0005C2186EE91E00E94F82C83E30E945C212E
:1035F0008FED91E00E94F82C8091B7029091B80273
:10360000409769F58091B9029091BA02459739F5D2
:103610008091BB029091BC02892B09F58091BD027B
:103620009091BE02892BD9F48091BF029091C00283
:10363000892BA9F480ED91E00E94F82C8FE20E9482
:103640005C218DE20E945C2185EC91E00E94F82CC7
:1036500083E30E945C218EEB91E00E94F82C809124
:10366000B7029091B802409709F02BC18091B9023E
:103670009091BA024A9709F024C18091BB029091BF
:10368000BC02892B09F01DC18091BD029091BE0240
:10369000892B09F016C18091BF029091C002892B3D
:1036A00009F00FC185EB91E00E94F82C83E30E94A2
:1036B0005C2188E991E00E94F82C83E30E945C2160
:1036C00087E491E00E94F82CFCC0F0E0E05CFD4F44
:1036D000F89484E0ADEBB7E001900D928A95E1F7A4
:1036E00064E070E08DEB97E00E94482A8093BC076D
:1036F0007894F894E0914E02F0E0E55BFD4F808114
:1037000089878093C20761E070E0CE0109960E942C
:10371000482A8093C1077894F894C090C307D0904A
:10372000C407E090C507F090C6078091C50290914C
:10373000C602A091C702B091C802C816D906EA060F
:10374000FB06D1F0C092C502D092C602E092C70239
:10375000F092C8020E943E3181110EC00E94602882
:10376000C61AD70AE80AF90AC092AC07D092AD0788
:10377000E092AE07F092AF077894F8948091C70773
:103780009091C807A091C907B091CA0780935C02C5
:1037900090935D02A0935E02B0935F028091CB078D
:1037A0009091CC07A091CD07B091CE07809358029D
:1037B00090935902A0935A02B0935B027894F894C4
:1037C0008091CF07809334038091D0078093F307D3
:1037D0008091D1070E94E51C7894F8948091D907D4
:1037E000882309F449C080FF24C09091D2078091BA
:1037F0004B0390FF09C0816080934B0360E0892FE9
:1038000086950E94753215C08E7F80934B030E946F
:10381000652A80915D07816080935D072FEF30E717
:1038200042E0215030404040E1F700C000000E94DB
:10383000872A8091D90781FF09C020E04091D507F0
:103840006091D4078091D3070E94492B8091D907BA
:1038500082FF09C08091D807882319F00E946C2A42
:1038600002C00E94652A8091D90783FF03C081E0CE
:10387000809358071092D9077894F8948091DA07CA
:10388000882319F00E94422902C00E9428297894B6
:1038900018C001E010E015C010920008E0913C0251
:1038A000F0E0E05CFD4FDE01199600E08D91908123
:1038B000981711F0808301E03196EA16FB06B1F704
:1038C00075CC802F2C960FB6F894DEBF0FBECDBFFF
:1038D000DF91CF911F910F91FF90EF90DF90CF90EC
:1038E000BF90AF909F90089569EE7EEF80E090E0EA
:1038F0000E94E43660E082E090E00E94C63660E01C
:1039000083E090E00E94C63610925802109259024D
:1039100010925A0210925B0260E084E090E00E94F4
:10392000C63660E082E290E00E94C63660E085E044
:1039300090E00E94C63660E086E090E00E94C636C5
:103940006FEF87E090E00E94C63640E050E0BA0199
:1039500088E090E00E94D83660E08DE090E00E9420
:10396000C63640E050E0BA0188E190E00E94D836C7
:1039700060E087E190E00E94C63640E050E0BA0186
:103980008CE190E00E94D83660E070E080E290E048
:103990000E94E43640E050E0BA0188E190E00E94E5
:1039A000D83640E050E0BA018FE090E00E94D8366F
:1039B00040E050E0BA0183E190E00C94D836809169
:1039C0006002811110926002089590912F0292FD81
:1039D00005C09091600298138093600208959091C1
:1039E00034038091F307892B20913203982F922B77
:1039F0009093C90280916002882389F0892B80937B
:103A0000C902EBECF2E097E080E0915029F02191BF
:103A10002223D9F38F5FF9CF81110E94DF1CE0913F
:103A2000A807F091A907309731F00280F381E02DCB
:103A300089EC92E00994089580E090E00E940229C8
:103A400080E090E00E94EC281092F307109232037D
:103A50000C94EF1CCF93C0912F02C2FB992790F9D1
:103A6000981781F080FBC2F9C0932F0260912E025B
:103A700084E090E00E94C6366C2F82E290E0CF9105
:103A80000C94C636CF910895809130039091FF0237
:103A9000891719F08F5F8770FBCF08950F931F93DD
:103AA000CF93DF938091FE0282958F7009F05DC005
:103AB0008091FB02882309F458C080913003109153
:103AC000FF026091F9027091FA02C091FC02D0915C
:103AD000FD0291E06F3F09F090E0292F06E0811789
:103AE00009F443C0209721F07F3F21F030E003C06C
:103AF00031E001C0322F90E030FD34C0089FF0016A
:103B0000099FF00D1124DF01A050BD4F11963C918B
:103B10001197371327C03C91361324C012963C915D
:103B2000129731111FC013964D915C9114974C1B45
:103B30005D0B4F3A5105B0F48091FE028F708061A9
:103B40008093FE02EB5FFC4F80818F7080618083E9
:103B500089EF92E00E94C309DF91CF911F910F91ED
:103B60000C94441D01968770BACFDF91CF911F91BD
:103B70000F9108958F929F92AF92BF92EF92FF9212
:103B80000F931F93CF93DF9380905C0290905D0220
:103B9000A0905E02B0905F0240915802509159028D
:103BA00060915A0270915B02842A952AA62AB72A4C
:103BB000CFE1D0E0E92EF12C082F10E0D501C401AF
:103BC0000C2E04C0B695A795979587950A94D2F7C1
:103BD00080FD04C0219790F780E01AC0FE0183E0C9
:103BE000EE0FFF1F8A95E1F7EE0DFF1D93E0EE0F3C
:103BF000FF1F9A95E1F7E00FF11FEE0FFF1FEC5E3C
:103C0000FD4F859194910E940D16019719F38C2F09
:103C1000DF91CF911F910F91FF90EF90BF90AF90E8
:103C20009F908F900895CF93DF93D82FC92F0E9434
:103C3000BA1DEC2FF0E098E0899FE00DF11D1124F2
:103C400083E0EE0FFF1F8A95E1F7ED0FF11DEE0FF8
:103C5000FF1FEC5EFD4F859194910E940D16DF9140
:103C6000CF910895FC01808191810E94131E292F1C
:103C70002F70E92FE295EF704E2F50E0FA01329746
:103C8000EE30F105B8F4E658FF4F0C941A37803F38
:103C900099F018F4883E70F40FC0843F59F40CC0BA
:103CA000883E50F0813F31F407C0822F869586957B
:103CB0008695089580E0089581E008959F92AF92DF
:103CC000BF92CF92DF92EF92FF920F931F93CF9309
:103CD000DF93CDB7DEB761970FB6F894DEBF0FBEA6
:103CE000CDBF8C0185E0F801DE011D9601900D929B
:103CF0008A95E1F7F801E2809091F9026091FA0269
:103D00004091FC025091FD024115510531F06F3F89
:103D100031F481E09F3F19F403C081E001C080E0ED
:103D2000F82FF1709F2E80FD1AC1F801308121819A
:103D3000C380D48089EFA82E82E0B82EF090FB02D9
:103D4000F601E41BF50BFF2009F4C6C08091FE02CA
:103D5000EF3AF10508F091C0482F407F09F050C0BC
:103D6000621311C093130FC0FE2CE1100CC08F70B2
:103D700080618093FE02C5010E94C3098091FE020A
:103D8000F801858329C1CD2831F02F3F31F481E03E
:103D90003F3F19F403C081E001C080E080FD03C013
:103DA00081E08E2502C080E090E0F82FF170FF2EB8
:103DB00080FF1CC0809130034091FF0256E08417C1
:103DC00009F4E8C090E0589FF001599FF00D1124CC
:103DD000E050FD4F6181261306C06081631303C06C
:103DE0006281E61203C001968770E9CFFE2CEE20B7
:103DF00009F4F2C08091FE0281608093FE0249C006
:103E0000621306C0931304C0E11002C0F80186C01B
:103E1000C8010E94321E882351F1EE2041F1209109
:103E2000FE02822F82958F7090E0029774F080914D
:103E3000F9029091FA0298878F831986DB86CA86E9
:103E40002C87CE0107960E94C30986E0F801A9EFEE
:103E5000B2E001900D928A95E1F70E944E1D0AC0D2
:103E60006217C9F0C8010E94321E81111EC0C8012C
:103E70000E94C309FF24F394AFC0482F407F81F70D
:103E800089EF92E00E94C30986E0F50111928A95BC
:103E9000E9F7F12CA1C09313E5CFE110E3CFF801CE
:103EA0008583C8010E94C30954C0EE2001F320910C
:103EB000FE02822F82958F7090E0029734F28091FB
:103EC000F9029091FA029A8389831B82DD82CC8267
:103ED0002E83CE010196B7CFEF3AF105D0F5FE2C37
:103EE000EE2029F2621327C0931325C02091FE0211
:103EF00020FD18C0822F82958F70482F50E0411509
:103F0000510581F0F80125834F30510541F08F5F55
:103F1000982F9295907F822F8F70892B8583C8016F
:103F20000E94C30986E0F801A9EFB2E001900D926A
:103F30008A95E1F751C0C8010E94321E811185CFD8
:103F40008091FE0281608093FE02C8010E94C30935
:103F500043C086E0F50111928A95E9F73DC0EE2055
:103F600009F485CFC8010E94321EF82E882309F477
:103F70007ECF86E0F801A9EFB2E001900D928A951C
:103F8000E1F78091F9029091FA020E94131E0E94BB
:103F90004E1D22C03D872E878D859E850E94131E53
:103FA000292F22952F70223028F49F7039F081112B
:103FB00005C00BC0243028F49F7049F4805E88301F
:103FC00020F0C8010E94C3099F2CF92C05C0F801FC
:103FD0009581907F99F7F9CF8F2D61960FB6F89460
:103FE000DEBF0FBECDBFDF91CF911F910F91FF902C
:103FF000EF90DF90CF90BF90AF909F90089528E012
:10400000929F800D1124682F669566956695982F6E
:10401000977085E0689FB001112440E050E080E097
:10402000FB01E40FF51FEF52FD4F208130E0092E18
:1040300002C0369527950A94E2F721703327042EA3
:1040400001C0220F0A94EAF7822B4F5F5F4F453081
:10405000510531F7089528E0929F800D1124E82F33
:10406000E695E695E695877051E001C0550F8A9573
:10407000EAF785E0E89FF0011124EF52FD4F20E0C0
:1040800030E070E04081CB01022E02C0969587950A
:104090000A94E2F781708195842785238427819390
:1040A0002F5F3F4F2530310569F7089560935C021B
:1040B00070935D0280935E0290935F020C941C1DCE
:1040C0000F931F9341E050E060E070E004C0440FA4
:1040D000551F661F771F8A95D2F7409550956095BA
:1040E000709580915C0290915D02A0915E02B0910A
:1040F0005F028A019B01082319232A233B23C9015C
:10410000B8011F910F910C94562020913103809596
:10411000822380933103982F977041F430E0482F29
:10412000082E000C550B2417350721F490912F020F
:1041300092FF07C08595859585950E946020109215
:10414000310308950F931F9341E050E060E070E069
:1041500004C0440F551F661F771F8A95D2F78091C0
:104160005C0290915D02A0915E02B0915F028A01B3
:104170009B01082B192B2A2B3B2BC901B8011F913E
:104180000F910C94562060935802709359028093BB
:104190005A0290935B020C941C1D86E0EBECF2E05B
:1041A000DF011D928A95E9F70C941C1D882341F0CC
:1041B00080959091F30789238093F3070C94EF1C6B
:1041C0000895882339F09091F307892B8093F307A2
:1041D0000C94EF1C0895882341F08095909134034E
:1041E0008923809334030C94EF1C0895882339F0BD
:1041F00090913403892B809334030C94EF1C089521
:10420000882309F458C0682F823869F40E9418295D
:1042100081FF51C069E389EC92E00E94D2280E949C
:10422000EF1C69E30EC0833891F40E94182980FFC7
:1042300042C063E589EC92E00E94D2280E94EF1C04
:1042400063E589EC92E00E94C5280C94EF1C843849
:1042500069F40E94182982FF2EC067E489EC92E07D
:104260000E94D2280E94EF1C67E4EBCF8CEF860FF0
:10427000813A38F380E2860F883070F4677081E00D
:1042800090E001C0880F6A95EAF780959091340319
:10429000892380933403D9CF8BE5860F833020F4B4
:1042A00080E090E00C940229685A673120F480E0A5
:1042B00090E00C94EC2808951F93CF93DF93182F70
:1042C000893319F0C0E0D0E002C0C0E5D0E0812F12
:1042D0000E94C832209741F08FE99FE00197F1F7E3
:1042E00000C000002197F6CF812FDF91CF911F9161
:1042F0000C940021EF92FF920F931F93CF93DF93C3
:10430000209153073091540723553340A901445855
:104310005D4F4130544028F040E054E0421B530BC5
:1043200002C04CE752E0C0915103D0915203D90131
:10433000AD5ABC4FB901420F531F01E010E06417A2
:104340007507E8F4FB01E21BF30BE80FF91FE4919A
:10435000FC91EF1781F0EC93FB01689415F8F6954A
:10436000E7951694E1F7780102C0EE0CFF1CEA9580
:10437000E2F7CE29DF296F5F7F4F1196E0CFD09310
:104380005203C0935103DF91CF911F910F91FF9082
:10439000EF90089590915003899FC00111248115D9
:1043A00024E0920714F080E090E08D5A9C4F9093A7
:1043B000540780935307089580914B0380FF07C0F3
:1043C000869582588F77853010F40C94BE3261E068
:1043D00082E00C947532EF92FF920F931F93CF936C
:1043E000DF93EC017B0164E670E088E70E946A33AA
:1043F0008C01EC0EFD1ECE15DF0561F017FD0AC025
:10440000FE01849164E670E00E94EB338C012196FA
:10441000892B89F30E946F34C801DF91CF911F91DE
:104420000F91FF90EF900895EF92FF920F931F93DB
:10443000CF93DF937C018B010E942A27811119C041
:10444000E70101151105A1F08091E80085FD0AC082
:104450008091E8008E778093E8000E942A278823C5
:1044600081F307C089918093F10001501109E9CFD0
:1044700080E0DF91CF911F910F91FF90EF90089511
:104480001F93CF93DF93CDB7DEB7AA970FB6F894FB
:10449000DEBF0FBECDBFE3E4F3E08091F100819376
:1044A00023E0EB34F207C9F780914403833009F429
:1044B00060C030F4813071F0823009F49CC0B3C028
:1044C0008A3009F488C08B3009F46BC0893009F058
:1044D000AAC020C080914303813A09F0A4C0809112
:1044E000E800877F8093E80080914703909148031C
:1044F000892B21F468E087E393E003C060E080E06B
:1045000090E070E00E94B1278091E8008B77809363
:10451000E80089C080914303813209F084C0809112
:10452000470390914803029708F07DC08091E8000E
:10453000877F8093E8008091E80082FD05C080912C
:1045400041038111F8CF6FC02091F3008091F200F8
:1045500090E0922B029729F48091F1008B7F8130BB
:1045600021F48091F100809336038091E8008B77ED
:1045700056C080914303813A09F055C080914703AA
:1045800090914803892B09F04EC08091E800877F05
:104590008093E8008091E80080FFFCCF80911401B7
:1045A00039C0809143038132F1F5809147039091A6
:1045B0004803892BC1F58091E800877F8093E8004C
:1045C0000E945D278091450380931401109234036B
:1045D0000E94CD2028C080914303813221F5809133
:1045E000E800877F8093E8000E945D278091460362
:1045F0008093350318C080914303813AA1F48091E0
:10460000E800877F8093E8008091E80080FFFCCF7E
:10461000809135038093F1008091E8008E7780933C
:10462000E8000E945D278091E80083FFCCC1809163
:10463000430390914403492F50E04A30510508F05C
:10464000C2C1FA01E857FF4F0C941A37803821F0A5
:10465000823809F0B8C108C080913F0390914003AF
:10466000992389F082600FC0809147038F70873053
:1046700008F0A9C18093E9008091EB0085FB8827B1
:1046800080F91092E9009091E800977F9093E800FC
:104690008093F1001092F10065C1282F2D7F09F061
:1046A00092C1882319F0823061F08DC18091450359
:1046B000813009F088C1933009F080E08093400395
:1046C0002EC08091450381112AC0809147038F70CD
:1046D0002FEF280F263008F076C18093E900209153
:1046E000EB0020FF1CC0933021F48091EB0080622E
:1046F00014C09091EB0090619093EB0021E030E0CA
:10470000A90102C0440F551F8A95E2F74093EA00C1
:104710001092EA008091EB0088608093EB00109289
:10472000E9008091E800877F20C181114CC1109180
:1047300045031F778091E3008078812B8093E3000D
:104740008091E800877F8093E8000E945D27809138
:10475000E80080FFFCCF8091E30080688093E30055
:10476000111102C082E001C083E0809341032BC19C
:104770008058823008F027C180914503909146030C
:104780008C3D53E0950779F583E08A838AE289833B
:104790004FB7F894DE01139620E03EE051E2E32F9C
:1047A000F0E050935700E49120FF03C0E295EF70D2
:1047B0003F5FEF708E2F90E0EA3010F0C79601C097
:1047C000C0968D939D932F5F243149F74FBF809101
:1047D000E800877F8093E8006AE270E0CE010196EE
:1047E0000E94B127AEC04091470350914803292F42
:1047F000332723303105A9F068F42130310509F45D
:10480000F1C02230310509F0DEC08BE390E0E6E034
:10481000F4E044C02132310521F12232310571F139
:10482000D2C0992781309105A1F058F0029709F084
:10483000CAC0E3E5F4E0E4918E2F90E0E3E5F4E014
:104840002AC0E3E7F4E0E4918E2F90E0E3E7F4E0A0
:1048500022C0E1E6F4E0E4918E2F90E0E1E6F4E09E
:104860001AC04115510509F4C2C04130510509F083
:10487000AAC089E090E0E1E3F4E010C041155105E1
:1048800009F4BAC04130510509F09DC082E390E0BF
:10489000E4E9F3E003C0009709F495C02091E80033
:1048A000277F2093E8002091490330914A03821723
:1048B000930708F49C0140E02115310589F18091AE
:1048C0004103882309F43DC08530D9F18091E80087
:1048D00083FD37C08091E80082FD2FC08091E80001
:1048E00080FFEACF4091F3008091F20090E0942B9A
:1048F0002115310559F08830910540F444914093D9
:10490000F1003196215031090196F2CF41E008972C
:1049100009F040E08091E8008E778093E800CCCFEA
:104920004111CDCF0AC080914103882351F08530D9
:1049300041F08091E80083FD04C08091E80082FF8F
:10494000F2CF8091E8008B778093E8003CC08038FC
:10495000D1F58091E800877F8093E8008091420341
:104960008093F1008091E8008E778093E8000E94A8
:104970005D2729C0811127C080914503909146038E
:104980009927029704F58091E800877F8093E800DB
:1049900010914503109342030E945D27111106C038
:1049A0008091E30087FD02C081E001C084E0809334
:1049B000410342E061EC81E00E947C2742E261EC2D
:1049C00082E00E947C278091E80083FF1AC08091DA
:1049D000E800877F8093E8008091EB0080628093FD
:1049E000EB000FC082E190E0E1E4F4E057CF89E012
:1049F00090E0E8E1F4E052CF80E490E0E6ECF3E010
:104A00004DCFAA960FB6F894DEBF0FBECDBFDF9193
:104A1000CF911F9108951F920F920FB60F921124FC
:104A20002F933F934F935F936F937F938F939F93B6
:104A3000AF93BF93CF93DF93EF93FF93C091E900C0
:104A4000CF708091EC00D82FD17080FDD0E810920B
:104A5000E9008091F000877F8093F00078940E94B5
:104A600040221092E9008091F00088608093F0006D
:104A7000CD2BCF70C093E900FF91EF91DF91CF91E3
:104A8000BF91AF919F918F917F916F915F914F9166
:104A90003F912F910F900FBE0F901F901895E8ED4A
:104AA000F0E080818E7F80831092E2001092DA0025
:104AB0001092E100A0EEB0E08C9181608C93808137
:104AC0008F77808319BCA7EDB0E08C918E7F8C939B
:104AD00080818F7E8083109233030895CF92DF927E
:104AE000EF92FF920F931F93CF93DF93C8EDD0E027
:104AF00088818F7E8883E7EDF0E08081816080830C
:104B000084E082BF81E08093330388818E7F888335
:104B100002EE10E0F80110821092DA0081EEC82E49
:104B2000D12CF601108288818F77888388818068F4
:104B3000888388818F7D888319BC109241031092ED
:104B400042031092400310923F0390EEE92EF12CA5
:104B5000F70180818B7F808388818160888342E038
:104B600060E080E00E947C27F60180818E7F808358
:104B7000F801808181608083808188608083F70173
:104B800080818E7F8083888180618883DF91CF914F
:104B90001F910F91FF90EF90DF90CF9008951F929B
:104BA0000F920FB60F9211242F933F934F935F9361
:104BB0006F937F938F939F93AF93BF93EF93FF93E5
:104BC0008091E10082FF09C08091E20082FF05C070
:104BD0008091E1008B7F8093E1008091DA0080FF7B
:104BE0002AC08091D80080FF26C08091DA008E7F95
:104BF0008093DA008091D90080FF18C080E189BDE0
:104C000082E189BD09B400FEFDCF81E080934103BC
:104C10008091330381110FC00E944F250E946E25A1
:104C20008091E20084608093E20005C019BC10927C
:104C30004103109233038091E10080FF17C08091FF
:104C4000E20080FF13C08091E2008E7F8093E2003B
:104C50008091E20080618093E2008091D8008062C0
:104C60008093D80019BC85E0809341038091E100D6
:104C700084FF2EC08091E20084FF2AC080E189BDBC
:104C800082E189BD09B400FEFDCF8091D8008F7DFF
:104C90008093D8008091E1008F7E8093E100809125
:104CA000E2008F7E8093E2008091E2008160809339
:104CB000E20080914203882311F084E007C08091D4
:104CC000E30087FD02C081E001C083E080934103DF
:104CD0008091E10083FF27C08091E20083FF23C021
:104CE0008091E100877F8093E10082E0809341031F
:104CF000109242038091E1008E7F8093E1008091C9
:104D0000E2008E7F8093E2008091E20080618093D8
:104D1000E20042E060E080E00E947C278091F000A9
:104D200088608093F000FF91EF91BF91AF919F91C8
:104D30008F917F916F915F914F913F912F910F9044
:104D40000FBE0F901F901895089508958091360317
:104D5000089590914103943031F58093B507709395
:104D6000B7076093B60782E08093E9008FEF9091D8
:104D7000E800815095FD06C095ED9A95F1F7000089
:104D80008111F5CF8091E80085FF0DC040E050E033
:104D900063E070E085EB97E00E9414228091E800C8
:104DA0008E778093E8000895BC0184E00C94A926D6
:104DB000BC0183E00C94A926CF93DF9321E02093DC
:104DC000E9002FEF3091E800215035FD06C035EDA8
:104DD0003A95F1F700002111F5CF2091E80025FF69
:104DE00014C0EC0140E050E068E070E00E94142242
:104DF0008091E8008E778093E80088E0FE01A7E3C9
:104E0000B3E001900D928A95E1F7DF91CF9108957B
:104E100080914F03882319F0815080934F03609154
:104E20004B0370914C0380914D0390914E030C9471
:104E3000B63180914F03833018F48F5F80934F0316
:104E400060914B0370914C0380914D0390914E0300
:104E50000C94B6312091E4003091E50095E6409144
:104E6000EC00842F817040FF23C08091E80080FD1A
:104E70001DC080914103882399F0853099F080917D
:104E8000EB0085FD11C04091E4005091E50024172E
:104E9000350729F3915011F09A01E1CF84E008958C
:104EA00082E0089583E0089581E0089580E0089508
:104EB0004091E80042FFDDCF08958091430387FFD2
:104EC00011C08091E80082FD05C0809141038111ED
:104ED000F8CF11C08091E8008B770BC0809141031F
:104EE000882349F08091E80080FFF8CF8091E800A6
:104EF0008E778093E8000895982F973068F5909307
:104F0000E900981739F07091EC002091ED00509174
:104F1000F00003C0242F762F50E021FD02C09F5FD8
:104F2000ECCF3091EB003E7F3093EB003091ED0001
:104F30003D7F3093ED003091EB0031603093EB001A
:104F40007093EC002093ED005093F0002091EE0060
:104F500027FDE5CF80E008958F708093E90081E020
:104F600008952091490330914A032617370748F0E6
:104F70006115710539F42091E8002E772093E8003F
:104F800001C0B901FC0120E06115710579F1809142
:104F900041038823F1F18530F1F18091E80083FD30
:104FA0003CC08091E80082FD2EC08091E80080FF27
:104FB000EBCF2091F3008091F20090E0922B6115ED
:104FC000710551F08830910538F421912093F1005A
:104FD000615071090196F3CF21E0089709F020E0B4
:104FE0008091E8008E778093E800CECF2111CFCF5B
:104FF0000AC080914103882361F0853061F080917F
:10500000E80083FD0AC08091E80082FFF2CF80E0D3
:10501000089582E0089583E0089581E008957894EA
:105020001F920F920FB60F9211248F939F93AF93FD
:10503000BF938091B1079091B207A091B307B0914F
:10504000B4070196A11DB11D8093B1079093B207DB
:10505000A093B307B093B407BF91AF919F918F9185
:105060000F900FBE0F901F901895CF92DF92EF9286
:10507000FF922FB7F894C090B107D090B207E0909C
:10508000B307F090B4072FBFA7019601261B370B7B
:10509000480B590BCA01B901FF90EF90DF90CF90F8
:1050A00008959C014FB7F8948091B1079091B20791
:1050B000A091B307B091B4074FBF821B930B089523
:1050C0002FB7F8946091B1077091B2078091B30740
:1050D0009091B4072FBF08952FB7F8948091B1072E
:1050E0009091B207A091B307B091B4072FBF089574
:1050F0001F920F920FB60F9211248F939F93AF932D
:10510000BF938091B007811113C08091B107909136
:10511000B207A091B307B091B4074196A11DB11D8C
:105120008093B1079093B207A093B307B093B407ED
:10513000BF91AF919F918F910F900FBE0F901F90D5
:1051400018950F931F930E943E31882321F01F91E1
:105150000F910C9460280E9460280091AC07109178
:10516000AD072091AE073091AF07600F711F821F0E
:10517000931F1F910F9108950E943E3181110C944D
:105180006C280E94A128CB0108959C012A5F3F4F03
:10519000FC014281461301C01282019682179307D7
:1051A000B9F708959C01FC0132969FEF80E0419190
:1051B000461789F09F3F19F4411101C0982F8F5F66
:1051C0008630A9F79F3F39F0F901E90FF11D97FDEE
:1051D000FA956283089508952091AA073091AB074C
:1051E0002817390771F09093AB078093AA07E091D5
:1051F000A807F091A907309721F00084F185E02DF0
:10520000099408952091A6073091A7072817390718
:1052100071F09093A7078093A607E091A807F091FB
:10522000A907309721F00680F781E02D09940895B1
:105230000E943E31882351F0E091A807F091A90720
:10524000309721F00190F081E02D099480E00895DD
:105250008091A5079091A407882389F0992369F08C
:1052600062E070E08DEC99E00E94EB21892B19F04F
:105270008091A40708951092A4079091A40781E05B
:10528000892708958091A5078823F9F00E94602856
:10529000DC01CB01805A9541AF4FBF4F8093A007EF
:1052A0009093A107A093A207B093A3078091A407AE
:1052B00081110BC062E070E08BEC99E00E94EB2161
:1052C000892B19F481E08093A4078091A4070895A5
:1052D000CF93E82F20915307309154072355334043
:1052E00040915003642F70E0C9010E949536481B1D
:1052F000842FEE2359F066E00E94FA36C82FC15081
:10530000B0F060E080E20E949929F9CFA901480F2E
:10531000511D4115544018F080E020E030E0280F86
:10532000311D2D5A3C4F3093540720935307CF9192
:105330000895CF93DF938A3011F481E003C08D305C
:1053400029F480E0DF91CF910C946829C62F682F53
:10535000809153079091540726E0FC01AAE9B7E039
:1053600001900D922A95E1F7603E30F026E0FC01B5
:1053700011922A95E9F70AC0F6E06F9FB001112457
:1053800065577B4F46E050E00E94A936C11137C0F7
:10539000C0915307D091540746E050E0BE018AE91E
:1053A00097E00E942D37892BC9F19E012355334088
:1053B000A90186E0569547958A95E1F781E090E04E
:1053C000BC0102C0660F771F4A95E2F74091510376
:1053D00050915203462B572B2B5F3F4F66E036957B
:1053E00027956A95E1F702C0880F991F2A95E2F781
:1053F000842B952B90935203809351030FC0E0911F
:105400005307F09154079F012A5F3F4F2E173F0724
:1054100009F4BECF808180958193F8CF9E012D54F1
:10542000334040915003642F70E0C9010E949536CB
:10543000481B463010F4240F311D211584E0380735
:1054400010F020E030E02D5A3C4F30935407209369
:105450005307DF91CF910895FF920F931F93CF933E
:10546000DF93EC01F62EFC0101900020E9F78F019B
:1054700001501109C017D10728F46F2D89910E949E
:105480009929F8CFDF91CF911F910F91FF90089547
:10549000FC01680F791F8FEF91E3E617F70771F0B2
:1054A0002191822728E030E087FF03C0880F8927F9
:1054B00001C0880F21503109B9F7EFCF0895882333
:1054C00011F0FA0101C0FB010994EBE5F7E011824C
:1054D000828184608283089560914B03669570E0B9
:1054E00041E050E085E191E00E942037892B19F4DA
:1054F00081E080935C070E94BC28909356078093BC
:10550000550780915D07846080935D070895CF9271
:10551000DF92EF920F931F93CF93DF93CDB7DEB758
:10552000EC970FB6F894DEBF0FBECDBF60911701A8
:1055300080914B0380FF0AC0E7E7F4E0AE014F5FC4
:105540005F4F8E01035C1F4FCA0114C08091180188
:1055500090911901891780F7E82FF0E09F01220F41
:10556000331FE20FF31FE25AF84F118210821282AA
:105570008F5FF0CF249130E0D901AA0FBB1F2A0F13
:105580003B1FD901A25AB84FCD90DD90EC90DA01C3
:10559000CD92DD92ED92AD013196A017B10751F792
:1055A00020911601FC01B3E02B9FE00DF11D1124A9
:1055B000539A8BB1877F9BB198602FB7F894AF0156
:1055C00033E0639F400D511D1124E417F50789F066
:1055D000319168E09BB9000000C037FF8BB9330FF1
:1055E000000000C000C000C08BB900C06A9591F7F0
:1055F000ECCF2FBF8FE594E00197F1F700C00000DA
:10560000EC960FB6F894DEBF0FBECDBFDF91CF9101
:105610001F910F91EF90DF90CF900895FF920F931D
:105620001F93CF93DF93EC01F12C0FEF10E060910B
:105630001A01F616F0F4809118012F2D30E0280F92
:10564000311DC901880F991F280F391F225A384F61
:1056500070E0C8010E940637962F8C8140914E035E
:1056600060914D03F99E800D11240E94DF31F39467
:10567000DECF0E94872A9A818C8190FF02C08F5FC3
:1056800001C081508C83DF91CF911F910F91FF90CA
:105690000895EF92FF920F931F93CF93DF9300D063
:1056A0001F92CDB7DEB7182FF62E042FE22E809171
:1056B0004B0380FF56C0E82FE695F0E0E55EFD4F16
:1056C000908190935B078E7F823021F59E012F5F42
:1056D0003F4F812F0E94DF3180914B0380FF1EC01E
:1056E0002B8139814A818091180190911901891784
:1056F00070F4E82FF0E0BF01660F771FE60FF71F89
:10570000E25AF84F4183308322838F5FF0CF0E94AB
:10571000872A04C0923011F410914C0380914C03FD
:10572000181308C080914D03F81204C080914E03F5
:10573000081729F080915D07826080935D071093C0
:105740004C03F0924D0300934E03EE2051F0609114
:105750004B0370914C0380914D0390914E030E9436
:10576000B6310F900F900F90DF91CF911F910F9155
:10577000FF90EF9008959C013A9521153F4130F537
:10578000BC0166277270AC01442754709C0122272B
:10579000387094FF0FC090FF02C080E101C080E02C
:1057A000672B09F08062452B09F08064232B79F088
:1057B00080680895892F8170672B09F08260452BDE
:1057C00009F08460232B19F08860089580E0089523
:1057D0001F93CF93DF93CDB7DEB767970FB6F894DB
:1057E000DEBF0FBECDBF4B8B5C8B6D8B7E8B8F8BEB
:1057F00061111092F30786E09E01235F3F4FD901AC
:10580000E82F1D92EA95E9F795E0FE017396D9011C
:1058100001900D929A95E1F79C894E895F897B8969
:105820007D879E876F87598B488BF901DE0117961C
:1058300001900D928A95E1F7CE0107960E945E1EB7
:1058400081113EC086E0FE013796DE01119601907F
:105850000D928A95E1F7FF81E8856A857B85611560
:10586000710531F0EF3F31F481E0FF3F19F403C0DF
:1058700081E001C080E080FD23C02091FF0230E084
:10588000C9010196877099274091300350E0841731
:10589000950779F1F983EA837D836C8396E0929F83
:1058A000D001939FB00D1124A050BD4FFE01319641
:1058B00001900D929A95E1F78093FF020E94441D9A
:1058C00016E0809130039091FF02891709F1189F2B
:1058D000C001112480509D4F0E945E1E8823C1F09C
:1058E0008091300390E00196877099278093300370
:1058F000E8CF109234030E94CD201092FF02109244
:105900003003E9EFF2E086E0DF011D928A95E9F7C6
:1059100067960FB6F894DEBF0FBECDBFDF91CF9173
:105920001F910895DF92EF92FF920F931F93CF93F1
:10593000DF93E82FF0E0ED58FE4ED490282F269507
:105940002695269530E0F901ED59FE4E04918770B9
:1059500010E0082E02C0159507950A94E2F7017031
:105960001127F901ED5AFE4EE490F12C082E02C0E9
:10597000F594E7940A94E2F791E0E922FF24F90113
:10598000ED5BFE4EC491D0E002C0D595C7958A95D7
:10599000E2F7C170DD270115110519F081EE0E94B3
:1059A000C832E114F10419F086EE0E94C8328D2D40
:1059B0000E945C21EF2819F086EE0E940021012B45
:1059C00019F081EE0E940021CD2B51F08CE2DF9185
:1059D000CF911F910F91FF90EF90DF900C945C217D
:1059E000DF91CF911F910F91FF90EF90DF9008957D
:1059F000FF920F931F93CF93DF938C018AE0F82ED1
:105A0000F8018491882309F44CC0813009F042C028
:105A1000E8012196FE018491813031F42196FE0146
:105A200084910E945C2139C0823039F4E8012296C9
:105A3000FE0184910E94C83230C0833039F4E801FD
:105A40002296FE0184910E94002127C0843029F50E
:105A5000E8012296FE01249180E090E030E020539E
:105A600031092A30310560F4F89EA001F99E500DED
:105A70001124C901840F951F2196FE012491EECFB8
:105A8000009759F0EFE9FFE03197F1F700C000000F
:105A90000197F6CF0E94922CE8018E010F5F1F4FF5
:105AA000AFCFDF91CF911F910F91FF9008950F938A
:105AB0001F93CF93DF93EC018C01005E1109083036
:105AC000110510F0009729F40E94BB2B0E94F620CC
:105AD00004C00E94BB2B0E94E1208C2F0E94C83280
