:100000000C9438030C947F030C947F030C94F12719
:100010000C947F030C947F030C947F030C947F0358
:100020000C947F030C947F030C94E2140C941E1424
:100030000C9456210C947F030C947F030C947F0343
:100040000C947F030C947F030C947F030C947F0328
:100050000C947F030C94B7150C947F030C947F03CE
:100060000C947F030C947F030C947F030C947F0308
:100070000C947F030C947F030C947F030C947F03F8
:100080000C947F030C947F030C947F030C947F03E8
:100090000C947F030C947F030C947F030C947F03D8
:1000A0000C947F030C947F030C947F03E603C80435
:1000B0007A0400042304300448045D046F048A04B5
:1000C000AE049C041C071C0756075607A7073209F5
:1000D00032093209C307A108B208B208D80CD80CFB
:1000E000EB0CEB0CE10CEB0CEB0CEB0CD80CD80C88
:1000F000E60CEB0CEB0CE60C39126012F6136012F6
:10010000F613A812CB12F613BA13CD130000000099
:100110000500130009001A0014000254000000003A
:1001200007001700160015000400635D0000145955
:100130000A00190006001B001D00E3002B612C4182
:10014000E2002900A80000000000000000000000FC
:100150000D000F0018001C006A5D6B5D00000000C0
:100160001000110008000C000B006C5D280200005C
:100170000E00120037003600695D295D28612A7281
:10018000E4006D5D2C000000000000000000000095
:10019000665D24002500260001000100000000002B
:1001A000675D1E001F0020002700640001000100A1
:1001B000685D210022002300010001000100010010
:1001C000010001000100000000000000000000002C
:1001D0001F024A0052004D000000655D0000000053
:1001E0003202500051004F0000006E5D01004C00D3
:1001F0002D02380030001E022D14010001004C00B9
:1002000001000100010000000000000000000000EB
:1002100043004000410042000100010000000000D6
:1002200044003A003B003C000100010001000100D5
:1002300045003D003E003F000100010001000100BB
:1002400001000100010000000000000000000000AB
:100250000100010001000100010001000000000098
:100260000100010001000100010001000100010086
:100270000100010001000100010001000100010076
:10028000010001000100000000000000000000006B
:10029000000000000000000000000000000000005E
:1002A000000000000000000000000000000000004E
:1002B000000000000000000000000000000000003E
:1002C000000000000000000000000000000000002E
:1002D000000001000000000000000000000000001D
:1002E000000000000000000000000000000000000E
:1002F000C35CCA5C000000000000010000000000B8
:10030000000000000000000000000000050109805E
:10031000A101850319012AB700150126B70095012F
:1003200075108100C0050C0901A101850419012A7D
:10033000A002150126A002950175108100C00501DB
:100340000906A101050719E029E71500250195080F
:10035000750181029501750881010507190029FFC2
:10036000150026FF0095067508810005081901296A
:1003700005950575019102950175039101C009026A
:100380003B00020100A0FA09040000010301010082
:100390000921110100012240000705810308000A1C
:1003A00009040100010300000009211101000122DC
:1003B00032000705820320000A120100020000003B
:1003C000081D8D9D9D0100010200010C034B007969
:1003D0000072006900610000001003730070006C7F
:1003E00000690074004B004200000004030904642B
:1003F0003214726D65720A0A2B343920313733207A
:100400003234203138203531350A6D61696C4073E2
:10041000746F65726D65722D636F6E73756C746940
:100420006E672E64650A7777772E73746F65726DC9
:1004300065722D636F6E73756C74696E672E64657B
:100440000A0A00726D65722D636F6E73756C746944
:100450006E670A44722E20506574657220537400D2
:100460000A0A2D2D0A0A737400726D65720A0A0059
:10047000650A506574657220537400467265756E26
:10048000646C6963686520477200726D65720A0A60
:1004900000650A5065746572205374006E652047CC
:1004A000720053636800650A50657465720A0A0039
:1004B0006E6520477200536368002D2D3E200000BA
:1004C0000101010101010101010202020202020215
:1004D00002020303030303030303040404040404E8
:1004E00004050505050506060606060707070707AE
:1004F00008080808090909090A0A0A0B0B0B0C0C61
:100500000C0D0D0D0E0E0E0F0F0F101011111112FC
:100510001213131414151516161717181819191A7B
:100520001A1B1B1C1D1D1E1E1F20202122222324DE
:1005300024252626272829292A2B2C2D2D2E2F301D
:10054000313232333435363738393A3B3C3D3E3F31
:10055000404142434445464748494A4C4D4E4F501E
:10056000515354555658595A5B5D5E5F61626465DC
:100570006668696B6C6D6F7072737577787A7B7D66
:100580007E8082838587888A8C8E8F9193959698BA
:100590009A9C9EA0A2A3A5A7A9ABADAFB1B3B5B7D6
:1005A000BABCBEC0C2C4C6C9CBCDCFD1D4D6D8DBAD
:1005B000DDDFE2E4E7E9EBEEF0F3F5F8FAFDFF004A
:1005C000000000000000000000000000000000002B
:1005D000000000000000000100003800000078006A
:1005E000000000F68700ECFEFFFF8701000000001E
:1005F000000000000000002A2B280000000000007E
:100600000000000000000000000029000000002C95
:100610001E1F322122233225263030363837242738
:100620001E1F2021222324252637366427642D14FB
:100630000405060708090A0B0C0D0E0F1011121302
:100640001415161718191A1B1D1C252D2635382EA2
:100650000405060708090A0B0C0D0E0F10111213E2
:100660001415161718191A1B1D1C246427304C006A
:1006700011241FBECFEFDAE0DEBFCDBF04B603FE0C
:1006800027C08091080390910903A0910A03B091BB
:100690000B038730904BA740B04BD1F41092080366
:1006A0001092090310920A0310920B0314BE84B730
:1006B000877F84BF0FB6F894A89580916000886109
:1006C00080936000109260000FBEE0E0F8E30995AF
:1006D00011E0A0E0B1E0E6E1F4E502C005900D9282
:1006E000AC3AB107D9F723E0ACEAB1E001C01D9202
:1006F000A830B207E1F70E9463170C94092A0C9402
:1007000000008F929F92AF92BF92CF92DF92EF92B2
:10071000FF920F931F93CF93DF93CDB7DEB72A9746
:100720000FB6F894DEBF0FBECDBFFC01D0801181A3
:1007300083819481892B39F01F3F39F491E02FEFA9
:10074000D21203C003C091E001C090E090FDC9C582
:100750007F0185E0DE01169601900D928A95E1F702
:10076000D70112962C918E819F81222349F00E94FD
:100770004B0C082F682F8E819F810E94BC0E03C0F6
:100780000E94900E082FE12FF0E0B8E00B9FE00DE3
:10079000F11D1124A3E0EE0FFF1FAA95E1F7ED0D67
:1007A000F11DEE0FFF1FE45FFE4F059114916801EC
:1007B000F801E356FD45D70112968C91EC30F10516
:1007C00008F0E6C0EA5AFF4F0C94E029882389F02C
:1007D0008091280285FD05C086EE0E94B22684E144
:1007E00019C085EE0E94562686EE0E94B22684E647
:1007F0001CC084E10E94562684E60E945626A1C2AF
:100800008823E1F08091280285FD08C086EE0E94D1
:10081000B22684E20E94B22686EEEFCF85EE0E94D9
:10082000562686EE0E94B22687E20E94B22686EE07
:100830000E94562685EE0E94B22683C284E20E9460
:10084000562687E2DACF882369F08091280285FD59
:1008500005C085EE0E94B22685E28AC086E2EBCF13
:10086000811105C085E20E94562686E2C6CF80919E
:10087000280285FD05C086EE0E94B22685E2CACF19
:1008800085EE0E94562686EE0E94B22686E2CDCFE5
:10089000882389F08091280285FD05C085EE0E949D
:1008A000B22684E265C085EE0E94562686EE0E943E
:1008B000B22680E3BACF84E23BC0882359F080910E
:1008C000280285FD05C085EE0E94B22683E250C055
:1008D00082E2B1CF83E20E94562682E28ECF882345
:1008E000A1F08091280285FD0BC085E30E94B20F24
:1008F00085E3A1CF882361F08091280285FD21C284
:100900008EE20E94B20F8EE296CF85E30E945626B9
:100910008EE273CF882359F08091280285FD05C0AF
:1009200085EE0E94B22687E223C080E384CF87E26F
:100930000E94562680E361CF882359F080912802D7
:1009400085FD05C085EE0E94B22681E211C080E2DD
:1009500072CF81E20E94562680E24FCF882399F021
:100960008091280285FD08C085EE0E94B22688E3AA
:100970000E94B22685EE41CF85EE0E94562682E384
:100980000E94B22657CF88E30E94562682E335CFD5
:10099000882369F0C801825E9C45059740F46EE1AA
:1009A000600F609373028CE090E00E94842917FF2F
:1009B0007AC0F7018281882309F475C00E94F6216C
:1009C000869581708093AF0190917302913029F4E4
:1009D000882319F089E30E94B20F80912802809346
:1009E000AE011092280280917302813071F048F0BC
:1009F000823081F08430A1F486EE0E94B20F88E14B
:100A00000DC082EE0E94B2260BC088E193E00E94E6
:100A1000CD2506C082EE0E94B22687E50E94B20F65
:100A20008FE39CE90197F1F700C000004801E894CA
:100A300097F87CE0A72EB12CC4010A2C02C0969531
:100A400087950A94E2F78F7096EF980F963010F022
:100A5000805D01C0895A0E94082594E0A91AB10856
:100A6000ACEFAA16AFEFBA0639F780917302813066
:100A700039F078F0823069F0843089F488E20DC072
:100A80008CE20E94B20F8091AF01882341F089E38C
:100A900004C082EE0E94562602C00E94B20F8091CE
:100AA000AE0180932802F7018281882309F43FC0B8
:100AB0008091B202882329F1C80190568115F0E295
:100AC0009F0720F0905E8115904110F46801DD24AD
:100AD0008091B102853060F4E82FF0E0EE0FFF1F47
:100AE000EB55FD4FD182C0828F5F8093B10202C06F
:100AF0001092B2020E94F8159093B0028093AF0258
:100B000020C109328DE5180791F481E08093B2028B
:100B10000E94F8159093B0028093AF021092B10238
:100B20008AE0E5EAF2E0DF011D928A95E9F7F70134
:100B300082818111ADC08091280282720B3CBCE59C
:100B40001B0709F494C030F5063CFCE51F0709F4C7
:100B50007AC058F4043C9CE5190709F46AC008F00F
:100B60006DC0033C1C45D9F10CC1083CECE51E07E7
:100B700009F473C008F46CC0093C2CE5120709F4B1
:100B800071C00A3C1C4509F0FCC043E653E26FE625
:100B900073E276C0013DACE51A0788F40F3CBCE572
:100BA0001B0708F0CEC00D3CECE51E0709F464C03D
:100BB00008F069C045EA53E266EB73E261C0073DA5
:100BC0002CE5120738F4023D1C4508F0BAC00E941B
:100BD0004411B7C00E351D4509F4B3C0D2C0809191
:100BE0003F0280FF20C08E7F80933F0260913F02D2
:100BF0007091400280914102909142020E94DF2256
:100C00000E9423228091C00281608093C002AFEFD6
:100C1000B0E7E2E0A150B040E040E1F700C00000E2
:100C20000E9445228EC0816080933F0261E08695DC
:100C30002CC047E054E260E174E222C040E154E29B
:100C400067E074E21DC043E953E26CE973E218C047
:100C50004CE953E263E973E213C04BE753E267E800
:100C600073E20EC047E853E26BE773E209C04FE658
:100C700053E263E673E204C046EB53E265EA73E2D3
:100C80000E941D225EC061E081E00E94C72359C01E
:100C90000B35FDE51F0709F44EC058F401158CE52E
:100CA0001807C1F00F3D1C4509F06BC00E940F0BE7
:100CB00048C00C35ADE51A0709F43FC00D351D4598
:100CC00009F05FC08091720282FB882780F991E071
:100CD000892734C0109228020E947F0FEFEFF4E3BF
:100CE0002CE0E150F0402040E1F700C0000081E03E
:100CF0008093E00080E28093D8001092C9008FE1D9
:100D00009EE40197F1F700C0000087E090EBDC0162
:100D10008093080390930903A0930A03B0930B03F5
:100D20009CE088E10FB6F894A895809360000FBE10
:100D300090936000FFCF81E001C080E00E94BB0B78
:100D400020C080911802877009F4CBC2D701129697
:100D50008C91882309F4C5C282E02A960FB6F894D4
:100D6000DEBF0FBECDBFDF91CF911F910F91FF90DE
:100D7000EF90DF90CF90BF90AF909F908F900C94AA
:100D8000370FD70112968C9112970C9111961C91E6
:100D9000882349F0C8010E944B0CD82E682FC80147
:100DA0000E94BC0E04C0C8010E94900ED82EE12FF4
:100DB000F0E0B8E0DB9EE00DF11D112433E0EE0F12
:100DC000FF1F3A95E1F7E00FF11DEE0FFF1FE45F03
:100DD000FE4F859194910E9484098C01982EF70111
:100DE000C280A580A2945FE0A5228091180287703E
:100DF00099F0CC2089F0812F807F803421F080E22F
:100E0000800F883048F082E00E94370F80911802EE
:100E10008770DD24D3948111D12CB12EB2942FE0B0
:100E2000B2228B2D90E08C30910508F01BC2FC01A2
:100E3000EE59FF4F0C94E029812F807F1F7088238B
:100E400011F01295107FCC20B9F0112309F4F5C1EF
:100E500080E2800F883010F0911006C08091280247
:100E6000182B1093280205C080911A02182B10939A
:100E70001A020E94800BE1C1802F0E945626112386
:100E800009F4F0C1005E1095083010F0911006C012
:100E90008091280218231093280205C080911A021D
:100EA000182310931A020E94800BDCC1812F807FCF
:100EB0001F70803211F01295107F992021F0F1E01F
:100EC0009F1601F12EC0CC20A1F080911B02AA2018
:100ED00071F021E0A2120BC0182B9091720292FDCA
:100EE000C1C1181709F4BEC110931B02BBC1812BED
:100EF00010C0AA2021F081E0A81609F4B3C10E9415
:100F00007A0B21C0CC2041F095E09A1508F4AAC1D3
:100F1000812F0E94A80FA6C1A4E0AA1508F4A2C1BF
:100F200012C0CC2019F0AA2099F387C1AA2059F049
:100F3000093309F094C1BFEFE7EEF3E0B150E040B0
:100F4000F040E1F78AC1812F0E949D0F8BC1812F54
:100F500086958695837019F0813059F083C1CC2035
:100F600019F0C801937002C080E090E00E94E02177
:100F70007FC1CC2019F0C801937002C080E090E0DE
:100F80000E94CA2175C1812F837009F069C0C11008
:100F90006DC1902F929596959770990F990F802F0C
:100FA0008F70882E912CA12CB12C092E04C0880C96
:100FB000991CAA1CBB1C0A94D2F704FF12C04FE074
:100FC00050E060E070E004C0440F551F661F771FBB
:100FD0009A95D2F7DB01CA0180959095A095B095BE
:100FE00003C080E090E0DC0116951695412F437018
:100FF000423019F1C8F400911C0210911D02209199
:101000001E0230911F02413059F088299929AA29DE
:10101000BB29BC01CD0160237123822393230AC025
:10102000802A912AA22AB32ABC01CD0168297929F4
:101030008A299B290E94750F19C188299929AA29F3
:10104000BB2900911C0210911D0220911E023091BB
:101050001F02BC01CD016027712782279327EACFA9
:10106000CC2019F0812F817001C08695882309F466
:10107000FDC0902F929596959770990F990F802F9C
:101080008F70882E912CA12CB12C092E04C0880CB5
:10109000991CAA1CBB1C0A94D2F704FF12C04FE093
:1010A00050E060E070E004C0440F551F661F771FDA
:1010B0009A95D2F7DB01CA0180959095A095B095DD
:1010C00003C080E090E0DC0116951695412F437037
:1010D0004230D9F068F500916D0210916E022091B6
:1010E0006F0230917002413059F088299929AA295C
:1010F000BB29BC01CD0160237123822393231EC031
:10110000802A912AA22AB32A13C088299929AA29B8
:10111000BB2900916D0210916E0220916F023091F7
:101120007002BC01CD01602771278227932706C07A
:10113000BC01CD01682979298A299B290E94E70EE3
:1011400095C01F70CC2039F0812F0E94540F802F42
:101150000E94A80F8BC0802F0E949D0F812F0E949C
:10116000120F84C0802F22EF921629F1291538F032
:1011700090EF991659F0A1EF9A16C1F059C0B3EF4C
:101180009B1601F1E4EF9E16A1F152C0CC2049F06C
:10119000F4E0FA1508F466C0812F8F710E94F10EF9
:1011A00061C025E02A1508F45DC0F6CFCC2029F0F7
:1011B000812F8F7130C0CC20D9F3812F8F710E9485
:1011C000120F50C0CC2079F01F7181E090E0A0E0B8
:1011D000B0E0BC01CD0104C0660F771F881F991FC6
:1011E0001A95D2F703C060E070E0CB010E94E70ED1
:1011F00039C0CC2099F01F71812F0E94540F80912B
:10120000720282FD07C0A8E01A9FC001112483600A
:1012100080931802812F0E94540F24C081E00E9405
:10122000370FB1E0BA15F0F482E00E94370F1AC010
:10123000CC2039F0AA2009F4BBCF802F0E94B2261F
:1012400011C0AA2009F4B9CF893349F4EFEFF7EEC2
:1012500023E0E150F0402040E1F700C00000802F83
:101260000E94562688EF8B0D843010F40E94F621E0
:10127000DD20B1F08091180280FD12C0D7011296D6
:101280001C928595859585950E94540FC7010E94F3
:101290008103809118028595859585950E94120F8E
:1012A00085E0F701DE01119601900D928A95E1F734
:1012B00089819A810E94900EEA81F0E0B8E08B9FCC
:1012C000E00DF11D112483E0EE0FFF1F8A95E1F779
:1012D0008981E80FF11DEE0FFF1FE45FFE4F85913E
:1012E00094912A960FB6F894DEBF0FBECDBFDF9162
:1012F000CF911F910F91FF90EF90DF90CF90BF9013
:10130000AF909F908F900895CF93DF93823891058F
:1013100069F1B0F48133910509F46FC048F4893262
:10132000910509F465C08A32910509F46BC08AC041
:101330008533910509F457C089339105B9F082C00E
:10134000833E910571F138F4803E9105B1F0823E03
:10135000910511F177C0863E9105B9F1873E91055F
:10136000C9F1843E910509F06DC024C0209171023D
:1013700020FD53C021FD51C065C08091710280FDE8
:1013800046C08091720280FF48C08091710284FD46
:101390003FC183EE90E03EC18091710282FF3AC06E
:1013A000F4CF8091710282FD35C08091720280FD80
:1013B00034C0EBCF8091720281FF35C08091710201
:1013C00084FD26C187EE90E025C18091710283FFE4
:1013D00027C0F4CF8091710283FD22C080917202F8
:1013E00081FD21C0EBCF8091710285FD1FC021C01E
:1013F0008091710285FD1DC019C08091710286FD2A
:101400001BC01DC08091710286FD19C015C089E303
:1014100090E000C182EE90E0FDC080EE90E0FAC066
:1014200086EE90E0F7C084EE90E0F4C089E290E0B0
:10143000F1C085E390E0EEC08AE290E0EBC081E38A
:1014400090E0E8C0811532E5930708F069C0811586
:1014500041E5940728F0982F8827816F906ADAC0B9
:10146000883E910568F5803E910508F0D3C0883A22
:101470009105B8F4853A910548F0855AE82FF0E0D7
:10148000E05BFE4F808190E09064C4C081309105A4
:1014900009F4BBC008F4BCC08430910508F4B8C09E
:1014A000B9C08F3B910508F0B3C0885AE82FF0E02F
:1014B000EE0FFF1FED5AFE4F808191819464AAC008
:1014C000811520E59207F0F09C0174E03695279590
:1014D0007A95E1F7922F9370482F437021E030E026
:1014E00002C0220F331F4A95E2F73C68392B8F70F8
:1014F000982F9695969540E2949FC0011124822BD7
:10150000932B88C0811530E4930718F09F70906A80
:1015100081C09C013A9521153F4108F47BC078C0F9
:10152000EC01C11586E5D807E8F5C11525E5D20718
:1015300048F08C2F0E94D11B8F7190E0982F882744
:10154000906268C0C11534E5D30728F09C2F882726
:10155000846F906A5FC0AE01437055272C2F26958B
:101560002695C115D34578F481E090E002C0880F3C
:10157000991F4A95E2F740E2249F90011124822BA3
:10158000932B9C6847C081E090E002C0880F991FB0
:101590004A95E2F740E2249F90011124822B932B7D
:1015A0009A6838C0C1152AE5D207F8F4C11539E5A3
:1015B000D30790F08C2F8F700E94D11B94E0D695AA
:1015C000C7959A95E1F7CF70D0E0DC2FCC27D06992
:1015D0009E01282BC9011EC0C11548E5D407C0F0E3
:1015E0009C2F8827806F906A15C0CE019056811578
:1015F000904270F48D2F8F710E94D11B282F2F7174
:10160000CE0199279062922B05C081E090E002C044
:1016100080E090E0DF91CF9108950C94EC1569EE95
:101620007EEF80E090E00E94A22960E082E090E0FE
:101630000E94842960E083E090E00E948429109257
:101640001C0210921D0210921E0210921F0260E0F6
:1016500084E090E00E94842960E082E290E00E94B1
:10166000842960E085E090E00E94842960E086E0C3
:1016700090E00E9484296FEF87E090E00E94842927
:1016800040E050E0BA0188E090E00E94962960E0D6
:101690008DE090E00E94842940E050E0BA0188E1AA
:1016A00090E00E94962960E087E190E00E94842902
:1016B00040E050E0BA018CE190E00E94962960E0A1
:1016C00070E080E290E00E94A22940E050E0BA0180
:1016D00088E190E00E94962940E050E0BA018FE056
:1016E00090E00E94962940E050E0BA0183E190E04A
:1016F0000C94962980911B02811110921B0208956F
:101700009091280280911A02892B20911902982F1A
:10171000922B9093B00180911B02882389F0892B32
:101720008093B001E2EBF1E097E080E0915029F086
:1017300021912223D9F38F5FF9CF81110E947A0B77
:10174000E091FF02F0910003309731F00280F381C5
:10175000E02D80EB91E00994089580E090E00E94F4
:10176000E02180E090E00E94CA2110921A021092BB
:1017700019020C94800BCF93C0917202C2FB99277F
:1017800090F9981781F080FBC2F9C09372026091C2
:10179000710284E090E00E9484296C2F82E290E044
:1017A000CF910C948429CF91089580911702909144
:1017B000E601891719F08F5F8770FBCF08950F93AB
:1017C0001F93CF93DF938091E50182958F7009F08D
:1017D0005DC08091E201882309F458C0809117020E
:1017E0001091E6016091E0017091E101C091E30187
:1017F000D091E40191E06F3F09F090E0292F06E0DD
:10180000811709F443C0209721F07F3F21F030E099
:1018100003C031E001C0322F90E030FD34C0089F9A
:10182000F001099FF00D1124DF01A951BE4F11965F
:101830003C911197371327C03C91361324C0129660
:101840003C91129731111FC013964D915C911497E2
:101850004C1B5D0B4F3A5105B0F48091E5018F7040
:1018600080618093E501E451FE4F80818F7080613B
:10187000808380EE91E00E948103DF91CF911F91E0
:101880000F910C94D50B01968770BACFDF91CF9151
:101890001F910F9108958F929F92AF92BF92EF92F6
:1018A000FF920F931F93CF93DF9380906D029090E0
:1018B0006E02A0906F02B090700240911C02509195
:1018C0001D0260911E0270911F02842A952AA62A89
:1018D000B72ACFE1D0E0E92EF12C082F10E0D50196
:1018E000C4010C2E04C0B695A795979587950A94C8
:1018F000D2F780FD04C0219790F780E01AC0FE0166
:1019000083E0EE0FFF1F8A95E1F7EE0DFF1D93E0D8
:10191000EE0FFF1F9A95E1F7E00FF11FEE0FFF1F8B
:10192000E45FFE4F859194910E948409019719F319
:101930008C2FDF91CF911F910F91FF90EF90BF906F
:10194000AF909F908F900895CF93DF93D82FC92F9A
:101950000E944B0CEC2FF0E098E0899FE00DF11D08
:10196000112483E0EE0FFF1F8A95E1F7ED0FF11DC3
:10197000EE0FFF1FE45FFE4F859194910E94840952
:10198000DF91CF910895FC01808191810E94A40C88
:10199000292F2F70E92FE295EF704E2F50E0FA01BA
:1019A0003297EE30F105B8F4E259FF4F0C94E0297C
:1019B000803F99F018F4883E70F40FC0843F59F4CA
:1019C0000CC0883E50F0813F31F407C0822F8695CD
:1019D00086958695089580E0089581E008959F9208
:1019E000AF92BF92CF92DF92EF92FF920F931F932D
:1019F000CF93DF93CDB7DEB761970FB6F894DEBF14
:101A00000FBECDBF8C0185E0F801DE011D9601906F
:101A10000D928A95E1F7F801E2809091E0016091E2
:101A2000E1014091E3015091E4014115510531F08C
:101A30006F3F31F481E09F3F19F403C081E001C0A2
:101A400080E0F82FF1709F2E80FD1AC1F8013081DF
:101A50002181C380D48080EEA82E81E0B82EF09042
:101A6000E201F601E41BF50BFF2009F4C6C08091EA
:101A7000E501EF3AF10508F091C0482F407F09F0E9
:101A800050C0621311C093130FC0FE2CE1100CC0A4
:101A90008F7080618093E501C5010E948103809170
:101AA000E501F801858329C1CD2831F02F3F31F4BC
:101AB00081E03F3F19F403C081E001C080E080FD78
:101AC00003C081E08E2502C080E090E0F82FF17025
:101AD000FF2E80FF1CC0809117024091E60156E066
:101AE000841709F4E8C090E0589FF001599FF00D69
:101AF0001124E951FE4F6181261306C060816313F2
:101B000003C06281E61203C001968770E9CFFE2C04
:101B1000EE2009F4F2C08091E50181608093E50137
:101B200049C0621306C0931304C0E11002C0F8015B
:101B300086C0C8010E94C30C882351F1EE2041F1F8
:101B40002091E501822F82958F7090E0029774F0CA
:101B50008091E0019091E10198878F831986DB865F
:101B6000CA862C87CE0107960E94810386E0F80181
:101B7000A0EEB1E001900D928A95E1F70E94DF0B93
:101B80000AC06217C9F0C8010E94C30C81111EC0AF
:101B9000C8010E948103FF24F394AFC0482F407F07
:101BA00081F780EE91E00E94810386E0F5011192B9
:101BB0008A95E9F7F12CA1C09313E5CFE110E3CFAB
:101BC000F8018583C8010E94810354C0EE2001F30F
:101BD0002091E501822F82958F7090E0029734F278
:101BE0008091E0019091E1019A8389831B82DD82DB
:101BF000CC822E83CE010196B7CFEF3AF105D0F516
:101C0000FE2CEE2029F2621327C0931325C02091E9
:101C1000E50120FD18C0822F82958F70482F50E07B
:101C20004115510581F0F80125834F30510541F0F0
:101C30008F5F982F9295907F822F8F70892B85834D
:101C4000C8010E94810386E0F801A0EEB1E0019096
:101C50000D928A95E1F751C0C8010E94C30C811111
:101C600085CF8091E50181608093E501C8010E94E4
:101C7000810343C086E0F50111928A95E9F73DC0E2
:101C8000EE2009F485CFC8010E94C30CF82E8823EA
:101C900009F47ECF86E0F801A0EEB1E001900D924C
:101CA0008A95E1F78091E0019091E1010E94A40CF6
:101CB0000E94DF0B22C03D872E878D859E850E9466
:101CC000A40C292F22952F70223028F49F7039F010
:101CD000811105C00BC0243028F49F7049F4805E48
:101CE000883020F0C8010E9481039F2CF92C05C088
:101CF000F8019581907F99F7F9CF8F2D61960FB6F6
:101D0000F894DEBF0FBECDBFDF91CF911F910F9131
:101D1000FF90EF90DF90CF90BF90AF909F9008958D
:101D200028E0929F800D1124682F66956695669530
:101D3000982F977085E0689FB001112440E050E033
:101D400080E0FB01E40FF51FE854FE4F208130E0F6
:101D5000092E02C0369527950A94E2F721703327A1
:101D6000042E01C0220F0A94EAF7822B4F5F5F4FC7
:101D70004530510531F7089528E0929F800D1124D8
:101D8000E82FE695E695E695877051E001C0550F7E
:101D90008A95EAF785E0E89FF0011124E854FE4FA8
:101DA00020E030E070E04081CB01022E02C0969529
:101DB00087950A94E2F7817081958427852384278B
:101DC00081932F5F3F4F2530310569F70895609368
:101DD0006D0270936E0280936F02909370020C9468
:101DE000AD0B0F931F9341E050E060E070E004C042
:101DF000440F551F661F771F8A95D2F780916D0299
:101E000090916E02A0916F02B09170028A019B01C5
:101E1000082719272A273B27C901B8011F910F91CD
:101E20000C94E70E0F931F9341E050E060E070E0E8
:101E300004C0440F551F661F771F8A95D2F740953F
:101E400050956095709580916D0290916E02A09171
:101E50006F02B09170028A019B01082319232A2383
:101E60003B23C901B8011F910F910C94E70E2091FB
:101E700018028095822380931802982F977041F45E
:101E800030E0482F082E000C550B2417350721F49D
:101E90009091720292FF07C08595859585950E9465
:101EA000120F1092180208950F931F9341E050E013
:101EB00060E070E004C0440F551F661F771F8A95CD
:101EC000D2F780916D0290916E02A0916F02B09155
:101ED00070028A019B01082B192B2A2B3B2BC9016D
:101EE000B8011F910F910C94E70E60931C02709340
:101EF0001D0280931E0290931F020C94AD0B86E08E
:101F0000E2EBF1E0DF011D928A95E9F70C94AD0B4D
:101F1000882341F0809590911A02892380931A02B8
:101F20000C94800B0895882339F090911A02892B24
:101F300080931A020C94800B0895882341F08095B9
:101F4000909128028923809328020C94800B089595
:101F5000882339F090912802892B809328020C94D1
:101F6000800B08951F93CF93DF93182F893319F0B7
:101F7000C0E0D0E002C0C0E5D0E0812F0E94B226D0
:101F8000209741F08FE99FE00197F1F700C0000032
:101F90002197F6CF812FDF91CF911F910C94562678
:101FA0002091E4003091E50095E64091EC00842F0B
:101FB000817040FF23C08091E80080FD1DC08091AA
:101FC0003502882399F0853099F08091EB0085FDEA
:101FD00011C04091E4005091E5002417350729F322
:101FE000915011F09A01E1CF84E0089582E00895C4
:101FF00083E0089581E0089580E008954091E8002D
:1020000042FFDDCF0895EF92FF920F931F93CF937E
:10201000DF937C018B010E94D00F811119C0E70171
:1020200001151105A1F08091E80085FD0AC080919D
:10203000E8008E778093E8000E94D00F882381F318
:1020400007C089918093F10001501109E9CF80E028
:10205000DF91CF911F910F91FF90EF9008958091A4
:10206000370287FF11C08091E80082FD05C0809192
:1020700035028111F8CF11C08091E8008B770BC039
:1020800080913502882349F08091E80080FFF8CFE5
:102090008091E8008E778093E8000895982F97301C
:1020A00068F59093E900981739F07091EC00209151
:1020B000ED005091F00003C0242F762F50E021FD59
:1020C00002C09F5FECCF3091EB003E7F3093EB007E
:1020D0003091ED003D7F3093ED003091EB003160A9
:1020E0003093EB007093EC002093ED005093F000E0
:1020F0002091EE0027FDE5CF80E008958F7080935A
:10210000E90081E0089520913D0230913E022617BA
:10211000370748F06115710539F42091E8002E77F2
:102120002093E80001C0B901FC0120E061157105B0
:1021300079F1809135028823F1F18530F1F18091B8
:10214000E80083FD3CC08091E80082FD2EC08091B4
:10215000E80080FFEBCF2091F3008091F20090E047
:10216000922B6115710551F08830910538F4219159
:102170002093F100615071090196F3CF21E0089797
:1021800009F020E08091E8008E778093E800CECFC0
:102190002111CFCF0AC080913502882361F08530AC
:1021A00061F08091E80083FD0AC08091E80082FF21
:1021B000F2CF80E0089582E0089583E0089581E001
:1021C0000895089580912A020895909135029430DF
:1021D00031F580932402709326026093250282E0F9
:1021E0008093E9008FEF9091E800815095FD06C043
:1021F00095ED9A95F1F700008111F5CF8091E800F7
:1022000085FF0DC040E050E063E070E084E292E0C2
:102210000E9403108091E8008E778093E800089573
:10222000BC0184E00C94E510BC0183E00C94E51043
:10223000CF93DF9321E02093E9002FEF3091E80066
:10224000215035FD06C035ED3A95F1F7000021111A
:10225000F5CF2091E80025FF14C0EC0140E050E0EC
:1022600068E070E00E9403108091E8008E77809310
:10227000E80088E0FE01ABE2B2E001900D928A95A1
:10228000E1F7DF91CF91089580913F0280FF07C071
:10229000869582588F77853010F40C94102461E075
:1022A00082E00C94C7231F93CF93DF93CDB7DEB7A3
:1022B000AA970FB6F894DEBF0FBECDBFE7E3F2E0FA
:1022C0008091F100819322E0EF33F207C9F780910A
:1022D0003802833009F460C030F4813071F082300C
:1022E00009F49CC0B3C08A3009F488C08B3009F46B
:1022F0006BC0893009F0AAC020C080913702813AB2
:1023000009F0A4C08091E800877F8093E800809165
:102310003B0290913C02892B21F468E08BE292E031
:1023200003C060E080E090E070E00E948310809144
:10233000E8008B778093E80089C080913702813272
:1023400009F084C080913B0290913C02029708F012
:102350007DC08091E800877F8093E8008091E8004D
:1023600082FD05C0809135028111F8CF6FC02091A8
:10237000F3008091F20090E0922B029729F4809173
:10238000F1008B7F813021F48091F10080932A024B
:102390008091E8008B7756C080913702813A09F02E
:1023A00055C080913B0290913C02892B09F04EC0B0
:1023B0008091E800877F8093E8008091E80080FFAB
:1023C000FCCF8091000139C0809137028132F1F554
:1023D00080913B0290913C02892BC1F58091E800ED
:1023E000877F8093E8000E942F10809139028093AC
:1023F0000001109228020E947F0F28C080913702AE
:10240000813221F58091E800877F8093E8000E9467
:102410002F1080913A028093290218C080913702D0
:10242000813AA1F48091E800877F8093E800809151
:10243000E80080FFFCCF809129028093F100809119
:10244000E8008E778093E8000E942F108091E800CA
:1024500083FFCCC18091370290913802492F50E020
:102460004A30510508F0C2C1FA01E458FF4F0C94FC
:10247000E029803821F0823809F0B8C108C0809185
:10248000330290913402992389F082600FC08091C9
:102490003B028F70873008F0A9C18093E9008091DA
:1024A000EB0085FB882780F91092E9009091E80005
:1024B000977F9093E8008093F1001092F10065C13E
:1024C000282F2D7F09F092C1882319F0823061F006
:1024D0008DC180913902813009F088C1933009F0B3
:1024E00080E0809334022EC08091390281112AC08D
:1024F00080913B028F702FEF280F263008F076C1B5
:102500008093E9002091EB0020FF1CC0933021F460
:102510008091EB00806214C09091EB0090619093E9
:10252000EB0021E030E0A90102C0440F551F8A955D
:10253000E2F74093EA001092EA008091EB00886095
:102540008093EB001092E9008091E800877F20C122
:1025500081114CC1109139021F778091E30080787E
:10256000812B8093E3008091E800877F8093E800CF
:102570000E942F108091E80080FFFCCF8091E30043
:1025800080688093E300111102C082E001C083E003
:10259000809335022BC18058823008F027C180918A
:1025A000390290913A028C3D53E0950779F583E02A
:1025B0008A838AE289834FB7F894DE01139620E07C
:1025C0003EE051E2E32FF0E050935700E49120FF0A
:1025D00003C0E295EF703F5FEF708E2F90E0EA301E
:1025E00010F0C79601C0C0968D939D932F5F243144
:1025F00049F74FBF8091E800877F8093E8006AE247
:1026000070E0CE0101960E948310AEC040913B0263
:1026100050913C02292F332723303105A9F068F46B
:102620002130310509F4F1C02230310509F0DEC056
:102630008BE390E0EEE7F3E044C02132310521F175
:102640002232310571F1D2C0992781309105A1F074
:1026500058F0029709F0CAC0EBECF3E0E4918E2F3A
:1026600090E0EBECF3E02AC0EBEEF3E0E4918E2F88
:1026700090E0EBEEF3E022C0E9EDF3E0E4918E2F81
:1026800090E0E9EDF3E01AC04115510509F4C2C02C
:102690004130510509F0AAC089E090E0E9EAF3E091
:1026A00010C04115510509F4BAC04130510509F077
:1026B0009DC082E390E0ECE0F3E003C0009709F4F2
:1026C00095C02091E800277F2093E80020913D02EB
:1026D00030913E028217930708F49C0140E02115D7
:1026E000310589F180913502882309F43DC0853098
:1026F000D9F18091E80083FD37C08091E80082FD28
:102700002FC08091E80080FFEACF4091F3008091D4
:10271000F20090E0942B2115310559F08830910595
:1027200040F444914093F1003196215031090196D3
:10273000F2CF41E0089709F040E08091E8008E7701
:102740008093E800CCCF4111CDCF0AC080913502F3
:10275000882351F0853041F08091E80083FD04C06A
:102760008091E80082FFF2CF8091E8008B77809320
:10277000E8003CC08038D1F58091E800877F8093E5
:10278000E800809136028093F1008091E8008E7716
:102790008093E8000E942F1029C0811127C08091EA
:1027A000390290913A029927029704F58091E80046
:1027B000877F8093E80010913902109336020E94BF
:1027C0002F10111106C08091E30087FD02C081E047
:1027D00001C084E08093350242E061EC81E00E9418
:1027E0004E1042E261EC82E00E944E108091E800BF
:1027F00083FF1AC08091E800877F8093E800809172
:10280000EB0080628093EB000FC082E190E0E9EB87
:10281000F3E057CF89E090E0E0E9F3E052CF80E4C5
:1028200090E0EEE3F3E04DCFAA960FB6F894DEBF4A
:102830000FBECDBFDF91CF911F9108951F920F92D0
:102840000FB60F9211242F933F934F935F936F9383
:102850007F938F939F93AF93BF93CF93DF93EF9328
:10286000FF93C091E900CF708091EC00D82FD17018
:1028700080FDD0E81092E9008091F000877F80937E
:10288000F00078940E9453111092E9008091F000BA
:1028900088608093F000CD2BCF70C093E900FF914A
:1028A000EF91DF91CF91BF91AF919F918F917F91E8
:1028B0006F915F914F913F912F910F900FBE0F90AD
:1028C0001F901895E8EDF0E080818E7F8083109254
:1028D000E2001092DA001092E100A0EEB0E08C91DC
:1028E00081608C9380818F77808319BCA7EDB0E0E5
:1028F0008C918E7F8C9380818F7E808310922702B3
:102900000895CF92DF92EF92FF920F931F93CF9390
:10291000DF93C8EDD0E088818F7E8883E7EDF0E01B
:1029200080818160808384E082BF81E08093270280
:1029300088818E7F888302EE10E0F8011082109269
:10294000DA0081EEC82ED12CF601108288818F77B3
:10295000888388818068888388818F7D888319BC7B
:102960001092350210923602109234021092330205
:1029700090EEE92EF12CF70180818B7F8083888196
:102980008160888342E060E080E00E944E10F601A2
:1029900080818E7F8083F801808181608083808147
:1029A00088608083F70180818E7F80838881806149
:1029B0008883DF91CF911F910F91FF90EF90DF906F
:1029C000CF9008951F920F920FB60F9211242F935C
:1029D0003F934F935F936F937F938F939F93AF93A7
:1029E000BF93EF93FF938091E10082FF09C0809134
:1029F000E20082FF05C08091E1008B7F8093E100BF
:102A00008091DA0080FF2AC08091D80080FF26C024
:102A10008091DA008E7F8093DA008091D90080FF68
:102A200018C080E189BD82E189BD09B400FEFDCFF7
:102A300081E0809335028091270281110FC00E94AE
:102A400062140E9481148091E20084608093E2000D
:102A500005C019BC10923502109227028091E10046
:102A600080FF17C08091E20080FF13C08091E200D8
:102A70008E7F8093E2008091E20080618093E2008B
:102A80008091D80080628093D80019BC85E0809343
:102A900035028091E10084FF2EC08091E20084FF26
:102AA0002AC080E189BD82E189BD09B400FEFDCF65
:102AB0008091D8008F7D8093D8008091E1008F7E37
:102AC0008093E1008091E2008F7E8093E20080910C
:102AD000E20081608093E20080913602882311F049
:102AE00084E007C08091E30087FD02C081E001C05F
:102AF00083E0809335028091E10083FF27C08091BD
:102B0000E20083FF23C08091E100877F8093E10092
:102B100082E080933502109236028091E1008E7F30
:102B20008093E1008091E2008E7F8093E2008091AB
:102B3000E20080618093E20042E060E080E00E9479
:102B40004E108091F00088608093F000FF91EF912B
:102B5000BF91AF919F918F917F916F915F914F91B5
:102B60003F912F910F900FBE0F901F901895789462
:102B70001F920F920FB60F9211248F939F93AF93D2
:102B8000BF938091200290912102A0912202B091E6
:102B900023020196A11DB11D809320029093210272
:102BA000A0932202B0932302BF91AF919F918F9186
:102BB0000F900FBE0F901F9018959C014FB7F8947F
:102BC0008091200290912102A0912202B0912302D3
:102BD0004FBF821B930B08952FB7F894609120028A
:102BE0007091210280912202909123022FBF0895BB
:102BF0002FB7F8948091200290912102A091220297
:102C0000B09123022FBF0895CF93DF93CDB7DEB7E6
:102C100028970FB6F894DEBF0FBECDBF85E0EFE377
:102C2000F2E0DE01119601900D928A95E1F7809114
:102C3000BE029091BF02A091C0028E839F83A8879D
:102C40002885409168025091690260916A027091F2
:102C50006B023FB7F8948091200290912102A091DD
:102C60002202B09123023FBF841B950BA60BB70B2A
:102C700084369105A105B10510F4222329F1809134
:102C80003601909137018B5A9D4F4091350150E0AC
:102C90004930510510F048E050E0BE016F5F7F4FB2
:102CA0000E94002A85E090E00E94B828892B11F04C
:102CB00080E00DC00E94EC15609368027093690279
:102CC00080936A0290936B021092C00281E0289672
:102CD0000FB6F894DEBF0FBECDBFDF91CF91089540
:102CE000CF93DF9300D000D0CDB7DEB74091510233
:102CF0005091520260915302709154022FB7F89490
:102D00008091200290912102A0912202B091230291
:102D10002FBF841B950BA60BB70B84369105A1051D
:102D2000B10580F10E947F21DC01CB010296A11D3B
:102D3000B11D89839A83AB83BC8380912C019091D0
:102D40002D018B5A9D4F40912B0150E0453051058C
:102D500010F044E050E0BE016F5F7F4F0E94002AF8
:102D600084E090E00E94B828892B11F080E00BC02D
:102D70000E94EC15609351027093520280935302AB
:102D80009093540281E00F900F900F900F90DF917D
:102D9000CF910895CF92DF92EF92FF920F931F93FE
:102DA000CF93DF931F92CDB7DEB7EE24E394F12CDF
:102DB0000BE512E09E012F5F3F4F4DE452E063E0D0
:102DC00082E00E94E41AC82E882379F1D090820212
:102DD0008D2D90E09C0122573D4F79011981F90119
:102DE0008081181B012F80E010165CF40150F70160
:102DF00080818F5F808360E08D2D0E94FF2581E0C0
:102E0000F3CF912F17FD90E0191B112359F01F5F8D
:102E1000F70180818150808361E08D2D0E94FF2524
:102E200081E0F3CF81110E940D0B8C2D0F90DF916B
:102E3000CF911F910F91FF90EF90DF90CF90089569
:102E4000CF92DF92EF92FF920F931F93CF93DF9376
:102E500000D000D0CDB7DEB76B0184E0E82EF12CB6
:102E600006E512E09E012F5F3F4F49E452E061E02A
:102E700080E00E94E41A882361F049815A816B81C5
:102E80007C814093450250934602609347027093C1
:102E9000480240914502509146026091470270916C
:102EA0004802F60140835183628373830F900F9031
:102EB0000F900F90DF91CF911F910F91FF90EF90A6
:102EC000DF90CF900895CF93DF93CDB7DEB72A97E9
:102ED0000FB6F894DEBF0FBECDBF84B7877F84BF27
:102EE0000FB6F894A8958091600088618093600087
:102EF000109260000FBE90E080E80FB6F8948093C7
:102F00006100909361000FBE85B7806885BF85B76B
:102F1000806885BF82EE9AE19093AD018093AC0109
:102F20000E9462140E9481148091E2008460809368
:102F3000E2007894809135028823A1F01091E90095
:102F40001F709091EC00892F817090FD80E8182B04
:102F50001092E9008091E80083FD0E9453111F70D8
:102F60001093E90082E084BD93E095BD9AEF97BD90
:102F700080936E00109203031092040310920503D5
:102F8000109206030E94971B80933D0180913D01A2
:102F9000882321F010924B018AE003C08AE08093DD
:102FA0004B0180934C010E94971B81110E94AB271B
:102FB00080913D0180913D01811102C094E001C0EA
:102FC00090E09093800284E0891B80937F0203E865
:102FD00011E077E8E72E71E0F72EF80181918F017B
:102FE0008F3F11F00E94BA1BE016F106B1F70BE813
:102FF00011E063E9E62E61E0F62EF80181918F0180
:103000008F3F11F00E94BA1BE016F106B1F7E7E717
:10301000F2E08FE792E0A3E8B2E011921D928E17E2
:103020009F07D9F780E090E00E947E29893E9E4F5D
:1030300011F00E940F0B82E090E00E9470298093B3
:10304000940284E090E00E947029182F82E290E0C0
:103050000E947029212F30E0382B30937202209388
:10306000710283E090E00E947029682F70E080E098
:1030700090E00E94750F8CE090E00E94702990E033
:10308000A0E0B0E08093730290937402A093750265
:10309000B09376020E94971B811102C00E94AE2756
:1030A0008091810281113BC080E090E00E947E29E6
:1030B000893E9E4F21F00E940F0B0E941A2488E047
:1030C00090E00E94782960933F02709340028093C1
:1030D0004102909342028091C00283608093C002BB
:1030E0006E7F71F40E941A2488E090E00E94782993
:1030F00060933F027093400280934102909342029A
:103100000E94CC220E94232280913F0280FF04C0B3
:1031100060E086950E94C72381E0809381028091C0
:103120003D01811106C085E38093490186E68093C5
:10313000480120914901E22FE295EF70F0E031A1C2
:103140002F7081E090E0AC01022E01C0440F0A9480
:10315000EAF7542F5095352331A332A1432B42A3D4
:1031600040914801A42FA295AF70B0E091963C9198
:1031700091974F70042E01C0880F0A94EAF7982F98
:103180009095932391969C93919792969C91929768
:10319000892B92968C93929780A190E002C095958E
:1031A00087952A95E2F7817090962C9130E002C0C5
:1031B000359527954A95E2F720FD02C090E001C0C1
:1031C00092E0892B8093920290913D0181E09827B3
:1031D00090939102891B8093820280913F028160CB
:1031E00080933F0260E086950E94C72360E082E002
:1031F0000E94C7230E9410240E9410240E941024C1
:103200008EE391E0909300038093FF0228E1E22E89
:10321000F12C30E4632E4BE8C42E42E0D42E50E172
:10322000752E80913502853009F040C012E1809101
:103230003502853009F034C080913502843009F1BF
:10324000109207030FB6F894A895E09260000FBEA5
:103250006092600083B7817F846083BF83B78160A1
:1032600083BF7894889583B78E7F83BF0FB6F89419
:10327000A895809160008861809360001092600042
:103280000FBE80913402882391F20E94141CE3E85F
:10329000F2E0819181113DC1CE16DF06D1F7C7CF93
:1032A000109228020E947F0F0E94F6210E94141C97
:1032B00081110E94EC15E5E9F2E0A3E8B2E000E03C
:1032C00010E0802E9D908191892549F1A12CBB248D
:1032D000B394982F9B21F1F00E94971B882399F0BB
:1032E000A9828A829B2081E009F480E08B830E947E
:1032F000F8158160782F9D838C8349815A816B8179
:103300008D810E945E24F801EB56FD4F8081B82626
:10331000B0821AC0A394BB0C48E0A412DACF0F5FAE
:103320001F4F0830110569F68FEF8E838F83188643
:103330000E94F8158160782F9A8789874E815F8176
:1033400068858A850E945E248091BF02882309F4E3
:103350006BC08091BE02E0913F02E695E81BE093CE
:10336000BA02823061F4E695F0E0E151FC4FE4915D
:103370000E2F10E091E9A92E92E2B92E06C000EDC1
:1033800017E08FEBA82E80E2B82E8091BB02882335
:1033900061F01092BB020E949A219093B90280932F
:1033A000B8021092BD021092BC020E949A21E091D4
:1033B000B802F091B9029C012E1B3F0B2F3F3F47F3
:1033C00098F520918D022223B1F010928D02209168
:1033D0008B0230918C02821B930B8F3F9F4758F4D6
:1033E000205D3A4830938C0220938B028091C0027A
:1033F00088608093C0028090BC029090BD020E0F46
:103400001F1F1093B9020093B80288EB92E0F501F8
:1034100009958091BC029091BD02892B29F48928DD
:1034200019F081E080938D02E09192025E2F550F9A
:10343000550F20914901E22FE295EF70F0E080A155
:1034400090E02F7002C0959587952A95E2F78170DC
:10345000992740914801E42FE295EF70F0E020A118
:1034600030E04F7002C0359527954A95E2F7F90193
:10347000E170FF2720FF02C0E2E0F0E0E82BF92B2B
:10348000E52BE093920210919102EF70F0E0ED567F
:10349000FE4F908180919002890F8093900284303A
:1034A0006CF0E12FF0E0E257FD4F80818F5F808369
:1034B00060E0812F0E94FF2521E001C020E0809183
:1034C00090028D3F64F4E12FF0E0E257FD4F8081E0
:1034D0008150808361E0812F0E94FF2521E080914F
:1034E0009002082E000C990B64E070E00E94CC2939
:1034F0008093900221110E940D0B0E94F621909161
:103500009302891709F48DCE0E94F62180939302CD
:1035100088CE79BC19BD09B400FEFDCF8091D800DA
:103520008F7D8093D8008091E00082608093E000DE
:103530008091E00081FDFCCF109228020E947F0F55
:1035400076CEAF92BF92CF92DF92EF92FF920F931F
:103550001F93CF93DF937C015B016A0180916C0222
:103560008A3018F001E010E002C00AE010E0C1E08B
:10357000D0E0F894B501C701F6010995789481115E
:1035800015C021960C171D0794F0CC9F9001CD9F7C
:10359000300D300D112480E090E045E34A95F1F7BD
:1035A0000000019682179307C1F7E3CF81E0DF9116
:1035B000CF911F910F91FF90EF90DF90CF90BF9030
:1035C000AF90089580E008957F928F929F92AF927E
:1035D000BF92CF92DF92EF92FF920F931F93CF9300
:1035E000DF931F92CDB7DEB7762E4A0159016801ED
:1035F000082F880F110BC8010E94B828892B09F0E9
:103600007EC08AE0809FF001819FF00D1124EF5F62
:10361000FE4F458150E04115510511F041E050E069
:103620008AE0809FF001819FF00D1124EF5FFE4F33
:10363000668177816B5A7D4FCE0101960E94002AE8
:10364000F40140815181628173812FB7F894809198
:10365000200290912102A0912202B09123022FBF5B
:10366000841B950BA60BB70B84369105A105B105FC
:1036700040F4B701C6010E9406229981891709F416
:1036800040C0072D770C110BC8010E94B828892B68
:1036900009F5E114F10401F18AE0809FF001819FB6
:1036A000F00D1124EF5FFE4F458150E0E416F50662
:1036B00008F4A7018AE0809FF001819FF00D11249A
:1036C000EF5FFE4F668177816B5A7D4FC5010E9487
:1036D000002A02C010E001C011E0B701C6010E943B
:1036E000062291E02981281390E0192381F00E949D
:1036F000EC15F401608371838283938308C010E02A
:1037000001C011E0A701B601C5010E94002A812F66
:103710000F90DF91CF911F910F91FF90EF90DF906D
:10372000CF90BF90AF909F908F907F9008958091A1
:10373000B702811118C088EC9091E30097FD0AC090
:10374000EFE3FCE93197F1F700C000008150A1F7E9
:1037500082E001C081E08093B702823021F40E94B0
:1037600062141092350281E09091B702913009F015
:1037700080E00895F894E82FE295EF70F0E031A131
:10378000282F2F7081E090E001C0880F2A95EAF77A
:10379000982F9095932391A392A1892B82A378943B
:1037A00008959091710292FF0DC0282F2871283042
:1037B00019F4877F846006C0282F2471243011F407
:1037C0008B7F886093FF0DC0282F2871283119F452
:1037D000877E846106C0282F2471243111F48B7EEA
:1037E00088612091720220FF0DC0382F3871383067
:1037F00019F4877F816006C0382F3171313011F4A0
:103800008E7F886021FF0DC0282F2871283119F480
:10381000877E816106C0282F2171213111F48E7EAF
:10382000886194FD877E08957F928F929F92AF92D8
:10383000BF92CF92DF92EF92FF920F931F93CF939D
:10384000DF93CDB7DEB72C970FB6F894DEBF0FBE6F
:10385000CDBF9E012F5F3F4F790188E0D9011D92B6
:103860008A95E9F703E811E0690187E8882E81E08D
:10387000982EAA24A394B12CF80180818F3F09F4DB
:1038800048C0F894E82FE295EF70F0E021A18F7026
:10389000A50102C0440F551F8A95E2F7CA01922F75
:1038A000982B91A392A18095892382A3789400C03C
:1038B000EBE8F1E020E030E0712C81918F3FB9F02E
:1038C000A82FA295AF70B0E090964C9150E08F7009
:1038D000DA0102C0B595A7958A95E2F7A0FD07C069
:1038E0008A2D022E01C0880F0A94EAF701C080E0F9
:1038F000782A2F5F3F4F28303105F9F6F801808193
:103900008F3F11F00E94BA1BF0EAFA95F1F7D60149
:103910007C920F5F1F4FBFEFCB1ADB0A8016910618
:1039200009F0AACF48E050E0B70187E792E00E9493
:10393000F3298C01892B41F088E0F701A7E7B2E079
:1039400001900D928A95E1F7F09080020115110522
:1039500049F081E080939F020E94F81590939E02A7
:1039600080939D0280919F028823B9F080919D02EF
:1039700090919E020E94DD15059778F0A7E7B2E0CE
:10398000EF2DF0E0ED57FD4F8BE792E02D91219365
:103990008A179B07D9F710929F020115110509F0AC
:1039A000D7C30E94971BE0918002882309F427C3A4
:1039B00019861A861B861C860E2F10E00D571D4F88
:1039C00080916C02FE013D967F018A3058F440E2FE
:1039D00057E1BE01675F7F4FC8010E94A11A88238B
:1039E00061F10AC08091A0029091A1020E94DD15B0
:1039F000843F914060F732C04AEC56E1BE01675FF8
:103A00007F4FC8010E94A11A8823B9F040E756E110
:103A1000BE01675F7F4FC8010E94A11A882369F029
:103A200044E056E1BE01675F7F4FC8010E94A11AC2
:103A3000882319F010926C0219C080916C028F3F9C
:103A400019F08F5F80936C0280916C028A3070F065
:103A50000E94F8159093A1028093A002E0917F024A
:103A6000F0E0ED57FD4FDE01199613C0E0917F02A3
:103A7000F0E0ED57FD4FDE01199600E08D91908149
:103A8000981711F0808301E03196AE15BF05B1F7AC
:103A900006C011921D92EA16FB06D9F701E080914B
:103AA000A402882371F08091A2029091A3020E9447
:103AB000DD15833E944028F080EE0E945626109239
:103AC000A4028091B202882309F444C38091B10218
:103AD000882309F43FC38091AF029091B0020E9405
:103AE000DD158139914008F435C31092B2028091FE
:103AF000A5029091A6020D97D9F48091A70290910A
:103B0000A802892BA9F48091A9029091AA02892B7D
:103B100079F48091AB029091AC02892B49F48091A9
:103B2000AD029091AE02892B19F484E30E94B20F8A
:103B30008091A5029091A6020497D9F48091A702E2
:103B40009091A802892BA9F48091A9029091AA02D0
:103B5000892B79F48091AB029091AC02892B49F4C6
:103B60008091AD029091AE02892B19F484E30E94FA
:103B7000B20F8091A5029091A6020897E1F480917E
:103B8000A7029091A802892BB1F48091A90290918B
:103B9000AA02892B81F48091AB029091AC02892B0F
:103BA00051F48091AD029091AE02892B21F488E00E
:103BB00094E10E94CD258091A5029091A6024297A2
:103BC000D9F48091A7029091A802892BA9F4809141
:103BD000A9029091AA02892B79F48091AB0290916D
:103BE000AC02892B49F48091AD029091AE02892BF1
:103BF00019F483E30E94B20F8091A5029091A6026E
:103C00004897D9F48091A7029091A802892BA9F432
:103C10008091A9029091AA02892B79F48091AB023C
:103C20009091AC02892B49F48091AD029091AE0243
:103C3000892B19F48FE20E94B20F8091A502909116
:103C4000A6024697D9F48091A7029091A802892BE9
:103C5000A9F48091A9029091AA02892B79F480910C
:103C6000AB029091AC02892B49F48091AD02909106
:103C7000AE02892B19F48DE20E94B20F8091A50249
:103C80009091A602439739F58091A7029091A802DE
:103C9000892B09F58091A9029091AA02892BD9F468
:103CA0008091AB029091AC02892BA9F48091AD0276
:103CB0009091AE02892B79F480EE0E94B22681EEBB
:103CC0000E94B22684E20E94B20F81EE0E94562624
:103CD00080EE0E9456268091A5029091A602099737
:103CE00039F58091A7029091A802892B09F580915E
:103CF000A9029091AA02892BD9F48091AB029091EC
:103D0000AC02892BA9F48091AD029091AE02892B6F
:103D100079F480EE0E94B22681EE0E94B22685E2FE
:103D20000E94B20F81EE0E94562680EE0E94562617
:103D30008091A5029091A602C79709F58091A702EC
:103D40009091A802892BD9F48091A9029091AA029E
:103D5000892BA9F48091AB029091AC02892B79F464
:103D60008091AD029091AE02892B49F483EE0E94BE
:103D7000B2268EE40E94B20F83EE0E9456268091F6
:103D8000A5029091A602C69709F58091A70290918D
:103D9000A802892BD9F48091A9029091AA02892BBB
:103DA000A9F48091AB029091AC02892B79F48091B7
:103DB000AD029091AE02892B49F483EE0E94B226A7
:103DC0008BE40E94B20F83EE0E9456268091A502DA
:103DD0009091A6020C97E1F48091A7029091A8021D
:103DE000892BB1F48091A9029091AA02892B81F4C8
:103DF0008091AB029091AC02892B51F48091AD027D
:103E00009091AE02892B21F48AEB94E00E946E25FA
:103E10008091A5029091A6020F97D9F48091A702F4
:103E20009091A802892BA9F48091A9029091AA02ED
:103E3000892B79F48091AB029091AC02892B49F4E3
:103E40008091AD029091AE02892B19F483E00E941B
:103E5000F10E8091A5029091A602409769F580919C
:103E6000A7029091A802479739F58091A9029091F5
:103E7000AA02892B09F58091AB029091AC02892BA3
:103E8000D9F48091AD029091AE02892BA9F486EB12
:103E900094E00E946E2583E30E94B20F80EB94E0D1
:103EA0000E946E258FE20E94B20F8DE20E94B20F37
:103EB00086EA94E00E946E258091A5029091A60268
:103EC0004097A1F58091A7029091A802469771F5BD
:103ED0008091A9029091AA02892B41F58091AB02B1
:103EE0009091AC02892B11F58091AD029091AE02B8
:103EF000892BE1F482EA94E00E946E2583E30E941C
:103F0000B20F8CE994E00E946E258FE20E94B20FFE
:103F10008DE20E94B20F81E994E00E946E2583E356
:103F20000E94B20F8AE894E00E946E258091A5025B
:103F30009091A602409769F58091A7029091A802FE
:103F4000459739F58091A9029091AA02892B09F52C
:103F50008091AB029091AC02892BD9F48091AD0293
:103F60009091AE02892BA9F48BE794E00E946E2514
:103F70008FE20E94B20F8DE20E94B20F80E794E0C0
:103F80000E946E2583E30E94B20F89E694E00E94AE
:103F90006E258091A5029091A602409709F0DAC0A3
:103FA0008091A7029091A8024A9709F0D3C080910E
:103FB000A9029091AA02892B09F0CCC08091AB0292
:103FC0009091AC02892B09F0C5C08091AD0290910F
:103FD000AE02892B09F0BEC080E694E00E946E25F7
:103FE00083E30E94B20F83E494E00E946E2583E392
:103FF0000E94B20F82EF93E00E946E25ABC0F0E00A
:10400000ED57FD4FF89484E0A6E5B2E001900D92E3
:104010008A95E1F764E070E086E592E00E9406226E
:10402000809355027894F894E0919102F0E0E25781
:10403000FD4F8081898780935B0261E070E0CE0153
:1040400009960E94062280935A027894F894C090B0
:104050005C02D0905D02E0905E02F0905F02809181
:10406000B3029091B402A091B502B091B602C81605
:10407000D906EA06FB06D1F0C092B302D092B40290
:10408000E092B502F092B6020E94971B81110EC019
:104090000E94EC15C61AD70AE80AF90AC09203036F
:1040A000D0920403E0920503F09206037894F8940A
:1040B00080916702882309F449C080FF24C0909151
:1040C000600280913F0290FF09C0816080933F02AF
:1040D00060E0892F86950E94C72315C08E7F80934C
:1040E0003F020E9423228091C00281608093C0021F
:1040F0004FEF50E782E0415050408040E1F700C070
:1041000000000E9445228091670281FF09C020E0E3
:104110004091630260916202809161020E94F122EB
:104120008091670282FF09C080916602882319F09E
:104130000E942A2202C00E9423228091670283FFEC
:1041400003C081E08093BB0210926702789402C0A2
:1041500001E010E0802F2C960FB6F894DEBF0FBE62
:10416000CDBFDF91CF911F910F91FF90EF90DF9026
:10417000CF90BF90AF909F908F907F9008950895BB
:10418000AF92BF92CF92DF92EF92FF920F931F9365
:10419000CF93DF93E82EF62EE901E42FF0E06111D2
:1041A00006C0E154FB4FE4914E2F2E2F71C0062F15
:1041B00010E0E154FB4F4491F42FC42ED12C26E0A3
:1041C000829FC00111242FEF30E0B9010E94B8296D
:1041D0005BEA5603C001579F900D11248E0D911D6F
:1041E0008E0D911D582F550F580FD901A01BB10BE3
:1041F000AC9DC001AD9D900DBC9D900D1124E92F8B
:10420000F59ED0011124AB2FBB277901EA1AFB0AD6
:10421000EC9CD001ED9CB00DFC9CB00D112459011B
:10422000A51AB108A09E7001A19EF00CB09EF00CE2
:104230001124EF2CFF242E193F092C9D80012D9D68
:10424000100D3C9D100D1124212F6230710591F04D
:1042500048F461157105E1F061307105B9F4242F5E
:104260004B2F16C06430710569F040F0663071055F
:1042700079F00CC0242F492FE12F0AC0492FEF2FCE
:104280002B2F06C0292FE42F412F02C0292FEB2FFF
:1042900049832883EA83DF91CF911F910F91FF908B
:1042A000EF90DF90CF90BF90AF9008951F920F9244
:1042B0000FB60F9211248F939F93AF93BF9380916A
:1042C0000703811113C08091200290912102A091D7
:1042D0002202B09123024196A11DB11D80932002BC
:1042E00090932102A0932202B0932302BF91AF9139
:1042F0009F918F910F900FBE0F901F9018950F9365
:104300001F930E94971B882321F01F910F910C94FB
:10431000EC150E94EC150091030310910403209109
:10432000050330910603600F711F821F931F1F91B9
:104330000F9108950E94971B81110C94F8150E940B
:104340007F21CB0108959C012A5F3F4FFC014281F0
:10435000461301C01282019682179307B9F7089598
:104360009C01FC0132969FEF80E04191461789F055
:104370009F3F19F4411101C0982F8F5F8630A9F734
:104380009F3F39F0F901E90FF11D97FDFA9562831E
:1043900008950895209101033091020328173907E9
:1043A00071F09093020380930103E091FF02F0917A
:1043B0000003309721F00084F185E02D09940895E1
:1043C0002091FD023091FE022817390771F0909379
:1043D000FE028093FD02E091FF02F091000330970E
:1043E00021F00680F781E02D099408950E94971B23
:1043F000882351F0E091FF02F0910003309721F003
:104400000190F081E02D099480E00895FC01680F8F
:10441000791F8FEF91E3E617F70771F0219182275B
:1044200028E030E087FF03C0880F892701C0880F8C
:1044300021503109B9F7EFCF0895882311F0FA011F
:1044400001C0FB010994EEEBF2E0118282818460ED
:104450008283089560913F02669570E041E050E0EC
:104460008AE491E00E94E629892B19F481E0809387
:10447000BF020E949A219093B9028093B802809162
:10448000C00284608093C002089530914C018091F5
:104490003F0280FF16C0E0914B0163E0E69FF00110
:1044A0001124EF53FD4F539A8BB1877F9BB19860D6
:1044B0002FB7F894AF0163E0369F400D511D1124D2
:1044C00014C080914D0190914E01891720F7E82F7B
:1044D000F0E0AF01440F551FE40FF51FEF53FD4F00
:1044E0001182108212828F5FF0CFE417F50789F0F6
:1044F000319168E09BB9000000C037FF8BB9330FE2
:10450000000000C000C000C08BB900C06A9591F7E0
:10451000ECCF2FBF8FE594E00197F1F700C00000CA
:104520000895FF920F931F93CF93DF93EC01F12C2B
:104530000FEF10E060914F01F616F0F480914D01FD
:104540002F2D30E0280F311DC901880F991F280F2A
:10455000391F2F533D4F70E0C8010E94CC29962F80
:104560008C814091420260914102F99E800D11249C
:104570000E94C020F394DECF0E9445229A818C8154
:1045800090FF02C08F5F01C081508C83DF91CF917B
:104590001F910F91FF90089580913F02282F26953B
:1045A00030E02115310519F48170826005C0283092
:1045B000310524F081708E6080933F020895CF9280
:1045C000DF92EF92FF926B017C010E94CC22B70137
:1045D000A60188E090E0FF90EF90DF90CF900C94E0
:1045E0009629EF92FF920F931F93CF93DF9300D002
:1045F0001F92CDB7DEB7182FF62E042FE22E809132
:104600003F0280FF56C0E82FE695F0E0ED55FE4FE3
:1046100090819093BE028E7F823021F59E012F5FA4
:104620003F4F812F0E94C02080913F0280FF1EC01B
:104630002B8139814A8180914D0190914E018917DA
:1046400070F4E82FF0E0BF01660F771FE60FF71F49
:10465000EF53FD4F4183308322838F5FF0CF0E9461
:10466000452204C0923011F4109140028091400222
:10467000181308C080914102F81204C080914202D0
:10468000081729F08091C00282608093C0021093C5
:104690004002F092410200934202EE2051F06091FC
:1046A0003F027091400280914102909142020E942B
:1046B000DF220F900F900F90DF91CF911F910F91FC
:1046C000FF90EF900895EFE3F2E0438121E1421B78
:1046D00008F440E021E0628181810C94F122EFE353
:1046E000F2E0438121E1420F08F44FEF21E06281C3
:1046F00081810C94F122EFE3F2E0628121E1621BFF
:1047000008F460E021E0438181810C94F122EFE321
:10471000F2E0628121E1620F08F46FEF21E0438152
:1047200081810C94F122EFE3F2E0818121E0438169
:10473000628188500C94F122EFE3F2E0818121E064
:1047400043816281885F0C94F12280914302882327
:1047500019F081508093430260913F0270914002B2
:1047600080914102909142020C94DF228091430299
:10477000833018F48F5F8093430260913F02709101
:10478000400280914102909142020C94DF2290916C
:104790003F0290FF3BC09170811102C0926006C041
:1047A000883010F09E6002C0880F982B90933F02D3
:1047B0008091C00281608093C002662351F06091B5
:1047C0003F027091400280914102909142020E940A
:1047D000DF2260913F02669570E041E050E08AE49C
:1047E00091E00E94E629892B19F00E94232202C041
:1047F0000E942A2281E08093BB0220E04091420285
:1048000060914102809140020C94F12208958091C0
:104810003F028695815009F487E061E00C94C7233C
:1048200080913F0286958F5F883008F081E061E0DB
:104830000C94C723EFE3F2E083E0808311828FEFD3
:10484000828383831482AEEBB2E012968C9112972E
:10485000836012968C9360817181828193810C9424
:10486000DF229C013A9521153F4130F5BC016627B6
:104870007270AC01442754709C012227387094FF59
:104880000FC090FF02C080E101C080E0672B09F0FB
:104890008062452B09F08064232B79F080680895AD
:1048A000892F8170672B09F08260452B09F08460A5
:1048B000232B19F08860089580E008951F93CF930B
:1048C000DF93CDB7DEB767970FB6F894DEBF0FBEA4
:1048D000CDBF4B8B5C8B6D8B7E8B8F8B6111109260
:1048E0001A0286E09E01235F3F4FD901E82F1D92F7
:1048F000EA95E9F795E0FE017396D90101900D92D2
:104900009A95E1F79C894E895F897B897D879E878F
:104910006F87598B488BF901DE01179601900D9234
:104920008A95E1F7CE0107960E94EF0C81113EC0F7
:1049300086E0FE013796DE01119601900D928A9570
:10494000E1F7FF81E8856A857B856115710531F0A6
:10495000EF3F31F481E0FF3F19F403C081E001C073
:1049600080E080FD23C02091E60130E0C90101967E
:10497000877099274091170250E08417950779F1C5
:10498000F983EA837D836C8396E0929FD001939FA5
:10499000B00D1124A951BE4FFE01319601900D9228
:1049A0009A95E1F78093E6010E94D50B16E080917D
:1049B00017029091E601891709F1189FC00111248F
:1049C00089519E4F0E94EF0C8823C1F080911702FD
:1049D00090E001968770992780931702E8CF109294
:1049E00028020E947F0F1092E60110921702E0EE5B
:1049F000F1E086E0DF011D928A95E9F767960FB630
:104A0000F894DEBF0FBECDBFDF91CF911F91089507
:104A1000DF92EF92FF920F931F93CF93DF93E82FD4
:104A2000F0E0E151FA4FD490282F2695269526954F
:104A300030E0F901E152FA4F0491877010E0082E3E
:104A400002C0159507950A94E2F701701127F90144
:104A5000E153FA4FE490F12C082E02C0F594E7944C
:104A60000A94E2F791E0E922FF24F901E154FA4FB8
:104A7000C491D0E002C0D595C7958A95E2F7C17080
:104A8000DD270115110519F081EE0E94B226E1140F
:104A9000F10419F086EE0E94B2268D2D0E94B20F0D
:104AA000EF2819F086EE0E945626012B19F081EEB0
:104AB0000E945626CD2B51F08CE2DF91CF911F91B1
:104AC0000F91FF90EF90DF900C94B20FDF91CF9198
:104AD0001F910F91FF90EF90DF900895FF920F9339
:104AE0001F93CF93DF938C018AE0F82EF801849115
:104AF000882309F44CC0813009F042C0E8012196B6
:104B0000FE018491813031F42196FE0184910E944E
:104B1000B20F39C0823039F4E8012296FE01849147
:104B20000E94B22630C0833039F4E8012296FE019B
:104B300084910E94562627C0843029F5E8012296E8
:104B4000FE01249180E090E030E0205331092A30CA
:104B5000310560F4F89EA001F99E500D1124C901A1
:104B6000840F951F2196FE012491EECF009759F0F6
:104B7000EFE9FFE03197F1F700C000000197F6CFB1
:104B80000E940825E8018E010F5F1F4FAFCFDF9114
:104B9000CF911F910F91FF9008950F931F93CF9383
:104BA000DF93EC018C01005E11090830110510F053
:104BB000009729F40E9431240E94A80F04C00E948B
:104BC00031240E94930F8C2F0E94B2268C2F0E94BA
:104BD0005626CE010830110510F0CD2B41F40E946D
:104BE0003124DF91CF911F910F910C949D0F0E9462
:104BF0003124DF91CF911F910F910C94880FCF93A7
:104C0000C62F40916D0250916E0260916F027091BB
:104C1000700281111EC0411551056105710531F009
:104C2000769567955795479540FD0DC084EECC234A
:104C300021F00E94B20F89EA03C00E94B20F8AEAF3
:104C40000E94B20F30C0CC2311F08DEBF9CF8EEB68
:104C5000F7CF411551056105710531F076956795DE
:104C60005795479540FD06C0CC2311F08BE4E8CF63
:104C70008EE4E6CF8091A402811106C081E080938A
:104C8000A40280EE0E94B2260E94F8159093A3021F
:104C90008093A202CC2319F08BE292E002C08BE257
:104CA00090E00E94CD2580E0CF910895882309F4FB
:104CB00058C0682F823869F40E94F62181FF51C0E4
:104CC00069E380EB91E00E94B0210E94800B69E3D0
:104CD0000EC0833891F40E94F62180FF42C063E544
:104CE00080EB91E00E94B0210E94800B63E580EB95
:104CF00091E00E94A3210C94800B843869F40E94F7
:104D0000F62182FF2EC067E480EB91E00E94B02183
:104D10000E94800B67E4EBCF8CEF860F813A38F36B
:104D200080E2860F883070F4677081E090E001C007
:104D3000880F6A95EAF780959091280289238093DD
:104D40002802D9CF8BE5860F833020F480E090E0F5
:104D50000C94E021685A673120F480E090E00C94D4
:104D6000CA210895CF93882309F496C0C82F8238AA
:104D7000B1F40E94F62181FD8FC069E380EB91E0E0
:104D80000E94B0210E94800B2FEF81EE94E0215011
:104D900080409040E1F700C0000069E317C083380D
:104DA000E1F40E94F62180FD77C063E580EB91E09D
:104DB0000E94B0210E94800B2FEF81EE94E02150E1
:104DC00080409040E1F700C0000063E580EB91E097
:104DD0000E94A321CF910C94800B8438B1F40E94DF
:104DE000F62182FD59C067E480EB91E00E94B0217A
:104DF0000E94800B2FEF81EE94E021508040904084
:104E0000E1F700C0000067E4E1CF8CEF8C0F813A3E
:104E100080F4E2EBF1E088EB91E02191C217A1F17F
:104E20008E179F07D1F76C2F80EB91E00E94B02185
:104E3000D1CF80E28C0F883068F4C77081E090E0B9
:104E400001C0880FCA95EAF790912802892B8093B8
:104E50002802C0CFEBE5EC0FE33040F4F0E0E05B7C
:104E6000FE4F808190E0CF910C94E021C85AC73169
:104E700098F4EC2FF0E0EE0FFF1FED5AFE4F80810B
:104E80009181CF910C94CA216C2F80EB91E00E940C
:104E9000A3210E94800BC7CFCF9108958EE14A9B3A
:104EA00002C08150E1F74A9BFECF08955A9880E2F4
:104EB0008A95F1F75A9A0895FC012AE02A95F1F7AC
:104EC00028E090E080E031E040E14A95F1F7880F7A
:104ED0004A9B02C08160932700C0000040E14A95D0
:104EE000F1F7215089F720E12A95F1F729B100C0A7
:104EF000000030E13A95F1F722FB222720F99227B2
:104F00002081920F90830895EF92FF920F931F9349
:104F1000CF93DF931F92CDB7DEB719828C017C014E
:104F2000E60EF11C0E151F0551F00E944E27CE0112
:104F300001960E945C27F80181938F01F3CF81E0F5
:104F40009981911180E00F90DF91CF911F910F9186
:104F5000FF90EF900895529A5A9A089552985A9A4B
:104F6000EA9AE9E6F0E080818F7C808308956150C1
:104F700091E001C0990F6A95EAF720E031E09923AA
:104F800061F0492F482319F05A9A232701C05A98F3
:104F900040E24A95F1F79695F2CF222311F05A9A02
:104FA00001C05A9880E28A95F1F75A980895FF92C5
:104FB0000F931F93CF93DF93EC018C01060F111D0C
:104FC000C017D10741F0F9900E94562768E08F2D55
:104FD0000E94B727F5CFDF91CF911F910F91FF90DE
:104FE00008951F920F920FB60F921124EF92FF9225
:104FF0000F931F932F933F934F935F936F937F93E1
:105000008F939F93AF93BF93EF93FF93CF93DF93D0
:105010001F92CDB7DEB719820E944E27CE010196AE
:105020000E945C27A82FA695A695A6959A2F9695DF
:1050300095702A2F2570920F292F2370969596959B
:10504000920F877089137CC08981811179C0A73044
:1050500008F076C080E18A95F1F75A9A529AB2E048
:10506000BA95F1F700C05A98EA2EF12CEAE0AE9F0B
:10507000D0011124AF5FBE4F1896ED91FC911997A6
:105080003097B1F0609181017091820116962D9157
:105090003C911797260F371F13968D919C9114976B
:1050A000680F791F15964C91159712968C9109955A
:1050B0008AE08E9DF0018F9DF00D1124EF5FFE4F71
:1050C0006581662351F08091810190918201268152
:1050D0003781820F931F0E94D7270E945627F0E145
:1050E000FA95F1F75A9852985A9A80E18A95F1F711
:1050F0008AE08E9D80018F9D100D11240F5F1E4F41
:10510000D80112966C911297662399F080918101D3
:105110009091820113962D913C911497820F931FC9
:105120000E948427D801ED91FC91811105C082E095
:1051300004C0D801ED91FC9188E080830E944E2745
:105140000F90DF91CF91FF91EF91BF91AF919F9120
:105150008F917F916F915F914F913F912F911F910F
:105160000F91FF90EF900F900FBE0F901F9018952A
:105170000F931F93CF93DF93873091050CF0A9C055
:105180002AE0289FF001299FF00D1124EF5FFE4FC8
:1051900020813181232B09F49CC0EC01F894529AB0
:1051A0005A9885E08A95F1F700008C2F86958570D6
:1051B0009C2F9570890F982F9370869586958E01F8
:1051C00023E0000F111F2A95E1F7890F082B0E9499
:1051D0005627A4E0AA95F1F700C068E0802F0E944E
:1051E000B727B0E1BA95F1F752985A9A4A9902C096
:1051F00000C0FCCF87E090E04A9B17C0019799F46C
:10520000529A5A9A8AE08C9FF0018D9FF00D1124DA
:10521000EF5FFE4F0190F081E02D81E08083789474
:1052200081E090E058C000C0E7CF8AE08C9F800109
:105230008D9F100D11240F5F1E4FF80165816623AD
:10524000B9F0809181019091820126813781820F8E
:10525000931F0E94842781110BC0529A5A9AD80139
:10526000ED91FC9182E08083789482E090E033C0FD
:105270000E944E27B0E2BA95F1F75A98529AE0E1AF
:10528000EA95F1F78AE08C9FF0018D9FF00D1124D3
:10529000EF5FFE4F6281662351F080918101909112
:1052A000820123813481820F931F0E94D7270E949D
:1052B00056278AE08C9FF0018D9FF00D1124EF5F3F
:1052C000FE4F0190F081E02D1082789480E090E014
:1052D00002C084E090E0DF91CF911F910F9108957B
:1052E000F999FECF92BD81BDF89A992780B50895AE
:1052F000A6E1B0E044E050E00C94AA29A8E1B0E0B7
:1053000042E050E00C94AA29262FF999FECF92BDD5
:1053100081BDF89A019700B4021639F01FBA20BD7A
:105320000FB6F894FA9AF99A0FBE08950396272FAC
:105330000E9485290E948429252F0E948529242FD7
:105340000C9485290196272F0E9485290C94842985
:10535000DC01CB01FC01F999FECF06C0F2BDE1BD35
:10536000F89A319600B40D9241505040B8F7089524
:10537000AA1BBB1B51E107C0AA1FBB1FA617B7077B
:1053800010F0A61BB70B881F991F5A95A9F7809597
:105390009095BC01CD01089597FB072E16F400945B
:1053A00007D077FD09D00E94B82907FC05D03EF44C
:1053B000909581959F4F0895709561957F4F0895C1
:1053C000EE0FFF1F0590F491E02D0994FC01415070
:1053D000504030F001900616D1F73197CF01089573
:1053E000882799270895FB01DC0104C08D91019065
:1053F000801921F441505040C8F7881B990B08953B
:10540000FB01DC0102C001900D9241505040D8F7E1
:065410000895F894FFCF9F
:1054160001440200000001000000004402000000F8
:1054260004010000004402000000010500000044E1
:10543600020000000106000000440204070000000C
:105446000000004402080B00000000000001E2100A
:105456001811E1101411101135660100140014140E
:10546600818283E200E900EA00B500B600B700CD0C
:10547600008301CC008A01920194012102230224B7
:10548600022502260227022A02B300B4006F00702A
:1054960000550234C697940000000036323331F7C7
:1054A600F6F5F400FF0100010000FFFF0000010017
:0C54B60001FF00000102020202020200DD
:00000001FF
