:100000000C949A030C94E1030C94E1030C94912C4E
:100010000C94E1030C94E1030C94E1030C94E103D0
:100020000C94E1030C94E1030C945E170C949B1662
:100030000C94A3180C94E1030C94E1030C94E103D9
:100040000C94E1030C94E1030C94E1030C94E103A0
:100050000C94E1030C9456180C94E1030C94E10306
:100060000C94E1030C94E1030C94E1030C94E10380
:100070000C94E1030C94E1030C94E1030C94E10370
:100080000C94E1030C94E1030C94E1030C94E10360
:100090000C94E1030C94E1030C94E1030C94E10350
:1000A0000C94E1030C94E1030C94E10348042A0549
:1000B000DC04620485049204AA04BF04D104EC04A5
:1000C0001005FE04A408A408DE08DE08A00AA00AA1
:1000D000A00AA00A31090F0A200A200ACE14F5143A
:1000E0007316F51473163D15601573163D165016EC
:1000F0009C1F9C1FAF1FAF1FA51FAF1FAF1FAF1FC0
:100100009C1F9C1FAA1FAF1FAF1FAA1F726D657295
:100110000A0A2B3439203137332032342031382049
:100120003531350A6D61696C4073746F65726D6548
:10013000722D636F6E73756C74696E672E64650AD9
:100140007777772E73746F65726D65722D636F6E3E
:1001500073756C74696E672E64650A0A00726D654A
:10016000722D636F6E73756C74696E670A44722EBC
:10017000205065746572205374000A0A2D2D0A0AF6
:10018000737400726D65720A0A00650A50657465C1
:100190007220537400467265756E646C696368659D
:1001A00020477200726D65720A0A00650A50657414
:1001B0006572205374006E652047720053636800B7
:1001C000650A50657465720A0A006E652047720000
:1001D0005363680005010906A101050719E029E735
:1001E00015002501950875018102950175088101A9
:1001F0000507190029FF150026FF009506750881DF
:1002000000050819012905950575019102950175EB
:10021000039101C009022200010100A0FA090400B3
:100220000001030101000921110100012240000722
:1002300005810308000A12010002000000081D8D5C
:100240009D9D0100010200010C034B00790072002A
:100250006900610000001003730070006C00690009
:1002600074004B00420000000403090400047F3FB7
:100270001F643214643214783C1E1E140A050000F8
:1002800000000500130009001A00140002540000C9
:10029000000007001700160015000400635D000051
:1002A00014590A00190006001B001D00E3002B6111
:1002B0002C41E2002900A80000000000000000001E
:1002C00000000D000F0018001C006A5D6B5D00004F
:1002D00000001000110008000C000B006C5D2802EB
:1002E00000000E00120037003600695D295D2861AC
:1002F0002A72E4006D5D2C00000000000000000088
:100300000000665D240025002600010001000000B9
:100310000000675D1E001F00200027006400010030
:100320000100685D2100220023000100010001009E
:1003300001000100010001000000000000000000B9
:1003400000001F024A0052004D000000655D0000E1
:1003500000003202500051004F0000006E5D0100AD
:100360004C002D02380030001E022D140100010047
:100370004C0001000100010000000000000000002E
:100380000000430040004100420001000100000065
:10039000000044003A003B003C0001000100010065
:1003A000010045003D003E003F000100010001004A
:1003B0000100010001000100000000000000000039
:1003C0000000010001000100010001000100000027
:1003D0000000010001000100010001000100010016
:1003E0000100010001000100010001000100010005
:1003F00001000100010001000000000000000000F9
:1004000000000100010001000100010001000000E6
:1004100000000100010001000100010001000100D5
:1004200001000100010001000100010001000100C4
:1004300001000100010001000000000000000000B8
:1004400000000100010001000100010001000000A6
:100450000000010001000100010001000100010095
:100460000100C35CC85CC65CCA5CC45C01000100DE
:100470000100010001000100000000000000FFAACF
:100480007F55402223252628292A2C2D2F30323330
:100490003536383A3B3D3E4042434547494A4C4E4B
:1004A0005051535557595A5C5E6062646668696B77
:1004B0006D6F71737577797B7D7F81838587898A7D
:1004C0008C8E90929496989A9C9E9FA1A3A5A7A883
:1004D000AAACAEAFB1B3B4B6B8B9BBBCBEBFC1C2B3
:1004E000C3C5C6C7C9CACBCCCDCED0D1D2D2D3D446
:1004F000D5D6D7D7D8D9D9DADADBDBDBDCDCDCDC64
:10050000DCDDDDDDDDDCDCDCDCDCDBDBDBDADAD931
:10051000D9D8D7D7D6D5D4D3D2D2D1D0CECDCCCBB3
:10052000CAC9C7C6C5C3C2C1BFBEBCBBB9B8B6B4D1
:10053000B3B1AFAEACAAA8A7A5A3A19F9E9C9A9861
:10054000969492908E8C8A89878583817F7D7B7932
:10055000777573716F6D6B6968666462605E5C5A13
:100560005957555351504E4C4A4947454342403ED6
:100570003D3B3A3836353332302F2D2C2A29282668
:100580002523220000000000000000000000000001
:100590000000000000000000000000010000380022
:1005A00000007800000000F68700ECFEFFFF8701E6
:1005B00000000000000000000000002A2B280000BE
:1005C0000000000000000000000000000000290002
:1005D0000000002C1E1F3221222332252630303607
:1005E000383724271E1F202122232425263736644E
:1005F00027642D140405060708090A0B0C0D0E0FBD
:10060000101112131415161718191A1B1D1C252D5D
:100610002635382E0405060708090A0B0C0D0E0FA7
:10062000101112131415161718191A1B1D1C246407
:1006300027304C0001010101010101010102020208
:10064000020202020202030303030303030304047E
:100650000404040404050505050506060606060748
:100660000707070708080808090909090A0A0A0B01
:100670000B0B0C0C0C0D0D0D0E0E0E0F0F0F1010A2
:100680001111111212131314141515161617171829
:100690001819191A1A1B1B1C1D1D1E1E1F20202194
:1006A0002222232424252626272829292A2B2C2DDB
:1006B0002D2E2F30313232333435363738393A3BFC
:1006C0003C3D3E3F404142434445464748494A4CF1
:1006D0004D4E4F50515354555658595A5B5D5E5FBD
:1006E000616264656668696B6C6D6F707273757753
:1006F000787A7B7D7E8082838587888A8C8E8F91B5
:10070000939596989A9C9EA0A2A3A5A7A9ABADAFDE
:10071000B1B3B5B7BABCBEC0C2C4C6C9CBCDCFD1C8
:10072000D4D6D8DBDDDFE2E4E7E9EBEEF0F3F5F871
:10073000FAFDFF0011241FBECFEFDAE0DEBFCDBF10
:1007400004B603FE27C08091040390910503A09195
:100750000603B09107038730904BA740B04BD1F40C
:1007600010920403109205031092060310920703DF
:1007700014BE84B7877F84BF0FB6F894A895809184
:100780006000886180936000109260000FBEE0E01E
:10079000F8E3099511E0A0E0B1E0E0E3FEE502C076
:1007A00005900D92A43AB107D9F723E0A4EAB1E08D
:1007B00001C01D92A430B207E1F70E94861A0C9482
:1007C000162F0C9400008F929F92AF92BF92CF92FF
:1007D000DF92EF92FF920F931F93CF93DF93CDB7EA
:1007E000DEB72A970FB6F894DEBF0FBECDBFFC016F
:1007F000D080118183819481892B39F01F3F39F496
:1008000091E02FEFD21203C003C091E001C090E04D
:1008100090FDA1C77F0185E0DE01169601900D9243
:100820008A95E1F7D70112962C918E819F81222320
:1008300049F00E940F1F082F682F8E819F810E9410
:10084000802103C00E945421082FE12FF0E0B8E07E
:100850000B9FE00DF11D1124A3E0EE0FFF1FAA95E1
:10086000E1F7ED0DF11DEE0FFF1FE258FD4F059171
:1008700014916801F801E356FD45D70112968C9159
:10088000EC30F10508F0E6C0EA5AFF4F0C94B02EA8
:10089000882389F08091B20285FD05C086EE0E9412
:1008A0006C2B84E119C085EE0E94842286EE0E94A2
:1008B0006C2B84E61CC084E10E94842284E60E94A2
:1008C0008422C7C38823E1F08091B20285FD08C06D
:1008D00086EE0E946C2B84E20E946C2B86EEEFCF9A
:1008E00085EE0E94842286EE0E946C2B87E20E9495
:1008F0006C2B86EE0E94842285EE0E946C2BA9C38D
:1009000084E20E94842287E2DACF882369F0809112
:10091000B20285FD05C085EE0E946C2B85E28AC07F
:1009200086E2EBCF811105C085E20E94842286E237
:10093000C6CF8091B20285FD05C086EE0E946C2B69
:1009400085E2CACF85EE0E94842286EE0E946C2B3F
:1009500086E2CDCF882389F08091B20285FD05C063
:1009600085EE0E946C2B84E265C085EE0E94842295
:1009700086EE0E946C2B80E3BACF84E23BC08823D2
:1009800059F08091B20285FD05C085EE0E946C2B66
:1009900083E250C082E2B1CF83E20E94842282E2ED
:1009A0008ECF8823A1F08091B20285FD0BC085E334
:1009B0000E94022385E3A1CF882361F08091B202D7
:1009C00085FD47C38EE20E9402238EE296CF85E327
:1009D0000E9484228EE273CF882359F08091B20264
:1009E00085FD05C085EE0E946C2B87E223C080E365
:1009F00084CF87E20E94842280E361CF882359F06C
:100A00008091B20285FD05C085EE0E946C2B81E2CB
:100A100011C080E272CF81E20E94842280E24FCF37
:100A2000882399F08091B20285FD08C085EE0E946E
:100A30006C2B88E30E946C2B85EE41CF85EE0E94E3
:100A4000842282E30E946C2B57CF88E30E94842289
:100A500082E335CF882369F0C801825E9C45059703
:100A600040F46EE1600F609319028CE090E00E9408
:100A7000242E17FF7EC0F7018281882309F479C0F4
:100A80000E941719869581708093A7019091190291
:100A9000913029F4882319F089E30E940223809180
:100AA000B2028093A6011092B202809119028130A5
:100AB00071F048F08230A1F08430C1F486EE0E94DB
:100AC000022388E111C082EE0E946C2B0FC088E1E6
:100AD00093E00E944B2988E193E00E94312906C0EF
:100AE00082EE0E946C2B87E50E9402238FE39CE933
:100AF0000197F1F700C000004801E89497F87CE006
:100B0000A72EB12CC4010A2C02C0969587950A9491
:100B1000E2F78F7096EF980F963010F0805D01C06D
:100B2000895A0E946C2894E0A91AB108ACEFAA1661
:100B3000AFEFBA0639F780911902813039F078F0B9
:100B4000823069F0843089F488E20DC08CE20E9422
:100B500002238091A701882341F089E304C082EE3B
:100B60000E94842202C00E9402238091A6018093E9
:100B7000B202F7018281882309F441C08091C20149
:100B8000882329F1C80190568115F0E29F0720F0D3
:100B9000905E8115904110F46801DD248091C101BF
:100BA000853060F4E82FF0E0EE0FFF1FEB54FE4FAE
:100BB000D182C0828F5F8093C10102C01092C201B6
:100BC0000E9497189093C0018093BF0142C20932DE
:100BD0008DE5180709F056C181E08093C2010E949B
:100BE00097189093C0018093BF011092C1018AE0D1
:100BF000E5EBF1E0DF011D928A95E9F716C0043FAD
:100C0000ECE51E0709F442C108F06DC1093D2CE571
:100C1000120709F45CC10A3D8CE5180709F45DC1AF
:100C2000083D9CE5190709F449C1F7018281882331
:100C300009F48FC1109203030230FCE51F0708F48A
:100C400071C106312CE5120730F0C8018B5F9C455D
:100C5000099708F067C10E94690E9093180280936B
:100C6000170200318CE5180709F4C3C008F041C031
:100C70000830ACE51A0709F49AC0F0F40430ECE54A
:100C80001E0709F487C068F402302CE5120709F446
:100C900077C003301C4509F0E5C0809117028260DF
:100CA00076C006309CE5190709F46EC008F07BC0D9
:100CB0008091170288606BC00C30BCE51B0709F4FB
:100CC00085C068F40A30FCE51F0709F474C008F019
:100CD00079C00E944B2280911702806858C00E3064
:100CE0008CE5180709F476C008F07FC080911702E0
:100CF0008BC00C3FACE51A0709F44FC018F503315F
:100D0000ECE51E0709F47DC078F401312CE51207EB
:100D100009F473C002311C4509F0A4C00E944B22A3
:100D2000809117028F7733C005319CE5190709F4CC
:100D300072C008F486C00B3F1C4509F093C0809137
:100D400018023EC00115EDE51E0709F45FC058F416
:100D50000E3F2CE5120709F444C008F43FC080910F
:100D6000180282602DC002309DE5190709F475C094
:100D700008F45DC003301D4509F074C060E06EC02A
:100D800080911702816003C0809117028061809377
:100D9000170268C08091170211C08091180282600A
:100DA000809318025FC0809117028062F0CF80911B
:100DB00017028064ECCF8091170288608460E7CFCF
:100DC0008160EECF809117028E7FE1CF8091170274
:100DD0008D7FDDCF80911702877FD9CF8091180258
:100DE00018C0809118028D7FDBCF809117028F7E13
:100DF000CECF809117028F7DCACF809117028F7B53
:100E0000C6CF80911702877F8B7FC1CF8091180258
:100E10008D7F8E7FC5CF8091170282FB222720F91C
:100E200091E0922790FB82F990FB83F9B0CF8091FB
:100E30001802982F909591708E7F892B90FB81F9E5
:100E4000AFCF0E944B228091170287FB222720F907
:100E500091E0922790FB87F99ACF61E08EE090E0D5
:100E60000E94242E609117021091180284E090E0F5
:100E70000E94242E612F82E290E00E94242E0E9484
:100E80004B22E7C0043FBCE51B0731F406E221EE2C
:100E900040EE64EF7CE517C0053FECE51E0708F067
:100EA0008FC3093DFCE51F0791F00A3D2CE51207B1
:100EB000A1F0083D8CE5180709F0BCCE06E221EE52
:100EC00041EE68ED7CE5C7010E944523C2C007E200
:100ED00025EE45EE69ED7CE5F6CF08E221E045EE32
:100EE0006AED7CE5F0CF063FACE51A0731F406E287
:100EF00021EE42EE66EF7CE5E6CF063FBCE51B0740
:100F000030F407E225EE44EE65EF7CE5DCCF073FE9
:100F1000ECE51E0709F089CE07E225EE46EE67EF05
:100F20007CE5D1CF0631FCE51F0709F040C0809178
:100F3000B2028A7A91E009F490E09093A8018823A4
:100F400011F065E301C069E283E492E00E94FD18BC
:100F50000EC00631ECE51E0769F48091A8018823D4
:100F600009F43BC365E383E492E00E94F0180E9419
:100F7000521E6FC08091B20282720D3CECE51E07DA
:100F800009F4C9C308F04DC0073C2CE5120709F469
:100F9000AEC308F033C3043CACE51A0709F49DC3A3
:100FA00008F01DC3033CECE51E0709F46CC3D70130
:100FB00012968C91882309F46CC00B35BDE51B0794
:100FC00051F158F40115FCE51F07B9F00F3D1C4520
:100FD00009F05FC00E947A0E3CC00C358DE5180701
:100FE000E1F00D351D4509F054C08091180282FBD7
:100FF000882780F991E0892711C00E944B22AFEF2A
:10100000B4E3ECE0A150B040E040E1F700C00000E4
:101010000E9432181EC081E001C080E00E947F1E45
:1010200038C0023D8CE5180709F485C308F40AC3EB
:10103000053D2CE5120709F484C308F417C3063DE7
:10104000BCE51B0709F482C30E35EDE51E0709F068
:10105000AECF8091AF02877009F47DC3D70112969D
:101060008C91882309F477C382E02A960FB6F8940E
:10107000DEBF0FBECDBFDF91CF911F910F91FF90CB
:10108000EF90DF90CF90BF90AF909F908F900C9497
:10109000FF21D70112968C9112970C9111961C91F9
:1010A000882349F0C8010E940F1FD82E682FC8015D
:1010B0000E94802104C0C8010E945421D82EE12F33
:1010C000F0E0B8E0DB9EE00DF11D112433E0EE0FFF
:1010D000FF1F3A95E1F7E00FF11DEE0FFF1FE258F9
:1010E000FD4F859194910E94F00C8C01982EF70190
:1010F000A280B580B2945FE0B5228091AF02877084
:1011000099F0AA2089F0812F807F803421F080E23D
:10111000800F883048F082E00E94FF218091AF026A
:101120008770DD24D3948111D12CC12EC2942FE07D
:10113000C2228C2D90E08C30910508F001C2FC0198
:10114000EE59FF4F0C94B02E812F807F1F708823A3
:1011500011F01295107FAA20B9F0112309F4DBC118
:1011600080E2800F883010F0911006C08091B202AA
:10117000182B1093B20205C08091B102182B109366
:10118000B1020E94521EC7C1802F0E9484221123E7
:1011900009F4D6C1005E1095083010F0911006C019
:1011A0008091B20218231093B20205C08091B1025F
:1011B00018231093B1020E94521EC2C1812F807F5A
:1011C0001F70803211F01295107F992021F0F1E00C
:1011D0009F1611F130C0AA20B1F0BB2081F021E0B0
:1011E000B2120DC08091180282FDAAC18091B30293
:1011F000182B181709F4A4C11093B302A1C1809150
:10120000B302812B10C0BB2021F081E0B81609F495
:1012100097C10E944C1E21C0AA2041F095E09B1569
:1012200008F48EC1812F0E947A228AC1A4E0AB15F6
:1012300008F486C112C0AA2019F0BB2099F36BC133
:10124000BB2059F0093309F078C1BFEFE7EEF3E0B6
:10125000B150E040F040E1F76EC1812F0E946F2253
:101260006FC1812F837009F069C0A1106DC1902FEB
:10127000929596959770990F990F802F8F70882E61
:10128000912CA12CB12C092E04C0880C991CAA1CED
:10129000BB1C0A94D2F704FF12C04FE050E060E09C
:1012A00070E004C0440F551F661F771F9A95D2F750
:1012B000DB01CA0180959095A095B09503C080E0B0
:1012C00090E0DC0116951695412F4370423019F1DC
:1012D000C8F40091A9011091AA012091AB013091AD
:1012E000AC01413059F088299929AA29BB29BC01B0
:1012F000CD0160237123822393230AC0802A912A7F
:10130000A22AB32ABC01CD01682979298A299B29FF
:101310000E943D2219C188299929AA29BB29009137
:10132000A9011091AA012091AB013091AC01BC013F
:10133000CD016027712782279327EACFAA2019F0D1
:10134000812F817001C08695882309F4FDC0902FFC
:10135000929596959770990F990F802F8F70882E80
:10136000912CA12CB12C092E04C0880C991CAA1C0C
:10137000BB1C0A94D2F704FF12C04FE050E060E0BB
:1013800070E004C0440F551F661F771F9A95D2F76F
:10139000DB01CA0180959095A095B09503C080E0CF
:1013A00090E0DC0116951695412F43704230D9F03C
:1013B00068F50091130210911402209115023091EA
:1013C0001602413059F088299929AA29BB29BC0164
:1013D000CD0160237123822393231EC0802A912A8A
:1013E000A22AB32A13C088299929AA29BB290091C6
:1013F0001302109114022091150230911602BC01C3
:10140000CD01602771278227932706C0BC01CD013B
:10141000682979298A299B290E94AB2195C01F70D0
:10142000AA2039F0812F0E941C22802F0E947A224C
:101430008BC0802F0E946F22812F0E94DA2184C0EE
:10144000802F22EF921629F1291538F090EF991686
:1014500059F0A1EF9A16C1F059C0B3EF9B1601F1F4
:10146000E4EF9E16A1F152C0AA2049F0F4E0FB156A
:1014700008F466C0812F8F710E94B92161C025E0F8
:101480002B1508F45DC0F6CFAA2029F0812F8F71AB
:1014900030C0AA20D9F3812F8F710E94DA2150C069
:1014A000AA2079F01F7181E090E0A0E0B0E0BC01DB
:1014B000CD0104C0660F771F881F991F1A95D2F7B8
:1014C00003C060E070E0CB010E94AB2139C0AA20CC
:1014D00099F01F71812F0E941C228091180282FDB9
:1014E00007C0A8E01A9FC001112483608093AF0257
:1014F000812F0E941C2224C081E00E94FF21B1E0C4
:10150000BB15F0F482E00E94FF211AC0AA2039F036
:10151000BB2009F4BBCF802F0E946C2B11C0BB20D5
:1015200009F4B9CF893349F4EFEFF7EE23E0E15046
:10153000F0402040E1F700C00000802F0E9484228C
:1015400088EF8C0D843010F40E941719DD20B1F063
:101550008091AF0280FD12C0D70112961C92859532
:10156000859585950E941C22C7010E94E303809106
:10157000AF028595859585950E94DA2185E0F70172
:10158000DE01119601900D928A95E1F789819A8189
:101590000E945421EA81F0E0B8E08B9FE00DF11D3C
:1015A000112483E0EE0FFF1F8A95E1F78981E80F90
:1015B000F11DEE0FFF1FE258FD4F85919491CBC0B6
:1015C000063F9CE5190709F492CC08F49ACC073F32
:1015D000BCE51B0709F4A0CC2DCB69E2C4CC053CCB
:1015E000FCE51F0709F47EC0063C2CE5120709F054
:1015F000DECC4EEE59E267EF79E291C00A3C9CE501
:10160000190709F47EC078F4083CBCE51B0709F40F
:1016100073C0093CECE51E0709F0C9CC42EE59E263
:1016200066ED79E27CC00B3CFCE51F0709F46EC057
:101630000C3C2CE5120709F0BACC4CE25AE26DE3FF
:101640007AE26DC00F3CACE51A0709F46EC008F4ED
:1016500069C0003DECE51E0709F46AC0013DFCE5E8
:101660001F0709F0A4CC6EE089E06DC0033D9CE546
:10167000190709F463C0043DACE51A0709F097CCDB
:1016800061E088E165C08091FC0280FF20C08E7F10
:101690008093FC026091FC027091FD028091FE0239
:1016A0009091FF020E941A2A0E94E7238091BC02B7
:1016B00081608093BC02FFEF20E782E0F150204080
:1016C0008040E1F700C000000E940924C2CC816084
:1016D0008093FC0261E086953BC049E55BE262E6EF
:1016E0007BE21DC042E65BE269E57BE218C047EFA2
:1016F00059E26EEE79E213C046ED59E262EE79E20C
:101700000EC04EEB59E26AEC79E209C04AEC59E2AC
:101710006EEB79E204C04DE35AE26CE27AE20E9499
:10172000E12397CC61E081E013C065E082E00BC06B
:1017300068E086E008C064E18FE005C067E185E10C
:1017400002C062E289E10E94CF2383CC61E083E2A0
:101750000E94192B7ECC2A960FB6F894DEBF0FBEDE
:10176000CDBFDF91CF911F910F91FF90EF90DF9050
:10177000CF90BF90AF909F908F90089580E0089594
:101780009091170292FF0DC0282F2871283019F46C
:10179000877F846006C0282F2471243011F48B7F4A
:1017A000886093FF0DC0282F2871283119F4877E97
:1017B000846106C0282F2471243111F48B7E886146
:1017C0002091180220FF0DC0382F3871383019F4DD
:1017D000877F816006C0382F3171313011F48E7FE0
:1017E000886021FF0DC0282F2871283119F4877EC9
:1017F000816106C0282F2171213111F48E7E88610C
:1018000094FD877E08957F928F929F92AF92BF92B0
:10181000CF92DF92EF92FF920F931F93CF93DF93BC
:101820001F92CDB7DEB7762E4A0159016801082F05
:10183000880F110BC8010E94582D892B09F07EC01A
:101840008AE0809FF001819FF00D1124EF5FFE4F31
:10185000458150E04115510511F041E050E08AE02A
:10186000809FF001819FF00D1124EF5FFE4F668194
:10187000778165507E4FCE0101960E940D2FF401B5
:1018800040815181628173812FB7F8948091CF019B
:101890009091D001A091D101B091D2012FBF841BB2
:1018A000950BA60BB70B84369105A105B10540F445
:1018B000B701C6010E94B8239981891709F440C075
:1018C000072D770C110BC8010E94582D892B09F5A3
:1018D000E114F10401F18AE0809FF001819FF00D95
:1018E0001124EF5FFE4F458150E0E416F50608F441
:1018F000A7018AE0809FF001819FF00D1124EF5F26
:10190000FE4F6681778165507E4FC5010E940D2F85
:1019100002C010E001C011E0B701C6010E94B82367
:1019200091E02981281390E0192381F00E948B18FF
:10193000F401608371838283938308C010E001C047
:1019400011E0A701B601C5010E940D2F812F0F9054
:10195000DF91CF911F910F91FF90EF90DF90CF908B
:10196000BF90AF909F908F907F9008958091C70116
:10197000811118C088EC9091E30097FD0AC0EFE355
:10198000FCE93197F1F700C000008150A1F782E037
:1019900001C081E08093C701823021F40E94DF16EC
:1019A0001092E00181E09091C701913009F080E050
:1019B0000895F894E82FE295EF70F0E031A1282F18
:1019C0002F7081E090E001C0880F2A95EAF7982FE8
:1019D0009095932391A392A1892B82A37894089543
:1019E000CF93DF938238910569F1B0F4813391058B
:1019F00009F46FC048F48932910509F465C08A3250
:101A0000910509F46BC06FC08533910509F457C087
:101A100089339105B9F067C0833E910571F138F4BF
:101A2000803E9105B1F0823E910511F15CC0863E89
:101A30009105B9F1873E9105C9F1843E910509F000
:101A400052C024C02091170220FD2AC121FD28C1C7
:101A50004AC08091170280FD1DC18091180280FF4D
:101A60001FC18091170284FD12C183EE90E02CC14A
:101A70008091170282FF11C1F4CF8091170282FD7D
:101A80000CC18091180280FD0BC1EBCF8091180230
:101A900081FF0CC18091170284FDF9C087EE90E0B0
:101AA00013C18091170283FFFEC0F4CF809117020B
:101AB00083FDF9C08091180281FDF8C0EBCF8091C1
:101AC000170285FDF6C0F8C08091170285FDF4C0AD
:101AD000F0C08091170286FDF2C0F4C08091170219
:101AE00086FDF0C0ECC0811523E59207A8F58115AD
:101AF00032E5930708F099C0811540E29407D0F4CD
:101B0000811521E0920708F0DFC0853A910550F475
:101B10008430910508F0D8C0019709F0B8C081E081
:101B200090E0D2C09C01205E31092830310508F0D8
:101B3000AEC0CAC0811531E5930708F071C08115A8
:101B400040E5940708F04EC0811520E4920708F4A0
:101B50009EC09F70906AB8C0EC01811536E593076E
:101B6000F0F4811545E5940708F078C0C11584E5C7
:101B7000D80708F06EC09E012370332781E090E003
:101B800002C0880F991F2A95E2F7C695C69520E2F4
:101B9000C29FE00111248C2B9D2B9A6895C0811562
:101BA0002AE5920778F4811539E5930708F05EC0BD
:101BB000811548E5940708F46AC0982F8827806F3C
:101BC000906A82C090568115904208F060C08D2FB7
:101BD0008F710E94C00B282F2F71CE019927906220
:101BE000922B72C09C0174E0369527957A95E1F7A7
:101BF000922F9370482F437021E030E002C0220FF3
:101C0000331F4A95E2F73C68392B8F70982F9695D1
:101C1000969540E2949FC0011124822B932B54C0CF
:101C2000982F8827816F906A4FC0AC014370552769
:101C300021E030E002C0220F331F4A95E2F786957B
:101C4000869540E2849FC0011124822B932B9C68CF
:101C50003BC09C2F8827846F906A36C00E94C00BBF
:101C60008F7190E0982F882790622EC08F700E940D
:101C7000C00B94E0D695C7959A95E1F7CF70D0E068
:101C8000DC2FCC27D0699E01282BC9011DC080E024
:101C900090E01AC089E390E017C082EE90E014C093
:101CA00080EE90E011C086EE90E00EC084EE90E0F1
:101CB0000BC089E290E008C085E390E005C08AE2AD
:101CC00090E002C081E390E0DF91CF9108950C9401
:101CD0008B18CF9384E090E00E94102EC82F82E2F0
:101CE00090E00E94102E2C2F30E0A901582BCA0141
:101CF000CF91089569EE7EEF80E090E00E94422E41
:101D000060E082E090E00E94242E60E083E090E0BA
:101D10000E94242E1092A9011092AA011092AB01E8
:101D20001092AC0160E084E090E00E94242E60E01C
:101D300082E290E00E94242E60E085E090E00E9424
:101D4000242E60E086E090E00E94242E6FEF87E072
:101D500090E00E94242E40E050E0BA0188E090E03C
:101D60000E94362E60E08DE090E00E94242E40E03C
:101D700050E0BA0188E190E00E94362E60E087E1F1
:101D800090E00E94242E40E050E0BA018CE190E007
:101D90000E94362E60E070E080E290E00E94422EC9
:101DA00040E050E0BA0188E190E00E94362E40E029
:101DB00050E0BA018FE090E00E94362E40E050E003
:101DC000BA0183E190E00C94362E7F928F929F921D
:101DD000AF92BF92CF92DF92EF92FF920F931F9339
:101DE000CF93DF93CDB7DEB72C970FB6F894DEBF55
:101DF0000FBECDBF9E012F5F3F4F790188E0D90113
:101E00001D928A95E9F70FE511E0690183E6882EB6
:101E100081E0982EAA24A394B12CF80180818F3FF1
:101E200009F448C0F894E82FE295EF70F0E021A1A2
:101E30008F70A50102C0440F551F8A95E2F7CA01B1
:101E4000922F982B91A392A18095892382A37894B5
:101E500000C0E7E6F1E020E030E0712C81918F3F97
:101E6000B9F0A82FA295AF70B0E090964C9150E0D9
:101E70008F70DA0102C0B595A7958A95E2F7A0FDAB
:101E800007C08A2D022E01C0880F0A94EAF701C00C
:101E900080E0782A2F5F3F4F28303105F9F6F801AE
:101EA00080818F3F11F00E94D90CF0EAFA95F1F78A
:101EB000D6017C920F5F1F4FBFEFCB1ADB0A801653
:101EC000910609F0AACF48E050E0B7018DE192E019
:101ED0000E94002F8C01892B41F088E0F701ADE1D1
:101EE000B2E001900D928A95E1F7F090260201157B
:101EF000110549F081E08093AF010E9497189093FB
:101F0000AE018093AD018091AF018823B9F080913B
:101F1000AD019091AE010E947C18059778F0ADE17B
:101F2000B2E0EF2DF0E0E75DFD4F81E292E02D9110
:101F300021938A179B07D9F71092AF01011511055C
:101F400009F0F4C20E94B60CE0912602882309F43D
:101F500044C219861A861B861C860E2F10E0075D68
:101F60001D4F80911202FE013D967F018A3058F488
:101F700043E45AE1BE01675F7F4FC8010E940B1E18
:101F8000882361F10AC08091B0019091B1010E9453
:101F90007C18843F914060F732C04DEE59E1BE019C
:101FA000675F7F4FC8010E940B1E8823B9F043E989
:101FB00059E1BE01675F7F4FC8010E940B1E882355
:101FC00069F047E259E1BE01675F7F4FC8010E9497
:101FD0000B1E882319F01092120219C08091120270
:101FE0008F3F19F08F5F80931202809112028A3026
:101FF00070F00E9497189093B1018093B001E09126
:102000002502F0E0E75DFD4FDE01199613C0E09177
:102010002502F0E0E75DFD4FDE01199600E08D91AD
:102020009081981711F0808301E03196AE15BF05BD
:10203000B1F706C011921D92EA16FB06D9F701E02E
:102040008091B401882371F08091B2019091B30125
:102050000E947C18833E944028F080EE0E948422E7
:102060001092B4018091C201882309F461C2809169
:10207000C101882309F45CC28091BF019091C00125
:102080000E947C18853F914008F452C21092C20110
:102090008091B5019091B6010497D9F48091B70170
:1020A0009091B801892BA9F48091B9019091BA015E
:1020B000892B79F48091BB019091BC01892B49F463
:1020C0008091BD019091BE01892B19F484E30E9497
:1020D00002238091B5019091B6014297D9F4809185
:1020E000B7019091B801892BA9F48091B901909121
:1020F000BA01892B79F48091BB019091BC01892BA5
:1021000049F48091BD019091BE01892B19F483E3BC
:102110000E9402238091B5019091B6014897D9F4AD
:102120008091B7019091B801892BA9F48091B901F0
:102130009091BA01892B79F48091BB019091BC01F7
:10214000892B49F48091BD019091BE01892B19F42E
:102150008FE20E9402238091B5019091B6014697CB
:10216000D9F48091B7019091B801892BA9F480919D
:10217000B9019091BA01892B79F48091BB019091BA
:10218000BC01892B49F48091BD019091BE01892B3E
:1021900019F48DE20E9402238091B5019091B6015D
:1021A000C79721F58091B7019091B801892BF1F47F
:1021B0008091B9019091BA01892BC1F48091BB0142
:1021C0009091BC01892B91F48091BD019091BE0149
:1021D000892B61F482EE0E946C2B8CE30E94022317
:1021E00082EE0E94842281E10E9402238091B50147
:1021F0009091B6010F97D9F48091B7019091B801F1
:10220000892BA9F48091B9019091BA01892B79F4B5
:102210008091BB019091BC01892B49F48091BD0153
:102220009091BE01892B19F483E00E94B92180911D
:10223000B5019091B601409769F58091B7019091F1
:10224000B801479739F58091B9019091BA01892B6E
:1022500009F58091BB019091BC01892BD9F4809143
:10226000BD019091BE01892BA9F480ED91E00E94FF
:10227000D22883E30E9402238AEC91E00E94D228B4
:102280008FE20E9402238DE20E94022380EC91E003
:102290000E94D2288091B5019091B6014097A1F596
:1022A0008091B7019091B801469771F58091B9017D
:1022B0009091BA01892B41F58091BB019091BC01AD
:1022C000892B11F58091BD019091BE01892BE1F41C
:1022D0008CEB91E00E94D22883E30E94022386EBDC
:1022E00091E00E94D2288FE20E9402238DE20E9498
:1022F00002238BEA91E00E94D22883E30E9402230A
:1023000084EA91E00E94D2288091B5019091B601B3
:10231000409769F58091B7019091B801459739F5DB
:102320008091B9019091BA01892B09F58091BB0187
:102330009091BC01892BD9F48091BD019091BE018F
:10234000892BA9F485E991E00E94D2288FE20E94AE
:1023500002238DE20E9402238AE891E00E94D228A3
:1023600083E30E94022383E891E00E94D2288091B7
:10237000B5019091B601409709F0DAC08091B7019C
:102380009091B8014A9709F0D3C08091B90190911A
:10239000BA01892B09F0CCC08091BB019091BC019E
:1023A000892B09F0C5C08091BD019091BE01892B98
:1023B00009F0BEC08AE791E00E94D22883E30E9420
:1023C00002238DE591E00E94D22883E30E9402233C
:1023D0008CE091E00E94D228ABC0F0E0E75DFD4FB9
:1023E000F89484E0ACEFB1E001900D928A95E1F7AA
:1023F00064E070E08CEF91E00E94B8238093FB01D1
:102400007894F894E0913702F0E0EC5CFD4F808125
:1024100089878093010261E070E0CE0109960E94F5
:10242000B823809300027894F894C0900202D09070
:102430000302E0900402F09005028091C3019091A4
:10244000C401A091C501B091C601C816D906EA061B
:10245000FB06D1F0C092C301D092C401E092C50145
:10246000F092C6010E94B60C81110EC00E948B181A
:10247000C61AD70AE80AF90AC092CA01D092CB015B
:10248000E092CC01F092CD017894F89480910D0205
:10249000882309F449C080FF24C0909106028091EE
:1024A000FC0290FF09C081608093FC0260E0892FEC
:1024B00086950E94192B15C08E7F8093FC020E9486
:1024C000E7238091BC0281608093BC024FEF50E70C
:1024D00082E0415050408040E1F700C000000E947F
:1024E000092480910D0281FF09C020E0409109027A
:1024F00060910802809107020E94EE2680910D02F1
:1025000082FF09C080910C02882319F00E94EE23FB
:1025100002C00E94E72380910D0283FF03C081E087
:102520008093B70210920D02789402C001E010E08F
:10253000802F2C960FB6F894DEBF0FBECDBFDF9173
:10254000CF911F910F91FF90EF90DF90CF90BF90B0
:10255000AF909F908F907F900895982F973068F557
:102560009093E900981739F05091EC002091ED001C
:102570004091F00003C0562F40E022E021FD02C050
:102580009F5FECCF3091EB003E7F3093EB003091BA
:10259000ED003D7F3093ED003091EB0031603093E2
:1025A000EB005093EC002093ED004093F00020915D
:1025B000EE0027FDE5CF80E008958F708093E9005D
:1025C00081E008952091E4003091E50095E6409186
:1025D000EC00842F817040FF23C08091E80080FDD3
:1025E0001DC08091E001882399F0853099F0809199
:1025F000EB0085FD11C04091E4005091E5002417E7
:10260000350729F3915011F09A01E1CF84E0089544
:1026100082E0089583E0089581E0089580E00895C0
:102620004091E80042FFDDCF08950F931F93CF93B1
:10263000DF938C010E94E212811118C0E80108E0CA
:1026400010E08091E80085FD0AC08091E8008E7757
:102650008093E8000E94E212882399F307C08991D1
:102660008093F1000150110961F780E0DF91CF9173
:102670001F910F9108958091E20187FF11C0809111
:10268000E80082FD05C08091E0018111F8CF11C002
:102690008091E8008B770BC08091E001882349F09E
:1026A0008091E80080FFF8CF8091E8008E778093DA
:1026B000E80008952091E8013091E90126173707D5
:1026C00048F06115710539F42091E8002E772093C8
:1026D000E80001C0B901FC0120E06115710579F144
:1026E0008091E0018823F1F18530F1F18091E800DB
:1026F00083FD3CC08091E80082FD2EC08091E800FF
:1027000080FFEBCF2091F3008091F20090E0922BBC
:102710006115710551F08830910538F421912093AD
:10272000F100615071090196F3CF21E0089709F09B
:1027300020E08091E8008E778093E800CECF2111D1
:10274000CFCF0AC08091E001882361F0853061F02D
:102750008091E80083FD0AC08091E80082FFF2CFFB
:1027600080E0089582E0089583E0089581E008956F
:102770000895089508958091D5010895CF93DF932A
:1027800021E02093E9002FEF3091E800215035FD42
:1027900006C035ED3A95F1F700002111F5CF2091F3
:1027A000E80025FF14C0EC0140E050E068E070E074
:1027B0000E9415138091E8008E778093E80088E0EE
:1027C000FE01A6EDB1E001900D928A95E1F7DF914F
:1027D000CF9108951F93CF93DF93CDB7DEB7AA971C
:1027E0000FB6F894DEBF0FBECDBFE2EEF1E08091F0
:1027F000F100819321E0EA3EF207C9F78091E301FD
:10280000833009F460C030F4813071F0823009F413
:102810009AC0B1C08A3009F486C08B3009F46BC00D
:10282000893009F0A8C020C08091E201813A09F006
:10283000A2C08091E800877F8093E8008091E60144
:102840009091E701892B21F468E086ED91E003C0C7
:1028500060E080E090E070E00E945A138091E80010
:102860008B778093E80087C08091E201813209F084
:1028700082C08091E6019091E701892B09F07BC02D
:102880008091E800877F8093E8008091E80082FDD6
:1028900005C08091E0018111F8CF6DC02091F30057
:1028A0008091F20090E0922B029729F48091F10040
:1028B0008B7F813021F48091F1008093D50180914C
:1028C000E8008B7754C08091E201813A09F053C04F
:1028D0008091E6019091E701892B09F04CC080912D
:1028E000E800877F8093E8008091E80080FFFCCFBC
:1028F0008091000137C08091E2018132E1F5809141
:10290000E6019091E701892BB1F58091E800877F7E
:102910008093E8000E943B138091E40180930001C2
:102920000E944B2228C08091E201813221F58091E2
:10293000E800877F8093E8000E943B138091E501C7
:102940008093D40118C08091E201813AA1F4809172
:10295000E800877F8093E8008091E80080FFFCCF4B
:102960008091D4018093F1008091E8008E7780936C
:10297000E8000E943B138091E80083FFB4C180917E
:10298000E2019091E301492F50E04A30510508F0EF
:10299000AAC1FA01E259FF4F0C94B02E803821F001
:1029A000823809F0A0C108C08091DE019091DF015A
:1029B000992389F082600FC08091E6018F70873083
:1029C00008F091C18093E9008091EB0085FB882796
:1029D00080F91092E9009091E800977F9093E800C9
:1029E0008093F1001092F10053C1282F2D7F09F040
:1029F0007AC1882319F0823061F075C18091E401B9
:102A0000813009F070C1933009F080E08093DF01DC
:102A10002EC08091E40181112AC08091E6018F705F
:102A20002FEF280F263008F05EC18093E900209137
:102A3000EB0020FF1CC0933021F48091EB008062FA
:102A400014C09091EB0090619093EB0021E030E096
:102A5000A90102C0440F551F8A95E2F74093EA008E
:102A60001092EA008091EB0088608093EB00109256
:102A7000E9008091E800877F0EC1811134C1109177
:102A8000E4011F778091E3008078812B8093E3003D
:102A90008091E800877F8093E8000E943B1380913B
:102AA000E80080FFFCCF8091E30080688093E30022
:102AB000111102C082E001C083E08093E00113C1E4
:102AC0008058823008F00FC18091E4019091E501B7
:102AD0008C3D53E0950779F583E08A838AE2898308
:102AE0004FB7F894DE01139620E03EE051E2E32F69
:102AF000F0E050935700E49120FF03C0E295EF709F
:102B00003F5FEF708E2F90E0EA3010F0C79601C063
:102B1000C0968D939D932F5F243149F74FBF8091CD
:102B2000E800877F8093E8006AE270E0CE010196BA
:102B30000E945A139CC04091E6015091E701292F51
:102B4000332723303105A9F068F42130310509F429
:102B5000D9C02230310509F0C6C082E290E0E4E13C
:102B6000F2E032C02132310521F12232310529F162
:102B7000BAC0992781309105A1F058F0029709F069
:102B8000B2C0E8E4F2E0E4918E2F90E0E8E4F2E0F5
:102B900018C0E8E6F2E0E4918E2F90E0E8E6F2E07B
:102BA00010C0E6E5F2E0E4918E2F90E0E6E5F2E079
:102BB00008C0452B09F4ABC096C0452B09F4ACC046
:102BC00092C0009709F48FC02091E800277F2093DE
:102BD000E8002091E8013091E9018217930708F499
:102BE0009C0140E02115310589F18091E0018823A5
:102BF00009F43DC08530D9F18091E80083FD37C0EC
:102C00008091E80082FD2FC08091E80080FFEACF2C
:102C10004091F3008091F20090E0942B2115310552
:102C200059F08830910540F444914093F100319679
:102C3000215031090196F2CF41E0089709F040E0B8
:102C40008091E8008E778093E800CCCF4111CDCF02
:102C50000AC08091E001882351F0853041F08091D5
:102C6000E80083FD04C08091E80082FFF2CF8091EC
:102C7000E8008B778093E80036C08038A1F580911A
:102C8000E800877F8093E8008091E1018093F10064
:102C90008091E8008E778093E8000E943B1323C068
:102CA000811121C08091E4019091E501992702975B
:102CB000D4F48091E800877F8093E8001091E401CC
:102CC0001093E1010E943B13111106C08091E300B3
:102CD00087FD02C081E001C084E08093E00161ECE7
:102CE00081E00E94AD128091E80083FF1AC08091BC
:102CF000E800877F8093E8008091EB0080628093FA
:102D0000EB000FC082E190E0E6E3F2E05DCF89E006
:102D100090E0E6E2F2E058CF80E490E0E4EDF1E00C
:102D200053CFAA960FB6F894DEBF0FBECDBFDF918A
:102D3000CF911F9108951F920F920FB60F921124F9
:102D40002F933F934F935F936F937F938F939F93B3
:102D5000AF93BF93CF93DF93EF93FF93C091E900BD
:102D6000CF708091EC00D82FD17080FDD0E8109208
:102D7000E9008091F000877F8093F00078940E94B2
:102D8000EA131092E9008091F00088608093F000CF
:102D9000CD2BCF70C093E900FF91EF91DF91CF91E0
:102DA000BF91AF919F918F917F916F915F914F9163
:102DB0003F912F910F900FBE0F901F901895E8ED47
:102DC000F0E080818E7F80831092E2001092DA0022
:102DD0001092E100A0EEB0E08C9181608C93808134
:102DE0008F77808319BCA7EDB0E08C918E7F8C9398
:102DF00080818F7E80831092D3010895CF92DF92DD
:102E0000EF92FF920F931F93CF93DF93C8EDD0E023
:102E100088818F7E8883E7EDF0E080818160808308
:102E200084E082BF81E08093D30188818E7F888394
:102E300002EE10E0F80110821092DA0081EEC82E46
:102E4000D12CF601108288818F77888388818068F1
:102E5000888388818F7D888319BC1092E00110924D
:102E6000E1011092DF011092DE0190EEE92EF12CCB
:102E7000F70180818B7F808388818160888360E017
:102E800080E00E94AD12F60180818E7F8083F80180
:102E9000808181608083808188608083F701808168
:102EA0008E7F8083888180618883DF91CF911F919D
:102EB0000F91FF90EF90DF90CF9008951F920F92A7
:102EC0000FB60F9211242F933F934F935F936F93FD
:102ED0007F938F939F93AF93BF93EF93FF938091D3
:102EE000E10082FF09C08091E20082FF05C080916D
:102EF000E1008B7F8093E1008091DA0080FF2AC09F
:102F00008091D80080FF26C08091DA008E7F809368
:102F1000DA008091D90080FF18C080E189BD82E18C
:102F200089BD09B400FEFDCF81E08093E00180916E
:102F3000D30181110FC00E94DF160E94FE168091FE
:102F4000E20084608093E20005C019BC1092E001A9
:102F50001092D3018091E10080FF17C08091E200C0
:102F600080FF13C08091E2008E7F8093E200809109
:102F7000E20080618093E2008091D80080628093BB
:102F8000D80019BC85E08093E0018091E10084FFC6
:102F90002EC08091E20084FF2AC080E189BD82E1D9
:102FA00089BD09B400FEFDCF8091D8008F7D80934C
:102FB000D8008091E1008F7E8093E1008091E20053
:102FC0008F7E8093E2008091E20081608093E20036
:102FD0008091E101882311F084E007C08091E30033
:102FE00087FD02C081E001C083E08093E001809111
:102FF000E10083FF26C08091E20083FF22C0809120
:10300000E100877F8093E10082E08093E0011092ED
:10301000E1018091E1008E7F8093E1008091E200E8
:103020008E7F8093E2008091E20080618093E200D5
:1030300060E080E00E94AD128091F0008860809393
:10304000F000FF91EF91BF91AF919F918F917F9190
:103050006F915F914F913F912F910F900FBE0F9005
:103060001F90189581E08093E00080E28093D80063
:103070001092C9008FE19EE40197F1F700C00000B3
:1030800087E090EBDC018093040390930503A09309
:103090000603B09307039CE088E10FB6F894A89567
:1030A000809360000FBE90936000FFCF78941F92D2
:1030B0000F920FB60F9211248F939F93AF93BF93EC
:1030C0008091CF019091D001A091D101B091D20116
:1030D0000196A11DB11D8093CF019093D001A093C3
:1030E000D101B093D201BF91AF919F918F910F9079
:1030F0000FBE0F901F9018959C014FB7F8948091C8
:10310000CF019091D001A091D101B091D2014FBFD8
:10311000821B930B08952FB7F8946091CF017091A3
:10312000D0018091D1019091D2012FBF08952FB786
:10313000F8948091CF019091D001A091D101B091EC
:10314000D2012FBF08951F920F920FB60F92112434
:103150008F939F93AF93BF938091CE01811113C042
:103160008091CF019091D001A091D101B091D20175
:103170004196A11DB11D8093CF019093D001A093E2
:10318000D101B093D201BF91AF919F918F910F90D8
:103190000FBE0F901F9018950F931F930E94B60CAF
:1031A000882321F01F910F910C948B180E948B188B
:1031B0000091CA011091CB012091CC013091CD0139
:1031C000600F711F821F931F1F910F9108950E941E
:1031D000B60C81110C9497180E94CC18CB0108955D
:1031E0009C012A5F3F4FFC014281461301C01282BD
:1031F000019682179307B9F708959C01FC01329656
:103200009FEF80E04191461789F09F3F19F44111EB
:1032100001C0982F8F5F8630A9F79F3F39F0F901E1
:10322000E90FF11D97FDFA956283089508950E94B4
:10323000B60C882351F0E091C801F091C901309794
:1032400021F00190F081E02D099480E00895CF9362
:10325000DF93CDB7DEB728970FB6F894DEBF0FBE69
:10326000CDBF85E0ECEFF2E0DE01119601900D920A
:103270008A95E1F78091BA029091BB02A091BC02BD
:103280008E839F83A887288540910E0250910F025C
:1032900060911002709111023FB7F8948091CF01B4
:1032A0009091D001A091D101B091D2013FBF841B78
:1032B000950BA60BB70B84369105A105B10510F44B
:1032C000222329F1809136019091370185509E4F3C
:1032D0004091350150E04930510510F048E050E090
:1032E000BE016F5F7F4F0E940D2F85E090E00E942E
:1032F000582D892B11F080E00DC00E948B1860932F
:103300000E0270930F02809310029093110210929C
:10331000BC0281E028960FB6F894DEBF0FBECDBF89
:10332000DF91CF910895CF93DF9300D000D0CDB738
:10333000DEB74091F7015091F8016091F901709169
:10334000FA012FB7F8948091CF019091D001A0910C
:10335000D101B091D2012FBF841B950BA60BB70BE7
:1033600084369105A105B10580F10E94CC18DC01DD
:10337000CB010296A11DB11D89839A83AB83BC83C7
:1033800080912C0190912D0185509E4F40912B01F1
:1033900050E04530510510F044E050E0BE016F5F51
:1033A0007F4F0E940D2F84E090E00E94582D892BC2
:1033B00011F080E00BC00E948B186093F7017093AE
:1033C000F8018093F9019093FA0181E00F900F903A
:1033D0000F900F90DF91CF910895CF92DF92EF92EF
:1033E000FF920F931F93CF93DF931F92CDB7DEB75A
:1033F000EE24E394F12C01E012E09E012F5F3F4F99
:1034000043EF51E063E082E00E94030CC82E882362
:1034100079F1D09028028D2D90E09C012C5C3D4FDD
:1034200079011981F9018081181B012F80E01016A4
:103430005CF40150F70180818F5F808360E08D2D07
:103440000E94642981E0F3CF912F17FD90E0191BB2
:10345000112359F01F5FF70180818150808361E063
:103460008D2D0E94642981E0F3CF81110E94670EA7
:103470008C2D0F90DF91CF911F910F91FF90EF90C6
:10348000DF90CF900895CF92DF92EF92FF920F934B
:103490001F93CF93DF9300D000D0CDB7DEB76B0181
:1034A00084E0E82EF12C0CEF11E09E012F5F3F4FDE
:1034B0004FEE51E061E080E00E94030C882361F050
:1034C00049815A816B817C814093EB015093EC01DF
:1034D0006093ED017093EE014091EB015091EC018E
:1034E0006091ED017091EE01F6014083518362839A
:1034F00073830F900F900F900F90DF91CF911F91DA
:103500000F91FF90EF90DF90CF900895CF93DF93CE
:10351000CDB7DEB72A970FB6F894DEBF0FBECDBF8A
:1035200084B7877F84BF0FB6F894A8958091600018
:10353000886180936000109260000FBE90E080E888
:103540000FB6F89480936100909361000FBE85B729
:10355000806885BF85B7806885BF8EEB9BE09093C0
:10356000A5018093A4010E94DF160E94FE1680919F
:10357000E20084608093E20078948091E0018823E7
:10358000A1F01091E9001F709091EC00892F8170DB
:1035900090FD80E8182B1092E9008091E80083FDEF
:1035A0000E94EA131F701093E90082E084BD93E04B
:1035B00095BD9AEF97BD80936E001092CA0110924C
:1035C000CB011092CC011092CD010E94B60C8093D9
:1035D0003D0180913D01882321F0109258018AE03D
:1035E00003C08AE080935801809359010E94B60C71
:1035F00081110E944B2C80913D0180913D018111F0
:1036000002C094E001C090E09093260284E0891B00
:10361000809325020FE511E093E6E92E91E0F92E63
:10362000F80181918F018F3F11F00E94D90CE016B3
:10363000F106B1F707E611E08FE6E82E81E0F82EFB
:10364000F80181918F018F3F11F00E94D90CE01693
:10365000F106B1F7EDE1F2E085E292E0A9E2B2E035
:1036600011921D928E179F07D9F780E090E00E947B
:103670001E2E893E9E4F11F00E947A0E82E090E04D
:103680000E94102E80933A020E94690E90931802B5
:10369000809317020E94E50E8FE39CE90197F1F7F2
:1036A00000C000000E94E50E8091290280FF08C042
:1036B0006FEF7FEF80E090E00E94422E0E94321870
:1036C00083E090E00E94102E682F70E080E090E090
:1036D0000E943D228CE090E00E94102E90E0A0E03D
:1036E000B0E08093190290931A02A0931B02B0934A
:1036F0001C020E94B60C811102C00E944E2C8091C7
:10370000270281113BC080E090E00E941E2E893E7E
:103710009E4F21F00E947A0E0E944E2A88E090E08F
:103720000E94182E6093FC027093FD028093FE02AB
:103730009093FF028091BC0283608093BC026E7FF5
:1037400071F40E944E2A88E090E00E94182E609347
:10375000FC027093FD028093FE029093FF020E9490
:10376000002A0E94E7238091FC0280FF04C060E0F1
:1037700086950E94192B81E08093270280913D015C
:10378000811106C085E38093490186E68093480154
:1037900020914901E22FE295EF70F0E031A12F7006
:1037A00081E090E0AC01022E01C0440F0A94EAF7D8
:1037B000542F5095352331A332A1432B42A340917E
:1037C0004801A42FA295AF70B0E091963C919197DB
:1037D0004F70042E01C0880F0A94EAF7982F909535
:1037E000932391969C93919792969C919297892B73
:1037F00092968C93929780A190E002C095958795C0
:103800002A95E2F7817090962C9130E002C03595B0
:1038100027954A95E2F720FD02C090E001C092E0B2
:10382000892B8093380290913D0181E098279093F5
:103830003702891B809328028EE391E09093C9019F
:103840008093C801F8E1EF2EF12CA0E46A2EB1E3D9
:10385000CB2EB2E0DB2E10E1712E8091E00185309D
:1038600009F03EC012E18091E001853009F034C0DA
:103870008091E001843009F11092CE010FB6F894E6
:10388000A895E09260000FBE6092600083B7817FD0
:10389000846083BF83B7816083BF7894889583B742
:1038A0008E7F83BF0FB6F894A895809160008861E1
:1038B00080936000109260000FBE8091DF0188232A
:1038C00091F20E94E50EE9E2F2E0819181118DC151
:1038D000CE16DF06D1F7C7CF0E944B220E941719E0
:1038E0000E94E50E81110E948B18EBE3F2E0A9E241
:1038F000B2E000E010E0802E9D908191892549F191
:10390000A12CBB24B394982F9B21F1F00E94B60CFC
:10391000882399F0A9828A829B2081E009F480E0C3
:103920008B830E9497188160782F9D838C834981B7
:103930005A816B818D810E94C427F801E55CFD4F9F
:103940008081B826B0821AC0A394BB0C28E0A212D2
:10395000DACF0F5F1F4F0830110569F68FEF8E83A6
:103960008F8318860E9497188160782F9A8789879D
:103970004E815F8168858A850E94C4278091BB0241
:10398000882309F4BDC08091BA02E091FC02E6955B
:10399000E81BE093B602823059F4F0E0E658FD4FA0
:1039A000E4910E2F10E0E1E3AE2EE3E2BE2E59C00B
:1039B000863059F4F0E0E958FD4FE4910E2F10E005
:1039C00071E2A72E73E2B72E4CC0893061F4E69500
:1039D000F0E0EC58FD4FE4910E2F10E065E5A62EC7
:1039E00066E2B62E3EC08F3061F4E695F0E0EF5807
:1039F000FD4FE4910E2F10E056EBA52E55E2B52EAB
:103A000030C0853159F4F0E0E259FD4FE4910E2FBA
:103A100010E04DE2A42E45E2B42E23C08831A1F07F
:103A2000833249F4ECE6F2E0059114913EEAA32ECC
:103A300036E2B32E16C0843271F404EF11E025E5AE
:103A4000A22E24E2B22E0DC008E210E097E9A92EC2
:103A500094E2B92E06C000ED17E080E2A82E83E2C2
:103A6000B82E8091B702882361F01092B7020E94AD
:103A7000E7189093B5028093B4021092B9021092A5
:103A8000B8020E94E718E091B402F091B5029C01DF
:103A90002E1B3F0B2F3F3F4798F5209133022223E7
:103AA000B1F0109233022091310230913202821B28
:103AB000930B8F3F9F4758F4205D3A483093320272
:103AC000209331028091BC0288608093BC02809078
:103AD000B8029090B9020E0F1F1F1093B502009309
:103AE000B40284EB92E0F50109958091B8029091BF
:103AF000B902892B29F4892819F081E080933302D7
:103B0000E09138025E2F550F550F20914901E22FA9
:103B1000E295EF70F0E080A190E02F7002C09595E3
:103B200087952A95E2F78170992740914801E42F03
:103B3000E295EF70F0E020A130E04F7002C03595C3
:103B400027954A95E2F7F901E170FF2720FF02C0AF
:103B5000E2E0F0E0E82BF92BE52BE093380210913E
:103B60003702EF70F0E0E159FE4F9081809136020C
:103B7000890F8093360284306CF0E12FF0E0EC5C2A
:103B8000FD4F80818F5F808360E0812F0E946429D8
:103B900021E001C020E0809136028D3F64F4E12FE6
:103BA000F0E0EC5CFD4F80818150808361E0812FEB
:103BB0000E94642921E080913602082E000C990BA6
:103BC00064E070E00E947A2E8093360221110E94F8
:103BD000670E0E94171990913902891709F43DCE9A
:103BE0000E9417198093390238CE79BC19BD09B4E7
:103BF00000FEFDCF8091D8008F7D8093D80080910A
:103C0000E00082608093E0008091E00081FDFCCFC5
:103C10000E944B2228CEAF92BF92CF92DF92EF92BA
:103C2000FF920F931F93CF93DF937C015B016A0197
:103C3000809112028A3018F001E010E002C00AE020
:103C400010E0C1E0D0E0F894B501C701F601099594
:103C50007894811115C021960C171D0794F0CC9F04
:103C60009001CD9F300D300D112480E090E045E3B0
:103C70004A95F1F70000019682179307C1F7E3CF49
:103C800081E0DF91CF911F910F91FF90EF90DF9036
:103C9000CF90BF90AF9008958091B30281111092A0
:103CA000B30208959091B2028091B102892B2091C4
:103CB000B002982F922B909343028091B3028823F5
:103CC00089F0892B80934302E5E4F2E097E080E0FD
:103CD000915029F021912223D9F38F5FF9CF8111DF
:103CE0000E944C1EE091C801F091C901309731F05B
:103CF0000280F381E02D83E492E009940895CF934C
:103D0000C0911802C2FB992790F9981781F080FBA7
:103D1000C2F9C09318026091170284E090E00E94FB
:103D2000242E6C2F82E290E0CF910C94242ECF9120
:103D300008958091AE0290917D02891719F08F5FEE
:103D40008770FBCF08950F931F93CF93DF938091DC
:103D50007C0282958F7009F05DC080917902882382
:103D600009F458C08091AE0210917D0260917702F3
:103D700070917802C0917A02D0917B0291E06F3FFE
:103D800009F090E0292F06E0811709F443C020973D
:103D900021F07F3F21F030E003C031E001C0322F3D
:103DA00090E030FD34C0089FF001099FF00D112410
:103DB000DF01A258BD4F11963C911197371327C0D0
:103DC0003C91361324C012963C91129731111FC0BA
:103DD00013964D915C9114974C1B5D0B4F3A510516
:103DE000B0F480917C028F70806180937C02ED57EB
:103DF000FD4F80818F708061808387E792E00E9411
:103E0000E303DF91CF911F910F910C94991E0196BE
:103E10008770BACFDF91CF911F910F9108958F9244
:103E20009F92AF92BF92EF92FF920F931F93CF9307
:103E3000DF938090130290901402A0901502B0902E
:103E400016024091A9015091AA016091AB017091B5
:103E5000AC01842A952AA62AB72ACFE1D0E0E92E20
:103E6000F12C082F10E0D501C4010C2E04C0B6952A
:103E7000A795979587950A94D2F780FD04C021975E
:103E800090F780E01AC0FE0183E0EE0FFF1F8A95D5
:103E9000E1F7EE0DFF1D93E0EE0FFF1F9A95E1F79E
:103EA000E00FF11FEE0FFF1FE258FD4F8591949137
:103EB0000E94F00C019719F38C2FDF91CF911F9185
:103EC0000F91FF90EF90BF90AF909F908F900895CB
:103ED000CF93DF93D82FC92F0E940F1FEC2FF0E054
:103EE00098E0899FE00DF11D112483E0EE0FFF1F84
:103EF0008A95E1F7ED0FF11DEE0FFF1FE258FD4F20
:103F0000859194910E94F00CDF91CF910895FC016E
:103F1000808191810E94681F292F2F70E92FE295DF
:103F2000EF704E2F50E0FA013297EE30F105B8F401
:103F3000E858FF4F0C94B02E803F99F018F4883E5B
:103F400070F40FC0843F59F40CC0883E50F0813F9C
:103F500031F407C0822F869586958695089580E076
:103F6000089581E008959F92AF92BF92CF92DF9221
:103F7000EF92FF920F931F93CF93DF93CDB7DEB7EE
:103F800061970FB6F894DEBF0FBECDBF8C0185E000
:103F9000F801DE011D9601900D928A95E1F7F80176
:103FA000E280909177026091780240917A0250917C
:103FB0007B024115510531F06F3F31F481E09F3FA5
:103FC00019F403C081E001C080E0F82FF1709F2E4A
:103FD00080FD1AC1F80130812181C380D48087E738
:103FE000A82E82E0B82EF0907902F601E41BF50BC2
:103FF000FF2009F4C6C080917C02EF3AF10508F079
:1040000091C0482F407F09F050C0621311C0931334
:104010000FC0FE2CE1100CC08F70806180937C0279
:10402000C5010E94E30380917C02F801858329C1C8
:10403000CD2831F02F3F31F481E03F3F19F403C028
:1040400081E001C080E080FD03C081E08E2502C0D8
:1040500080E090E0F82FF170FF2E80FF1CC080916F
:10406000AE0240917D0256E0841709F4E8C090E06A
:10407000589FF001599FF00D1124E258FD4F6181C6
:10408000261306C06081631303C06281E61203C079
:1040900001968770E9CFFE2CEE2009F4F2C08091E2
:1040A0007C02816080937C0249C0621306C0931336
:1040B00004C0E11002C0F80186C0C8010E94871F39
:1040C000882351F1EE2041F120917C02822F8295CC
:1040D0008F7090E0029774F080917702909178024F
:1040E00098878F831986DB86CA862C87CE01079630
:1040F0000E94E30386E0F801A7E7B2E001900D9289
:104100008A95E1F70E94A31E0AC06217C9F0C80190
:104110000E94871F81111EC0C8010E94E303FF2473
:10412000F394AFC0482F407F81F787E792E00E9469
:10413000E30386E0F50111928A95E9F7F12CA1C01D
:104140009313E5CFE110E3CFF8018583C8010E9406
:10415000E30354C0EE2001F320917C02822F82956C
:104160008F7090E0029734F28091770290917802FC
:104170009A8389831B82DD82CC822E83CE010196B5
:10418000B7CFEF3AF105D0F5FE2CEE2029F26213FD
:1041900027C0931325C020917C0220FD18C0822FD8
:1041A00082958F70482F50E04115510581F0F8013C
:1041B00025834F30510541F08F5F982F9295907F66
:1041C000822F8F70892B8583C8010E94E30386E0CC
:1041D000F801A7E7B2E001900D928A95E1F751C08E
:1041E000C8010E94871F811185CF80917C02816068
:1041F00080937C02C8010E94E30343C086E0F5017E
:1042000011928A95E9F73DC0EE2009F485CFC801E7
:104210000E94871FF82E882309F47ECF86E0F801DC
:10422000A7E7B2E001900D928A95E1F780917702BD
:10423000909178020E94681F0E94A31E22C03D87B1
:104240002E878D859E850E94681F292F22952F70AD
:10425000223028F49F7039F0811105C00BC0243042
:1042600028F49F7049F4805E883020F0C8010E94D5
:10427000E3039F2CF92C05C0F8019581907F99F7F5
:10428000F9CF8F2D61960FB6F894DEBF0FBECDBF6C
:10429000DF91CF911F910F91FF90EF90DF90CF9022
:1042A000BF90AF909F90089528E0929F800D1124B9
:1042B000682F669566956695982F977085E0689F3C
:1042C000B001112440E050E080E0FB01E40FF51F55
:1042D000E15BFD4F208130E0092E02C03695279525
:1042E0000A94E2F721703327042E01C0220F0A94AA
:1042F000EAF7822B4F5F5F4F4530510531F7089544
:1043000028E0929F800D1124E82FE695E695E6952A
:10431000877051E001C0550F8A95EAF785E0E89F64
:10432000F0011124E15BFD4F20E030E070E04081BE
:10433000CB01022E02C0969587950A94E2F7817010
:10434000819584278523842781932F5F3F4F2530D4
:10435000310569F7089560931302709314028093F6
:104360001502909316021092B1021092B0020C94B2
:10437000521E0F931F9341E050E060E070E004C0D4
:10438000440F551F661F771F8A95D2F7809113023D
:1043900090911402A0911502B09116028A019B011E
:1043A000082719272A273B27C901B8011F910F9118
:1043B0000C94AB210F931F9341E050E060E070E05C
:1043C00004C0440F551F661F771F8A95D2F740958A
:1043D0005095609570958091130290911402A09170
:1043E0001502B09116028A019B01082319232A2382
:1043F0003B23C901B8011F910F910C94AB2120916F
:10440000AF02809582238093AF02982F977041F47A
:1044100030E0482F082E000C550B2417350721F4E7
:104420009091180292FF07C08595859585950E9409
:10443000DA211092AF0208950F931F9341E050E0EC
:1044400060E070E004C0440F551F661F771F8A9517
:10445000D2F78091130290911402A0911502B091AD
:1044600016028A019B01082B192B2A2B3B2BC90111
:10447000B8011F910F910C94AB216093A901709327
:10448000AA018093AB019093AC011092B1021092FB
:10449000B0020C94521E1092B20286E0E5E4F2E003
:1044A000DF011D928A95E9F71092B1021092B002D5
:1044B0000C94521E882341F080959091B10289237B
:1044C0008093B1020C94521E0895882339F0909184
:1044D000B102892B8093B1020C94521E0895882357
:1044E00041F080959091B20289238093B2020C949E
:1044F000521E0895882339F09091B202892B80933F
:10450000B2020C94521E0895882309F47AC0682FD1
:10451000823869F40E94171981FF73C069E383E44C
:1045200092E00E94FD180E94521E69E30EC083387B
:1045300091F40E94171980FF64C063E583E492E060
:104540000E94FD180E94521E63E583E492E00E94DF
:10455000F0180C94521E843869F40E94171982FFD7
:1045600050C067E483E492E00E94FD180E94521E4E
:1045700067E4EBCF8CEF860F813A38F380E2860F49
:10458000883070F4677081E090E001C0880F6A9510
:10459000EAF780959091B20289238093B202D9CF35
:1045A0008BE5860F8330A0F480914B0290914C02F2
:1045B000892B39F110924C0210924B02E091C80104
:1045C000F091C9013097E9F00680F781E02D16C01F
:1045D000685A6731B0F480914D0290914E02892B58
:1045E00081F010924E0210924D02E091C801F091BC
:1045F000C901309731F00084F185E02D80E090E032
:10460000099408951F93CF93DF93182F893319F0DE
:10461000C0E0D0E002C0C0E5D0E0812F0E946C2B4A
:10462000209741F08FE99FE00197F1F700C000006B
:104630002197F6CF812FDF91CF911F910C94842287
:104640000895CF93DF93EC01ECEFF2E043816281B8
:104650008C810E94FC2A8C818F5F8C83DF91CF91AB
:104660000895CF93DF93EC01EC81F0E0ED57FB4F21
:104670004491ECEFF2E0628181810E94FC2A8C81FE
:104680008F5F8C83DF91CF9108950F931F93CF930A
:10469000DF93C42FD22FFC0182818823C9F040937D
:1046A00003030E949718909302038093010380E212
:1046B0008C0F883008F057C0C77081E001C0880FA8
:1046C000CA95EAF7DF91CF911F910F910C947A224E
:1046D00080910303481330C080910103909102033D
:1046E0000E947C188F3A910538F510E21D0FCD1706
:1046F000B9F080E28C0F883040F4C77081E001C0CF
:10470000880FCA95EAF70E946F22183028F581E0D9
:104710009D2F977001C0880F9A95EAF70E947A2220
:10472000802F0E9402231830F0F4D77081E001C07E
:10473000880FDA95EAF70AC080E28C0F883098F487
:10474000C77081E001C0880FCA95EAF7DF91CF9169
:104750001F910F910C946F22802FDF91CF911F91A9
:104760000F910C940223DF91CF911F910F91089527
:10477000FC01680F791F8FEF91E3E617F70771F0DF
:104780002191822728E030E087FF03C0880F892726
:1047900001C0880F21503109B9F7EFCF08959091EA
:1047A000FC0290FF04C09695981740F003C0811159
:1047B00005C090E0961710F40C94622B61E00C9405
:1047C000192B882311F0FA0101C0FB010994EAEBCF
:1047D000F2E0118282818460828308956091FC02FC
:1047E000669570E04BE050E08AE491E00E94F32E81
:1047F000892B19F481E08093BB020E94E718909303
:10480000B5028093B4028091BC0284608093BC02A4
:104810000895309159018091FC0280FF16C0E0910B
:10482000580163E0E69FF0011124E054FD4F539AD4
:104830008BB1877F9BB198602FB7F894AF0163E08D
:10484000369F400D511D112414C080915A01909142
:104850005B01891720F7E82FF0E0AF01440F551FE7
:10486000E40FF51FE054FD4F1182108212828F5F1A
:10487000F0CFE417F50789F0319168E09BB90000AB
:1048800000C037FF8BB9330F000000C000C000C06C
:104890008BB900C06A9591F7ECCF2FBF8FE594E0FC
:1048A0000197F1F700C0000008950F931F93CF9375
:1048B000DF93EC0100E010E080915C01282F30E0F4
:1048C000021713073CF590915A019801290F311DE9
:1048D000A901440F551F240F351F20543D4F8695C5
:1048E00090E04C81081719071CF4442349F002C0DA
:1048F000411106C04091FF02473918F046E901C056
:1049000040E06091FE028091FD020E94662A0F5FE6
:104910001F4FD2CF0E9409248C8190E001968170B4
:1049200099278C83DF91CF911F910F9108958F92DA
:104930009F92AF92BF92CF92DF92EF92FF920F932E
:104940001F93CF93DF938C01FC014481C42FD0E0EF
:104950009E01DE010E94BE2E9B01AC010E94D42E5E
:104960006B017C01E0E2F0E0EC1BFD0BA5E5B0E0A3
:104970009B01AC010E94D42E4B015C019F01DF0121
:104980000E94B62E9B01AC010E94DF2E9B01AC0160
:104990002C0D3D1D4E1D5F1DC501B4010E948E2EC4
:1049A000C22FD22F2A3228F4F3E02F9F9001112436
:1049B0000DC025E530E02C1B3109C901880F991F76
:1049C000280F391F37FF02C02F5F3F4F35952795BE
:1049D000C22FC095F12C85E5E82EED1A80915C017F
:1049E000F816E0F4F1FC02C08E2D01C08D2F9091DD
:1049F0005A012F2D30E0290F311DA901440F551FF9
:104A0000240F351F20543D4F4C2FC73908F046E97D
:104A10006091FE020E94662AF394E0CF0E9409246E
:104A2000F8018481811102C091E003C0803219F441
:104A30009FEF9093570190915701890FF80184835C
:104A4000DF91CF911F910F91FF90EF90DF90CF906A
:104A5000BF90AF909F908F9008951F93CF93DF9357
:104A6000EC018C81811109C081E08C831092BE021F
:104A700092E0909356018093550180915A01909154
:104A80005B01891770F4E82FF0E09F01220F331FBC
:104A9000E20FF31FE054FD4F1182108212828F5FEC
:104AA000F0CF10E060915C011617D8F5E12FF0E02F
:104AB00070E0CF010E947A2E20915A01820F20913E
:104AC000BE02022E000C330B90E0E217F307E4F075
:104AD00020915601022E000C330B2E173F07A4F035
:104AE0009C01220F331F820F931F9C0120543D4FC6
:104AF0004091FF02473908F046E96091FE0280913B
:104B0000FD020E94662A0BC0FC01EE0FFF1F8E0FF4
:104B10009F1FFC01E054FD4F1182108212821F5F23
:104B2000C1CF0E940924809155012091BE02280F17
:104B30002093BE0290915601980F9093560119163A
:104B40005CF4022E000C330B40915C0150E04150AC
:104B500051092417350734F0819580935501813030
:104B600009F41C82DF91CF911F9108957F928F925B
:104B70009F92AF92BF92CF92DF92EF92FF920F93EC
:104B80001F93CF93DF93EC018A8180FF03C0BB2486
:104B9000BA9402C0BB24B3948C8181110DC081E012
:104BA000B81206C080915C0181508093BD0202C0A2
:104BB0001092BD0281E08C83A12C44E1742E809080
:104BC0005C01A81408F044C080915A01CA2CD12C71
:104BD0008601080F111DC801880F991F080F191FA2
:104BE00000541D4FF80111821082128234E0E32E2E
:104BF000F12C912C8091BD02890D85312CF0672D0F
:104C00000E94582E892F02C087FD880D082E000CA7
:104C1000990BC816D906A9F48091FF028E9DA001B8
:104C20008F9D500D112455954795559547954739BA
:104C300008F046E998016091FE028091FD020E9411
:104C4000662A9B0CF1E0EF1AF108A1F6A394B7CF06
:104C50000E9409248091BD0291E0B9120EC0811119
:104C600007C080915C0181508093BD021C820FC0FF
:104C700081508093BD02BC820AC090E00196609191
:104C80005C0170E00E947A2E8093BD028C83DF91DC
:104C9000CF911F910F91FF90EF90DF90CF90BF9039
:104CA000AF909F908F907F900895FF920F931F93E6
:104CB000CF93DF93EC01F12C0FEF10E060915C01DA
:104CC000F61608F580915A012F2D30E0280F311D7E
:104CD000C901880F991F280F391F20543D4F40915B
:104CE000FF02473908F046E970E0C8010E947A2EB9
:104CF000962F8C816091FE02F99E800D11240E94F6
:104D0000662AF394DBCF0E9409249A818C8190FF5C
:104D100002C08F5F01C081508C83DF91CF911F91C2
:104D20000F91FF9008959091FC0290FF16C0909112
:104D30005A0120915B01921770F4E92FF0E0DF0136
:104D4000AA0FBB1FEA0FFB1FE054FD4F8183608356
:104D500042839F5FF0CF0C94092408950F931F9313
:104D6000CF93DF9300D01F92CDB7DEB78C01809137
:104D7000BF0281110AC09E012F5F3F4F46E96FEFCE
:104D80000E94662A8A818093BF02F8018481813063
:104D900051F028F0823061F44091BF020AC0809146
:104DA000BF0240E007C06091BF0240E080E003C066
:104DB00040E080E060E00E949326F801848190E06A
:104DC000019663E070E00E947A2E84830F900F902A
:104DD0000F90DF91CF911F910F910895AF92BF92E5
:104DE000CF92DF92EF92FF920F931F93CF93DF93B7
:104DF00000D01F92CDB7DEB7082FF62E142FE22E6B
:104E00009091FC0290FF85C0E92FE695AE2FB0E0AF
:104E1000A158BE4F8C918093BA029E7F923081F44C
:104E2000473908F046E99E012F5F3F4F6F2D802FD5
:104E30000E94662A4B8169818A810E94932646C01E
:104E4000823019F41091FF0241C0863019F40091AC
:104E5000FD023CC08930D9F38931C1F5E9518E2F6B
:104E60008170D82EE695F0E0E258FB4FA590B49003
:104E7000C12CBB2460915C01C61630F52C2D30E0AE
:104E8000A29EC001A39E900DB29E900D112470E0D1
:104E90000E94662E802FD11002C0860F01C0861B93
:104EA00090915A01290F311DA901440F551F240F5C
:104EB000351F20543D4F412F173908F046E96F2D1B
:104EC0000E94662AC394D6CF0E9409248091FD02D5
:104ED000081308C08091FE02F81204C08091FF02FE
:104EE000181729F08091BC0282608093BC02009365
:104EF000FD02F092FE021093FF02EE2051F060914D
:104F0000FC027091FD028091FE029091FF020E94CE
:104F10001A2A0F900F900F90DF91CF911F910F9150
:104F2000FF90EF90DF90CF90BF90AF9008959C01DD
:104F30003A9521153F4130F5BC0166277270AC01EE
:104F4000442754709C012227387094FF0FC090FFB3
:104F500002C080E101C080E0672B09F08062452B30
:104F600009F08064232B79F080680895892F81707F
:104F7000672B09F08260452B09F08460232B19F020
:104F80008860089580E008951F93CF93DF93CDB795
:104F9000DEB767970FB6F894DEBF0FBECDBF4B8B61
:104FA0005C8B6D8B7E8B8F8B61111092B10286E0D2
:104FB0009E01235F3F4FD901E82F1D92EA95E9F743
:104FC00095E0FE017396D90101900D929A95E1F753
:104FD0009C894E895F897B897D879E876F87598BE6
:104FE000488BF901DE01179601900D928A95E1F741
:104FF000CE0107960E94B31F81113EC086E0FE01DC
:105000003796DE01119601900D928A95E1F7FF81A6
:10501000E8856A857B856115710531F0EF3F31F4D4
:1050200081E0FF3F19F403C081E001C080E080FD12
:1050300023C020917D0230E0C90101968770992735
:105040004091AE0250E08417950779F1F983EA8325
:105050007D836C8396E0929FD001939FB00D1124C5
:10506000A258BD4FFE01319601900D929A95E1F73D
:1050700080937D020E94991E16E08091AE0290916D
:105080007D028917F9F0189FC001112482589D4FA5
:105090000E94B31F8823B1F08091AE0290E0019688
:1050A000877099278093AE02E8CF0E944B2210921E
:1050B0007D021092AE02E7E7F2E086E0DF011D928A
:1050C0008A95E9F767960FB6F894DEBF0FBECDBF9D
:1050D000DF91CF911F910895DF92EF92FF920F938E
:1050E0001F93CF93DF93E82FF0E0ED54FA4FD49065
:1050F000282F26952695269530E0F901ED55FA4F93
:105100000491877010E0082E02C0159507950A9447
:10511000E2F701701127F901ED56FA4FE490F12CF6
:10512000082E02C0F594E7940A94E2F791E0E92290
:10513000FF24F901ED57FA4FC491D0E002C0D59594
:10514000C7958A95E2F7C170DD270115110519F0A1
:1051500081EE0E946C2BE114F10419F086EE0E949E
:105160006C2B8D2D0E940223EF2819F086EE0E94F1
:105170008422012B19F081EE0E948422CD2B51F064
:105180008CE2DF91CF911F910F91FF90EF90DF9014
:105190000C940223DF91CF911F910F91FF90EF901C
:1051A000DF900895FF920F931F93CF93DF938C01AD
:1051B0008AE0F82EF8018491882309F44CC08130EC
:1051C00009F042C0E8012196FE018491813031F45A
:1051D0002196FE0184910E94022339C0823039F465
:1051E000E8012296FE0184910E946C2B30C083302E
:1051F00039F4E8012296FE0184910E94842227C09E
:10520000843029F5E8012296FE01249180E090E0A7
:1052100030E0205331092A30310560F4F89EA001B6
:10522000F99E500D1124C901840F951F2196FE018E
:105230002491EECF009759F0EFE9FFE03197F1F7B5
:1052400000C000000197F6CF0E946C28E8018E0193
:105250000F5F1F4FAFCFDF91CF911F910F91FF9045
:105260000895CF93DF93EC010E948422CE01805EEB
:105270009109089710F0209739F4CE010E949727E2
:10528000DF91CF910C946F22CE010E949727DF917E
:10529000CF910C945A22CF93DF93EC01805E910959
:1052A000089710F0209731F4CE010E9497270E94B2
:1052B0007A2205C0CE010E9497270E9465228C2F7A
:1052C000DF91CF910C946C2BCF93C62F409113029A
:1052D000509114026091150270911602811119C04B
:1052E000411551056105710531F076956795579522
:1052F000479540FD08C0CC2311F089EA01C08AEA35
:105300000E94022338C0CC2311F08DEBF9CF8EEB35
:10531000F7CF411551056105710531F07695679517
:105320005795479540FD06C0CC2311F08EE4E8CF99
:105330008BE4E6CF8091B401811106C081E08093B7
:10534000B40180EE0E946C2B0E9497189093B301D9
:105350008093B201CC2339F08BE290E00E944B297C
:105360008BE290E006C08BE292E00E944B298BE238
:1053700092E00E94312980E0CF910895ECEFF2E0B5
:10538000438128E0421B08F440E021E062818181F2
:105390000C94EE26ECEFF2E0438128E0420F08F493
:1053A0004FEF21E0628181810C94EE26ECEFF2E078
:1053B000628128E0621B08F460E021E04381818182
:1053C0000C94EE26ECEFF2E0628128E0620F08F424
:1053D0006FEF21E0438181810C94EE26ECEFF2E047
:1053E000818121E04381628188500C94EE26ECEFAC
:1053F000F2E0818121E043816281885F0C94EE2696
:105400008091FC02282F269530E02115310519F4F2
:105410008170826005C02532310524F08170886476
:105420008093FC028091FF02873918F086E980930F
:10543000FF020895CF92DF92EF92FF926B017C0101
:105440000E94002AB701A60188E090E0FF90EF904B
:10545000DF90CF900C94362E80910003882319F0B2
:105460008150809300036091FC027091FD02809155
:10547000FE029091FF020C941A2A8091000383305F
:1054800018F48F5F809300036091FC027091FD021D
:105490008091FE029091FF020C941A2AECEFF2E048
:1054A00083E0808311828FEF828386E98383148275
:1054B000AAEBB2E012968C911297836012968C93AD
:1054C00060817181828193810C941A2AAF92BF927C
:1054D000CF92DF92EF92FF920F931F93CF93DF93C0
:1054E000E82EF62EE901E42FF0E0611106C0ED5C34
:1054F000F94FE4914E2F2E2F71C0062F10E0ED5C76
:10550000F94F4491F42FC42ED12C26E0829FC00184
:1055100011242FEF30E0B9010E94662E5BEA56039A
:10552000C001579F900D11248E0D911D8E0D911D60
:10553000582F550F580FD901A01BB10BAC9DC001BE
:10554000AD9D900DBC9D900D1124E92FF59ED001CD
:105550001124AB2FBB277901EA1AFB0AEC9CD0017E
:10556000ED9CB00DFC9CB00D11245901A51AB10899
:10557000A09E7001A19EF00CB09EF00C1124EF2CA7
:10558000FF242E193F092C9D80012D9D100D3C9D5F
:10559000100D1124212F6230710591F048F461152E
:1055A0007105E1F061307105B9F4242F4B2F16C05D
:1055B0006430710569F040F06630710579F00CC017
:1055C000242F492FE12F0AC0492FEF2F2B2F06C080
:1055D000292FE42F412F02C0292FEB2F4983288345
:1055E000EA83DF91CF911F910F91FF90EF90DF90B1
:1055F000CF90BF90AF900895CF93DF9300D01F92CC
:10560000CDB7DEB79091FC0290FF0DC0473908F08E
:1056100046E99E012F5F3F4F0E94662A4B816981B8
:105620008A810E9493260F900F900F90DF91CF9167
:1056300008959091FC0290FF3BC09170811102C0CF
:10564000926006C0853210F0986402C0880F982BD3
:105650009093FC028091BC0281608093BC0266231F
:1056600051F06091FC027091FD028091FE029091D8
:10567000FF020E941A2A6091FC02669570E04BE0DE
:1056800050E08AE491E00E94F32E892B19F00E94E9
:10569000E72302C00E94EE2381E08093B70220E05E
:1056A0004091FF026091FE028091FD020C94EE2673
:1056B00008958091FC028695815009F484E261E0AE
:1056C0000C94192B8091FC0286958F5F853208F02F
:1056D00081E061E00C94192BCF93882309F47CC0FE
:1056E000C82F8238B1F40E94171981FD75C069E393
:1056F00083E492E00E94FD180E94521E2FEF81EE7B
:1057000094E0215080409040E1F700C0000069E340
:1057100017C08338D1F40E94171980FD5DC063E57E
:1057200083E492E00E94FD180E94521E2FEF81EE4A
:1057300094E0215080409040E1F700C0000063E514
:1057400083E492E00E94F0183CC08438B1F40E94D7
:10575000171982FD41C067E483E492E00E94FD18BE
:105760000E94521E2FEF81EE94E021508040904025
:10577000E1F700C0000067E4E3CF8CEF8C0F813AC3
:1057800080F4E5E4F2E08BE492E02191C217E1F0CD
:105790008E179F07D1F76C2F83E492E00E94FD18CB
:1057A00010C080E28C0F8830B8F4C77081E090E0C0
:1057B00001C0880FCA95EAF79091B202892B8093B5
:1057C000B202CF910C94521E6C2F83E492E00E949F
:1057D000F0180E94521EDFCFCF9108958EE14A9BB0
:1057E00002C08150E1F74A9BFECF08955A9880E2AB
:1057F0008A95F1F75A9A0895FC012AE02A95F1F763
:1058000028E090E080E031E040E14A95F1F7880F30
:105810004A9B02C08160932700C0000040E14A9586
:10582000F1F7215089F720E12A95F1F729B100C05D
:10583000000030E13A95F1F722FB222720F9922768
:105840002081920F90830895EF92FF920F931F9300
:10585000CF93DF931F92CDB7DEB719828C017C0105
:10586000E60EF11C0E151F0551F00E94EE2BCE0125
:1058700001960E94FC2BF80181938F01F3CF81E008
:105880009981911180E00F90DF91CF911F910F913D
:10589000FF90EF900895529A5A9A089552985A9A02
:1058A000EA9AE9E6F0E080818F7C80830895615078
:1058B00091E001C0990F6A95EAF720E031E0992361
:1058C00061F0492F482319F05A9A232701C05A98AA
:1058D00040E24A95F1F79695F2CF222311F05A9AB9
:1058E00001C05A9880E28A95F1F75A980895FF927C
:1058F0000F931F93CF93DF93EC018C01060F111DC3
:10590000C017D10741F0F9900E94F62B68E08F2D67
:105910000E94572CF5CFDF91CF911F910F91FF90EF
:1059200008951F920F920FB60F921124EF92FF92DB
:105930000F931F932F933F934F935F936F937F9397
:105940008F939F93AF93BF93EF93FF93CF93DF9387
:105950001F92CDB7DEB719820E94EE2BCE010196C1
:105960000E94FC2BA82FA695A695A6959A2F9695F2
:1059700095702A2F2570920F292F23709695969552
:10598000920F877089137CC08981811179C0A730FB
:1059900008F076C080E18A95F1F75A9A529AB2E0FF
:1059A000BA95F1F700C05A98EA2EF12CEAE0AE9FC2
:1059B000D0011124AF5FBE4F1896ED91FC9119975D
:1059C0003097B1F060915D0170915E0116962D9156
:1059D0003C911797260F371F13968D919C91149722
:1059E000680F791F15964C91159712968C91099511
:1059F0008AE08E9DF0018F9DF00D1124EF5FFE4F28
:105A00006581662351F080915D0190915E01268150
:105A10003781820F931F0E94772C0E94F62BF0E1B2
:105A2000FA95F1F75A9852985A9A80E18A95F1F7C7
:105A30008AE08E9D80018F9D100D11240F5F1E4FF7
:105A4000D80112966C911297662399F080915D01AE
:105A500090915E0113962D913C911497820F931FA4
:105A60000E94242CD801ED91FC91811105C082E0A7
:105A700004C0D801ED91FC9188E080830E94EE2B58
:105A80000F90DF91CF91FF91EF91BF91AF919F91D7
:105A90008F917F916F915F914F913F912F911F91C6
:105AA0000F91FF90EF900F900FBE0F901F901895E1
:105AB0000F931F93CF93DF93873091050CF0A9C00C
:105AC0002AE0289FF001299FF00D1124EF5FFE4F7F
:105AD00020813181232B09F49CC0EC01F894529A67
