:100000000C946E050C94B5050C94B5050C94C6299A
:100010000C94B5050C94B5050C94B5050C94B50578
:100020000C94B5050C94B5050C9451100C948D0FDF
:100030000C9473110C94B5050C94B5050C94B5058E
:100040000C94B5050C94B5050C94B5050C94B50548
:100050000C94B5050C9426110C94B5050C94B505BB
:100060000C94B5050C94B5050C94B5050C94B50528
:100070000C94B5050C94B5050C94B5050C94B50518
:100080000C94B5050C94B5050C94B5050C94B50508
:100090000C94B5050C94B5050C94B5050C94B505F8
:1000A0000C94B5050C94B5050C94B5051C06FE061C
:1000B000AB0634064C06590674068E06A006BB062F
:1000C000DF06CD0685088508BF08BF0810099B0A12
:1000D0009B0A9B0A2C090A0A1B0A1B0AA80DCF0DB2
:1000E000650FCF0D650F170E3A0E650F290F3C0FE8
:1000F000171517152A152A1520152A152A152A1538
:100100001715171525152A152A1525150501098016
:10011000A101850319012AB700150126B700950131
:1001200075108100C0050C0901A101850419012A7F
:10013000A002150126A002950175108100C00501DD
:100140000906A101050719E029E715002501950811
:10015000750181029501750881010507190029FFC4
:10016000150026FF0095067508810005081901296C
:1001700005950575019102950175039101C009026C
:100180003B00020100A0FA09040000010301010084
:100190000921110100012240000705810308000A1E
:1001A00009040100010300000009211101000122DE
:1001B00032000705820320000A120100020000003D
:1001C000081D8D9D9D0100010200010C034B00796B
:1001D0000072006900610000001003730070006C81
:1001E00000690074004B0042000000040309040091
:1001F0000000000500130009001A0014000254005A
:1002000000000007001700160015000400635D00E1
:100210000014590A00190006001B001D00E3002B02
:10022000612C41E2002900A800000000000000004D
:100230000000000D000F0018001C006A5D6B5D00DF
:100240000000001000110008000C000B006C5D287D
:100250000200000E00120037003600695D295D289B
:10026000612A72E4006D5D2C0000000000000000B7
:10027000000000665D24002500260001000100004A
:10028000000000675D1E001F0020002700640001C1
:10029000000100685D21002200230001000100012F
:1002A000000100010001000100000000000000004A
:1002B0000000001F024A0052004D000000655D0072
:1002C0000000003202500051004F0000006E5D013E
:1002D000004C002D02380030001E022D14010001D8
:1002E000004C0001000100010000000000000000BF
:1002F00000000043004000410042000100010000F6
:1003000000000044003A003B003C000100010001F5
:1003100000010045003D003E003F000100010001DA
:1003200000010001000100010000000000000000C9
:1003300000000001000100010001000100010000B7
:1003400000000001000100010001000100010001A6
:100350000001000100010001000100010001000195
:100360000001000100010001000000000000000089
:100370000000000100010001000100010001000077
:100380000000000100010001000100010001000166
:100390000001000100010001000100010001000155
:1003A0000001000100010001000000000000000049
:1003B0000000000100010001000100010001000037
:1003C0000000000100010001000100010001000126
:1003D000000100C35CC85CC65CCA5CC45C0100016F
:1003E0000001000100010001000000000000000009
:1003F000DA1281FFD9F1DB20A4A62EAF00A0C00045
:10040000A1C800AED580A83FD300408D14200020A5
:100410000057004100430053004D6F64733A00726F
:100420006D65720A0A2B343920313733203234207B
:100430003138203531350A6D61696C4073746F65F0
:10044000726D65722D636F6E73756C74696E672E55
:1004500064650A7777772E73746F65726D65722D98
:10046000636F6E73756C74696E672E64650A0A003B
:10047000726D65722D636F6E73756C74696E670A49
:1004800044722E205065746572205374000A0A2D40
:100490002D0A0A737400726D65720A0A00650A50AB
:1004A0006574657220537400467265756E646C697C
:1004B00063686520477200726D65720A0A00650AFA
:1004C0005065746572205374006E65204772005346
:1004D000636800650A50657465720A0A006E6520DB
:1004E0004772005363680000000000000000000035
:1004F00000000000000000000000000000000001FB
:100500000000380000007800000000F68700ECFED4
:10051000FFFF870100000000000000000000002A2B
:100520002B28000000000000000000000000000078
:10053000000029000000002C1E1F3221222332253A
:1005400026303036383724271E1F20212223242529
:100550002637366427642D140405060708090A0B9C
:100560000C0D0E0F101112131415161718191A1B53
:100570001D1C252D2635382E0405060708090A0BF3
:100580000C0D0E0F101112131415161718191A1B33
:100590001D1C246427304C07087F0807003E5B4F72
:1005A0005B3E003E6B4F6B3E001C3E7C3E1C0018C9
:1005B0003C7E3C18001C577D571C001C5E7F5E1C57
:1005C0000000183C180000FFE7C3E7FF00001824F4
:1005D000180000FFE7DBE7FF0030483A060E002670
:1005E0002979292600407F05050700407F05253F22
:1005F000005A3CE73C5A007F3E1C1C0800081C1CAB
:100600003E7F0014227F2214005F5F005F5F0006C0
:10061000097F017F00006689956A00606060606004
:100620000094A2FFA2940008047E04080010207E1B
:1006300020100008082A1C0800081C2A0808001EB0
:1006400010101010000C1E0C1E0C0030383E3830FC
:1006500000060E3E0E060000000000000000005FD5
:10066000000000000700070000147F147F1400241E
:100670002A7F2A120023130864620036495620504C
:1006800000000807030000001C2241000000412276
:100690001C00002A1C7F1C2A0008083E08080000D5
:1006A0008070300000080808080800000060600042
:1006B000002010080402003E5149453E0000427FE0
:1006C0004000007249494946002141494D33001814
:1006D00014127F10002745454539003C4A494931ED
:1006E0000041211109070036494949360046494968
:1006F000291E00000014000000004034000000002B
:100700000814224100141414141400004122140887
:10071000000201590906003E415D594E007C12114C
:10072000127C007F49494936003E41414122007F09
:100730004141413E007F49494941007F0909090182
:10074000003E41415173007F0808087F0000417F4F
:100750004100002040413F01007F08142241007FFA
:1007600040404040007F021C027F007F0408107F51
:10077000003E4141413E007F09090906003E4151CA
:10078000215E007F091929460026494949320003A4
:10079000017F0103003F4040403F001F2040201FD9
:1007A000003F4038403F006314081463000304789E
:1007B0000403006159494D4300007F41414100025B
:1007C0000408102000004141417F0004020102049E
:1007D00000404040404000000307080000205454FF
:1007E0007840007F28444438003844444428003886
:1007F0004444287F0038545454180000087E0902ED
:100800000018A4A49C78007F080404780000447DAC
:100810004000002040403D00007F102844000000C0
:10082000417F4000007C04780478007C0804047850
:1008300000384444443800FC1824241800182424A8
:1008400018FC007C08040408004854545424000494
:10085000043F4424003C4040207C001C2040201CDD
:10086000003C4030403C004428102844004C90900C
:10087000907C004464544C44000008364100000061
:100880000077000000004136080000020102040267
:10089000003C2623263C00000000000000404040B1
:1008A000F0F8F8FF38FFF8F83FF8F8FF38FFF8F8ED
:1008B000F040404000000000000080C0C0C0800048
:1008C00000C0C08000000080C0C000C0C000008028
:1008D000C0C00000000000C0C0C0C0C000C0C00058
:1008E0000000000000000000000000000000000008
:1008F00000000000000000000000000000000000F8
:1009000000000000000000000000000000000000E7
:10091000000000000000C0F0F8FC3E1E06010000D0
:10092000007F4141417F007F4141417F000080C005
:10093000E07E5B4F5BFEC00000C000DCD7DEDEDE89
:10094000D7DC00C000000000000000000000000034
:1009500000000000000000000000000000494949BC
:10096000FFFFFFFFE0DFBFBF00BFBFDFE0FFFFFF14
:10097000FF49494900000000001F3F6060E0BF1FC1
:10098000007F7F071E381E077F7F007F7F0E1F3B83
:10099000716000000000007F7F0C0C0C007E7E0068
:1009A0007F7E0303007F7E03037E7E03037F7E0042
:1009B0000F3E703C063C703E0F00327B49493F7E43
:1009C000007F7E0303001E3F69696F260000000060
:1009D000000000000000030F1F3F3C787060000023
:1009E000007F4141417F007F4141417F00307B7F5B
:1009F0007830202030787F3B0003000F7F0F0F0FEF
:100A00007F0F000300000000000000000000000055
:100A100000000000000000000000000000010101D3
:100A2000070F0F7F0F7F0F0F7E0F0F7F0F7F0F0FAF
:100A300007010101000000000000000000000101AA
:100A400000000000000000000000000000000000A6
:100A50000000000000000000000000000000000096
:100A60000000000000000000000000000000000086
:100A70000000000000000000000000000000000076
:100A80000000000000000000000000000000000066
:100A90000000000000000000000000000000000056
:100AA0000000000000000000000000000000000046
:100AB0000000000000000000000000000000000036
:100AC0000000000000000000000000000000000026
:100AD0000000000000000000AF00AE0011241FBEA7
:100AE000CFEFDAE0DEBFCDBF04B603FE27C08091B2
:100AF000460790914707A0914807B0914907873072
:100B0000904BA740B04BD1F4109246071092470784
:100B1000109248071092490714BE84B7877F84BF9C
:100B20000FB6F894A895809160008861809360006A
:100B3000109260000FBEE0E0F8E3099511E0A0E03C
:100B4000B1E0E4ECF7E502C005900D92AA3EB107D2
:100B5000D9F727E0AAEEB1E001C01D92A634B20792
:100B6000E1F70E94AD180C94E02B0C9400008F92DA
:100B70009F92AF92BF92CF92DF92EF92FF920F932C
:100B80001F93CF93DF93CDB7DEB72A970FB6F894B4
:100B9000DEBF0FBECDBFFC01D08011818381948167
:100BA000892B39F01F3F39F491E02FEFD21203C0A7
:100BB00003C091E001C090E090FD1BC57F0185E07E
:100BC000DE01169601900D928A95E1F7D7011296F3
:100BD0002C918E819F81222349F00E948A14082F34
:100BE000682F8E819F810E94FB1603C00E94CF1642
:100BF000082FE12FF0E0B8E00B9FE00DF11D11246C
:100C0000A3E0EE0FFF1FAA95E1F7ED0DF11DEE0F2A
:100C1000FF1FE151FE4F059114916801F801E35661
:100C2000FD45D70112968C91EC30F10508F0E6C035
:100C3000EA5AFF4F0C94C42B882389F08091F70166
:100C400085FD05C086EE0E940F2684E141C085EE39
:100C50000E94B32586EE0E940F2684E657C084E1E9
:100C60000E94B32584E6C7C0882389F08091F701EC
:100C700085FD05C086EE0E940F2684E229C085EE20
:100C80000E94B32586EE0E940F2687E23FC084E2D1
:100C90000E94B32587E2AFC0882369F08091F701F5
:100CA00085FD05C085EE0E940F2685E292C086E292
:100CB0009BC0811105C085E20E94B32586E29BC0DE
:100CC0008091F70185FD08C086EE0E940F2685E21F
:100CD0000E940F2686EE8FC085EE0E94B32586EE19
:100CE0000E940F2686E212C08823B1F08091F7019E
:100CF00085FD05C085EE0E940F2684E26AC085EE60
:100D00000E94B32586EE0E940F2680E30E940F26E4
:100D100086EE0E94B32567C084E23BC0882359F069
:100D20008091F70185FD05C085EE0E940F2683E2C4
:100D300050C082E259C083E20E94B32582E25BC0C8
:100D40008823A1F08091F70185FD0BC085E30E9407
:100D5000F11785E349C0882361F08091F70185FD93
:100D60002AC48EE20E94F1178EE23EC085E30E9403
:100D7000B3258EE240C0882359F08091F70185FDAC
:100D800005C085EE0E940F2687E223C080E32CC0B9
:100D900087E20E94B32580E32EC0882359F080911A
:100DA000F70185FD05C085EE0E940F2681E211C086
:100DB00080E21AC081E20E94B32580E21CC0882331
:100DC000B1F08091F70185FD08C085EE0E940F26E5
:100DD00088E30E940F2685EE0EC085EE0E94B325A3
:100DE00082E30E940F2685EE0E940F26E4C388E36B
:100DF0000E94B32582E30E94B325DDC3882369F0F6
:100E0000C801825E9C45059740F46EE1600F6093D7
:100E100091028CE090E00E94702B17FF7AC0F701DE
:100E20008281882309F475C00E94D7268695817037
:100E30008093ED0190919102913029F4882319F06B
:100E400089E30E94F1178091F7018093EC011092E1
:100E5000F70180919102813071F048F0823081F089
:100E60008430A1F486EE0E94F11788E10DC082EE75
:100E70000E940F260BC088E193E00E94252506C042
:100E800082EE0E940F2687E50E94F1178FE39CE90E
:100E90000197F1F700C000004801E89497F87CE062
:100EA000A72EB12CC4010A2C02C0969587950A94EE
:100EB000E2F78F7096EF980F963010F0805D01C0CA
:100EC000895A0E94602494E0A91AB108ACEFAA16CE
:100ED000AFEFBA0639F780919102813039F078F09E
:100EE000823069F0843089F488E20DC08CE20E947F
:100EF000F1178091ED01882341F089E304C082EE6F
:100F00000E94B32502C00E94F1178091EC018093EA
:100F1000F701F7018281882309F43FC0809119030A
:100F2000882329F1C80190568115F0E29F0720F02F
:100F3000905E8115904110F46801DD2480911803C2
:100F4000853060F4E82FF0E0EE0FFF1FE45FFC4F08
:100F5000D182C0828F5F8093180302C01092190360
:100F60000E946711909317038093160324C30932DC
:100F70008DE5180791F481E0809319030E946711B1
:100F80009093170380931603109218038AE0ECE005
:100F9000F3E0DF011D928A95E9F7F701828188234A
:100FA00009F458C00B35BDE51B0709F44EC058F4D1
:100FB0000115FCE51F07C1F00F3D1C4509F04AC0B3
:100FC0000E944E13F8C20C358DE5180709F43FC096
:100FD0000D351D4509F03EC08091900282FB8827A7
:100FE00080F991E0892734C01092F7010E94BE1762
:100FF000AFEFB4E3ECE0A150B040E040E1F700C057
:10100000000081E08093E00080E28093D80010929D
:10101000C9008FE19EE40197F1F700C0000087E06E
:1010200090EBDC018093460790934707A093480715
:10103000B09349079CE088E10FB6F894A895809397
:1010400060000FBE90936000FFCF81E001C080E0A0
:101050000E94FA13D70112968C9112970C91119657
:101060001C91882349F0C8010E948A14D82E682F49
:10107000C8010E94FB1604C0C8010E94CF16D82EDA
:10108000E12FF0E0B8E0DB9EE00DF11D112433E02C
:10109000EE0FFF1F3A95E1F7E00FF11DEE0FFF1F76
:1010A000E151FE4F859194910E94C3118C01982EBD
:1010B000F701C280A580A2945FE0A522809176020C
:1010C000877099F0CC2089F0812F807F803421F0C7
:1010D00080E2800F883048F082E00E94761780918D
:1010E00076028770DD24D3948111D12CB12EB29475
:1010F0002FE0B2228B2D90E08C30910508F01BC2BE
:10110000FC01EE59FF4F0C94C42B812F807F1F7080
:10111000882311F01295107FCC20B9F0112309F427
:10112000F5C180E2800F883010F0911006C08091E8
:10113000F701182B1093F70105C080917802182B46
:10114000109378020E94BF13E1C1802F0E94B32543
:10115000112309F4F0C1005E1095083010F09110D1
:1011600006C08091F70118231093F70105C0809104
:1011700078021823109378020E94BF13DCC1812FDC
:10118000807F1F70803211F01295107F992021F01E
:10119000F1E09F1601F12EC0CC20A1F08091B502A4
:1011A000AA2071F021E0A2120BC0182B909190029E
:1011B00092FDC1C1181709F4BEC11093B502BBC19D
:1011C000812B10C0AA2021F081E0A81609F4B3C138
:1011D0000E94B91321C0CC2041F095E09A1508F483
:1011E000AAC1812F0E94E717A6C1A4E0AA1508F49E
:1011F000A2C112C0CC2019F0AA2099F387C1AA205D
:1012000059F0093309F094C1BFEFE7EEF3E0B150B4
:10121000E040F040E1F78AC1812F0E94DC178BC1CA
:10122000812F86958695837019F0813059F083C19E
:10123000CC2019F0C801937002C080E090E00E94B9
:10124000C1267FC1CC2019F0C801937002C080E094
:1012500090E00E94AB2675C1812F837009F069C0B0
:10126000C1106DC1902F929596959770990F990F17
:10127000802F8F70882E912CA12CB12C092E04C0A8
:10128000880C991CAA1CBB1C0A94D2F704FF12C03C
:101290004FE050E060E070E004C0440F551F661F4F
:1012A000771F9A95D2F7DB01CA0180959095A0959A
:1012B000B09503C080E090E0DC0116951695412FB3
:1012C0004370423019F1C8F40091AD021091AE02A2
:1012D0002091AF023091B002413059F0882999290C
:1012E000AA29BB29BC01CD0160237123822393234A
:1012F0000AC0802A912AA22AB32ABC01CD016829FA
:1013000079298A299B290E94B41719C1882999290A
:10131000AA29BB290091AD021091AE022091AF0223
:101320003091B002BC01CD0160277127822793273D
:10133000EACFCC2019F0812F817001C086958823D7
:1013400009F4FDC0902F929596959770990F990F7B
:10135000802F8F70882E912CA12CB12C092E04C0C7
:10136000880C991CAA1CBB1C0A94D2F704FF12C05B
:101370004FE050E060E070E004C0440F551F661F6E
:10138000771F9A95D2F7DB01CA0180959095A095B9
:10139000B09503C080E090E0DC0116951695412FD2
:1013A00043704230D9F068F50091B1021091B20259
:1013B0002091B3023091B402413059F08829992923
:1013C000AA29BB29BC01CD01602371238223932369
:1013D0001EC0802A912AA22AB32A13C088299929DB
:1013E000AA29BB290091B1021091B2022091B30247
:1013F0003091B402BC01CD01602771278227932769
:1014000006C0BC01CD01682979298A299B290E943F
:10141000261795C01F70CC2039F0812F0E9493179A
:10142000802F0E94E7178BC0802F0E94DC17812F2E
:101430000E94511784C0802F22EF921629F129159E
:1014400038F090EF991659F0A1EF9A16C1F059C0F3
:10145000B3EF9B1601F1E4EF9E16A1F152C0CC2030
:1014600049F0F4E0FA1508F466C0812F8F710E94EC
:10147000301761C025E02A1508F45DC0F6CFCC20F6
:1014800029F0812F8F7130C0CC20D9F3812F8F713B
:101490000E94511750C0CC2079F01F7181E090E07C
:1014A000A0E0B0E0BC01CD0104C0660F771F881F2B
:1014B000991F1A95D2F703C060E070E0CB010E943B
:1014C000261739C0CC2099F01F71812F0E949317E5
:1014D0008091900282FD07C0A8E01A9FC0011124EC
:1014E000836080937602812F0E94931724C081E04D
:1014F0000E947617B1E0BA15F0F482E00E947617E8
:101500001AC0CC2039F0AA2009F4BBCF802F0E944A
:101510000F2611C0AA2009F4B9CF893349F4EFEF9F
:10152000F7EE23E0E150F0402040E1F700C000007A
:10153000802F0E94B32588EF8B0D843010F40E9419
:10154000D726DD20B1F08091760280FD12C0D70150
:1015500012961C928595859585950E949317C701D3
:101560000E94B705809176028595859585950E94A4
:10157000511785E0F701DE01119601900D928A95D1
:10158000E1F789819A810E94CF16EA81F0E0B8E004
:101590008B9FE00DF11D112483E0EE0FFF1F8A9554
:1015A000E1F78981E80FF11DEE0FFF1FE151FE4FBA
:1015B000859194911EC0809176028770D1F0D701F9
:1015C00012968C918823A9F082E02A960FB6F8949F
:1015D000DEBF0FBECDBFDF91CF911F910F91FF9066
:1015E000EF90DF90CF90BF90AF909F908F900C9432
:1015F00076172A960FB6F894DEBF0FBECDBFDF91E7
:10160000CF911F910F91FF90EF90DF90CF90BF90FF
:10161000AF909F908F9008952091E4003091E50065
:1016200095E64091EC00842F817040FF23C08091AB
:10163000E80080FD1DC080910402882399F0853068
:1016400099F08091EB0085FD11C04091E40050912C
:10165000E5002417350729F3915011F09A01E1CFE5
:1016600084E0089582E0089583E0089581E008957C
:1016700080E008954091E80042FFDDCF0895EF92A9
:10168000FF920F931F93CF93DF937C018B010E94F6
:101690000C0B811119C0E70101151105A1F0809112
:1016A000E80085FD0AC08091E8008E778093E8000D
:1016B0000E940C0B882381F307C089918093F1006D
:1016C00001501109E9CF80E0DF91CF911F910F9177
:1016D000FF90EF9008958091060287FF11C08091DE
:1016E000E80082FD05C0809104028111F8CF11C08D
:1016F0008091E8008B770BC080910402882349F029
:101700008091E80080FFF8CF8091E8008E77809389
:10171000E8000895982F973068F59093E90098179E
:1017200039F07091EC002091ED005091F00003C071
:10173000242F762F50E021FD02C09F5FECCF309127
:10174000EB003E7F3093EB003091ED003D7F309316
:10175000ED003091EB0031603093EB007093EC00C2
:101760002093ED005093F0002091EE0027FDE5CF8F
:1017700080E008958F708093E90081E008952091C2
:101780000C0230910D022617370748F061157105DC
:1017900039F42091E8002E772093E80001C0B901C8
:1017A000FC0120E06115710579F180910402882324
:1017B000F1F18530F1F18091E80083FD3CC080912A
:1017C000E80082FD2EC08091E80080FFEBCF2091E1
:1017D000F3008091F20090E0922B6115710551F0B9
:1017E0008830910538F421912093F10061507109FE
:1017F0000196F3CF21E0089709F020E08091E800FE
:101800008E778093E800CECF2111CFCF0AC0809190
:101810000402882361F0853061F08091E80083FD47
:101820000AC08091E80082FFF2CF80E0089582E054
:10183000089583E0089581E0089508958091F90165
:10184000089590910402943031F58093F3017093E0
:10185000F5016093F40182E08093E9008FEF9091AD
:10186000E800815095FD06C095ED9A95F1F70000CE
:101870008111F5CF8091E80085FF0DC040E050E078
:1018800063E070E083EF91E00E943F0B8091E800FD
:101890008E778093E8000895BC0184E00C94210CBD
:1018A000BC0183E00C94210CCF93DF9321E02093C3
:1018B000E9002FEF3091E800215035FD06C035EDED
:1018C0003A95F1F700002111F5CF2091E80025FFAE
:1018D00014C0EC0140E050E068E070E00E943F0B73
:1018E0008091E8008E778093E80088E0FE01AAEFFF
:1018F000B1E001900D928A95E1F7DF91CF910895C3
:101900000F931F93CF93DF93EC01FC010190002014
:10191000E9F78F0101501109C017D10728F460E0E1
:1019200089910E945827F8CFDF91CF911F910F9195
:101930000895EF92FF920F931F93CF93DF93EC01E3
:101940007B0164E670E088E70E941A288C01EC0EA7
:10195000FD1ECE15DF0561F017FD0AC0FE01849162
:1019600064E670E00E949B288C012196892B89F304
:101970000E941F29C801DF91CF911F910F91FF9005
:10198000EF9008951F93CF93DF93CDB7DEB7AA975B
:101990000FB6F894DEBF0FBECDBFE6E0F2E0809157
:1019A000F100819322E0EE30F207C9F7809107023F
:1019B000833009F460C030F4813071F0823009F472
:1019C0009CC0B3C08A3009F488C08B3009F46BC066
:1019D000893009F0AAC020C080910602813A09F03E
:1019E000A4C08091E800877F8093E80080910A027C
:1019F00090910B02892B21F468E08AEF91E003C0FB
:101A000060E080E090E070E00E94BF0B8091E80011
:101A10008B778093E80089C080910602813209F0BB
:101A200084C080910A0290910B02029708F07DC059
:101A30008091E800877F8093E8008091E80082FD34
:101A400005C0809104028111F8CF6FC02091F3008E
:101A50008091F20090E0922B029729F48091F1009E
:101A60008B7F813021F48091F1008093F901809186
:101A7000E8008B7756C080910602813A09F055C084
:101A800080910A0290910B02892B09F04EC080913F
:101A9000E800877F8093E8008091E80080FFFCCF1A
:101AA0008091000139C0809106028132F1F5809168
:101AB0000A0290910B02892BC1F58091E800877F83
:101AC0008093E8000E946B0B8091080280930001D4
:101AD0001092F7010E94BE1728C080910602813241
:101AE00021F58091E800877F8093E8000E946B0BCE
:101AF000809109028093F80118C080910602813A12
:101B0000A1F48091E800877F8093E8008091E8004D
:101B100080FFFCCF8091F8018093F1008091E80074
:101B20008E778093E8000E946B0B8091E80083FF22
:101B3000CCC18091060290910702492F50E04A30B3
:101B4000510508F0C2C1FA01E259FF4F0C94C42BB1
:101B5000803821F0823809F0B8C108C080910202B3
:101B600090910302992389F082600FC080910A024C
:101B70008F70873008F0A9C18093E9008091EB0055
:101B800085FB882780F91092E9009091E800977F03
:101B90009093E8008093F1001092F10065C1282F26
:101BA0002D7F09F092C1882319F0823061F08DC138
:101BB00080910802813009F088C1933009F080E0FB
:101BC000809303022EC08091080281112AC0809167
:101BD0000A028F702FEF280F263008F076C180930D
:101BE000E9002091EB0020FF1CC0933021F480918C
:101BF000EB00806214C09091EB0090619093EB0039
:101C000021E030E0A90102C0440F551F8A95E2F798
:101C10004093EA001092EA008091EB008860809384
:101C2000EB001092E9008091E800877F20C18111CC
:101C30004CC1109108021F778091E3008078812BBE
:101C40008093E3008091E800877F8093E8000E9402
:101C50006B0B8091E80080FFFCCF8091E3008068EF
:101C60008093E300111102C082E001C083E0809301
:101C700004022BC18058823008F027C180910802ED
:101C8000909109028C3D53E0950779F583E08A83B2
:101C90008AE289834FB7F894DE01139620E03EE094
:101CA00051E2E32FF0E050935700E49120FF03C08E
:101CB000E295EF703F5FEF708E2F90E0EA3010F00A
:101CC000C79601C0C0968D939D932F5F243149F72D
:101CD0004FBF8091E800877F8093E8006AE270E060
:101CE000CE0101960E94BF0BAEC040910A025091F6
:101CF0000B02292F332723303105A9F068F4213056
:101D0000310509F4F1C02230310509F0DEC08BE362
:101D100090E0EEE7F1E044C02132310521F12232BA
:101D2000310571F1D2C0992781309105A1F058F0A9
:101D3000029709F0CAC0EBECF1E0E4918E2F90E03D
:101D4000EBECF1E02AC0EBEEF1E0E4918E2F90E0B5
:101D5000EBEEF1E022C0E9EDF1E0E4918E2F90E0AE
:101D6000E9EDF1E01AC04115510509F4C2C0413056
:101D7000510509F0AAC089E090E0E9EAF1E010C05D
:101D80004115510509F4BAC04130510509F09DC013
:101D900082E390E0ECE0F1E003C0009709F495C025
:101DA0002091E800277F2093E80020910C023091D9
:101DB0000D028217930708F49C0140E021153105BC
:101DC00089F180910402882309F43DC08530D9F15E
:101DD0008091E80083FD37C08091E80082FD2FC02C
:101DE0008091E80080FFEACF4091F3008091F200FB
:101DF00090E0942B2115310559F08830910540F47D
:101E000044914093F1003196215031090196F2CF6F
:101E100041E0089709F040E08091E8008E778093D8
:101E2000E800CCCF4111CDCF0AC0809104028823B5
:101E300051F0853041F08091E80083FD04C080912D
:101E4000E80082FFF2CF8091E8008B778093E80072
:101E50003CC08038D1F58091E800877F8093E8000E
:101E6000809105028093F1008091E8008E77809345
:101E7000E8000E946B0B29C0811127C080910802E5
:101E8000909109029927029704F58091E800877FD5
:101E90008093E80010910802109305020E946B0BDA
:101EA000111106C08091E30087FD02C081E001C0EE
:101EB00084E08093040242E061EC81E00E948A0B9E
:101EC00042E261EC82E00E948A0B8091E80083FF8D
:101ED0001AC08091E800877F8093E8008091EB0032
:101EE00080628093EB000FC082E190E0E9EBF1E0CB
:101EF00057CF89E090E0E0E9F1E052CF80E490E054
:101F0000EEE3F1E04DCFAA960FB6F894DEBF0FBE18
:101F1000CDBFDF91CF911F9108951F920F920FB601
:101F20000F9211242F933F934F935F936F937F935F
:101F30008F939F93AF93BF93CF93DF93EF93FF93D1
:101F4000C091E900CF708091EC00D82FD17080FD56
:101F5000D0E81092E9008091F000877F8093F00034
:101F600078940E94C20C1092E9008091F000886081
:101F70008093F000CD2BCF70C093E900FF91EF91DB
:101F8000DF91CF91BF91AF919F918F917F916F9191
:101F90005F914F913F912F910F900FBE0F901F9027
:101FA0001895E8EDF0E080818E7F80831092E2004A
:101FB0001092DA001092E100A0EEB0E08C91816006
:101FC0008C9380818F77808319BCA7EDB0E08C91D2
:101FD0008E7F8C9380818F7E80831092F60108958E
:101FE000CF92DF92EF92FF920F931F93CF93DF93E5
:101FF000C8EDD0E088818F7E8883E7EDF0E08081B6
:102000008160808384E082BF81E08093F6018881D3
:102010008E7F888302EE10E0F80110821092DA00C1
:1020200081EEC82ED12CF601108288818F778883AB
:1020300088818068888388818F7D888319BC10920D
:10204000040210920502109203021092020290EE16
:10205000E92EF12CF70180818B7F8083888181605C
:10206000888342E060E080E00E948A0BF601808174
:102070008E7F8083F8018081816080838081886089
:102080008083F70180818E7F80838881806188834F
:10209000DF91CF911F910F91FF90EF90DF90CF9044
:1020A00008951F920F920FB60F9211242F933F9312
:1020B0004F935F936F937F938F939F93AF93BF9350
:1020C000EF93FF938091E10082FF09C08091E200CD
:1020D00082FF05C08091E1008B7F8093E1008091B9
:1020E000DA0080FF2AC08091D80080FF26C080914E
:1020F000DA008E7F8093DA008091D90080FF18C0CB
:1021000080E189BD82E189BD09B400FEFDCF81E097
:10211000809304028091F60181110FC00E94D10FBB
:102120000E94F00F8091E20084608093E20005C07D
:1021300019BC109204021092F6018091E10080FF18
:1021400017C08091E20080FF13C08091E2008E7F73
:102150008093E2008091E20080618093E2008091B0
:10216000D80080628093D80019BC85E08093040277
:102170008091E10084FF2EC08091E20084FF2AC09C
:1021800080E189BD82E189BD09B400FEFDCF809167
:10219000D8008F7D8093D8008091E1008F7E80935E
:1021A000E1008091E2008F7E8093E2008091E20066
:1021B00081608093E20080910502882311F084E021
:1021C00007C08091E30087FD02C081E001C083E089
:1021D000809304028091E10083FF27C08091E20098
:1021E00083FF23C08091E100877F8093E10082E03C
:1021F00080930402109205028091E1008E7F80930B
:10220000E1008091E2008E7F8093E2008091E20005
:1022100080618093E20042E060E080E00E948A0BEF
:102220008091F00088608093F000FF91EF91BF9162
:10223000AF919F918F917F916F915F914F913F915E
:102240002F910F900FBE0F901F90189578941F92AA
:102250000F920FB60F9211248F939F93AF93BF935A
:102260008091EF019091F001A091F101B091F20104
:102270000196A11DB11D8093EF019093F001A093F1
:10228000F101B093F201BF91AF919F918F910F90A7
:102290000FBE0F901F9018959C014FB7F894809136
:1022A000EF019091F001A091F101B091F2014FBFC7
:1022B000821B930B08952FB7F8946091EF017091F2
:1022C000F0018091F1019091F2012FBF08952FB795
:1022D000F8948091EF019091F001A091F101B091FB
:1022E000F2012FBF08951F920F920FB60F92112483
:1022F0008F939F93AF93BF938091EE01811113C091
:102300008091EF019091F001A091F101B091F20163
:102310004196A11DB11D8093EF019093F001A09310
:10232000F101B093F201BF91AF919F918F910F9006
:102330000FBE0F901F9018959C012A5F3F4FFC0124
:102340004281461301C01282019682179307B9F7A2
:1023500008959C01FC0132969FEF80E04191461761
:1023600089F09F3F19F4411101C0982F8F5F86308B
:10237000A9F79F3F39F0F901E90FF11D97FDFA9593
:10238000628308950895CF93DF938238910569F1B0
:10239000B0F48133910509F46FC048F48932910596
:1023A00009F465C08A32910509F46BC08AC085338F
:1023B000910509F457C089339105B9F082C0833E75
:1023C000910571F138F4803E9105B1F0823E91059E
:1023D00011F177C0863E9105B9F1873E9105C9F1AB
:1023E000843E910509F06DC024C020918F0220FD2C
:1023F00053C021FD51C065C080918F0280FD46C051
:102400008091900280FF48C080918F0284FD3FC17F
:1024100083EE90E03EC180918F0282FF3AC0F4CFFC
:1024200080918F0282FD35C08091900280FD34C082
:10243000EBCF8091900281FF35C080918F0284FDA7
:1024400026C187EE90E025C180918F0283FF27C0CF
:10245000F4CF80918F0283FD22C08091900281FD94
:1024600021C0EBCF80918F0285FD1FC021C08091DC
:102470008F0285FD1DC019C080918F0286FD1BC093
:102480001DC080918F0286FD19C015C089E390E0C0
:1024900000C182EE90E0FDC080EE90E0FAC086EED2
:1024A00090E0F7C084EE90E0F4C089E290E0F1C0E3
:1024B00085E390E0EEC08AE290E0EBC081E390E03B
:1024C000E8C0811532E5930708F069C0811541E540
:1024D000940728F0982F8827816F906ADAC0883E89
:1024E000910568F5803E910508F0D3C0883A9105C2
:1024F000B8F4853A910548F0855AE82FF0E0EB589A
:10250000FE4F808190E09064C4C08130910509F451
:10251000BBC008F4BCC08430910508F4B8C0B9C091
:102520008F3B910508F0B3C0885AE82FF0E0EE0F1A
:10253000FF1FE858FE4F808191819464AAC08115E5
:1025400020E59207F0F09C0174E0369527957A9586
:10255000E1F7922F9370482F437021E030E002C0E2
:10256000220F331F4A95E2F73C68392B8F70982F62
:102570009695969540E2949FC0011124822B932B4F
:1025800088C0811530E4930718F09F70906A81C06D
:102590009C013A9521153F4108F47BC078C0EC01BD
:1025A000C11586E5D807E8F5C11525E5D20748F03D
:1025B0008C2F0E94471F8F7190E0982F8827906280
:1025C00068C0C11534E5D30728F09C2F8827846F95
:1025D000906A5FC0AE01437055272C2F2695269533
:1025E000C115D34578F481E090E002C0880F991FAF
:1025F0004A95E2F740E2249F90011124822B932B0D
:102600009C6847C081E090E002C0880F991F4A95FE
:10261000E2F740E2249F90011124822B932B9A68C9
:1026200038C0C1152AE5D207F8F4C11539E5D3073A
:1026300090F08C2F8F700E94471F94E0D695C7951D
:102640009A95E1F7CF70D0E0DC2FCC27D0699E01BE
:10265000282BC9011EC0C11548E5D407C0F09C2F26
:102660008827806F906A15C0CE01905681159042E0
:1026700070F48D2F8F710E94471F282F2F71CE016C
:1026800099279062922B05C081E090E002C080E023
:1026900090E0DF91CF9108950C945B1169EE7EEF8D
:1026A00080E090E00E948E2B60E082E090E00E944B
:1026B000702B60E083E090E00E94702B1092AD02DE
:1026C0001092AE021092AF021092B00260E084E06D
:1026D00090E00E94702B60E082E290E00E94702BFC
:1026E00060E085E090E00E94702B60E086E090E082
:1026F0000E94702B6FEF87E090E00E94702B40E00B
:1027000050E0BA0188E090E00E94822B60E08DE00A
:1027100090E00E94702B40E050E0BA0188E190E028
:102720000E94822B60E087E190E00E94702B40E0E5
:1027300050E0BA018CE190E00E94822B60E070E0F2
:1027400080E290E00E948E2B40E050E0BA0188E1E8
:1027500090E00E94822B40E050E0BA018FE090E0D0
:102760000E94822B40E050E0BA0183E190E00C949B
:10277000822B8091B50281111092B502089590913B
:10278000F70180917802892B20917702982F922B64
:1027900090930E028091B502882389F0892B809353
:1027A0000E02E0E1F2E097E080E0915029F0219103
:1027B0002223D9F38F5FF9CF81110E94B913E091E1
:1027C0004207F0914307309731F00280F381E02D0A
:1027D0008EE092E00994089580E090E00E94C12686
:1027E00080E090E00E94AB2610927802109277026F
:1027F0000C94BF13CF93C0919002C2FB992790F91C
:10280000981781F080FBC2F9C093900260918F020B
:1028100084E090E00E94702B6C2F82E290E0CF91D8
:102820000C94702BCF910895809175029091440281
:10283000891719F08F5F8770FBCF08950F931F934F
:10284000CF93DF938091430282958F7009F05DC032
:1028500080914002882309F458C08091750210913C
:10286000440260913E0270913F02C0914102D091BA
:10287000420291E06F3F09F090E0292F06E08117B6
:1028800009F443C0209721F07F3F21F030E003C0DE
:1028900031E001C0322F90E030FD34C0089FF001DC
:1028A000099FF00D1124DF01AB5BBD4F11963C91E8
:1028B0001197371327C03C91361324C012963C91D0
:1028C000129731111FC013964D915C9114974C1BB8
:1028D0005D0B4F3A5105B0F4809143028F708061D7
:1028E00080934302E65BFD4F80818F70806180831F
:1028F0008EE392E00E94B705DF91CF911F910F9177
:102900000C94141401968770BACFDF91CF911F9168
:102910000F9108958F929F92AF92BF92EF92FF9284
:102920000F931F93CF93DF938090B1029090B202E8
:10293000A090B302B090B4024091AD025091AE02AB
:102940006091AF027091B002842A952AA62AB72A14
:10295000CFE1D0E0E92EF12C082F10E0D501C40121
:102960000C2E04C0B695A795979587950A94D2F733
:1029700080FD04C0219790F780E01AC0FE0183E03B
:10298000EE0FFF1F8A95E1F7EE0DFF1D93E0EE0FAE
:10299000FF1F9A95E1F7E00FF11FEE0FFF1FE151C6
:1029A000FE4F859194910E94C311019719F38C2FCA
:1029B000DF91CF911F910F91FF90EF90BF90AF905B
:1029C0009F908F900895CF93DF93D82FC92F0E94A7
:1029D0008A14EC2FF0E098E0899FE00DF11D11249E
:1029E00083E0EE0FFF1F8A95E1F7ED0FF11DEE0F6B
:1029F000FF1FE151FE4F859194910E94C311DF9119
:102A0000CF910895FC01808191810E94E314292FC8
:102A10002F70E92FE295EF704E2F50E0FA013297B8
:102A2000EE30F105B8F4E858FF4F0C94C42B803F0A
:102A300099F018F4883E70F40FC0843F59F40CC02C
:102A4000883E50F0813F31F407C0822F86958695ED
:102A50008695089580E0089581E008959F92AF9251
:102A6000BF92CF92DF92EF92FF920F931F93CF937B
:102A7000DF93CDB7DEB761970FB6F894DEBF0FBE18
:102A8000CDBF8C0185E0F801DE011D9601900D920D
:102A90008A95E1F7F801E28090913E0260913F0251
:102AA00040914102509142024115510531F06F3F72
:102AB00031F481E09F3F19F403C081E001C080E060
:102AC000F82FF1709F2E80FD1AC1F801308121810D
:102AD000C380D4808EE3A82E82E0B82EF09040020E
:102AE000F601E41BF50BFF2009F4C6C080914302F8
:102AF000EF3AF10508F091C0482F407F09F050C02F
:102B0000621311C093130FC0FE2CE1100CC08F7024
:102B1000806180934302C5010E94B7058091430202
:102B2000F801858329C1CD2831F02F3F31F481E0B0
:102B30003F3F19F403C081E001C080E080FD03C085
:102B400081E08E2502C080E090E0F82FF170FF2E2A
:102B500080FF1CC0809175024091440256E08417AA
:102B600009F4E8C090E0589FF001599FF00D11243E
:102B7000EB5BFD4F6181261306C06081631303C0C8
:102B80006281E61203C001968770E9CFFE2CEE2029
:102B900009F4F2C08091430281608093430249C0EE
:102BA000621306C0931304C0E11002C0F80186C08E
:102BB000C8010E940215882351F1EE2041F12091B5
:102BC0004302822F82958F7090E0029774F080917B
:102BD0003E0290913F0298878F831986DB86CA86D2
:102BE0002C87CE0107960E94B70586E0F801AEE378
:102BF000B2E001900D928A95E1F70E941E140AC07E
:102C00006217C9F0C8010E94021581111EC0C801D7
:102C10000E94B705FF24F394AFC0482F407F81F78F
:102C20008EE392E00E94B70586E0F50111928A9545
:102C3000E9F7F12CA1C09313E5CFE110E3CFF80140
:102C40008583C8010E94B70554C0EE2001F320918E
:102C50004302822F82958F7090E0029734F2809128
:102C60003E0290913F029A8389831B82DD82CC824F
:102C70002E83CE010196B7CFEF3AF105D0F5FE2CA9
:102C8000EE2029F2621327C0931325C0209143023E
:102C900020FD18C0822F82958F70482F50E041157B
:102CA000510581F0F80125834F30510541F08F5FC8
:102CB000982F9295907F822F8F70892B8583C801E2
:102CC0000E94B70586E0F801AEE3B2E001900D92F4
:102CD0008A95E1F751C0C8010E940215811185CF84
:102CE00080914302816080934302C8010E94B7052E
:102CF00043C086E0F50111928A95E9F73DC0EE20C8
:102D000009F485CFC8010E940215F82E882309F422
:102D10007ECF86E0F801AEE3B2E001900D928A9595
:102D2000E1F780913E0290913F020E94E3140E94DD
:102D30001E1422C03D872E878D859E850E94E31438
:102D4000292F22952F70223028F49F7039F081119D
:102D500005C00BC0243028F49F7049F4805E883091
:102D600020F0C8010E94B7059F2CF92C05C0F8017E
:102D70009581907F99F7F9CF8F2D61960FB6F894D2
:102D8000DEBF0FBECDBFDF91CF911F910F91FF909E
:102D9000EF90DF90CF90BF90AF909F90089528E084
:102DA000929F800D1124682F669566956695982FE1
:102DB000977085E0689FB001112440E050E080E00A
:102DC000FB01E40FF51FEA5EFD4F208130E0092E84
:102DD00002C0369527950A94E2F721703327042E16
:102DE00001C0220F0A94EAF7822B4F5F5F4F4530F4
:102DF000510531F7089528E0929F800D1124E82FA6
:102E0000E695E695E695877051E001C0550F8A95E5
:102E1000EAF785E0E89FF0011124EA5EFD4F20E02B
:102E200030E070E04081CB01022E02C0969587957C
:102E30000A94E2F781708195842785238427819302
:102E40002F5F3F4F2530310569F708956093B10238
:102E50007093B2028093B3029093B4020C94EC137B
:102E60000F931F9341E050E060E070E004C0440F16
:102E7000551F661F771F8A95D2F78091B1029091F6
:102E8000B202A091B302B091B4028A019B0108275B
:102E900019272A273B27C901B8011F910F910C94CC
:102EA00026170F931F9341E050E060E070E004C0EC
:102EB000440F551F661F771F8A95D2F7409550958E
:102EC000609570958091B1029091B202A091B30289
:102ED000B091B4028A019B01082319232A233B23C2
:102EE000C901B8011F910F910C9426172091760209
:102EF0008095822380937602982F977041F430E07A
:102F0000482F082E000C550B2417350721F49091FB
:102F1000900292FF07C08595859585950E9451176F
:102F20001092760208950F931F9341E050E060E005
:102F300070E004C0440F551F661F771F8A95D2F7B3
:102F40008091B1029091B202A091B302B091B4020B
:102F50008A019B01082B192B2A2B3B2BC901B80195
:102F60001F910F910C9426176093AD027093AE02DF
:102F70008093AF029093B0020C94EC1386E0E0E1F2
:102F8000F2E0DF011D928A95E9F70C94EC13882397
:102F900041F08095909178028923809378020C9477
:102FA000BF130895882339F090917802892B80937C
:102FB00078020C94BF130895882341F08095909176
:102FC000F70189238093F7010C94BF130895882398
:102FD00039F09091F701892B8093F7010C94BF137E
:102FE00008951F93CF93DF93182F893319F0C0E012
:102FF000D0E002C0C0E5D0E0812F0E940F262097CC
:1030000041F08FE99FE00197F1F700C000002197A0
:10301000F6CF812FDF91CF911F910C94B325CF92E2
:10302000DF92EF92FF92CF93DF931F92CDB7DEB77F
:1030300080913E07898320918502C0908602D090BE
:103040008702E0908802F09089029FB7F89440913F
:10305000EF015091F0016091F1017091F2019FBF79
:103060004C195D096E097F094436510561057105EA
:1030700028F490E030E08217930729F1809136011F
:103080009091370186589D4F4091350150E0411590
:10309000510511F041E050E0BE016F5F7F4F0E948B
:1030A000D72B85E090E00E948D2A892B11F080E0DB
:1030B0000BC00E945B11609386027093870280931D
:1030C00088029093890281E00F90DF91CF91FF9069
:1030D000EF90DF90CF900895AF92BF92CF92DF92A2
:1030E000EF92FF920F931F93CF93DF937C015B01CD
:1030F0006A0180918A028A3018F001E010E002C073
:103100000AE010E0C1E0D0E0F894B501C701F60193
:1031100009957894811115C021960C171D0794F01C
:10312000CC9F9001CD9F300D300D112480E090E0B8
:1031300045E34A95F1F70000019682179307C1F71E
:10314000E3CF81E0DF91CF911F910F91FF90EF903E
:10315000DF90CF90BF90AF900895CF93DF93CDB71E
:10316000DEB7E0970FB6F894DEBF0FBECDBF84B7D1
:10317000877F84BF0FB6F894A8958091600088611E
:1031800080936000109260000FBE90E080E80FB660
:10319000F89480936100909361000FBE85B78068BA
:1031A00085BF85B7806885BF8DE49DE19093EB0175
:1031B0008093EA010E94D10F0E94F00F8091E200FB
:1031C00084608093E2007894809104028823A1F0C7
:1031D0001091E9001F709091EC00892F817090FD93
:1031E00080E8182B1092E9008091E80083FD0E948E
:1031F000C20C1F701093E90082E084BD93E095BD7E
:103200009AEF97BD80936E0010928B0210928C0201
:1032100010928D0210928E020E949B1E80933D019F
:103220000E949B1E81110E94802980913D01809106
:103230003D01811102C094E001C090E090939E0294
:1032400084E0891B80939D020AEB11E07EEBE72E60
:1032500071E0F72ED8018D918D018F3F11F00E9402
:10326000301FE016F106B1F702EC11E06AECE62E31
:1032700061E0F62EF80181918F018F3F11F00E94DD
:10328000301FE016F106B1F7E5E9F2E08DE992E0D2
:10329000A0EAB2E011921D928E179F07D9F780E045
:1032A00090E00E946A2B893E9E4F11F00E944E13BF
:1032B00082E090E00E94622B8093FB0284E090E029
:1032C0000E94622B182F82E290E00E94622B212F35
:1032D00030E0382B3093900220938F0283E090E00F
:1032E0000E94622B682F70E080E090E00E94B4178B
:1032F0008CE090E00E94622B90E0A0E0B0E0809330
:10330000910290939202A0939302B09394020E9430
:103310009B1E811102C00E94832982E08093F602E5
:1033200080E880932F030E9414286DE070E082E013
:1033300094E00E94990C892B09F043C08091F60219
:1033400063E070E081FD3AC08FEF93E00E94990C3A
:10335000892BB9F56DE070E08FEE93E00E94990C37
:10336000892B79F50E945B11DC01CB01805A9541D4
:10337000AF4FBF4F80933A0790933B07A0933C0712
:10338000B0933D07E2E3F3E080E094E0DF019C01CD
:103390001D9221503040E1F7F0933907E093380750
:1033A0008FEF9FEF909331038093300381E0809300
:1033B0003F0780933E071092F70203C08CEF93E023
:1033C000C5CF80913D01811106C085E380934901FD
:1033D00086E68093480120914901E22FE295EF7043
:1033E000F0E031A12F7081E090E0AC01022E01C02D
:1033F000440F0A94EAF7542F5095352331A332A194
:10340000432B42A340914801A42FA295AF70B0E096
:1034100091963C9191974F70042E01C0880F0A94A9
:10342000EAF7982F9095932391969C939197929673
:103430009C919297892B92968C93929780A190E081
:1034400002C0959587952A95E2F7817090962C9108
:1034500030E002C0359527954A95E2F720FD02C07D
:1034600090E001C092E0892B8093AC0290913D01E5
:1034700081E098279093AB02891B80939F028EE393
:1034800091E0909343078093420740E4C42E2224A6
:103490002394312C80910402853009F046C000E16C
:1034A00012E180910402853009F039C08091040254
:1034B000843019F11092EE0188E190E00FB6F89493
:1034C000A895809360000FBEC092600083B7817F93
:1034D000846083BF83B7816083BF7894889583B706
:1034E0008E7F83BF0FB6F894A895809160008861A5
:1034F00080936000109260000FBE809103028823C9
:1035000009F4CFCF0E948A1FE0EAF2E08191811195
:10351000ACC2A8EAB2E0AE17BF07C1F7C2CF1092A3
:10352000F7010E94BE170E94D7260E948A1FB82E5C
:1035300081110E945B11ECEFF2E0A0EAB2E000E042
:1035400010E0A02EDD9081918D2509F454C0E12C6E
:10355000FF24F3949F2D982309F448C00E949B1EDA
:10356000882399F0EDA2AEA2DF2081E009F480E08B
:103570008FA30E9467118160782F99A788A74DA11A
:103580005EA16FA189A50E94B623F801E450FD4F0A
:103590008081F826F082E091AC025E2F550F550F26
:1035A00020914901E22FE295EF70F0E080A190E0D8
:1035B0002F7002C0959587952A95E2F7817099271B
:1035C00040914801E42FE295EF70F0E020A130E057
:1035D0004F7002C0359527954A95E2F7F901E170E1
:1035E000FF2720FF1FC0E2E0F0E01CC0E394FF0CC7
:1035F00028E0E212AFCF0F5F1F4F0830110509F02E
:10360000A0CF8FEF8AA78BA71CA60E9467118160AD
:10361000782F9EA78DA74AA55BA56CA58EA50E94B5
:10362000B623B9CFE82BF92BE52BE093AC02109130
:10363000AB02EF70F0E0E653FE4F90818091AA025A
:10364000890F8093AA02843074F0E12FF0E0E855EE
:10365000FD4F80818F5F808360E0812F0E945C2519
:10366000DD24D39401C0D12C8091AA028D3F6CF44B
:10367000E12FF0E0E855FD4F80818150808361E0CB
:10368000812F0E945C25DD24D3948091AA02082E0C
:10369000000C990B64E070E00E94B02B8093AA02AA
:1036A000D1100E944C1380913F07882309F4CCC1AC
:1036B0008091F8029091F9020E944C11C29708F48F
:1036C000C2C00E9467119093F9028093F80282E3CE
:1036D00093E090933907809338070E949B1E8823BC
:1036E00009F4B1C084E2E1E5F1E0DE011196019058
:1036F0000D928A95E1F74091B1025091B20260912A
:10370000B3027091B4028091AD029091AE02A0918B
:10371000AF02B091B002842B952BA62BB72BAD0135
:1037200066277727411551056105710521F0DB01F9
:10373000CA0110E101C010E0492F5A2F6B2F7727E3
:10374000411551056105710519F0185FDB01CA01CA
:10375000AC01BD0104E076956795579547950A95AC
:10376000D1F7411551056105710519F01C5FDB01A9
:10377000CA01AC01BD01F2E0769567955795479572
:10378000FA95D1F7411551056105710519F01E5FD4
:10379000DB01CA01B695A79597958795892B8A2B4A
:1037A0008B2B09F01F5F86EA91E00E94800C143099
:1037B00050F481E090E08C0F9D1F39E0139F800D45
:1037C000911D112402C08EEA91E00E9457258CEAD7
:1037D00091E00E9457251091B5028091F701182BB6
:1037E00060E089E194E00E94EB27812F827261E022
:1037F00009F460E087E194E00E94EB2761E0812F0B
:10380000817109F460E085E194E00E94EB2761E0BA
:10381000812F847409F460E083E194E00E94EB2737
:10382000187861E009F460E081E194E00E94EB2700
:1038300081E00E94272760E08FE094E00E94EB2760
:1038400081E00E94272780913F07882309F4E1C087
:1038500020913003309131032115310509F4D9C08D
:103860008091F7028111D5C0482E512C7101082E8C
:1038700002C0EE0CFF1C0A94E2F7A9014E215F2161
:10388000452B11F48F5FF0CF9091F602920176E014
:10389000220F331F7A95E1F790FD13C08295880FB0
:1038A000880F807480934C01220F232F221F330B2B
:1038B000319520934F01815C80934D01109250010E
:1038C00012C056E0369527955A95E1F7220F220F40
:1038D000220F20934C0110924F01295F20934D013C
:1038E00087E08093500124E630E047E050E06AE44E
:1038F00071E088E70E94CB28892B09F08AC080916B
:10390000F60280FD23C0C20146E0880F991F4A9548
:10391000E1F7AC014E5C5C4F04E610E020E430E0DF
:1039200060E488E70E94F228892B09F072C00E94A7
:103930000127E094F0948091300390913103E822C4
:10394000F922F0923103E092300363C0E6EBF2E03B
:10395000DF012C2D1D922A95E9F736E0440C551C09
:103960003A95E1F782EE91E098AB8FA74AED51E0EE
:10397000AFA5B8A98D91B8ABAFA7FA019191AF01EE
:103980008201090F111D0E5C1C4F90E08A549D4F5F
:10399000FC0127E0922E9F01281B390B722C01C0DD
:1039A000770C2A95EAF7B801812CDB01AD90BD01B7
:1039B000A720292D28192770622E022E000C330B08
:1039C000BA2D01C0BB0F6A94EAF76B2E3195219591
:1039D00031092770332701C0A6942A95EAF76A288F
:1039E000A0806A286082839428E08212DECF9A94B5
:1039F00031963FEF9312CFCF8FA598A98A5E914061
:103A000009F0B6CF04E610E020E430E046EB52E0E7
:103A100087CF80913E078823B9F00E945B11009107
:103A20003A0710913B0720913C0730913D07DC019C
:103A3000CB01801B910BA20BB30B8F3F9F4FAF4F5E
:103A4000BF4710F40E94E726B11001C0D1100E94B8
:103A500001270E94D7269091FA02891709F41ACDFE
:103A60000E94D7268093FA0215CD09BD19BD09B46D
:103A700000FEFDCF8091D8008F7D8093D80080918B
:103A8000E00082608093E0008091E00081FDFCCF47
:103A90001092F7010E94BE1704CD80E008957F9236
:103AA0008F929F92AF92BF92CF92DF92EF92FF924E
:103AB0000F931F93CF93DF931F92CDB7DEB7762E70
:103AC0004A0159016801082F880F110BC8010E9493
:103AD0008D2A892B09F07EC08AE0809FF001819FAA
:103AE000F00D1124EF5FFE4F458150E04115510567
:103AF00011F041E050E08AE0809FF001819FF00DDD
:103B00001124EF5FFE4F6681778166587D4FCE01AD
:103B100001960E94D72BF40140815181628173810B
:103B20002FB7F8948091EF019091F001A091F101ED
:103B3000B091F2012FBF841B950BA60BB70B8436F7
:103B40009105A105B10540F4B701C6010E94FD270A
:103B50009981891709F440C0072D770C110BC80112
:103B60000E948D2A892B09F5E114F10401F18AE004
:103B7000809FF001819FF00D1124EF5FFE4F458182
:103B800050E0E416F50608F4A7018AE0809FF001F2
:103B9000819FF00D1124EF5FFE4F6681778166589B
:103BA0007D4FC5010E94D72B02C010E001C011E07B
:103BB000B701C6010E94FD2791E02981281390E0FA
:103BC000192381F00E945B11F40160837183828369
:103BD000938308C010E001C011E0A701B601C50140
:103BE0000E94D72B812F0F90DF91CF911F910F91C2
:103BF000FF90EF90DF90CF90BF90AF909F908F900D
:103C00007F900895CF92DF92EF92FF920F931F93D0
:103C1000CF93DF931F92CDB7DEB7EE24E394F12C60
:103C200000E812E09E012F5F3F4F47E253E063E060
:103C300082E00E944F1DC82E882379F1D0909F0208
:103C40008D2D90E09C0128553D4F79011981F90196
:103C50008081181B012F80E010165CF40150F701E1
:103C600080818F5F808360E08D2D0E945C2581E0E4
:103C7000F3CF912F17FD90E0191B112359F01F5F0F
:103C8000F70180818150808361E08D2D0E945C2549
:103C900081E0F3CF81110E944C138C2D0F90DF91A6
:103CA000CF911F910F91FF90EF90DF90CF900895EB
:103CB000CF92DF92EF92FF920F931F93CF93DF93F8
:103CC00000D000D0CDB7DEB76B0184E0E82EF12C38
:103CD0000BE712E09E012F5F3F4F43E253E061E0AC
:103CE00080E00E944F1D882361F049815A816B81D9
:103CF0007C8140931F0350932003609321037093B2
:103D0000220340911F035091200360912103709181
:103D10002203F60140835183628373830F900F90D7
:103D20000F900F90DF91CF911F910F91FF90EF9027
:103D3000DF90CF90089580911E03811118C088EC08
:103D40009091E30097FD0AC0EFE3FCE93197F1F7AA
:103D500000C000008150A1F782E001C081E08093A3
:103D60001E03823021F40E94D10F1092040281E0E0
:103D700090911E03913009F080E008950F931F93F6
:103D8000CF93DF9300D000D0CDB7DEB740912B03A7
:103D900050912C0360912D0370912E032FB7F8944E
:103DA0008091EF019091F001A091F101B091F201A9
:103DB0002FBF841B950BA60BB70B84369105A1056D
:103DC000B10508F443C00E949B1E882319F00E948D
:103DD0005B110EC00E945B1100918B0210918C024E
:103DE00020918D0230918E02600F711F821F931FF0
:103DF000DC01CB010296A11DB11D89839A83AB839F
:103E0000BC8380912C0190912D0186589D4F40914B
:103E10002B0150E04530510510F044E050E0BE0168
:103E20006F5F7F4F0E94D72B84E090E00E948D2A25
:103E3000892B11F080E00BC00E945B1160932B0373
:103E400070932C0380932D0390932E0381E00F90A9
:103E50000F900F900F90DF91CF911F910F910895C8
:103E6000F894E82FE295EF70F0E031A1282F2F7041
:103E700081E090E001C0880F2A95EAF7982F90958D
:103E8000932391A392A1892B82A378940895909172
:103E90008F0292FF0DC0282F2871283019F4877FD8
:103EA000846006C0282F2471243011F48B7F886031
:103EB00093FF0DC0282F2871283119F4877E846163
:103EC00006C0282F2471243111F48B7E8861209143
:103ED000900220FF0DC0382F3871383019F4877FD9
:103EE000816006C0382F3171313011F48E7F8860C7
:103EF00021FF0DC0282F2871283119F4877E816198
:103F000006C0282F2171213111F48E7E886194FD25
:103F1000877E08957F928F929F92AF92BF92CF92A9
:103F2000DF92EF92FF920F931F93CF93DF93CDB762
:103F3000DEB72C970FB6F894DEBF0FBECDBF9E0143
:103F40002F5F3F4F790188E0D9011D928A95E9F7EB
:103F50000AEB11E069018EEB882E81E0982EAA24ED
:103F6000A394B12CF80180818F3F09F448C0F894E4
:103F7000E82FE295EF70F0E021A18F70A50102C05B
:103F8000440F551F8A95E2F7CA01922F982B91A3EF
:103F900092A18095892382A3789400C0E2ECF1E09D
:103FA00020E030E0712C81918F3FB9F0A82FA295CD
:103FB000AF70B0E090964C9150E08F70DA0102C083
:103FC000B595A7958A95E2F7A0FD07C08A2D022E28
:103FD00001C0880F0A94EAF701C080E0782A2F5FB9
:103FE0003F4F28303105F9F6F80180818F3F11F0FD
:103FF0000E94301FF0EAFA95F1F7D6017C920F5F2C
:104000001F4FBFEFCB1ADB0A8016910609F0AACF2B
:1040100048E050E0B70185E992E00E94CA2B8C018C
:10402000892B41F088E0F701A5E9B2E001900D92FB
:104030008A95E1F7F0909E020115110549F081E0A3
:10404000809306030E9467119093050380930403F5
:10405000809106038823B1F08091040390910503B9
:104060000E944C11059770F0A5E9B2E0EF2DF0E049
:10407000E056FD4F8D91819322E0A939B207D1F727
:10408000109206030115110509F02CC30E949B1E16
:10409000E0919E02882309F4C1C219861A861B8604
:1040A0001C860E2F10E000561D4F80918A02AE0133
:1040B000435F5F4F7A018A3058F448E55EE1BE0104
:1040C000675F7F4FC8010E946C18882361F10AC0A6
:1040D00080910703909108030E944C11843F914006
:1040E00060F732C042E05EE1BE01675F7F4FC8010A
:1040F0000E946C188823B9F04EEB5EE1BE01675F49
:104100007F4FC8010E946C18882369F04FE058E186
:10411000BE01675F7F4FC8010E946C18882319F0A9
:1041200010928A0219C080918A028F3F19F08F5F26
:1041300080938A0280918A028A3070F00E9467110F
:104140009093080380930703E0919D02F0E0E0560E
:10415000FD4FDE01199613C0E0919D02F0E0E0569C
:10416000FD4FDE01199600E08D919081981711F0B6
:10417000808301E03196AE15BF05B1F706C01192FC
:104180001D92EA16FB06D9F701E080910B03882304
:1041900071F08091090390910A030E944C11833EB3
:1041A000944028F080EE0E94B32510920B0380917A
:1041B0001903882309F498C280911803882309F40D
:1041C00093C280911603909117030E944C11853F72
:1041D000914008F489C21092190380910C039091C8
:1041E0000D030497D9F480910E0390910F03892B4E
:1041F000A9F48091100390911103892B79F4809197
:10420000120390911303892B49F480911403909128
:104210001503892B19F484E30E94F11780910C0394
:1042200090910D030897E1F480910E0390910F0394
:10423000892BB1F48091100390911103892B81F4A3
:104240008091120390911303892B51F480911403F0
:1042500090911503892B21F488E094E10E94252593
:1042600080910C0390910D034297D9F480910E0335
:1042700090910F03892BA9F4809110039091110361
:10428000892B79F48091120390911303892B49F4BF
:104290008091140390911503892B19F483E30E94F4
:1042A000F11780910C0390910D034897D9F48091F8
:1042B0000E0390910F03892BA9F480911003909124
:1042C0001103892B79F48091120390911303892BA8
:1042D00049F48091140390911503892B19F48FE20E
:1042E0000E94F11780910C0390910D034697D9F429
:1042F00080910E0390910F03892BA9F480911003F4
:1043000090911103892B79F48091120390911303FA
:10431000892B49F48091140390911503892B19F48A
:104320008DE20E94F11780910C0390910D03439749
:1043300039F580910E0390910F03892B09F5809137
:10434000100390911103892BD9F48091120390915D
:104350001303892BA9F48091140390911503892BE1
:1043600079F480EE0E940F2681EE0E940F2684E2EF
:104370000E94F11781EE0E94B32580EE0E94B325C2
:1043800080910C0390910D03099739F580910E03EC
:1043900090910F03892B09F58091100390911103DF
:1043A000892BD9F48091120390911303892BA9F4DE
:1043B0008091140390911503892B79F480EE0E946B
:1043C0000F2681EE0E940F2685E20E94F11781EEF2
:1043D0000E94B32580EE0E94B32580910C0390913A
:1043E0000D03C79721F580910E0390910F03892B40
:1043F000F1F48091100390911103892BC1F4809105
:10440000120390911303892B91F4809114039091DE
:104410001503892B61F482EE0E940F268CE30E9423
:10442000F11782EE0E94B32581E10E94F11780917D
:104430000C0390910D030F97D9F480910E03909186
:104440000F03892BA9F48091100390911103892BFC
:1044500079F48091120390911303892B49F4809190
:10446000140390911503892B19F483E00E943017EF
:1044700080910C0390910D03409769F580910E0394
:1044800090910F03479739F5809110039091110394
:10449000892B09F58091120390911303892BD9F48C
:1044A0008091140390911503892BA9F483EE94E075
:1044B0000E94C62483E30E94F1178DED94E00E94D0
:1044C000C6248FE20E94F1178DE20E94F11783ED5E
:1044D00094E00E94C62480910C0390910D034097B4
:1044E000A1F580910E0390910F03469771F580918D
:1044F000100390911103892B41F580911203909143
:104500001303892B11F58091140390911503892BC6
:10451000E1F48FEC94E00E94C62483E30E94F1173B
:1045200089EC94E00E94C6248FE20E94F1178DE28C
:104530000E94F1178EEB94E00E94C62483E30E9450
:10454000F11787EB94E00E94C62480910C039091B0
:104550000D03409769F580910E0390910F034597E5
:1045600039F58091100390911103892B09F5809101
:10457000120390911303892BD9F480911403909125
:104580001503892BA9F488EA94E00E94C6248FE2DF
:104590000E94F1178DE20E94F1178DE994E00E94CC
:1045A000C62483E30E94F11786E994E00E94C624A2
:1045B00080910C0390910D03409709F095C0809174
:1045C0000E0390910F034A9709F08EC0809110035B
:1045D00090911103892B09F087C08091120390916B
:1045E0001303892B09F080C0809114039091150367
:1045F000892B09F079C08DE894E00E94C62483E3FA
:104600000E94F11780E794E00E94C62483E30E9491
:10461000F1178FE194E00E94C62466C0F0E0E056F6
:10462000FD4FF89484E0ABE7B2E001900D928A95DB
:10463000E1F764E070E08BE792E00E94FD27809351
:104640007A027894F894E091AB02F0E0E855FD4FDF
:10465000808189878093800261E070E0CE010996B5
:104660000E94FD2780937F027894F894C090810285
:10467000D0908202E0908302F090840280911A032D
:1046800090911B03A0911C03B0911D03C816D9067D
:10469000EA06FB06D1F0C0921A03D0921B03E09207
:1046A0001C03F0921D030E949B1E81110EC00E94EC
:1046B0005B11C61AD70AE80AF90AC0928B02D09297
:1046C0008C02E0928D02F0928E027894F8948091A0
:1046D0008502882319F00E94012702C00E94E72664
:1046E000789402C001E010E0802F2C960FB6F89469
:1046F000DEBF0FBECDBFDF91CF911F910F91FF9015
:10470000EF90DF90CF90BF90AF909F908F907F9071
:1047100008959C013A9521153F4130F5BC0166276B
:104720007270AC01442754709C012227387094FFAA
:104730000FC090FF02C080E101C080E0672B09F04C
:104740008062452B09F08064232B79F080680895FE
:10475000892F8170672B09F08260452B09F08460F6
:10476000232B19F08860089580E008951F93CF935C
:10477000DF93CDB7DEB767970FB6F894DEBF0FBEF5
:10478000CDBF4B8B5C8B6D8B7E8B8F8B61111092B1
:10479000780286E09E01235F3F4FD901E82F1D92EA
:1047A000EA95E9F795E0FE017396D90101900D9223
:1047B0009A95E1F79C894E895F897B897D879E87E1
:1047C0006F87598B488BF901DE01179601900D9286
:1047D0008A95E1F7CE0107960E942E1581113EC001
:1047E00086E0FE013796DE01119601900D928A95C2
:1047F000E1F7FF81E8856A857B856115710531F0F8
:10480000EF3F31F481E0FF3F19F403C081E001C0C4
:1048100080E080FD23C02091440230E0C901019670
:10482000877099274091750250E08417950779F1B8
:10483000F983EA837D836C8396E0929FD001939FF6
:10484000B00D1124AB5BBD4FFE01319601900D926E
:104850009A95E1F7809344020E94141416E0809127
:10486000750290914402891709F1189FC001112423
:104870008B5B9D4F0E942E158823C1F0809175029D
:1048800090E001968770992780937502E8CF109287
:10489000F7010E94BE171092440210927502EEE3D7
:1048A000F2E086E0DF011D928A95E9F767960FB680
:1048B000F894DEBF0FBECDBFDF91CF911F91089559
:1048C000DF92EF92FF920F931F93CF93DF93E82F26
:1048D000F0E0E95EFA4FD490282F2695269526958C
:1048E00030E0F901E95FFA4F0491877010E0082E7B
:1048F00002C0159507950A94E2F701701127F90196
:10490000E950FB4FE490F12C082E02C0F594E79497
:104910000A94E2F791E0E922FF24F901E951FB4F03
:10492000C491D0E002C0D595C7958A95E2F7C170D1
:10493000DD270115110519F081EE0E940F26E11403
:10494000F10419F086EE0E940F268D2D0E94F117BA
:10495000EF2819F086EE0E94B325012B19F081EEA5
:104960000E94B325CD2B51F08CE2DF91CF911F91A6
:104970000F91FF90EF90DF900C94F117DF91CF91A2
:104980001F910F91FF90EF90DF900895FF920F938A
:104990001F93CF93DF938C018AE0F82EF801849166
:1049A000882309F44CC0813009F042C0E801219607
:1049B000FE018491813031F42196FE0184910E94A0
:1049C000F11739C0823039F4E8012296FE01849152
:1049D0000E940F2630C0833039F4E8012296FE0190
:1049E00084910E94B32527C0843029F5E8012296DE
:1049F000FE01249180E090E030E0205331092A301C
:104A0000310560F4F89EA001F99E500D1124C901F2
:104A1000840F951F2196FE012491EECF009759F047
:104A2000EFE9FFE03197F1F700C000000197F6CF02
:104A30000E946024E8018E010F5F1F4FAFCFDF910E
:104A4000CF911F910F91FF9008950F931F93CF93D4
:104A5000DF93EC018C01005E11090830110510F0A4
:104A6000009729F40E9489230E94E71704C00E943E
:104A700089230E94D2178C2F0E940F268C2F0E9410
:104A8000B325CE010830110510F0CD2B41F40E9462
:104A90008923DF91CF911F910F910C94DC170E9415
:104AA0008923DF91CF911F910F910C94C7170E941A
:104AB000800C81E00C942727CF93C62F4091B10240
:104AC0005091B2026091B3027091B40281111EC084
:104AD000411551056105710531F07695679557953A
:104AE000479540FD0DC084EECC2321F00E94F117C4
:104AF00089EA03C00E94F1178AEA0E94F11730C0C8
:104B0000CC2311F08DEBF9CF8EEBF7CF411551058A
:104B10006105710531F0769567955795479540FD8C
:104B200006C0CC2311F08EE4E8CF8BE4E6CF809171
:104B30000B03811106C081E080930B0380EE0E947D
:104B40000F260E94671190930A0380930903CC23D8
:104B500019F08BE290E002C08BE292E00E942525E2
:104B600080E0CF910895882309F458C0682F8238D7
:104B700069F40E94D72681FF51C069E38EE092E07C
:104B80000E94A9110E94BF1369E30EC0833891F4FB
:104B90000E94D72680FF42C063E58EE092E00E942B
:104BA000A9110E94BF1363E58EE092E00E949C1160
:104BB0000C94BF13843869F40E94D72682FF2EC05C
:104BC00067E48EE092E00E94A9110E94BF1367E49F
:104BD000EBCF8CEF860F813A38F380E2860F883076
:104BE00070F4677081E090E001C0880F6A95EAF781
:104BF00080959091F70189238093F701D9CF8BE5B8
:104C0000860F833020F480E090E00C94C126685A2F
:104C1000673120F480E090E00C94AB260895CF93A8
:104C2000882309F496C0C82F8238B1F40E94D72691
:104C300081FD8FC069E38EE092E00E94A9110E947D
:104C4000BF132FEF81EE94E0215080409040E1F7B8
:104C500000C0000069E317C08338E1F40E94D72642
:104C600080FD77C063E58EE092E00E94A9110E946A
:104C7000BF132FEF81EE94E0215080409040E1F788
:104C800000C0000063E58EE092E00E949C11CF918D
:104C90000C94BF138438B1F40E94D72682FD59C00A
:104CA00067E48EE092E00E94A9110E94BF132FEFEB
:104CB00081EE94E0215080409040E1F700C0000078
:104CC00067E4E1CF8CEF8C0F813A80F4E0E1F2E011
:104CD00086E192E02191C217A1F18E179F07D1F7CB
:104CE0006C2F8EE092E00E94A911D1CF80E28C0F50
:104CF000883068F4C77081E090E001C0880FCA95E1
:104D0000EAF79091F701892B8093F701C0CFEBE58B
:104D1000EC0FE33040F4F0E0EB58FE4F808190E080
:104D2000CF910C94C126C85AC73198F4EC2FF0E00B
:104D3000EE0FFF1FE858FE4F80819181CF910C94B8
:104D4000AB266C2F8EE092E00E949C110E94BF1354
:104D5000C7CFCF9108952091440730914507281778
:104D6000390771F09093450780934407E09142071B
:104D7000F0914307309721F00084F185E02D0994EC
:104D8000089520914007309141072817390771F0A5
:104D90009093410780934007E0914207F0914307C9
:104DA000309721F00680F781E02D099408950E9444
:104DB0009B1E882351F0E0914207F0914307309702
:104DC00021F00190F081E02D099480E00895809118
:104DD0003F0790913E07882389F0992369F062E0AC
:104DE00070E089ED9AE00E94990C892B19F080916E
:104DF0003E07089510923E0790913E0781E0892773
:104E0000089580913F078823F9F00E945B11DC012F
:104E1000CB01805A9541AF4FBF4F80933A07909393
:104E20003B07A0933C07B0933D0780913E0781115B
:104E30000BC062E070E087ED9AE00E94990C892B2C
:104E400019F481E080933E0780913E070895CF9347
:104E5000E82F209138073091390722533340409191
:104E60002F03642F70E0C9010E94452B481B842F3B
:104E7000EE2359F066E00E94A42BC82FC150B0F079
:104E800060E080E20E945827F9CFA901480F511D28
:104E90004115544018F080E020E030E0280F311D2B
:104EA0002E5C3C4F3093390720933807CF910895FB
:104EB000CF93DF938A3011F481E003C08D3029F461
:104EC00080E0DF91CF910C942727C62F682F809127
:104ED00038079091390726E0FC01A2E3B7E0019082
:104EE0000D922A95E1F7603E30F026E0FC01119228
:104EF0002A95E9F70AC0F6E06F9FB00111246956C0
:104F00007A4F46E050E00E94592BC11137C0C09142
:104F10003807D091390746E050E0BE0182E397E0C0
:104F20000E94CA2B892BC9F19E0122533340A9014B
:104F300086E0569547958A95E1F781E090E0BC01BF
:104F400002C0660F771F4A95E2F7409130035091F7
:104F50003103462B572B2B5F3F4F66E03695279545
:104F60006A95E1F702C0880F991F2A95E2F7842B12
:104F7000952B90933103809330030FC0E091380755
:104F8000F09139079F012A5F3F4F2E173F0709F421
:104F9000BECF808180958193F8CF9E012C52334003
:104FA00040912F03642F70E0C9010E94452B481BDC
:104FB000463010F4240F311D211584E0380710F01D
:104FC00020E030E02E5C3C4F3093390720933807C7
:104FD000DF91CF9108951F93CF93DF93EC01162FAC
:104FE000FE018491882329F0612F0E945827219681
:104FF000F7CFDF91CF911F910895FC01680F791FC2
:105000008FEF91E3E617F70771F02191822728E0EF
:1050100030E087FF03C0880F892701C0880F215027
:105020003109B9F7EFCF08951092B9008CE0809361
:10503000B80008959F92AF92BF92CF92DF92EF9205
:10504000FF920F931F93CF93DF93B82EEB010E9433
:1050500067116C01C431D10558F0CF3F8FEFD807ED
:1050600059F0CE0164E170E00E94452B7B0107C03E
:10507000EE24E394F12C03C025E0E22EF12C84E829
:10508000A82E94EA992E1092BC009092BC000E9427
:1050900067118C018091BC0087FD08C00E946711D8
:1050A000801B910B8E159F05A8F32AC08091B90033
:1050B000887F883041F08091B900887F803119F075
:1050C0000FEF1FEF1FC0B092BB00A092BC000E9468
:1050D00067118C018091BC0087FD08C00E94671198
:1050E000801B910B8E159F05A8F30AC08091B90013
:1050F000887F883111F0803419F700E010E00EC08D
:105100000EEF1FEFCF3F8FEFD80709F4BCCFC601DA
:105110000E944C118C179D0708F4B5CFC801DF9190
:10512000CF911F910F91FF90EF90DF90CF90BF90A4
:10513000AF909F9008950F931F93CF93DF93EB0150
:105140008093BB0084E88093BC000E9467118C01AF
:105150008091BC0087FD0EC0CF3F8FEFD807C1F311
:105160000E946711801B910B8C179D0788F38EEFAF
:105170009FEF0CC02091B900287F81E090E0283299
:1051800011F480E090E0919581959109DF91CF91A4
:105190001F910F910895CF92DF92EF92FF920F939C
:1051A0001F93CF93DF936B018A017901B9010E94AC
:1051B0001A28E6010C0D1D1DC017D10761F424E962
:1051C0002093BC00DF91CF911F910F91FF90EF9042
:1051D000DF90CF90089597FDF2CFB70189910E949B
:1051E0009B28EACFCF92DF92EF92FF920F931F930B
:1051F000CF93DF93C62F6A017901B8010E941A2864
:1052000097FD11C0B8018C2F0E949B28E601EC0C81
:10521000FD1CCE15DF0539F097FD05C0B801899159
:105220000E949B28F6CF24E92093BC00DF91CF9108
:105230001F910F91FF90EF90DF90CF90089584E938
:105240008093BC0008958EE14A9B02C08150E1F733
:105250004A9BFECF08955A9880E28A95F1F75A9AB0
:105260000895FC012AE02A95F1F728E090E080E01B
:1052700031E040E14A95F1F7880F4A9B02C0816016
:10528000932700C0000040E14A95F1F7215089F7CB
:1052900020E12A95F1F729B100C0000030E13A95EC
:1052A000F1F722FB222720F992272081920F908389
:1052B0000895EF92FF920F931F93CF93DF931F9266
:1052C000CDB7DEB719828C017C01E60EF11C0E15FC
:1052D0001F0551F00E942329CE0101960E94312919
:1052E000F80181938F01F3CF81E09981911180E0E2
:1052F0000F90DF91CF911F910F91FF90EF90089544
:10530000529A5A9A089552985A9AEA9AE9E6F0E01F
:1053100080818F7C80830895615091E001C0990F56
:105320006A95EAF720E031E0992361F0492F48239C
:1053300019F05A9A232701C05A9840E24A95F1F78A
:105340009695F2CF222311F05A9A01C05A9880E222
:105350008A95F1F75A980895FF920F931F93CF9370
:10536000DF93EC018C01060F111DC017D10741F02E
:10537000F9900E942B2968E08F2D0E948C29F5CF8F
:10538000DF91CF911F910F91FF9008951F920F927F
:105390000FB60F921124EF92FF920F931F932F934A
:1053A0003F934F935F936F937F938F939F93AF93AD
:1053B000BF93EF93FF93CF93DF931F92CDB7DEB7E9
:1053C00019820E942329CE0101960E943129A82F1B
:1053D000A695A695A6959A2F969595702A2F257035
:1053E000920F292F237096959695920F87708913A7
:1053F0007CC08981811179C0A73008F076C080E136
:105400008A95F1F75A9A529AB2E0BA95F1F700C02C
:105410005A98EA2EF12CEAE0AE9FD0011124AF5F3A
:10542000BE4F1896ED91FC9119973097B1F06091AD
:10543000B8017091B90116962D913C911797260FDE
:10544000371F13968D919C911497680F791F1596AD
:105450004C91159712968C9109958AE08E9DF001DA
:105460008F9DF00D1124EF5FFE4F6581662351F093
:105470008091B8019091B90126813781820F931FE5
:105480000E94AC290E942B29F0E1FA95F1F75A9875
:1054900052985A9A80E18A95F1F78AE08E9D8001B0
:1054A0008F9D100D11240F5F1E4FD80112966C9125
:1054B0001297662399F08091B8019091B9011396E3
:1054C0002D913C911497820F931F0E945929D80166
:1054D000ED91FC91811105C082E004C0D801ED91ED
:1054E000FC9188E080830E9423290F90DF91CF9167
:1054F000FF91EF91BF91AF919F918F917F916F91AC
:105500005F914F913F912F911F910F91FF90EF90DD
:105510000F900FBE0F901F9018950F931F93CF936E
:10552000DF93873091050CF0A9C02AE0289FF00195
:10553000299FF00D1124EF5FFE4F20813181232B35
:1055400009F49CC0EC01F894529A5A9885E08A9527
:10555000F1F700008C2F869585709C2F9570890F30
:10556000982F9370869586958E0123E0000F111F6A
:105570002A95E1F7890F082B0E942B29A4E0AA9510
:10558000F1F700C068E0802F0E948C29B0E1BA9545
:10559000F1F752985A9A4A9902C000C0FCCF87E0AE
:1055A00090E04A9B17C0019799F4529A5A9A8AE060
:1055B0008C9FF0018D9FF00D1124EF5FFE4F019045
:1055C000F081E02D81E08083789481E090E058C004
:1055D00000C0E7CF8AE08C9F80018D9F100D1124C1
:1055E0000F5F1E4FF80165816623B9F08091B80105
:1055F0009091B90126813781820F931F0E9459290A
:1056000081110BC0529A5A9AD801ED91FC9182E017
:105610008083789482E090E033C00E942329B0E236
:10562000BA95F1F75A98529AE0E1EA95F1F78AE0D3
:105630008C9FF0018D9FF00D1124EF5FFE4F628172
:10564000662351F08091B8019091B9012381348192
:10565000820F931F0E94AC290E942B298AE08C9F05
:10566000F0018D9FF00D1124EF5FFE4F0190F0814E
:10567000E02D1082789480E090E002C084E090E019
:10568000DF91CF911F910F910895AA1BBB1B51E190
:1056900007C0AA1FBB1FA617B70710F0A61BB70BA2
:1056A000881F991F5A95A9F780959095BC01CD0147
:1056B0000895FB01DC0102C005900D92415050405D
:1056C000D8F70895F999FECF92BD81BDF89A992730
:1056D00080B50895A8E1B0E042E050E00C94962B2C
:1056E000262FF999FECF92BD81BDF89A019700B49B
:1056F000021639F01FBA20BD0FB6F894FA9AF99A3B
:105700000FBE08950396272F0E94712B0E94702BC5
:10571000252F0E94712B242F0C94712B0196272F7B
:105720000E94712B0C94702BDC01CB01FC01F999C8
:10573000FECF06C0F2BDE1BDF89A319600B40D92DD
:1057400041505040B8F70895991B79E004C0991F63
:10575000961708F0961B881F7A95C9F780950895CB
:1057600097FB072E16F4009407D077FD09D00E940E
:10577000452B07FC05D03EF4909581959F4F0895E9
:10578000709561957F4F0895EE0FFF1F0590F4917E
:10579000E02D0994FB01DC0104C08D91019080197A
:1057A00021F441505040C8F7881B990B0895FB0124
:1057B000DC0102C001900D9241505040D8F708958D
:0457C000F894FFCF8B
:1057C40001790200000001000000007902000000DD
:1057D40004010000007902000000010500000079C6
:1057E4000200000001060000007902040700000026
:1057F4000000007902010B000000000000011E0CF3
:10580400540C1D0C500C4C0C35660021007F2200FA
:10581400075374616E6461726400446F776E0000B4
:1058240000000046756E6374696F6E004C696768AA
:105834007473000000818283E200E900EA00B5008D
:10584400B600B700CD008301CC008A019201940117
:105854002102230224022502260227022A02B3007F
:10586400B4006F0070004C617965723A2000556E87
:10587400646566696E6564007A0234C697940000B4
:10588400000036323331F7F6F5F400FF0100010071
:1058940000FFFF0000010001FF000008101820288D
:0A58A40030383830282018100800B2
:00000001FF
